{
    "abi": [
        {
            "type": "constructor",
            "inputs": [
                {
                    "name": "initMintAddrs_",
                    "type": "address[]",
                    "internalType": "address[]"
                },
                {
                    "name": "initMintAmts_",
                    "type": "uint256[]",
                    "internalType": "uint256[]"
                }
            ],
            "stateMutability": "nonpayable"
        },
        {
            "type": "receive",
            "stateMutability": "payable"
        },
        {
            "type": "function",
            "name": "DOMAIN_SEPARATOR",
            "inputs": [],
            "outputs": [
                {
                    "name": "result",
                    "type": "bytes32",
                    "internalType": "bytes32"
                }
            ],
            "stateMutability": "view"
        },
        {
            "type": "function",
            "name": "allowance",
            "inputs": [
                {
                    "name": "owner",
                    "type": "address",
                    "internalType": "address"
                },
                {
                    "name": "spender",
                    "type": "address",
                    "internalType": "address"
                }
            ],
            "outputs": [
                {
                    "name": "result",
                    "type": "uint256",
                    "internalType": "uint256"
                }
            ],
            "stateMutability": "view"
        },
        {
            "type": "function",
            "name": "approve",
            "inputs": [
                {
                    "name": "spender",
                    "type": "address",
                    "internalType": "address"
                },
                {
                    "name": "amount",
                    "type": "uint256",
                    "internalType": "uint256"
                }
            ],
            "outputs": [
                {
                    "name": "",
                    "type": "bool",
                    "internalType": "bool"
                }
            ],
            "stateMutability": "nonpayable"
        },
        {
            "type": "function",
            "name": "balanceOf",
            "inputs": [
                {
                    "name": "owner",
                    "type": "address",
                    "internalType": "address"
                }
            ],
            "outputs": [
                {
                    "name": "result",
                    "type": "uint256",
                    "internalType": "uint256"
                }
            ],
            "stateMutability": "view"
        },
        {
            "type": "function",
            "name": "burn",
            "inputs": [
                {
                    "name": "howMany_",
                    "type": "uint256",
                    "internalType": "uint256"
                }
            ],
            "outputs": [
                {
                    "name": "amtValReturned",
                    "type": "uint256",
                    "internalType": "uint256"
                }
            ],
            "stateMutability": "nonpayable"
        },
        {
            "type": "function",
            "name": "burnReturns",
            "inputs": [
                {
                    "name": "amt_",
                    "type": "uint256",
                    "internalType": "uint256"
                }
            ],
            "outputs": [
                {
                    "name": "rv",
                    "type": "uint256",
                    "internalType": "uint256"
                }
            ],
            "stateMutability": "view"
        },
        {
            "type": "function",
            "name": "burnTo",
            "inputs": [
                {
                    "name": "howMany_",
                    "type": "uint256",
                    "internalType": "uint256"
                },
                {
                    "name": "to_",
                    "type": "address",
                    "internalType": "address"
                }
            ],
            "outputs": [
                {
                    "name": "amount",
                    "type": "uint256",
                    "internalType": "uint256"
                }
            ],
            "stateMutability": "nonpayable"
        },
        {
            "type": "function",
            "name": "crosschainBurn",
            "inputs": [
                {
                    "name": "_from",
                    "type": "address",
                    "internalType": "address"
                },
                {
                    "name": "_amount",
                    "type": "uint256",
                    "internalType": "uint256"
                }
            ],
            "outputs": [],
            "stateMutability": "nonpayable"
        },
        {
            "type": "function",
            "name": "crosschainMint",
            "inputs": [
                {
                    "name": "_to",
                    "type": "address",
                    "internalType": "address"
                },
                {
                    "name": "_amount",
                    "type": "uint256",
                    "internalType": "uint256"
                }
            ],
            "outputs": [],
            "stateMutability": "nonpayable"
        },
        {
            "type": "function",
            "name": "currentPrice",
            "inputs": [],
            "outputs": [
                {
                    "name": "",
                    "type": "uint256",
                    "internalType": "uint256"
                }
            ],
            "stateMutability": "view"
        },
        {
            "type": "function",
            "name": "decimals",
            "inputs": [],
            "outputs": [
                {
                    "name": "",
                    "type": "uint8",
                    "internalType": "uint8"
                }
            ],
            "stateMutability": "view"
        },
        {
            "type": "function",
            "name": "deconstructBurn",
            "inputs": [
                {
                    "name": "amountToBurn_",
                    "type": "uint256",
                    "internalType": "uint256"
                },
                {
                    "name": "tokensToRedeem",
                    "type": "address[]",
                    "internalType": "address[]"
                }
            ],
            "outputs": [
                {
                    "name": "shareBurned",
                    "type": "uint256",
                    "internalType": "uint256"
                }
            ],
            "stateMutability": "nonpayable"
        },
        {
            "type": "function",
            "name": "lastBlockSupply",
            "inputs": [],
            "outputs": [
                {
                    "name": "",
                    "type": "uint256",
                    "internalType": "uint256"
                }
            ],
            "stateMutability": "view"
        },
        {
            "type": "function",
            "name": "lastPrice",
            "inputs": [],
            "outputs": [
                {
                    "name": "",
                    "type": "uint256",
                    "internalType": "uint256"
                }
            ],
            "stateMutability": "view"
        },
        {
            "type": "function",
            "name": "lastPriceBlock",
            "inputs": [],
            "outputs": [
                {
                    "name": "",
                    "type": "uint256",
                    "internalType": "uint256"
                }
            ],
            "stateMutability": "view"
        },
        {
            "type": "function",
            "name": "mint",
            "inputs": [
                {
                    "name": "howMany_",
                    "type": "uint256",
                    "internalType": "uint256"
                }
            ],
            "outputs": [],
            "stateMutability": "payable"
        },
        {
            "type": "function",
            "name": "mintCost",
            "inputs": [
                {
                    "name": "amt_",
                    "type": "uint256",
                    "internalType": "uint256"
                }
            ],
            "outputs": [
                {
                    "name": "",
                    "type": "uint256",
                    "internalType": "uint256"
                }
            ],
            "stateMutability": "view"
        },
        {
            "type": "function",
            "name": "mintFromETH",
            "inputs": [],
            "outputs": [
                {
                    "name": "howMuchMinted",
                    "type": "uint256",
                    "internalType": "uint256"
                }
            ],
            "stateMutability": "payable"
        },
        {
            "type": "function",
            "name": "name",
            "inputs": [],
            "outputs": [
                {
                    "name": "",
                    "type": "string",
                    "internalType": "string"
                }
            ],
            "stateMutability": "pure"
        },
        {
            "type": "function",
            "name": "nonces",
            "inputs": [
                {
                    "name": "owner",
                    "type": "address",
                    "internalType": "address"
                }
            ],
            "outputs": [
                {
                    "name": "result",
                    "type": "uint256",
                    "internalType": "uint256"
                }
            ],
            "stateMutability": "view"
        },
        {
            "type": "function",
            "name": "permit",
            "inputs": [
                {
                    "name": "owner",
                    "type": "address",
                    "internalType": "address"
                },
                {
                    "name": "spender",
                    "type": "address",
                    "internalType": "address"
                },
                {
                    "name": "value",
                    "type": "uint256",
                    "internalType": "uint256"
                },
                {
                    "name": "deadline",
                    "type": "uint256",
                    "internalType": "uint256"
                },
                {
                    "name": "v",
                    "type": "uint8",
                    "internalType": "uint8"
                },
                {
                    "name": "r",
                    "type": "bytes32",
                    "internalType": "bytes32"
                },
                {
                    "name": "s",
                    "type": "bytes32",
                    "internalType": "bytes32"
                }
            ],
            "outputs": [],
            "stateMutability": "nonpayable"
        },
        {
            "type": "function",
            "name": "supportsInterface",
            "inputs": [
                {
                    "name": "_interfaceId",
                    "type": "bytes4",
                    "internalType": "bytes4"
                }
            ],
            "outputs": [
                {
                    "name": "",
                    "type": "bool",
                    "internalType": "bool"
                }
            ],
            "stateMutability": "view"
        },
        {
            "type": "function",
            "name": "symbol",
            "inputs": [],
            "outputs": [
                {
                    "name": "",
                    "type": "string",
                    "internalType": "string"
                }
            ],
            "stateMutability": "pure"
        },
        {
            "type": "function",
            "name": "totalSupply",
            "inputs": [],
            "outputs": [
                {
                    "name": "result",
                    "type": "uint256",
                    "internalType": "uint256"
                }
            ],
            "stateMutability": "view"
        },
        {
            "type": "function",
            "name": "transfer",
            "inputs": [
                {
                    "name": "to",
                    "type": "address",
                    "internalType": "address"
                },
                {
                    "name": "amount",
                    "type": "uint256",
                    "internalType": "uint256"
                }
            ],
            "outputs": [
                {
                    "name": "",
                    "type": "bool",
                    "internalType": "bool"
                }
            ],
            "stateMutability": "nonpayable"
        },
        {
            "type": "function",
            "name": "transferFrom",
            "inputs": [
                {
                    "name": "from",
                    "type": "address",
                    "internalType": "address"
                },
                {
                    "name": "to",
                    "type": "address",
                    "internalType": "address"
                },
                {
                    "name": "amount",
                    "type": "uint256",
                    "internalType": "uint256"
                }
            ],
            "outputs": [
                {
                    "name": "",
                    "type": "bool",
                    "internalType": "bool"
                }
            ],
            "stateMutability": "nonpayable"
        },
        {
            "type": "function",
            "name": "version",
            "inputs": [],
            "outputs": [
                {
                    "name": "",
                    "type": "string",
                    "internalType": "string"
                }
            ],
            "stateMutability": "view"
        },
        {
            "type": "event",
            "name": "Approval",
            "inputs": [
                {
                    "name": "owner",
                    "type": "address",
                    "indexed": true,
                    "internalType": "address"
                },
                {
                    "name": "spender",
                    "type": "address",
                    "indexed": true,
                    "internalType": "address"
                },
                {
                    "name": "amount",
                    "type": "uint256",
                    "indexed": false,
                    "internalType": "uint256"
                }
            ],
            "anonymous": false
        },
        {
            "type": "event",
            "name": "CrosschainBurn",
            "inputs": [
                {
                    "name": "from",
                    "type": "address",
                    "indexed": true,
                    "internalType": "address"
                },
                {
                    "name": "amount",
                    "type": "uint256",
                    "indexed": false,
                    "internalType": "uint256"
                },
                {
                    "name": "sender",
                    "type": "address",
                    "indexed": true,
                    "internalType": "address"
                }
            ],
            "anonymous": false
        },
        {
            "type": "event",
            "name": "CrosschainMint",
            "inputs": [
                {
                    "name": "to",
                    "type": "address",
                    "indexed": true,
                    "internalType": "address"
                },
                {
                    "name": "amount",
                    "type": "uint256",
                    "indexed": false,
                    "internalType": "uint256"
                },
                {
                    "name": "sender",
                    "type": "address",
                    "indexed": true,
                    "internalType": "address"
                }
            ],
            "anonymous": false
        },
        {
            "type": "event",
            "name": "PriceUpdated",
            "inputs": [
                {
                    "name": "newPrice",
                    "type": "uint256",
                    "indexed": false,
                    "internalType": "uint256"
                }
            ],
            "anonymous": false
        },
        {
            "type": "event",
            "name": "Transfer",
            "inputs": [
                {
                    "name": "from",
                    "type": "address",
                    "indexed": true,
                    "internalType": "address"
                },
                {
                    "name": "to",
                    "type": "address",
                    "indexed": true,
                    "internalType": "address"
                },
                {
                    "name": "amount",
                    "type": "uint256",
                    "indexed": false,
                    "internalType": "uint256"
                }
            ],
            "anonymous": false
        },
        {
            "type": "event",
            "name": "WillBurned",
            "inputs": [
                {
                    "name": "from",
                    "type": "address",
                    "indexed": true,
                    "internalType": "address"
                },
                {
                    "name": "amount",
                    "type": "uint256",
                    "indexed": false,
                    "internalType": "uint256"
                },
                {
                    "name": "ethReturned",
                    "type": "uint256",
                    "indexed": false,
                    "internalType": "uint256"
                }
            ],
            "anonymous": false
        },
        {
            "type": "event",
            "name": "WillDeconstructBurned",
            "inputs": [
                {
                    "name": "from",
                    "type": "address",
                    "indexed": true,
                    "internalType": "address"
                },
                {
                    "name": "willAmount",
                    "type": "uint256",
                    "indexed": false,
                    "internalType": "uint256"
                },
                {
                    "name": "ethAmount",
                    "type": "uint256",
                    "indexed": false,
                    "internalType": "uint256"
                }
            ],
            "anonymous": false
        },
        {
            "type": "event",
            "name": "WillMinted",
            "inputs": [
                {
                    "name": "to",
                    "type": "address",
                    "indexed": true,
                    "internalType": "address"
                },
                {
                    "name": "amount",
                    "type": "uint256",
                    "indexed": false,
                    "internalType": "uint256"
                },
                {
                    "name": "ethValue",
                    "type": "uint256",
                    "indexed": false,
                    "internalType": "uint256"
                }
            ],
            "anonymous": false
        },
        {
            "type": "error",
            "name": "AllowanceOverflow",
            "inputs": []
        },
        {
            "type": "error",
            "name": "AllowanceUnderflow",
            "inputs": []
        },
        {
            "type": "error",
            "name": "BurnRefundF",
            "inputs": []
        },
        {
            "type": "error",
            "name": "InsufficentBalance",
            "inputs": []
        },
        {
            "type": "error",
            "name": "InsufficientAllowance",
            "inputs": []
        },
        {
            "type": "error",
            "name": "InsufficientBalance",
            "inputs": []
        },
        {
            "type": "error",
            "name": "InsufficientValue",
            "inputs": [
                {
                    "name": "required",
                    "type": "uint256",
                    "internalType": "uint256"
                },
                {
                    "name": "provided",
                    "type": "uint256",
                    "internalType": "uint256"
                }
            ]
        },
        {
            "type": "error",
            "name": "InvalidPermit",
            "inputs": []
        },
        {
            "type": "error",
            "name": "PayCallF",
            "inputs": []
        },
        {
            "type": "error",
            "name": "Permit2AllowanceIsFixedAtInfinity",
            "inputs": []
        },
        {
            "type": "error",
            "name": "PermitExpired",
            "inputs": []
        },
        {
            "type": "error",
            "name": "Reentrant",
            "inputs": []
        },
        {
            "type": "error",
            "name": "TotalSupplyOverflow",
            "inputs": []
        },
        {
            "type": "error",
            "name": "TransferFailedFor",
            "inputs": [
                {
                    "name": "failingToken",
                    "type": "address",
                    "internalType": "address"
                }
            ]
        },
        {
            "type": "error",
            "name": "Unauthorized",
            "inputs": []
        },
        {
            "type": "error",
            "name": "ValueMismatch",
            "inputs": []
        }
    ],
    "bytecode": {
        "object": "0x608060405234801561000f575f80fd5b506040516118f53803806118f583398101604081905261002e916102a7565b4360025581515f901580159061005c57505f825f8151811061005257610052610370565b6020026020010151115b1561010a575b825181101561010a575f6001600160a01b031683828151811061008757610087610370565b60200260200101516001600160a01b031614806100bc57508181815181106100b1576100b1610370565b60200260200101515f145b610102576101028382815181106100d5576100d5610370565b60200260200101518383815181106100ef576100ef610370565b602002602001015161014b60201b60201c565b600101610062565b6805345cdf77eb68f44c545f0361012d5761012d5f670de0b6b3a764000061014b565b5050633b9aca00600155506805345cdf77eb68f44c54600355610384565b6805345cdf77eb68f44c548181018181101561016e5763e5cfe9575f526004601cfd5b806805345cdf77eb68f44c5550506387a211a2600c52815f526020600c208181540181555080602052600c5160601c5f7fddf252ad1be2c89b69c2b068fc378daa952ba7f163c4a11628f55a4df523b3ef602080a36805345cdf77eb68f44c546003555050565b634e487b7160e01b5f52604160045260245ffd5b604051601f8201601f191681016001600160401b0381118282101715610211576102116101d5565b604052919050565b5f6001600160401b03821115610231576102316101d5565b5060051b60200190565b5f82601f83011261024a575f80fd5b8151602061025f61025a83610219565b6101e9565b8083825260208201915060208460051b870101935086841115610280575f80fd5b602086015b8481101561029c5780518352918301918301610285565b509695505050505050565b5f80604083850312156102b8575f80fd5b82516001600160401b03808211156102ce575f80fd5b818501915085601f8301126102e1575f80fd5b815160206102f161025a83610219565b82815260059290921b8401810191818101908984111561030f575f80fd5b948201945b838610156103415785516001600160a01b0381168114610332575f80fd5b82529482019490820190610314565b91880151919650909350505080821115610359575f80fd5b506103668582860161023b565b9150509250929050565b634e487b7160e01b5f52603260045260245ffd5b611564806103915f395ff3fe608060405260043610610198575f3560e01c806354fd4d50116100e75780639d1b464a11610087578063b623890111610062578063b62389011461048b578063d505accf146104aa578063dd62ed3e146104c9578063f59ad48a146104fd575f80fd5b80639d1b464a14610445578063a0712d6814610459578063a9059cbb1461046c575f80fd5b80637db802ca116100c25780637db802ca146103cb5780637ecebe00146103d3578063918fca2f1461040457806395d89b4114610419575f80fd5b806354fd4d5014610347578063571ff20d1461037b57806370a082311461039a575f80fd5b806318bf5077116101525780632b8c49e31161012d5780632b8c49e3146102da578063313ce567146102f95780633644e5151461031457806342966c6814610328575f80fd5b806318bf50771461027d57806323b872dd1461029c57806327de8f27146102bb575f80fd5b806301ffc9a7146101ab578063053f14da146101df57806306fdde0314610202578063095ea7b3146102235780630dc561ba1461024257806318160ddd14610261575f80fd5b366101a7576101a5610512565b005b5f80fd5b3480156101b6575f80fd5b506101ca6101c53660046111e0565b6105a6565b60405190151581526020015b60405180910390f35b3480156101ea575f80fd5b506101f460015481565b6040519081526020016101d6565b34801561020d575f80fd5b506102166105f7565b6040516101d69190611207565b34801561022e575f80fd5b506101ca61023d366004611252565b610615565b34801561024d575f80fd5b506101f461025c36600461127a565b610664565b34801561026c575f80fd5b506805345cdf77eb68f44c546101f4565b348015610288575f80fd5b506101a5610297366004611252565b6106a1565b3480156102a7575f80fd5b506101ca6102b6366004611291565b610716565b3480156102c6575f80fd5b506101f46102d536600461127a565b6107c9565b3480156102e5575f80fd5b506101a56102f4366004611252565b610807565b348015610304575f80fd5b50604051601281526020016101d6565b34801561031f575f80fd5b506101f4610874565b348015610333575f80fd5b506101f461034236600461127a565b6108f0565b348015610352575f80fd5b5060408051808201909152600c81526b189718171816b132ba30971b60a11b6020820152610216565b348015610386575f80fd5b506101f46103953660046112ca565b6109ce565b3480156103a5575f80fd5b506101f46103b43660046112f4565b6387a211a2600c9081525f91909152602090205490565b6101f4610512565b3480156103de575f80fd5b506101f46103ed3660046112f4565b6338377508600c9081525f91909152602090205490565b34801561040f575f80fd5b506101f460035481565b348015610424575f80fd5b5060408051808201909152600481526315d2531360e21b6020820152610216565b348015610450575f80fd5b506101f4610aad565b6101a561046736600461127a565b610ae4565b348015610477575f80fd5b506101ca610486366004611252565b610b6f565b348015610496575f80fd5b506101f46104a5366004611321565b610be0565b3480156104b5575f80fd5b506101a56104c43660046113ed565b610f1b565b3480156104d4575f80fd5b506101f46104e336600461145a565b602052637f5e9f20600c9081525f91909152603490205490565b348015610508575f80fd5b506101f460025481565b5f61051b61109f565b60015434101561053e5760405163dd8e4af760e01b815260040160405180910390fd5b60015461055334670de0b6b3a7640000611482565b61055d91906114a5565b905061056933826110fa565b6040805182815234602082015233917f14e4a6e0974972ccddee07f987e9d094b698f468dd3bdafde30c0d5f3eddf918910160405180910390a290565b5f6001600160e01b03198216630cccc66560e21b14806105d657506001600160e01b031982166336372b0760e01b145b806105f157506001600160e01b031982166301ffc9a760e01b145b92915050565b60408051808201909152600481526315da5b1b60e21b602082015290565b5f82602052637f5e9f20600c52335f52816034600c2055815f52602c5160601c337f8c5be1e5ebec7d5bd14f71427d1e84f3dd0314c0f7b2291e5b200ac8c7c3b92560205fa350600192915050565b5f806106776805345cdf77eb68f44c5490565b111561069c576805345cdf77eb68f44c546106924784611482565b6105f191906114a5565b919050565b336028602160991b01146106c7576040516282b42960e81b815260040160405180910390fd5b6106d182826110fa565b60405181815233906001600160a01b038416907fde22baff038e3a3e08407cbdf617deed74e869a7ba517df611e33131c6e6ea04906020015b60405180910390a35050565b5f8360601b33602052637f5e9f208117600c526034600c208054801915610752578085111561074c576313be252b5f526004601cfd5b84810382555b50506387a211a28117600c526020600c2080548085111561077a5763f4d678b85f526004601cfd5b84810382555050835f526020600c208381540181555082602052600c5160601c8160601c5f8051602061150f833981519152602080a3506805345cdf77eb68f44c546003555060019392505050565b5f806107d3610aad565b9050670de0b6b3a76400006107e88285611482565b6107f690633b9aca00611482565b61080091906114a5565b9392505050565b336028602160991b011461082d576040516282b42960e81b815260040160405180910390fd5b6108378282611171565b60405181815233906001600160a01b038416907fb90795a66650155983e242cac3e1ac1a4dc26f8ed2987f3ce416a34e00111fd49060200161070a565b5f8061087e6105f7565b805190602001209050604080517f8b73c3c69bb8fe3d512ecc4cf759cc79239f7b179b0ffacaa9a75d522b39400f815260208101929092527fc89efdaa54c0f20c7adf612882df0950f5a951637e0307cdcb4c672f298b8bc69082015246606082015230608082015260a09020919050565b6387a211a2600c908152335f9081526020909120548211156109255760405163064c392760e21b815260040160405180910390fd5b61092e82610664565b905080158061093c57504781115b1561095a5760405163064c392760e21b815260040160405180910390fd5b6109643383611171565b5f805f805f85335af190508061098d57604051630958b5bb60e41b815260040160405180910390fd5b604080518481526020810184905233917fd7ef40a7868c8df41095818aabb16d7cba24a94c34af8426183d2c38469dfb91910160405180910390a250919050565b6387a211a2600c908152335f908152602090912054831115610a035760405163064c392760e21b815260040160405180910390fd5b610a0c83610664565b9050801580610a1a57504781115b15610a385760405163064c392760e21b815260040160405180910390fd5b610a423384611171565b5f805f805f85875af1905080610a6b57604051630958b5bb60e41b815260040160405180910390fd5b604080518581526020810184905233917fd7ef40a7868c8df41095818aabb16d7cba24a94c34af8426183d2c38469dfb91910160405180910390a25092915050565b5f600254431115610add57633b9aca00610ace6805345cdf77eb68f44c5490565b610ad891906114a5565b905090565b5060015490565b610aec61109f565b5f610af6826107c9565b905080341015610b2757604051631c102d6360e21b8152600481018290523460248201526044015b60405180910390fd5b610b3133836110fa565b6040805183815234602082015233917f14e4a6e0974972ccddee07f987e9d094b698f468dd3bdafde30c0d5f3eddf918910160405180910390a25050565b5f6387a211a2600c52335f526020600c20805480841115610b975763f4d678b85f526004601cfd5b83810382555050825f526020600c208281540181555081602052600c5160601c335f8051602061150f833981519152602080a350506805345cdf77eb68f44c5460035550600190565b5f805460ff1615610c045760405163769dd35360e11b815260040160405180910390fd5b5f805460ff1916600117905582610c2c336387a211a2600c9081525f91909152602090205490565b1015610c4b5760405163064c392760e21b815260040160405180910390fd5b6805345cdf77eb68f44c54610c6884670de0b6b3a7640000611482565b610c7291906114a5565b9050610c7e3384611171565b5f825167ffffffffffffffff811115610c9957610c9961130d565b604051908082528060200260200182016040528015610cc2578160200160208202803683370190505b5090505f5b8351811015610e59575f848281518110610ce357610ce36114c4565b60209081029190910101516040516370a0823160e01b81523060048201529091505f90670de0b6b3a76400009086906001600160a01b038516906370a0823190602401602060405180830381865afa158015610d41573d5f803e3d5ffd5b505050506040513d601f19601f82011682018060405250810190610d6591906114d8565b610d6f9190611482565b610d7991906114a5565b60405163a9059cbb60e01b8152336004820152602481018290529091506001600160a01b0383169063a9059cbb906044016020604051808303815f875af1158015610dc6573d5f803e3d5ffd5b505050506040513d601f19601f82011682018060405250810190610dea91906114ef565b610e3157858381518110610e0057610e006114c4565b6020026020010151604051630ca909b760e21b8152600401610b1e91906001600160a01b0391909116815260200190565b80848481518110610e4457610e446114c4565b60209081029190910101525050600101610cc7565b505f670de0b6b3a7640000610e6e8447611482565b610e7891906114a5565b9050801580610e875750478110155b15610ea55760405163064c392760e21b815260040160405180910390fd5b5f805f805f85335af1905080610ece576040516365a1711b60e01b815260040160405180910390fd5b604080518781526020810184905233917fc69ff5233737def76e4d803659f3e07c2108ff8a3570adefcc85b20c92f9dffe910160405180910390a250505f805460ff191690555092915050565b5f610f246105f7565b8051906020012090507fc89efdaa54c0f20c7adf612882df0950f5a951637e0307cdcb4c672f298b8bc642861015610f6357631a15a3cc5f526004601cfd5b6040518960601b60601c99508860601b60601c985065383775081901600e52895f526020600c2080547f8b73c3c69bb8fe3d512ecc4cf759cc79239f7b179b0ffacaa9a75d522b39400f835284602084015283604084015246606084015230608084015260a08320602e527f6e71edae12b1b97f4d1f60370fef10105fa2faae0126114a169c64845d6126c983528b60208401528a60408401528960608401528060808401528860a084015260c08320604e526042602c205f528760ff16602052866040528560605260208060805f60015afa8c3d511461104b5763ddafbaef5f526004601cfd5b0190556303faf4f960a51b89176040526034602c20889055888a7f8c5be1e5ebec7d5bd14f71427d1e84f3dd0314c0f7b2291e5b200ac8c7c3b925602060608501a360405250505f60605250505050505050565b6002544311156110f857633b9aca006003546110bb91906114a5565b60018190556040519081527f66cbca4f3c64fecf1dcb9ce094abcf7f68c3450a1d4e3a8e917dd621edb4ebe09060200160405180910390a1436002555b565b6805345cdf77eb68f44c548181018181101561111d5763e5cfe9575f526004601cfd5b806805345cdf77eb68f44c5550506387a211a2600c52815f526020600c208181540181555080602052600c5160601c5f5f8051602061150f833981519152602080a36805345cdf77eb68f44c546003555050565b6387a211a2600c52815f526020600c208054808311156111985763f4d678b85f526004601cfd5b82900390556805345cdf77eb68f44c805482900390555f8181526001600160a01b0383165f8051602061150f833981519152602083a36805345cdf77eb68f44c546003555050565b5f602082840312156111f0575f80fd5b81356001600160e01b031981168114610800575f80fd5b602081525f82518060208401528060208501604085015e5f604082850101526040601f19601f83011684010191505092915050565b80356001600160a01b038116811461069c575f80fd5b5f8060408385031215611263575f80fd5b61126c8361123c565b946020939093013593505050565b5f6020828403121561128a575f80fd5b5035919050565b5f805f606084860312156112a3575f80fd5b6112ac8461123c565b92506112ba6020850161123c565b9150604084013590509250925092565b5f80604083850312156112db575f80fd5b823591506112eb6020840161123c565b90509250929050565b5f60208284031215611304575f80fd5b6108008261123c565b634e487b7160e01b5f52604160045260245ffd5b5f8060408385031215611332575f80fd5b8235915060208084013567ffffffffffffffff80821115611351575f80fd5b818601915086601f830112611364575f80fd5b8135818111156113765761137661130d565b8060051b604051601f19603f8301168101818110858211171561139b5761139b61130d565b6040529182528482019250838101850191898311156113b8575f80fd5b938501935b828510156113dd576113ce8561123c565b845293850193928501926113bd565b8096505050505050509250929050565b5f805f805f805f60e0888a031215611403575f80fd5b61140c8861123c565b965061141a6020890161123c565b95506040880135945060608801359350608088013560ff8116811461143d575f80fd5b9699959850939692959460a0840135945060c09093013592915050565b5f806040838503121561146b575f80fd5b6114748361123c565b91506112eb6020840161123c565b80820281158282048414176105f157634e487b7160e01b5f52601160045260245ffd5b5f826114bf57634e487b7160e01b5f52601260045260245ffd5b500490565b634e487b7160e01b5f52603260045260245ffd5b5f602082840312156114e8575f80fd5b5051919050565b5f602082840312156114ff575f80fd5b81518015158114610800575f80fdfeddf252ad1be2c89b69c2b068fc378daa952ba7f163c4a11628f55a4df523b3efa2646970667358221220842593e039278e1a6208bec3fbdef2b9e8157a065c2e32fa2ec8bdf4105557c164736f6c63430008190033",
        "linkReferences": {}
    },
    "methodIdentifiers": {
        "DOMAIN_SEPARATOR()": "3644e515",
        "allowance(address,address)": "dd62ed3e",
        "approve(address,uint256)": "095ea7b3",
        "balanceOf(address)": "70a08231",
        "burn(uint256)": "42966c68",
        "burnReturns(uint256)": "0dc561ba",
        "burnTo(uint256,address)": "571ff20d",
        "crosschainBurn(address,uint256)": "2b8c49e3",
        "crosschainMint(address,uint256)": "18bf5077",
        "currentPrice()": "9d1b464a",
        "decimals()": "313ce567",
        "deconstructBurn(uint256,address[])": "b6238901",
        "lastBlockSupply()": "918fca2f",
        "lastPrice()": "053f14da",
        "lastPriceBlock()": "f59ad48a",
        "mint(uint256)": "a0712d68",
        "mintCost(uint256)": "27de8f27",
        "mintFromETH()": "7db802ca",
        "name()": "06fdde03",
        "nonces(address)": "7ecebe00",
        "permit(address,address,uint256,uint256,uint8,bytes32,bytes32)": "d505accf",
        "supportsInterface(bytes4)": "01ffc9a7",
        "symbol()": "95d89b41",
        "totalSupply()": "18160ddd",
        "transfer(address,uint256)": "a9059cbb",
        "transferFrom(address,address,uint256)": "23b872dd",
        "version()": "54fd4d50"
    },
    "storageLayout": {
        "storage": [
            {
                "astId": 48945,
                "contract": "lib/will/packages/contracts/src/Will.sol:Will",
                "label": "entered",
                "offset": 0,
                "slot": "0",
                "type": "t_bool"
            },
            {
                "astId": 48947,
                "contract": "lib/will/packages/contracts/src/Will.sol:Will",
                "label": "lastPrice",
                "offset": 0,
                "slot": "1",
                "type": "t_uint256"
            },
            {
                "astId": 48949,
                "contract": "lib/will/packages/contracts/src/Will.sol:Will",
                "label": "lastPriceBlock",
                "offset": 0,
                "slot": "2",
                "type": "t_uint256"
            },
            {
                "astId": 48951,
                "contract": "lib/will/packages/contracts/src/Will.sol:Will",
                "label": "lastBlockSupply",
                "offset": 0,
                "slot": "3",
                "type": "t_uint256"
            }
        ],
        "types": {
            "t_bool": {
                "encoding": "inplace",
                "label": "bool",
                "numberOfBytes": "1"
            },
            "t_uint256": {
                "encoding": "inplace",
                "label": "uint256",
                "numberOfBytes": "32"
            }
        }
    },
    "id": 60
}