{"abi":[{"type":"constructor","inputs":[{"name":"initMintAddrs_","type":"address[]","internalType":"address[]"},{"name":"initMintAmts_","type":"uint256[]","internalType":"uint256[]"}],"stateMutability":"nonpayable"},{"type":"receive","stateMutability":"payable"},{"type":"function","name":"DOMAIN_SEPARATOR","inputs":[],"outputs":[{"name":"result","type":"bytes32","internalType":"bytes32"}],"stateMutability":"view"},{"type":"function","name":"allowance","inputs":[{"name":"owner","type":"address","internalType":"address"},{"name":"spender","type":"address","internalType":"address"}],"outputs":[{"name":"result","type":"uint256","internalType":"uint256"}],"stateMutability":"view"},{"type":"function","name":"approve","inputs":[{"name":"spender","type":"address","internalType":"address"},{"name":"amount","type":"uint256","internalType":"uint256"}],"outputs":[{"name":"","type":"bool","internalType":"bool"}],"stateMutability":"nonpayable"},{"type":"function","name":"balanceOf","inputs":[{"name":"owner","type":"address","internalType":"address"}],"outputs":[{"name":"result","type":"uint256","internalType":"uint256"}],"stateMutability":"view"},{"type":"function","name":"burn","inputs":[{"name":"howMany_","type":"uint256","internalType":"uint256"}],"outputs":[{"name":"amtValReturned","type":"uint256","internalType":"uint256"}],"stateMutability":"nonpayable"},{"type":"function","name":"burnReturns","inputs":[{"name":"amt_","type":"uint256","internalType":"uint256"}],"outputs":[{"name":"rv","type":"uint256","internalType":"uint256"}],"stateMutability":"view"},{"type":"function","name":"burnTo","inputs":[{"name":"howMany_","type":"uint256","internalType":"uint256"},{"name":"to_","type":"address","internalType":"address"}],"outputs":[{"name":"amount","type":"uint256","internalType":"uint256"}],"stateMutability":"nonpayable"},{"type":"function","name":"crosschainBurn","inputs":[{"name":"_from","type":"address","internalType":"address"},{"name":"_amount","type":"uint256","internalType":"uint256"}],"outputs":[],"stateMutability":"nonpayable"},{"type":"function","name":"crosschainMint","inputs":[{"name":"_to","type":"address","internalType":"address"},{"name":"_amount","type":"uint256","internalType":"uint256"}],"outputs":[],"stateMutability":"nonpayable"},{"type":"function","name":"currentPrice","inputs":[],"outputs":[{"name":"","type":"uint256","internalType":"uint256"}],"stateMutability":"view"},{"type":"function","name":"decimals","inputs":[],"outputs":[{"name":"","type":"uint8","internalType":"uint8"}],"stateMutability":"view"},{"type":"function","name":"deconstructBurn","inputs":[{"name":"amountToBurn_","type":"uint256","internalType":"uint256"},{"name":"tokensToRedeem","type":"address[]","internalType":"address[]"}],"outputs":[{"name":"shareBurned","type":"uint256","internalType":"uint256"}],"stateMutability":"nonpayable"},{"type":"function","name":"lastBlockSupply","inputs":[],"outputs":[{"name":"","type":"uint256","internalType":"uint256"}],"stateMutability":"view"},{"type":"function","name":"lastPrice","inputs":[],"outputs":[{"name":"","type":"uint256","internalType":"uint256"}],"stateMutability":"view"},{"type":"function","name":"lastPriceBlock","inputs":[],"outputs":[{"name":"","type":"uint256","internalType":"uint256"}],"stateMutability":"view"},{"type":"function","name":"mint","inputs":[{"name":"howMany_","type":"uint256","internalType":"uint256"}],"outputs":[],"stateMutability":"payable"},{"type":"function","name":"mintCost","inputs":[{"name":"amt_","type":"uint256","internalType":"uint256"}],"outputs":[{"name":"","type":"uint256","internalType":"uint256"}],"stateMutability":"view"},{"type":"function","name":"mintFromETH","inputs":[],"outputs":[{"name":"howMuchMinted","type":"uint256","internalType":"uint256"}],"stateMutability":"payable"},{"type":"function","name":"name","inputs":[],"outputs":[{"name":"","type":"string","internalType":"string"}],"stateMutability":"pure"},{"type":"function","name":"nonces","inputs":[{"name":"owner","type":"address","internalType":"address"}],"outputs":[{"name":"result","type":"uint256","internalType":"uint256"}],"stateMutability":"view"},{"type":"function","name":"permit","inputs":[{"name":"owner","type":"address","internalType":"address"},{"name":"spender","type":"address","internalType":"address"},{"name":"value","type":"uint256","internalType":"uint256"},{"name":"deadline","type":"uint256","internalType":"uint256"},{"name":"v","type":"uint8","internalType":"uint8"},{"name":"r","type":"bytes32","internalType":"bytes32"},{"name":"s","type":"bytes32","internalType":"bytes32"}],"outputs":[],"stateMutability":"nonpayable"},{"type":"function","name":"supportsInterface","inputs":[{"name":"_interfaceId","type":"bytes4","internalType":"bytes4"}],"outputs":[{"name":"","type":"bool","internalType":"bool"}],"stateMutability":"view"},{"type":"function","name":"symbol","inputs":[],"outputs":[{"name":"","type":"string","internalType":"string"}],"stateMutability":"pure"},{"type":"function","name":"totalSupply","inputs":[],"outputs":[{"name":"result","type":"uint256","internalType":"uint256"}],"stateMutability":"view"},{"type":"function","name":"transfer","inputs":[{"name":"to","type":"address","internalType":"address"},{"name":"amount","type":"uint256","internalType":"uint256"}],"outputs":[{"name":"","type":"bool","internalType":"bool"}],"stateMutability":"nonpayable"},{"type":"function","name":"transferFrom","inputs":[{"name":"from","type":"address","internalType":"address"},{"name":"to","type":"address","internalType":"address"},{"name":"amount","type":"uint256","internalType":"uint256"}],"outputs":[{"name":"","type":"bool","internalType":"bool"}],"stateMutability":"nonpayable"},{"type":"function","name":"version","inputs":[],"outputs":[{"name":"","type":"string","internalType":"string"}],"stateMutability":"view"},{"type":"event","name":"Approval","inputs":[{"name":"owner","type":"address","indexed":true,"internalType":"address"},{"name":"spender","type":"address","indexed":true,"internalType":"address"},{"name":"amount","type":"uint256","indexed":false,"internalType":"uint256"}],"anonymous":false},{"type":"event","name":"CrosschainBurn","inputs":[{"name":"from","type":"address","indexed":true,"internalType":"address"},{"name":"amount","type":"uint256","indexed":false,"internalType":"uint256"},{"name":"sender","type":"address","indexed":true,"internalType":"address"}],"anonymous":false},{"type":"event","name":"CrosschainMint","inputs":[{"name":"to","type":"address","indexed":true,"internalType":"address"},{"name":"amount","type":"uint256","indexed":false,"internalType":"uint256"},{"name":"sender","type":"address","indexed":true,"internalType":"address"}],"anonymous":false},{"type":"event","name":"PriceUpdated","inputs":[{"name":"newPrice","type":"uint256","indexed":false,"internalType":"uint256"}],"anonymous":false},{"type":"event","name":"Transfer","inputs":[{"name":"from","type":"address","indexed":true,"internalType":"address"},{"name":"to","type":"address","indexed":true,"internalType":"address"},{"name":"amount","type":"uint256","indexed":false,"internalType":"uint256"}],"anonymous":false},{"type":"event","name":"WillBurned","inputs":[{"name":"from","type":"address","indexed":true,"internalType":"address"},{"name":"amount","type":"uint256","indexed":false,"internalType":"uint256"},{"name":"ethReturned","type":"uint256","indexed":false,"internalType":"uint256"}],"anonymous":false},{"type":"event","name":"WillDeconstructBurned","inputs":[{"name":"from","type":"address","indexed":true,"internalType":"address"},{"name":"willAmount","type":"uint256","indexed":false,"internalType":"uint256"},{"name":"ethAmount","type":"uint256","indexed":false,"internalType":"uint256"}],"anonymous":false},{"type":"event","name":"WillMinted","inputs":[{"name":"to","type":"address","indexed":true,"internalType":"address"},{"name":"amount","type":"uint256","indexed":false,"internalType":"uint256"},{"name":"ethValue","type":"uint256","indexed":false,"internalType":"uint256"}],"anonymous":false},{"type":"error","name":"AllowanceOverflow","inputs":[]},{"type":"error","name":"AllowanceUnderflow","inputs":[]},{"type":"error","name":"BurnRefundF","inputs":[]},{"type":"error","name":"InsufficentBalance","inputs":[]},{"type":"error","name":"InsufficientAllowance","inputs":[]},{"type":"error","name":"InsufficientBalance","inputs":[]},{"type":"error","name":"InsufficientValue","inputs":[{"name":"required","type":"uint256","internalType":"uint256"},{"name":"provided","type":"uint256","internalType":"uint256"}]},{"type":"error","name":"InvalidPermit","inputs":[]},{"type":"error","name":"PayCallF","inputs":[]},{"type":"error","name":"Permit2AllowanceIsFixedAtInfinity","inputs":[]},{"type":"error","name":"PermitExpired","inputs":[]},{"type":"error","name":"Reentrant","inputs":[]},{"type":"error","name":"TotalSupplyOverflow","inputs":[]},{"type":"error","name":"TransferFailedFor","inputs":[{"name":"failingToken","type":"address","internalType":"address"}]},{"type":"error","name":"Unauthorized","inputs":[]},{"type":"error","name":"ValueMismatch","inputs":[]}],"bytecode":{"object":"0x608060405234801561000f575f80fd5b506040516118c63803806118c683398101604081905261002e916102a7565b4360025581515f901580159061005c57505f825f8151811061005257610052610370565b6020026020010151115b1561010a575b825181101561010a575f6001600160a01b031683828151811061008757610087610370565b60200260200101516001600160a01b031614806100bc57508181815181106100b1576100b1610370565b60200260200101515f145b610102576101028382815181106100d5576100d5610370565b60200260200101518383815181106100ef576100ef610370565b602002602001015161014b60201b60201c565b600101610062565b6805345cdf77eb68f44c545f0361012d5761012d5f670de0b6b3a764000061014b565b5050633b9aca00600155506805345cdf77eb68f44c54600355610384565b6805345cdf77eb68f44c548181018181101561016e5763e5cfe9575f526004601cfd5b806805345cdf77eb68f44c5550506387a211a2600c52815f526020600c208181540181555080602052600c5160601c5f7fddf252ad1be2c89b69c2b068fc378daa952ba7f163c4a11628f55a4df523b3ef602080a36805345cdf77eb68f44c546003555050565b634e487b7160e01b5f52604160045260245ffd5b604051601f8201601f191681016001600160401b0381118282101715610211576102116101d5565b604052919050565b5f6001600160401b03821115610231576102316101d5565b5060051b60200190565b5f82601f83011261024a575f80fd5b8151602061025f61025a83610219565b6101e9565b8083825260208201915060208460051b870101935086841115610280575f80fd5b602086015b8481101561029c5780518352918301918301610285565b509695505050505050565b5f80604083850312156102b8575f80fd5b82516001600160401b03808211156102ce575f80fd5b818501915085601f8301126102e1575f80fd5b815160206102f161025a83610219565b82815260059290921b8401810191818101908984111561030f575f80fd5b948201945b838610156103415785516001600160a01b0381168114610332575f80fd5b82529482019490820190610314565b91880151919650909350505080821115610359575f80fd5b506103668582860161023b565b9150509250929050565b634e487b7160e01b5f52603260045260245ffd5b611535806103915f395ff3fe60806040526004361061016b575f3560e01c806354fd4d50116100c95780639d1b464a116100785780639d1b464a14610418578063a0712d681461042c578063a9059cbb1461043f578063b62389011461045e578063d505accf1461047d578063dd62ed3e1461049c578063f59ad48a146104d0575f80fd5b806354fd4d501461031a578063571ff20d1461034e57806370a082311461036d5780637db802ca1461039e5780637ecebe00146103a6578063918fca2f146103d757806395d89b41146103ec575f80fd5b806318bf50771161012557806318bf50771461025057806323b872dd1461026f57806327de8f271461028e5780632b8c49e3146102ad578063313ce567146102cc5780633644e515146102e757806342966c68146102fb575f80fd5b806301ffc9a71461017e578063053f14da146101b257806306fdde03146101d5578063095ea7b3146101f65780630dc561ba1461021557806318160ddd14610234575f80fd5b3661017a576101786104e5565b005b5f80fd5b348015610189575f80fd5b5061019d6101983660046111b1565b61057e565b60405190151581526020015b60405180910390f35b3480156101bd575f80fd5b506101c760015481565b6040519081526020016101a9565b3480156101e0575f80fd5b506101e96105cf565b6040516101a991906111d8565b348015610201575f80fd5b5061019d610210366004611223565b6105ed565b348015610220575f80fd5b506101c761022f36600461124b565b61063c565b34801561023f575f80fd5b506805345cdf77eb68f44c546101c7565b34801561025b575f80fd5b5061017861026a366004611223565b610679565b34801561027a575f80fd5b5061019d610289366004611262565b6106ee565b348015610299575f80fd5b506101c76102a836600461124b565b6107a1565b3480156102b8575f80fd5b506101786102c7366004611223565b6107be565b3480156102d7575f80fd5b50604051601281526020016101a9565b3480156102f2575f80fd5b506101c761082b565b348015610306575f80fd5b506101c761031536600461124b565b6108a7565b348015610325575f80fd5b5060408051808201909152600c81526b189718171816b132ba30971b60a11b60208201526101e9565b348015610359575f80fd5b506101c761036836600461129b565b610985565b348015610378575f80fd5b506101c76103873660046112c5565b6387a211a2600c9081525f91909152602090205490565b6101c76104e5565b3480156103b1575f80fd5b506101c76103c03660046112c5565b6338377508600c9081525f91909152602090205490565b3480156103e2575f80fd5b506101c760035481565b3480156103f7575f80fd5b5060408051808201909152600481526315d2531360e21b60208201526101e9565b348015610423575f80fd5b506101c7610a64565b61017861043a36600461124b565b610a9b565b34801561044a575f80fd5b5061019d610459366004611223565b610b40565b348015610469575f80fd5b506101c76104783660046112f2565b610bb1565b348015610488575f80fd5b506101786104973660046113be565b610eec565b3480156104a7575f80fd5b506101c76104b636600461142b565b602052637f5e9f20600c9081525f91909152603490205490565b3480156104db575f80fd5b506101c760025481565b5f6104ee611070565b6001543410156105115760405163dd8e4af760e01b815260040160405180910390fd5b610519610a64565b6105239034611453565b61053590670de0b6b3a7640000611472565b905061054133826110cb565b6040805182815234602082015233917f14e4a6e0974972ccddee07f987e9d094b698f468dd3bdafde30c0d5f3eddf918910160405180910390a290565b5f6001600160e01b03198216630cccc66560e21b14806105ae57506001600160e01b031982166336372b0760e01b145b806105c957506001600160e01b031982166301ffc9a760e01b145b92915050565b60408051808201909152600481526315da5b1b60e21b602082015290565b5f82602052637f5e9f20600c52335f52816034600c2055815f52602c5160601c337f8c5be1e5ebec7d5bd14f71427d1e84f3dd0314c0f7b2291e5b200ac8c7c3b92560205fa350600192915050565b5f8061064f6805345cdf77eb68f44c5490565b1115610674576805345cdf77eb68f44c5461066a4784611472565b6105c99190611453565b919050565b336028602160991b011461069f576040516282b42960e81b815260040160405180910390fd5b6106a982826110cb565b60405181815233906001600160a01b038416907fde22baff038e3a3e08407cbdf617deed74e869a7ba517df611e33131c6e6ea04906020015b60405180910390a35050565b5f8360601b33602052637f5e9f208117600c526034600c20805480191561072a5780851115610724576313be252b5f526004601cfd5b84810382555b50506387a211a28117600c526020600c208054808511156107525763f4d678b85f526004601cfd5b84810382555050835f526020600c208381540181555082602052600c5160601c8160601c5f805160206114e0833981519152602080a3506805345cdf77eb68f44c546003555060019392505050565b5f806107ab610a64565b90506107b78184611472565b9392505050565b336028602160991b01146107e4576040516282b42960e81b815260040160405180910390fd5b6107ee8282611142565b60405181815233906001600160a01b038416907fb90795a66650155983e242cac3e1ac1a4dc26f8ed2987f3ce416a34e00111fd4906020016106e2565b5f806108356105cf565b805190602001209050604080517f8b73c3c69bb8fe3d512ecc4cf759cc79239f7b179b0ffacaa9a75d522b39400f815260208101929092527fc89efdaa54c0f20c7adf612882df0950f5a951637e0307cdcb4c672f298b8bc69082015246606082015230608082015260a09020919050565b6387a211a2600c908152335f9081526020909120548211156108dc5760405163064c392760e21b815260040160405180910390fd5b6108e58261063c565b90508015806108f357504781115b156109115760405163064c392760e21b815260040160405180910390fd5b61091b3383611142565b5f805f805f85335af190508061094457604051630958b5bb60e41b815260040160405180910390fd5b604080518481526020810184905233917fd7ef40a7868c8df41095818aabb16d7cba24a94c34af8426183d2c38469dfb91910160405180910390a250919050565b6387a211a2600c908152335f9081526020909120548311156109ba5760405163064c392760e21b815260040160405180910390fd5b6109c38361063c565b90508015806109d157504781115b156109ef5760405163064c392760e21b815260040160405180910390fd5b6109f93384611142565b5f805f805f85875af1905080610a2257604051630958b5bb60e41b815260040160405180910390fd5b604080518581526020810184905233917fd7ef40a7868c8df41095818aabb16d7cba24a94c34af8426183d2c38469dfb91910160405180910390a25092915050565b5f600254431115610a9457633b9aca00610a856805345cdf77eb68f44c5490565b610a8f9190611453565b905090565b5060015490565b610aa3611070565b5f610aac610a64565b610ab69083611472565b905080341015610ae757604051631c102d6360e21b8152600481018290523460248201526044015b60405180910390fd5b610b0233610afd84670de0b6b3a7640000611472565b6110cb565b6040805183815234602082015233917f14e4a6e0974972ccddee07f987e9d094b698f468dd3bdafde30c0d5f3eddf918910160405180910390a25050565b5f6387a211a2600c52335f526020600c20805480841115610b685763f4d678b85f526004601cfd5b83810382555050825f526020600c208281540181555081602052600c5160601c335f805160206114e0833981519152602080a350506805345cdf77eb68f44c5460035550600190565b5f805460ff1615610bd55760405163769dd35360e11b815260040160405180910390fd5b5f805460ff1916600117905582610bfd336387a211a2600c9081525f91909152602090205490565b1015610c1c5760405163064c392760e21b815260040160405180910390fd5b6805345cdf77eb68f44c54610c3984670de0b6b3a7640000611472565b610c439190611453565b9050610c4f3384611142565b5f825167ffffffffffffffff811115610c6a57610c6a6112de565b604051908082528060200260200182016040528015610c93578160200160208202803683370190505b5090505f5b8351811015610e2a575f848281518110610cb457610cb4611495565b60209081029190910101516040516370a0823160e01b81523060048201529091505f90670de0b6b3a76400009086906001600160a01b038516906370a0823190602401602060405180830381865afa158015610d12573d5f803e3d5ffd5b505050506040513d601f19601f82011682018060405250810190610d3691906114a9565b610d409190611472565b610d4a9190611453565b60405163a9059cbb60e01b8152336004820152602481018290529091506001600160a01b0383169063a9059cbb906044016020604051808303815f875af1158015610d97573d5f803e3d5ffd5b505050506040513d601f19601f82011682018060405250810190610dbb91906114c0565b610e0257858381518110610dd157610dd1611495565b6020026020010151604051630ca909b760e21b8152600401610ade91906001600160a01b0391909116815260200190565b80848481518110610e1557610e15611495565b60209081029190910101525050600101610c98565b505f670de0b6b3a7640000610e3f8447611472565b610e499190611453565b9050801580610e585750478110155b15610e765760405163064c392760e21b815260040160405180910390fd5b5f805f805f85335af1905080610e9f576040516365a1711b60e01b815260040160405180910390fd5b604080518781526020810184905233917fc69ff5233737def76e4d803659f3e07c2108ff8a3570adefcc85b20c92f9dffe910160405180910390a250505f805460ff191690555092915050565b5f610ef56105cf565b8051906020012090507fc89efdaa54c0f20c7adf612882df0950f5a951637e0307cdcb4c672f298b8bc642861015610f3457631a15a3cc5f526004601cfd5b6040518960601b60601c99508860601b60601c985065383775081901600e52895f526020600c2080547f8b73c3c69bb8fe3d512ecc4cf759cc79239f7b179b0ffacaa9a75d522b39400f835284602084015283604084015246606084015230608084015260a08320602e527f6e71edae12b1b97f4d1f60370fef10105fa2faae0126114a169c64845d6126c983528b60208401528a60408401528960608401528060808401528860a084015260c08320604e526042602c205f528760ff16602052866040528560605260208060805f60015afa8c3d511461101c5763ddafbaef5f526004601cfd5b0190556303faf4f960a51b89176040526034602c20889055888a7f8c5be1e5ebec7d5bd14f71427d1e84f3dd0314c0f7b2291e5b200ac8c7c3b925602060608501a360405250505f60605250505050505050565b6002544311156110c957633b9aca0060035461108c9190611453565b60018190556040519081527f66cbca4f3c64fecf1dcb9ce094abcf7f68c3450a1d4e3a8e917dd621edb4ebe09060200160405180910390a1436002555b565b6805345cdf77eb68f44c54818101818110156110ee5763e5cfe9575f526004601cfd5b806805345cdf77eb68f44c5550506387a211a2600c52815f526020600c208181540181555080602052600c5160601c5f5f805160206114e0833981519152602080a36805345cdf77eb68f44c546003555050565b6387a211a2600c52815f526020600c208054808311156111695763f4d678b85f526004601cfd5b82900390556805345cdf77eb68f44c805482900390555f8181526001600160a01b0383165f805160206114e0833981519152602083a36805345cdf77eb68f44c546003555050565b5f602082840312156111c1575f80fd5b81356001600160e01b0319811681146107b7575f80fd5b602081525f82518060208401528060208501604085015e5f604082850101526040601f19601f83011684010191505092915050565b80356001600160a01b0381168114610674575f80fd5b5f8060408385031215611234575f80fd5b61123d8361120d565b946020939093013593505050565b5f6020828403121561125b575f80fd5b5035919050565b5f805f60608486031215611274575f80fd5b61127d8461120d565b925061128b6020850161120d565b9150604084013590509250925092565b5f80604083850312156112ac575f80fd5b823591506112bc6020840161120d565b90509250929050565b5f602082840312156112d5575f80fd5b6107b78261120d565b634e487b7160e01b5f52604160045260245ffd5b5f8060408385031215611303575f80fd5b8235915060208084013567ffffffffffffffff80821115611322575f80fd5b818601915086601f830112611335575f80fd5b813581811115611347576113476112de565b8060051b604051601f19603f8301168101818110858211171561136c5761136c6112de565b604052918252848201925083810185019189831115611389575f80fd5b938501935b828510156113ae5761139f8561120d565b8452938501939285019261138e565b8096505050505050509250929050565b5f805f805f805f60e0888a0312156113d4575f80fd5b6113dd8861120d565b96506113eb6020890161120d565b95506040880135945060608801359350608088013560ff8116811461140e575f80fd5b9699959850939692959460a0840135945060c09093013592915050565b5f806040838503121561143c575f80fd5b6114458361120d565b91506112bc6020840161120d565b5f8261146d57634e487b7160e01b5f52601260045260245ffd5b500490565b80820281158282048414176105c957634e487b7160e01b5f52601160045260245ffd5b634e487b7160e01b5f52603260045260245ffd5b5f602082840312156114b9575f80fd5b5051919050565b5f602082840312156114d0575f80fd5b815180151581146107b7575f80fdfeddf252ad1be2c89b69c2b068fc378daa952ba7f163c4a11628f55a4df523b3efa26469706673582212207fdbe73181358030f4a962fe6f2993e91a696146784e142f4afe1a6e6b01bc4564736f6c63430008190033","linkReferences":{}},"methodIdentifiers":{"DOMAIN_SEPARATOR()":"3644e515","allowance(address,address)":"dd62ed3e","approve(address,uint256)":"095ea7b3","balanceOf(address)":"70a08231","burn(uint256)":"42966c68","burnReturns(uint256)":"0dc561ba","burnTo(uint256,address)":"571ff20d","crosschainBurn(address,uint256)":"2b8c49e3","crosschainMint(address,uint256)":"18bf5077","currentPrice()":"9d1b464a","decimals()":"313ce567","deconstructBurn(uint256,address[])":"b6238901","lastBlockSupply()":"918fca2f","lastPrice()":"053f14da","lastPriceBlock()":"f59ad48a","mint(uint256)":"a0712d68","mintCost(uint256)":"27de8f27","mintFromETH()":"7db802ca","name()":"06fdde03","nonces(address)":"7ecebe00","permit(address,address,uint256,uint256,uint8,bytes32,bytes32)":"d505accf","supportsInterface(bytes4)":"01ffc9a7","symbol()":"95d89b41","totalSupply()":"18160ddd","transfer(address,uint256)":"a9059cbb","transferFrom(address,address,uint256)":"23b872dd","version()":"54fd4d50"},"storageLayout":{"storage":[{"astId":48165,"contract":"lib/will/packages/contracts/src/Will.sol:Will","label":"entered","offset":0,"slot":"0","type":"t_bool"},{"astId":48167,"contract":"lib/will/packages/contracts/src/Will.sol:Will","label":"lastPrice","offset":0,"slot":"1","type":"t_uint256"},{"astId":48169,"contract":"lib/will/packages/contracts/src/Will.sol:Will","label":"lastPriceBlock","offset":0,"slot":"2","type":"t_uint256"},{"astId":48171,"contract":"lib/will/packages/contracts/src/Will.sol:Will","label":"lastBlockSupply","offset":0,"slot":"3","type":"t_uint256"}],"types":{"t_bool":{"encoding":"inplace","label":"bool","numberOfBytes":"1"},"t_uint256":{"encoding":"inplace","label":"uint256","numberOfBytes":"32"}}},"id":56}