{"abi":[{"type":"constructor","inputs":[{"name":"price_","type":"uint256","internalType":"uint256"},{"name":"pps_","type":"uint256","internalType":"uint256"},{"name":"initMintAddrs_","type":"address[]","internalType":"address[]"},{"name":"initMintAmts_","type":"uint256[]","internalType":"uint256[]"}],"stateMutability":"nonpayable"},{"type":"function","name":"allowance","inputs":[{"name":"owner","type":"address","internalType":"address"},{"name":"spender","type":"address","internalType":"address"}],"outputs":[{"name":"","type":"uint256","internalType":"uint256"}],"stateMutability":"view"},{"type":"function","name":"approve","inputs":[{"name":"spender","type":"address","internalType":"address"},{"name":"amount","type":"uint256","internalType":"uint256"}],"outputs":[{"name":"","type":"bool","internalType":"bool"}],"stateMutability":"nonpayable"},{"type":"function","name":"balanceOf","inputs":[{"name":"account","type":"address","internalType":"address"}],"outputs":[{"name":"","type":"uint256","internalType":"uint256"}],"stateMutability":"view"},{"type":"function","name":"burn","inputs":[{"name":"howMany_","type":"uint256","internalType":"uint256"}],"outputs":[{"name":"amtValReturned","type":"uint256","internalType":"uint256"}],"stateMutability":"nonpayable"},{"type":"function","name":"burnReturns","inputs":[{"name":"amt_","type":"uint256","internalType":"uint256"}],"outputs":[{"name":"rv","type":"uint256","internalType":"uint256"}],"stateMutability":"view"},{"type":"function","name":"burnTo","inputs":[{"name":"howMany_","type":"uint256","internalType":"uint256"},{"name":"to_","type":"address","internalType":"address"}],"outputs":[{"name":"amount","type":"uint256","internalType":"uint256"}],"stateMutability":"nonpayable"},{"type":"function","name":"currentPrice","inputs":[],"outputs":[{"name":"","type":"uint256","internalType":"uint256"}],"stateMutability":"view"},{"type":"function","name":"decimals","inputs":[],"outputs":[{"name":"","type":"uint8","internalType":"uint8"}],"stateMutability":"view"},{"type":"function","name":"deconstructBurn","inputs":[{"name":"amountToBurn_","type":"uint256","internalType":"uint256"},{"name":"tokensToRedeem","type":"address[]","internalType":"address[]"}],"outputs":[{"name":"shareBurned","type":"uint256","internalType":"uint256"}],"stateMutability":"nonpayable"},{"type":"function","name":"decreaseAllowance","inputs":[{"name":"spender","type":"address","internalType":"address"},{"name":"subtractedValue","type":"uint256","internalType":"uint256"}],"outputs":[{"name":"","type":"bool","internalType":"bool"}],"stateMutability":"nonpayable"},{"type":"function","name":"increaseAllowance","inputs":[{"name":"spender","type":"address","internalType":"address"},{"name":"addedValue","type":"uint256","internalType":"uint256"}],"outputs":[{"name":"","type":"bool","internalType":"bool"}],"stateMutability":"nonpayable"},{"type":"function","name":"initTime","inputs":[],"outputs":[{"name":"","type":"uint256","internalType":"uint256"}],"stateMutability":"view"},{"type":"function","name":"mint","inputs":[{"name":"howMany_","type":"uint256","internalType":"uint256"}],"outputs":[],"stateMutability":"payable"},{"type":"function","name":"mintCost","inputs":[{"name":"amt_","type":"uint256","internalType":"uint256"}],"outputs":[{"name":"","type":"uint256","internalType":"uint256"}],"stateMutability":"view"},{"type":"function","name":"name","inputs":[],"outputs":[{"name":"","type":"string","internalType":"string"}],"stateMutability":"view"},{"type":"function","name":"pingInit","inputs":[],"outputs":[],"stateMutability":"nonpayable"},{"type":"function","name":"pps","inputs":[],"outputs":[{"name":"","type":"uint256","internalType":"uint256"}],"stateMutability":"view"},{"type":"function","name":"setBagBook","inputs":[{"name":"bagb_","type":"address","internalType":"address"}],"outputs":[],"stateMutability":"nonpayable"},{"type":"function","name":"setPointer","inputs":[{"name":"newPointer_","type":"address","internalType":"address"}],"outputs":[],"stateMutability":"nonpayable"},{"type":"function","name":"simpleBurn","inputs":[{"name":"amountToBurn_","type":"uint256","internalType":"uint256"}],"outputs":[{"name":"amtValReturned","type":"uint256","internalType":"uint256"}],"stateMutability":"nonpayable"},{"type":"function","name":"symbol","inputs":[],"outputs":[{"name":"","type":"string","internalType":"string"}],"stateMutability":"view"},{"type":"function","name":"totalSupply","inputs":[],"outputs":[{"name":"","type":"uint256","internalType":"uint256"}],"stateMutability":"view"},{"type":"function","name":"transfer","inputs":[{"name":"to","type":"address","internalType":"address"},{"name":"amount","type":"uint256","internalType":"uint256"}],"outputs":[{"name":"","type":"bool","internalType":"bool"}],"stateMutability":"nonpayable"},{"type":"function","name":"transferFrom","inputs":[{"name":"from","type":"address","internalType":"address"},{"name":"to","type":"address","internalType":"address"},{"name":"amount","type":"uint256","internalType":"uint256"}],"outputs":[{"name":"","type":"bool","internalType":"bool"}],"stateMutability":"nonpayable"},{"type":"function","name":"transferGas","inputs":[{"name":"from","type":"address","internalType":"address"},{"name":"to","type":"address","internalType":"address"},{"name":"amount","type":"uint256","internalType":"uint256"}],"outputs":[{"name":"","type":"bool","internalType":"bool"}],"stateMutability":"nonpayable"},{"type":"event","name":"Approval","inputs":[{"name":"owner","type":"address","indexed":true,"internalType":"address"},{"name":"spender","type":"address","indexed":true,"internalType":"address"},{"name":"value","type":"uint256","indexed":false,"internalType":"uint256"}],"anonymous":false},{"type":"event","name":"Transfer","inputs":[{"name":"from","type":"address","indexed":true,"internalType":"address"},{"name":"to","type":"address","indexed":true,"internalType":"address"},{"name":"value","type":"uint256","indexed":false,"internalType":"uint256"}],"anonymous":false},{"type":"error","name":"BurnRefundF","inputs":[]},{"type":"error","name":"InsufficentBalance","inputs":[]},{"type":"error","name":"OnlyFun","inputs":[]},{"type":"error","name":"OnlyPointer","inputs":[]},{"type":"error","name":"PayCallF","inputs":[]},{"type":"error","name":"PingF","inputs":[]},{"type":"error","name":"TrippinFrFr","inputs":[]},{"type":"error","name":"ValueMismatch","inputs":[]}],"bytecode":{"object":"0x60e06040523480156200001157600080fd5b5060405162001c1d38038062001c1d8339810160408190526200003491620003d4565b60405180604001604052806009815260200168526f6f7420436f726560b81b81525060405180604001604052806002815260200161524360f01b815250858585858585816003908162000088919062000555565b50600462000097828262000555565b50505083600014620000b957620000b384633b9aca0062000637565b620000df565b620000c6600a3062000657565b620000df906001600160a01b0316633b9aca006200068c565b6080528215620000ff57620000f983633b9aca0062000637565b62000105565b633b9aca005b60c0524260a0528151158015906200013a5750600081600081518110620001305762000130620006a2565b6020026020010151115b156200020457600093505b8151841015620002045760006001600160a01b03168285815181106200016f576200016f620006a2565b60200260200101516001600160a01b03161480620001a957508084815181106200019d576200019d620006a2565b60200260200101516000145b6200014557620001f8828581518110620001c757620001c7620006a2565b6020026020010151828681518110620001e457620001e4620006a2565b60200260200101516200022760201b60201c565b83600101935062000145565b5050600680546001600160a01b0319163317905550620006b89650505050505050565b6001600160a01b038216620002825760405162461bcd60e51b815260206004820152601f60248201527f45524332303a206d696e7420746f20746865207a65726f206164647265737300604482015260640160405180910390fd5b80600260008282546200029691906200068c565b90915550506001600160a01b038216600081815260208181526040808320805486019055518481527fddf252ad1be2c89b69c2b068fc378daa952ba7f163c4a11628f55a4df523b3ef910160405180910390a35050565b505050565b634e487b7160e01b600052604160045260246000fd5b604051601f8201601f191681016001600160401b0381118282101715620003335762000333620002f2565b604052919050565b60006001600160401b03821115620003575762000357620002f2565b5060051b60200190565b600082601f8301126200037357600080fd5b815160206200038c62000386836200033b565b62000308565b82815260059290921b84018101918181019086841115620003ac57600080fd5b8286015b84811015620003c95780518352918301918301620003b0565b509695505050505050565b60008060008060808587031215620003eb57600080fd5b845160208087015160408801519296509450906001600160401b03808211156200041457600080fd5b818801915088601f8301126200042957600080fd5b81516200043a62000386826200033b565b81815260059190911b8301840190848101908b8311156200045a57600080fd5b938501935b82851015620004915784516001600160a01b0381168114620004815760008081fd5b825293850193908501906200045f565b60608b01519097509450505080831115620004ab57600080fd5b5050620004bb8782880162000361565b91505092959194509250565b600181811c90821680620004dc57607f821691505b602082108103620004fd57634e487b7160e01b600052602260045260246000fd5b50919050565b601f821115620002ed57600081815260208120601f850160051c810160208610156200052c5750805b601f850160051c820191505b818110156200054d5782815560010162000538565b505050505050565b81516001600160401b03811115620005715762000571620002f2565b6200058981620005828454620004c7565b8462000503565b602080601f831160018114620005c15760008415620005a85750858301515b600019600386901b1c1916600185901b1785556200054d565b600085815260208120601f198616915b82811015620005f257888601518255948401946001909101908401620005d1565b5085821015620006115787850151600019600388901b60f8161c191681555b5050505050600190811b01905550565b634e487b7160e01b600052601160045260246000fd5b808202811582820484141762000651576200065162000621565b92915050565b60006001600160a01b03838116806200068057634e487b7160e01b600052601260045260246000fd5b92169190910692915050565b8082018082111562000651576200065162000621565b634e487b7160e01b600052603260045260246000fd5b60805160a05160c051611527620006f66000396000818161015c015261075c0152600081816101a301526107310152600061078601526115276000f3fe6080604052600436106101455760003560e01c8063571ff20d116100c1578063a2f294791161007a578063a2f29479146103a7578063a457c2d7146103c7578063a9059cbb146103e7578063a92f7cda14610407578063b623890114610427578063db4780be14610447578063dd62ed3e1461045c57600080fd5b8063571ff20d1461030857806370a082311461032857806395d89b41146103485780639d1b464a1461035d578063a0017a7d14610372578063a0712d681461039457600080fd5b806218b1d31461014a578063041151871461019157806306fdde03146101c5578063095ea7b3146101e75780630dc561ba14610217578063134670921461023757806318160ddd1461025757806323b872dd1461026c57806327de8f271461028c578063313ce567146102ac57806339509351146102c857806342966c68146102e8575b600080fd5b34801561015657600080fd5b5061017e7f000000000000000000000000000000000000000000000000000000000000000081565b6040519081526020015b60405180910390f35b34801561019d57600080fd5b5061017e7f000000000000000000000000000000000000000000000000000000000000000081565b3480156101d157600080fd5b506101da61047c565b6040516101889190611194565b3480156101f357600080fd5b506102076102023660046111f9565b61050e565b6040519015158152602001610188565b34801561022357600080fd5b5061017e610232366004611223565b610528565b34801561024357600080fd5b5061017e610252366004611223565b610559565b34801561026357600080fd5b5060025461017e565b34801561027857600080fd5b5061020761028736600461123c565b61058d565b34801561029857600080fd5b5061017e6102a7366004611223565b6105b1565b3480156102b857600080fd5b5060405160128152602001610188565b3480156102d457600080fd5b506102076102e33660046111f9565b6105c6565b3480156102f457600080fd5b5061017e610303366004611223565b6105e8565b34801561031457600080fd5b5061017e610323366004611278565b61066e565b34801561033457600080fd5b5061017e6103433660046112a4565b610700565b34801561035457600080fd5b506101da61071b565b34801561036957600080fd5b5061017e61072a565b34801561037e57600080fd5b5061039261038d3660046112a4565b6107af565b005b6103926103a2366004611223565b6107fc565b3480156103b357600080fd5b506103926103c23660046112a4565b610832565b3480156103d357600080fd5b506102076103e23660046111f9565b61087f565b3480156103f357600080fd5b506102076104023660046111f9565b6108ff565b34801561041357600080fd5b5061020761042236600461123c565b61090d565b34801561043357600080fd5b5061017e6104423660046112dc565b610a08565b34801561045357600080fd5b50610392610c29565b34801561046857600080fd5b5061017e6104773660046113ad565b610c73565b60606003805461048b906113d7565b80601f01602080910402602001604051908101604052809291908181526020018280546104b7906113d7565b80156105045780601f106104d957610100808354040283529160200191610504565b820191906000526020600020905b8154815290600101906020018083116104e757829003601f168201915b5050505050905090565b60003361051c818585610c9e565b60019150505b92915050565b60008061053460025490565b1115610554576002546105474784611421565b6105519190611438565b90505b919050565b60008161056533610700565b10156105845760405163064c392760e21b815260040160405180910390fd5b610551826105e8565b60003361059b858285610dc3565b6105a6858585610e3d565b506001949350505050565b6000816105bc61072a565b6105519190611421565b60003361051c8185856105d98383610c73565b6105e3919061145a565b610c9e565b60006105f382610528565b90506105ff3383610fcf565b604051600090339083908381818185875af1925050503d8060008114610641576040519150601f19603f3d011682016040523d82523d6000602084013e610646565b606091505b505090508061066857604051630958b5bb60e41b815260040160405180910390fd5b50919050565b600061067983610528565b90506106853384610fcf565b6000826001600160a01b03168260405160006040518083038185875af1925050503d80600081146106d2576040519150601f19603f3d011682016040523d82523d6000602084013e6106d7565b606091505b50509050806106f957604051630958b5bb60e41b815260040160405180910390fd5b5092915050565b6001600160a01b031660009081526020819052604090205490565b60606004805461048b906113d7565b60006107567f00000000000000000000000000000000000000000000000000000000000000004261146d565b610780907f0000000000000000000000000000000000000000000000000000000000000000611421565b6107aa907f000000000000000000000000000000000000000000000000000000000000000061145a565b905090565b6006546001600160a01b031633146107da5760405163286fc22760e01b815260040160405180910390fd5b600580546001600160a01b0319166001600160a01b0392909216919091179055565b610805816105b1565b3410156108255760405163dd8e4af760e01b815260040160405180910390fd5b61082f33826110e7565b50565b6006546001600160a01b0316331461085d5760405163286fc22760e01b815260040160405180910390fd5b600680546001600160a01b0319166001600160a01b0392909216919091179055565b6000338161088d8286610c73565b9050838110156108f25760405162461bcd60e51b815260206004820152602560248201527f45524332303a2064656372656173656420616c6c6f77616e63652062656c6f77604482015264207a65726f60d81b60648201526084015b60405180910390fd5b6105a68286868403610c9e565b60003361051c818585610e3d565b6005546000906001600160a01b0316331461093b576040516366e928db60e11b815260040160405180910390fd5b6005546001600160a01b03848116911614801561096257506005546001600160a01b031633145b1561097257610972848484610c9e565b61097d84848461058d565b50600554604051630d9778e560e11b81526001600160a01b03909116600482018190526024820184905290631b2ef1ca90604401600060405180830381600087803b1580156109cb57600080fd5b505af11580156109df573d6000803e3d6000fd5b50505050610a00670de0b6b3a7640000836109fa9190611438565b8561066e565b509392505050565b600082610a1433610700565b1015610a335760405163064c392760e21b815260040160405180910390fd5b82610a3d60025490565b610a479190611438565b9050610a533384610fcf565b600060015b8351821015610b93576000848381518110610a7557610a75611480565b60209081029190910101516040516370a0823160e01b81523060048201529091506001600160a01b038216906370a0823190602401602060405180830381865afa158015610ac7573d6000803e3d6000fd5b505050506040513d601f19601f82011682018060405250810190610aeb9190611496565b95508115610b8757818015610b8457506001600160a01b03811663a9059cbb33610b15878a611438565b6040516001600160e01b031960e085901b1681526001600160a01b03909216600483015260248201526044016020604051808303816000875af1158015610b60573d6000803e3d6000fd5b505050506040513d601f19601f82011682018060405250810190610b8491906114af565b91505b82600101925050610a58565b80610bb1576040516312fc0a0960e11b815260040160405180910390fd5b33610bbc8447611438565b604051600081818185875af1925050503d8060008114610bf8576040519150601f19603f3d011682016040523d82523d6000602084013e610bfd565b606091505b50508091505080610c21576040516365a1711b60e01b815260040160405180910390fd5b505092915050565b6005546001600160a01b0316158015610c415750333b155b15610c5a57600580546001600160a01b03191633179055565b604051637489b4f360e11b815260040160405180910390fd5b6001600160a01b03918216600090815260016020908152604080832093909416825291909152205490565b6001600160a01b038316610d005760405162461bcd60e51b8152602060048201526024808201527f45524332303a20617070726f76652066726f6d20746865207a65726f206164646044820152637265737360e01b60648201526084016108e9565b6001600160a01b038216610d615760405162461bcd60e51b815260206004820152602260248201527f45524332303a20617070726f766520746f20746865207a65726f206164647265604482015261737360f01b60648201526084016108e9565b6001600160a01b0383811660008181526001602090815260408083209487168084529482529182902085905590518481527f8c5be1e5ebec7d5bd14f71427d1e84f3dd0314c0f7b2291e5b200ac8c7c3b92591015b60405180910390a3505050565b6000610dcf8484610c73565b90506000198114610e375781811015610e2a5760405162461bcd60e51b815260206004820152601d60248201527f45524332303a20696e73756666696369656e7420616c6c6f77616e636500000060448201526064016108e9565b610e378484848403610c9e565b50505050565b6001600160a01b038316610ea15760405162461bcd60e51b815260206004820152602560248201527f45524332303a207472616e736665722066726f6d20746865207a65726f206164604482015264647265737360d81b60648201526084016108e9565b6001600160a01b038216610f035760405162461bcd60e51b815260206004820152602360248201527f45524332303a207472616e7366657220746f20746865207a65726f206164647260448201526265737360e81b60648201526084016108e9565b6001600160a01b03831660009081526020819052604090205481811015610f7b5760405162461bcd60e51b815260206004820152602660248201527f45524332303a207472616e7366657220616d6f756e7420657863656564732062604482015265616c616e636560d01b60648201526084016108e9565b6001600160a01b03848116600081815260208181526040808320878703905593871680835291849020805487019055925185815290926000805160206114d2833981519152910160405180910390a3610e37565b6001600160a01b03821661102f5760405162461bcd60e51b815260206004820152602160248201527f45524332303a206275726e2066726f6d20746865207a65726f206164647265736044820152607360f81b60648201526084016108e9565b6001600160a01b038216600090815260208190526040902054818110156110a35760405162461bcd60e51b815260206004820152602260248201527f45524332303a206275726e20616d6f756e7420657863656564732062616c616e604482015261636560f01b60648201526084016108e9565b6001600160a01b0383166000818152602081815260408083208686039055600280548790039055518581529192916000805160206114d28339815191529101610db6565b6001600160a01b03821661113d5760405162461bcd60e51b815260206004820152601f60248201527f45524332303a206d696e7420746f20746865207a65726f20616464726573730060448201526064016108e9565b806002600082825461114f919061145a565b90915550506001600160a01b038216600081815260208181526040808320805486019055518481526000805160206114d2833981519152910160405180910390a35050565b600060208083528351808285015260005b818110156111c1578581018301518582016040015282016111a5565b506000604082860101526040601f19601f8301168501019250505092915050565b80356001600160a01b038116811461055457600080fd5b6000806040838503121561120c57600080fd5b611215836111e2565b946020939093013593505050565b60006020828403121561123557600080fd5b5035919050565b60008060006060848603121561125157600080fd5b61125a846111e2565b9250611268602085016111e2565b9150604084013590509250925092565b6000806040838503121561128b57600080fd5b8235915061129b602084016111e2565b90509250929050565b6000602082840312156112b657600080fd5b6112bf826111e2565b9392505050565b634e487b7160e01b600052604160045260246000fd5b600080604083850312156112ef57600080fd5b8235915060208084013567ffffffffffffffff8082111561130f57600080fd5b818601915086601f83011261132357600080fd5b813581811115611335576113356112c6565b8060051b604051601f19603f8301168101818110858211171561135a5761135a6112c6565b60405291825284820192508381018501918983111561137857600080fd5b938501935b8285101561139d5761138e856111e2565b8452938501939285019261137d565b8096505050505050509250929050565b600080604083850312156113c057600080fd5b6113c9836111e2565b915061129b602084016111e2565b600181811c908216806113eb57607f821691505b60208210810361066857634e487b7160e01b600052602260045260246000fd5b634e487b7160e01b600052601160045260246000fd5b80820281158282048414176105225761052261140b565b60008261145557634e487b7160e01b600052601260045260246000fd5b500490565b808201808211156105225761052261140b565b818103818111156105225761052261140b565b634e487b7160e01b600052603260045260246000fd5b6000602082840312156114a857600080fd5b5051919050565b6000602082840312156114c157600080fd5b815180151581146112bf57600080fdfeddf252ad1be2c89b69c2b068fc378daa952ba7f163c4a11628f55a4df523b3efa26469706673582212204afd58402b6301d232759aab1dc6770411d2139bb828172e6887981b0a8753bc64736f6c63430008140033","linkReferences":{}},"methodIdentifiers":{"allowance(address,address)":"dd62ed3e","approve(address,uint256)":"095ea7b3","balanceOf(address)":"70a08231","burn(uint256)":"42966c68","burnReturns(uint256)":"0dc561ba","burnTo(uint256,address)":"571ff20d","currentPrice()":"9d1b464a","decimals()":"313ce567","deconstructBurn(uint256,address[])":"b6238901","decreaseAllowance(address,uint256)":"a457c2d7","increaseAllowance(address,uint256)":"39509351","initTime()":"04115187","mint(uint256)":"a0712d68","mintCost(uint256)":"27de8f27","name()":"06fdde03","pingInit()":"db4780be","pps()":"0018b1d3","setBagBook(address)":"a0017a7d","setPointer(address)":"a2f29479","simpleBurn(uint256)":"13467092","symbol()":"95d89b41","totalSupply()":"18160ddd","transfer(address,uint256)":"a9059cbb","transferFrom(address,address,uint256)":"23b872dd","transferGas(address,address,uint256)":"a92f7cda"},"storageLayout":{"storage":[{"astId":48400,"contract":"src/Will.sol:Will","label":"_balances","offset":0,"slot":"0","type":"t_mapping(t_address,t_uint256)"},{"astId":48406,"contract":"src/Will.sol:Will","label":"_allowances","offset":0,"slot":"1","type":"t_mapping(t_address,t_mapping(t_address,t_uint256))"},{"astId":48408,"contract":"src/Will.sol:Will","label":"_totalSupply","offset":0,"slot":"2","type":"t_uint256"},{"astId":48410,"contract":"src/Will.sol:Will","label":"_name","offset":0,"slot":"3","type":"t_string_storage"},{"astId":48412,"contract":"src/Will.sol:Will","label":"_symbol","offset":0,"slot":"4","type":"t_string_storage"},{"astId":57682,"contract":"src/Will.sol:Will","label":"BagBok","offset":0,"slot":"5","type":"t_address"},{"astId":57684,"contract":"src/Will.sol:Will","label":"Pointer","offset":0,"slot":"6","type":"t_address"}],"types":{"t_address":{"encoding":"inplace","label":"address","numberOfBytes":"20"},"t_mapping(t_address,t_mapping(t_address,t_uint256))":{"encoding":"mapping","key":"t_address","label":"mapping(address => mapping(address => uint256))","numberOfBytes":"32","value":"t_mapping(t_address,t_uint256)"},"t_mapping(t_address,t_uint256)":{"encoding":"mapping","key":"t_address","label":"mapping(address => uint256)","numberOfBytes":"32","value":"t_uint256"},"t_string_storage":{"encoding":"bytes","label":"string","numberOfBytes":"32"},"t_uint256":{"encoding":"inplace","label":"uint256","numberOfBytes":"32"}}},"id":57}