{"abi":[{"type":"constructor","inputs":[{"name":"Execution","type":"address","internalType":"address"},{"name":"Membrane","type":"address","internalType":"address"}],"stateMutability":"nonpayable"},{"type":"function","name":"Will","inputs":[],"outputs":[{"name":"","type":"address","internalType":"address"}],"stateMutability":"view"},{"type":"function","name":"allMembersOf","inputs":[{"name":"fid_","type":"uint256","internalType":"uint256"}],"outputs":[{"name":"","type":"address[]","internalType":"address[]"}],"stateMutability":"view"},{"type":"function","name":"balanceOf","inputs":[{"name":"account","type":"address","internalType":"address"},{"name":"id","type":"uint256","internalType":"uint256"}],"outputs":[{"name":"","type":"uint256","internalType":"uint256"}],"stateMutability":"view"},{"type":"function","name":"balanceOfBatch","inputs":[{"name":"accounts","type":"address[]","internalType":"address[]"},{"name":"ids","type":"uint256[]","internalType":"uint256[]"}],"outputs":[{"name":"","type":"uint256[]","internalType":"uint256[]"}],"stateMutability":"view"},{"type":"function","name":"burn","inputs":[{"name":"fid_","type":"uint256","internalType":"uint256"},{"name":"amount_","type":"uint256","internalType":"uint256"}],"outputs":[],"stateMutability":"nonpayable"},{"type":"function","name":"createEndpointForOwner","inputs":[{"name":"nodeId_","type":"uint256","internalType":"uint256"},{"name":"owner","type":"address","internalType":"address"}],"outputs":[{"name":"endpoint","type":"address","internalType":"address"}],"stateMutability":"nonpayable"},{"type":"function","name":"entityCount","inputs":[],"outputs":[{"name":"","type":"uint256","internalType":"uint256"}],"stateMutability":"view"},{"type":"function","name":"executeQueue","inputs":[{"name":"SignatureQueueHash_","type":"bytes32","internalType":"bytes32"}],"outputs":[{"name":"s","type":"bool","internalType":"bool"}],"stateMutability":"nonpayable"},{"type":"function","name":"executionAddress","inputs":[],"outputs":[{"name":"","type":"address","internalType":"address"}],"stateMutability":"view"},{"type":"function","name":"gasMultiplier","inputs":[{"name":"sender","type":"address","internalType":"address"},{"name":"multiplier_","type":"uint256","internalType":"uint256"}],"outputs":[],"stateMutability":"nonpayable"},{"type":"function","name":"getChildrenOf","inputs":[{"name":"fid_","type":"uint256","internalType":"uint256"}],"outputs":[{"name":"","type":"uint256[]","internalType":"uint256[]"}],"stateMutability":"view"},{"type":"function","name":"getFidPath","inputs":[{"name":"fid_","type":"uint256","internalType":"uint256"}],"outputs":[{"name":"fids","type":"uint256[]","internalType":"uint256[]"}],"stateMutability":"view"},{"type":"function","name":"getMembraneOf","inputs":[{"name":"fid_","type":"uint256","internalType":"uint256"}],"outputs":[{"name":"","type":"uint256","internalType":"uint256"}],"stateMutability":"view"},{"type":"function","name":"getParentOf","inputs":[{"name":"fid_","type":"uint256","internalType":"uint256"}],"outputs":[{"name":"","type":"uint256","internalType":"uint256"}],"stateMutability":"view"},{"type":"function","name":"getSigQueue","inputs":[{"name":"hash_","type":"bytes32","internalType":"bytes32"}],"outputs":[{"name":"","type":"tuple","internalType":"struct SignatureQueue","components":[{"name":"state","type":"uint8","internalType":"enum SQState"},{"name":"Action","type":"tuple","internalType":"struct Movement","components":[{"name":"category","type":"uint8","internalType":"enum MovementType"},{"name":"initiatior","type":"address","internalType":"address"},{"name":"exeAccount","type":"address","internalType":"address"},{"name":"viaNode","type":"uint256","internalType":"uint256"},{"name":"expiresAt","type":"uint256","internalType":"uint256"},{"name":"descriptionHash","type":"bytes32","internalType":"bytes32"},{"name":"txData","type":"tuple","internalType":"struct SafeTx","components":[{"name":"to","type":"address","internalType":"address"},{"name":"value","type":"uint256","internalType":"uint256"},{"name":"data","type":"bytes","internalType":"bytes"},{"name":"operation","type":"uint8","internalType":"uint8"},{"name":"safeTxGas","type":"uint256","internalType":"uint256"},{"name":"baseGas","type":"uint256","internalType":"uint256"},{"name":"gasPrice","type":"uint256","internalType":"uint256"},{"name":"gasToken","type":"address","internalType":"address"},{"name":"refundReceiver","type":"address","internalType":"address"}]}]},{"name":"Signers","type":"address[]","internalType":"address[]"},{"name":"Sigs","type":"bytes[]","internalType":"bytes[]"},{"name":"exeSig","type":"bytes32","internalType":"bytes32"}]}],"stateMutability":"view"},{"type":"function","name":"getUserInteractions","inputs":[{"name":"user_","type":"address","internalType":"address"}],"outputs":[{"name":"activeBalances","type":"uint256[][2]","internalType":"uint256[][2]"}],"stateMutability":"view"},{"type":"function","name":"inflationOf","inputs":[{"name":"nodeId","type":"uint256","internalType":"uint256"}],"outputs":[{"name":"","type":"uint256","internalType":"uint256"}],"stateMutability":"view"},{"type":"function","name":"isApprovedForAll","inputs":[{"name":"account","type":"address","internalType":"address"},{"name":"operator","type":"address","internalType":"address"}],"outputs":[{"name":"","type":"bool","internalType":"bool"}],"stateMutability":"view"},{"type":"function","name":"isMember","inputs":[{"name":"whoabout_","type":"address","internalType":"address"},{"name":"whereabout_","type":"uint256","internalType":"uint256"}],"outputs":[{"name":"","type":"bool","internalType":"bool"}],"stateMutability":"view"},{"type":"function","name":"isQueueValid","inputs":[{"name":"sigHash","type":"bytes32","internalType":"bytes32"}],"outputs":[{"name":"","type":"bool","internalType":"bool"}],"stateMutability":"view"},{"type":"function","name":"isValidSignature","inputs":[{"name":"_hash","type":"bytes32","internalType":"bytes32"},{"name":"_signature","type":"bytes","internalType":"bytes"}],"outputs":[{"name":"","type":"bytes4","internalType":"bytes4"}],"stateMutability":"view"},{"type":"function","name":"localizeEndpoint","inputs":[{"name":"endpoint_","type":"address","internalType":"address"},{"name":"endpointParent_","type":"uint256","internalType":"uint256"},{"name":"endpointOwner_","type":"address","internalType":"address"}],"outputs":[],"stateMutability":"nonpayable"},{"type":"function","name":"membershipEnforce","inputs":[{"name":"target","type":"address","internalType":"address"},{"name":"fid_","type":"uint256","internalType":"uint256"}],"outputs":[{"name":"s","type":"bool","internalType":"bool"}],"stateMutability":"nonpayable"},{"type":"function","name":"membershipID","inputs":[{"name":"fid_","type":"uint256","internalType":"uint256"}],"outputs":[{"name":"","type":"uint256","internalType":"uint256"}],"stateMutability":"pure"},{"type":"function","name":"mint","inputs":[{"name":"fid_","type":"uint256","internalType":"uint256"},{"name":"amount_","type":"uint256","internalType":"uint256"}],"outputs":[],"stateMutability":"nonpayable"},{"type":"function","name":"mintInflation","inputs":[{"name":"node","type":"uint256","internalType":"uint256"}],"outputs":[{"name":"amount","type":"uint256","internalType":"uint256"}],"stateMutability":"nonpayable"},{"type":"function","name":"mintMembership","inputs":[{"name":"fid_","type":"uint256","internalType":"uint256"},{"name":"to_","type":"address","internalType":"address"}],"outputs":[],"stateMutability":"nonpayable"},{"type":"function","name":"proposeMovement","inputs":[{"name":"typeOfMovement","type":"uint256","internalType":"uint256"},{"name":"node_","type":"uint256","internalType":"uint256"},{"name":"expiresInDays","type":"uint256","internalType":"uint256"},{"name":"executingAccount","type":"address","internalType":"address"},{"name":"descriptionHash","type":"bytes32","internalType":"bytes32"},{"name":"data","type":"tuple","internalType":"struct SafeTx","components":[{"name":"to","type":"address","internalType":"address"},{"name":"value","type":"uint256","internalType":"uint256"},{"name":"data","type":"bytes","internalType":"bytes"},{"name":"operation","type":"uint8","internalType":"uint8"},{"name":"safeTxGas","type":"uint256","internalType":"uint256"},{"name":"baseGas","type":"uint256","internalType":"uint256"},{"name":"gasPrice","type":"uint256","internalType":"uint256"},{"name":"gasToken","type":"address","internalType":"address"},{"name":"refundReceiver","type":"address","internalType":"address"}]}],"outputs":[{"name":"movementHash","type":"bytes32","internalType":"bytes32"}],"stateMutability":"nonpayable"},{"type":"function","name":"redistribute","inputs":[{"name":"nodeId_","type":"uint256","internalType":"uint256"}],"outputs":[{"name":"distributedAmt","type":"uint256","internalType":"uint256"}],"stateMutability":"nonpayable"},{"type":"function","name":"removeSignature","inputs":[{"name":"sigHash_","type":"bytes32","internalType":"bytes32"},{"name":"index_","type":"uint256","internalType":"uint256"},{"name":"who_","type":"address","internalType":"address"}],"outputs":[],"stateMutability":"nonpayable"},{"type":"function","name":"safeBatchTransferFrom","inputs":[{"name":"from","type":"address","internalType":"address"},{"name":"to","type":"address","internalType":"address"},{"name":"ids","type":"uint256[]","internalType":"uint256[]"},{"name":"amounts","type":"uint256[]","internalType":"uint256[]"},{"name":"data","type":"bytes","internalType":"bytes"}],"outputs":[],"stateMutability":"nonpayable"},{"type":"function","name":"safeTransferFrom","inputs":[{"name":"from","type":"address","internalType":"address"},{"name":"to","type":"address","internalType":"address"},{"name":"id","type":"uint256","internalType":"uint256"},{"name":"amount","type":"uint256","internalType":"uint256"},{"name":"data","type":"bytes","internalType":"bytes"}],"outputs":[],"stateMutability":"nonpayable"},{"type":"function","name":"sendSignal","inputs":[{"name":"targetNode_","type":"uint256","internalType":"uint256"},{"name":"signals","type":"uint256[]","internalType":"uint256[]"}],"outputs":[],"stateMutability":"nonpayable"},{"type":"function","name":"setApprovalForAll","inputs":[{"name":"operator","type":"address","internalType":"address"},{"name":"approved","type":"bool","internalType":"bool"}],"outputs":[],"stateMutability":"nonpayable"},{"type":"function","name":"setControl","inputs":[{"name":"newController","type":"address","internalType":"address"}],"outputs":[],"stateMutability":"nonpayable"},{"type":"function","name":"spawnNode","inputs":[{"name":"fid_","type":"uint256","internalType":"uint256"}],"outputs":[{"name":"newID","type":"uint256","internalType":"uint256"}],"stateMutability":"nonpayable"},{"type":"function","name":"spawnNodeWithMembrane","inputs":[{"name":"fid_","type":"uint256","internalType":"uint256"},{"name":"membraneID_","type":"uint256","internalType":"uint256"}],"outputs":[{"name":"newID","type":"uint256","internalType":"uint256"}],"stateMutability":"nonpayable"},{"type":"function","name":"spawnRootNode","inputs":[{"name":"fungible20_","type":"address","internalType":"address"}],"outputs":[{"name":"fID","type":"uint256","internalType":"uint256"}],"stateMutability":"nonpayable"},{"type":"function","name":"submitSignatures","inputs":[{"name":"sigHash","type":"bytes32","internalType":"bytes32"},{"name":"signers","type":"address[]","internalType":"address[]"},{"name":"signatures","type":"bytes[]","internalType":"bytes[]"}],"outputs":[],"stateMutability":"nonpayable"},{"type":"function","name":"supportsInterface","inputs":[{"name":"interfaceId","type":"bytes4","internalType":"bytes4"}],"outputs":[{"name":"","type":"bool","internalType":"bool"}],"stateMutability":"view"},{"type":"function","name":"taxPolicyPreference","inputs":[{"name":"rootToken_","type":"address","internalType":"address"},{"name":"taxRate_","type":"uint256","internalType":"uint256"}],"outputs":[],"stateMutability":"nonpayable"},{"type":"function","name":"toAddress","inputs":[{"name":"x","type":"uint256","internalType":"uint256"}],"outputs":[{"name":"","type":"address","internalType":"address"}],"stateMutability":"view"},{"type":"function","name":"toID","inputs":[{"name":"x","type":"address","internalType":"address"}],"outputs":[{"name":"","type":"uint256","internalType":"uint256"}],"stateMutability":"view"},{"type":"function","name":"totalSupply","inputs":[{"name":"nodeId","type":"uint256","internalType":"uint256"}],"outputs":[{"name":"","type":"uint256","internalType":"uint256"}],"stateMutability":"view"},{"type":"function","name":"totalSupplyOf","inputs":[{"name":"","type":"uint256","internalType":"uint256"}],"outputs":[{"name":"","type":"uint256","internalType":"uint256"}],"stateMutability":"view"},{"type":"function","name":"uri","inputs":[{"name":"","type":"uint256","internalType":"uint256"}],"outputs":[{"name":"","type":"string","internalType":"string"}],"stateMutability":"view"},{"type":"event","name":"ApprovalForAll","inputs":[{"name":"account","type":"address","indexed":true,"internalType":"address"},{"name":"operator","type":"address","indexed":true,"internalType":"address"},{"name":"approved","type":"bool","indexed":false,"internalType":"bool"}],"anonymous":false},{"type":"event","name":"TransferBatch","inputs":[{"name":"operator","type":"address","indexed":true,"internalType":"address"},{"name":"from","type":"address","indexed":true,"internalType":"address"},{"name":"to","type":"address","indexed":true,"internalType":"address"},{"name":"ids","type":"uint256[]","indexed":false,"internalType":"uint256[]"},{"name":"values","type":"uint256[]","indexed":false,"internalType":"uint256[]"}],"anonymous":false},{"type":"event","name":"TransferSingle","inputs":[{"name":"operator","type":"address","indexed":true,"internalType":"address"},{"name":"from","type":"address","indexed":true,"internalType":"address"},{"name":"to","type":"address","indexed":true,"internalType":"address"},{"name":"id","type":"uint256","indexed":false,"internalType":"uint256"},{"name":"value","type":"uint256","indexed":false,"internalType":"uint256"}],"anonymous":false},{"type":"event","name":"URI","inputs":[{"name":"value","type":"string","indexed":false,"internalType":"string"},{"name":"id","type":"uint256","indexed":true,"internalType":"uint256"}],"anonymous":false},{"type":"error","name":"AlreadyMember","inputs":[]},{"type":"error","name":"BadLen","inputs":[]},{"type":"error","name":"BaseOrNonFungible","inputs":[]},{"type":"error","name":"NodeAlreadyExists","inputs":[]},{"type":"error","name":"NodeNotFound","inputs":[]},{"type":"error","name":"BurnE20TransferFailed","inputs":[]},{"type":"error","name":"CoreGasTransferFailed","inputs":[]},{"type":"error","name":"EOA","inputs":[]},{"type":"error","name":"ExecutionOnly","inputs":[]},{"type":"error","name":"InsufficientRootBalance","inputs":[]},{"type":"error","name":"MembershipOp","inputs":[]},{"type":"error","name":"MembraneNotFound","inputs":[]},{"type":"error","name":"MintE20TransferFailed","inputs":[]},{"type":"error","name":"No","inputs":[]},{"type":"error","name":"NoControl","inputs":[]},{"type":"error","name":"NoMembership","inputs":[]},{"type":"error","name":"NoSoup","inputs":[]},{"type":"error","name":"Noise","inputs":[]},{"type":"error","name":"NotMember","inputs":[]},{"type":"error","name":"RootExists","inputs":[]},{"type":"error","name":"RootNodeOrNone","inputs":[]},{"type":"error","name":"Unautorised","inputs":[]},{"type":"error","name":"UniniMembrane","inputs":[]},{"type":"error","name":"Unqualified","inputs":[]},{"type":"error","name":"UnregisteredFungible","inputs":[]},{"type":"error","name":"UnsupportedTransfer","inputs":[]}],"bytecode":{"object":"0x60a0604052426080523480156200001557600080fd5b50604051620063f3380380620063f38339810160408190526200003891620002dc565b8181818160405180604001604052806006815260200165426167426f6b60d01b8152506200006c816200024d60201b60201c565b50604080518082019091526127108152600260208083018290526000805260109052620000bb917f6e0956cda88cad152e89927e53611735b61a5c762d1428573c6931b0a5efcb01916200025f565b50600580546001600160a01b0319166001600160a01b0384169081179091556040805163ee65ef3160e01b8152905163ee65ef31916004808201926020929091908290030181865afa15801562000116573d6000803e3d6000fd5b505050506040513d601f19601f820116820180604052508101906200013c919062000314565b600680546001600160a01b039283166001600160a01b031991821681179092556011805482163317905560078054938516939091169290921790915560408051636da3c05f60e11b8152905163db4780be9160048082019260009290919082900301818387803b158015620001b057600080fd5b505af1158015620001c5573d6000803e3d6000fd5b5050600580546001600160a01b0319166001600160a01b03881690811790915560405163a0017a7d60e01b815230600482015290945063a0017a7d935060240191506200020f9050565b600060405180830381600087803b1580156200022a57600080fd5b505af11580156200023f573d6000803e3d6000fd5b5050505050505050620004aa565b60026200025b8282620003de565b5050565b826002810192821562000296579160200282015b8281111562000296578251829061ffff1690559160200191906001019062000273565b50620002a4929150620002a8565b5090565b5b80821115620002a45760008155600101620002a9565b80516001600160a01b0381168114620002d757600080fd5b919050565b60008060408385031215620002f057600080fd5b620002fb83620002bf565b91506200030b60208401620002bf565b90509250929050565b6000602082840312156200032757600080fd5b6200033282620002bf565b9392505050565b634e487b7160e01b600052604160045260246000fd5b600181811c908216806200036457607f821691505b6020821081036200038557634e487b7160e01b600052602260045260246000fd5b50919050565b601f821115620003d957600081815260208120601f850160051c81016020861015620003b45750805b601f850160051c820191505b81811015620003d557828155600101620003c0565b5050505b505050565b81516001600160401b03811115620003fa57620003fa62000339565b62000412816200040b84546200034f565b846200038b565b602080601f8311600181146200044a5760008415620004315750858301515b600019600386901b1c1916600185901b178555620003d5565b600085815260208120601f198616915b828110156200047b578886015182559484019460019091019084016200045a565b50858210156200049a5787850151600019600388901b60f8161c191681555b5050505050600190811b01905550565b608051615f30620004c360003960005050615f306000f3fe608060405234801561001057600080fd5b50600436106102495760003560e01c806378adc7901161013c578063baa38e64116100be578063baa38e6414610561578063bd85b03914610574578063d3c9998b14610594578063e0051aa9146105a7578063e1583e5f146105ba578063e7dd3117146105da578063e985e9c5146105ed578063eb3b396314610629578063eef2e7571461063c578063f242432a1461065c578063f6355a561461066f578063f77914c31461068257600080fd5b806378adc7901461048d5780637e44bffe146104a057806381ddb01f146104b357806383ac8dcd146104c657806384a0a8c4146104d957806385752d03146104e257806395118154146104f557806399f4568914610515578063a0ce552d14610528578063a22cb4651461053b578063b390c0ab1461054e57600080fd5b8063420f1213116101d0578063420f12131461037757806345bbbf841461038a5780634e1273f4146103b557806351d42f74146103d55780635831122a146103e85780635ac8260c146103fb5780635b4a26ed1461040e57806362593f601461042157806367c394fb146104345780636fa3b2f51461044757806375b0d9cd1461045a578063765063e51461047a57600080fd5b8062fdd58e1461024e57806301ffc9a7146102745780630e89341c146102975780630f336348146102b757806313e75206146102ca5780631626ba7e146102ea5780631b2ef1ca146103165780631edd0d5b1461032b5780631f0178411461033e57806328ca8e26146103515780632eb2c2d614610364575b600080fd5b61026161025c36600461497c565b610695565b6040519081526020015b60405180910390f35b6102876102823660046149be565b61072e565b604051901515815260200161026b565b6102aa6102a53660046149db565b61077e565b60405161026b9190614a44565b6102616102c5366004614a57565b610812565b6102616102d83660046149db565b6000908152600a602052604090205490565b6102fd6102f8366004614bcb565b61081e565b6040516001600160e01b0319909116815260200161026b565b610329610324366004614c11565b610899565b005b6102876103393660046149db565b610b57565b61032961034c36600461497c565b610bc7565b61032961035f366004614c33565b610c1c565b610329610372366004614d09565b610c7f565b610329610385366004614db6565b610ccb565b61039d610398366004614db6565b610eea565b6040516001600160a01b03909116815260200161026b565b6103c86103c3366004614e55565b610f78565b60405161026b9190614ee9565b6102616103e3366004614a57565b6110a1565b6103296103f6366004614efc565b6113b6565b610329610409366004614a57565b611421565b61032961041c366004614fe7565b6114e1565b61028761042f36600461497c565b6125a6565b6102616104423660046149db565b6126ac565b60065461039d906001600160a01b031681565b6102616104683660046149db565b60086020526000908152604090205481565b6102616104883660046149db565b612730565b60055461039d906001600160a01b031681565b6102616104ae3660046149db565b612748565b6103296104c136600461497c565b61275c565b6102616104d4366004614c11565b6127b1565b61026160045481565b6102876104f036600461497c565b612b2e565b6105086105033660046149db565b612b4c565b60405161026b9190615167565b6103c86105233660046149db565b612bc5565b6102616105363660046149db565b612c26565b610329610549366004615274565b612dd5565b61032961055c366004614c11565b612de0565b61026161056f3660046149db565b612e19565b6102616105823660046149db565b60009081526008602052604090205490565b6102616105a23660046152bc565b612f81565b61039d6105b53660046149db565b613298565b6105cd6105c8366004614a57565b6132b6565b60405161026b91906153d2565b6102876105e83660046149db565b6133d9565b6102876105fb36600461541f565b6001600160a01b03918216600090815260016020908152604080832093909416825291909152205460ff1690565b61032961063736600461544d565b613423565b61064f61064a3660046149db565b613463565b60405161026b919061547b565b61032961066a36600461548e565b6134df565b6103c861067d3660046149db565b613524565b6102616106903660046149db565b61360d565b60006001600160a01b0383166107055760405162461bcd60e51b815260206004820152602a60248201527f455243313135353a2061646472657373207a65726f206973206e6f742061207660448201526930b634b21037bbb732b960b11b60648201526084015b60405180910390fd5b506000818152602081815260408083206001600160a01b03861684529091529020545b92915050565b60006001600160e01b03198216636cdb3d1360e11b148061075f57506001600160e01b031982166303a24d0760e21b145b8061072857506301ffc9a760e01b6001600160e01b0319831614610728565b60606002805461078d906154f6565b80601f01602080910402602001604051908101604052809291908181526020018280546107b9906154f6565b80156108065780601f106107db57610100808354040283529160200191610806565b820191906000526020600020905b8154815290600101906020018083116107e957829003601f168201915b50505050509050919050565b6001600160a01b031690565b600554604051630b135d3f60e11b81526000916001600160a01b031690631626ba7e90610851908690869060040161552a565b602060405180830381865afa15801561086e573d6000803e3d6000fd5b505050506040513d601f19601f82011682018060405250810190610892919061554b565b9392505050565b6012546011546001600160a01b0390811691161480156108c357506006546001600160a01b031615155b610926576000828152600a602052604081205490036108f557604051635f12529560e01b815260040160405180910390fd5b610922338383858560405160200161090e92919061557e565b604051602081830303815290604052613636565b5050565b60005a6000848152600a60205260408120549192500361095957604051635f12529560e01b815260040160405180910390fd5b610972338484868660405160200161090e92919061557e565b60005a90506000601081335b6001600160a01b03168152602081019190915260400160002060010154156109b857336000908152601060205260409020600101546109d2565b600080526010602052600080516020615edb833981519152545b90506000816109e184866155b3565b6109eb91906155c6565b90503a6000670de0b6b3a7640000610a0383856155c6565b610a0d91906155f3565b6006546040516306e2b0dd60e11b8152600160048201529192506000916001600160a01b0390911690630dc561ba90602401602060405180830381865afa158015610a5c573d6000803e3d6000fd5b505050506040513d601f19601f82011682018060405250810190610a809190615607565b9050818111610a9857610a9381836155f3565b610ab4565b610aa282826155f3565b610ab490670de0b6b3a76400006155f3565b91505a600654604051635497be6d60e11b81529197506001600160a01b03169063a92f7cda90610aec90339030908790600401615620565b6020604051808303816000875af1158015610b0b573d6000803e3d6000fd5b505050506040513d601f19601f82011682018060405250810190610b2f9190615644565b610b4c57604051630394a78560e31b815260040160405180910390fd5b505050505050505050565b600554604051631edd0d5b60e01b8152600481018390526000916001600160a01b031690631edd0d5b906024016020604051808303816000875af1158015610ba3573d6000803e3d6000fd5b505050506040513d601f19601f820116820180604052508101906107289190615644565b6011546001600160a01b0316336001600160a01b031614610bfb576040516385ea10fd60e01b815260040160405180910390fd5b6001600160a01b038216600090815260106020526040812082915b01555050565b6005546001600160a01b03163314610c4757604051630fc714ab60e01b815260040160405180910390fd5b610c59610c5384610812565b8361366b565b6001600160a01b03811615610c7a57610c7a81610c7585610812565b6136c3565b505050565b6001600160a01b038516331480610c9b5750610c9b85336105fb565b610cb75760405162461bcd60e51b81526004016106fc90615661565b610cc48585858585613754565b5050505050565b6012546011546001600160a01b039081169116148015610cf557506006546001600160a01b031615155b610def576000828152600a60205260408120549003610d2757604051630401a66960e51b815260040160405180910390fd5b610d318183612b2e565b15610d4f576040516340803a5f60e11b815260040160405180910390fd5b6007546001600160a01b03166389160e0e82610d6a8561360d565b6040518363ffffffff1660e01b8152600401610d879291906156af565b602060405180830381865afa158015610da4573d6000803e3d6000fd5b505050506040513d601f19601f82011682018060405250810190610dc89190615644565b610de55760405163b2cab42960e01b815260040160405180910390fd5b61092281836136c3565b60005a6000848152600a602052604081205491925003610e2257604051630401a66960e51b815260040160405180910390fd5b610e2c8284612b2e565b15610e4a576040516340803a5f60e11b815260040160405180910390fd5b6007546001600160a01b03166389160e0e83610e658661360d565b6040518363ffffffff1660e01b8152600401610e829291906156af565b602060405180830381865afa158015610e9f573d6000803e3d6000fd5b505050506040513d601f19601f82011682018060405250810190610ec39190615644565b610ee05760405163b2cab42960e01b815260040160405180910390fd5b61097282846136c3565b6005546000906001600160a01b03166347ac8cb4336040516001600160e01b031960e084901b1681526001600160a01b0391821660048201526024810187905290851660448201526064016020604051808303816000875af1158015610f54573d6000803e3d6000fd5b505050506040513d601f19601f8201168201806040525081019061089291906156d3565b60608151835114610fdd5760405162461bcd60e51b815260206004820152602960248201527f455243313135353a206163636f756e747320616e6420696473206c656e677468604482015268040dad2e6dac2e8c6d60bb1b60648201526084016106fc565b600083516001600160401b03811115610ff857610ff8614a74565b604051908082528060200260200182016040528015611021578160200160208202803683370190505b50905060005b84518110156110995761106c85828151811061104557611045615568565b602002602001015185838151811061105f5761105f615568565b6020026020010151610695565b82828151811061107e5761107e615568565b6020908102919091010152611092816156f0565b9050611027565b509392505050565b6012546011546000916001600160a01b0391821691161480156110ce57506006546001600160a01b031615155b61115157816001600160a01b03163b6000036110fd57604051637dc5186f60e01b815260040160405180910390fd5b61110682610812565b6000818152600a602052604090205490915081900361113857604051633293a2cf60e01b815260040160405180910390fd5b611142818261366b565b61114c33826136c3565b919050565b60005a9050826001600160a01b03163b60000361118157604051637dc5186f60e01b815260040160405180910390fd5b61118a83610812565b6000818152600a60205260409020549092508290036111bc57604051633293a2cf60e01b815260040160405180910390fd5b6111c6828361366b565b6111d033836136c3565b60005a90506000601081335b6001600160a01b03168152602081019190915260400160002060010154156112165733600090815260106020526040902060010154611230565b600080526010602052600080516020615edb833981519152545b905060008161123f84866155b3565b61124991906155c6565b90503a6000670de0b6b3a764000061126183856155c6565b61126b91906155f3565b6006546040516306e2b0dd60e11b8152600160048201529192506000916001600160a01b0390911690630dc561ba90602401602060405180830381865afa1580156112ba573d6000803e3d6000fd5b505050506040513d601f19601f820116820180604052508101906112de9190615607565b90508181116112f6576112f181836155f3565b611312565b61130082826155f3565b61131290670de0b6b3a76400006155f3565b91505a600654604051635497be6d60e11b81529197506001600160a01b03169063a92f7cda9061134a90339030908790600401615620565b6020604051808303816000875af1158015611369573d6000803e3d6000fd5b505050506040513d601f19601f8201168201806040525081019061138d9190615644565b6113aa57604051630394a78560e31b815260040160405180910390fd5b50505050505050919050565b600554604051632c18891560e11b81526001600160a01b0390911690635831122a906113ea90869086908690600401615709565b600060405180830381600087803b15801561140457600080fd5b505af1158015611418573d6000803e3d6000fd5b50505050505050565b6011600001546001600160a01b0316331461144f576040516330e1d31f60e21b815260040160405180910390fd5b6012546001600160a01b0382811691160361148157601280546001600160a01b03199081169091556011805490911690555b6001600160a01b0381166011600001546001600160a01b0316146114c057601180546001600160a01b0319166001600160a01b03909216919091179055565b601280546001600160a01b0319166001600160a01b03909216919091179055565b6012546011546001600160a01b03908116911614801561150b57506006546001600160a01b031615155b611d60576000828152600a602052604090205482900361153e5760405163d913883760e01b815260040160405180910390fd5b6115483383612b2e565b6115655760405163148fe22160e11b815260040160405180910390fd5b61156e826126ac565b50600061157a33610812565b905060006115883385610695565b6000858152600860205260409020549091506115a6612710826155f3565b8210156115c657604051639db14b6d60e01b815260040160405180910390fd5b60005b8451811015611d585760018111611a24578481815181106115ec576115ec615568565b6020026020010151600003611603576001016115c9565b6000868587848151811061161957611619615568565b6020026020010151604051602001611644939291909283526020830191909152604082015260600190565b60405160208183030381529060405280519060200120905060008787848151811061167157611671615568565b6020026020010151604051602001611693929190918252602082015260400190565b604051602081830303815290604052805190602001209050826000036118b7578683815181106116c5576116c5615568565b602002602001015192506001600160a01b0380168310156116f957604051631b9103a360e11b815260040160405180910390fd5b600754604051631ba2a35b60e31b8152600481018590526000916001600160a01b03169063dd151ad890602401600060405180830381865afa158015611743573d6000803e3d6000fd5b505050506040513d6000823e601f3d908101601f1916820160405261176b91908101906157fb565b51511161178b57604051639cd2c44760e01b815260040160405180910390fd5b6000828152600e60205260408120600101541180156117cb57506000828152600e60205260409020600101546000898152600c6020526040902060010154105b156117fd576000828152600e6020526040808220548383529082208054919290916117f79084906155b3565b90915550505b604080518082018252848152426020808301919091526000858152600e9091529190912061182c9160026147f1565b506000818152600e60205260408120805487929061184b908490615913565b9091555050600088815260086020908152604080832054848452600e909252909120546118799060026155c6565b11156118ae576000818152600e602090815260408083208381554260019182018190558c8552600c9093529220858155909101555b60009250611a1a565b6118c0886126ac565b508683815181106118d3576118d3615568565b6020908102919091018101516000848152600e909252604082209094506001015411801561192257506000828152600e60205260409020600101546000898152600b6020526040902060010154105b15611954576000828152600e60205260408082205483835290822080549192909161194e9084906155b3565b90915550505b604080518082018252848152426020808301919091526000858152600e909152919091206119839160026147f1565b506000818152600e6020526040812080548792906119a2908490615913565b9091555050600088815260086020908152604080832054848452600e909252909120546119d09060026155c6565b1115611a15576000818152600e60205260408120908155426001909101556119fc83633b9aca006155c6565b6000898152600b60205260409020908155426001909101555b600192505b50506001016115c9565b600086815260096020908152604080832080548251818502810185019093528083529192909190830182828015611a7a57602002820191906000526020600020905b815481526020019060010190808311611a66575b5050505050905060028651611a8f91906155b3565b815114611aaf57604051631b9103a360e11b815260040160405180910390fd5b6000878152600b602052604081205490868984611acd6002886155b3565b81518110611add57611add615568565b6020026020010151604051602001611b08939291909283526020830191909152604082015260600190565b604051602081830303815290604052805190602001209050878481518110611b3257611b32615568565b6020026020010151600e6000838152602001908152602001600020600060028110611b5f57611b5f615568565b015414611d4a57878481518110611b7857611b78615568565b6020026020010151600e6000838152602001908152602001600020600060028110611ba557611ba5615568565b0155611bd383611bb66002876155b3565b81518110611bc657611bc6615568565b6020026020010151612c26565b50600083611be26002876155b3565b81518110611bf257611bf2615568565b60200260200101518a604051602001611c15929190918252602082015260400190565b60408051808303601f1901815291815281516020928301206000858152600e90935281832060010154818452919092205491925010611c55576000611c78565b6000828152600e602052604080822060010154838352912054611c7891906155b3565b6000828152600e60205260408120015560008a8152600b60205260408120670de0b6b3a7640000916127109101548b8881518110611cb857611cb8615568565b6020026020010151611cca91906155c6565b611cd491906155f3565b87611ce78a670de0b6b3a76400006155c6565b611cf191906155f3565b611cfb91906155c6565b611d0591906155f3565b6000838152600e602052604080822060010183905583825281208054909190611d2f908490615913565b90915550506000818152600e60205260409020429060010155505b8360010193505050506115c9565b505050505050565b60005a6000848152600a6020526040902054909150839003611d955760405163d913883760e01b815260040160405180910390fd5b611d9f3384612b2e565b611dbc5760405163148fe22160e11b815260040160405180910390fd5b611dc5836126ac565b506000611dd133610812565b90506000611ddf3386610695565b600086815260086020526040902054909150611dfd612710826155f3565b821015611e1d57604051639db14b6d60e01b815260040160405180910390fd5b60005b8551811015612592576001811161227b57858181518110611e4357611e43615568565b6020026020010151600003611e5a57600101611e20565b60008785888481518110611e7057611e70615568565b6020026020010151604051602001611e9b939291909283526020830191909152604082015260600190565b604051602081830303815290604052805190602001209050600088888481518110611ec857611ec8615568565b6020026020010151604051602001611eea929190918252602082015260400190565b6040516020818303038152906040528051906020012090508260000361210e57878381518110611f1c57611f1c615568565b602002602001015192506001600160a01b038016831015611f5057604051631b9103a360e11b815260040160405180910390fd5b600754604051631ba2a35b60e31b8152600481018590526000916001600160a01b03169063dd151ad890602401600060405180830381865afa158015611f9a573d6000803e3d6000fd5b505050506040513d6000823e601f3d908101601f19168201604052611fc291908101906157fb565b515111611fe257604051639cd2c44760e01b815260040160405180910390fd5b6000828152600e602052604081206001015411801561202257506000828152600e602052604090206001015460008a8152600c6020526040902060010154105b15612054576000828152600e60205260408082205483835290822080549192909161204e9084906155b3565b90915550505b604080518082018252848152426020808301919091526000858152600e909152919091206120839160026147f1565b506000818152600e6020526040812080548792906120a2908490615913565b9091555050600089815260086020908152604080832054848452600e909252909120546120d09060026155c6565b1115612105576000818152600e602090815260408083208381554260019182018190558d8552600c9093529220858155909101555b60009250612271565b612117896126ac565b5087838151811061212a5761212a615568565b6020908102919091018101516000848152600e909252604082209094506001015411801561217957506000828152600e602052604090206001015460008a8152600b6020526040902060010154105b156121ab576000828152600e6020526040808220548383529082208054919290916121a59084906155b3565b90915550505b604080518082018252848152426020808301919091526000858152600e909152919091206121da9160026147f1565b506000818152600e6020526040812080548792906121f9908490615913565b9091555050600089815260086020908152604080832054848452600e909252909120546122279060026155c6565b111561226c576000818152600e602052604081209081554260019091015561225383633b9aca006155c6565b60008a8152600b60205260409020908155426001909101555b600192505b5050600101611e20565b6000878152600960209081526040808320805482518185028101850190935280835291929091908301828280156122d157602002820191906000526020600020905b8154815260200190600101908083116122bd575b50505050509050600287516122e691906155b3565b81511461230657604051631b9103a360e11b815260040160405180910390fd5b6000888152600b602052604081205490868a846123246002886155b3565b8151811061233457612334615568565b602002602001015160405160200161235f939291909283526020830191909152604082015260600190565b60405160208183030381529060405280519060200120905088848151811061238957612389615568565b6020026020010151600e60008381526020019081526020016000206000600281106123b6576123b6615568565b015414612584578884815181106123cf576123cf615568565b6020026020010151600e60008381526020019081526020016000206000600281106123fc576123fc615568565b015561240d83611bb66002876155b3565b5060008361241c6002876155b3565b8151811061242c5761242c615568565b60200260200101518b60405160200161244f929190918252602082015260400190565b60408051808303601f1901815291815281516020928301206000858152600e9093528183206001015481845291909220549192501061248f5760006124b2565b6000828152600e6020526040808220600101548383529120546124b291906155b3565b6000828152600e60205260408120015560008b8152600b60205260408120670de0b6b3a7640000916127109101548c88815181106124f2576124f2615568565b602002602001015161250491906155c6565b61250e91906155f3565b876125218a670de0b6b3a76400006155c6565b61252b91906155f3565b61253591906155c6565b61253f91906155f3565b6000838152600e602052604080822060010183905583825281208054909190612569908490615913565b90915550506000818152600e60205260409020429060010155505b836001019350505050611e20565b5050505060005a905060006010813361097e565b60006125b28383610695565b6001146125d25760405163148fe22160e11b815260040160405180910390fd5b6000828152600d60205260409020546001111561260257604051631fb1d3e560e31b815260040160405180910390fd5b6007546001600160a01b03166389160e0e8461261d85612748565b6040518363ffffffff1660e01b815260040161263a9291906156af565b602060405180830381865afa158015612657573d6000803e3d6000fd5b505050506040513d601f19601f8201168201806040525081019061267b9190615644565b15905080156126905761269083836001613945565b336001600160a01b038416036107285761072883836001613945565b6000818152600b6020526040812080546002909101546126cc90426155b3565b6126d691906155c6565b9050806000036126e557919050565b6000828152600b6020526040902042906002018190555061114c828383858560405160200161090e9291909182526834b7333630ba34b7b760b91b6020830152602982015260490190565b6000818152600b60205260408120815b015492915050565b6000818152600c6020526040812081612740565b6011546001600160a01b0316336001600160a01b031614612790576040516385ea10fd60e01b815260040160405180910390fd5b6001600160a01b038216600090815260106020526040902081906001610c16565b6012546011546000916001600160a01b0391821691161480156127de57506006546001600160a01b031615155b61289d57600754604051631ba2a35b60e31b8152600481018490526001600160a01b039091169063dd151ad890602401600060405180830381865afa15801561282b573d6000803e3d6000fd5b505050506040513d6000823e601f3d908101601f1916820160405261285391908101906157fb565b5151600003612875576040516378f1f1f960e01b815260040160405180910390fd5b61287e83612e19565b6000818152600c60205260409020838155426001909101559050610728565b60005a600754604051631ba2a35b60e31b8152600481018690529192506001600160a01b03169063dd151ad890602401600060405180830381865afa1580156128ea573d6000803e3d6000fd5b505050506040513d6000823e601f3d908101601f1916820160405261291291908101906157fb565b5151600003612934576040516378f1f1f960e01b815260040160405180910390fd5b61293d84612e19565b6000818152600c60205260408120858155426001909101559092505a33600090815260106020526040812060010154919250901561298d57336000908152601060205260409020600101546129a7565b600080526010602052600080516020615edb833981519152545b90506000816129b684866155b3565b6129c091906155c6565b90503a6000670de0b6b3a76400006129d883856155c6565b6129e291906155f3565b6006546040516306e2b0dd60e11b8152600160048201529192506000916001600160a01b0390911690630dc561ba90602401602060405180830381865afa158015612a31573d6000803e3d6000fd5b505050506040513d601f19601f82011682018060405250810190612a559190615607565b9050818111612a6d57612a6881836155f3565b612a89565b612a7782826155f3565b612a8990670de0b6b3a76400006155f3565b91505a600654604051635497be6d60e11b81529197506001600160a01b03169063a92f7cda90612ac190339030908790600401615620565b6020604051808303816000875af1158015612ae0573d6000803e3d6000fd5b505050506040513d601f19601f82011682018060405250810190612b049190615644565b612b2157604051630394a78560e31b815260040160405180910390fd5b5050505050505092915050565b60006001612b3f8461025c8561360d565b1061072857506001610728565b612b5461482b565b600554604051632544605560e21b8152600481018490526001600160a01b0390911690639511815490602401600060405180830381865afa158015612b9d573d6000803e3d6000fd5b505050506040513d6000823e601f3d908101601f191682016040526107289190810190615b26565b60008181526009602090815260409182902080548351818402810184019094528084526060939283018282801561080657602002820191906000526020600020905b815481526020019060010190808311612c075750505050509050919050565b6012546011546000916001600160a01b039182169116148015612c5357506006546001600160a01b031615155b612d0e576000828152600a602052604081205490819003612c8757604051636d9430a960e11b815260040160405180910390fd5b612c90836126ac565b50604080516020808201869052818301849052825180830384018152606090920183528151918101919091206000818152600e90925291902060010154612cd790426155b3565b6000828152600e6020526040902054612cf091906155c6565b9250612d0784838560405160200161090e90615bf8565b5050919050565b60005a6000848152600a6020526040812054919250819003612d4357604051636d9430a960e11b815260040160405180910390fd5b612d4c846126ac565b50604080516020808201879052818301849052825180830384018152606090920183528151918101919091206000818152600e90925291902060010154612d9390426155b3565b6000828152600e6020526040902054612dac91906155c6565b9350612dc385838660405160200161090e90615bf8565b505060005a90506000601081336111dc565b610922338383613978565b6000828152600a60205260408120549003612e0e5760405163bd23392760e01b815260040160405180910390fd5b610922338383613945565b6012546011546000916001600160a01b039182169116148015612e4657506006546001600160a01b031615155b612ee3576000828152600a60205260408120549003612e7857604051635f12529560e01b815260040160405180910390fd5b612e823383612b2e565b612e9f5760405163148fe22160e11b815260040160405180910390fd5b6004805460010190819055600083815260096020526040902054612ec342856155b3565b612ecd91906155b3565b612ed791906155b3565b9050611142818361366b565b60005a6000848152600a602052604081205491925003612f1657604051635f12529560e01b815260040160405180910390fd5b612f203384612b2e565b612f3d5760405163148fe22160e11b815260040160405180910390fd5b6004805460010190819055600084815260096020526040902054612f6142866155b3565b612f6b91906155b3565b612f7591906155b3565b91506111c6828461366b565b6012546011546000916001600160a01b039182169116148015612fae57506006546001600160a01b031615155b613036576005546001600160a01b031663ab024d70338989898989896040518863ffffffff1660e01b8152600401612fec9796959493929190615c12565b6020604051808303816000875af115801561300b573d6000803e3d6000fd5b505050506040513d601f19601f8201168201806040525081019061302f9190615607565b905061328e565b60005a600554604051630ab024d760e41b81529192506001600160a01b03169063ab024d70906130769033908c908c908c908c908c908c90600401615c12565b6020604051808303816000875af1158015613095573d6000803e3d6000fd5b505050506040513d601f19601f820116820180604052508101906130b99190615607565b915060005a3360009081526010602052604081206001015491925090156130f2573360009081526010602052604090206001015461310c565b600080526010602052600080516020615edb833981519152545b905060008161311b84866155b3565b61312591906155c6565b90503a6000670de0b6b3a764000061313d83856155c6565b61314791906155f3565b6006546040516306e2b0dd60e11b8152600160048201529192506000916001600160a01b0390911690630dc561ba90602401602060405180830381865afa158015613196573d6000803e3d6000fd5b505050506040513d601f19601f820116820180604052508101906131ba9190615607565b90508181116131d2576131cd81836155f3565b6131ee565b6131dc82826155f3565b6131ee90670de0b6b3a76400006155f3565b91505a600654604051635497be6d60e11b81529197506001600160a01b03169063a92f7cda9061322690339030908790600401615620565b6020604051808303816000875af1158015613245573d6000803e3d6000fd5b505050506040513d601f19601f820116820180604052508101906132699190615644565b61328657604051630394a78560e31b815260040160405180910390fd5b505050505050505b9695505050505050565b60006001600160a01b0382116132ae5781610728565b600092915050565b6132be614860565b6001600160a01b0382166000908152600960209081526040918290208054835181840281018401909452808452909183018282801561331c57602002820191906000526020600020905b815481526020019060010190808311613308575b50505050508160006002811061333457613334615568565b60200201528051516001600160401b0381111561335357613353614a74565b60405190808252806020026020018201604052801561337c578160200160208202803683370190505b50602082015260005b8151518110156133d357815180516133a99185918490811061105f5761105f615568565b60208301518051839081106133c0576133c0615568565b6020908102919091010152600101613385565b50919050565b60055460405163e7dd311760e01b8152600481018390526000916001600160a01b03169063e7dd311790602401602060405180830381865afa158015610ba3573d6000803e3d6000fd5b60055460405163eb3b396360e01b815260048101859052602481018490526001600160a01b0383811660448301529091169063eb3b3963906064016113ea565b6060600d60006134728461360d565b815260200190815260200160002080548060200260200160405190810160405280929190818152602001828054801561080657602002820191906000526020600020905b81546001600160a01b031681526001909101906020018083116134b65750505050509050919050565b6001600160a01b0385163314806134fb57506134fb85336105fb565b6135175760405162461bcd60e51b81526004016106fc90615661565b610cc48585858585613a58565b6060600060015b600181106135555761353c826156f0565b6000858152600a6020526040902054909250905061352b565b816001600160401b0381111561356d5761356d614a74565b604051908082528060200260200182016040528015613596578160200160208202803683370190505b5092505b8251811015612d07576000848152600a6020526040902054835184906001906135c49085906155b3565b6135ce91906155b3565b815181106135de576135de615568565b6020908102919091018101919091526000948552600a905260409093205492613606816156f0565b905061359a565b60006804e1003b28d928000082111561363257610728678ac7230489e8000083615c62565b5090565b61364284848484613b81565b60008381526008602052604081208054849290613660908490615913565b909155505050505050565b6000828152600a602052604090208190558181146136a5576000818152600960209081526040822080546001810182559083529120018290555b6000828152600b60205260409020633b9aca00815542906002610c16565b600d60006136d08361360d565b8152602080820192909252604001600090812080546001810182559082529190200180546001600160a01b0319166001600160a01b038416179055610922826137188361360d565b6040516001600160601b0319606087901b1660208201526906d656d626572736869760b41b6034820152603e8101859052600190605e0161090e565b81518351146137b65760405162461bcd60e51b815260206004820152602860248201527f455243313135353a2069647320616e6420616d6f756e7473206c656e677468206044820152670dad2e6dac2e8c6d60c31b60648201526084016106fc565b6001600160a01b0384166137dc5760405162461bcd60e51b81526004016106fc90615c76565b336137eb818787878787613c98565b60005b84518110156138d157600085828151811061380b5761380b615568565b60200260200101519050600085838151811061382957613829615568565b602090810291909101810151600084815280835260408082206001600160a01b038e1683529093529190912054909150818110156138795760405162461bcd60e51b81526004016106fc90615cbb565b6000838152602081815260408083206001600160a01b038e8116855292528083208585039055908b168252812080548492906138b6908490615913565b92505081905550505050806138ca906156f0565b90506137ee565b50846001600160a01b0316866001600160a01b0316826001600160a01b03167f4a39dc06d4c0dbc64b70af90fd698a233a518aa5d07e595d983b8c0526c8f7fb8787604051613921929190615d05565b60405180910390a461393781878787878761432b565b611d58818787878787614408565b613950838383614563565b6000828152600860205260408120805483929061396e9084906155b3565b9091555050505050565b816001600160a01b0316836001600160a01b0316036139eb5760405162461bcd60e51b815260206004820152602960248201527f455243313135353a2073657474696e6720617070726f76616c20737461747573604482015268103337b91039b2b63360b91b60648201526084016106fc565b6001600160a01b03838116600081815260016020908152604080832094871680845294825291829020805460ff191686151590811790915591519182527f17307eab39ab6107e8899845ad3d59bd9653f200f220920489ca2b5937696c31910160405180910390a3505050565b6001600160a01b038416613a7e5760405162461bcd60e51b81526004016106fc90615c76565b336000613a8a856146eb565b90506000613a97856146eb565b9050613aa7838989858589613c98565b6000868152602081815260408083206001600160a01b038c16845290915290205485811015613ae85760405162461bcd60e51b81526004016106fc90615cbb565b6000878152602081815260408083206001600160a01b038d8116855292528083208985039055908a16825281208054889290613b25908490615913565b909155505060408051888152602081018890526001600160a01b03808b16928c82169291881691600080516020615ebb833981519152910160405180910390a4613b73848a8a86868a61432b565b610b4c848a8a8a8a8a614736565b6001600160a01b038416613be15760405162461bcd60e51b815260206004820152602160248201527f455243313135353a206d696e7420746f20746865207a65726f206164647265736044820152607360f81b60648201526084016106fc565b336000613bed856146eb565b90506000613bfa856146eb565b9050613c0b83600089858589613c98565b6000868152602081815260408083206001600160a01b038b16845290915281208054879290613c3b908490615913565b909155505060408051878152602081018790526001600160a01b03808a169260009291871691600080516020615ebb833981519152910160405180910390a4613c898360008985858961432b565b61141883600089898989614736565b6003546001600160a01b0316611d58576304ed360560e51b6000356001600160e01b0319160115611d58576001600160a01b03851615801590613ce357506001600160a01b03841615155b15613d015760405163ce2d28e160e01b815260040160405180910390fd5b60005b8084511115611418576000848281518110613d2157613d21615568565b602002602001015190506000848381518110613d3f57613d3f615568565b60200260200101519050678ac7230489e80000821015613e27576000356001600160e01b03191663420f121360e01b141580613d8e57506000356001600160e01b031916630312c9fb60e51b14155b80613dac57506000356001600160e01b0319166314750bdd60e21b14155b80613dca57506000356001600160e01b0319166383ac8dcd60e01b14155b80613de857506000356001600160e01b031916632ea8e39960e21b14155b613e0557604051630dbd110f60e21b815260040160405180910390fd5b506000908152600d602090815260408083205460089092529091205550611d58565b637268871b60e11b6000356001600160e01b03191601613fc9576000828152600a6020526040902054829003613f64576000828152600a60205260408120548291600f91613e7490613298565b6001600160a01b03166001600160a01b0316815260200190815260200160002060008481526020019081526020016000206000828254613eb49190615913565b90915550506000828152600a6020526040902054613ed190613298565b6001600160a01b03166323b872dd3330846040518463ffffffff1660e01b8152600401613f0093929190615620565b6020604051808303816000875af1158015613f1f573d6000803e3d6000fd5b505050506040513d601f19601f82011682018060405250810190613f439190615644565b613f5f5760405162916a1960e51b815260040160405180910390fd5b613fc9565b613f6d82613298565b600380546001600160a01b0319166001600160a01b039290921691821790556000838152600a60209081526040808320548151928301909152918152613fb892339290918590613a58565b600380546001600160a01b03191690555b634c6f3f5560e01b6000356001600160e01b03191601614321576000828152600a60205260408120548190613ffd90613298565b6000858152600a6020526040902054909150849003614283576001600160a01b0381166000908152600f6020908152604080832087845290915290205483111561405a5760405163d275784f60e01b815260040160405180910390fd5b6001600160a01b0381166000908152600f6020908152604080832087845282528083205460089092529091205461409190856155c6565b61409b91906155f3565b9150818310156140be576040516337b936ed60e11b815260040160405180910390fd5b6001600160a01b0381166000908152600f60209081526040808320878452909152812080548592906140f19084906155b3565b90915550506001600160a01b03811660009081526010602052604081205415614132576001600160a01b03821660009081526010602052604090205461415e565b6000805260106020527f6e0956cda88cad152e89927e53611735b61a5c762d1428573c6931b0a5efcb01545b905061416a81846155f3565b905061417681846155b3565b60065460405163a9059cbb60e01b81529194506001600160a01b038085169263a9059cbb926141ab92169085906004016156af565b6020604051808303816000875af11580156141ca573d6000803e3d6000fd5b505050506040513d601f19601f820116820180604052508101906141ee9190615644565b5060405163a9059cbb60e01b81526001600160a01b0383169063a9059cbb9061421d90339087906004016156af565b6020604051808303816000875af115801561423c573d6000803e3d6000fd5b505050506040513d601f19601f820116820180604052508101906142609190615644565b61427d57604051632ebc317760e21b815260040160405180910390fd5b5061431e565b6000848152600a602090815260408083205483526008909152808220548683529120546142b090856155c6565b6142ba91906155f3565b91506142c584613298565b600380546001600160a01b0319166001600160a01b0392909216918217905561430d90336000878152600a602090815260408083205481519283019091529181528690613a58565b600380546001600160a01b03191690555b50505b5050600101613d04565b6001600160a01b038516611d585760005b808451111561141857600084828151811061435957614359615568565b6020026020010151866001600160a01b03166143759190615913565b60008181526009602052604090205490915015801561439c57506001600160a01b03861633145b156143ff5760008181526009602090815260408083208054600181018255908452918320909101839055338252902085518690849081106143df576143df615568565b602090810291909101810151825460018101845560009384529190922001555b5060010161433c565b6001600160a01b0384163b15611d585760405163bc197c8160e01b81526001600160a01b0385169063bc197c819061444c9089908990889088908890600401615d2a565b6020604051808303816000875af1925050508015614487575060408051601f3d908101601f191682019092526144849181019061554b565b60015b61453357614493615d88565b806308c379a0036144cc57506144a7615da4565b806144b257506144ce565b8060405162461bcd60e51b81526004016106fc9190614a44565b505b60405162461bcd60e51b815260206004820152603460248201527f455243313135353a207472616e7366657220746f206e6f6e2d455243313135356044820152732932b1b2b4bb32b91034b6b83632b6b2b73a32b960611b60648201526084016106fc565b6001600160e01b0319811663bc197c8160e01b146114185760405162461bcd60e51b81526004016106fc90615e2d565b6001600160a01b0383166145c55760405162461bcd60e51b815260206004820152602360248201527f455243313135353a206275726e2066726f6d20746865207a65726f206164647260448201526265737360e81b60648201526084016106fc565b3360006145d1846146eb565b905060006145de846146eb565b90506145fe83876000858560405180602001604052806000815250613c98565b6000858152602081815260408083206001600160a01b038a1684529091529020548481101561467b5760405162461bcd60e51b8152602060048201526024808201527f455243313135353a206275726e20616d6f756e7420657863656564732062616c604482015263616e636560e01b60648201526084016106fc565b6000868152602081815260408083206001600160a01b038b81168086529184528285208a8703905582518b81529384018a9052909290881691600080516020615ebb833981519152910160405180910390a46114188488600086866040518060200160405280600081525061432b565b6040805160018082528183019092526060916000919060208083019080368337019050509050828160008151811061472557614725615568565b602090810291909101015292915050565b6001600160a01b0384163b15611d585760405163f23a6e6160e01b81526001600160a01b0385169063f23a6e619061477a9089908990889088908890600401615e75565b6020604051808303816000875af19250505080156147b5575060408051601f3d908101601f191682019092526147b29181019061554b565b60015b6147c157614493615d88565b6001600160e01b0319811663f23a6e6160e01b146114185760405162461bcd60e51b81526004016106fc90615e2d565b826002810192821561481f579160200282015b8281111561481f578251825591602001919060010190614804565b50613632929150614887565b6040805160a08101909152806000815260200161484661489c565b815260606020820181905260408201819052600091015290565b60405180604001604052806002905b606081526020019060019003908161486f5790505090565b5b808211156136325760008155600101614888565b6040805160e08101909152806000815260200160006001600160a01b0316815260200160006001600160a01b0316815260200160008152602001600081526020016000801916815260200161495460405180610120016040528060006001600160a01b031681526020016000815260200160608152602001600060ff16815260200160008152602001600081526020016000815260200160006001600160a01b0316815260200160006001600160a01b031681525090565b905290565b6001600160a01b038116811461496e57600080fd5b50565b803561114c81614959565b6000806040838503121561498f57600080fd5b823561499a81614959565b946020939093013593505050565b6001600160e01b03198116811461496e57600080fd5b6000602082840312156149d057600080fd5b8135610892816149a8565b6000602082840312156149ed57600080fd5b5035919050565b60005b83811015614a0f5781810151838201526020016149f7565b50506000910152565b60008151808452614a308160208601602086016149f4565b601f01601f19169290920160200192915050565b6020815260006108926020830184614a18565b600060208284031215614a6957600080fd5b813561089281614959565b634e487b7160e01b600052604160045260246000fd5b606081018181106001600160401b0382111715614aa957614aa9614a74565b60405250565b601f8201601f191681016001600160401b0381118282101715614ad457614ad4614a74565b6040525050565b60405161012081016001600160401b0381118282101715614afe57614afe614a74565b60405290565b60405160e081016001600160401b0381118282101715614afe57614afe614a74565b60405160a081016001600160401b0381118282101715614afe57614afe614a74565b60006001600160401b03821115614b6157614b61614a74565b50601f01601f191660200190565b600082601f830112614b8057600080fd5b8135614b8b81614b48565b604051614b988282614aaf565b828152856020848701011115614bad57600080fd5b82602086016020830137600092810160200192909252509392505050565b60008060408385031215614bde57600080fd5b8235915060208301356001600160401b03811115614bfb57600080fd5b614c0785828601614b6f565b9150509250929050565b60008060408385031215614c2457600080fd5b50508035926020909101359150565b600080600060608486031215614c4857600080fd5b8335614c5381614959565b9250602084013591506040840135614c6a81614959565b809150509250925092565b60006001600160401b03821115614c8e57614c8e614a74565b5060051b60200190565b600082601f830112614ca957600080fd5b81356020614cb682614c75565b604051614cc38282614aaf565b83815260059390931b8501820192828101915086841115614ce357600080fd5b8286015b84811015614cfe5780358352918301918301614ce7565b509695505050505050565b600080600080600060a08688031215614d2157600080fd5b8535614d2c81614959565b94506020860135614d3c81614959565b935060408601356001600160401b0380821115614d5857600080fd5b614d6489838a01614c98565b94506060880135915080821115614d7a57600080fd5b614d8689838a01614c98565b93506080880135915080821115614d9c57600080fd5b50614da988828901614b6f565b9150509295509295909350565b60008060408385031215614dc957600080fd5b823591506020830135614ddb81614959565b809150509250929050565b600082601f830112614df757600080fd5b81356020614e0482614c75565b604051614e118282614aaf565b83815260059390931b8501820192828101915086841115614e3157600080fd5b8286015b84811015614cfe578035614e4881614959565b8352918301918301614e35565b60008060408385031215614e6857600080fd5b82356001600160401b0380821115614e7f57600080fd5b614e8b86838701614de6565b93506020850135915080821115614ea157600080fd5b50614c0785828601614c98565b600081518084526020808501945080840160005b83811015614ede57815187529582019590820190600101614ec2565b509495945050505050565b6020815260006108926020830184614eae565b600080600060608486031215614f1157600080fd5b833592506020808501356001600160401b0380821115614f3057600080fd5b614f3c88838901614de6565b94506040870135915080821115614f5257600080fd5b818701915087601f830112614f6657600080fd5b8135614f7181614c75565b604051614f7e8282614aaf565b82815260059290921b840185019185810191508a831115614f9e57600080fd5b8585015b83811015614fd657803585811115614fba5760008081fd5b614fc88d89838a0101614b6f565b845250918601918601614fa2565b508096505050505050509250925092565b60008060408385031215614ffa57600080fd5b8235915060208301356001600160401b0381111561501757600080fd5b614c0785828601614c98565b634e487b7160e01b600052602160045260246000fd5b600061012060018060a01b03835116845260208301516020850152604083015181604086015261506b82860182614a18565b9150506060830151615082606086018260ff169052565b506080830151608085015260a083015160a085015260c083015160c085015260e08301516150bb60e08601826001600160a01b03169052565b50610100928301516001600160a01b03169390920192909252919050565b600081518084526020808501945080840160005b83811015614ede5781516001600160a01b0316875295820195908201906001016150ed565b600081518084526020808501808196508360051b8101915082860160005b8581101561515a578284038952615148848351614a18565b98850198935090840190600101615130565b5091979650505050505050565b60208152600082516005811061517f5761517f615023565b80602084015250602083015160a060408401528051600381106151a4576151a4615023565b60c084015260208101516001600160a01b031660e084015260408101516151d76101008501826001600160a01b03169052565b506060810151610120840152608081015161014084015260a081015161016084015260c0015160e06101808401526152136101a0840182615039565b90506040840151601f198085840301606086015261523183836150d9565b925060608601519150808584030160808601525061524f8282615112565b915050608084015160a08401528091505092915050565b801515811461496e57600080fd5b6000806040838503121561528757600080fd5b823561529281614959565b91506020830135614ddb81615266565b60ff8116811461496e57600080fd5b803561114c816152a2565b60008060008060008060c087890312156152d557600080fd5b86359550602087013594506040870135935060608701356152f581614959565b92506080870135915060a08701356001600160401b038082111561531857600080fd5b90880190610120828b03121561532d57600080fd5b615335614adb565b61533e83614971565b81526020830135602082015260408301358281111561535c57600080fd5b6153688c828601614b6f565b60408301525061537a606084016152b1565b60608201526080830135608082015260a083013560a082015260c083013560c08201526153a960e08401614971565b60e082015261010091506153be828401614971565b828201528093505050509295509295509295565b60208082526000906060830183820185845b600281101561541357601f19878503018352615401848351614eae565b935091840191908401906001016153e4565b50919695505050505050565b6000806040838503121561543257600080fd5b823561543d81614959565b91506020830135614ddb81614959565b60008060006060848603121561546257600080fd5b83359250602084013591506040840135614c6a81614959565b60208152600061089260208301846150d9565b600080600080600060a086880312156154a657600080fd5b85356154b181614959565b945060208601356154c181614959565b9350604086013592506060860135915060808601356001600160401b038111156154ea57600080fd5b614da988828901614b6f565b600181811c9082168061550a57607f821691505b6020821081036133d357634e487b7160e01b600052602260045260246000fd5b8281526040602082015260006155436040830184614a18565b949350505050565b60006020828403121561555d57600080fd5b8151610892816149a8565b634e487b7160e01b600052603260045260246000fd5b9182526766756e6769626c6560c01b6020830152602882015260480190565b634e487b7160e01b600052601160045260246000fd5b818103818111156107285761072861559d565b80820281158282048414176107285761072861559d565b634e487b7160e01b600052601260045260246000fd5b600082615602576156026155dd565b500490565b60006020828403121561561957600080fd5b5051919050565b6001600160a01b039384168152919092166020820152604081019190915260600190565b60006020828403121561565657600080fd5b815161089281615266565b6020808252602e908201527f455243313135353a2063616c6c6572206973206e6f7420746f6b656e206f776e60408201526d195c881bdc88185c1c1c9bdd995960921b606082015260800190565b6001600160a01b03929092168252602082015260400190565b805161114c81614959565b6000602082840312156156e557600080fd5b815161089281614959565b6000600182016157025761570261559d565b5060010190565b83815260606020820152600061572260608301856150d9565b828103604084015261328e8185615112565b600082601f83011261574557600080fd5b8151602061575282614c75565b60405161575f8282614aaf565b83815260059390931b850182019282810191508684111561577f57600080fd5b8286015b84811015614cfe57805161579681614959565b8352918301918301615783565b600082601f8301126157b457600080fd5b81516157bf81614b48565b6040516157cc8282614aaf565b8281528560208487010111156157e157600080fd5b6157f28360208301602088016149f4565b95945050505050565b6000602080838503121561580e57600080fd5b82516001600160401b038082111561582557600080fd5b908401906060828703121561583957600080fd5b60405161584581614a8a565b82518281111561585457600080fd5b61586088828601615734565b825250838301518281111561587457600080fd5b8301601f8101881361588557600080fd5b805161589081614c75565b60405161589d8282614aaf565b82815260059290921b830187019187810191508a8311156158bd57600080fd5b928701925b828410156158db578351825292870192908701906158c2565b80888601525050505060408301519350818411156158f857600080fd5b615904878585016157a3565b60408201529695505050505050565b808201808211156107285761072861559d565b80516005811061114c57600080fd5b80516003811061114c57600080fd5b805161114c816152a2565b6000610120828403121561596257600080fd5b61596a614adb565b9050615975826156c8565b81526020820151602082015260408201516001600160401b0381111561599a57600080fd5b6159a6848285016157a3565b6040830152506159b860608301615944565b60608201526080820151608082015260a082015160a082015260c082015160c08201526159e760e083016156c8565b60e08201526101006159fa8184016156c8565b9082015292915050565b600060e08284031215615a1657600080fd5b615a1e614b04565b9050615a2982615935565b8152615a37602083016156c8565b6020820152615a48604083016156c8565b6040820152606082015160608201526080820151608082015260a082015160a082015260c08201516001600160401b03811115615a8457600080fd5b615a908482850161594f565b60c08301525092915050565b600082601f830112615aad57600080fd5b81516020615aba82614c75565b604051615ac78282614aaf565b83815260059390931b8501820192828101915086841115615ae757600080fd5b8286015b84811015614cfe5780516001600160401b03811115615b0a5760008081fd5b615b188986838b01016157a3565b845250918301918301615aeb565b600060208284031215615b3857600080fd5b81516001600160401b0380821115615b4f57600080fd5b9083019060a08286031215615b6357600080fd5b615b6b614b26565b615b7483615926565b8152602083015182811115615b8857600080fd5b615b9487828601615a04565b602083015250604083015182811115615bac57600080fd5b615bb887828601615734565b604083015250606083015182811115615bd057600080fd5b615bdc87828601615a9c565b6060830152506080830151608082015280935050505092915050565b6d3932b234b9ba3934b13aba34b7b760911b8152600e0190565b600060018060a01b03808a1683528860208401528760408401528660608401528086166080840152508360a083015260e060c0830152615c5560e0830184615039565b9998505050505050505050565b600082615c7157615c716155dd565b500690565b60208082526025908201527f455243313135353a207472616e7366657220746f20746865207a65726f206164604082015264647265737360d81b606082015260800190565b6020808252602a908201527f455243313135353a20696e73756666696369656e742062616c616e636520666f60408201526939103a3930b739b332b960b11b606082015260800190565b604081526000615d186040830185614eae565b82810360208401526157f28185614eae565b6001600160a01b0386811682528516602082015260a060408201819052600090615d5690830186614eae565b8281036060840152615d688186614eae565b90508281036080840152615d7c8185614a18565b98975050505050505050565b600060033d1115615da15760046000803e5060005160e01c5b90565b600060443d1015615db25790565b6040516003193d81016004833e81513d6001600160401b038160248401118184111715615de157505050505090565b8285019150815181811115615df95750505050505090565b843d8701016020828501011115615e135750505050505090565b615e2260208286010187614aaf565b509095945050505050565b60208082526028908201527f455243313135353a204552433131353552656365697665722072656a656374656040820152676420746f6b656e7360c01b606082015260800190565b6001600160a01b03868116825285166020820152604081018490526060810183905260a060808201819052600090615eaf90830184614a18565b97965050505050505056fec3d58168c5ae7397731d063d5bbf3d657854427343f4c083240f7aacaa2d0f626e0956cda88cad152e89927e53611735b61a5c762d1428573c6931b0a5efcb02a264697066735822122087cd0edd8cf7203863ac4f38036e8acb9e54e12310cd03f80617912a09c468bf64736f6c63430008140033","linkReferences":{}},"methodIdentifiers":{"Will()":"6fa3b2f5","allMembersOf(uint256)":"eef2e757","balanceOf(address,uint256)":"00fdd58e","balanceOfBatch(address[],uint256[])":"4e1273f4","burn(uint256,uint256)":"b390c0ab","createEndpointForOwner(uint256,address)":"45bbbf84","entityCount()":"84a0a8c4","executeQueue(bytes32)":"1edd0d5b","executionAddress()":"78adc790","gasMultiplier(address,uint256)":"81ddb01f","getChildrenOf(uint256)":"99f45689","getFidPath(uint256)":"f6355a56","getMembraneOf(uint256)":"7e44bffe","getParentOf(uint256)":"13e75206","getSigQueue(bytes32)":"95118154","getUserInteractions(address)":"e1583e5f","inflationOf(uint256)":"765063e5","isApprovedForAll(address,address)":"e985e9c5","isMember(address,uint256)":"85752d03","isQueueValid(bytes32)":"e7dd3117","isValidSignature(bytes32,bytes)":"1626ba7e","localizeEndpoint(address,uint256,address)":"28ca8e26","membershipEnforce(address,uint256)":"62593f60","membershipID(uint256)":"f77914c3","mint(uint256,uint256)":"1b2ef1ca","mintInflation(uint256)":"67c394fb","mintMembership(uint256,address)":"420f1213","proposeMovement(uint256,uint256,uint256,address,bytes32,(address,uint256,bytes,uint8,uint256,uint256,uint256,address,address))":"d3c9998b","redistribute(uint256)":"a0ce552d","removeSignature(bytes32,uint256,address)":"eb3b3963","safeBatchTransferFrom(address,address,uint256[],uint256[],bytes)":"2eb2c2d6","safeTransferFrom(address,address,uint256,uint256,bytes)":"f242432a","sendSignal(uint256,uint256[])":"5b4a26ed","setApprovalForAll(address,bool)":"a22cb465","setControl(address)":"5ac8260c","spawnNode(uint256)":"baa38e64","spawnNodeWithMembrane(uint256,uint256)":"83ac8dcd","spawnRootNode(address)":"51d42f74","submitSignatures(bytes32,address[],bytes[])":"5831122a","supportsInterface(bytes4)":"01ffc9a7","taxPolicyPreference(address,uint256)":"1f017841","toAddress(uint256)":"e0051aa9","toID(address)":"0f336348","totalSupply(uint256)":"bd85b039","totalSupplyOf(uint256)":"75b0d9cd","uri(uint256)":"0e89341c"},"storageLayout":{"storage":[{"astId":47009,"contract":"src/BagBok.sol:BagBok","label":"_balances","offset":0,"slot":"0","type":"t_mapping(t_uint256,t_mapping(t_address,t_uint256))"},{"astId":47015,"contract":"src/BagBok.sol:BagBok","label":"_operatorApprovals","offset":0,"slot":"1","type":"t_mapping(t_address,t_mapping(t_address,t_bool))"},{"astId":47017,"contract":"src/BagBok.sol:BagBok","label":"_uri","offset":0,"slot":"2","type":"t_string_storage"},{"astId":55740,"contract":"src/BagBok.sol:BagBok","label":"virtualAccount","offset":0,"slot":"3","type":"t_address"},{"astId":55742,"contract":"src/BagBok.sol:BagBok","label":"entityCount","offset":0,"slot":"4","type":"t_uint256"},{"astId":55744,"contract":"src/BagBok.sol:BagBok","label":"executionAddress","offset":0,"slot":"5","type":"t_address"},{"astId":55746,"contract":"src/BagBok.sol:BagBok","label":"Will","offset":0,"slot":"6","type":"t_address"},{"astId":55749,"contract":"src/BagBok.sol:BagBok","label":"M","offset":0,"slot":"7","type":"t_contract(IMembrane)59876"},{"astId":55754,"contract":"src/BagBok.sol:BagBok","label":"totalSupplyOf","offset":0,"slot":"8","type":"t_mapping(t_uint256,t_uint256)"},{"astId":55760,"contract":"src/BagBok.sol:BagBok","label":"childrenOf","offset":0,"slot":"9","type":"t_mapping(t_uint256,t_array(t_uint256)dyn_storage)"},{"astId":55765,"contract":"src/BagBok.sol:BagBok","label":"parentOf","offset":0,"slot":"10","type":"t_mapping(t_uint256,t_uint256)"},{"astId":55772,"contract":"src/BagBok.sol:BagBok","label":"inflSec","offset":0,"slot":"11","type":"t_mapping(t_uint256,t_array(t_uint256)3_storage)"},{"astId":55779,"contract":"src/BagBok.sol:BagBok","label":"inUseMembraneId","offset":0,"slot":"12","type":"t_mapping(t_uint256,t_array(t_uint256)2_storage)"},{"astId":55785,"contract":"src/BagBok.sol:BagBok","label":"members","offset":0,"slot":"13","type":"t_mapping(t_uint256,t_array(t_address)dyn_storage)"},{"astId":55792,"contract":"src/BagBok.sol:BagBok","label":"options","offset":0,"slot":"14","type":"t_mapping(t_bytes32,t_array(t_uint256)2_storage)"},{"astId":55799,"contract":"src/BagBok.sol:BagBok","label":"E20bvtBalance","offset":0,"slot":"15","type":"t_mapping(t_address,t_mapping(t_uint256,t_uint256))"},{"astId":55806,"contract":"src/BagBok.sol:BagBok","label":"taxAndGas","offset":0,"slot":"16","type":"t_mapping(t_address,t_array(t_uint256)2_storage)"},{"astId":55811,"contract":"src/BagBok.sol:BagBok","label":"control","offset":0,"slot":"17","type":"t_array(t_address)2_storage"}],"types":{"t_address":{"encoding":"inplace","label":"address","numberOfBytes":"20"},"t_array(t_address)2_storage":{"encoding":"inplace","label":"address[2]","numberOfBytes":"64","base":"t_address"},"t_array(t_address)dyn_storage":{"encoding":"dynamic_array","label":"address[]","numberOfBytes":"32","base":"t_address"},"t_array(t_uint256)2_storage":{"encoding":"inplace","label":"uint256[2]","numberOfBytes":"64","base":"t_uint256"},"t_array(t_uint256)3_storage":{"encoding":"inplace","label":"uint256[3]","numberOfBytes":"96","base":"t_uint256"},"t_array(t_uint256)dyn_storage":{"encoding":"dynamic_array","label":"uint256[]","numberOfBytes":"32","base":"t_uint256"},"t_bool":{"encoding":"inplace","label":"bool","numberOfBytes":"1"},"t_bytes32":{"encoding":"inplace","label":"bytes32","numberOfBytes":"32"},"t_contract(IMembrane)59876":{"encoding":"inplace","label":"contract IMembrane","numberOfBytes":"20"},"t_mapping(t_address,t_array(t_uint256)2_storage)":{"encoding":"mapping","key":"t_address","label":"mapping(address => uint256[2])","numberOfBytes":"32","value":"t_array(t_uint256)2_storage"},"t_mapping(t_address,t_bool)":{"encoding":"mapping","key":"t_address","label":"mapping(address => bool)","numberOfBytes":"32","value":"t_bool"},"t_mapping(t_address,t_mapping(t_address,t_bool))":{"encoding":"mapping","key":"t_address","label":"mapping(address => mapping(address => bool))","numberOfBytes":"32","value":"t_mapping(t_address,t_bool)"},"t_mapping(t_address,t_mapping(t_uint256,t_uint256))":{"encoding":"mapping","key":"t_address","label":"mapping(address => mapping(uint256 => uint256))","numberOfBytes":"32","value":"t_mapping(t_uint256,t_uint256)"},"t_mapping(t_address,t_uint256)":{"encoding":"mapping","key":"t_address","label":"mapping(address => uint256)","numberOfBytes":"32","value":"t_uint256"},"t_mapping(t_bytes32,t_array(t_uint256)2_storage)":{"encoding":"mapping","key":"t_bytes32","label":"mapping(bytes32 => uint256[2])","numberOfBytes":"32","value":"t_array(t_uint256)2_storage"},"t_mapping(t_uint256,t_array(t_address)dyn_storage)":{"encoding":"mapping","key":"t_uint256","label":"mapping(uint256 => address[])","numberOfBytes":"32","value":"t_array(t_address)dyn_storage"},"t_mapping(t_uint256,t_array(t_uint256)2_storage)":{"encoding":"mapping","key":"t_uint256","label":"mapping(uint256 => uint256[2])","numberOfBytes":"32","value":"t_array(t_uint256)2_storage"},"t_mapping(t_uint256,t_array(t_uint256)3_storage)":{"encoding":"mapping","key":"t_uint256","label":"mapping(uint256 => uint256[3])","numberOfBytes":"32","value":"t_array(t_uint256)3_storage"},"t_mapping(t_uint256,t_array(t_uint256)dyn_storage)":{"encoding":"mapping","key":"t_uint256","label":"mapping(uint256 => uint256[])","numberOfBytes":"32","value":"t_array(t_uint256)dyn_storage"},"t_mapping(t_uint256,t_mapping(t_address,t_uint256))":{"encoding":"mapping","key":"t_uint256","label":"mapping(uint256 => mapping(address => uint256))","numberOfBytes":"32","value":"t_mapping(t_address,t_uint256)"},"t_mapping(t_uint256,t_uint256)":{"encoding":"mapping","key":"t_uint256","label":"mapping(uint256 => uint256)","numberOfBytes":"32","value":"t_uint256"},"t_string_storage":{"encoding":"bytes","label":"string","numberOfBytes":"32"},"t_uint256":{"encoding":"inplace","label":"uint256","numberOfBytes":"32"}}},"id":51}