{"abi":[{"type":"constructor","inputs":[{"name":"Execution","type":"address","internalType":"address"},{"name":"Membrane","type":"address","internalType":"address"}],"stateMutability":"nonpayable"},{"type":"function","name":"Will","inputs":[],"outputs":[{"name":"","type":"address","internalType":"address"}],"stateMutability":"view"},{"type":"function","name":"allMembersOf","inputs":[{"name":"fid_","type":"uint256","internalType":"uint256"}],"outputs":[{"name":"","type":"address[]","internalType":"address[]"}],"stateMutability":"view"},{"type":"function","name":"asRootValuation","inputs":[{"name":"target_","type":"uint256","internalType":"uint256"},{"name":"amount","type":"uint256","internalType":"uint256"}],"outputs":[{"name":"","type":"uint256","internalType":"uint256"}],"stateMutability":"view"},{"type":"function","name":"balanceOf","inputs":[{"name":"owner","type":"address","internalType":"address"},{"name":"id","type":"uint256","internalType":"uint256"}],"outputs":[{"name":"result","type":"uint256","internalType":"uint256"}],"stateMutability":"view"},{"type":"function","name":"balanceOfBatch","inputs":[{"name":"owners","type":"address[]","internalType":"address[]"},{"name":"ids","type":"uint256[]","internalType":"uint256[]"}],"outputs":[{"name":"balances","type":"uint256[]","internalType":"uint256[]"}],"stateMutability":"view"},{"type":"function","name":"burn","inputs":[{"name":"fid_","type":"uint256","internalType":"uint256"},{"name":"amount_","type":"uint256","internalType":"uint256"}],"outputs":[{"name":"topVal","type":"uint256","internalType":"uint256"}],"stateMutability":"nonpayable"},{"type":"function","name":"burnPath","inputs":[{"name":"target_","type":"uint256","internalType":"uint256"},{"name":"amount","type":"uint256","internalType":"uint256"}],"outputs":[],"stateMutability":"nonpayable"},{"type":"function","name":"calculateUserTargetedPreferenceAmount","inputs":[{"name":"childId","type":"uint256","internalType":"uint256"},{"name":"parentId","type":"uint256","internalType":"uint256"},{"name":"signal","type":"uint256","internalType":"uint256"},{"name":"user","type":"address","internalType":"address"}],"outputs":[{"name":"","type":"uint256","internalType":"uint256"}],"stateMutability":"view"},{"type":"function","name":"control","inputs":[{"name":"","type":"uint256","internalType":"uint256"}],"outputs":[{"name":"","type":"address","internalType":"address"}],"stateMutability":"view"},{"type":"function","name":"createEndpointForOwner","inputs":[{"name":"nodeId_","type":"uint256","internalType":"uint256"},{"name":"owner","type":"address","internalType":"address"}],"outputs":[{"name":"endpointAddress","type":"address","internalType":"address"}],"stateMutability":"nonpayable"},{"type":"function","name":"executionAddress","inputs":[],"outputs":[{"name":"","type":"address","internalType":"address"}],"stateMutability":"view"},{"type":"function","name":"getAllNodesForRoot","inputs":[{"name":"rootAddress","type":"address","internalType":"address"},{"name":"userIfAny","type":"address","internalType":"address"}],"outputs":[{"name":"nodes","type":"tuple[]","internalType":"struct NodeState[]","components":[{"name":"basicInfo","type":"string[12]","internalType":"string[12]"},{"name":"membraneMeta","type":"string","internalType":"string"},{"name":"membersOfNode","type":"address[]","internalType":"address[]"},{"name":"childrenNodes","type":"string[]","internalType":"string[]"},{"name":"movementEndpoints","type":"address[]","internalType":"address[]"},{"name":"rootPath","type":"string[]","internalType":"string[]"},{"name":"signals","type":"tuple[]","internalType":"struct UserSignal[]","components":[{"name":"MembraneInflation","type":"string[2][]","internalType":"string[2][]"},{"name":"lastRedistSignal","type":"string[]","internalType":"string[]"}]}]}],"stateMutability":"view"},{"type":"function","name":"getChildrenOf","inputs":[{"name":"fid_","type":"uint256","internalType":"uint256"}],"outputs":[{"name":"","type":"uint256[]","internalType":"uint256[]"}],"stateMutability":"view"},{"type":"function","name":"getFidPath","inputs":[{"name":"fid_","type":"uint256","internalType":"uint256"}],"outputs":[{"name":"fids","type":"uint256[]","internalType":"uint256[]"}],"stateMutability":"view"},{"type":"function","name":"getMembraneOf","inputs":[{"name":"fid_","type":"uint256","internalType":"uint256"}],"outputs":[{"name":"","type":"uint256","internalType":"uint256"}],"stateMutability":"view"},{"type":"function","name":"getNodeData","inputs":[{"name":"nodeId","type":"uint256","internalType":"uint256"},{"name":"user","type":"address","internalType":"address"}],"outputs":[{"name":"nodeData","type":"tuple","internalType":"struct NodeState","components":[{"name":"basicInfo","type":"string[12]","internalType":"string[12]"},{"name":"membraneMeta","type":"string","internalType":"string"},{"name":"membersOfNode","type":"address[]","internalType":"address[]"},{"name":"childrenNodes","type":"string[]","internalType":"string[]"},{"name":"movementEndpoints","type":"address[]","internalType":"address[]"},{"name":"rootPath","type":"string[]","internalType":"string[]"},{"name":"signals","type":"tuple[]","internalType":"struct UserSignal[]","components":[{"name":"MembraneInflation","type":"string[2][]","internalType":"string[2][]"},{"name":"lastRedistSignal","type":"string[]","internalType":"string[]"}]}]}],"stateMutability":"view"},{"type":"function","name":"getNodes","inputs":[{"name":"nodeIds","type":"uint256[]","internalType":"uint256[]"}],"outputs":[{"name":"nodes","type":"tuple[]","internalType":"struct NodeState[]","components":[{"name":"basicInfo","type":"string[12]","internalType":"string[12]"},{"name":"membraneMeta","type":"string","internalType":"string"},{"name":"membersOfNode","type":"address[]","internalType":"address[]"},{"name":"childrenNodes","type":"string[]","internalType":"string[]"},{"name":"movementEndpoints","type":"address[]","internalType":"address[]"},{"name":"rootPath","type":"string[]","internalType":"string[]"},{"name":"signals","type":"tuple[]","internalType":"struct UserSignal[]","components":[{"name":"MembraneInflation","type":"string[2][]","internalType":"string[2][]"},{"name":"lastRedistSignal","type":"string[]","internalType":"string[]"}]}]}],"stateMutability":"view"},{"type":"function","name":"getParentOf","inputs":[{"name":"fid_","type":"uint256","internalType":"uint256"}],"outputs":[{"name":"","type":"uint256","internalType":"uint256"}],"stateMutability":"view"},{"type":"function","name":"getUserNodeSignals","inputs":[{"name":"signalOrigin","type":"address","internalType":"address"},{"name":"parentNodeId","type":"uint256","internalType":"uint256"}],"outputs":[{"name":"UserNodeSignals","type":"uint256[2][]","internalType":"uint256[2][]"}],"stateMutability":"view"},{"type":"function","name":"inParentDenomination","inputs":[{"name":"amt_","type":"uint256","internalType":"uint256"},{"name":"id_","type":"uint256","internalType":"uint256"}],"outputs":[{"name":"inParentVal","type":"uint256","internalType":"uint256"}],"stateMutability":"view"},{"type":"function","name":"inflationOf","inputs":[{"name":"nodeId","type":"uint256","internalType":"uint256"}],"outputs":[{"name":"","type":"uint256","internalType":"uint256"}],"stateMutability":"view"},{"type":"function","name":"initSelfControl","inputs":[],"outputs":[{"name":"","type":"address","internalType":"address"}],"stateMutability":"nonpayable"},{"type":"function","name":"isApprovedForAll","inputs":[{"name":"owner","type":"address","internalType":"address"},{"name":"operator","type":"address","internalType":"address"}],"outputs":[{"name":"result","type":"bool","internalType":"bool"}],"stateMutability":"view"},{"type":"function","name":"isMember","inputs":[{"name":"whoabout_","type":"address","internalType":"address"},{"name":"whereabout_","type":"uint256","internalType":"uint256"}],"outputs":[{"name":"","type":"bool","internalType":"bool"}],"stateMutability":"view"},{"type":"function","name":"localizeEndpoint","inputs":[{"name":"endpoint_","type":"address","internalType":"address"},{"name":"endpointParent_","type":"uint256","internalType":"uint256"},{"name":"owner_","type":"address","internalType":"address"}],"outputs":[],"stateMutability":"nonpayable"},{"type":"function","name":"membershipEnforce","inputs":[{"name":"target","type":"address","internalType":"address"},{"name":"fid_","type":"uint256","internalType":"uint256"}],"outputs":[{"name":"s","type":"bool","internalType":"bool"}],"stateMutability":"nonpayable"},{"type":"function","name":"membershipID","inputs":[{"name":"fid_","type":"uint256","internalType":"uint256"}],"outputs":[{"name":"","type":"uint256","internalType":"uint256"}],"stateMutability":"pure"},{"type":"function","name":"mint","inputs":[{"name":"fid_","type":"uint256","internalType":"uint256"},{"name":"amount_","type":"uint256","internalType":"uint256"}],"outputs":[],"stateMutability":"nonpayable"},{"type":"function","name":"mintInflation","inputs":[{"name":"node","type":"uint256","internalType":"uint256"}],"outputs":[{"name":"amount","type":"uint256","internalType":"uint256"}],"stateMutability":"nonpayable"},{"type":"function","name":"mintMembership","inputs":[{"name":"fid_","type":"uint256","internalType":"uint256"}],"outputs":[],"stateMutability":"nonpayable"},{"type":"function","name":"mintPath","inputs":[{"name":"target_","type":"uint256","internalType":"uint256"},{"name":"amount_","type":"uint256","internalType":"uint256"}],"outputs":[],"stateMutability":"nonpayable"},{"type":"function","name":"name","inputs":[],"outputs":[{"name":"","type":"string","internalType":"string"}],"stateMutability":"view"},{"type":"function","name":"options","inputs":[{"name":"NodeXUserXValue","type":"bytes32","internalType":"bytes32"},{"name":"","type":"uint256","internalType":"uint256"}],"outputs":[{"name":"valueAtTime","type":"uint256","internalType":"uint256"}],"stateMutability":"view"},{"type":"function","name":"redistribute","inputs":[{"name":"nodeId_","type":"uint256","internalType":"uint256"}],"outputs":[{"name":"distributedAmt","type":"uint256","internalType":"uint256"}],"stateMutability":"nonpayable"},{"type":"function","name":"redistributePath","inputs":[{"name":"nodeId_","type":"uint256","internalType":"uint256"}],"outputs":[{"name":"distributedAmt","type":"uint256","internalType":"uint256"}],"stateMutability":"nonpayable"},{"type":"function","name":"resignal","inputs":[{"name":"targetNode_","type":"uint256","internalType":"uint256"},{"name":"signals","type":"uint256[]","internalType":"uint256[]"},{"name":"originator","type":"address","internalType":"address"}],"outputs":[],"stateMutability":"nonpayable"},{"type":"function","name":"safeBatchTransferFrom","inputs":[{"name":"from","type":"address","internalType":"address"},{"name":"to","type":"address","internalType":"address"},{"name":"ids","type":"uint256[]","internalType":"uint256[]"},{"name":"amounts","type":"uint256[]","internalType":"uint256[]"},{"name":"data","type":"bytes","internalType":"bytes"}],"outputs":[],"stateMutability":"nonpayable"},{"type":"function","name":"safeTransferFrom","inputs":[{"name":"from","type":"address","internalType":"address"},{"name":"to","type":"address","internalType":"address"},{"name":"id","type":"uint256","internalType":"uint256"},{"name":"amount","type":"uint256","internalType":"uint256"},{"name":"data","type":"bytes","internalType":"bytes"}],"outputs":[],"stateMutability":"nonpayable"},{"type":"function","name":"sendSignal","inputs":[{"name":"targetNode_","type":"uint256","internalType":"uint256"},{"name":"signals","type":"uint256[]","internalType":"uint256[]"}],"outputs":[],"stateMutability":"nonpayable"},{"type":"function","name":"setApprovalForAll","inputs":[{"name":"operator","type":"address","internalType":"address"},{"name":"isApproved","type":"bool","internalType":"bool"}],"outputs":[],"stateMutability":"nonpayable"},{"type":"function","name":"setControl","inputs":[{"name":"newController","type":"address","internalType":"address"}],"outputs":[],"stateMutability":"nonpayable"},{"type":"function","name":"spawnNode","inputs":[{"name":"fid_","type":"uint256","internalType":"uint256"}],"outputs":[{"name":"newID","type":"uint256","internalType":"uint256"}],"stateMutability":"nonpayable"},{"type":"function","name":"spawnNodeWithMembrane","inputs":[{"name":"fid_","type":"uint256","internalType":"uint256"},{"name":"tokens_","type":"address[]","internalType":"address[]"},{"name":"balances_","type":"uint256[]","internalType":"uint256[]"},{"name":"meta_","type":"string","internalType":"string"},{"name":"inflationRate_","type":"uint256","internalType":"uint256"}],"outputs":[{"name":"newID","type":"uint256","internalType":"uint256"}],"stateMutability":"nonpayable"},{"type":"function","name":"spawnRootNode","inputs":[{"name":"fungible20_","type":"address","internalType":"address"}],"outputs":[{"name":"fID","type":"uint256","internalType":"uint256"}],"stateMutability":"nonpayable"},{"type":"function","name":"supportsInterface","inputs":[{"name":"interfaceId","type":"bytes4","internalType":"bytes4"}],"outputs":[{"name":"result","type":"bool","internalType":"bool"}],"stateMutability":"view"},{"type":"function","name":"symbol","inputs":[],"outputs":[{"name":"","type":"string","internalType":"string"}],"stateMutability":"view"},{"type":"function","name":"taxPolicyPreference","inputs":[{"name":"rootToken_","type":"address","internalType":"address"},{"name":"taxRate_","type":"uint256","internalType":"uint256"}],"outputs":[],"stateMutability":"nonpayable"},{"type":"function","name":"toAddress","inputs":[{"name":"x","type":"uint256","internalType":"uint256"}],"outputs":[{"name":"","type":"address","internalType":"address"}],"stateMutability":"pure"},{"type":"function","name":"toID","inputs":[{"name":"x","type":"address","internalType":"address"}],"outputs":[{"name":"","type":"uint256","internalType":"uint256"}],"stateMutability":"pure"},{"type":"function","name":"totalSupply","inputs":[{"name":"nodeId","type":"uint256","internalType":"uint256"}],"outputs":[{"name":"","type":"uint256","internalType":"uint256"}],"stateMutability":"view"},{"type":"function","name":"uri","inputs":[{"name":"id_","type":"uint256","internalType":"uint256"}],"outputs":[{"name":"","type":"string","internalType":"string"}],"stateMutability":"view"},{"type":"event","name":"ApprovalForAll","inputs":[{"name":"owner","type":"address","indexed":true,"internalType":"address"},{"name":"operator","type":"address","indexed":true,"internalType":"address"},{"name":"isApproved","type":"bool","indexed":false,"internalType":"bool"}],"anonymous":false},{"type":"event","name":"Burned","inputs":[{"name":"fromAddressOrNode","type":"address","indexed":true,"internalType":"address"},{"name":"nodeId","type":"uint256","indexed":true,"internalType":"uint256"},{"name":"amount","type":"uint256","indexed":false,"internalType":"uint256"}],"anonymous":false},{"type":"event","name":"ConfigSignal","inputs":[{"name":"nodeId","type":"uint256","indexed":true,"internalType":"uint256"},{"name":"expressedOption","type":"bytes32","indexed":false,"internalType":"bytes32"}],"anonymous":false},{"type":"event","name":"CreatedEndpoint","inputs":[{"name":"endpoint","type":"address","indexed":true,"internalType":"address"},{"name":"owner","type":"address","indexed":true,"internalType":"address"},{"name":"nodeId","type":"uint256","indexed":true,"internalType":"uint256"}],"anonymous":false},{"type":"event","name":"InflationMinted","inputs":[{"name":"NodeId","type":"uint256","indexed":true,"internalType":"uint256"},{"name":"amount","type":"uint256","indexed":false,"internalType":"uint256"}],"anonymous":false},{"type":"event","name":"InflationRateChanged","inputs":[{"name":"nodeId","type":"uint256","indexed":true,"internalType":"uint256"},{"name":"oldInflationRate","type":"uint256","indexed":false,"internalType":"uint256"},{"name":"newInflationRate","type":"uint256","indexed":false,"internalType":"uint256"}],"anonymous":false},{"type":"event","name":"InflationSignal","inputs":[{"name":"nodeId","type":"uint256","indexed":true,"internalType":"uint256"},{"name":"origin","type":"address","indexed":true,"internalType":"address"},{"name":"inflationRate","type":"uint256","indexed":false,"internalType":"uint256"}],"anonymous":false},{"type":"event","name":"MemberRemoved","inputs":[{"name":"userAddress","type":"address","indexed":true,"internalType":"address"},{"name":"nodeId","type":"uint256","indexed":true,"internalType":"uint256"}],"anonymous":false},{"type":"event","name":"MembershipMinted","inputs":[{"name":"NodeId","type":"uint256","indexed":true,"internalType":"uint256"},{"name":"member","type":"address","indexed":true,"internalType":"address"}],"anonymous":false},{"type":"event","name":"MembraneChanged","inputs":[{"name":"nodeId","type":"uint256","indexed":true,"internalType":"uint256"},{"name":"previousMembrane","type":"uint256","indexed":false,"internalType":"uint256"},{"name":"newMembrane","type":"uint256","indexed":false,"internalType":"uint256"}],"anonymous":false},{"type":"event","name":"MembraneSignal","inputs":[{"name":"nodeId","type":"uint256","indexed":true,"internalType":"uint256"},{"name":"origin","type":"address","indexed":true,"internalType":"address"},{"name":"membraneId","type":"uint256","indexed":false,"internalType":"uint256"}],"anonymous":false},{"type":"event","name":"Minted","inputs":[{"name":"fromAddressOrNode","type":"address","indexed":true,"internalType":"address"},{"name":"nodeId","type":"uint256","indexed":true,"internalType":"uint256"},{"name":"amount","type":"uint256","indexed":false,"internalType":"uint256"}],"anonymous":false},{"type":"event","name":"NewNode","inputs":[{"name":"newId","type":"uint256","indexed":true,"internalType":"uint256"},{"name":"parentId","type":"uint256","indexed":true,"internalType":"uint256"},{"name":"creator","type":"address","indexed":true,"internalType":"address"}],"anonymous":false},{"type":"event","name":"NewRootNode","inputs":[{"name":"rootNodeId","type":"uint256","indexed":true,"internalType":"uint256"}],"anonymous":false},{"type":"event","name":"Resignaled","inputs":[{"name":"sender","type":"address","indexed":true,"internalType":"address"},{"name":"nodeId","type":"uint256","indexed":true,"internalType":"uint256"},{"name":"origin","type":"address","indexed":false,"internalType":"address"}],"anonymous":false},{"type":"event","name":"SelfControlAtAddress","inputs":[{"name":"AgencyLocus","type":"address","indexed":false,"internalType":"address"}],"anonymous":false},{"type":"event","name":"SharesGenerated","inputs":[{"name":"nodeId","type":"uint256","indexed":true,"internalType":"uint256"},{"name":"amount","type":"uint256","indexed":false,"internalType":"uint256"}],"anonymous":false},{"type":"event","name":"TransferBatch","inputs":[{"name":"operator","type":"address","indexed":true,"internalType":"address"},{"name":"from","type":"address","indexed":true,"internalType":"address"},{"name":"to","type":"address","indexed":true,"internalType":"address"},{"name":"ids","type":"uint256[]","indexed":false,"internalType":"uint256[]"},{"name":"amounts","type":"uint256[]","indexed":false,"internalType":"uint256[]"}],"anonymous":false},{"type":"event","name":"TransferSingle","inputs":[{"name":"operator","type":"address","indexed":true,"internalType":"address"},{"name":"from","type":"address","indexed":true,"internalType":"address"},{"name":"to","type":"address","indexed":true,"internalType":"address"},{"name":"id","type":"uint256","indexed":false,"internalType":"uint256"},{"name":"amount","type":"uint256","indexed":false,"internalType":"uint256"}],"anonymous":false},{"type":"event","name":"URI","inputs":[{"name":"value","type":"string","indexed":false,"internalType":"string"},{"name":"id","type":"uint256","indexed":true,"internalType":"uint256"}],"anonymous":false},{"type":"event","name":"UserNodeSignal","inputs":[{"name":"nodeId","type":"uint256","indexed":true,"internalType":"uint256"},{"name":"user","type":"address","indexed":true,"internalType":"address"},{"name":"signals","type":"uint256[]","indexed":false,"internalType":"uint256[]"}],"anonymous":false},{"type":"error","name":"AccountBalanceOverflow","inputs":[]},{"type":"error","name":"AlreadyMember","inputs":[]},{"type":"error","name":"ArrayLengthsMismatch","inputs":[]},{"type":"error","name":"BadLen","inputs":[]},{"type":"error","name":"BaseOrNonFungible","inputs":[]},{"type":"error","name":"BurnE20TransferFailed","inputs":[]},{"type":"error","name":"CannotSkip","inputs":[]},{"type":"error","name":"Disabled","inputs":[]},{"type":"error","name":"EOA","inputs":[]},{"type":"error","name":"Endpoint","inputs":[]},{"type":"error","name":"ExecutionOnly","inputs":[]},{"type":"error","name":"IncompleteSign","inputs":[]},{"type":"error","name":"InsufficientAmt","inputs":[]},{"type":"error","name":"InsufficientBalance","inputs":[]},{"type":"error","name":"MembershipOp","inputs":[]},{"type":"error","name":"MembraneNotFound","inputs":[]},{"type":"error","name":"MintE20TransferFailed","inputs":[]},{"type":"error","name":"No","inputs":[]},{"type":"error","name":"NoControl","inputs":[]},{"type":"error","name":"NoSoup","inputs":[]},{"type":"error","name":"NoTimeDelta","inputs":[]},{"type":"error","name":"NodeAlreadyExists","inputs":[]},{"type":"error","name":"NodeNotFound","inputs":[]},{"type":"error","name":"Noise","inputs":[]},{"type":"error","name":"NoiseNotVoice","inputs":[]},{"type":"error","name":"NotMember","inputs":[]},{"type":"error","name":"NotNodeMember","inputs":[]},{"type":"error","name":"NotOwnerNorApproved","inputs":[]},{"type":"error","name":"Overreach","inputs":[]},{"type":"error","name":"ResignalMismatch","inputs":[]},{"type":"error","name":"RootExists","inputs":[]},{"type":"error","name":"SignalOverflow","inputs":[]},{"type":"error","name":"TargetIsRoot","inputs":[]},{"type":"error","name":"TransferToNonERC1155ReceiverImplementer","inputs":[]},{"type":"error","name":"TransferToZeroAddress","inputs":[]},{"type":"error","name":"Unautorised","inputs":[]},{"type":"error","name":"Unqualified","inputs":[]},{"type":"error","name":"UnregisteredFungible","inputs":[]},{"type":"error","name":"UnsoundMembership","inputs":[]},{"type":"error","name":"UnsupportedTransfer","inputs":[]},{"type":"error","name":"isControled","inputs":[]}],"bytecode":{"object":"0x608060405234801561000f575f80fd5b50604051615e01380380615e0183398101604081905261002e91610201565b5f8052600b60209081526103e87fdf7de25b7f1fd6d0b5205f0e18f1f35bd7b8d84cce336588d184533ce43a6f7655600180546001600160a01b0319166001600160a01b038516908117909155604080516390ef12cd60e01b81529051859385938593859391926390ef12cd926004808401938290030181865afa1580156100b8573d5f803e3d5ffd5b505050506040513d601f19601f820116820180604052508101906100dc9190610232565b600280546001600160a01b03199081166001600160a01b03938416179091556003805490911691831691909117905560408051808201909152600a8152692bb4b6362bb2973c3cbd60b11b6020820152600f9061013990826102ea565b5060408051808201909152600481526315d2531360e21b602082015260109061016290826102ea565b505060118054600160ff19909116811790915580546001600160a01b0319166001600160a01b038516908117909155604051633a8f06ab60e21b815230600482015290915063ea3c1aac906024015f604051808303815f87803b1580156101c7575f80fd5b505af11580156101d9573d5f803e3d5ffd5b50505050505050506103a9565b80516001600160a01b03811681146101fc575f80fd5b919050565b5f8060408385031215610212575f80fd5b61021b836101e6565b9150610229602084016101e6565b90509250929050565b5f60208284031215610242575f80fd5b61024b826101e6565b9392505050565b634e487b7160e01b5f52604160045260245ffd5b600181811c9082168061027a57607f821691505b60208210810361029857634e487b7160e01b5f52602260045260245ffd5b50919050565b601f8211156102e557805f5260205f20601f840160051c810160208510156102c35750805b601f840160051c820191505b818110156102e2575f81556001016102cf565b50505b505050565b81516001600160401b0381111561030357610303610252565b610317816103118454610266565b8461029e565b602080601f83116001811461034a575f84156103335750858301515b5f19600386901b1c1916600185901b1785556103a1565b5f85815260208120601f198616915b8281101561037857888601518255948401946001909101908401610359565b508582101561039557878501515f19600388901b60f8161c191681555b505060018460011b0185555b505050505050565b615a4b806103b65f395ff3fe608060405234801561000f575f80fd5b50600436106102e4575f3560e01c806378adc79011610195578063af1b55b0116100e4578063e985e9c51161009e578063f242432a11610079578063f242432a1461073c578063f6355a561461074f578063f77914c314610762578063f87cc6b314610775575f80fd5b8063e985e9c5146106de578063eef2e75714610709578063f039a73314610729575f80fd5b8063af1b55b014610660578063b29eb75c14610673578063b390c0ab14610686578063bd85b03914610699578063bfad25e5146106b8578063e0051aa9146106cb575f80fd5b806395d89b411161014f578063a0ce552d1161012a578063a0ce552d146105fa578063a22cb4651461060d578063a5541c8414610620578063a6bfbc2014610640575f80fd5b806395d89b41146105cc57806399f45689146105d4578063a0762253146105e7575f80fd5b806378adc7901461055a578063791ddaf91461056d5780637d11e682146105805780637e44bffe146105935780637f33d800146105a657806385752d03146105b9575f80fd5b80631f01784111610251578063535e98911161020b57806362593f60116101e657806362593f601461051957806367c394fb1461052c57806368dc27471461053f578063765063e514610547575f80fd5b8063535e9891146104e05780635ac8260c146104f35780635b4a26ed14610506575f80fd5b80631f0178411461044957806320f944271461045c57806328ca8e261461046f5780632eb2c2d61461048257806345bbbf84146104955780634e1273f4146104c0575f80fd5b80630ffd3910116102a25780630ffd3910146103be578063114b6e49146103d157806313e75206146103e4578063150d503d146104035780631b2ef1ca146104235780631e9b388d14610436575f80fd5b8062fdd58e146102e857806301ffc9a71461032757806306fdde03146103675780630d78d0c11461037c5780630e89341c146103915780630f336348146103a4575b5f80fd5b6103146102f6366004614ad2565b679a31110384e0b0c96020526014919091525f908152604090205490565b6040519081526020015b60405180910390f35b610357610335366004614afc565b6301ffc9a760e09190911c90811463d9b67a26821417630e89341c9091141790565b604051901515815260200161031e565b61036f610788565b60405161031e9190614b51565b61038f61038a366004614b63565b610814565b005b61036f61039f366004614b63565b61084c565b6103146103b2366004614b7a565b6001600160a01b031690565b6103146103cc366004614b95565b61087d565b6103146103df366004614d40565b61095d565b6103146103f2366004614b63565b5f9081526006602052604090205490565b610416610411366004614ad2565b610a31565b60405161031e9190614e30565b61038f610431366004614e96565b610bce565b610314610444366004614e96565b610bdc565b61038f610457366004614ad2565b610c57565b61031461046a366004614e96565b610cce565b61038f61047d366004614eb6565b610cf0565b61038f610490366004614f79565b610ddb565b6104a86104a336600461502f565b611094565b6040516001600160a01b03909116815260200161031e565b6104d36104ce36600461505d565b61117f565b60405161031e91906150fd565b6002546104a8906001600160a01b031681565b61038f610501366004614b7a565b6111ec565b61038f61051436600461510f565b611275565b610357610527366004614ad2565b61166a565b61031461053a366004614b63565b6117b5565b6104a8611800565b610314610555366004614b63565b6119d2565b6001546104a8906001600160a01b031681565b61038f61057b366004614e96565b6119e9565b6104a861058e366004614b63565b611a41565b6103146105a1366004614b63565b611a60565b6103146105b4366004614e96565b611a73565b6103576105c7366004614ad2565b611afa565b61036f611b17565b6104d36105e2366004614b63565b611b24565b6103146105f5366004614b63565b611b83565b610314610608366004614b63565b611bdb565b61038f61061b36600461515f565b611d34565b61063361062e36600461518b565b611d4d565b60405161031e9190615438565b61065361064e36600461502f565b611dfc565b60405161031e919061549a565b61031461066e366004614b7a565b612136565b61038f6106813660046154ac565b6121e2565b610314610694366004614e96565b61225d565b6103146106a7366004614b63565b5f9081526004602052604090205490565b6103146106c6366004614b63565b612268565b6104a86106d9366004614b63565b612272565b6103576106ec3660046154f7565b679a31110384e0b0c96020526014919091525f526034600c205490565b61071c610717366004614b63565b61228e565b60405161031e9190615523565b61038f610737366004614e96565b6122f6565b61038f61074a366004615535565b6123e1565b6104d361075d366004614b63565b6125a9565b610314610770366004614b63565b6126b5565b6106336107833660046154f7565b6126dd565b600f8054610795906155ab565b80601f01602080910402602001604051908101604052809291908181526020018280546107c1906155ab565b801561080c5780601f106107e35761010080835404028352916020019161080c565b820191905f5260205f20905b8154815290600101906020018083116107ef57829003601f168201915b505050505081565b61081d816127cc565b604051339082907f6e620b3e7061133719ea50a8bf6357236acfaa795fbc1bb1c9e19ea6fe88a18d905f90a350565b60606108578261293f565b60405160200161086791906155dd565b6040516020818303038152906040529050919050565b5f8481526006602052604081205484146108aa57604051635f12529560e01b815260040160405180910390fd5b5f6108e36108b786612272565b5f87815260066020526040902054679a31110384e0b0c96020526014919091525f908152604090205490565b679a31110384e0b0c9602090815260148590525f878152604080822054600790935290205491925090633b9aca008211610922575f9350505050610955565b5f61092f84612710615644565b8261093a8986615644565b6109449190615644565b61094e919061566f565b9450505050505b949350505050565b60035460405163333cabc560e01b81525f9182916001600160a01b039091169063333cabc59061099590899089908990600401615682565b6020604051808303815f875af11580156109b1573d5f803e3d5ffd5b505050506040513d601f19601f820116820180604052508101906109d591906156c4565b90506109e087612268565b5f8181526008602052604090208281554260019091015591508215610a1257610a0d83633b9aca00615644565b610a19565b64e8d4a510005b5f838152600760205260409020555095945050505050565b5f818152600560209081526040808320805482518185028101850190935280835260609493830182828015610a8357602002820191905f5260205f20905b815481526020019060010190808311610a6f575b5050505050905080516001600160401b03811115610aa357610aa3614bd3565b604051908082528060200260200182016040528015610adc57816020015b610ac96149a0565b815260200190600190039081610ac15790505b5091505f5b8151811015610bc5575f8585848481518110610aff57610aff61561c565b6020026020010151604051602001610b19939291906156db565b60408051601f1981840301815291815281516020928301205f818152600a9093529082209092500154848381518110610b5457610b5461561c565b60200260200101515f60028110610b6d57610b6d61561c565b602090810291909101919091525f828152600a9091526040902060010154848381518110610b9d57610b9d61561c565b6020026020010151600160028110610bb757610bb761561c565b602002015250600101610ae1565b50505b92915050565b610bd882826129ce565b5050565b5f8181526004602052604081205415610c4e575f82815260046020526040902054610c35610c0984612272565b5f85815260066020526040902054679a31110384e0b0c96020526014919091525f908152604090205490565b610c3f9085615644565b610c49919061566f565b610c50565b5f5b9392505050565b600c546001600160a01b0316610c6b612a3a565b6001600160a01b031614610c92576040516385ea10fd60e01b815260040160405180910390fd5b80600103610cb35760405163023ad70560e31b815260040160405180910390fd5b6001600160a01b039091165f908152600b6020526040902055565b600a602052815f5260405f208160038110610ce7575f80fd5b01549150829050565b6001546001600160a01b03163314610d1b57604051630fc714ab60e01b815260040160405180910390fd5b610d258183611afa565b15610dc3576001600160a01b038181165f818152600960208181526040832080546001810182559084529083200180546001600160a01b03191694881694909417909355908490610d769190615705565b815260208082019290925260409081015f90812080546001810182559082528382200180546001600160a01b0319166001600160a01b0388169081179091558152600490925290205f1990555b610dd66001600160a01b03841683612a80565b505050565b60115460ff1615610e8657610e8688888888808060200260200160405190810160405280939291908181526020018383602002808284375f9201919091525050604080516020808c0282810182019093528b82529093508b92508a9182918501908490808284375f9201919091525050604080516020601f8b0181900481028201810190925289815292508991508890819084018382808284375f92019190915250612b8892505050565b828514610e9a57633b800a465f526004601cfd5b8760601b679a31110384e0b0c9178760601b679a31110384e0b0c917816020528160601c99508060601c985088610ed85763ea553b345f526004601cfd5b893314610ef957335f526034600c2054610ef957634b6e7f185f526004601cfd5b8660051b5b8015610f66576020810390508087013583602052818a01355f5260405f20805480831115610f335763f4d678b85f526004601cfd5b8290039055602083905260405f20805480830181811015610f5b576301336cea5f526004601cfd5b90915550610efe9050565b505050604051604081528560051b602001604082018160208a03823781604001602084015281602088038383013750888a337f4a39dc06d4c0dbc64b70af90fd698a233a518aa5d07e595d983b8c0526c8f7fb60408586010186a45050610fca5f90565b15610fdf57610fdf8888888888888888612e47565b863b1561108a57865f5260405163bc197c81815233602082015288604082015260a060608201528560051b60200160c082018160208a0382378160a001806080850152826020890384840137820160a084015260208401601f19860183800183013750808101830160c401905060208282601c85015f80515af161106b573d1561106b573d5f833e3d82fd5b50805163bc197c8160e01b1461108857639c05499b5f526004601cfd5b505b5050505050505050565b5f61109f8284611afa565b6110bc576040516359c5ba6f60e11b815260040160405180910390fd5b6001546040516311eb232d60e21b8152336004820152602481018590526001600160a01b038481166044830152909116906347ac8cb4906064016020604051808303815f875af1158015611112573d5f803e3d5ffd5b505050506040513d601f19601f820116820180604052508101906111369190615718565b905082826001600160a01b0316826001600160a01b03167fcc812fbe8760ac7f5d76dc25596b5575304a089699833975adb3e253e8c627bd60405160405180910390a492915050565b606083821461119557633b800a465f526004601cfd5b6040519050818152602081018260051b8181016040525b80156111e257602081039050808701358060601b679a31110384e0b0c91760205250808501355f5260405f2054818301526111ac565b5050949350505050565b600c5f01546001600160a01b03163314611219576040516330e1d31f60e21b815260040160405180910390fd5b600d546001600160a01b038281169116036112565750600d8054600c80546001600160a01b03199081166001600160a01b03841617909155169055565b600d80546001600160a01b0319166001600160a01b0383161790555b50565b5f828152600660205260409020548290036112a357604051638c9b017f60e01b815260040160405180910390fd5b5f6112b56112af612a3a565b84611afa565b600e549091506001600160a01b03161580156112cf575080155b156112ed57604051639db14b6d60e01b815260040160405180910390fd5b5f6113146112f9612a3a565b679a31110384e0b0c96020526014525f858152604090205490565b5f85815260046020526040902054909150611332906127109061566f565b61135861133d612a3a565b679a31110384e0b0c96020526014525f868152604090205490565b10156113775760405163ccf7064560e01b815260040160405180910390fd5b611380846117b5565b505f61138d6103b2612a3a565b5f868152600560209081526040808320805482518185028101850190935280835294955092939092918301828280156113e357602002820191905f5260205f20905b8154815260200190600101908083116113cf575b5050600e549394505f938493506001600160a01b031691506114079050575f61140a565b60025b60ff1690505b86518110156115e7575f87828151811061142c5761142c61561c565b602002602001015190505f89868360405160200161145d939291909283526020830191909152604082015260600190565b60408051601f198184030181529190528051602090910120600e549091506001600160a01b03161580159061148f5750875b80156114a857505f818152600a60205260409020548214155b156114c65760405163475b00dd60e01b815260040160405180910390fd5b871580156114d357505f82115b156114f15760405163475b00dd60e01b815260040160405180910390fd5b600183116115c057815f036115075750506115df565b825f0361155a57611516612a3a565b6001600160a01b03168a7f94fb6835215c8e232fdf6bf21658d380697cc552a12a1df09d8cc98fe0d9b88f8460405161155191815260200190565b60405180910390a35b826001036115ae5761156a612a3a565b6001600160a01b03168a7f838e39ec3c38514252e486b7ee525a1748e7fc6118536c7640dbbdd2de2fec9c846040516115a591815260200190565b60405180910390a35b6115bb8a83858a85612e4c565b6115dc565b6115cf8a8784868d518a612f3d565b6115d98285615705565b93505b50505b600101611410565b81158015906115f857508161271014155b1561161657604051630442bea560e31b815260040160405180910390fd5b61161f84612272565b6001600160a01b0316887f8a7531c5a0d68e6295c0d0683ce089e87c3556caf900a8e2d1c558d348bbd8728960405161165891906150fd565b60405180910390a35050505050505050565b5f611678836102f6846126b5565b6001146116985760405163148fe22160e11b815260040160405180910390fd5b6116a0612a3a565b6001600160a01b0316836001600160a01b0316036116d4576116cc836116c5846126b5565b6001613091565b506001610bc8565b6003546001600160a01b03166389160e0e846116ef85611a60565b6040516001600160e01b031960e085901b1681526001600160a01b0390921660048301526024820152604401602060405180830381865afa158015611736573d5f803e3d5ffd5b505050506040513d601f19601f8201168201806040525081019061175a9190615733565b159050611766826126b5565b9150801561177a5761177a83836001613091565b60405182906001600160a01b038516907f3ac963493df564de734d98633f1145d21512e282ba4c02d3c1011119bf7f2862905f90a392915050565b5f6117bf8261313e565b9050817f0d82c0920038b8dc7f633e18585f37092ba957b84876fcf833d6841f69eaa327826040516117f391815260200190565b60405180910390a2919050565b600c545f906001600160a01b03161561182c5760405163bdc7d58160e01b815260040160405180910390fd5b60015460025460405163bfad25e560e01b81526001600160a01b03918216600482015291169063bd8f46f990309063bfad25e5906024016020604051808303815f875af115801561187f573d5f803e3d5ffd5b505050506040513d601f19601f820116820180604052508101906118a391906156c4565b6040518263ffffffff1660e01b81526004016118c191815260200190565b6020604051808303815f875af11580156118dd573d5f803e3d5ffd5b505050506040513d601f19601f820116820180604052508101906119019190615718565b600c5f0180546001600160a01b0319166001600160a01b03928316179055600354604080516301abf02960e51b81529051919092169163357e0520916004808301925f92919082900301818387803b15801561195b575f80fd5b505af115801561196d573d5f803e3d5ffd5b505050507ff890fc28c3f9900b0f626f2dbd8913e1cb84a7d771c3ca70f19ac3ed52cfde12600c5f600281106119a5576119a561561c565b01546040516001600160a01b03909116815260200160405180910390a150600c546001600160a01b031690565b5f818152600760205260408120815b015492915050565b5f6119f3836125a9565b90505f5b8151811015611a2b57611a23828281518110611a1557611a1561561c565b602002602001015184610bce565b6001016119f7565b8015611a3b57611a3b8484610bce565b50505050565b600c8160028110611a50575f80fd5b01546001600160a01b0316905081565b5f818152600860205260408120816119e1565b5f80611a7e846125a9565b90505f805b8251811015611af0578060018451611a9b919061574e565b611aa5919061574e565b9150828281518110611ab957611ab961561c565b602002602001015195508560065f8881526020019081526020015f20540315611af057611ae68587610bdc565b9450600101611a83565b5092949350505050565b5f6001611b0a846102f6856126b5565b10610bc857506001610bc8565b60108054610795906155ab565b5f81815260056020908152604091829020805483518184028101840190945280845260609392830182828015611b7757602002820191905f5260205f20905b815481526020019060010190808311611b63575b50505050509050919050565b5f80611b8e836125a9565b9050600191505b8051821015611bcc57611bc0818381518110611bb357611bb361561c565b6020026020010151611bdb565b50816001019150611b95565b611bd5836117b5565b50610c50835b5f81815260066020526040812054808203611c0957604051636d9430a960e11b815260040160405180910390fd5b5f81815260066020526040902054819003611c2657505f92915050565b611c2f816117b5565b50604080516020808201869052818301849052825180830384018152606090920190925280519101205f611c80611c6584612272565b679a31110384e0b0c96020526014525f848152604090205490565b5f838152600a6020526040902090915060010154611c9e904261574e565b5f838152600a6020526040902054611cb69190615644565b935080841115611cc4578093505b5f828152600a602052604090204290600101558315611d2c57611d2c611ce984612272565b611cf287612272565b8587604051602001611d18906d3932b234b9ba3934b13aba34b7b760911b8152600e0190565b6040516020818303038152906040526131ff565b505050919050565b604051633ac4266d60e11b815260040160405180910390fd5b606081516001600160401b03811115611d6857611d68614bd3565b604051908082528060200260200182016040528015611da157816020015b611d8e6149be565b815260200190600190039081611d865790505b5090505f5b8251811015611df657611dd1838281518110611dc457611dc461561c565b602002602001015161320d565b828281518110611de357611de361561c565b6020908102919091010152600101611da6565b50919050565b611e046149be565b611e0d8361320d565b90506001600160a01b03821615610bc857679a31110384e0b0c960205260148290525f8381526040902054611e469061293f565b61293f565b815161012001525f611e61846001600160a01b038516615705565b5f8181526009602052604090205490915015611eb8575f8181526009602052604081208054611eb09290611e9757611e9761561c565b5f918252602090912001546001600160a01b0316613533565b825161014001525b60408051600180825281830190925290816020015b6040805180820190915260608082526020820152815260200190600190039081611ecd57505060c08301525f848152600560205260409020546001600160401b03811115611f1d57611f1d614bd3565b604051908082528060200260200182016040528015611f5657816020015b611f43614a01565b815260200190600190039081611f3b5790505b508260c001515f81518110611f6d57611f6d61561c565b602090810291909101810151919091525f858152600590915260409020546001600160401b03811115611fa257611fa2614bd3565b604051908082528060200260200182016040528015611fd557816020015b6060815260200190600190039081611fc05790505b508260c001515f81518110611fec57611fec61561c565b6020026020010151602001819052505f5b5f85815260056020526040902054811015610bc5575f85815260076020526040812061202b915b015461293f565b8360c001515f815181106120415761204161561c565b60200260200101515f0151828151811061205d5761205d61561c565b60200260200101516001600281106120775761207761561c565b60200201819052505f848660055f8981526020019081526020015f2084815481106120a4576120a461561c565b905f5260205f2001546040516020016120bf939291906156db565b60408051601f1981840301815291815281516020928301205f818152600a9093529082209092506120ef91612024565b8460c001515f815181106121055761210561561c565b60200260200101516020015183815181106121225761212261561c565b602090810291909101015250600101611ffd565b5f816001600160a01b03163b5f0361216157604051637dc5186f60e01b815260040160405180910390fd5b506001600160a01b0381165f818152600660205260409020541561219857604051633293a2cf60e01b815260040160405180910390fd5b6121a28182612a80565b5f8081546121af90615761565b9091555060405181907f4bc7a1fd073ebdf928da09f58ed29b779ed99b26bddee327e87d0be21af8594f905f90a2919050565b600e80546001600160a01b0319166001600160a01b0383161790556122078383611275565b600e80546001600160a01b03191690556040516001600160a01b0382168152839033907f081dd7a021608cb1e85f93c3e497da26967bb26442035ffc020ba466aed4049d906020015b60405180910390a3505050565b5f610c508383613549565b5f610bc88261385b565b5f6001600160a01b0382116122875781610bc8565b5f92915050565b5f81815260096020908152604091829020805483518184028101840190945280845260609392830182828015611b7757602002820191905f5260205f20905b81546001600160a01b031681526001909101906020018083116122cd5750505050509050919050565b5f8281526006602052604081205490036123235760405163bd23392760e01b815260040160405180910390fd5b5f61232d836125a9565b90505f805b82518110156123cf57806001845161234a919061574e565b612354919061574e565b91508361237d612362612a3a565b679a31110384e0b0c96020526014525f878152604090205490565b101561239c57604051632f72e11160e21b815260040160405180910390fd5b6123a6858561225d565b93508282815181106123ba576123ba61561c565b60200260200101519450806001019050612332565b506123da848461225d565b5050505050565b60115460ff161561245e5761245e868661240e876040805180820190915260018152602081019190915290565b60408051808201909152600181526020810188905286868080601f0160208091040260200160405190810160405280939291908181526020018383808284375f92019190915250612b8892505050565b8560601b679a31110384e0b0c9178560601b679a31110384e0b0c917816020528160601c97508060601c96508661249c5763ea553b345f526004601cfd5b8733146124bd57335f526034600c20546124bd57634b6e7f185f526004601cfd5b855f5260405f2091508154808611156124dd5763f4d678b85f526004601cfd5b8581038355508060205260405f209150815485810181811015612507576301336cea5f526004601cfd5b909255505060208390528486335f805160206159f683398151915260405fa4843b156125a15760405163f23a6e61815233602082015286604082015284606082015283608082015260a080820152816020016020840360c08301376020818360c401601c84015f8a5af1612583573d15612583573d5f823e3d81fd5b805163f23a6e6160e01b1461259f57639c05499b5f526004601cfd5b505b505050505050565b5f818152600660205260409020546060906001905b6125c9846001615705565b8110612603575f818152600660205260409020548114612603576125ec82615761565b5f91825260066020526040909120549091506125be565b816001600160401b0381111561261b5761261b614bd3565b604051908082528060200260200182016040528015612644578160200160208202803683370190505b5092505f90505b818110156126ae575f8481526006602052604090205483600161266e848661574e565b612678919061574e565b815181106126885761268861561c565b6020908102919091018101919091525f948552600690526040909320549260010161264b565b5050919050565b5f6804e1003b28d92800008211156126d957610bc8678ac7230489e8000083615779565b5090565b6001600160a01b0382165f81815260096020526040902054606091906001600160401b0381111561271057612710614bd3565b60405190808252806020026020018201604052801561274957816020015b6127366149be565b81526020019060019003908161272e5790505b5091505f5b5f82815260096020526040902054811015610bc5575f82815260096020526040902080546127a7916127a1918490811061278a5761278a61561c565b5f918252602090912001546001600160a01b031690565b85611dfc565b8382815181106127b9576127b961561c565b602090810291909101015260010161274e565b5f8181526006602052604081205490036127f957604051634825e09360e01b815260040160405180910390fd5b5f818152600660205260409020548190036128275760405163bd23392760e01b815260040160405180910390fd5b5f8181526004602052604090205460010161285557604051630cf32f7560e21b815260040160405180910390fd5b612866612860612a3a565b82611afa565b15612884576040516340803a5f60e11b815260040160405180910390fd5b6003546001600160a01b03166389160e0e61289d612a3a565b6128a684611a60565b6040516001600160e01b031960e085901b1681526001600160a01b0390921660048301526024820152604401602060405180830381865afa1580156128ed573d5f803e3d5ffd5b505050506040513d601f19601f820116820180604052508101906129119190615733565b61292e5760405163b2cab42960e01b815260040160405180910390fd5b611272612939612a3a565b82613998565b60605f61294b83613a1c565b60010190505f816001600160401b0381111561296957612969614bd3565b6040519080825280601f01601f191660200182016040528015612993576020820181803683370190505b5090508181016020015b5f19016f181899199a1a9b1b9c1cb0b131b232b360811b600a86061a8153600a850494508461299d57509392505050565b5f8281526006602052604081205490036129fb57604051635f12529560e01b815260040160405180910390fd5b610bd8612a06612a3a565b8383604051602001612a26906766756e6769626c6560c01b815260080190565b604051602081830303815290604052613af3565b5f80356001600160e01b031916632ca7add760e21b148015612a665750600e546001600160a01b031615155b15612a7b5750600e546001600160a01b031690565b503390565b5f8281526006602052604090205415612aac5760405163731918fb60e11b815260040160405180910390fd5b5f828152600660205260409020819055818114610bd8575f8181526005602090815260408220805460018101825590835290822001839055600990612af0836125a9565b5f81518110612b0157612b0161561c565b602002602001015181526020019081526020015f20612b1f83612272565b8154600180820184555f938452602080852090920180546001600160a01b0319166001600160a01b0394909416939093179092558483526004905260409091205401612b69575050565b505f90815260076020526040902064e8d4a51000815542600290910155565b6304ed360560e51b5f356001600160e01b03191601156123da575f5b80845111156125a1575f848281518110612bc057612bc061561c565b602002602001015190505f848381518110612bdd57612bdd61561c565b602002602001015190505f6001600160a01b0316886001600160a01b031614158015612c1157506001600160a01b03871615155b8015612c2857505f82815260066020526040902054155b15612c465760405163ce2d28e160e01b815260040160405180910390fd5b678ac7230489e80000821015612d05575f356001600160e01b031916630d78d0c160e01b141580612c8957505f356001600160e01b031916630312c9fb60e51b14155b80612ca657505f356001600160e01b031916630af1b55b60e41b14155b80612cc357505f356001600160e01b03191663114b6e4960e01b14155b80612ce057505f356001600160e01b03191663bfad25e560e01b14155b612cfd57604051630dbd110f60e21b815260040160405180910390fd5b5050506123da565b5f356001600160e01b031916630d9778e560e11b1480612d3657505f356001600160e01b03191663791ddaf960e01b145b15612e3d575f82815260066020526040902054829003612df257612d5982612272565b6040516323b872dd60e01b81526001600160a01b0389811660048301523060248301526044820184905291909116906323b872dd906064016020604051808303815f875af1158015612dad573d5f803e3d5ffd5b505050506040513d601f19601f82011682018060405250810190612dd19190615733565b612ded5760405162916a1960e51b815260040160405180910390fd5b612e3d565b6011805460ff19169055612e2f612e07612a3a565b612e1084612272565b5f8581526006602052604081205490859061074a90600190368161578c565b6011805460ff191660011790555b5050600101612ba4565b61108a565b83156123da57604080516020808201889052818301879052825180830384018152606090920183528151918101919091205f848152600a909252919020600101544203612eac5760405163d445b7c360e01b815260040160405180910390fd5b835f03612ec557612ec08683838887613b67565b612ed2565b612ed28683838887613d51565b5f828152600a60209081526040808320426001918201556005835281842080549182018155845292829020909201879055905182815287917fb9fabdd20442c18b28ad124d92670b92dbc9b763d12cd509698e84d798e84cfb910160405180910390a2505050505050565b612f4860028361574e565b815114612f6857604051631b9103a360e11b815260040160405180910390fd5b5f858783612f7760028861574e565b81518110612f8757612f8761561c565b6020026020010151604051602001612fa1939291906156db565b60408051808303601f1901815291815281516020928301205f818152600a90935291205490915061271086118015612fd7575080155b15612fe35750506125a1565b6127108611156130065760405163bb82191f60e01b815260040160405180910390fd5b85811461108a5760408051606081018252878152426020808301919091525f828401819052858152600a90915291909120613042916003614a28565b506130628361305260028861574e565b81518110611bb357611bb361561c565b5061108a8361307260028861574e565b815181106130825761308261561c565b60200260200101518984613ee4565b5f82815260046020526040812080548392906130ae90849061574e565b90915550505f82815260066020526040902054821080156130d65750678ac7230489e8000082115b156130f7576130e4826117b5565b50610dd66130f0612a3a565b8383614035565b613102838383614035565b81836001600160a01b03167f23ff0e75edf108e3d0392d92e13e8c8a868ef19001bd49f9e94876dc46dff87f8360405161225091815260200190565b5f8181526006602052604081205482900361315a57505f919050565b5f8281526007602052604090208054600290910154613179904261574e565b6131839190615644565b9050805f0361319357505f919050565b5f8281526007602052604090204290600201556040516834b7333630ba34b7b760b91b60208201526131cd90839081908490602901612a26565b817f695f517929cb0a761ce9f28118b11060d9646bcf6668b6fc3dfb89aaddce26e4826040516117f391815260200190565b6123da5f8686868686614041565b6132156149be565b61321e8261293f565b8151525f82815260076020526040812061323791612024565b81516020015261324c611e41610c0984612272565b815160400152613261611e41611c6584612272565b81516060015261327a611e41836105b461133d82612272565b815160800152613293611e41836105b46108b782612272565b815160a001525f8281526008602052604081206132af91612024565b815160c001525f828152600660209081526040808320548151808401879052808301829052825180820384018152606090910183528051908401208452600a9092529091205461330291611e4191611a73565b815160e001525f828152600760205260409020613320906002612024565b815161010001525f8281526004602052604090205461333e9061293f565b815161016001526003545f8381526008602052604090819020549051631ba2a35b60e31b815260048101919091526001600160a01b039091169063dd151ad8906024015f60405180830381865afa15801561339b573d5f803e3d5ffd5b505050506040513d5f823e601f3d908101601f191682016040526133c2919081019061585c565b6040908101516020808401919091525f848152600982528290208054835181840281018401909452808452909183018282801561342657602002820191905f5260205f20905b81546001600160a01b03168152600190910190602001808311613408575b505050505060408201526001546009905f9061344c9085906001600160a01b0316615705565b81526020019081526020015f208054806020026020016040519081016040528092919081815260200182805480156134ab57602002820191905f5260205f20905b81546001600160a01b0316815260019091019060200180831161348d575b505050505060808201525f828152600560209081526040918290208054835181840281018401909452808452613513939283018282801561350957602002820191905f5260205f20905b8154815260200190600101908083116134f5575b50505050506141ac565b6060820152613529613524836125a9565b6141ac565b60a0820152919050565b6060610bc86001600160a01b0383166014614257565b5f8281526006602052604081205481036135765760405163bd23392760e01b815260040160405180910390fd5b5f838152600660205260409020548314613599576135948284610bdc565b61359b565b815b5f848152600660205260409020549091508314613657573063f242432a6135c185612272565b6135c9612a3a565b60065f8881526020019081526020015f2054856040516020016135f69063313ab93760e11b815260040190565b6040516020818303038152906040526040518663ffffffff1660e01b8152600401613625959493929190615970565b5f604051808303815f87803b15801561363c575f80fd5b505af115801561364e573d5f803e3d5ffd5b50505050613849565b5f600b5f61366486612272565b6001600160a01b0316815260208101919091526040015f2054156136b357600b5f61368e86612272565b6001600160a01b03166001600160a01b031681526020019081526020015f20546136de565b5f8052600b6020527fdf7de25b7f1fd6d0b5205f0e18f1f35bd7b8d84cce336588d184533ce43a6f76545b90506136ea818461566f565b90505f6136f7828561574e565b9050808411613719576040516337b936ed60e11b815260040160405180910390fd5b61372285612272565b60025460405163a9059cbb60e01b81526001600160a01b0391821660048201526024810185905291169063a9059cbb906044016020604051808303815f875af1158015613771573d5f803e3d5ffd5b505050506040513d601f19601f820116820180604052508101906137959190615733565b801561382957506137a585612272565b6001600160a01b031663a9059cbb6137bb612a3a565b6040516001600160e01b031960e084901b1681526001600160a01b039091166004820152602481018490526044016020604051808303815f875af1158015613805573d5f803e3d5ffd5b505050506040513d601f19601f820116820180604052508101906138299190615733565b61384657604051632ebc317760e21b815260040160405180910390fd5b50505b610bc8613854612a3a565b8484613091565b5f81815260066020526040812054810361387d5761387b61066e83612272565b505b61388e613888612a3a565b83611afa565b1580156138a857505f828152600660205260409020548214155b156138c65760405163148fe22160e11b815260040160405180910390fd5b5f828152600460205260409020546001016138f457604051630cf32f7560e21b815260040160405180910390fd5b5f80815461390190615761565b90915550613913633b9aca0044615779565b5f5461391f428561574e565b613929919061574e565b613933919061574e565b905061394961394182612272565b3060016143f0565b6139538183612a80565b33301461396557613965612939612a3a565b6040513390839083907f907e845f974b1e16735c498eca2c72acd8c3d61c86675d4cab952054450ee358905f90a4919050565b5f8181526009602090815260408220805460018101825590835291200180546001600160a01b0319166001600160a01b038416179055610bd8826139db836126b5565b6040516bffffffffffffffffffffffff19606087901b1660208201526906d656d626572736869760b41b6034820152603e8101859052600190605e01612a26565b5f8072184f03e93ff9f4daa797ed6e38ed64bf6a1f0160401b8310613a5a5772184f03e93ff9f4daa797ed6e38ed64bf6a1f0160401b830492506040015b6d04ee2d6d415b85acef81000000008310613a86576d04ee2d6d415b85acef8100000000830492506020015b662386f26fc100008310613aa457662386f26fc10000830492506010015b6305f5e1008310613abc576305f5e100830492506008015b6127108310613ad057612710830492506004015b60648310613ae2576064830492506002015b600a8310610bc85760010192915050565b613aff84848484614448565b5f8381526004602052604081208054849290613b1c908490615705565b909155505060405182815283906001600160a01b038616907f25b428dfde728ccfaddad7e29e4ac23c24ed7fd1a6e3e3f91894a9a073f5dfff9060200160405180910390a350505050565b6001600160a01b03821080613beb5750600354604051631ba2a35b60e31b8152600481018490526001600160a01b039091169063dd151ad8906024015f60405180830381865afa158015613bbd573d5f803e3d5ffd5b505050506040513d5f823e601f3d908101601f19168201604052613be4919081019061585c565b6040015151155b15613c0957604051639cd2c44760e01b815260040160405180910390fd5b613c1685858585856144f3565b5f85815260046020908152604080832054868452600a90925290912054613c3e906002615644565b11156123da576003546040516350885bc560e01b8152600481018790525f916001600160a01b0316906350885bc5906024016040805180830381865afa158015613c8a573d5f803e3d5ffd5b505050506040513d601f19601f82011682018060405250810190613cae91906159b4565b50905080613ccf5760405163a74ab56560e01b815260040160405180910390fd5b613cd8866117b5565b505f86815260086020526040812087917fe48aa5e298e92f05c7b7489cb783dd272acece1ed2b7aae5007022513a99761191015460408051918252602082018790520160405180910390a2604080518082018252848152426020808301919091525f89815260089091529190912061259f916002614a62565b613d5e85858585856144f3565b5f85815260046020908152604080832054868452600a90925290912054613d86906002615644565b11156123da576003546040516350885bc560e01b8152600481018790525f916001600160a01b0316906350885bc5906024016040805180830381865afa158015613dd2573d5f803e3d5ffd5b505050506040513d601f19601f82011682018060405250810190613df691906159b4565b50905080613e175760405163a74ab56560e01b815260040160405180910390fd5b613e20866117b5565b505f8681526007602052604090205486907f0ad1727523f8a97d260a40299bd81a21bbcdb605a771d1390f8fa163b2632caf90613e6186633b9aca00615644565b6040805192835260208301919091520160405180910390a25f86815260076020526040902054613ea0908790613e9b86633b9aca00615644565b6145d9565b604051806060016040528084633b9aca00613ebb9190615644565b81524260208083018290526040928301919091525f89815260079091522061259f916003614a28565b604080516020808201869052818301859052825180830384018152606090920183528151918101919091205f848152600a90925291812054613f2c90869086906103cc612a3a565b5f848152600a6020526040902090915060010154421015613f605760405163d445b7c360e01b815260040160405180910390fd5b5f838152600a602052604090206002015415613fa5575f838152600a602052604080822060020154848352908220805491929091613f9f90849061574e565b90915550505b5f828152600a602052604081208054839290613fc2908490615705565b90915550505f84815260076020526040812001545f838152600a602052604081200154111561400a575f84815260076020526040812001545f838152600a6020526040812001555b5f918252600a6020526040808320426001918201819055948452922091820192909255600201555050565b610dd65f84848461483d565b60115460ff161561408957614089858561406e866040805180820190915260018152602081019190915290565b60408051808201909152600181526020810187905285612b88565b8460601b8460601b806140a35763ea553b345f526004601cfd5b81679a31110384e0b0c9176020528760601b8281148115176140d957885f526034600c20546140d957634b6e7f185f526004601cfd5b50845f5260405f208054808611156140f85763f4d678b85f526004601cfd5b8590039055679a31110384e0b0c9811760205260405f20805480860181811015614129576301336cea5f526004601cfd5b808355505050836020528060601c8260601c335f805160206159f683398151915260405fa450506141575f90565b1561419857614198858561417e866040805180820190915260018152602081019190915290565b604080518082019091526001815260208101879052611a3b565b833b156125a1576125a18585858585614916565b60605f82516001600160401b038111156141c8576141c8614bd3565b6040519080825280602002602001820160405280156141fb57816020015b60608152602001906001900390816141e65790505b5090505f5b83518110156142505761422b84828151811061421e5761421e61561c565b602002602001015161293f565b82828151811061423d5761423d61561c565b6020908102919091010152600101614200565b5092915050565b60605f614265836002615644565b614270906002615705565b6001600160401b0381111561428757614287614bd3565b6040519080825280601f01601f1916602001820160405280156142b1576020820181803683370190505b509050600360fc1b815f815181106142cb576142cb61561c565b60200101906001600160f81b03191690815f1a905350600f60fb1b816001815181106142f9576142f961561c565b60200101906001600160f81b03191690815f1a9053505f61431b846002615644565b614326906001615705565b90505b600181111561439d576f181899199a1a9b1b9c1cb0b131b232b360811b85600f166010811061435a5761435a61561c565b1a60f81b8282815181106143705761437061561c565b60200101906001600160f81b03191690815f1a90535060049490941c93614396816159e0565b9050614329565b508315610c505760405162461bcd60e51b815260206004820181905260248201527f537472696e67733a20686578206c656e67746820696e73756666696369656e74604482015260640160405180910390fd5b8015159050679a31110384e0b0c960205282601452815f52806034600c2055805f525f1960601c8281168482167f17307eab39ab6107e8899845ad3d59bd9653f200f220920489ca2b5937696c3160205fa350505050565b60115460ff1615614475576144755f8561406e866040805180820190915260018152602081019190915290565b8360601b8061448b5763ea553b345f526004601cfd5b679a31110384e0b0c960205284601452835f5260405f208054848101818110156144bc576301336cea5f526004601cfd5b808355505050826020528060601c5f335f805160206159f683398151915260405fa450833b15611a3b57611a3b5f85858585614916565b5f848152600a602052604081206001015411801561453057505f848152600a60205260409020600101545f86815260086020526040902060010154105b1561457a575f848152600a60205260409020600201541561457a575f848152600a60205260408082206002015485835290822080549192909161457490849061574e565b90915550505b60408051606081018252838152426020808301919091528183018490525f878152600a909152919091206145af916003614a28565b505f838152600a6020526040812080548392906145cd908490615705565b90915550505050505050565b5f8381526005602090815260408083208054825181850281018501909352808352919290919083018282801561462c57602002820191905f5260205f20905b815481526020019060010190808311614618575b5050505050905080515f036146415750505050565b5f805b8251811015614708575f8382815181106146605761466061561c565b602002602001015187604051602001614683929190918252602082015260400190565b60408051808303601f1901815291815281516020928301205f818152600a9093529120549091506146b48185615705565b9350633b9aca008111156146fe576146d7858481518110611bb357611bb361561c565b505f876146e48884615644565b6146ee919061566f565b5f848152600a6020526040902055505b5050600101614644565b5060018111801561473f57505f8581526007602052604090205461473090620186a09061566f565b61473d620186a08361566f565b105b156147c5575f61477d61475187612272565b5f88815260066020526040902054679a31110384e0b0c96020526014919091525f908152604090205490565b6147a461478988612272565b679a31110384e0b0c96020526014525f888152604090205490565b6147ae919061574e565b90506147c36147bc87612272565b8783613091565b505b60408051606081018252848152426020808301829052828401919091525f8881526007909152919091206147fa916003614a28565b50604080518581526020810185905286917f0ad1727523f8a97d260a40299bd81a21bbcdb605a771d1390f8fa163b2632caf910160405180910390a25050505050565b60115460ff161561489357614893835f61486a856040805180820190915260018152602081019190915290565b60408051808201909152600181526020810186905260405180602001604052805f815250612b88565b8260601b80679a31110384e0b0c917602052808560601b148560601b15176148cf57845f526034600c20546148cf57634b6e7f185f526004601cfd5b825f5260405f208054808411156148ed5763f4d678b85f526004601cfd5b83810382555050816020525f8160601c335f805160206159f683398151915260405fa450611a3b565b60405163f23a6e6181523360208201528560601b60601c604082015283606082015282608082015260a08082015281518060c08301528015614962578060e08301826020860160045afa505b6020828260c401601c85015f8a5af1614983573d15614983573d5f833e3d82fd5b50805163f23a6e6160e01b146125a157639c05499b5f526004601cfd5b60405180604001604052806002906020820280368337509192915050565b6040518060e001604052806149d1614a8f565b81526020016060815260200160608152602001606081526020016060815260200160608152602001606081525090565b60405180604001604052806002905b6060815260200190600190039081614a105790505090565b8260038101928215614a56579160200282015b82811115614a56578251825591602001919060010190614a3b565b506126d9929150614aaa565b8260028101928215614a565791602002820182811115614a56578251825591602001919060010190614a3b565b60408051610180810190915260608152600b60208201614a10565b5b808211156126d9575f8155600101614aab565b6001600160a01b0381168114611272575f80fd5b5f8060408385031215614ae3575f80fd5b8235614aee81614abe565b946020939093013593505050565b5f60208284031215614b0c575f80fd5b81356001600160e01b031981168114610c50575f80fd5b5f81518084528060208401602086015e5f602082860101526020601f19601f83011685010191505092915050565b602081525f610c506020830184614b23565b5f60208284031215614b73575f80fd5b5035919050565b5f60208284031215614b8a575f80fd5b8135610c5081614abe565b5f805f8060808587031215614ba8575f80fd5b8435935060208501359250604085013591506060850135614bc881614abe565b939692955090935050565b634e487b7160e01b5f52604160045260245ffd5b604051608081016001600160401b0381118282101715614c0957614c09614bd3565b60405290565b604051601f8201601f191681016001600160401b0381118282101715614c3757614c37614bd3565b604052919050565b5f6001600160401b03821115614c5757614c57614bd3565b5060051b60200190565b5f82601f830112614c70575f80fd5b81356020614c85614c8083614c3f565b614c0f565b8083825260208201915060208460051b870101935086841115614ca6575f80fd5b602086015b84811015614cc25780358352918301918301614cab565b509695505050505050565b5f6001600160401b03821115614ce557614ce5614bd3565b50601f01601f191660200190565b5f82601f830112614d02575f80fd5b8135614d10614c8082614ccd565b818152846020838601011115614d24575f80fd5b816020850160208301375f918101602001919091529392505050565b5f805f805f60a08688031215614d54575f80fd5b853594506020808701356001600160401b0380821115614d72575f80fd5b818901915089601f830112614d85575f80fd5b8135614d93614c8082614c3f565b81815260059190911b8301840190848101908c831115614db1575f80fd5b938501935b82851015614dd8578435614dc981614abe565b82529385019390850190614db6565b985050506040890135925080831115614def575f80fd5b614dfb8a848b01614c61565b95506060890135925080831115614e10575f80fd5b5050614e1e88828901614cf3565b95989497509295608001359392505050565b602080825282518282018190525f919060409081850190868401855b82811015614e89578151845f5b6002811015614e7657825182529188019190880190600101614e59565b5050509284019290850190600101614e4c565b5091979650505050505050565b5f8060408385031215614ea7575f80fd5b50508035926020909101359150565b5f805f60608486031215614ec8575f80fd5b8335614ed381614abe565b9250602084013591506040840135614eea81614abe565b809150509250925092565b5f8083601f840112614f05575f80fd5b5081356001600160401b03811115614f1b575f80fd5b6020830191508360208260051b8501011115614f35575f80fd5b9250929050565b5f8083601f840112614f4c575f80fd5b5081356001600160401b03811115614f62575f80fd5b602083019150836020828501011115614f35575f80fd5b5f805f805f805f8060a0898b031215614f90575f80fd5b8835614f9b81614abe565b97506020890135614fab81614abe565b965060408901356001600160401b0380821115614fc6575f80fd5b614fd28c838d01614ef5565b909850965060608b0135915080821115614fea575f80fd5b614ff68c838d01614ef5565b909650945060808b013591508082111561500e575f80fd5b5061501b8b828c01614f3c565b999c989b5096995094979396929594505050565b5f8060408385031215615040575f80fd5b82359150602083013561505281614abe565b809150509250929050565b5f805f8060408587031215615070575f80fd5b84356001600160401b0380821115615086575f80fd5b61509288838901614ef5565b909650945060208701359150808211156150aa575f80fd5b506150b787828801614ef5565b95989497509550505050565b5f815180845260208085019450602084015f5b838110156150f2578151875295820195908201906001016150d6565b509495945050505050565b602081525f610c5060208301846150c3565b5f8060408385031215615120575f80fd5b8235915060208301356001600160401b0381111561513c575f80fd5b61514885828601614c61565b9150509250929050565b8015158114611272575f80fd5b5f8060408385031215615170575f80fd5b823561517b81614abe565b9150602083013561505281615152565b5f6020828403121561519b575f80fd5b81356001600160401b038111156151b0575f80fd5b61095584828501614c61565b5f826101808101835f5b600c8110156151f55783830387526151df838351614b23565b60209788019790935091909101906001016151c6565b509095945050505050565b5f815180845260208085019450602084015f5b838110156150f25781516001600160a01b031687529582019590820190600101615213565b5f8282518085526020808601955060208260051b840101602086015f5b8481101561528357601f19868403018952615271838351614b23565b98840198925090830190600101615255565b5090979650505050505050565b5f828251808552602080860195506005818360051b8501018287015f5b8581101561537257601f19878403018a5281518051604080865281518187018190529091606082891b8801810192918a0191908801905f5b8181101561534357898503605f190183528351858781015f5b600281101561532e578882038352615317828551614b23565b91508f840193508f830192506001810190506152fe565b5096505050928b0192918b01916001016152e5565b5050505091870151858303868901529161535d8184615238565b9c88019c9550505091850191506001016152ad565b509098975050505050505050565b5f815160e0845261539460e08501826151bc565b9050602083015184820360208601526153ad8282614b23565b915050604083015184820360408601526153c78282615200565b915050606083015184820360608601526153e18282615238565b915050608083015184820360808601526153fb8282615200565b91505060a083015184820360a08601526154158282615238565b91505060c083015184820360c086015261542f8282615290565b95945050505050565b5f60208083016020845280855180835260408601915060408160051b8701019250602087015f5b8281101561548d57603f1988860301845261547b858351615380565b9450928501929085019060010161545f565b5092979650505050505050565b602081525f610c506020830184615380565b5f805f606084860312156154be575f80fd5b8335925060208401356001600160401b038111156154da575f80fd5b6154e686828701614c61565b9250506040840135614eea81614abe565b5f8060408385031215615508575f80fd5b823561551381614abe565b9150602083013561505281614abe565b602081525f610c506020830184615200565b5f805f805f8060a0878903121561554a575f80fd5b863561555581614abe565b9550602087013561556581614abe565b9450604087013593506060870135925060808701356001600160401b0381111561558d575f80fd5b61559989828a01614f3c565b979a9699509497509295939492505050565b600181811c908216806155bf57607f821691505b602082108103611df657634e487b7160e01b5f52602260045260245ffd5b7f68747470733a2f2f77696c6c77652e78797a2f6d657461646174612f0000000081525f82518060208501601c85015e5f9201601c0191825250919050565b634e487b7160e01b5f52603260045260245ffd5b634e487b7160e01b5f52601160045260245ffd5b8082028115828204841417610bc857610bc8615630565b634e487b7160e01b5f52601260045260245ffd5b5f8261567d5761567d61565b565b500490565b606081525f6156946060830186615200565b82810360208401526156a681866150c3565b905082810360408401526156ba8185614b23565b9695505050505050565b5f602082840312156156d4575f80fd5b5051919050565b60609390931b6bffffffffffffffffffffffff191683526014830191909152603482015260540190565b80820180821115610bc857610bc8615630565b5f60208284031215615728575f80fd5b8151610c5081614abe565b5f60208284031215615743575f80fd5b8151610c5081615152565b81810381811115610bc857610bc8615630565b5f6001820161577257615772615630565b5060010190565b5f826157875761578761565b565b500690565b5f808585111561579a575f80fd5b838611156157a6575f80fd5b5050820193919092039150565b5f82601f8301126157c2575f80fd5b815160206157d2614c8083614c3f565b8083825260208201915060208460051b8701019350868411156157f3575f80fd5b602086015b84811015614cc257805183529183019183016157f8565b5f82601f83011261581e575f80fd5b815161582c614c8082614ccd565b818152846020838601011115615840575f80fd5b8160208501602083015e5f918101602001919091529392505050565b5f602080838503121561586d575f80fd5b82516001600160401b0380821115615883575f80fd5b9084019060808287031215615896575f80fd5b61589e614be7565b8251828111156158ac575f80fd5b8301601f810188136158bc575f80fd5b80516158ca614c8082614c3f565b81815260059190911b8201860190868101908a8311156158e8575f80fd5b928701925b8284101561590f57835161590081614abe565b825292870192908701906158ed565b84525050508284015182811115615924575f80fd5b615930888286016157b3565b85830152506040830151935081841115615948575f80fd5b6159548785850161580f565b6040820152606083015160608201528094505050505092915050565b6001600160a01b03868116825285166020820152604081018490526060810183905260a0608082018190525f906159a990830184614b23565b979650505050505050565b5f80604083850312156159c5575f80fd5b82516159d081615152565b6020939093015192949293505050565b5f816159ee576159ee615630565b505f19019056fec3d58168c5ae7397731d063d5bbf3d657854427343f4c083240f7aacaa2d0f62a26469706673582212204488e30c0be7df58b88574e93c328a0d5ad44c810a4e9fd1056f45b20db0307364736f6c63430008190033","linkReferences":{}},"methodIdentifiers":{"Will()":"535e9891","allMembersOf(uint256)":"eef2e757","asRootValuation(uint256,uint256)":"7f33d800","balanceOf(address,uint256)":"00fdd58e","balanceOfBatch(address[],uint256[])":"4e1273f4","burn(uint256,uint256)":"b390c0ab","burnPath(uint256,uint256)":"f039a733","calculateUserTargetedPreferenceAmount(uint256,uint256,uint256,address)":"0ffd3910","control(uint256)":"7d11e682","createEndpointForOwner(uint256,address)":"45bbbf84","executionAddress()":"78adc790","getAllNodesForRoot(address,address)":"f87cc6b3","getChildrenOf(uint256)":"99f45689","getFidPath(uint256)":"f6355a56","getMembraneOf(uint256)":"7e44bffe","getNodeData(uint256,address)":"a6bfbc20","getNodes(uint256[])":"a5541c84","getParentOf(uint256)":"13e75206","getUserNodeSignals(address,uint256)":"150d503d","inParentDenomination(uint256,uint256)":"1e9b388d","inflationOf(uint256)":"765063e5","initSelfControl()":"68dc2747","isApprovedForAll(address,address)":"e985e9c5","isMember(address,uint256)":"85752d03","localizeEndpoint(address,uint256,address)":"28ca8e26","membershipEnforce(address,uint256)":"62593f60","membershipID(uint256)":"f77914c3","mint(uint256,uint256)":"1b2ef1ca","mintInflation(uint256)":"67c394fb","mintMembership(uint256)":"0d78d0c1","mintPath(uint256,uint256)":"791ddaf9","name()":"06fdde03","options(bytes32,uint256)":"20f94427","redistribute(uint256)":"a0ce552d","redistributePath(uint256)":"a0762253","resignal(uint256,uint256[],address)":"b29eb75c","safeBatchTransferFrom(address,address,uint256[],uint256[],bytes)":"2eb2c2d6","safeTransferFrom(address,address,uint256,uint256,bytes)":"f242432a","sendSignal(uint256,uint256[])":"5b4a26ed","setApprovalForAll(address,bool)":"a22cb465","setControl(address)":"5ac8260c","spawnNode(uint256)":"bfad25e5","spawnNodeWithMembrane(uint256,address[],uint256[],string,uint256)":"114b6e49","spawnRootNode(address)":"af1b55b0","supportsInterface(bytes4)":"01ffc9a7","symbol()":"95d89b41","taxPolicyPreference(address,uint256)":"1f017841","toAddress(uint256)":"e0051aa9","toID(address)":"0f336348","totalSupply(uint256)":"bd85b039","uri(uint256)":"0e89341c"},"storageLayout":{"storage":[{"astId":53846,"contract":"src/WillWe.sol:WillWe","label":"entityCount","offset":0,"slot":"0","type":"t_uint256"},{"astId":53848,"contract":"src/WillWe.sol:WillWe","label":"executionAddress","offset":0,"slot":"1","type":"t_address"},{"astId":53850,"contract":"src/WillWe.sol:WillWe","label":"Will","offset":0,"slot":"2","type":"t_address"},{"astId":53853,"contract":"src/WillWe.sol:WillWe","label":"M","offset":0,"slot":"3","type":"t_contract(IMembrane)59373"},{"astId":53858,"contract":"src/WillWe.sol:WillWe","label":"totalSupplyOf","offset":0,"slot":"4","type":"t_mapping(t_uint256,t_uint256)"},{"astId":53864,"contract":"src/WillWe.sol:WillWe","label":"childrenOf","offset":0,"slot":"5","type":"t_mapping(t_uint256,t_array(t_uint256)dyn_storage)"},{"astId":53869,"contract":"src/WillWe.sol:WillWe","label":"parentOf","offset":0,"slot":"6","type":"t_mapping(t_uint256,t_uint256)"},{"astId":53876,"contract":"src/WillWe.sol:WillWe","label":"inflSec","offset":0,"slot":"7","type":"t_mapping(t_uint256,t_array(t_uint256)3_storage)"},{"astId":53883,"contract":"src/WillWe.sol:WillWe","label":"inUseMembraneId","offset":0,"slot":"8","type":"t_mapping(t_uint256,t_array(t_uint256)2_storage)"},{"astId":53889,"contract":"src/WillWe.sol:WillWe","label":"members","offset":0,"slot":"9","type":"t_mapping(t_uint256,t_array(t_address)dyn_storage)"},{"astId":53896,"contract":"src/WillWe.sol:WillWe","label":"options","offset":0,"slot":"10","type":"t_mapping(t_bytes32,t_array(t_uint256)3_storage)"},{"astId":53901,"contract":"src/WillWe.sol:WillWe","label":"taxRate","offset":0,"slot":"11","type":"t_mapping(t_address,t_uint256)"},{"astId":53905,"contract":"src/WillWe.sol:WillWe","label":"control","offset":0,"slot":"12","type":"t_array(t_address)2_storage"},{"astId":53907,"contract":"src/WillWe.sol:WillWe","label":"impersonatingAddress","offset":0,"slot":"14","type":"t_address"},{"astId":53909,"contract":"src/WillWe.sol:WillWe","label":"name","offset":0,"slot":"15","type":"t_string_storage"},{"astId":53911,"contract":"src/WillWe.sol:WillWe","label":"symbol","offset":0,"slot":"16","type":"t_string_storage"},{"astId":53913,"contract":"src/WillWe.sol:WillWe","label":"useBefore","offset":0,"slot":"17","type":"t_bool"}],"types":{"t_address":{"encoding":"inplace","label":"address","numberOfBytes":"20"},"t_array(t_address)2_storage":{"encoding":"inplace","label":"address[2]","numberOfBytes":"64","base":"t_address"},"t_array(t_address)dyn_storage":{"encoding":"dynamic_array","label":"address[]","numberOfBytes":"32","base":"t_address"},"t_array(t_uint256)2_storage":{"encoding":"inplace","label":"uint256[2]","numberOfBytes":"64","base":"t_uint256"},"t_array(t_uint256)3_storage":{"encoding":"inplace","label":"uint256[3]","numberOfBytes":"96","base":"t_uint256"},"t_array(t_uint256)dyn_storage":{"encoding":"dynamic_array","label":"uint256[]","numberOfBytes":"32","base":"t_uint256"},"t_bool":{"encoding":"inplace","label":"bool","numberOfBytes":"1"},"t_bytes32":{"encoding":"inplace","label":"bytes32","numberOfBytes":"32"},"t_contract(IMembrane)59373":{"encoding":"inplace","label":"contract IMembrane","numberOfBytes":"20"},"t_mapping(t_address,t_uint256)":{"encoding":"mapping","key":"t_address","label":"mapping(address => uint256)","numberOfBytes":"32","value":"t_uint256"},"t_mapping(t_bytes32,t_array(t_uint256)3_storage)":{"encoding":"mapping","key":"t_bytes32","label":"mapping(bytes32 => uint256[3])","numberOfBytes":"32","value":"t_array(t_uint256)3_storage"},"t_mapping(t_uint256,t_array(t_address)dyn_storage)":{"encoding":"mapping","key":"t_uint256","label":"mapping(uint256 => address[])","numberOfBytes":"32","value":"t_array(t_address)dyn_storage"},"t_mapping(t_uint256,t_array(t_uint256)2_storage)":{"encoding":"mapping","key":"t_uint256","label":"mapping(uint256 => uint256[2])","numberOfBytes":"32","value":"t_array(t_uint256)2_storage"},"t_mapping(t_uint256,t_array(t_uint256)3_storage)":{"encoding":"mapping","key":"t_uint256","label":"mapping(uint256 => uint256[3])","numberOfBytes":"32","value":"t_array(t_uint256)3_storage"},"t_mapping(t_uint256,t_array(t_uint256)dyn_storage)":{"encoding":"mapping","key":"t_uint256","label":"mapping(uint256 => uint256[])","numberOfBytes":"32","value":"t_array(t_uint256)dyn_storage"},"t_mapping(t_uint256,t_uint256)":{"encoding":"mapping","key":"t_uint256","label":"mapping(uint256 => uint256)","numberOfBytes":"32","value":"t_uint256"},"t_string_storage":{"encoding":"bytes","label":"string","numberOfBytes":"32"},"t_uint256":{"encoding":"inplace","label":"uint256","numberOfBytes":"32"}}},"id":69}