{"abi":[{"type":"function","name":"createMembrane","inputs":[{"name":"tokens_","type":"address[]","internalType":"address[]"},{"name":"balances_","type":"uint256[]","internalType":"uint256[]"},{"name":"meta_","type":"string","internalType":"string"}],"outputs":[{"name":"id","type":"uint256","internalType":"uint256"}],"stateMutability":"nonpayable"},{"type":"function","name":"gCheck","inputs":[{"name":"who_","type":"address","internalType":"address"},{"name":"membraneID_","type":"uint256","internalType":"uint256"}],"outputs":[{"name":"s","type":"bool","internalType":"bool"}],"stateMutability":"view"},{"type":"function","name":"getMembraneById","inputs":[{"name":"id_","type":"uint256","internalType":"uint256"}],"outputs":[{"name":"","type":"tuple","internalType":"struct Membrane","components":[{"name":"tokens","type":"address[]","internalType":"address[]"},{"name":"balances","type":"uint256[]","internalType":"uint256[]"},{"name":"meta","type":"string","internalType":"string"}]}],"stateMutability":"view"},{"type":"error","name":"Membrane__EmptyFieldOnMembraneCreation","inputs":[]},{"type":"error","name":"membraneNotFound","inputs":[]}],"bytecode":{"object":"0x608060405234801561001057600080fd5b50610cd9806100206000396000f3fe608060405234801561001057600080fd5b50600436106100415760003560e01c8063333cabc51461004657806389160e0e1461006c578063dd151ad81461008f575b600080fd5b61005961005436600461088d565b6100af565b6040519081526020015b60405180910390f35b61007f61007a366004610970565b6101bf565b6040519015158152602001610063565b6100a261009d36600461099a565b6104f3565b6040516100639190610a34565b600060018251845186516100c39190610adf565b6100cd9190610af3565b10156100ec57604051631ea02bc360e31b815260040160405180910390fd5b61011060405180606001604052806060815260200160608152602001606081525090565b84815260208082018590526040808301859052516001600160b01b039161013991849101610a34565b6040516020818303038152906040528051906020012060001c61015c9190610b18565b600081815260208181526040909120835180519395508493919261018592849290910190610679565b50602082810151805161019e92600185019201906106de565b50604082015160028201906101b39082610bb5565b50905050509392505050565b600081815260208181526040808320815181546080948102820185019093526060810183815285949193849284919084018282801561022757602002820191906000526020600020905b81546001600160a01b03168152600190910190602001808311610209575b505050505081526020016001820180548060200260200160405190810160405280929190818152602001828054801561027f57602002820191906000526020600020905b81548152602001906001019080831161026b575b5050505050815260200160028201805461029890610b2c565b80601f01602080910402602001604051908101604052809291908181526020018280546102c490610b2c565b80156103115780601f106102e657610100808354040283529160200191610311565b820191906000526020600020905b8154815290600101906020018083116102f457829003601f168201915b505050505081525050905060009250600191505b8051518310156104eb578060200151838151811061034557610345610c74565b60200260200101516000148015610383575080518051600091908590811061036f5761036f610c74565b60200260200101516001600160a01b031614155b80156104165750805180518490811061039e5761039e610c74565b60209081029190910101516040516370a0823160e01b81526001600160a01b038681166004830152909116906370a0823190602401602060405180830381865afa1580156103f0573d6000803e3d6000fd5b505050506040513d601f19601f820116820180604052508101906104149190610c8a565b155b610325578180156104cf57508060200151838151811061043857610438610c74565b60200260200101518160000151848151811061045657610456610c74565b60209081029190910101516040516370a0823160e01b81526001600160a01b038781166004830152909116906370a0823190602401602060405180830381865afa1580156104a8573d6000803e3d6000fd5b505050506040513d601f19601f820116820180604052508101906104cc9190610c8a565b10155b9150816104e05760009150506104ed565b826001019250610325565b505b92915050565b61051760405180606001604052806060815260200160608152602001606081525090565b600082815260208181526040918290208251815460809381028201840190945260608101848152909391928492849184018282801561057f57602002820191906000526020600020905b81546001600160a01b03168152600190910190602001808311610561575b50505050508152602001600182018054806020026020016040519081016040528092919081815260200182805480156105d757602002820191906000526020600020905b8154815260200190600101908083116105c3575b505050505081526020016002820180546105f090610b2c565b80601f016020809104026020016040519081016040528092919081815260200182805461061c90610b2c565b80156106695780601f1061063e57610100808354040283529160200191610669565b820191906000526020600020905b81548152906001019060200180831161064c57829003601f168201915b5050505050815250509050919050565b8280548282559060005260206000209081019282156106ce579160200282015b828111156106ce57825182546001600160a01b0319166001600160a01b03909116178255602090920191600190910190610699565b506106da929150610719565b5090565b8280548282559060005260206000209081019282156106ce579160200282015b828111156106ce5782518255916020019190600101906106fe565b5b808211156106da576000815560010161071a565b634e487b7160e01b600052604160045260246000fd5b604051601f8201601f191681016001600160401b038111828210171561076c5761076c61072e565b604052919050565b60006001600160401b0382111561078d5761078d61072e565b5060051b60200190565b80356001600160a01b03811681146107ae57600080fd5b919050565b600082601f8301126107c457600080fd5b813560206107d96107d483610774565b610744565b82815260059290921b840181019181810190868411156107f857600080fd5b8286015b8481101561081357803583529183019183016107fc565b509695505050505050565b600082601f83011261082f57600080fd5b81356001600160401b038111156108485761084861072e565b61085b601f8201601f1916602001610744565b81815284602083860101111561087057600080fd5b816020850160208301376000918101602001919091529392505050565b6000806000606084860312156108a257600080fd5b83356001600160401b03808211156108b957600080fd5b818601915086601f8301126108cd57600080fd5b813560206108dd6107d483610774565b82815260059290921b8401810191818101908a8411156108fc57600080fd5b948201945b838610156109215761091286610797565b82529482019490820190610901565b9750508701359250508082111561093757600080fd5b610943878388016107b3565b9350604086013591508082111561095957600080fd5b506109668682870161081e565b9150509250925092565b6000806040838503121561098357600080fd5b61098c83610797565b946020939093013593505050565b6000602082840312156109ac57600080fd5b5035919050565b600081518084526020808501945080840160005b838110156109e3578151875295820195908201906001016109c7565b509495945050505050565b6000815180845260005b81811015610a14576020818501810151868301820152016109f8565b506000602082860101526020601f19601f83011685010191505092915050565b6020808252825160608383015280516080840181905260009291820190839060a08601905b80831015610a825783516001600160a01b03168252928401926001929092019190840190610a59565b50838701519350601f19925082868203016040870152610aa281856109b3565b93505050604085015181858403016060860152610abf83826109ee565b9695505050505050565b634e487b7160e01b600052601260045260246000fd5b600082610aee57610aee610ac9565b500490565b80820281158282048414176104ed57634e487b7160e01b600052601160045260246000fd5b600082610b2757610b27610ac9565b500690565b600181811c90821680610b4057607f821691505b602082108103610b6057634e487b7160e01b600052602260045260246000fd5b50919050565b601f821115610bb057600081815260208120601f850160051c81016020861015610b8d5750805b601f850160051c820191505b81811015610bac57828155600101610b99565b5050505b505050565b81516001600160401b03811115610bce57610bce61072e565b610be281610bdc8454610b2c565b84610b66565b602080601f831160018114610c175760008415610bff5750858301515b600019600386901b1c1916600185901b178555610bac565b600085815260208120601f198616915b82811015610c4657888601518255948401946001909101908401610c27565b5085821015610c645787850151600019600388901b60f8161c191681555b5050505050600190811b01905550565b634e487b7160e01b600052603260045260246000fd5b600060208284031215610c9c57600080fd5b505191905056fea26469706673582212209ab315512c934078e7248978c4746fef2444c634f1cfe72a7699c8488ea077a364736f6c63430008140033","linkReferences":{}},"methodIdentifiers":{"createMembrane(address[],uint256[],string)":"333cabc5","gCheck(address,uint256)":"89160e0e","getMembraneById(uint256)":"dd151ad8"},"storageLayout":{"storage":[{"astId":57474,"contract":"src/Membranes.sol:Membranes","label":"membraneById","offset":0,"slot":"0","type":"t_mapping(t_uint256,t_struct(Membrane)59844_storage)"}],"types":{"t_address":{"encoding":"inplace","label":"address","numberOfBytes":"20"},"t_array(t_address)dyn_storage":{"encoding":"dynamic_array","label":"address[]","numberOfBytes":"32","base":"t_address"},"t_array(t_uint256)dyn_storage":{"encoding":"dynamic_array","label":"uint256[]","numberOfBytes":"32","base":"t_uint256"},"t_mapping(t_uint256,t_struct(Membrane)59844_storage)":{"encoding":"mapping","key":"t_uint256","label":"mapping(uint256 => struct Membrane)","numberOfBytes":"32","value":"t_struct(Membrane)59844_storage"},"t_string_storage":{"encoding":"bytes","label":"string","numberOfBytes":"32"},"t_struct(Membrane)59844_storage":{"encoding":"inplace","label":"struct Membrane","numberOfBytes":"96","members":[{"astId":59838,"contract":"src/Membranes.sol:Membranes","label":"tokens","offset":0,"slot":"0","type":"t_array(t_address)dyn_storage"},{"astId":59841,"contract":"src/Membranes.sol:Membranes","label":"balances","offset":0,"slot":"1","type":"t_array(t_uint256)dyn_storage"},{"astId":59843,"contract":"src/Membranes.sol:Membranes","label":"meta","offset":0,"slot":"2","type":"t_string_storage"}]},"t_uint256":{"encoding":"inplace","label":"uint256","numberOfBytes":"32"}}},"id":56}