{"abi":[{"type":"constructor","inputs":[{"name":"Execution","type":"address","internalType":"address"},{"name":"Membrane","type":"address","internalType":"address"}],"stateMutability":"nonpayable"},{"type":"function","name":"RVT","inputs":[],"outputs":[{"name":"","type":"address","internalType":"address"}],"stateMutability":"view"},{"type":"function","name":"allMembersOf","inputs":[{"name":"fid_","type":"uint256","internalType":"uint256"}],"outputs":[{"name":"","type":"address[]","internalType":"address[]"}],"stateMutability":"view"},{"type":"function","name":"balanceOf","inputs":[{"name":"account","type":"address","internalType":"address"},{"name":"id","type":"uint256","internalType":"uint256"}],"outputs":[{"name":"","type":"uint256","internalType":"uint256"}],"stateMutability":"view"},{"type":"function","name":"balanceOfBatch","inputs":[{"name":"accounts","type":"address[]","internalType":"address[]"},{"name":"ids","type":"uint256[]","internalType":"uint256[]"}],"outputs":[{"name":"","type":"uint256[]","internalType":"uint256[]"}],"stateMutability":"view"},{"type":"function","name":"burn","inputs":[{"name":"fid_","type":"uint256","internalType":"uint256"},{"name":"amount_","type":"uint256","internalType":"uint256"}],"outputs":[],"stateMutability":"nonpayable"},{"type":"function","name":"control","inputs":[{"name":"","type":"uint256","internalType":"uint256"}],"outputs":[{"name":"","type":"address","internalType":"address"}],"stateMutability":"view"},{"type":"function","name":"createEndpointForOwner","inputs":[{"name":"nodeId_","type":"uint256","internalType":"uint256"},{"name":"owner","type":"address","internalType":"address"}],"outputs":[{"name":"endpoint","type":"address","internalType":"address"}],"stateMutability":"nonpayable"},{"type":"function","name":"entityCount","inputs":[],"outputs":[{"name":"","type":"uint256","internalType":"uint256"}],"stateMutability":"view"},{"type":"function","name":"executeQueue","inputs":[{"name":"SignatureQueueHash_","type":"bytes32","internalType":"bytes32"}],"outputs":[{"name":"s","type":"bool","internalType":"bool"}],"stateMutability":"nonpayable"},{"type":"function","name":"executionAddress","inputs":[],"outputs":[{"name":"","type":"address","internalType":"address"}],"stateMutability":"view"},{"type":"function","name":"gasMultiplier","inputs":[{"name":"sender","type":"address","internalType":"address"},{"name":"multiplier_","type":"uint256","internalType":"uint256"}],"outputs":[],"stateMutability":"nonpayable"},{"type":"function","name":"getChildrenOf","inputs":[{"name":"fid_","type":"uint256","internalType":"uint256"}],"outputs":[{"name":"","type":"uint256[]","internalType":"uint256[]"}],"stateMutability":"view"},{"type":"function","name":"getFidPath","inputs":[{"name":"fid_","type":"uint256","internalType":"uint256"}],"outputs":[{"name":"fids","type":"uint256[]","internalType":"uint256[]"}],"stateMutability":"view"},{"type":"function","name":"getMembraneOf","inputs":[{"name":"fid_","type":"uint256","internalType":"uint256"}],"outputs":[{"name":"","type":"uint256","internalType":"uint256"}],"stateMutability":"view"},{"type":"function","name":"getParentOf","inputs":[{"name":"fid_","type":"uint256","internalType":"uint256"}],"outputs":[{"name":"","type":"uint256","internalType":"uint256"}],"stateMutability":"view"},{"type":"function","name":"getSigQueue","inputs":[{"name":"hash_","type":"bytes32","internalType":"bytes32"}],"outputs":[{"name":"","type":"tuple","internalType":"struct SignatureQueue","components":[{"name":"state","type":"uint8","internalType":"enum SQState"},{"name":"Action","type":"tuple","internalType":"struct Movement","components":[{"name":"category","type":"uint8","internalType":"enum MovementType"},{"name":"initiatior","type":"address","internalType":"address"},{"name":"exeAccount","type":"address","internalType":"address"},{"name":"viaNode","type":"uint256","internalType":"uint256"},{"name":"expiresAt","type":"uint256","internalType":"uint256"},{"name":"descriptionHash","type":"bytes32","internalType":"bytes32"},{"name":"txData","type":"tuple","internalType":"struct SafeTx","components":[{"name":"to","type":"address","internalType":"address"},{"name":"value","type":"uint256","internalType":"uint256"},{"name":"data","type":"bytes","internalType":"bytes"},{"name":"operation","type":"uint8","internalType":"uint8"},{"name":"safeTxGas","type":"uint256","internalType":"uint256"},{"name":"baseGas","type":"uint256","internalType":"uint256"},{"name":"gasPrice","type":"uint256","internalType":"uint256"},{"name":"gasToken","type":"address","internalType":"address"},{"name":"refundReceiver","type":"address","internalType":"address"}]}]},{"name":"Signers","type":"address[]","internalType":"address[]"},{"name":"Sigs","type":"bytes[]","internalType":"bytes[]"},{"name":"exeSig","type":"bytes32","internalType":"bytes32"}]}],"stateMutability":"view"},{"type":"function","name":"getUserInteractions","inputs":[{"name":"user_","type":"address","internalType":"address"}],"outputs":[{"name":"activeBalances","type":"uint256[][2]","internalType":"uint256[][2]"}],"stateMutability":"view"},{"type":"function","name":"inflationOf","inputs":[{"name":"nodeId","type":"uint256","internalType":"uint256"}],"outputs":[{"name":"","type":"uint256","internalType":"uint256"}],"stateMutability":"view"},{"type":"function","name":"isApprovedForAll","inputs":[{"name":"account","type":"address","internalType":"address"},{"name":"operator","type":"address","internalType":"address"}],"outputs":[{"name":"","type":"bool","internalType":"bool"}],"stateMutability":"view"},{"type":"function","name":"isMember","inputs":[{"name":"whoabout_","type":"address","internalType":"address"},{"name":"whereabout_","type":"uint256","internalType":"uint256"}],"outputs":[{"name":"","type":"bool","internalType":"bool"}],"stateMutability":"view"},{"type":"function","name":"isQueueValid","inputs":[{"name":"sigHash","type":"bytes32","internalType":"bytes32"}],"outputs":[{"name":"","type":"bool","internalType":"bool"}],"stateMutability":"view"},{"type":"function","name":"isValidSignature","inputs":[{"name":"_hash","type":"bytes32","internalType":"bytes32"},{"name":"_signature","type":"bytes","internalType":"bytes"}],"outputs":[{"name":"","type":"bytes4","internalType":"bytes4"}],"stateMutability":"view"},{"type":"function","name":"localizeEndpoint","inputs":[{"name":"endpoint_","type":"address","internalType":"address"},{"name":"endpointParent_","type":"uint256","internalType":"uint256"},{"name":"endpointOwner_","type":"address","internalType":"address"}],"outputs":[],"stateMutability":"nonpayable"},{"type":"function","name":"membershipEnforce","inputs":[{"name":"target","type":"address","internalType":"address"},{"name":"fid_","type":"uint256","internalType":"uint256"}],"outputs":[{"name":"s","type":"bool","internalType":"bool"}],"stateMutability":"nonpayable"},{"type":"function","name":"membershipID","inputs":[{"name":"fid_","type":"uint256","internalType":"uint256"}],"outputs":[{"name":"","type":"uint256","internalType":"uint256"}],"stateMutability":"pure"},{"type":"function","name":"mint","inputs":[{"name":"fid_","type":"uint256","internalType":"uint256"},{"name":"amount_","type":"uint256","internalType":"uint256"}],"outputs":[],"stateMutability":"nonpayable"},{"type":"function","name":"mintInflation","inputs":[{"name":"node","type":"uint256","internalType":"uint256"}],"outputs":[{"name":"amount","type":"uint256","internalType":"uint256"}],"stateMutability":"nonpayable"},{"type":"function","name":"mintMembership","inputs":[{"name":"fid_","type":"uint256","internalType":"uint256"},{"name":"to_","type":"address","internalType":"address"}],"outputs":[],"stateMutability":"nonpayable"},{"type":"function","name":"proposeMovement","inputs":[{"name":"typeOfMovement","type":"uint256","internalType":"uint256"},{"name":"node_","type":"uint256","internalType":"uint256"},{"name":"expiresInDays","type":"uint256","internalType":"uint256"},{"name":"executingAccount","type":"address","internalType":"address"},{"name":"descriptionHash","type":"bytes32","internalType":"bytes32"},{"name":"data","type":"tuple","internalType":"struct SafeTx","components":[{"name":"to","type":"address","internalType":"address"},{"name":"value","type":"uint256","internalType":"uint256"},{"name":"data","type":"bytes","internalType":"bytes"},{"name":"operation","type":"uint8","internalType":"uint8"},{"name":"safeTxGas","type":"uint256","internalType":"uint256"},{"name":"baseGas","type":"uint256","internalType":"uint256"},{"name":"gasPrice","type":"uint256","internalType":"uint256"},{"name":"gasToken","type":"address","internalType":"address"},{"name":"refundReceiver","type":"address","internalType":"address"}]}],"outputs":[{"name":"movementHash","type":"bytes32","internalType":"bytes32"}],"stateMutability":"nonpayable"},{"type":"function","name":"redistribute","inputs":[{"name":"nodeId_","type":"uint256","internalType":"uint256"}],"outputs":[{"name":"distributedAmt","type":"uint256","internalType":"uint256"}],"stateMutability":"nonpayable"},{"type":"function","name":"removeSignature","inputs":[{"name":"sigHash_","type":"bytes32","internalType":"bytes32"},{"name":"index_","type":"uint256","internalType":"uint256"},{"name":"who_","type":"address","internalType":"address"}],"outputs":[],"stateMutability":"nonpayable"},{"type":"function","name":"safeBatchTransferFrom","inputs":[{"name":"from","type":"address","internalType":"address"},{"name":"to","type":"address","internalType":"address"},{"name":"ids","type":"uint256[]","internalType":"uint256[]"},{"name":"amounts","type":"uint256[]","internalType":"uint256[]"},{"name":"data","type":"bytes","internalType":"bytes"}],"outputs":[],"stateMutability":"nonpayable"},{"type":"function","name":"safeTransferFrom","inputs":[{"name":"from","type":"address","internalType":"address"},{"name":"to","type":"address","internalType":"address"},{"name":"id","type":"uint256","internalType":"uint256"},{"name":"amount","type":"uint256","internalType":"uint256"},{"name":"data","type":"bytes","internalType":"bytes"}],"outputs":[],"stateMutability":"nonpayable"},{"type":"function","name":"sendSignal","inputs":[{"name":"targetNode_","type":"uint256","internalType":"uint256"},{"name":"signals","type":"uint256[]","internalType":"uint256[]"}],"outputs":[],"stateMutability":"nonpayable"},{"type":"function","name":"setApprovalForAll","inputs":[{"name":"operator","type":"address","internalType":"address"},{"name":"approved","type":"bool","internalType":"bool"}],"outputs":[],"stateMutability":"nonpayable"},{"type":"function","name":"setControl","inputs":[{"name":"newController","type":"address","internalType":"address"}],"outputs":[],"stateMutability":"nonpayable"},{"type":"function","name":"spawnBranch","inputs":[{"name":"fid_","type":"uint256","internalType":"uint256"}],"outputs":[{"name":"newID","type":"uint256","internalType":"uint256"}],"stateMutability":"nonpayable"},{"type":"function","name":"spawnBranchWithMembrane","inputs":[{"name":"fid_","type":"uint256","internalType":"uint256"},{"name":"membraneID_","type":"uint256","internalType":"uint256"}],"outputs":[{"name":"newID","type":"uint256","internalType":"uint256"}],"stateMutability":"nonpayable"},{"type":"function","name":"spawnRootBranch","inputs":[{"name":"fungible20_","type":"address","internalType":"address"}],"outputs":[{"name":"fID","type":"uint256","internalType":"uint256"}],"stateMutability":"nonpayable"},{"type":"function","name":"submitSignatures","inputs":[{"name":"sigHash","type":"bytes32","internalType":"bytes32"},{"name":"signers","type":"address[]","internalType":"address[]"},{"name":"signatures","type":"bytes[]","internalType":"bytes[]"}],"outputs":[],"stateMutability":"nonpayable"},{"type":"function","name":"supportsInterface","inputs":[{"name":"interfaceId","type":"bytes4","internalType":"bytes4"}],"outputs":[{"name":"","type":"bool","internalType":"bool"}],"stateMutability":"view"},{"type":"function","name":"taxPolicyPreference","inputs":[{"name":"rootToken_","type":"address","internalType":"address"},{"name":"taxRate_","type":"uint256","internalType":"uint256"}],"outputs":[],"stateMutability":"nonpayable"},{"type":"function","name":"toAddress","inputs":[{"name":"x","type":"uint256","internalType":"uint256"}],"outputs":[{"name":"","type":"address","internalType":"address"}],"stateMutability":"view"},{"type":"function","name":"toID","inputs":[{"name":"x","type":"address","internalType":"address"}],"outputs":[{"name":"","type":"uint256","internalType":"uint256"}],"stateMutability":"view"},{"type":"function","name":"totalSupply","inputs":[{"name":"nodeId","type":"uint256","internalType":"uint256"}],"outputs":[{"name":"","type":"uint256","internalType":"uint256"}],"stateMutability":"view"},{"type":"function","name":"totalSupplyOf","inputs":[{"name":"","type":"uint256","internalType":"uint256"}],"outputs":[{"name":"","type":"uint256","internalType":"uint256"}],"stateMutability":"view"},{"type":"function","name":"uri","inputs":[{"name":"id_","type":"uint256","internalType":"uint256"}],"outputs":[{"name":"","type":"string","internalType":"string"}],"stateMutability":"view"},{"type":"event","name":"ApprovalForAll","inputs":[{"name":"account","type":"address","indexed":true,"internalType":"address"},{"name":"operator","type":"address","indexed":true,"internalType":"address"},{"name":"approved","type":"bool","indexed":false,"internalType":"bool"}],"anonymous":false},{"type":"event","name":"TransferBatch","inputs":[{"name":"operator","type":"address","indexed":true,"internalType":"address"},{"name":"from","type":"address","indexed":true,"internalType":"address"},{"name":"to","type":"address","indexed":true,"internalType":"address"},{"name":"ids","type":"uint256[]","indexed":false,"internalType":"uint256[]"},{"name":"values","type":"uint256[]","indexed":false,"internalType":"uint256[]"}],"anonymous":false},{"type":"event","name":"TransferSingle","inputs":[{"name":"operator","type":"address","indexed":true,"internalType":"address"},{"name":"from","type":"address","indexed":true,"internalType":"address"},{"name":"to","type":"address","indexed":true,"internalType":"address"},{"name":"id","type":"uint256","indexed":false,"internalType":"uint256"},{"name":"value","type":"uint256","indexed":false,"internalType":"uint256"}],"anonymous":false},{"type":"event","name":"URI","inputs":[{"name":"value","type":"string","indexed":false,"internalType":"string"},{"name":"id","type":"uint256","indexed":true,"internalType":"uint256"}],"anonymous":false},{"type":"error","name":"AlreadyMember","inputs":[]},{"type":"error","name":"BadLen","inputs":[]},{"type":"error","name":"BaseOrNonFungible","inputs":[]},{"type":"error","name":"BranchAlreadyExists","inputs":[]},{"type":"error","name":"BranchNotFound","inputs":[]},{"type":"error","name":"BurnE20TransferFailed","inputs":[]},{"type":"error","name":"CoreGasTransferFailed","inputs":[]},{"type":"error","name":"EOA","inputs":[]},{"type":"error","name":"ExecutionOnly","inputs":[]},{"type":"error","name":"InsufficientRootBalance","inputs":[]},{"type":"error","name":"MembershipOp","inputs":[]},{"type":"error","name":"MembraneNotFound","inputs":[]},{"type":"error","name":"MintE20TransferFailed","inputs":[]},{"type":"error","name":"No","inputs":[]},{"type":"error","name":"NoControl","inputs":[]},{"type":"error","name":"NoMembership","inputs":[]},{"type":"error","name":"NoSoup","inputs":[]},{"type":"error","name":"Noise","inputs":[]},{"type":"error","name":"NotMember","inputs":[]},{"type":"error","name":"RootExists","inputs":[]},{"type":"error","name":"RootNodeOrNone","inputs":[]},{"type":"error","name":"Unautorised","inputs":[]},{"type":"error","name":"UniniMembrane","inputs":[]},{"type":"error","name":"Unqualified","inputs":[]},{"type":"error","name":"UnregisteredFungible","inputs":[]},{"type":"error","name":"UnsupportedTransfer","inputs":[]}],"bytecode":{"object":"0x60a0604052426080523480156200001557600080fd5b50604051620063c4380380620063c48339810160408190526200003891620002f3565b818181816040518060400160405280601381526020017f68747470733a2f2f626167626f6b2e636f6d2f0000000000000000000000000081525062000083816200026460201b60201c565b50604080518082019091526127108152600260208083018290526000805260109052620000d2917f6e0956cda88cad152e89927e53611735b61a5c762d1428573c6931b0a5efcb019162000276565b50600580546001600160a01b0319166001600160a01b0384169081179091556040805163ee65ef3160e01b8152905163ee65ef31916004808201926020929091908290030181865afa1580156200012d573d6000803e3d6000fd5b505050506040513d601f19601f820116820180604052508101906200015391906200032b565b600680546001600160a01b039283166001600160a01b031991821681179092556011805482163317905560078054938516939091169290921790915560408051636da3c05f60e11b8152905163db4780be9160048082019260009290919082900301818387803b158015620001c757600080fd5b505af1158015620001dc573d6000803e3d6000fd5b5050600580546001600160a01b0319166001600160a01b03881690811790915560405163a0017a7d60e01b815230600482015290945063a0017a7d93506024019150620002269050565b600060405180830381600087803b1580156200024157600080fd5b505af115801562000256573d6000803e3d6000fd5b5050505050505050620004c1565b6002620002728282620003f5565b5050565b8260028101928215620002ad579160200282015b82811115620002ad578251829061ffff169055916020019190600101906200028a565b50620002bb929150620002bf565b5090565b5b80821115620002bb5760008155600101620002c0565b80516001600160a01b0381168114620002ee57600080fd5b919050565b600080604083850312156200030757600080fd5b6200031283620002d6565b91506200032260208401620002d6565b90509250929050565b6000602082840312156200033e57600080fd5b6200034982620002d6565b9392505050565b634e487b7160e01b600052604160045260246000fd5b600181811c908216806200037b57607f821691505b6020821081036200039c57634e487b7160e01b600052602260045260246000fd5b50919050565b601f821115620003f057600081815260208120601f850160051c81016020861015620003cb5750805b601f850160051c820191505b81811015620003ec57828155600101620003d7565b5050505b505050565b81516001600160401b0381111562000411576200041162000350565b620004298162000422845462000366565b84620003a2565b602080601f831160018114620004615760008415620004485750858301515b600019600386901b1c1916600185901b178555620003ec565b600085815260208120601f198616915b82811015620004925788860151825594840194600190910190840162000471565b5085821015620004b15787850151600019600388901b60f8161c191681555b5050505050600190811b01905550565b608051615eea620004da60003960005050615eea6000f3fe608060405234801561001057600080fd5b50600436106102545760003560e01c806378adc79011610147578063baa38e64116100be578063baa38e64146105bf578063bd85b039146105d2578063d3c9998b146105f2578063e0051aa914610605578063e1583e5f14610618578063e7dd311714610638578063e985e9c51461064b578063eb3b396314610687578063eef2e7571461069a578063f242432a146106ba578063f6355a56146106cd578063f77914c3146106e057600080fd5b806378adc790146104d85780637d11e682146104eb5780637e44bffe146104fe57806381ddb01f1461051157806383ac8dcd1461052457806384a0a8c41461053757806385752d0314610540578063951181541461055357806399f4568914610573578063a0ce552d14610586578063a22cb46514610599578063b390c0ab146105ac57600080fd5b8063420f1213116101db578063420f1213146103c257806345bbbf84146103d55780634e1273f41461040057806351d42f74146104205780635831122a146104335780635ac8260c146104465780635b4a26ed1461045957806362593f601461046c57806367c394fb1461047f5780636fa3b2f51461049257806375b0d9cd146104a5578063765063e5146104c557600080fd5b8062fdd58e1461025957806301ffc9a71461027f5780630e89341c146102a25780630f3363481461030257806313e75206146103155780631626ba7e146103355780631b2ef1ca146103615780631edd0d5b146103765780631f0178411461038957806328ca8e261461039c5780632eb2c2d6146103af575b600080fd5b61026c610267366004614967565b6106f3565b6040519081526020015b60405180910390f35b61029261028d3660046149a9565b61078c565b6040519015158152602001610276565b6102f56102b03660046149c6565b604080517f68747470733a2f2f626167626f6b2e636f6d2f6e6f64652d6d6574612f0000006020820152603d8082019390935281518082039093018352605d01905290565b6040516102769190614a2f565b61026c610310366004614a42565b6107dc565b61026c6103233660046149c6565b6000908152600a602052604090205490565b610348610343366004614bb6565b6107e8565b6040516001600160e01b03199091168152602001610276565b61037461036f366004614bfc565b610863565b005b6102926103843660046149c6565b610b21565b610374610397366004614967565b610b91565b6103746103aa366004614c1e565b610be6565b6103746103bd366004614cf4565b610c49565b6103746103d0366004614da1565b610c95565b6103e86103e3366004614da1565b610eb4565b6040516001600160a01b039091168152602001610276565b61041361040e366004614e40565b610f42565b6040516102769190614ed4565b61026c61042e366004614a42565b61106b565b610374610441366004614ee7565b611380565b610374610454366004614a42565b6113eb565b610374610467366004614fd2565b6114ab565b61029261047a366004614967565b612570565b61026c61048d3660046149c6565b612676565b6006546103e8906001600160a01b031681565b61026c6104b33660046149c6565b60086020526000908152604090205481565b61026c6104d33660046149c6565b6126fa565b6005546103e8906001600160a01b031681565b6103e86104f93660046149c6565b612712565b61026c61050c3660046149c6565b612732565b61037461051f366004614967565b612746565b61026c610532366004614bfc565b61279b565b61026c60045481565b61029261054e366004614967565b612b18565b6105666105613660046149c6565b612b36565b6040516102769190615155565b6104136105813660046149c6565b612baf565b61026c6105943660046149c6565b612c11565b6103746105a7366004615262565b612dc0565b6103746105ba366004614bfc565b612dcb565b61026c6105cd3660046149c6565b612e04565b61026c6105e03660046149c6565b60009081526008602052604090205490565b61026c6106003660046152aa565b612f6c565b6103e86106133660046149c6565b613283565b61062b610626366004614a42565b6132a1565b60405161027691906153c0565b6102926106463660046149c6565b6133c4565b61029261065936600461540d565b6001600160a01b03918216600090815260016020908152604080832093909416825291909152205460ff1690565b61037461069536600461543b565b61340e565b6106ad6106a83660046149c6565b61344e565b6040516102769190615469565b6103746106c836600461547c565b6134ca565b6104136106db3660046149c6565b61350f565b61026c6106ee3660046149c6565b6135f8565b60006001600160a01b0383166107635760405162461bcd60e51b815260206004820152602a60248201527f455243313135353a2061646472657373207a65726f206973206e6f742061207660448201526930b634b21037bbb732b960b11b60648201526084015b60405180910390fd5b506000818152602081815260408083206001600160a01b03861684529091529020545b92915050565b60006001600160e01b03198216636cdb3d1360e11b14806107bd57506001600160e01b031982166303a24d0760e21b145b8061078657506301ffc9a760e01b6001600160e01b0319831614610786565b6001600160a01b031690565b600554604051630b135d3f60e11b81526000916001600160a01b031690631626ba7e9061081b90869086906004016154e4565b602060405180830381865afa158015610838573d6000803e3d6000fd5b505050506040513d601f19601f8201168201806040525081019061085c9190615505565b9392505050565b6012546011546001600160a01b03908116911614801561088d57506006546001600160a01b031615155b6108f0576000828152600a602052604081205490036108bf57604051635f12529560e01b815260040160405180910390fd5b6108ec33838385856040516020016108d8929190615538565b604051602081830303815290604052613621565b5050565b60005a6000848152600a60205260408120549192500361092357604051635f12529560e01b815260040160405180910390fd5b61093c33848486866040516020016108d8929190615538565b60005a90506000601081335b6001600160a01b0316815260208101919091526040016000206001015415610982573360009081526010602052604090206001015461099c565b600080526010602052600080516020615e95833981519152545b90506000816109ab848661556d565b6109b59190615580565b90503a6000670de0b6b3a76400006109cd8385615580565b6109d791906155ad565b6006546040516306e2b0dd60e11b8152600160048201529192506000916001600160a01b0390911690630dc561ba90602401602060405180830381865afa158015610a26573d6000803e3d6000fd5b505050506040513d601f19601f82011682018060405250810190610a4a91906155c1565b9050818111610a6257610a5d81836155ad565b610a7e565b610a6c82826155ad565b610a7e90670de0b6b3a76400006155ad565b91505a600654604051635497be6d60e11b81529197506001600160a01b03169063a92f7cda90610ab6903390309087906004016155da565b6020604051808303816000875af1158015610ad5573d6000803e3d6000fd5b505050506040513d601f19601f82011682018060405250810190610af991906155fe565b610b1657604051630394a78560e31b815260040160405180910390fd5b505050505050505050565b600554604051631edd0d5b60e01b8152600481018390526000916001600160a01b031690631edd0d5b906024016020604051808303816000875af1158015610b6d573d6000803e3d6000fd5b505050506040513d601f19601f8201168201806040525081019061078691906155fe565b6011546001600160a01b0316336001600160a01b031614610bc5576040516385ea10fd60e01b815260040160405180910390fd5b6001600160a01b038216600090815260106020526040812082915b01555050565b6005546001600160a01b03163314610c1157604051630fc714ab60e01b815260040160405180910390fd5b610c23610c1d846107dc565b83613656565b6001600160a01b03811615610c4457610c4481610c3f856107dc565b6136ae565b505050565b6001600160a01b038516331480610c655750610c658533610659565b610c815760405162461bcd60e51b815260040161075a9061561b565b610c8e858585858561373f565b5050505050565b6012546011546001600160a01b039081169116148015610cbf57506006546001600160a01b031615155b610db9576000828152600a60205260408120549003610cf157604051630401a66960e51b815260040160405180910390fd5b610cfb8183612b18565b15610d19576040516340803a5f60e11b815260040160405180910390fd5b6007546001600160a01b03166389160e0e82610d34856135f8565b6040518363ffffffff1660e01b8152600401610d51929190615669565b602060405180830381865afa158015610d6e573d6000803e3d6000fd5b505050506040513d601f19601f82011682018060405250810190610d9291906155fe565b610daf5760405163b2cab42960e01b815260040160405180910390fd5b6108ec81836136ae565b60005a6000848152600a602052604081205491925003610dec57604051630401a66960e51b815260040160405180910390fd5b610df68284612b18565b15610e14576040516340803a5f60e11b815260040160405180910390fd5b6007546001600160a01b03166389160e0e83610e2f866135f8565b6040518363ffffffff1660e01b8152600401610e4c929190615669565b602060405180830381865afa158015610e69573d6000803e3d6000fd5b505050506040513d601f19601f82011682018060405250810190610e8d91906155fe565b610eaa5760405163b2cab42960e01b815260040160405180910390fd5b61093c82846136ae565b6005546000906001600160a01b03166347ac8cb4336040516001600160e01b031960e084901b1681526001600160a01b0391821660048201526024810187905290851660448201526064016020604051808303816000875af1158015610f1e573d6000803e3d6000fd5b505050506040513d601f19601f8201168201806040525081019061085c919061568d565b60608151835114610fa75760405162461bcd60e51b815260206004820152602960248201527f455243313135353a206163636f756e747320616e6420696473206c656e677468604482015268040dad2e6dac2e8c6d60bb1b606482015260840161075a565b600083516001600160401b03811115610fc257610fc2614a5f565b604051908082528060200260200182016040528015610feb578160200160208202803683370190505b50905060005b84518110156110635761103685828151811061100f5761100f615522565b602002602001015185838151811061102957611029615522565b60200260200101516106f3565b82828151811061104857611048615522565b602090810291909101015261105c816156aa565b9050610ff1565b509392505050565b6012546011546000916001600160a01b03918216911614801561109857506006546001600160a01b031615155b61111b57816001600160a01b03163b6000036110c757604051637dc5186f60e01b815260040160405180910390fd5b6110d0826107dc565b6000818152600a602052604090205490915081900361110257604051633293a2cf60e01b815260040160405180910390fd5b61110c8182613656565b61111633826136ae565b919050565b60005a9050826001600160a01b03163b60000361114b57604051637dc5186f60e01b815260040160405180910390fd5b611154836107dc565b6000818152600a602052604090205490925082900361118657604051633293a2cf60e01b815260040160405180910390fd5b6111908283613656565b61119a33836136ae565b60005a90506000601081335b6001600160a01b03168152602081019190915260400160002060010154156111e057336000908152601060205260409020600101546111fa565b600080526010602052600080516020615e95833981519152545b9050600081611209848661556d565b6112139190615580565b90503a6000670de0b6b3a764000061122b8385615580565b61123591906155ad565b6006546040516306e2b0dd60e11b8152600160048201529192506000916001600160a01b0390911690630dc561ba90602401602060405180830381865afa158015611284573d6000803e3d6000fd5b505050506040513d601f19601f820116820180604052508101906112a891906155c1565b90508181116112c0576112bb81836155ad565b6112dc565b6112ca82826155ad565b6112dc90670de0b6b3a76400006155ad565b91505a600654604051635497be6d60e11b81529197506001600160a01b03169063a92f7cda90611314903390309087906004016155da565b6020604051808303816000875af1158015611333573d6000803e3d6000fd5b505050506040513d601f19601f8201168201806040525081019061135791906155fe565b61137457604051630394a78560e31b815260040160405180910390fd5b50505050505050919050565b600554604051632c18891560e11b81526001600160a01b0390911690635831122a906113b4908690869086906004016156c3565b600060405180830381600087803b1580156113ce57600080fd5b505af11580156113e2573d6000803e3d6000fd5b50505050505050565b6011600001546001600160a01b03163314611419576040516330e1d31f60e21b815260040160405180910390fd5b6012546001600160a01b0382811691160361144b57601280546001600160a01b03199081169091556011805490911690555b6001600160a01b0381166011600001546001600160a01b03161461148a57601180546001600160a01b0319166001600160a01b03909216919091179055565b601280546001600160a01b0319166001600160a01b03909216919091179055565b6012546011546001600160a01b0390811691161480156114d557506006546001600160a01b031615155b611d2a576000828152600a60205260409020548290036115085760405163d913883760e01b815260040160405180910390fd5b6115123383612b18565b61152f5760405163148fe22160e11b815260040160405180910390fd5b61153882612676565b506000611544336107dc565b9050600061155233856106f3565b600085815260086020526040902054909150611570612710826155ad565b82101561159057604051639db14b6d60e01b815260040160405180910390fd5b60005b8451811015611d2257600181116119ee578481815181106115b6576115b6615522565b60200260200101516000036115cd57600101611593565b600086858784815181106115e3576115e3615522565b602002602001015160405160200161160e939291909283526020830191909152604082015260600190565b60405160208183030381529060405280519060200120905060008787848151811061163b5761163b615522565b602002602001015160405160200161165d929190918252602082015260400190565b604051602081830303815290604052805190602001209050826000036118815786838151811061168f5761168f615522565b602002602001015192506001600160a01b0380168310156116c357604051631b9103a360e11b815260040160405180910390fd5b600754604051631ba2a35b60e31b8152600481018590526000916001600160a01b03169063dd151ad890602401600060405180830381865afa15801561170d573d6000803e3d6000fd5b505050506040513d6000823e601f3d908101601f1916820160405261173591908101906157b5565b51511161175557604051639cd2c44760e01b815260040160405180910390fd5b6000828152600e602052604081206001015411801561179557506000828152600e60205260409020600101546000898152600c6020526040902060010154105b156117c7576000828152600e6020526040808220548383529082208054919290916117c190849061556d565b90915550505b604080518082018252848152426020808301919091526000858152600e909152919091206117f69160026147dc565b506000818152600e6020526040812080548792906118159084906158cd565b9091555050600088815260086020908152604080832054848452600e90925290912054611843906002615580565b1115611878576000818152600e602090815260408083208381554260019182018190558c8552600c9093529220858155909101555b600092506119e4565b61188a88612676565b5086838151811061189d5761189d615522565b6020908102919091018101516000848152600e90925260408220909450600101541180156118ec57506000828152600e60205260409020600101546000898152600b6020526040902060010154105b1561191e576000828152600e60205260408082205483835290822080549192909161191890849061556d565b90915550505b604080518082018252848152426020808301919091526000858152600e9091529190912061194d9160026147dc565b506000818152600e60205260408120805487929061196c9084906158cd565b9091555050600088815260086020908152604080832054848452600e9092529091205461199a906002615580565b11156119df576000818152600e60205260408120908155426001909101556119c683633b9aca00615580565b6000898152600b60205260409020908155426001909101555b600192505b5050600101611593565b600086815260096020908152604080832080548251818502810185019093528083529192909190830182828015611a4457602002820191906000526020600020905b815481526020019060010190808311611a30575b5050505050905060028651611a59919061556d565b815114611a7957604051631b9103a360e11b815260040160405180910390fd5b6000878152600b602052604081205490868984611a9760028861556d565b81518110611aa757611aa7615522565b6020026020010151604051602001611ad2939291909283526020830191909152604082015260600190565b604051602081830303815290604052805190602001209050878481518110611afc57611afc615522565b6020026020010151600e6000838152602001908152602001600020600060028110611b2957611b29615522565b015414611d1457878481518110611b4257611b42615522565b6020026020010151600e6000838152602001908152602001600020600060028110611b6f57611b6f615522565b0155611b9d83611b8060028761556d565b81518110611b9057611b90615522565b6020026020010151612c11565b50600083611bac60028761556d565b81518110611bbc57611bbc615522565b60200260200101518a604051602001611bdf929190918252602082015260400190565b60408051808303601f1901815291815281516020928301206000858152600e90935281832060010154818452919092205491925010611c1f576000611c42565b6000828152600e602052604080822060010154838352912054611c42919061556d565b6000828152600e60205260408120015560008a8152600b60205260408120670de0b6b3a7640000916127109101548b8881518110611c8257611c82615522565b6020026020010151611c949190615580565b611c9e91906155ad565b87611cb18a670de0b6b3a7640000615580565b611cbb91906155ad565b611cc59190615580565b611ccf91906155ad565b6000838152600e602052604080822060010183905583825281208054909190611cf99084906158cd565b90915550506000818152600e60205260409020429060010155505b836001019350505050611593565b505050505050565b60005a6000848152600a6020526040902054909150839003611d5f5760405163d913883760e01b815260040160405180910390fd5b611d693384612b18565b611d865760405163148fe22160e11b815260040160405180910390fd5b611d8f83612676565b506000611d9b336107dc565b90506000611da933866106f3565b600086815260086020526040902054909150611dc7612710826155ad565b821015611de757604051639db14b6d60e01b815260040160405180910390fd5b60005b855181101561255c576001811161224557858181518110611e0d57611e0d615522565b6020026020010151600003611e2457600101611dea565b60008785888481518110611e3a57611e3a615522565b6020026020010151604051602001611e65939291909283526020830191909152604082015260600190565b604051602081830303815290604052805190602001209050600088888481518110611e9257611e92615522565b6020026020010151604051602001611eb4929190918252602082015260400190565b604051602081830303815290604052805190602001209050826000036120d857878381518110611ee657611ee6615522565b602002602001015192506001600160a01b038016831015611f1a57604051631b9103a360e11b815260040160405180910390fd5b600754604051631ba2a35b60e31b8152600481018590526000916001600160a01b03169063dd151ad890602401600060405180830381865afa158015611f64573d6000803e3d6000fd5b505050506040513d6000823e601f3d908101601f19168201604052611f8c91908101906157b5565b515111611fac57604051639cd2c44760e01b815260040160405180910390fd5b6000828152600e6020526040812060010154118015611fec57506000828152600e602052604090206001015460008a8152600c6020526040902060010154105b1561201e576000828152600e60205260408082205483835290822080549192909161201890849061556d565b90915550505b604080518082018252848152426020808301919091526000858152600e9091529190912061204d9160026147dc565b506000818152600e60205260408120805487929061206c9084906158cd565b9091555050600089815260086020908152604080832054848452600e9092529091205461209a906002615580565b11156120cf576000818152600e602090815260408083208381554260019182018190558d8552600c9093529220858155909101555b6000925061223b565b6120e189612676565b508783815181106120f4576120f4615522565b6020908102919091018101516000848152600e909252604082209094506001015411801561214357506000828152600e602052604090206001015460008a8152600b6020526040902060010154105b15612175576000828152600e60205260408082205483835290822080549192909161216f90849061556d565b90915550505b604080518082018252848152426020808301919091526000858152600e909152919091206121a49160026147dc565b506000818152600e6020526040812080548792906121c39084906158cd565b9091555050600089815260086020908152604080832054848452600e909252909120546121f1906002615580565b1115612236576000818152600e602052604081209081554260019091015561221d83633b9aca00615580565b60008a8152600b60205260409020908155426001909101555b600192505b5050600101611dea565b60008781526009602090815260408083208054825181850281018501909352808352919290919083018282801561229b57602002820191906000526020600020905b815481526020019060010190808311612287575b50505050509050600287516122b0919061556d565b8151146122d057604051631b9103a360e11b815260040160405180910390fd5b6000888152600b602052604081205490868a846122ee60028861556d565b815181106122fe576122fe615522565b6020026020010151604051602001612329939291909283526020830191909152604082015260600190565b60405160208183030381529060405280519060200120905088848151811061235357612353615522565b6020026020010151600e600083815260200190815260200160002060006002811061238057612380615522565b01541461254e5788848151811061239957612399615522565b6020026020010151600e60008381526020019081526020016000206000600281106123c6576123c6615522565b01556123d783611b8060028761556d565b506000836123e660028761556d565b815181106123f6576123f6615522565b60200260200101518b604051602001612419929190918252602082015260400190565b60408051808303601f1901815291815281516020928301206000858152600e9093528183206001015481845291909220549192501061245957600061247c565b6000828152600e60205260408082206001015483835291205461247c919061556d565b6000828152600e60205260408120015560008b8152600b60205260408120670de0b6b3a7640000916127109101548c88815181106124bc576124bc615522565b60200260200101516124ce9190615580565b6124d891906155ad565b876124eb8a670de0b6b3a7640000615580565b6124f591906155ad565b6124ff9190615580565b61250991906155ad565b6000838152600e6020526040808220600101839055838252812080549091906125339084906158cd565b90915550506000818152600e60205260409020429060010155505b836001019350505050611dea565b5050505060005a9050600060108133610948565b600061257c83836106f3565b60011461259c5760405163148fe22160e11b815260040160405180910390fd5b6000828152600d6020526040902054600111156125cc57604051631fb1d3e560e31b815260040160405180910390fd5b6007546001600160a01b03166389160e0e846125e785612732565b6040518363ffffffff1660e01b8152600401612604929190615669565b602060405180830381865afa158015612621573d6000803e3d6000fd5b505050506040513d601f19601f8201168201806040525081019061264591906155fe565b159050801561265a5761265a83836001613930565b336001600160a01b038416036107865761078683836001613930565b6000818152600b602052604081208054600290910154612696904261556d565b6126a09190615580565b9050806000036126af57919050565b6000828152600b6020526040902042906002018190555061111682838385856040516020016108d89291909182526834b7333630ba34b7b760b91b6020830152602982015260490190565b6000818152600b60205260408120815b015492915050565b6011816002811061272257600080fd5b01546001600160a01b0316905081565b6000818152600c602052604081208161270a565b6011546001600160a01b0316336001600160a01b03161461277a576040516385ea10fd60e01b815260040160405180910390fd5b6001600160a01b038216600090815260106020526040902081906001610be0565b6012546011546000916001600160a01b0391821691161480156127c857506006546001600160a01b031615155b61288757600754604051631ba2a35b60e31b8152600481018490526001600160a01b039091169063dd151ad890602401600060405180830381865afa158015612815573d6000803e3d6000fd5b505050506040513d6000823e601f3d908101601f1916820160405261283d91908101906157b5565b515160000361285f576040516378f1f1f960e01b815260040160405180910390fd5b61286883612e04565b6000818152600c60205260409020838155426001909101559050610786565b60005a600754604051631ba2a35b60e31b8152600481018690529192506001600160a01b03169063dd151ad890602401600060405180830381865afa1580156128d4573d6000803e3d6000fd5b505050506040513d6000823e601f3d908101601f191682016040526128fc91908101906157b5565b515160000361291e576040516378f1f1f960e01b815260040160405180910390fd5b61292784612e04565b6000818152600c60205260408120858155426001909101559092505a3360009081526010602052604081206001015491925090156129775733600090815260106020526040902060010154612991565b600080526010602052600080516020615e95833981519152545b90506000816129a0848661556d565b6129aa9190615580565b90503a6000670de0b6b3a76400006129c28385615580565b6129cc91906155ad565b6006546040516306e2b0dd60e11b8152600160048201529192506000916001600160a01b0390911690630dc561ba90602401602060405180830381865afa158015612a1b573d6000803e3d6000fd5b505050506040513d601f19601f82011682018060405250810190612a3f91906155c1565b9050818111612a5757612a5281836155ad565b612a73565b612a6182826155ad565b612a7390670de0b6b3a76400006155ad565b91505a600654604051635497be6d60e11b81529197506001600160a01b03169063a92f7cda90612aab903390309087906004016155da565b6020604051808303816000875af1158015612aca573d6000803e3d6000fd5b505050506040513d601f19601f82011682018060405250810190612aee91906155fe565b612b0b57604051630394a78560e31b815260040160405180910390fd5b5050505050505092915050565b60006001612b2984610267856135f8565b1061078657506001610786565b612b3e614816565b600554604051632544605560e21b8152600481018490526001600160a01b0390911690639511815490602401600060405180830381865afa158015612b87573d6000803e3d6000fd5b505050506040513d6000823e601f3d908101601f191682016040526107869190810190615ae0565b600081815260096020908152604091829020805483518184028101840190945280845260609392830182828015612c0557602002820191906000526020600020905b815481526020019060010190808311612bf1575b50505050509050919050565b6012546011546000916001600160a01b039182169116148015612c3e57506006546001600160a01b031615155b612cf9576000828152600a602052604081205490819003612c7257604051636d9430a960e11b815260040160405180910390fd5b612c7b83612676565b50604080516020808201869052818301849052825180830384018152606090920183528151918101919091206000818152600e90925291902060010154612cc2904261556d565b6000828152600e6020526040902054612cdb9190615580565b9250612cf28483856040516020016108d890615bb2565b5050919050565b60005a6000848152600a6020526040812054919250819003612d2e57604051636d9430a960e11b815260040160405180910390fd5b612d3784612676565b50604080516020808201879052818301849052825180830384018152606090920183528151918101919091206000818152600e90925291902060010154612d7e904261556d565b6000828152600e6020526040902054612d979190615580565b9350612dae8583866040516020016108d890615bb2565b505060005a90506000601081336111a6565b6108ec338383613963565b6000828152600a60205260408120549003612df95760405163bd23392760e01b815260040160405180910390fd5b6108ec338383613930565b6012546011546000916001600160a01b039182169116148015612e3157506006546001600160a01b031615155b612ece576000828152600a60205260408120549003612e6357604051635f12529560e01b815260040160405180910390fd5b612e6d3383612b18565b612e8a5760405163148fe22160e11b815260040160405180910390fd5b6004805460010190819055600083815260096020526040902054612eae428561556d565b612eb8919061556d565b612ec2919061556d565b905061110c8183613656565b60005a6000848152600a602052604081205491925003612f0157604051635f12529560e01b815260040160405180910390fd5b612f0b3384612b18565b612f285760405163148fe22160e11b815260040160405180910390fd5b6004805460010190819055600084815260096020526040902054612f4c428661556d565b612f56919061556d565b612f60919061556d565b91506111908284613656565b6012546011546000916001600160a01b039182169116148015612f9957506006546001600160a01b031615155b613021576005546001600160a01b031663ab024d70338989898989896040518863ffffffff1660e01b8152600401612fd79796959493929190615bcc565b6020604051808303816000875af1158015612ff6573d6000803e3d6000fd5b505050506040513d601f19601f8201168201806040525081019061301a91906155c1565b9050613279565b60005a600554604051630ab024d760e41b81529192506001600160a01b03169063ab024d70906130619033908c908c908c908c908c908c90600401615bcc565b6020604051808303816000875af1158015613080573d6000803e3d6000fd5b505050506040513d601f19601f820116820180604052508101906130a491906155c1565b915060005a3360009081526010602052604081206001015491925090156130dd57336000908152601060205260409020600101546130f7565b600080526010602052600080516020615e95833981519152545b9050600081613106848661556d565b6131109190615580565b90503a6000670de0b6b3a76400006131288385615580565b61313291906155ad565b6006546040516306e2b0dd60e11b8152600160048201529192506000916001600160a01b0390911690630dc561ba90602401602060405180830381865afa158015613181573d6000803e3d6000fd5b505050506040513d601f19601f820116820180604052508101906131a591906155c1565b90508181116131bd576131b881836155ad565b6131d9565b6131c782826155ad565b6131d990670de0b6b3a76400006155ad565b91505a600654604051635497be6d60e11b81529197506001600160a01b03169063a92f7cda90613211903390309087906004016155da565b6020604051808303816000875af1158015613230573d6000803e3d6000fd5b505050506040513d601f19601f8201168201806040525081019061325491906155fe565b61327157604051630394a78560e31b815260040160405180910390fd5b505050505050505b9695505050505050565b60006001600160a01b0382116132995781610786565b600092915050565b6132a961484b565b6001600160a01b0382166000908152600960209081526040918290208054835181840281018401909452808452909183018282801561330757602002820191906000526020600020905b8154815260200190600101908083116132f3575b50505050508160006002811061331f5761331f615522565b60200201528051516001600160401b0381111561333e5761333e614a5f565b604051908082528060200260200182016040528015613367578160200160208202803683370190505b50602082015260005b8151518110156133be57815180516133949185918490811061102957611029615522565b60208301518051839081106133ab576133ab615522565b6020908102919091010152600101613370565b50919050565b60055460405163e7dd311760e01b8152600481018390526000916001600160a01b03169063e7dd311790602401602060405180830381865afa158015610b6d573d6000803e3d6000fd5b60055460405163eb3b396360e01b815260048101859052602481018490526001600160a01b0383811660448301529091169063eb3b3963906064016113b4565b6060600d600061345d846135f8565b8152602001908152602001600020805480602002602001604051908101604052809291908181526020018280548015612c0557602002820191906000526020600020905b81546001600160a01b031681526001909101906020018083116134a15750505050509050919050565b6001600160a01b0385163314806134e657506134e68533610659565b6135025760405162461bcd60e51b815260040161075a9061561b565b610c8e8585858585613a43565b6060600060015b6001811061354057613527826156aa565b6000858152600a60205260409020549092509050613516565b816001600160401b0381111561355857613558614a5f565b604051908082528060200260200182016040528015613581578160200160208202803683370190505b5092505b8251811015612cf2576000848152600a6020526040902054835184906001906135af90859061556d565b6135b9919061556d565b815181106135c9576135c9615522565b6020908102919091018101919091526000948552600a9052604090932054926135f1816156aa565b9050613585565b60006804e1003b28d928000082111561361d57610786678ac7230489e8000083615c1c565b5090565b61362d84848484613b6c565b6000838152600860205260408120805484929061364b9084906158cd565b909155505050505050565b6000828152600a60205260409020819055818114613690576000818152600960209081526040822080546001810182559083529120018290555b6000828152600b60205260409020633b9aca00815542906002610be0565b600d60006136bb836135f8565b8152602080820192909252604001600090812080546001810182559082529190200180546001600160a01b0319166001600160a01b0384161790556108ec82613703836135f8565b6040516001600160601b0319606087901b1660208201526906d656d626572736869760b41b6034820152603e8101859052600190605e016108d8565b81518351146137a15760405162461bcd60e51b815260206004820152602860248201527f455243313135353a2069647320616e6420616d6f756e7473206c656e677468206044820152670dad2e6dac2e8c6d60c31b606482015260840161075a565b6001600160a01b0384166137c75760405162461bcd60e51b815260040161075a90615c30565b336137d6818787878787613c83565b60005b84518110156138bc5760008582815181106137f6576137f6615522565b60200260200101519050600085838151811061381457613814615522565b602090810291909101810151600084815280835260408082206001600160a01b038e1683529093529190912054909150818110156138645760405162461bcd60e51b815260040161075a90615c75565b6000838152602081815260408083206001600160a01b038e8116855292528083208585039055908b168252812080548492906138a19084906158cd565b92505081905550505050806138b5906156aa565b90506137d9565b50846001600160a01b0316866001600160a01b0316826001600160a01b03167f4a39dc06d4c0dbc64b70af90fd698a233a518aa5d07e595d983b8c0526c8f7fb878760405161390c929190615cbf565b60405180910390a4613922818787878787614316565b611d228187878787876143f3565b61393b83838361454e565b6000828152600860205260408120805483929061395990849061556d565b9091555050505050565b816001600160a01b0316836001600160a01b0316036139d65760405162461bcd60e51b815260206004820152602960248201527f455243313135353a2073657474696e6720617070726f76616c20737461747573604482015268103337b91039b2b63360b91b606482015260840161075a565b6001600160a01b03838116600081815260016020908152604080832094871680845294825291829020805460ff191686151590811790915591519182527f17307eab39ab6107e8899845ad3d59bd9653f200f220920489ca2b5937696c31910160405180910390a3505050565b6001600160a01b038416613a695760405162461bcd60e51b815260040161075a90615c30565b336000613a75856146d6565b90506000613a82856146d6565b9050613a92838989858589613c83565b6000868152602081815260408083206001600160a01b038c16845290915290205485811015613ad35760405162461bcd60e51b815260040161075a90615c75565b6000878152602081815260408083206001600160a01b038d8116855292528083208985039055908a16825281208054889290613b109084906158cd565b909155505060408051888152602081018890526001600160a01b03808b16928c82169291881691600080516020615e75833981519152910160405180910390a4613b5e848a8a86868a614316565b610b16848a8a8a8a8a614721565b6001600160a01b038416613bcc5760405162461bcd60e51b815260206004820152602160248201527f455243313135353a206d696e7420746f20746865207a65726f206164647265736044820152607360f81b606482015260840161075a565b336000613bd8856146d6565b90506000613be5856146d6565b9050613bf683600089858589613c83565b6000868152602081815260408083206001600160a01b038b16845290915281208054879290613c269084906158cd565b909155505060408051878152602081018790526001600160a01b03808a169260009291871691600080516020615e75833981519152910160405180910390a4613c7483600089858589614316565b6113e283600089898989614721565b6003546001600160a01b0316611d22576304ed360560e51b6000356001600160e01b0319160115611d22576001600160a01b03851615801590613cce57506001600160a01b03841615155b15613cec5760405163ce2d28e160e01b815260040160405180910390fd5b60005b80845111156113e2576000848281518110613d0c57613d0c615522565b602002602001015190506000848381518110613d2a57613d2a615522565b60200260200101519050678ac7230489e80000821015613e12576000356001600160e01b03191663420f121360e01b141580613d7957506000356001600160e01b031916630312c9fb60e51b14155b80613d9757506000356001600160e01b0319166314750bdd60e21b14155b80613db557506000356001600160e01b0319166383ac8dcd60e01b14155b80613dd357506000356001600160e01b031916632ea8e39960e21b14155b613df057604051630dbd110f60e21b815260040160405180910390fd5b506000908152600d602090815260408083205460089092529091205550611d22565b637268871b60e11b6000356001600160e01b03191601613fb4576000828152600a6020526040902054829003613f4f576000828152600a60205260408120548291600f91613e5f90613283565b6001600160a01b03166001600160a01b0316815260200190815260200160002060008481526020019081526020016000206000828254613e9f91906158cd565b90915550506000828152600a6020526040902054613ebc90613283565b6001600160a01b03166323b872dd3330846040518463ffffffff1660e01b8152600401613eeb939291906155da565b6020604051808303816000875af1158015613f0a573d6000803e3d6000fd5b505050506040513d601f19601f82011682018060405250810190613f2e91906155fe565b613f4a5760405162916a1960e51b815260040160405180910390fd5b613fb4565b613f5882613283565b600380546001600160a01b0319166001600160a01b039290921691821790556000838152600a60209081526040808320548151928301909152918152613fa392339290918590613a43565b600380546001600160a01b03191690555b634c6f3f5560e01b6000356001600160e01b0319160161430c576000828152600a60205260408120548190613fe890613283565b6000858152600a602052604090205490915084900361426e576001600160a01b0381166000908152600f602090815260408083208784529091529020548311156140455760405163d275784f60e01b815260040160405180910390fd5b6001600160a01b0381166000908152600f6020908152604080832087845282528083205460089092529091205461407c9085615580565b61408691906155ad565b9150818310156140a9576040516337b936ed60e11b815260040160405180910390fd5b6001600160a01b0381166000908152600f60209081526040808320878452909152812080548592906140dc90849061556d565b90915550506001600160a01b0381166000908152601060205260408120541561411d576001600160a01b038216600090815260106020526040902054614149565b6000805260106020527f6e0956cda88cad152e89927e53611735b61a5c762d1428573c6931b0a5efcb01545b905061415581846155ad565b9050614161818461556d565b60065460405163a9059cbb60e01b81529194506001600160a01b038085169263a9059cbb926141969216908590600401615669565b6020604051808303816000875af11580156141b5573d6000803e3d6000fd5b505050506040513d601f19601f820116820180604052508101906141d991906155fe565b5060405163a9059cbb60e01b81526001600160a01b0383169063a9059cbb906142089033908790600401615669565b6020604051808303816000875af1158015614227573d6000803e3d6000fd5b505050506040513d601f19601f8201168201806040525081019061424b91906155fe565b61426857604051632ebc317760e21b815260040160405180910390fd5b50614309565b6000848152600a6020908152604080832054835260089091528082205486835291205461429b9085615580565b6142a591906155ad565b91506142b084613283565b600380546001600160a01b0319166001600160a01b039290921691821790556142f890336000878152600a602090815260408083205481519283019091529181528690613a43565b600380546001600160a01b03191690555b50505b5050600101613cef565b6001600160a01b038516611d225760005b80845111156113e257600084828151811061434457614344615522565b6020026020010151866001600160a01b031661436091906158cd565b60008181526009602052604090205490915015801561438757506001600160a01b03861633145b156143ea5760008181526009602090815260408083208054600181018255908452918320909101839055338252902085518690849081106143ca576143ca615522565b602090810291909101810151825460018101845560009384529190922001555b50600101614327565b6001600160a01b0384163b15611d225760405163bc197c8160e01b81526001600160a01b0385169063bc197c81906144379089908990889088908890600401615ce4565b6020604051808303816000875af1925050508015614472575060408051601f3d908101601f1916820190925261446f91810190615505565b60015b61451e5761447e615d42565b806308c379a0036144b75750614492615d5e565b8061449d57506144b9565b8060405162461bcd60e51b815260040161075a9190614a2f565b505b60405162461bcd60e51b815260206004820152603460248201527f455243313135353a207472616e7366657220746f206e6f6e2d455243313135356044820152732932b1b2b4bb32b91034b6b83632b6b2b73a32b960611b606482015260840161075a565b6001600160e01b0319811663bc197c8160e01b146113e25760405162461bcd60e51b815260040161075a90615de7565b6001600160a01b0383166145b05760405162461bcd60e51b815260206004820152602360248201527f455243313135353a206275726e2066726f6d20746865207a65726f206164647260448201526265737360e81b606482015260840161075a565b3360006145bc846146d6565b905060006145c9846146d6565b90506145e983876000858560405180602001604052806000815250613c83565b6000858152602081815260408083206001600160a01b038a168452909152902054848110156146665760405162461bcd60e51b8152602060048201526024808201527f455243313135353a206275726e20616d6f756e7420657863656564732062616c604482015263616e636560e01b606482015260840161075a565b6000868152602081815260408083206001600160a01b038b81168086529184528285208a8703905582518b81529384018a9052909290881691600080516020615e75833981519152910160405180910390a46113e284886000868660405180602001604052806000815250614316565b6040805160018082528183019092526060916000919060208083019080368337019050509050828160008151811061471057614710615522565b602090810291909101015292915050565b6001600160a01b0384163b15611d225760405163f23a6e6160e01b81526001600160a01b0385169063f23a6e61906147659089908990889088908890600401615e2f565b6020604051808303816000875af19250505080156147a0575060408051601f3d908101601f1916820190925261479d91810190615505565b60015b6147ac5761447e615d42565b6001600160e01b0319811663f23a6e6160e01b146113e25760405162461bcd60e51b815260040161075a90615de7565b826002810192821561480a579160200282015b8281111561480a5782518255916020019190600101906147ef565b5061361d929150614872565b6040805160a081019091528060008152602001614831614887565b815260606020820181905260408201819052600091015290565b60405180604001604052806002905b606081526020019060019003908161485a5790505090565b5b8082111561361d5760008155600101614873565b6040805160e08101909152806000815260200160006001600160a01b0316815260200160006001600160a01b0316815260200160008152602001600081526020016000801916815260200161493f60405180610120016040528060006001600160a01b031681526020016000815260200160608152602001600060ff16815260200160008152602001600081526020016000815260200160006001600160a01b0316815260200160006001600160a01b031681525090565b905290565b6001600160a01b038116811461495957600080fd5b50565b803561111681614944565b6000806040838503121561497a57600080fd5b823561498581614944565b946020939093013593505050565b6001600160e01b03198116811461495957600080fd5b6000602082840312156149bb57600080fd5b813561085c81614993565b6000602082840312156149d857600080fd5b5035919050565b60005b838110156149fa5781810151838201526020016149e2565b50506000910152565b60008151808452614a1b8160208601602086016149df565b601f01601f19169290920160200192915050565b60208152600061085c6020830184614a03565b600060208284031215614a5457600080fd5b813561085c81614944565b634e487b7160e01b600052604160045260246000fd5b606081018181106001600160401b0382111715614a9457614a94614a5f565b60405250565b601f8201601f191681016001600160401b0381118282101715614abf57614abf614a5f565b6040525050565b60405161012081016001600160401b0381118282101715614ae957614ae9614a5f565b60405290565b60405160e081016001600160401b0381118282101715614ae957614ae9614a5f565b60405160a081016001600160401b0381118282101715614ae957614ae9614a5f565b60006001600160401b03821115614b4c57614b4c614a5f565b50601f01601f191660200190565b600082601f830112614b6b57600080fd5b8135614b7681614b33565b604051614b838282614a9a565b828152856020848701011115614b9857600080fd5b82602086016020830137600092810160200192909252509392505050565b60008060408385031215614bc957600080fd5b8235915060208301356001600160401b03811115614be657600080fd5b614bf285828601614b5a565b9150509250929050565b60008060408385031215614c0f57600080fd5b50508035926020909101359150565b600080600060608486031215614c3357600080fd5b8335614c3e81614944565b9250602084013591506040840135614c5581614944565b809150509250925092565b60006001600160401b03821115614c7957614c79614a5f565b5060051b60200190565b600082601f830112614c9457600080fd5b81356020614ca182614c60565b604051614cae8282614a9a565b83815260059390931b8501820192828101915086841115614cce57600080fd5b8286015b84811015614ce95780358352918301918301614cd2565b509695505050505050565b600080600080600060a08688031215614d0c57600080fd5b8535614d1781614944565b94506020860135614d2781614944565b935060408601356001600160401b0380821115614d4357600080fd5b614d4f89838a01614c83565b94506060880135915080821115614d6557600080fd5b614d7189838a01614c83565b93506080880135915080821115614d8757600080fd5b50614d9488828901614b5a565b9150509295509295909350565b60008060408385031215614db457600080fd5b823591506020830135614dc681614944565b809150509250929050565b600082601f830112614de257600080fd5b81356020614def82614c60565b604051614dfc8282614a9a565b83815260059390931b8501820192828101915086841115614e1c57600080fd5b8286015b84811015614ce9578035614e3381614944565b8352918301918301614e20565b60008060408385031215614e5357600080fd5b82356001600160401b0380821115614e6a57600080fd5b614e7686838701614dd1565b93506020850135915080821115614e8c57600080fd5b50614bf285828601614c83565b600081518084526020808501945080840160005b83811015614ec957815187529582019590820190600101614ead565b509495945050505050565b60208152600061085c6020830184614e99565b600080600060608486031215614efc57600080fd5b833592506020808501356001600160401b0380821115614f1b57600080fd5b614f2788838901614dd1565b94506040870135915080821115614f3d57600080fd5b818701915087601f830112614f5157600080fd5b8135614f5c81614c60565b604051614f698282614a9a565b82815260059290921b840185019185810191508a831115614f8957600080fd5b8585015b83811015614fc157803585811115614fa55760008081fd5b614fb38d89838a0101614b5a565b845250918601918601614f8d565b508096505050505050509250925092565b60008060408385031215614fe557600080fd5b8235915060208301356001600160401b0381111561500257600080fd5b614bf285828601614c83565b634e487b7160e01b600052602160045260246000fd5b600061012060018060a01b03835116845260208301516020850152604083015181604086015261505682860182614a03565b915050606083015161506d606086018260ff169052565b506080830151608085015260a083015160a085015260c083015160c085015260e08301516150a660e08601826001600160a01b03169052565b50610100928301516001600160a01b03169390920192909252919050565b600081518084526020808501945080840160005b83811015614ec95781516001600160a01b0316875295820195908201906001016150d8565b600082825180855260208086019550808260051b84010181860160005b8481101561514857601f19868403018952615136838351614a03565b9884019892509083019060010161511a565b5090979650505050505050565b60208152600082516005811061516d5761516d61500e565b80602084015250602083015160a060408401528051600381106151925761519261500e565b60c084015260208101516001600160a01b031660e084015260408101516151c56101008501826001600160a01b03169052565b506060810151610120840152608081015161014084015260a081015161016084015260c0015160e06101808401526152016101a0840182615024565b90506040840151601f198085840301606086015261521f83836150c4565b925060608601519150808584030160808601525061523d82826150fd565b915050608084015160a08401528091505092915050565b801515811461495957600080fd5b6000806040838503121561527557600080fd5b823561528081614944565b91506020830135614dc681615254565b60ff8116811461495957600080fd5b803561111681615290565b60008060008060008060c087890312156152c357600080fd5b86359550602087013594506040870135935060608701356152e381614944565b92506080870135915060a08701356001600160401b038082111561530657600080fd5b90880190610120828b03121561531b57600080fd5b615323614ac6565b61532c8361495c565b81526020830135602082015260408301358281111561534a57600080fd5b6153568c828601614b5a565b6040830152506153686060840161529f565b60608201526080830135608082015260a083013560a082015260c083013560c082015261539760e0840161495c565b60e082015261010091506153ac82840161495c565b828201528093505050509295509295509295565b60208082526000906060830183820185845b600281101561540157601f198785030183526153ef848351614e99565b935091840191908401906001016153d2565b50919695505050505050565b6000806040838503121561542057600080fd5b823561542b81614944565b91506020830135614dc681614944565b60008060006060848603121561545057600080fd5b83359250602084013591506040840135614c5581614944565b60208152600061085c60208301846150c4565b600080600080600060a0868803121561549457600080fd5b853561549f81614944565b945060208601356154af81614944565b9350604086013592506060860135915060808601356001600160401b038111156154d857600080fd5b614d9488828901614b5a565b8281526040602082015260006154fd6040830184614a03565b949350505050565b60006020828403121561551757600080fd5b815161085c81614993565b634e487b7160e01b600052603260045260246000fd5b9182526766756e6769626c6560c01b6020830152602882015260480190565b634e487b7160e01b600052601160045260246000fd5b8181038181111561078657610786615557565b808202811582820484141761078657610786615557565b634e487b7160e01b600052601260045260246000fd5b6000826155bc576155bc615597565b500490565b6000602082840312156155d357600080fd5b5051919050565b6001600160a01b039384168152919092166020820152604081019190915260600190565b60006020828403121561561057600080fd5b815161085c81615254565b6020808252602e908201527f455243313135353a2063616c6c6572206973206e6f7420746f6b656e206f776e60408201526d195c881bdc88185c1c1c9bdd995960921b606082015260800190565b6001600160a01b03929092168252602082015260400190565b805161111681614944565b60006020828403121561569f57600080fd5b815161085c81614944565b6000600182016156bc576156bc615557565b5060010190565b8381526060602082015260006156dc60608301856150c4565b828103604084015261327981856150fd565b600082601f8301126156ff57600080fd5b8151602061570c82614c60565b6040516157198282614a9a565b83815260059390931b850182019282810191508684111561573957600080fd5b8286015b84811015614ce957805161575081614944565b835291830191830161573d565b600082601f83011261576e57600080fd5b815161577981614b33565b6040516157868282614a9a565b82815285602084870101111561579b57600080fd5b6157ac8360208301602088016149df565b95945050505050565b600060208083850312156157c857600080fd5b82516001600160401b03808211156157df57600080fd5b90840190606082870312156157f357600080fd5b6040516157ff81614a75565b82518281111561580e57600080fd5b61581a888286016156ee565b825250838301518281111561582e57600080fd5b8301601f8101881361583f57600080fd5b805161584a81614c60565b6040516158578282614a9a565b82815260059290921b830187019187810191508a83111561587757600080fd5b928701925b828410156158955783518252928701929087019061587c565b80888601525050505060408301519350818411156158b257600080fd5b6158be8785850161575d565b60408201529695505050505050565b8082018082111561078657610786615557565b80516005811061111657600080fd5b80516003811061111657600080fd5b805161111681615290565b6000610120828403121561591c57600080fd5b615924614ac6565b905061592f82615682565b81526020820151602082015260408201516001600160401b0381111561595457600080fd5b6159608482850161575d565b604083015250615972606083016158fe565b60608201526080820151608082015260a082015160a082015260c082015160c08201526159a160e08301615682565b60e08201526101006159b4818401615682565b9082015292915050565b600060e082840312156159d057600080fd5b6159d8614aef565b90506159e3826158ef565b81526159f160208301615682565b6020820152615a0260408301615682565b6040820152606082015160608201526080820151608082015260a082015160a082015260c08201516001600160401b03811115615a3e57600080fd5b615a4a84828501615909565b60c08301525092915050565b600082601f830112615a6757600080fd5b81516020615a7482614c60565b604051615a818282614a9a565b83815260059390931b8501820192828101915086841115615aa157600080fd5b8286015b84811015614ce95780516001600160401b03811115615ac45760008081fd5b615ad28986838b010161575d565b845250918301918301615aa5565b600060208284031215615af257600080fd5b81516001600160401b0380821115615b0957600080fd5b9083019060a08286031215615b1d57600080fd5b615b25614b11565b615b2e836158e0565b8152602083015182811115615b4257600080fd5b615b4e878286016159be565b602083015250604083015182811115615b6657600080fd5b615b72878286016156ee565b604083015250606083015182811115615b8a57600080fd5b615b9687828601615a56565b6060830152506080830151608082015280935050505092915050565b6d3932b234b9ba3934b13aba34b7b760911b8152600e0190565b600060018060a01b03808a1683528860208401528760408401528660608401528086166080840152508360a083015260e060c0830152615c0f60e0830184615024565b9998505050505050505050565b600082615c2b57615c2b615597565b500690565b60208082526025908201527f455243313135353a207472616e7366657220746f20746865207a65726f206164604082015264647265737360d81b606082015260800190565b6020808252602a908201527f455243313135353a20696e73756666696369656e742062616c616e636520666f60408201526939103a3930b739b332b960b11b606082015260800190565b604081526000615cd26040830185614e99565b82810360208401526157ac8185614e99565b6001600160a01b0386811682528516602082015260a060408201819052600090615d1090830186614e99565b8281036060840152615d228186614e99565b90508281036080840152615d368185614a03565b98975050505050505050565b600060033d1115615d5b5760046000803e5060005160e01c5b90565b600060443d1015615d6c5790565b6040516003193d81016004833e81513d6001600160401b038160248401118184111715615d9b57505050505090565b8285019150815181811115615db35750505050505090565b843d8701016020828501011115615dcd5750505050505090565b615ddc60208286010187614a9a565b509095945050505050565b60208082526028908201527f455243313135353a204552433131353552656365697665722072656a656374656040820152676420746f6b656e7360c01b606082015260800190565b6001600160a01b03868116825285166020820152604081018490526060810183905260a060808201819052600090615e6990830184614a03565b97965050505050505056fec3d58168c5ae7397731d063d5bbf3d657854427343f4c083240f7aacaa2d0f626e0956cda88cad152e89927e53611735b61a5c762d1428573c6931b0a5efcb02a26469706673582212201ca61484cdd802a4e059015f39959347ed109cd56381c11a3e2edaf57257d6fe64736f6c63430008130033","linkReferences":{}},"methodIdentifiers":{"RVT()":"6fa3b2f5","allMembersOf(uint256)":"eef2e757","balanceOf(address,uint256)":"00fdd58e","balanceOfBatch(address[],uint256[])":"4e1273f4","burn(uint256,uint256)":"b390c0ab","control(uint256)":"7d11e682","createEndpointForOwner(uint256,address)":"45bbbf84","entityCount()":"84a0a8c4","executeQueue(bytes32)":"1edd0d5b","executionAddress()":"78adc790","gasMultiplier(address,uint256)":"81ddb01f","getChildrenOf(uint256)":"99f45689","getFidPath(uint256)":"f6355a56","getMembraneOf(uint256)":"7e44bffe","getParentOf(uint256)":"13e75206","getSigQueue(bytes32)":"95118154","getUserInteractions(address)":"e1583e5f","inflationOf(uint256)":"765063e5","isApprovedForAll(address,address)":"e985e9c5","isMember(address,uint256)":"85752d03","isQueueValid(bytes32)":"e7dd3117","isValidSignature(bytes32,bytes)":"1626ba7e","localizeEndpoint(address,uint256,address)":"28ca8e26","membershipEnforce(address,uint256)":"62593f60","membershipID(uint256)":"f77914c3","mint(uint256,uint256)":"1b2ef1ca","mintInflation(uint256)":"67c394fb","mintMembership(uint256,address)":"420f1213","proposeMovement(uint256,uint256,uint256,address,bytes32,(address,uint256,bytes,uint8,uint256,uint256,uint256,address,address))":"d3c9998b","redistribute(uint256)":"a0ce552d","removeSignature(bytes32,uint256,address)":"eb3b3963","safeBatchTransferFrom(address,address,uint256[],uint256[],bytes)":"2eb2c2d6","safeTransferFrom(address,address,uint256,uint256,bytes)":"f242432a","sendSignal(uint256,uint256[])":"5b4a26ed","setApprovalForAll(address,bool)":"a22cb465","setControl(address)":"5ac8260c","spawnBranch(uint256)":"baa38e64","spawnBranchWithMembrane(uint256,uint256)":"83ac8dcd","spawnRootBranch(address)":"51d42f74","submitSignatures(bytes32,address[],bytes[])":"5831122a","supportsInterface(bytes4)":"01ffc9a7","taxPolicyPreference(address,uint256)":"1f017841","toAddress(uint256)":"e0051aa9","toID(address)":"0f336348","totalSupply(uint256)":"bd85b039","totalSupplyOf(uint256)":"75b0d9cd","uri(uint256)":"0e89341c"},"storageLayout":{"storage":[{"astId":46997,"contract":"src/BagBok.sol:BagBok","label":"_balances","offset":0,"slot":"0","type":"t_mapping(t_uint256,t_mapping(t_address,t_uint256))"},{"astId":47003,"contract":"src/BagBok.sol:BagBok","label":"_operatorApprovals","offset":0,"slot":"1","type":"t_mapping(t_address,t_mapping(t_address,t_bool))"},{"astId":47005,"contract":"src/BagBok.sol:BagBok","label":"_uri","offset":0,"slot":"2","type":"t_string_storage"},{"astId":56368,"contract":"src/BagBok.sol:BagBok","label":"virtualAccount","offset":0,"slot":"3","type":"t_address"},{"astId":56370,"contract":"src/BagBok.sol:BagBok","label":"entityCount","offset":0,"slot":"4","type":"t_uint256"},{"astId":56372,"contract":"src/BagBok.sol:BagBok","label":"executionAddress","offset":0,"slot":"5","type":"t_address"},{"astId":56374,"contract":"src/BagBok.sol:BagBok","label":"RVT","offset":0,"slot":"6","type":"t_address"},{"astId":56377,"contract":"src/BagBok.sol:BagBok","label":"M","offset":0,"slot":"7","type":"t_contract(IMembrane)60720"},{"astId":56382,"contract":"src/BagBok.sol:BagBok","label":"totalSupplyOf","offset":0,"slot":"8","type":"t_mapping(t_uint256,t_uint256)"},{"astId":56388,"contract":"src/BagBok.sol:BagBok","label":"childrenOf","offset":0,"slot":"9","type":"t_mapping(t_uint256,t_array(t_uint256)dyn_storage)"},{"astId":56393,"contract":"src/BagBok.sol:BagBok","label":"parentOf","offset":0,"slot":"10","type":"t_mapping(t_uint256,t_uint256)"},{"astId":56400,"contract":"src/BagBok.sol:BagBok","label":"inflSec","offset":0,"slot":"11","type":"t_mapping(t_uint256,t_array(t_uint256)3_storage)"},{"astId":56407,"contract":"src/BagBok.sol:BagBok","label":"inUseMembraneId","offset":0,"slot":"12","type":"t_mapping(t_uint256,t_array(t_uint256)2_storage)"},{"astId":56413,"contract":"src/BagBok.sol:BagBok","label":"members","offset":0,"slot":"13","type":"t_mapping(t_uint256,t_array(t_address)dyn_storage)"},{"astId":56420,"contract":"src/BagBok.sol:BagBok","label":"options","offset":0,"slot":"14","type":"t_mapping(t_bytes32,t_array(t_uint256)2_storage)"},{"astId":56427,"contract":"src/BagBok.sol:BagBok","label":"E20bvtBalance","offset":0,"slot":"15","type":"t_mapping(t_address,t_mapping(t_uint256,t_uint256))"},{"astId":56434,"contract":"src/BagBok.sol:BagBok","label":"taxAndGas","offset":0,"slot":"16","type":"t_mapping(t_address,t_array(t_uint256)2_storage)"},{"astId":56439,"contract":"src/BagBok.sol:BagBok","label":"control","offset":0,"slot":"17","type":"t_array(t_address)2_storage"}],"types":{"t_address":{"encoding":"inplace","label":"address","numberOfBytes":"20"},"t_array(t_address)2_storage":{"encoding":"inplace","label":"address[2]","numberOfBytes":"64","base":"t_address"},"t_array(t_address)dyn_storage":{"encoding":"dynamic_array","label":"address[]","numberOfBytes":"32","base":"t_address"},"t_array(t_uint256)2_storage":{"encoding":"inplace","label":"uint256[2]","numberOfBytes":"64","base":"t_uint256"},"t_array(t_uint256)3_storage":{"encoding":"inplace","label":"uint256[3]","numberOfBytes":"96","base":"t_uint256"},"t_array(t_uint256)dyn_storage":{"encoding":"dynamic_array","label":"uint256[]","numberOfBytes":"32","base":"t_uint256"},"t_bool":{"encoding":"inplace","label":"bool","numberOfBytes":"1"},"t_bytes32":{"encoding":"inplace","label":"bytes32","numberOfBytes":"32"},"t_contract(IMembrane)60720":{"encoding":"inplace","label":"contract IMembrane","numberOfBytes":"20"},"t_mapping(t_address,t_array(t_uint256)2_storage)":{"encoding":"mapping","key":"t_address","label":"mapping(address => uint256[2])","numberOfBytes":"32","value":"t_array(t_uint256)2_storage"},"t_mapping(t_address,t_bool)":{"encoding":"mapping","key":"t_address","label":"mapping(address => bool)","numberOfBytes":"32","value":"t_bool"},"t_mapping(t_address,t_mapping(t_address,t_bool))":{"encoding":"mapping","key":"t_address","label":"mapping(address => mapping(address => bool))","numberOfBytes":"32","value":"t_mapping(t_address,t_bool)"},"t_mapping(t_address,t_mapping(t_uint256,t_uint256))":{"encoding":"mapping","key":"t_address","label":"mapping(address => mapping(uint256 => uint256))","numberOfBytes":"32","value":"t_mapping(t_uint256,t_uint256)"},"t_mapping(t_address,t_uint256)":{"encoding":"mapping","key":"t_address","label":"mapping(address => uint256)","numberOfBytes":"32","value":"t_uint256"},"t_mapping(t_bytes32,t_array(t_uint256)2_storage)":{"encoding":"mapping","key":"t_bytes32","label":"mapping(bytes32 => uint256[2])","numberOfBytes":"32","value":"t_array(t_uint256)2_storage"},"t_mapping(t_uint256,t_array(t_address)dyn_storage)":{"encoding":"mapping","key":"t_uint256","label":"mapping(uint256 => address[])","numberOfBytes":"32","value":"t_array(t_address)dyn_storage"},"t_mapping(t_uint256,t_array(t_uint256)2_storage)":{"encoding":"mapping","key":"t_uint256","label":"mapping(uint256 => uint256[2])","numberOfBytes":"32","value":"t_array(t_uint256)2_storage"},"t_mapping(t_uint256,t_array(t_uint256)3_storage)":{"encoding":"mapping","key":"t_uint256","label":"mapping(uint256 => uint256[3])","numberOfBytes":"32","value":"t_array(t_uint256)3_storage"},"t_mapping(t_uint256,t_array(t_uint256)dyn_storage)":{"encoding":"mapping","key":"t_uint256","label":"mapping(uint256 => uint256[])","numberOfBytes":"32","value":"t_array(t_uint256)dyn_storage"},"t_mapping(t_uint256,t_mapping(t_address,t_uint256))":{"encoding":"mapping","key":"t_uint256","label":"mapping(uint256 => mapping(address => uint256))","numberOfBytes":"32","value":"t_mapping(t_address,t_uint256)"},"t_mapping(t_uint256,t_uint256)":{"encoding":"mapping","key":"t_uint256","label":"mapping(uint256 => uint256)","numberOfBytes":"32","value":"t_uint256"},"t_string_storage":{"encoding":"bytes","label":"string","numberOfBytes":"32"},"t_uint256":{"encoding":"inplace","label":"uint256","numberOfBytes":"32"}}},"id":52}