{"abi":[{"type":"constructor","inputs":[{"name":"rootValueToken_","type":"address","internalType":"address"}],"stateMutability":"nonpayable"},{"type":"function","name":"BagBok","inputs":[],"outputs":[{"name":"","type":"address","internalType":"contract IFun"}],"stateMutability":"view"},{"type":"function","name":"FoundationAgent","inputs":[],"outputs":[{"name":"","type":"address","internalType":"address"}],"stateMutability":"view"},{"type":"function","name":"RootValueToken","inputs":[],"outputs":[{"name":"","type":"address","internalType":"address"}],"stateMutability":"view"},{"type":"function","name":"createEndpointForOwner","inputs":[{"name":"origin","type":"address","internalType":"address"},{"name":"nodeId_","type":"uint256","internalType":"uint256"},{"name":"owner","type":"address","internalType":"address"}],"outputs":[{"name":"endpoint","type":"address","internalType":"address"}],"stateMutability":"nonpayable"},{"type":"function","name":"endpointOwner","inputs":[{"name":"endpointAddress","type":"address","internalType":"address"}],"outputs":[{"name":"","type":"uint256","internalType":"uint256"}],"stateMutability":"view"},{"type":"function","name":"exeAccountOwner","inputs":[{"name":"exeAcc_","type":"address","internalType":"address"}],"outputs":[{"name":"","type":"uint256","internalType":"uint256"}],"stateMutability":"view"},{"type":"function","name":"executeQueue","inputs":[{"name":"SignatureQueueHash_","type":"bytes32","internalType":"bytes32"}],"outputs":[{"name":"s","type":"bool","internalType":"bool"}],"stateMutability":"nonpayable"},{"type":"function","name":"getSigQueue","inputs":[{"name":"hash_","type":"bytes32","internalType":"bytes32"}],"outputs":[{"name":"","type":"tuple","internalType":"struct SignatureQueue","components":[{"name":"state","type":"uint8","internalType":"enum SQState"},{"name":"Action","type":"tuple","internalType":"struct Movement","components":[{"name":"category","type":"uint8","internalType":"enum MovementType"},{"name":"initiatior","type":"address","internalType":"address"},{"name":"exeAccount","type":"address","internalType":"address"},{"name":"viaNode","type":"uint256","internalType":"uint256"},{"name":"expiresAt","type":"uint256","internalType":"uint256"},{"name":"descriptionHash","type":"bytes32","internalType":"bytes32"},{"name":"txData","type":"tuple","internalType":"struct SafeTx","components":[{"name":"to","type":"address","internalType":"address"},{"name":"value","type":"uint256","internalType":"uint256"},{"name":"data","type":"bytes","internalType":"bytes"},{"name":"operation","type":"uint8","internalType":"uint8"},{"name":"safeTxGas","type":"uint256","internalType":"uint256"},{"name":"baseGas","type":"uint256","internalType":"uint256"},{"name":"gasPrice","type":"uint256","internalType":"uint256"},{"name":"gasToken","type":"address","internalType":"address"},{"name":"refundReceiver","type":"address","internalType":"address"}]}]},{"name":"Signers","type":"address[]","internalType":"address[]"},{"name":"Sigs","type":"bytes[]","internalType":"bytes[]"},{"name":"exeSig","type":"bytes32","internalType":"bytes32"}]}],"stateMutability":"view"},{"type":"function","name":"hashDomain","inputs":[{"name":"domain","type":"tuple","internalType":"struct EIP712Domain","components":[{"name":"name","type":"string","internalType":"string"},{"name":"version","type":"string","internalType":"string"},{"name":"chainId","type":"uint256","internalType":"uint256"},{"name":"verifyingContract","type":"address","internalType":"address"},{"name":"salt","type":"bytes32","internalType":"bytes32"}]}],"outputs":[{"name":"","type":"bytes32","internalType":"bytes32"}],"stateMutability":"pure"},{"type":"function","name":"hashMessage","inputs":[{"name":"movement","type":"tuple","internalType":"struct Movement","components":[{"name":"category","type":"uint8","internalType":"enum MovementType"},{"name":"initiatior","type":"address","internalType":"address"},{"name":"exeAccount","type":"address","internalType":"address"},{"name":"viaNode","type":"uint256","internalType":"uint256"},{"name":"expiresAt","type":"uint256","internalType":"uint256"},{"name":"descriptionHash","type":"bytes32","internalType":"bytes32"},{"name":"txData","type":"tuple","internalType":"struct SafeTx","components":[{"name":"to","type":"address","internalType":"address"},{"name":"value","type":"uint256","internalType":"uint256"},{"name":"data","type":"bytes","internalType":"bytes"},{"name":"operation","type":"uint8","internalType":"uint8"},{"name":"safeTxGas","type":"uint256","internalType":"uint256"},{"name":"baseGas","type":"uint256","internalType":"uint256"},{"name":"gasPrice","type":"uint256","internalType":"uint256"},{"name":"gasToken","type":"address","internalType":"address"},{"name":"refundReceiver","type":"address","internalType":"address"}]}]}],"outputs":[{"name":"","type":"bytes32","internalType":"bytes32"}],"stateMutability":"pure"},{"type":"function","name":"isQueueValid","inputs":[{"name":"sigHash","type":"bytes32","internalType":"bytes32"}],"outputs":[{"name":"","type":"bool","internalType":"bool"}],"stateMutability":"view"},{"type":"function","name":"isValidSignature","inputs":[{"name":"_hash","type":"bytes32","internalType":"bytes32"},{"name":"_signature","type":"bytes","internalType":"bytes"}],"outputs":[{"name":"","type":"bytes4","internalType":"bytes4"}],"stateMutability":"view"},{"type":"function","name":"isValidSignature","inputs":[{"name":"a","type":"bytes","internalType":"bytes"},{"name":"b","type":"bytes","internalType":"bytes"}],"outputs":[{"name":"","type":"bytes4","internalType":"bytes4"}],"stateMutability":"view"},{"type":"function","name":"onERC1155BatchReceived","inputs":[{"name":"operator","type":"address","internalType":"address"},{"name":"from","type":"address","internalType":"address"},{"name":"ids","type":"uint256[]","internalType":"uint256[]"},{"name":"values","type":"uint256[]","internalType":"uint256[]"},{"name":"data","type":"bytes","internalType":"bytes"}],"outputs":[{"name":"","type":"bytes4","internalType":"bytes4"}],"stateMutability":"nonpayable"},{"type":"function","name":"onERC1155Received","inputs":[{"name":"operator","type":"address","internalType":"address"},{"name":"from","type":"address","internalType":"address"},{"name":"id","type":"uint256","internalType":"uint256"},{"name":"value","type":"uint256","internalType":"uint256"},{"name":"data","type":"bytes","internalType":"bytes"}],"outputs":[{"name":"","type":"bytes4","internalType":"bytes4"}],"stateMutability":"nonpayable"},{"type":"function","name":"proposeMovement","inputs":[{"name":"origin","type":"address","internalType":"address"},{"name":"typeOfMovement","type":"uint256","internalType":"uint256"},{"name":"node_","type":"uint256","internalType":"uint256"},{"name":"expiresInDays","type":"uint256","internalType":"uint256"},{"name":"executingAccount","type":"address","internalType":"address"},{"name":"descriptionHash","type":"bytes32","internalType":"bytes32"},{"name":"data","type":"tuple","internalType":"struct SafeTx","components":[{"name":"to","type":"address","internalType":"address"},{"name":"value","type":"uint256","internalType":"uint256"},{"name":"data","type":"bytes","internalType":"bytes"},{"name":"operation","type":"uint8","internalType":"uint8"},{"name":"safeTxGas","type":"uint256","internalType":"uint256"},{"name":"baseGas","type":"uint256","internalType":"uint256"},{"name":"gasPrice","type":"uint256","internalType":"uint256"},{"name":"gasToken","type":"address","internalType":"address"},{"name":"refundReceiver","type":"address","internalType":"address"}]}],"outputs":[{"name":"movementHash","type":"bytes32","internalType":"bytes32"}],"stateMutability":"nonpayable"},{"type":"function","name":"removeLatentAction","inputs":[{"name":"actionHash_","type":"bytes32","internalType":"bytes32"},{"name":"index","type":"uint256","internalType":"uint256"}],"outputs":[],"stateMutability":"nonpayable"},{"type":"function","name":"removeSignature","inputs":[{"name":"sigHash_","type":"bytes32","internalType":"bytes32"},{"name":"index_","type":"uint256","internalType":"uint256"},{"name":"who_","type":"address","internalType":"address"}],"outputs":[],"stateMutability":"nonpayable"},{"type":"function","name":"setBagBook","inputs":[{"name":"bb_","type":"address","internalType":"address"}],"outputs":[],"stateMutability":"nonpayable"},{"type":"function","name":"setFoundationAgent","inputs":[{"name":"baseNodeId_","type":"uint256","internalType":"uint256"}],"outputs":[],"stateMutability":"nonpayable"},{"type":"function","name":"submitSignatures","inputs":[{"name":"sigHash","type":"bytes32","internalType":"bytes32"},{"name":"signers","type":"address[]","internalType":"address[]"},{"name":"signatures","type":"bytes[]","internalType":"bytes[]"}],"outputs":[],"stateMutability":"nonpayable"},{"type":"function","name":"supportsInterface","inputs":[{"name":"interfaceID","type":"bytes4","internalType":"bytes4"}],"outputs":[{"name":"","type":"bool","internalType":"bool"}],"stateMutability":"view"},{"type":"function","name":"verifyMessage","inputs":[{"name":"movement","type":"tuple","internalType":"struct Movement","components":[{"name":"category","type":"uint8","internalType":"enum MovementType"},{"name":"initiatior","type":"address","internalType":"address"},{"name":"exeAccount","type":"address","internalType":"address"},{"name":"viaNode","type":"uint256","internalType":"uint256"},{"name":"expiresAt","type":"uint256","internalType":"uint256"},{"name":"descriptionHash","type":"bytes32","internalType":"bytes32"},{"name":"txData","type":"tuple","internalType":"struct SafeTx","components":[{"name":"to","type":"address","internalType":"address"},{"name":"value","type":"uint256","internalType":"uint256"},{"name":"data","type":"bytes","internalType":"bytes"},{"name":"operation","type":"uint8","internalType":"uint8"},{"name":"safeTxGas","type":"uint256","internalType":"uint256"},{"name":"baseGas","type":"uint256","internalType":"uint256"},{"name":"gasPrice","type":"uint256","internalType":"uint256"},{"name":"gasToken","type":"address","internalType":"address"},{"name":"refundReceiver","type":"address","internalType":"address"}]}]},{"name":"v","type":"uint8","internalType":"uint8"},{"name":"r","type":"bytes32","internalType":"bytes32"},{"name":"s","type":"bytes32","internalType":"bytes32"},{"name":"expectedAddress","type":"address","internalType":"address"}],"outputs":[{"name":"","type":"bool","internalType":"bool"}],"stateMutability":"view"},{"type":"event","name":"BagBokSet","inputs":[{"name":"BBImplementation","type":"address","indexed":false,"internalType":"address"}],"anonymous":false},{"type":"event","name":"EndpointCreatedForAgent","inputs":[{"name":"nodeid","type":"uint256","indexed":true,"internalType":"uint256"},{"name":"endpoint","type":"address","indexed":false,"internalType":"address"},{"name":"agent","type":"address","indexed":false,"internalType":"address"}],"anonymous":false},{"type":"event","name":"NewMovementCreated","inputs":[{"name":"movementHash","type":"bytes32","indexed":true,"internalType":"bytes32"},{"name":"node_","type":"uint256","indexed":true,"internalType":"uint256"}],"anonymous":false},{"type":"error","name":"AlreadyHasEndpoint","inputs":[]},{"type":"error","name":"AlreadyInit","inputs":[]},{"type":"error","name":"AlreadyInitialized","inputs":[]},{"type":"error","name":"AlreadySigned","inputs":[]},{"type":"error","name":"EXEC_A0sig","inputs":[]},{"type":"error","name":"EXEC_ActionIndexMismatch","inputs":[]},{"type":"error","name":"EXEC_InProgress","inputs":[]},{"type":"error","name":"EXEC_NoDescription","inputs":[]},{"type":"error","name":"EXEC_NoType","inputs":[]},{"type":"error","name":"EXEC_OnlyMore","inputs":[]},{"type":"error","name":"EXEC_OnlySigner","inputs":[]},{"type":"error","name":"EXEC_SQInvalid","inputs":[]},{"type":"error","name":"EXEC_SafeExeF","inputs":[]},{"type":"error","name":"EXEC_ZeroLen","inputs":[]},{"type":"error","name":"EmptyUnallowed","inputs":[]},{"type":"error","name":"ExpiredMovement","inputs":[]},{"type":"error","name":"ExpiredQueue","inputs":[]},{"type":"error","name":"InvalidQueue","inputs":[]},{"type":"error","name":"LenErr","inputs":[]},{"type":"error","name":"NoMembersForNode","inputs":[]},{"type":"error","name":"NoType","inputs":[]},{"type":"error","name":"NotExeAccOwner","inputs":[]},{"type":"error","name":"NotNodeMember","inputs":[]},{"type":"error","name":"OnlyFun","inputs":[]},{"type":"error","name":"UnavailableState","inputs":[]},{"type":"error","name":"UninitQueue","inputs":[]}],"bytecode":{"object":"0x60a06040523480156200001157600080fd5b5060405162005763380380620057638339810160408190526200003491620002e5565b426200004260014362000317565b406040516020016200007292919091825260208201526a53756761727953616c747360a81b6040820152604b0190565b60408051601f198184030181528282528051602091820120608090815260e084018352600660a0850190815265426167426f6b60d01b60c086015284528251808401845260018152603160f81b81840152918401919091524691830191909152306060830152805190820152620000e9906200023c565b600055600180546001600160a01b0319166001600160a01b0383161790556040516375d3f84960e01b815246600482015273__$6171384561defaf758ec6f635e0dea650e$__906375d3f84990602401602060405180830381865af415801562000157573d6000803e3d6000fd5b505050506040513d601f19601f820116820180604052508101906200017d9190620002e5565b600480546001600160a01b0319166001600160a01b03929092169190911781556040516333a2675760e21b8152469181019190915273__$6171384561defaf758ec6f635e0dea650e$__9063ce899d5c90602401602060405180830381865af4158015620001ef573d6000803e3d6000fd5b505050506040513d601f19601f82011682018060405250810190620002159190620002e5565b600580546001600160a01b0319166001600160a01b0392909216919091179055506200033f565b60007fd87cd6ef79d4e2b95e15ce8abf732db51ec771f1ca2edccf22a46c729ac56472826000015180519060200120836020015180519060200120846040015185606001518660800151604051602001620002c8969594939291909586526020860194909452604085019290925260608401526001600160a01b0316608083015260a082015260c00190565b604051602081830303815290604052805190602001209050919050565b600060208284031215620002f857600080fd5b81516001600160a01b03811681146200031057600080fd5b9392505050565b818103818111156200033957634e487b7160e01b600052601160045260246000fd5b92915050565b60805161540b620003586000396000505061540b6000f3fe608060405234801561001057600080fd5b506004361061012d5760003560e01c806395118154116100b35780639511815414610270578063a0017a7d14610290578063ab024d70146102a3578063aff8d6bf146102b6578063bc197c81146102c9578063cd880c5d14610304578063e7b40a8d14610221578063e7dd311714610317578063eb3b39631461032a578063ee65ef311461033d578063f206262414610350578063f23a6e611461036357600080fd5b806301ffc9a7146101325780631626ba7e1461015b5780631edd0d5b1461018757806320c13b0b1461019a57806322c80a24146101ad57806347ac8cb4146101c25780634f6d96b9146101ed5780635831122a1461020e57806360b27e11146102215780636640f7581461024a5780636fa9bed11461025d575b600080fd5b6101466101403660046140f6565b50600090565b60405190151581526020015b60405180910390f35b61016e610169366004614257565b61039c565b6040516001600160e01b03199091168152602001610152565b61014661019536600461429d565b6103d8565b61016e6101a83660046142b6565b610879565b6101c06101bb36600461429d565b610899565b005b6101d56101d0366004614334565b61093c565b6040516001600160a01b039091168152602001610152565b6102006101fb3660046144e3565b610bba565b604051908152602001610152565b6101c061021c3660046145cc565b610c6f565b61020061022f366004614698565b6001600160a01b031660009081526009602052604090205490565b6002546101d5906001600160a01b031681565b6003546101d5906001600160a01b031681565b61028361027e36600461429d565b61160f565b6040516101529190614870565b6101c061029e366004614698565b61194c565b6102006102b1366004614935565b6119e5565b6101c06102c43660046149bd565b612089565b61016e6102d7366004614a64565b7fbc197c819b3e337a6f9652dd10becd7eef83032af3b9d958d3d42f669414662198975050505050505050565b610146610312366004614b22565b6126e2565b61014661032536600461429d565b6127a1565b6101c0610338366004614b97565b612d81565b6001546101d5906001600160a01b031681565b61020061035e366004614bc5565b613363565b61016e610371366004614c82565b7ff23a6e612e1ff4830e658fe43f4e3cb4a5f8170bd5d9e69fb5d7a7fa9e4fdf979695505050505050565b6000600260008481526007602052604090205460ff1660048111156103c3576103c36146b5565b036103d25750630b135d3f60e11b5b92915050565b6003546000906001600160a01b03163314610406576040516366e928db60e11b815260040160405180910390fd5b6000610411836133ee565b9050600281516004811115610428576104286146b5565b146104465760405163a29b1f1160e01b815260040160405180910390fd5b428160200151608001511161046e5760405163c26b3e3760e01b815260040160405180910390fd5b6040805130602082810191909152604192820192909252600060608201819052608082019290925260a0810185905260c00160408051601f198184030181528282526020858101518084015160c080830151805181860151828901516060840151608085015160a08601519686015160e09096015160015463057ff68760e51b8f529c519b9e50989c6001600160a01b039889169c63e86637db9c969b959a949993989297929692959316928d9263affed0e09260048082019392918290030181865afa158015610543573d6000803e3d6000fd5b505050506040513d601f19601f820116820180604052508101906105679190614cfd565b6040518b63ffffffff1660e01b815260040161058c9a99989796959493929190614d16565b600060405180830381865afa1580156105a9573d6000803e3d6000fd5b505050506040513d6000823e601f3d908101601f191682016040526105d19190810190614d85565b80516020918201206006558381015160409081015160c080850151805194810151818501516060830151608084015160a08501519585015160e090950151600154985163353b090160e11b81526001600160a01b039889169a636a7612029a61064e9a919997989697959694959493929116908e90600401614dfb565b6020604051808303816000875af115801561066d573d6000803e3d6000fd5b505050506040513d601f19601f820116820180604052508101906106919190614e7b565b9350836106b157604051637d5128e760e01b815260040160405180910390fd5b60006006819055600384528581526007602052604090208351815485929190829060ff191660018360048111156106ea576106ea6146b5565b02179055506020820151805160018084018054909291839160ff191690836002811115610719576107196146b5565b021790555060208281015182546001600160a01b0391821661010002610100600160a81b03199091161783556040808501516001850180549184166001600160a01b0319928316179055606086015160028601556080860151600386015560a0860151600486015560c0860151805160058701805491909516921691909117835592830151600685015582015160078401906107b59082614f26565b50606082015160038201805460ff191660ff9092169190911790556080820151600482015560a0820151600582015560c0820151600682015560e08201516007820180546001600160a01b03199081166001600160a01b03938416179091556101009093015160089092018054909316911617905550506040820151805161084791600f840191602090910190613ede565b5060608201518051610863916010840191602090910190613f43565b5060808201518160110155905050505050919050565b60008280519060200120600654036103d257506320c13b0b60e01b6103d2565b6002546001600160a01b0316156108af57600080fd5b6040516311eb232d60e21b815230906347ac8cb4906108d690839085908290600401614fe5565b6020604051808303816000875af11580156108f5573d6000803e3d6000fd5b505050506040513d601f19601f820116820180604052508101906109199190615008565b600280546001600160a01b0319166001600160a01b039290921691909117905550565b6003546000906001600160a01b0316331480159061096357506001600160a01b0382163014155b15610981576040516366e928db60e11b815260040160405180910390fd5b6003546040516385752d0360e01b81526001600160a01b03909116906385752d03906109b39087908790600401615025565b602060405180830381865afa1580156109d0573d6000803e3d6000fd5b505050506040513d601f19601f820116820180604052508101906109f49190614e7b565b158015610a0a57506001600160a01b0382163014155b15610a28576040516359c5ba6f60e11b815260040160405180910390fd5b600a6000610a3f6001600160a01b03851686615054565b815260208101919091526040016000205460ff1615610a7157604051633844cea560e01b815260040160405180910390fd5b6001600a6000610a8a6001600160a01b03861687615054565b81526020810191909152604001600020805460ff1916911515919091179055610ab38484613ad7565b60408051600180825281830190925291925060009190602080830190803683370190505090508281600081518110610aed57610aed615067565b60200260200101906001600160a01b031690816001600160a01b031681525050816001600160a01b031663b63e800d826001600042886001600160a01b0316610b36919061507d565b604051602001610b4891815260200190565b60405160208183030381529060405260008060008b6040518963ffffffff1660e01b8152600401610b80989796959493929190615090565b600060405180830381600087803b158015610b9a57600080fd5b505af1158015610bae573d6000803e3d6000fd5b50505050509392505050565b600060405180610140016040528061010f81526020016152c761010f91398051906020012082604051602001610bf091906150fb565b6040516020818303038152906040528051906020012083600001516002811115610c1c57610c1c6146b5565b84602001518560400151866060015187608001518860a001518960c00151604051602001610c529998979695949392919061510e565b604051602081830303815290604052805190602001209050919050565b6003546001600160a01b03163314610c9a576040516366e928db60e11b815260040160405180910390fd5b600083815260076020526040808220815160a081019092528054829060ff166004811115610cca57610cca6146b5565b6004811115610cdb57610cdb6146b5565b81526040805160e08101909152600183018054602090930192829060ff166002811115610d0a57610d0a6146b5565b6002811115610d1b57610d1b6146b5565b815281546001600160a01b036101009091048116602080840191909152600184015482166040808501919091526002850154606085015260038501546080850152600485015460a0850152805161012081018252600586018054909416815260068601549281019290925260078501805460c09095019492939291840191610da290614e9d565b80601f0160208091040260200160405190810160405280929190818152602001828054610dce90614e9d565b8015610e1b5780601f10610df057610100808354040283529160200191610e1b565b820191906000526020600020905b815481529060010190602001808311610dfe57829003601f168201915b5050509183525050600382015460ff166020808301919091526004830154604080840191909152600584015460608401526006840154608084015260078401546001600160a01b0390811660a085015260089094015490931660c09092019190915291909252928452600f85018054825181860281018601909352808352948401949193909250830182828015610edb57602002820191906000526020600020905b81546001600160a01b03168152600190910190602001808311610ebd575b5050505050815260200160108201805480602002602001604051908101604052809291908181526020016000905b82821015610fb5578382906000526020600020018054610f2890614e9d565b80601f0160208091040260200160405190810160405280929190818152602001828054610f5490614e9d565b8015610fa15780601f10610f7657610100808354040283529160200191610fa1565b820191906000526020600020905b815481529060010190602001808311610f8457829003601f168201915b505050505081526020019060010190610f09565b505050508152602001601182015481525050905080606001515182511015610ff0576040516334f8d9d160e01b815260040160405180910390fd5b81518351610ffe9190615172565b60000361101e5760405163dcdd869160e01b815260040160405180910390fd5b8151835114611040576040516302be566360e01b815260040160405180910390fd5b600080845160016110519190615054565b6001600160401b0381111561106857611068614127565b604051908082528060200260200182016040528015611091578160200160208202803683370190505b5090505b845182101561131b5760006001600160a01b03168583815181106110bb576110bb615067565b60200260200101516001600160a01b0316036110ea57604051634dd74a5960e01b815260040160405180910390fd5b600a600086848151811061110057611100615067565b60200260200101516001600160a01b03168860001c61111f919061507d565b815260208101919091526040016000205460ff16156111485761114182615189565b9150611095565b60035485516001600160a01b03909116906385752d039087908590811061117157611171615067565b60200260200101518560200151606001516040518363ffffffff1660e01b815260040161119f929190615025565b602060405180830381865afa1580156111bc573d6000803e3d6000fd5b505050506040513d601f19601f820116820180604052508101906111e09190614e7b565b6111ed5761114182615189565b61123285838151811061120257611202615067565b602002602001015161121388613bc7565b86858151811061122557611225615067565b6020026020010151613bfa565b61126157600081838151811061124a5761124a615067565b602002602001018181525050816001019150611095565b811561128a578181838151811061127a5761127a615067565b60200260200101818152506112b8565b600019816001835161129c919061507d565b815181106112ac576112ac615067565b60200260200101818152505b506001600a60008785815181106112d1576112d1615067565b60200260200101516001600160a01b03168960001c6112f0919061507d565b81526020810191909152604001600020805460ff191691151591909117905560019190910190611095565b6000915060005b815183101561135c57600082848151811061133f5761133f615067565b60200260200101511115611351576001015b826001019250611322565b60608401515161136c9082615054565b92506000836001600160401b0381111561138857611388614127565b6040519080825280602002602001820160405280156113b1578160200160208202803683370190505b5090506000846001600160401b038111156113ce576113ce614127565b60405190808252806020026020018201604052801561140157816020015b60608152602001906001900390816113ec5790505b50905060009450600092505b83518510156115ab57600084868151811061142a5761142a615067565b60200260200101519050600081118015611445575060001981105b156114d85788818151811061145c5761145c615067565b602002602001015183858151811061147657611476615067565b60200260200101906001600160a01b031690816001600160a01b0316815250508781815181106114a8576114a8615067565b60200260200101518285815181106114c2576114c2615067565b602002602001018190525083600101935061159f565b600019810361159f5788856000815181106114f5576114f5615067565b60200260200101518151811061150d5761150d615067565b602002602001015183858151811061152757611527615067565b60200260200101906001600160a01b031690816001600160a01b031681525050878560008151811061155b5761155b615067565b60200260200101518151811061157357611573615067565b602002602001015182858151811061158d5761158d615067565b60200260200101819052508360010193505b8560010195505061140d565b60408087018390526060870182905260008a81526007602090815291902083516115dd92600f90920191850190613ede565b506000898152600760209081526040909120825161160392601090920191840190613f43565b50505050505050505050565b611617613f95565b60008281526007602052604090819020815160a081019092528054829060ff166004811115611648576116486146b5565b6004811115611659576116596146b5565b81526040805160e08101909152600183018054602090930192829060ff166002811115611688576116886146b5565b6002811115611699576116996146b5565b815281546001600160a01b036101009091048116602080840191909152600184015482166040808501919091526002850154606085015260038501546080850152600485015460a0850152805161012081018252600586018054909416815260068601549281019290925260078501805460c0909501949293929184019161172090614e9d565b80601f016020809104026020016040519081016040528092919081815260200182805461174c90614e9d565b80156117995780601f1061176e57610100808354040283529160200191611799565b820191906000526020600020905b81548152906001019060200180831161177c57829003601f168201915b5050509183525050600382015460ff166020808301919091526004830154604080840191909152600584015460608401526006840154608084015260078401546001600160a01b0390811660a085015260089094015490931660c09092019190915291909252928452600f8501805482518186028101860190935280835294840194919390925083018282801561185957602002820191906000526020600020905b81546001600160a01b0316815260019091019060200180831161183b575b5050505050815260200160108201805480602002602001604051908101604052809291908181526020016000905b828210156119335783829060005260206000200180546118a690614e9d565b80601f01602080910402602001604051908101604052809291908181526020018280546118d290614e9d565b801561191f5780601f106118f45761010080835404028352916020019161191f565b820191906000526020600020905b81548152906001019060200180831161190257829003601f168201915b505050505081526020019060010190611887565b5050505081526020016011820154815250509050919050565b6003546001600160a01b031661197857600380546001600160a01b0319166001600160a01b0383161790555b6002546001600160a01b031633036119a657600380546001600160a01b0319166001600160a01b0383161790555b6040516001600160a01b03821681527f55380dc97c7765ffedeb2df353f73b746a5346538e54cc5bf36fa319337802a19060200160405180910390a150565b6003546000906001600160a01b03163314611a13576040516366e928db60e11b815260040160405180910390fd5b6002871115611a35576040516355a8e14b60e01b815260040160405180910390fd5b6003546040516385752d0360e01b81526001600160a01b03909116906385752d0390611a67908b908a90600401615025565b602060405180830381865afa158015611a84573d6000803e3d6000fd5b505050506040513d601f19601f82011682018060405250810190611aa89190614e7b565b611ac5576040516359c5ba6f60e11b815260040160405180910390fd5b84611ad08789615172565b611ada9190615172565b600003611afa57604051631512b5fb60e31b815260040160405180910390fd5b6000839003611b1c576040516375547cfb60e11b815260040160405180910390fd5b60606001600160a01b038516611d5557611b368988613ad7565b6001600160a01b038116600090815260096020526040902088905594506001889003611bf65760035460405163eef2e75760e01b8152600481018990526001600160a01b039091169063eef2e75790602401600060405180830381865afa158015611ba5573d6000803e3d6000fd5b505050506040513d6000823e601f3d908101601f19168201604052611bcd91908101906151a2565b90508051600003611bf157604051632c63fc0560e01b815260040160405180910390fd5b611c4b565b60408051600180825281830190925290602080830190803683370190505090503081600081518110611c2a57611c2a615067565b60200260200101906001600160a01b031690816001600160a01b0316815250505b846001600160a01b031663b63e800d8260028451611c69919061523b565b611c74906001615054565b6000611c80428d61507d565b604051602001611c9291815260200190565b6040516020818303038152906040526000806000306001600160a01b03168a600081518110611cc357611cc3615067565b60200260200101516001600160a01b031614611cf95789600081518110611cec57611cec615067565b6020026020010151611cfb565b8d5b6040518963ffffffff1660e01b8152600401611d1e989796959493929190615090565b600060405180830381600087803b158015611d3857600080fd5b505af1158015611d4c573d6000803e3d6000fd5b50505050611d8d565b6001600160a01b0385166000908152600960205260409020548714611d8d5760405163b311ec0360e01b815260040160405180910390fd5b611d95613fca565b3360208201526060810188905260a0810185905260c081018490526001600160a01b038616604082015242611dcd8862015180615172565b611dd79190615054565b608082015260018914611deb576002611dee565b60015b81906002811115611e0157611e016146b5565b90816002811115611e1457611e146146b5565b905250611e2081610bba565b6000898152600860209081526040822080546001810182559083529120018190559250611e4b613f95565b60018152602080820183905260008581526007909152604081205460ff166004811115611e7a57611e7a6146b5565b14611e975760405162dc149f60e41b815260040160405180910390fd5b60008481526007602052604090208151815483929190829060ff19166001836004811115611ec757611ec76146b5565b02179055506020820151805160018084018054909291839160ff191690836002811115611ef657611ef66146b5565b021790555060208281015182546001600160a01b0391821661010002610100600160a81b03199091161783556040808501516001850180549184166001600160a01b0319928316179055606086015160028601556080860151600386015560a0860151600486015560c086015180516005870180549190951692169190911783559283015160068501558201516007840190611f929082614f26565b50606082015160038201805460ff191660ff9092169190911790556080820151600482015560a0820151600582015560c0820151600682015560e08201516007820180546001600160a01b03199081166001600160a01b03938416179091556101009093015160089092018054909316911617905550506040820151805161202491600f840191602090910190613ede565b5060608201518051612040916010840191602090910190613f43565b5060809190910151601190910155604051899085907f9c2020804817db931ea18693c6fc487ae1cb81b49567ffec2006e5cc4a0b797890600090a3505050979650505050505050565b600082815260076020526040808220815160a081019092528054829060ff1660048111156120b9576120b96146b5565b60048111156120ca576120ca6146b5565b81526040805160e08101909152600183018054602090930192829060ff1660028111156120f9576120f96146b5565b600281111561210a5761210a6146b5565b815281546001600160a01b036101009091048116602080840191909152600184015482166040808501919091526002850154606085015260038501546080850152600485015460a0850152805161012081018252600586018054909416815260068601549281019290925260078501805460c0909501949293929184019161219190614e9d565b80601f01602080910402602001604051908101604052809291908181526020018280546121bd90614e9d565b801561220a5780601f106121df5761010080835404028352916020019161220a565b820191906000526020600020905b8154815290600101906020018083116121ed57829003601f168201915b5050509183525050600382015460ff166020808301919091526004830154604080840191909152600584015460608401526006840154608084015260078401546001600160a01b0390811660a085015260089094015490931660c09092019190915291909252928452600f850180548251818602810186019093528083529484019491939092508301828280156122ca57602002820191906000526020600020905b81546001600160a01b031681526001909101906020018083116122ac575b5050505050815260200160108201805480602002602001604051908101604052809291908181526020016000905b828210156123a457838290600052602060002001805461231790614e9d565b80601f016020809104026020016040519081016040528092919081815260200182805461234390614e9d565b80156123905780601f1061236557610100808354040283529160200191612390565b820191906000526020600020905b81548152906001019060200180831161237357829003601f168201915b5050505050815260200190600101906122f8565b50505050815260200160118201548152505090504281602001516080015111156123cd57600481525b6001815160048111156123e2576123e26146b5565b148061240057506002815160048111156123fe576123fe6146b5565b145b1561241e5760405163e4fb146b60e01b815260040160405180910390fd5b82600860008360200151606001518152602001908152602001600020838154811061244b5761244b615067565b9060005260206000200154146124745760405163b4e2e10d60e01b815260040160405180910390fd5b60086000826020015160600151815260200190815260200160002082815481106124a0576124a0615067565b9060005260206000200160009055816008600083602001516060015181526020019081526020016000206000815481106124dc576124dc615067565b906000526020600020015460001c111561252657602080820151606001516000908152600890915260408120805484929061251957612519615067565b6000918252602090912001555b60008381526007602052604090208151815483929190829060ff19166001836004811115612556576125566146b5565b02179055506020820151805160018084018054909291839160ff191690836002811115612585576125856146b5565b021790555060208281015182546001600160a01b0391821661010002610100600160a81b03199091161783556040808501516001850180549184166001600160a01b0319928316179055606086015160028601556080860151600386015560a0860151600486015560c0860151805160058701805491909516921691909117835592830151600685015582015160078401906126219082614f26565b50606082015160038201805460ff191660ff9092169190911790556080820151600482015560a0820151600582015560c0820151600682015560e08201516007820180546001600160a01b03199081166001600160a01b0393841617909155610100909301516008909201805490931691161790555050604082015180516126b391600f840191602090910190613ede565b50606082015180516126cf916010840191602090910190613f43565b5060808201518160110155905050505050565b6000806000546126f188610bba565b60405161190160f01b60208201526022810192909252604282015260620160408051601f198184030181528282528051602091820120600080855291840180845281905260ff8a169284019290925260608301889052608083018790529092509060019060a0016020604051602081039080840390855afa15801561277a573d6000803e3d6000fd5b5050604051601f1901516001600160a01b0390811690861614935050505095945050505050565b600081815260076020526040808220815160a08101909252805483929190829060ff1660048111156127d5576127d56146b5565b60048111156127e6576127e66146b5565b81526040805160e08101909152600183018054602090930192829060ff166002811115612815576128156146b5565b6002811115612826576128266146b5565b815281546001600160a01b036101009091048116602080840191909152600184015482166040808501919091526002850154606085015260038501546080850152600485015460a0850152805161012081018252600586018054909416815260068601549281019290925260078501805460c090950194929392918401916128ad90614e9d565b80601f01602080910402602001604051908101604052809291908181526020018280546128d990614e9d565b80156129265780601f106128fb57610100808354040283529160200191612926565b820191906000526020600020905b81548152906001019060200180831161290957829003601f168201915b5050509183525050600382015460ff166020808301919091526004830154604080840191909152600584015460608401526006840154608084015260078401546001600160a01b0390811660a085015260089094015490931660c09092019190915291909252928452600f850180548251818602810186019093528083529484019491939092508301828280156129e657602002820191906000526020600020905b81546001600160a01b031681526001909101906020018083116129c8575b5050505050815260200160108201805480602002602001604051908101604052809291908181526020016000905b82821015612ac0578382906000526020600020018054612a3390614e9d565b80601f0160208091040260200160405190810160405280929190818152602001828054612a5f90614e9d565b8015612aac5780601f10612a8157610100808354040283529160200191612aac565b820191906000526020600020905b815481529060010190602001808311612a8f57829003601f168201915b505050505081526020019060010190612a14565b5050509082525060119190910154602090910152905060006020820151516002811115612aef57612aef6146b5565b03612afd5750600092915050565b600281516004811115612b1257612b126146b5565b03612b205750600192915050565b600481516004811115612b3557612b356146b5565b03612b435750600092915050565b600181516004811115612b5857612b586146b5565b14612b665750600092915050565b60408101516060820151600091829182612b7f88613bc7565b90505b8151851015612cdd5760006001600160a01b0316838681518110612ba857612ba8615067565b60200260200101516001600160a01b031603612bce57612bc785615189565b9450612b82565b612bfe838681518110612be357612be3615067565b60200260200101518284888151811061122557611225615067565b612c1057506000979650505050505050565b60026020870151516002811115612c2957612c296146b5565b03612cd25760035483516001600160a01b039091169062fdd58e90859088908110612c5657612c56615067565b60200260200101518860200151606001516040518363ffffffff1660e01b8152600401612c84929190615025565b602060405180830381865afa158015612ca1573d6000803e3d6000fd5b505050506040513d601f19601f82011682018060405250810190612cc59190614cfd565b612ccf9085615054565b93505b846001019450612b82565b8315612d735760035460208701516060015160405163bd85b03960e01b815260048101919091526002916001600160a01b03169063bd85b03990602401602060405180830381865afa158015612d37573d6000803e3d6000fd5b505050506040513d601f19601f82011682018060405250810190612d5b9190614cfd565b612d65919061523b565b909311979650505050505050565b506001979650505050505050565b6003546001600160a01b03163314612dac576040516366e928db60e11b815260040160405180910390fd5b600083815260076020526040808220815160a081019092528054829060ff166004811115612ddc57612ddc6146b5565b6004811115612ded57612ded6146b5565b81526040805160e08101909152600183018054602090930192829060ff166002811115612e1c57612e1c6146b5565b6002811115612e2d57612e2d6146b5565b815281546001600160a01b036101009091048116602080840191909152600184015482166040808501919091526002850154606085015260038501546080850152600485015460a0850152805161012081018252600586018054909416815260068601549281019290925260078501805460c09095019492939291840191612eb490614e9d565b80601f0160208091040260200160405190810160405280929190818152602001828054612ee090614e9d565b8015612f2d5780601f10612f0257610100808354040283529160200191612f2d565b820191906000526020600020905b815481529060010190602001808311612f1057829003601f168201915b5050509183525050600382015460ff166020808301919091526004830154604080840191909152600584015460608401526006840154608084015260078401546001600160a01b0390811660a085015260089094015490931660c09092019190915291909252928452600f85018054825181860281018601909352808352948401949193909250830182828015612fed57602002820191906000526020600020905b81546001600160a01b03168152600190910190602001808311612fcf575b5050505050815260200160108201805480602002602001604051908101604052809291908181526020016000905b828210156130c757838290600052602060002001805461303a90614e9d565b80601f016020809104026020016040519081016040528092919081815260200182805461306690614e9d565b80156130b35780601f10613088576101008083540402835291602001916130b3565b820191906000526020600020905b81548152906001019060200180831161309657829003601f168201915b50505050508152602001906001019061301b565b5050505081526020016011820154815250509050816001600160a01b0316816040015184815181106130fb576130fb615067565b60200260200101516001600160a01b03161461312a5760405163490be95360e11b815260040160405180910390fd5b8060600151838151811061314057613140615067565b6020026020010160608152508060400151838151811061316257613162615067565b6000602091820292909201810182905285825260079052604090208151815483929190829060ff1916600183600481111561319f5761319f6146b5565b02179055506020820151805160018084018054909291839160ff1916908360028111156131ce576131ce6146b5565b021790555060208281015182546001600160a01b0391821661010002610100600160a81b03199091161783556040808501516001850180549184166001600160a01b0319928316179055606086015160028601556080860151600386015560a0860151600486015560c08601518051600587018054919095169216919091178355928301516006850155820151600784019061326a9082614f26565b50606082015160038201805460ff191660ff9092169190911790556080820151600482015560a0820151600582015560c0820151600682015560e08201516007820180546001600160a01b03199081166001600160a01b0393841617909155610100909301516008909201805490931691161790555050604082015180516132fc91600f840191602090910190613ede565b5060608201518051613318916010840191602090910190613f43565b50608091909101516011909101556000600a8161333e6001600160a01b0386168861507d565b81526020810191909152604001600020805460ff191691151591909117905550505050565b60007fd87cd6ef79d4e2b95e15ce8abf732db51ec771f1ca2edccf22a46c729ac56472826000015180519060200120836020015180519060200120846040015185606001518660800151604051602001610c52969594939291909586526020860194909452604085019290925260608401526001600160a01b0316608083015260a082015260c00190565b6133f6613f95565b60008281526007602052604090819020815160a081019092528054829060ff166004811115613427576134276146b5565b6004811115613438576134386146b5565b81526040805160e08101909152600183018054602090930192829060ff166002811115613467576134676146b5565b6002811115613478576134786146b5565b815281546001600160a01b036101009091048116602080840191909152600184015482166040808501919091526002850154606085015260038501546080850152600485015460a0850152805161012081018252600586018054909416815260068601549281019290925260078501805460c090950194929392918401916134ff90614e9d565b80601f016020809104026020016040519081016040528092919081815260200182805461352b90614e9d565b80156135785780601f1061354d57610100808354040283529160200191613578565b820191906000526020600020905b81548152906001019060200180831161355b57829003601f168201915b5050509183525050600382015460ff166020808301919091526004830154604080840191909152600584015460608401526006840154608084015260078401546001600160a01b0390811660a085015260089094015490931660c09092019190915291909252928452600f8501805482518186028101860190935280835294840194919390925083018282801561363857602002820191906000526020600020905b81546001600160a01b0316815260019091019060200180831161361a575b5050505050815260200160108201805480602002602001604051908101604052809291908181526020016000905b8282101561371257838290600052602060002001805461368590614e9d565b80601f01602080910402602001604051908101604052809291908181526020018280546136b190614e9d565b80156136fe5780601f106136d3576101008083540402835291602001916136fe565b820191906000526020600020905b8154815290600101906020018083116136e157829003601f168201915b505050505081526020019060010190613666565b505050508152602001601182015481525050905042816020015160800151116138f15760048082526000838152600760205260409020825181548493839160ff1916906001908490811115613769576137696146b5565b02179055506020820151805160018084018054909291839160ff191690836002811115613798576137986146b5565b021790555060208281015182546001600160a01b0391821661010002610100600160a81b03199091161783556040808501516001850180549184166001600160a01b0319928316179055606086015160028601556080860151600386015560a0860151600486015560c0860151805160058701805491909516921691909117835592830151600685015582015160078401906138349082614f26565b50606082015160038201805460ff191660ff9092169190911790556080820151600482015560a0820151600582015560c0820151600682015560e08201516007820180546001600160a01b03199081166001600160a01b0393841617909155610100909301516008909201805490931691161790555050604082015180516138c691600f840191602090910190613ede565b50606082015180516138e2916010840191602090910190613f43565b50608082015181601101559050505b6138fa826127a1565b61391757604051631150cdbd60e11b815260040160405180910390fd5b6002815260008281526007602052604090208151815483929190829060ff1916600183600481111561394b5761394b6146b5565b02179055506020820151805160018084018054909291839160ff19169083600281111561397a5761397a6146b5565b021790555060208281015182546001600160a01b0391821661010002610100600160a81b03199091161783556040808501516001850180549184166001600160a01b0319928316179055606086015160028601556080860151600386015560a0860151600486015560c086015180516005870180549190951692169190911783559283015160068501558201516007840190613a169082614f26565b50606082015160038201805460ff191660ff9092169190911790556080820151600482015560a0820151600582015560c0820151600682015560e08201516007820180546001600160a01b03199081166001600160a01b039384161790915561010090930151600890920180549093169116179055505060408201518051613aa891600f840191602090910190613ede565b5060608201518051613ac4916010840191602090910190613f43565b5060808201518160110155905050919050565b6000613ae282613c5b565b90506000356001600160e01b0319166311eb232d60e21b1480613b1757506000356001600160e01b0319166308b2028960e21b145b15613b3f576001600160a01b0381811660009081526009602052604090209084169055613b5b565b6001600160a01b03811660009081526009602052604090208290555b600354604051631465471360e11b81526001600160a01b03909116906328ca8e2690613b8f90849086908890600401614fe5565b600060405180830381600087803b158015613ba957600080fd5b505af1158015613bbd573d6000803e3d6000fd5b5050505092915050565b7f19457468657265756d205369676e6564204d6573736167653a0a3332000000006000908152601c91909152603c902090565b6000806000613c098585613cf3565b90925090506000816004811115613c2257613c226146b5565b148015613c405750856001600160a01b0316826001600160a01b0316145b80613c515750613c51868686613d38565b9695505050505050565b6004546005546040805160008082526020820190925290926001600160a01b0390811692631688f0b992911690613c92428761507d565b6040518463ffffffff1660e01b8152600401613cb09392919061525d565b6020604051808303816000875af1158015613ccf573d6000803e3d6000fd5b505050506040513d601f19601f820116820180604052508101906103d29190615008565b6000808251604103613d295760208301516040840151606085015160001a613d1d87828585613e24565b94509450505050613d31565b506000905060025b9250929050565b6000806000856001600160a01b0316631626ba7e60e01b8686604051602401613d62929190615291565b60408051601f198184030181529181526020820180516001600160e01b03166001600160e01b0319909416939093179092529051613da091906152aa565b600060405180830381855afa9150503d8060008114613ddb576040519150601f19603f3d011682016040523d82523d6000602084013e613de0565b606091505b5091509150818015613df457506020815110155b8015613c5157508051630b135d3f60e11b90613e199083016020908101908401614cfd565b149695505050505050565b6000806fa2a8918ca85bafe22016d0b997e4df60600160ff1b03831115613e515750600090506003613ed5565b6040805160008082526020820180845289905260ff881692820192909252606081018690526080810185905260019060a0016020604051602081039080840390855afa158015613ea5573d6000803e3d6000fd5b5050604051601f1901519150506001600160a01b038116613ece57600060019250925050613ed5565b9150600090505b94509492505050565b828054828255906000526020600020908101928215613f33579160200282015b82811115613f3357825182546001600160a01b0319166001600160a01b03909116178255602090920191600190910190613efe565b50613f3f929150614087565b5090565b828054828255906000526020600020908101928215613f89579160200282015b82811115613f895782518290613f799082614f26565b5091602001919060010190613f63565b50613f3f92915061409c565b6040805160a081019091528060008152602001613fb0613fca565b815260606020820181905260408201819052600091015290565b6040805160e08101909152806000815260200160006001600160a01b0316815260200160006001600160a01b0316815260200160008152602001600081526020016000801916815260200161408260405180610120016040528060006001600160a01b031681526020016000815260200160608152602001600060ff16815260200160008152602001600081526020016000815260200160006001600160a01b0316815260200160006001600160a01b031681525090565b905290565b5b80821115613f3f5760008155600101614088565b80821115613f3f5760006140b082826140b9565b5060010161409c565b5080546140c590614e9d565b6000825580601f106140d5575050565b601f0160209004906000526020600020908101906140f39190614087565b50565b60006020828403121561410857600080fd5b81356001600160e01b03198116811461412057600080fd5b9392505050565b634e487b7160e01b600052604160045260246000fd5b60405161012081016001600160401b038111828210171561416057614160614127565b60405290565b60405160e081016001600160401b038111828210171561416057614160614127565b60405160a081016001600160401b038111828210171561416057614160614127565b604051601f8201601f191681016001600160401b03811182821017156141d2576141d2614127565b604052919050565b60006001600160401b038211156141f3576141f3614127565b50601f01601f191660200190565b600082601f83011261421257600080fd5b8135614225614220826141da565b6141aa565b81815284602083860101111561423a57600080fd5b816020850160208301376000918101602001919091529392505050565b6000806040838503121561426a57600080fd5b8235915060208301356001600160401b0381111561428757600080fd5b61429385828601614201565b9150509250929050565b6000602082840312156142af57600080fd5b5035919050565b600080604083850312156142c957600080fd5b82356001600160401b03808211156142e057600080fd5b6142ec86838701614201565b9350602085013591508082111561430257600080fd5b5061429385828601614201565b6001600160a01b03811681146140f357600080fd5b803561432f8161430f565b919050565b60008060006060848603121561434957600080fd5b83356143548161430f565b925060208401359150604084013561436b8161430f565b809150509250925092565b80356003811061432f57600080fd5b803560ff8116811461432f57600080fd5b600061012082840312156143a957600080fd5b6143b161413d565b90506143bc82614324565b81526020820135602082015260408201356001600160401b038111156143e157600080fd5b6143ed84828501614201565b6040830152506143ff60608301614385565b60608201526080820135608082015260a082013560a082015260c082013560c082015261442e60e08301614324565b60e0820152610100614441818401614324565b9082015292915050565b600060e0828403121561445d57600080fd5b614465614166565b905061447082614376565b815261447e60208301614324565b602082015261448f60408301614324565b6040820152606082013560608201526080820135608082015260a082013560a082015260c08201356001600160401b038111156144cb57600080fd5b6144d784828501614396565b60c08301525092915050565b6000602082840312156144f557600080fd5b81356001600160401b0381111561450b57600080fd5b6145178482850161444b565b949350505050565b60006001600160401b0382111561453857614538614127565b5060051b60200190565b600082601f83011261455357600080fd5b813560206145636142208361451f565b82815260059290921b8401810191818101908684111561458257600080fd5b8286015b848110156145c15780356001600160401b038111156145a55760008081fd5b6145b38986838b0101614201565b845250918301918301614586565b509695505050505050565b6000806000606084860312156145e157600080fd5b833592506020808501356001600160401b038082111561460057600080fd5b818701915087601f83011261461457600080fd5b81356146226142208261451f565b81815260059190911b8301840190848101908a83111561464157600080fd5b938501935b828510156146685784356146598161430f565b82529385019390850190614646565b96505050604087013592508083111561468057600080fd5b505061468e86828701614542565b9150509250925092565b6000602082840312156146aa57600080fd5b81356141208161430f565b634e487b7160e01b600052602160045260246000fd5b60005b838110156146e65781810151838201526020016146ce565b50506000910152565b600081518084526147078160208601602086016146cb565b601f01601f19169290920160200192915050565b600061012060018060a01b03835116845260208301516020850152604083015181604086015261474d828601826146ef565b9150506060830151614764606086018260ff169052565b506080830151608085015260a083015160a085015260c083015160c085015260e083015161479d60e08601826001600160a01b03169052565b50610100928301516001600160a01b03169390920192909252919050565b60008151600381106147cf576147cf6146b5565b80845250602082015160018060a01b0380821660208601528060408501511660408601525050606082015160608401526080820151608084015260a082015160a084015260c082015160e060c085015261451760e085018261471b565b600081518084526020808501945080840160005b838110156148655781516001600160a01b031687529582019590820190600101614840565b509495945050505050565b60006020808352835160058110614889576148896146b5565b838201528381015160a060408501526148a560c08501826147bb565b90506040850151601f19808684030160608701526148c3838361482c565b60608801518782038301608089015280518083529194508501925084840190600581901b8501860160005b8281101561491a57848783030184526149088287516146ef565b958801959388019391506001016148ee565b5060808a015160a08a01528097505050505050505092915050565b600080600080600080600060e0888a03121561495057600080fd5b873561495b8161430f565b965060208801359550604088013594506060880135935060808801356149808161430f565b925060a0880135915060c08801356001600160401b038111156149a257600080fd5b6149ae8a828b01614396565b91505092959891949750929550565b600080604083850312156149d057600080fd5b50508035926020909101359150565b60008083601f8401126149f157600080fd5b5081356001600160401b03811115614a0857600080fd5b6020830191508360208260051b8501011115613d3157600080fd5b60008083601f840112614a3557600080fd5b5081356001600160401b03811115614a4c57600080fd5b602083019150836020828501011115613d3157600080fd5b60008060008060008060008060a0898b031215614a8057600080fd5b8835614a8b8161430f565b97506020890135614a9b8161430f565b965060408901356001600160401b0380821115614ab757600080fd5b614ac38c838d016149df565b909850965060608b0135915080821115614adc57600080fd5b614ae88c838d016149df565b909650945060808b0135915080821115614b0157600080fd5b50614b0e8b828c01614a23565b999c989b5096995094979396929594505050565b600080600080600060a08688031215614b3a57600080fd5b85356001600160401b03811115614b5057600080fd5b614b5c8882890161444b565b955050614b6b60208701614385565b935060408601359250606086013591506080860135614b898161430f565b809150509295509295909350565b600080600060608486031215614bac57600080fd5b8335925060208401359150604084013561436b8161430f565b600060208284031215614bd757600080fd5b81356001600160401b0380821115614bee57600080fd5b9083019060a08286031215614c0257600080fd5b614c0a614188565b823582811115614c1957600080fd5b614c2587828601614201565b825250602083013582811115614c3a57600080fd5b614c4687828601614201565b6020830152506040830135604082015260608301359150614c668261430f565b8160608201526080830135608082015280935050505092915050565b60008060008060008060a08789031215614c9b57600080fd5b8635614ca68161430f565b95506020870135614cb68161430f565b9450604087013593506060870135925060808701356001600160401b03811115614cdf57600080fd5b614ceb89828a01614a23565b979a9699509497509295939492505050565b600060208284031215614d0f57600080fd5b5051919050565b6001600160a01b038b81168252602082018b905261014060408301819052600091614d438483018d6146ef565b60ff9b909b1660608501526080840199909952505060a081019590955260c085019390935290841660e084015290921661010082015261012001529392505050565b600060208284031215614d9757600080fd5b81516001600160401b03811115614dad57600080fd5b8201601f81018413614dbe57600080fd5b8051614dcc614220826141da565b818152856020838501011115614de157600080fd5b614df28260208301602086016146cb565b95945050505050565b6001600160a01b038b81168252602082018b905261014060408301819052600091614e288483018d6146ef565b915060ff8b1660608501528960808501528860a08501528760c085015280871660e085015280861661010085015250828103610120840152614e6a81856146ef565b9d9c50505050505050505050505050565b600060208284031215614e8d57600080fd5b8151801515811461412057600080fd5b600181811c90821680614eb157607f821691505b602082108103614ed157634e487b7160e01b600052602260045260246000fd5b50919050565b601f821115614f2157600081815260208120601f850160051c81016020861015614efe5750805b601f850160051c820191505b81811015614f1d57828155600101614f0a565b5050505b505050565b81516001600160401b03811115614f3f57614f3f614127565b614f5381614f4d8454614e9d565b84614ed7565b602080601f831160018114614f885760008415614f705750858301515b600019600386901b1c1916600185901b178555614f1d565b600085815260208120601f198616915b82811015614fb757888601518255948401946001909101908401614f98565b5085821015614fd55787850151600019600388901b60f8161c191681555b5050505050600190811b01905550565b6001600160a01b0393841681526020810192909252909116604082015260600190565b60006020828403121561501a57600080fd5b81516141208161430f565b6001600160a01b03929092168252602082015260400190565b634e487b7160e01b600052601160045260246000fd5b808201808211156103d2576103d261503e565b634e487b7160e01b600052603260045260246000fd5b818103818111156103d2576103d261503e565b60006101008083526150a48184018c61482c565b602084018b90526001600160a01b038a8116604086015284820360608601529091506150d0828a6146ef565b978116608085015295861660a0840152505060c081019290925290911660e090910152949350505050565b60208152600061412060208301846147bb565b60006101208b83528a602084015260ff8a16604084015260018060a01b03808a1660608501528089166080850152508660a08401528560c08401528460e0840152806101008401526151628184018561471b565b9c9b505050505050505050505050565b80820281158282048414176103d2576103d261503e565b60006001820161519b5761519b61503e565b5060010190565b600060208083850312156151b557600080fd5b82516001600160401b038111156151cb57600080fd5b8301601f810185136151dc57600080fd5b80516151ea6142208261451f565b81815260059190911b8201830190838101908783111561520957600080fd5b928401925b828410156152305783516152218161430f565b8252928401929084019061520e565b979650505050505050565b60008261525857634e487b7160e01b600052601260045260246000fd5b500490565b6001600160a01b0384168152606060208201819052600090615281908301856146ef565b9050826040830152949350505050565b82815260406020820152600061451760408301846146ef565b600082516152bc8184602087016146cb565b919091019291505056fe4d6f76656d656e742875696e74382063617465676f72792c6164647265737320696e6974696174696f722c61646472657373206578654163636f756e742c75696e74323536207669614e6f64652c75696e74323536206578706972657341742c62797465733332206465736372697074696f6e486173682c536166655478286164647265737320746f2c75696e743235362076616c75652c627974657320646174612c75696e7438206f7065726174696f6e2c75696e74323536207361666554784761732c75696e7432353620626173654761732c75696e743235362067617350726963652c6164647265737320676173546f6b656e2c6164647265737320726566756e6452656365697665722929a264697066735822122037f0acd8a537357d7bcdfc66c9062fab8d6d77d073338f7e4f45e89ddb779f2e64736f6c63430008130033","linkReferences":{"src/info/GnosisSafeFactory.sol":{"SafeFactoryAddresses":[{"start":284,"length":20},{"start":436,"length":20}]}}},"methodIdentifiers":{"BagBok()":"6fa9bed1","FoundationAgent()":"6640f758","RootValueToken()":"ee65ef31","createEndpointForOwner(address,uint256,address)":"47ac8cb4","endpointOwner(address)":"60b27e11","exeAccountOwner(address)":"e7b40a8d","executeQueue(bytes32)":"1edd0d5b","getSigQueue(bytes32)":"95118154","hashDomain((string,string,uint256,address,bytes32))":"f2062624","hashMessage((uint8,address,address,uint256,uint256,bytes32,(address,uint256,bytes,uint8,uint256,uint256,uint256,address,address)))":"4f6d96b9","isQueueValid(bytes32)":"e7dd3117","isValidSignature(bytes,bytes)":"20c13b0b","isValidSignature(bytes32,bytes)":"1626ba7e","onERC1155BatchReceived(address,address,uint256[],uint256[],bytes)":"bc197c81","onERC1155Received(address,address,uint256,uint256,bytes)":"f23a6e61","proposeMovement(address,uint256,uint256,uint256,address,bytes32,(address,uint256,bytes,uint8,uint256,uint256,uint256,address,address))":"ab024d70","removeLatentAction(bytes32,uint256)":"aff8d6bf","removeSignature(bytes32,uint256,address)":"eb3b3963","setBagBook(address)":"a0017a7d","setFoundationAgent(uint256)":"22c80a24","submitSignatures(bytes32,address[],bytes[])":"5831122a","supportsInterface(bytes4)":"01ffc9a7","verifyMessage((uint8,address,address,uint256,uint256,bytes32,(address,uint256,bytes,uint8,uint256,uint256,uint256,address,address)),uint8,bytes32,bytes32,address)":"cd880c5d"},"storageLayout":{"storage":[{"astId":58663,"contract":"src/Execution.sol:Execution","label":"DOMAIN_SEPARATOR","offset":0,"slot":"0","type":"t_bytes32"},{"astId":53711,"contract":"src/Execution.sol:Execution","label":"RootValueToken","offset":0,"slot":"1","type":"t_address"},{"astId":53713,"contract":"src/Execution.sol:Execution","label":"FoundationAgent","offset":0,"slot":"2","type":"t_address"},{"astId":53716,"contract":"src/Execution.sol:Execution","label":"BagBok","offset":0,"slot":"3","type":"t_contract(IFun)60677"},{"astId":53719,"contract":"src/Execution.sol:Execution","label":"SafeFactory","offset":0,"slot":"4","type":"t_contract(ISafeFactory)61208"},{"astId":53721,"contract":"src/Execution.sol:Execution","label":"Singleton","offset":0,"slot":"5","type":"t_address"},{"astId":53723,"contract":"src/Execution.sol:Execution","label":"currentTxHash","offset":0,"slot":"6","type":"t_bytes32"},{"astId":53807,"contract":"src/Execution.sol:Execution","label":"getSigQueueByHash","offset":0,"slot":"7","type":"t_mapping(t_bytes32,t_struct(SignatureQueue)60477_storage)"},{"astId":53813,"contract":"src/Execution.sol:Execution","label":"latentActions","offset":0,"slot":"8","type":"t_mapping(t_uint256,t_array(t_bytes32)dyn_storage)"},{"astId":53818,"contract":"src/Execution.sol:Execution","label":"engineOwner","offset":0,"slot":"9","type":"t_mapping(t_address,t_uint256)"},{"astId":53823,"contract":"src/Execution.sol:Execution","label":"hasEndpointOrInteraction","offset":0,"slot":"10","type":"t_mapping(t_uint256,t_bool)"}],"types":{"t_address":{"encoding":"inplace","label":"address","numberOfBytes":"20"},"t_array(t_address)dyn_storage":{"encoding":"dynamic_array","label":"address[]","numberOfBytes":"32","base":"t_address"},"t_array(t_bytes32)dyn_storage":{"encoding":"dynamic_array","label":"bytes32[]","numberOfBytes":"32","base":"t_bytes32"},"t_array(t_bytes_storage)dyn_storage":{"encoding":"dynamic_array","label":"bytes[]","numberOfBytes":"32","base":"t_bytes_storage"},"t_bool":{"encoding":"inplace","label":"bool","numberOfBytes":"1"},"t_bytes32":{"encoding":"inplace","label":"bytes32","numberOfBytes":"32"},"t_bytes_storage":{"encoding":"bytes","label":"bytes","numberOfBytes":"32"},"t_contract(IFun)60677":{"encoding":"inplace","label":"contract IFun","numberOfBytes":"20"},"t_contract(ISafeFactory)61208":{"encoding":"inplace","label":"contract ISafeFactory","numberOfBytes":"20"},"t_enum(MovementType)60421":{"encoding":"inplace","label":"enum MovementType","numberOfBytes":"1"},"t_enum(SQState)60417":{"encoding":"inplace","label":"enum SQState","numberOfBytes":"1"},"t_mapping(t_address,t_uint256)":{"encoding":"mapping","key":"t_address","label":"mapping(address => uint256)","numberOfBytes":"32","value":"t_uint256"},"t_mapping(t_bytes32,t_struct(SignatureQueue)60477_storage)":{"encoding":"mapping","key":"t_bytes32","label":"mapping(bytes32 => struct SignatureQueue)","numberOfBytes":"32","value":"t_struct(SignatureQueue)60477_storage"},"t_mapping(t_uint256,t_array(t_bytes32)dyn_storage)":{"encoding":"mapping","key":"t_uint256","label":"mapping(uint256 => bytes32[])","numberOfBytes":"32","value":"t_array(t_bytes32)dyn_storage"},"t_mapping(t_uint256,t_bool)":{"encoding":"mapping","key":"t_uint256","label":"mapping(uint256 => bool)","numberOfBytes":"32","value":"t_bool"},"t_struct(Movement)60462_storage":{"encoding":"inplace","label":"struct Movement","numberOfBytes":"448","members":[{"astId":60443,"contract":"src/Execution.sol:Execution","label":"category","offset":0,"slot":"0","type":"t_enum(MovementType)60421"},{"astId":60446,"contract":"src/Execution.sol:Execution","label":"initiatior","offset":1,"slot":"0","type":"t_address"},{"astId":60449,"contract":"src/Execution.sol:Execution","label":"exeAccount","offset":0,"slot":"1","type":"t_address"},{"astId":60452,"contract":"src/Execution.sol:Execution","label":"viaNode","offset":0,"slot":"2","type":"t_uint256"},{"astId":60455,"contract":"src/Execution.sol:Execution","label":"expiresAt","offset":0,"slot":"3","type":"t_uint256"},{"astId":60457,"contract":"src/Execution.sol:Execution","label":"descriptionHash","offset":0,"slot":"4","type":"t_bytes32"},{"astId":60461,"contract":"src/Execution.sol:Execution","label":"txData","offset":0,"slot":"5","type":"t_struct(SafeTx)60440_storage"}]},"t_struct(SafeTx)60440_storage":{"encoding":"inplace","label":"struct SafeTx","numberOfBytes":"288","members":[{"astId":60423,"contract":"src/Execution.sol:Execution","label":"to","offset":0,"slot":"0","type":"t_address"},{"astId":60425,"contract":"src/Execution.sol:Execution","label":"value","offset":0,"slot":"1","type":"t_uint256"},{"astId":60427,"contract":"src/Execution.sol:Execution","label":"data","offset":0,"slot":"2","type":"t_bytes_storage"},{"astId":60429,"contract":"src/Execution.sol:Execution","label":"operation","offset":0,"slot":"3","type":"t_uint8"},{"astId":60431,"contract":"src/Execution.sol:Execution","label":"safeTxGas","offset":0,"slot":"4","type":"t_uint256"},{"astId":60433,"contract":"src/Execution.sol:Execution","label":"baseGas","offset":0,"slot":"5","type":"t_uint256"},{"astId":60435,"contract":"src/Execution.sol:Execution","label":"gasPrice","offset":0,"slot":"6","type":"t_uint256"},{"astId":60437,"contract":"src/Execution.sol:Execution","label":"gasToken","offset":0,"slot":"7","type":"t_address"},{"astId":60439,"contract":"src/Execution.sol:Execution","label":"refundReceiver","offset":0,"slot":"8","type":"t_address"}]},"t_struct(SignatureQueue)60477_storage":{"encoding":"inplace","label":"struct SignatureQueue","numberOfBytes":"576","members":[{"astId":60465,"contract":"src/Execution.sol:Execution","label":"state","offset":0,"slot":"0","type":"t_enum(SQState)60417"},{"astId":60468,"contract":"src/Execution.sol:Execution","label":"Action","offset":0,"slot":"1","type":"t_struct(Movement)60462_storage"},{"astId":60471,"contract":"src/Execution.sol:Execution","label":"Signers","offset":0,"slot":"15","type":"t_array(t_address)dyn_storage"},{"astId":60474,"contract":"src/Execution.sol:Execution","label":"Sigs","offset":0,"slot":"16","type":"t_array(t_bytes_storage)dyn_storage"},{"astId":60476,"contract":"src/Execution.sol:Execution","label":"exeSig","offset":0,"slot":"17","type":"t_bytes32"}]},"t_uint256":{"encoding":"inplace","label":"uint256","numberOfBytes":"32"},"t_uint8":{"encoding":"inplace","label":"uint8","numberOfBytes":"1"}}},"id":53}