{"abi":[{"type":"constructor","inputs":[{"name":"rootValueToken_","type":"address","internalType":"address"}],"stateMutability":"nonpayable"},{"type":"function","name":"BagBok","inputs":[],"outputs":[{"name":"","type":"address","internalType":"contract IFun"}],"stateMutability":"view"},{"type":"function","name":"FoundationAgent","inputs":[],"outputs":[{"name":"","type":"address","internalType":"address"}],"stateMutability":"view"},{"type":"function","name":"RootValueToken","inputs":[],"outputs":[{"name":"","type":"address","internalType":"address"}],"stateMutability":"view"},{"type":"function","name":"createEndpointForOwner","inputs":[{"name":"origin","type":"address","internalType":"address"},{"name":"nodeId_","type":"uint256","internalType":"uint256"},{"name":"owner","type":"address","internalType":"address"}],"outputs":[{"name":"endpoint","type":"address","internalType":"address"}],"stateMutability":"nonpayable"},{"type":"function","name":"endpointOwner","inputs":[{"name":"endpointAddress","type":"address","internalType":"address"}],"outputs":[{"name":"","type":"uint256","internalType":"uint256"}],"stateMutability":"view"},{"type":"function","name":"exeAccountOwner","inputs":[{"name":"exeAcc_","type":"address","internalType":"address"}],"outputs":[{"name":"","type":"uint256","internalType":"uint256"}],"stateMutability":"view"},{"type":"function","name":"executeQueue","inputs":[{"name":"SignatureQueueHash_","type":"bytes32","internalType":"bytes32"}],"outputs":[{"name":"s","type":"bool","internalType":"bool"}],"stateMutability":"nonpayable"},{"type":"function","name":"getSigQueue","inputs":[{"name":"hash_","type":"bytes32","internalType":"bytes32"}],"outputs":[{"name":"","type":"tuple","internalType":"struct SignatureQueue","components":[{"name":"state","type":"uint8","internalType":"enum SQState"},{"name":"Action","type":"tuple","internalType":"struct Movement","components":[{"name":"category","type":"uint8","internalType":"enum MovementType"},{"name":"initiatior","type":"address","internalType":"address"},{"name":"exeAccount","type":"address","internalType":"address"},{"name":"viaNode","type":"uint256","internalType":"uint256"},{"name":"expiresAt","type":"uint256","internalType":"uint256"},{"name":"descriptionHash","type":"bytes32","internalType":"bytes32"},{"name":"txData","type":"tuple","internalType":"struct SafeTx","components":[{"name":"to","type":"address","internalType":"address"},{"name":"value","type":"uint256","internalType":"uint256"},{"name":"data","type":"bytes","internalType":"bytes"},{"name":"operation","type":"uint8","internalType":"uint8"},{"name":"safeTxGas","type":"uint256","internalType":"uint256"},{"name":"baseGas","type":"uint256","internalType":"uint256"},{"name":"gasPrice","type":"uint256","internalType":"uint256"},{"name":"gasToken","type":"address","internalType":"address"},{"name":"refundReceiver","type":"address","internalType":"address"}]}]},{"name":"Signers","type":"address[]","internalType":"address[]"},{"name":"Sigs","type":"bytes[]","internalType":"bytes[]"},{"name":"exeSig","type":"bytes32","internalType":"bytes32"}]}],"stateMutability":"view"},{"type":"function","name":"isQueueValid","inputs":[{"name":"sigHash","type":"bytes32","internalType":"bytes32"}],"outputs":[{"name":"","type":"bool","internalType":"bool"}],"stateMutability":"view"},{"type":"function","name":"isValidSignature","inputs":[{"name":"_hash","type":"bytes32","internalType":"bytes32"},{"name":"_signature","type":"bytes","internalType":"bytes"}],"outputs":[{"name":"","type":"bytes4","internalType":"bytes4"}],"stateMutability":"view"},{"type":"function","name":"isValidSignature","inputs":[{"name":"a","type":"bytes","internalType":"bytes"},{"name":"b","type":"bytes","internalType":"bytes"}],"outputs":[{"name":"","type":"bytes4","internalType":"bytes4"}],"stateMutability":"view"},{"type":"function","name":"onERC1155BatchReceived","inputs":[{"name":"operator","type":"address","internalType":"address"},{"name":"from","type":"address","internalType":"address"},{"name":"ids","type":"uint256[]","internalType":"uint256[]"},{"name":"values","type":"uint256[]","internalType":"uint256[]"},{"name":"data","type":"bytes","internalType":"bytes"}],"outputs":[{"name":"","type":"bytes4","internalType":"bytes4"}],"stateMutability":"nonpayable"},{"type":"function","name":"onERC1155Received","inputs":[{"name":"operator","type":"address","internalType":"address"},{"name":"from","type":"address","internalType":"address"},{"name":"id","type":"uint256","internalType":"uint256"},{"name":"value","type":"uint256","internalType":"uint256"},{"name":"data","type":"bytes","internalType":"bytes"}],"outputs":[{"name":"","type":"bytes4","internalType":"bytes4"}],"stateMutability":"nonpayable"},{"type":"function","name":"proposeMovement","inputs":[{"name":"origin","type":"address","internalType":"address"},{"name":"typeOfMovement","type":"uint256","internalType":"uint256"},{"name":"node_","type":"uint256","internalType":"uint256"},{"name":"expiresInDays","type":"uint256","internalType":"uint256"},{"name":"executingAccount","type":"address","internalType":"address"},{"name":"descriptionHash","type":"bytes32","internalType":"bytes32"},{"name":"data","type":"tuple","internalType":"struct SafeTx","components":[{"name":"to","type":"address","internalType":"address"},{"name":"value","type":"uint256","internalType":"uint256"},{"name":"data","type":"bytes","internalType":"bytes"},{"name":"operation","type":"uint8","internalType":"uint8"},{"name":"safeTxGas","type":"uint256","internalType":"uint256"},{"name":"baseGas","type":"uint256","internalType":"uint256"},{"name":"gasPrice","type":"uint256","internalType":"uint256"},{"name":"gasToken","type":"address","internalType":"address"},{"name":"refundReceiver","type":"address","internalType":"address"}]}],"outputs":[{"name":"movementHash","type":"bytes32","internalType":"bytes32"}],"stateMutability":"nonpayable"},{"type":"function","name":"removeLatentAction","inputs":[{"name":"actionHash_","type":"bytes32","internalType":"bytes32"}],"outputs":[],"stateMutability":"nonpayable"},{"type":"function","name":"removeSignature","inputs":[{"name":"sigHash_","type":"bytes32","internalType":"bytes32"},{"name":"index_","type":"uint256","internalType":"uint256"},{"name":"who_","type":"address","internalType":"address"}],"outputs":[],"stateMutability":"nonpayable"},{"type":"function","name":"setBagBook","inputs":[{"name":"bb_","type":"address","internalType":"address"}],"outputs":[],"stateMutability":"nonpayable"},{"type":"function","name":"setFoundationAgent","inputs":[{"name":"baseNodeId_","type":"uint256","internalType":"uint256"}],"outputs":[],"stateMutability":"nonpayable"},{"type":"function","name":"submitSignatures","inputs":[{"name":"sigHash","type":"bytes32","internalType":"bytes32"},{"name":"signers","type":"address[]","internalType":"address[]"},{"name":"signatures","type":"bytes[]","internalType":"bytes[]"}],"outputs":[],"stateMutability":"nonpayable"},{"type":"function","name":"supportsInterface","inputs":[{"name":"interfaceID","type":"bytes4","internalType":"bytes4"}],"outputs":[{"name":"","type":"bool","internalType":"bool"}],"stateMutability":"view"},{"type":"event","name":"BagBokSet","inputs":[{"name":"BBImplementation","type":"address","indexed":false,"internalType":"address"}],"anonymous":false},{"type":"event","name":"EndpointCreatedForAgent","inputs":[{"name":"nodeid","type":"uint256","indexed":true,"internalType":"uint256"},{"name":"endpoint","type":"address","indexed":false,"internalType":"address"},{"name":"agent","type":"address","indexed":false,"internalType":"address"}],"anonymous":false},{"type":"event","name":"NewMovementCreated","inputs":[{"name":"movementHash","type":"bytes32","indexed":true,"internalType":"bytes32"},{"name":"node_","type":"uint256","indexed":true,"internalType":"uint256"}],"anonymous":false},{"type":"error","name":"AlreadyHasEndpoint","inputs":[]},{"type":"error","name":"AlreadyInit","inputs":[]},{"type":"error","name":"AlreadyInitialized","inputs":[]},{"type":"error","name":"AlreadySigned","inputs":[]},{"type":"error","name":"EXEC_A0sig","inputs":[]},{"type":"error","name":"EXEC_InProgress","inputs":[]},{"type":"error","name":"EXEC_NoDescription","inputs":[]},{"type":"error","name":"EXEC_NoType","inputs":[]},{"type":"error","name":"EXEC_OnlyMore","inputs":[]},{"type":"error","name":"EXEC_OnlySigner","inputs":[]},{"type":"error","name":"EXEC_SQInvalid","inputs":[]},{"type":"error","name":"EXEC_SafeExeF","inputs":[]},{"type":"error","name":"EXEC_ZeroLen","inputs":[]},{"type":"error","name":"EmptyUnallowed","inputs":[]},{"type":"error","name":"ExpiredMovement","inputs":[]},{"type":"error","name":"ExpiredQueue","inputs":[]},{"type":"error","name":"InvalidQueue","inputs":[]},{"type":"error","name":"LenErr","inputs":[]},{"type":"error","name":"NoMembersForNode","inputs":[]},{"type":"error","name":"NoType","inputs":[]},{"type":"error","name":"NotExeAccOwner","inputs":[]},{"type":"error","name":"NotNodeMember","inputs":[]},{"type":"error","name":"OnlyFun","inputs":[]},{"type":"error","name":"UnavailableState","inputs":[]},{"type":"error","name":"UninitQueue","inputs":[]}],"bytecode":{"object":"0x60806040523480156200001157600080fd5b5060405162004b7a38038062004b7a833981016040819052620000349162000175565b6040516375d3f84960e01b815246600482015273__$6171384561defaf758ec6f635e0dea650e$__906375d3f84990602401602060405180830381865af415801562000084573d6000803e3d6000fd5b505050506040513d601f19601f82011682018060405250810190620000aa919062000175565b600080546001600160a01b0319166001600160a01b03929092169190911790556040516333a2675760e21b815246600482015273__$6171384561defaf758ec6f635e0dea650e$__9063ce899d5c90602401602060405180830381865af41580156200011a573d6000803e3d6000fd5b505050506040513d601f19601f8201168201806040525081019062000140919062000175565b600180546001600160a01b039283166001600160a01b03199182161790915560028054939092169216919091179055620001a7565b6000602082840312156200018857600080fd5b81516001600160a01b0381168114620001a057600080fd5b9392505050565b6149c380620001b76000396000f3fe608060405234801561001057600080fd5b506004361061010c5760003560e01c80636fa9bed11161009d5780636fa9bed11461023c578063951181541461024f578063a0017a7d1461026f578063ab024d7014610282578063bc197c8114610295578063e7b40a8d146101f2578063e7dd3117146102d0578063eb3b3963146102e3578063ee65ef31146102f6578063f23a6e611461030957600080fd5b806301ffc9a7146101115780631626ba7e1461013a5780631edd0d5b1461016657806320c13b0b1461017957806322c80a241461018c57806342285d5f146101a157806347ac8cb4146101b45780635831122a146101df57806360b27e11146101f25780636640f75814610229575b600080fd5b61012561011f366004613ae6565b50600090565b60405190151581526020015b60405180910390f35b61014d610148366004613c03565b610342565b6040516001600160e01b03199091168152602001610131565b610125610174366004613c49565b61037e565b61014d610187366004613c62565b61081f565b61019f61019a366004613c49565b61083f565b005b61019f6101af366004613c49565b610882565b6101c76101c2366004613ce0565b610c08565b6040516001600160a01b039091168152602001610131565b61019f6101ed366004613dcf565b610e78565b61021b610200366004613e9b565b6001600160a01b031660009081526008602052604090205490565b604051908152602001610131565b6003546101c7906001600160a01b031681565b6004546101c7906001600160a01b031681565b61026261025d366004613c49565b6117b5565b604051610131919061405f565b61019f61027d366004613e9b565b611af2565b61021b610290366004614135565b611b8b565b61014d6102a33660046142e4565b7fbc197c819b3e337a6f9652dd10becd7eef83032af3b9d958d3d42f669414662198975050505050505050565b6101256102de366004613c49565b61224c565b61019f6102f13660046143a2565b61282b565b6002546101c7906001600160a01b031681565b61014d6103173660046143d0565b7ff23a6e612e1ff4830e658fe43f4e3cb4a5f8170bd5d9e69fb5d7a7fa9e4fdf979695505050505050565b6000600260008481526006602052604090205460ff16600481111561036957610369613eb8565b036103785750630b135d3f60e11b5b92915050565b6004546000906001600160a01b031633146103ac576040516366e928db60e11b815260040160405180910390fd5b60006103b783612dd6565b90506002815160048111156103ce576103ce613eb8565b146103ec5760405163a29b1f1160e01b815260040160405180910390fd5b42816020015160800151116104145760405163c26b3e3760e01b815260040160405180910390fd5b6040805130602082810191909152604192820192909252600060608201819052608082019290925260a0810185905260c00160408051601f198184030181528282526020858101518084015160c080830151805181860151828901516060840151608085015160a08601519686015160e09096015160025463057ff68760e51b8f529c519b9e50989c6001600160a01b039889169c63e86637db9c969b959a949993989297929692959316928d9263affed0e09260048082019392918290030181865afa1580156104e9573d6000803e3d6000fd5b505050506040513d601f19601f8201168201806040525081019061050d919061444b565b6040518b63ffffffff1660e01b81526004016105329a99989796959493929190614464565b600060405180830381865afa15801561054f573d6000803e3d6000fd5b505050506040513d6000823e601f3d908101601f1916820160405261057791908101906144d3565b80516020918201206005558381015160409081015160c080850151805194810151818501516060830151608084015160a08501519585015160e090950151600254985163353b090160e11b81526001600160a01b039889169a636a7612029a6105f49a919997989697959694959493929116908e90600401614549565b6020604051808303816000875af1158015610613573d6000803e3d6000fd5b505050506040513d601f19601f8201168201806040525081019061063791906145c9565b93508361065757604051637d5128e760e01b815260040160405180910390fd5b60006005819055600384528581526006602052604090208351815485929190829060ff1916600183600481111561069057610690613eb8565b02179055506020820151805160018084018054909291839160ff1916908360028111156106bf576106bf613eb8565b021790555060208281015182546001600160a01b0391821661010002610100600160a81b03199091161783556040808501516001850180549184166001600160a01b0319928316179055606086015160028601556080860151600386015560a0860151600486015560c08601518051600587018054919095169216919091178355928301516006850155820151600784019061075b9082614674565b50606082015160038201805460ff191660ff9092169190911790556080820151600482015560a0820151600582015560c0820151600682015560e08201516007820180546001600160a01b03199081166001600160a01b0393841617909155610100909301516008909201805490931691161790555050604082015180516107ed91600f8401916020909101906138ce565b5060608201518051610809916010840191602090910190613933565b5060808201518160110155905050505050919050565b600082805190602001206005540361037857506320c13b0b60e01b610378565b6003546001600160a01b03161561085557600080fd5b61085f30826134bf565b600380546001600160a01b0319166001600160a01b039290921691909117905550565b600081815260066020526040808220815160a081019092528054829060ff1660048111156108b2576108b2613eb8565b60048111156108c3576108c3613eb8565b81526040805160e08101909152600183018054602090930192829060ff1660028111156108f2576108f2613eb8565b600281111561090357610903613eb8565b815281546001600160a01b036101009091048116602080840191909152600184015482166040808501919091526002850154606085015260038501546080850152600485015460a0850152805161012081018252600586018054909416815260068601549281019290925260078501805460c0909501949293929184019161098a906145eb565b80601f01602080910402602001604051908101604052809291908181526020018280546109b6906145eb565b8015610a035780601f106109d857610100808354040283529160200191610a03565b820191906000526020600020905b8154815290600101906020018083116109e657829003601f168201915b5050509183525050600382015460ff166020808301919091526004830154604080840191909152600584015460608401526006840154608084015260078401546001600160a01b0390811660a085015260089094015490931660c09092019190915291909252928452600f85018054825181860281018601909352808352948401949193909250830182828015610ac357602002820191906000526020600020905b81546001600160a01b03168152600190910190602001808311610aa5575b5050505050815260200160108201805480602002602001604051908101604052809291908181526020016000905b82821015610b9d578382906000526020600020018054610b10906145eb565b80601f0160208091040260200160405190810160405280929190818152602001828054610b3c906145eb565b8015610b895780601f10610b5e57610100808354040283529160200191610b89565b820191906000526020600020905b815481529060010190602001808311610b6c57829003601f168201915b505050505081526020019060010190610af1565b50505090825250601191909101546020909101529050600181516004811115610bc857610bc8613eb8565b1480610be65750600281516004811115610be457610be4613eb8565b145b15610c045760405163e4fb146b60e01b815260040160405180910390fd5b5050565b6004546000906001600160a01b03163314801590610c3957506000356001600160e01b0319166308b2028960e21b14155b15610c57576040516366e928db60e11b815260040160405180910390fd5b600480546040516385752d0360e01b81526001600160a01b03909116916385752d0391610c88918891889101614733565b602060405180830381865afa158015610ca5573d6000803e3d6000fd5b505050506040513d601f19601f82011682018060405250810190610cc991906145c9565b610ce6576040516359c5ba6f60e11b815260040160405180910390fd5b60096000610cfd6001600160a01b03851686614762565b815260208101919091526040016000205460ff1615610d2f57604051633844cea560e01b815260040160405180910390fd5b600160096000610d486001600160a01b03861687614762565b81526020810191909152604001600020805460ff1916911515919091179055610d7184846134bf565b60408051600180825281830190925291925060009190602080830190803683370190505090508281600081518110610dab57610dab614775565b60200260200101906001600160a01b031690816001600160a01b031681525050816001600160a01b031663b63e800d826001600042886001600160a01b0316610df4919061478b565b604051602001610e0691815260200190565b60405160208183030381529060405260008060008b6040518963ffffffff1660e01b8152600401610e3e98979695949392919061479e565b600060405180830381600087803b158015610e5857600080fd5b505af1158015610e6c573d6000803e3d6000fd5b50505050509392505050565b6004546001600160a01b03163314610ea3576040516366e928db60e11b815260040160405180910390fd5b600083815260066020526040808220815160a081019092528054829060ff166004811115610ed357610ed3613eb8565b6004811115610ee457610ee4613eb8565b81526040805160e08101909152600183018054602090930192829060ff166002811115610f1357610f13613eb8565b6002811115610f2457610f24613eb8565b815281546001600160a01b036101009091048116602080840191909152600184015482166040808501919091526002850154606085015260038501546080850152600485015460a0850152805161012081018252600586018054909416815260068601549281019290925260078501805460c09095019492939291840191610fab906145eb565b80601f0160208091040260200160405190810160405280929190818152602001828054610fd7906145eb565b80156110245780601f10610ff957610100808354040283529160200191611024565b820191906000526020600020905b81548152906001019060200180831161100757829003601f168201915b5050509183525050600382015460ff166020808301919091526004830154604080840191909152600584015460608401526006840154608084015260078401546001600160a01b0390811660a085015260089094015490931660c09092019190915291909252928452600f850180548251818602810186019093528083529484019491939092508301828280156110e457602002820191906000526020600020905b81546001600160a01b031681526001909101906020018083116110c6575b5050505050815260200160108201805480602002602001604051908101604052809291908181526020016000905b828210156111be578382906000526020600020018054611131906145eb565b80601f016020809104026020016040519081016040528092919081815260200182805461115d906145eb565b80156111aa5780601f1061117f576101008083540402835291602001916111aa565b820191906000526020600020905b81548152906001019060200180831161118d57829003601f168201915b505050505081526020019060010190611112565b5050505081526020016011820154815250509050806060015151825110156111f9576040516334f8d9d160e01b815260040160405180910390fd5b815183516112079190614809565b6000036112275760405163dcdd869160e01b815260040160405180910390fd5b8151835114611249576040516302be566360e01b815260040160405180910390fd5b6000808451600161125a9190614762565b6001600160401b0381111561127157611271613b17565b60405190808252806020026020018201604052801561129a578160200160208202803683370190505b5090505b84518210156114c15760006001600160a01b03168583815181106112c4576112c4614775565b60200260200101516001600160a01b0316036112f357604051634dd74a5960e01b815260040160405180910390fd5b6009600086848151811061130957611309614775565b60200260200101516001600160a01b03168860001c611328919061478b565b815260208101919091526040016000205460ff16156113515761134a82614820565b915061129e565b60045485516001600160a01b03909116906385752d039087908590811061137a5761137a614775565b60200260200101518560200151606001516040518363ffffffff1660e01b81526004016113a8929190614733565b602060405180830381865afa1580156113c5573d6000803e3d6000fd5b505050506040513d601f19601f820116820180604052508101906113e991906145c9565b6113f65761134a82614820565b61143b85838151811061140b5761140b614775565b602002602001015161141c886135bb565b86858151811061142e5761142e614775565b60200260200101516135ee565b61146a57600081838151811061145357611453614775565b60200260200101818152505081600101915061129e565b8115611493578181838151811061148357611483614775565b60200260200101818152506114b5565b60001981600183516114a5919061478b565b8151811061145357611453614775565b5081600101915061129e565b6000915060005b81518310156115025760008284815181106114e5576114e5614775565b602002602001015111156114f7576001015b8260010192506114c8565b6060840151516115129082614762565b92506000836001600160401b0381111561152e5761152e613b17565b604051908082528060200260200182016040528015611557578160200160208202803683370190505b5090506000846001600160401b0381111561157457611574613b17565b6040519080825280602002602001820160405280156115a757816020015b60608152602001906001900390816115925790505b50905060009450600092505b83518510156117515760008486815181106115d0576115d0614775565b602002602001015190506000811180156115eb575060001981105b1561167e5788818151811061160257611602614775565b602002602001015183858151811061161c5761161c614775565b60200260200101906001600160a01b031690816001600160a01b03168152505087818151811061164e5761164e614775565b602002602001015182858151811061166857611668614775565b6020026020010181905250836001019350611745565b600019810361174557888560008151811061169b5761169b614775565b6020026020010151815181106116b3576116b3614775565b60200260200101518385815181106116cd576116cd614775565b60200260200101906001600160a01b031690816001600160a01b031681525050878560008151811061170157611701614775565b60200260200101518151811061171957611719614775565b602002602001015182858151811061173357611733614775565b60200260200101819052508360010193505b856001019550506115b3565b60408087018390526060870182905260008a815260066020908152919020835161178392600f909201918501906138ce565b50600089815260066020908152604090912082516117a992601090920191840190613933565b50505050505050505050565b6117bd613985565b60008281526006602052604090819020815160a081019092528054829060ff1660048111156117ee576117ee613eb8565b60048111156117ff576117ff613eb8565b81526040805160e08101909152600183018054602090930192829060ff16600281111561182e5761182e613eb8565b600281111561183f5761183f613eb8565b815281546001600160a01b036101009091048116602080840191909152600184015482166040808501919091526002850154606085015260038501546080850152600485015460a0850152805161012081018252600586018054909416815260068601549281019290925260078501805460c090950194929392918401916118c6906145eb565b80601f01602080910402602001604051908101604052809291908181526020018280546118f2906145eb565b801561193f5780601f106119145761010080835404028352916020019161193f565b820191906000526020600020905b81548152906001019060200180831161192257829003601f168201915b5050509183525050600382015460ff166020808301919091526004830154604080840191909152600584015460608401526006840154608084015260078401546001600160a01b0390811660a085015260089094015490931660c09092019190915291909252928452600f850180548251818602810186019093528083529484019491939092508301828280156119ff57602002820191906000526020600020905b81546001600160a01b031681526001909101906020018083116119e1575b5050505050815260200160108201805480602002602001604051908101604052809291908181526020016000905b82821015611ad9578382906000526020600020018054611a4c906145eb565b80601f0160208091040260200160405190810160405280929190818152602001828054611a78906145eb565b8015611ac55780601f10611a9a57610100808354040283529160200191611ac5565b820191906000526020600020905b815481529060010190602001808311611aa857829003601f168201915b505050505081526020019060010190611a2d565b5050505081526020016011820154815250509050919050565b6004546001600160a01b0316611b1e57600480546001600160a01b0319166001600160a01b0383161790555b6003546001600160a01b03163303611b4c57600480546001600160a01b0319166001600160a01b0383161790555b6040516001600160a01b03821681527f55380dc97c7765ffedeb2df353f73b746a5346538e54cc5bf36fa319337802a19060200160405180910390a150565b6004546000906001600160a01b03163314611bb9576040516366e928db60e11b815260040160405180910390fd5b6002871115611bdb576040516355a8e14b60e01b815260040160405180910390fd5b600480546040516385752d0360e01b81526001600160a01b03909116916385752d0391611c0c918c918b9101614733565b602060405180830381865afa158015611c29573d6000803e3d6000fd5b505050506040513d601f19601f82011682018060405250810190611c4d91906145c9565b611c6a576040516359c5ba6f60e11b815260040160405180910390fd5b84611c758789614809565b611c7f9190614809565b600003611c9f57604051631512b5fb60e31b815260040160405180910390fd5b6000839003611cc1576040516375547cfb60e11b815260040160405180910390fd5b60606001600160a01b038516611ef857611cdb89886134bf565b6001600160a01b038116600090815260086020526040902088905594506001889003611d99576004805460405163eef2e75760e01b81529182018990526001600160a01b03169063eef2e75790602401600060405180830381865afa158015611d48573d6000803e3d6000fd5b505050506040513d6000823e601f3d908101601f19168201604052611d709190810190614839565b90508051600003611d9457604051632c63fc0560e01b815260040160405180910390fd5b611dee565b60408051600180825281830190925290602080830190803683370190505090503081600081518110611dcd57611dcd614775565b60200260200101906001600160a01b031690816001600160a01b0316815250505b846001600160a01b031663b63e800d8260028451611e0c91906148d2565b611e17906001614762565b6000611e23428d61478b565b604051602001611e3591815260200190565b6040516020818303038152906040526000806000306001600160a01b03168a600081518110611e6657611e66614775565b60200260200101516001600160a01b031614611e9c5789600081518110611e8f57611e8f614775565b6020026020010151611e9e565b8d5b6040518963ffffffff1660e01b8152600401611ec198979695949392919061479e565b600060405180830381600087803b158015611edb57600080fd5b505af1158015611eef573d6000803e3d6000fd5b50505050611f30565b6001600160a01b0385166000908152600860205260409020548714611f305760405163b311ec0360e01b815260040160405180910390fd5b611f386139ba565b3360208201526060810188905260a0810185905260c081018490526001600160a01b038616604082015242611f708862015180614809565b611f7a9190614762565b608082015260018914611f8e576002611f91565b60015b81906002811115611fa457611fa4613eb8565b90816002811115611fb757611fb7613eb8565b905250604051611fcb9082906020016148f4565b60408051601f19818403018152918152815160209283012060008b815260078452918220805460018101825590835292909120909101819055925061200e613985565b60018152602080820183905260008581526006909152604081205460ff16600481111561203d5761203d613eb8565b1461205a5760405162dc149f60e41b815260040160405180910390fd5b60008481526006602052604090208151815483929190829060ff1916600183600481111561208a5761208a613eb8565b02179055506020820151805160018084018054909291839160ff1916908360028111156120b9576120b9613eb8565b021790555060208281015182546001600160a01b0391821661010002610100600160a81b03199091161783556040808501516001850180549184166001600160a01b0319928316179055606086015160028601556080860151600386015560a0860151600486015560c0860151805160058701805491909516921691909117835592830151600685015582015160078401906121559082614674565b50606082015160038201805460ff191660ff9092169190911790556080820151600482015560a0820151600582015560c0820151600682015560e08201516007820180546001600160a01b03199081166001600160a01b0393841617909155610100909301516008909201805490931691161790555050604082015180516121e791600f8401916020909101906138ce565b5060608201518051612203916010840191602090910190613933565b5060809190910151601190910155604051899085907f9c2020804817db931ea18693c6fc487ae1cb81b49567ffec2006e5cc4a0b797890600090a3505050979650505050505050565b600081815260066020526040808220815160a08101909252805483929190829060ff16600481111561228057612280613eb8565b600481111561229157612291613eb8565b81526040805160e08101909152600183018054602090930192829060ff1660028111156122c0576122c0613eb8565b60028111156122d1576122d1613eb8565b815281546001600160a01b036101009091048116602080840191909152600184015482166040808501919091526002850154606085015260038501546080850152600485015460a0850152805161012081018252600586018054909416815260068601549281019290925260078501805460c09095019492939291840191612358906145eb565b80601f0160208091040260200160405190810160405280929190818152602001828054612384906145eb565b80156123d15780601f106123a6576101008083540402835291602001916123d1565b820191906000526020600020905b8154815290600101906020018083116123b457829003601f168201915b5050509183525050600382015460ff166020808301919091526004830154604080840191909152600584015460608401526006840154608084015260078401546001600160a01b0390811660a085015260089094015490931660c09092019190915291909252928452600f8501805482518186028101860190935280835294840194919390925083018282801561249157602002820191906000526020600020905b81546001600160a01b03168152600190910190602001808311612473575b5050505050815260200160108201805480602002602001604051908101604052809291908181526020016000905b8282101561256b5783829060005260206000200180546124de906145eb565b80601f016020809104026020016040519081016040528092919081815260200182805461250a906145eb565b80156125575780601f1061252c57610100808354040283529160200191612557565b820191906000526020600020905b81548152906001019060200180831161253a57829003601f168201915b5050505050815260200190600101906124bf565b505050908252506011919091015460209091015290506000602082015151600281111561259a5761259a613eb8565b036125a85750600092915050565b6002815160048111156125bd576125bd613eb8565b036125cb5750600192915050565b6004815160048111156125e0576125e0613eb8565b036125ee5750600092915050565b60018151600481111561260357612603613eb8565b146126115750600092915050565b6040810151606082015160009182918261262a886135bb565b90505b81518510156127885760006001600160a01b031683868151811061265357612653614775565b60200260200101516001600160a01b0316036126795761267285614820565b945061262d565b6126a983868151811061268e5761268e614775565b60200260200101518284888151811061142e5761142e614775565b6126bb57506000979650505050505050565b600260208701515160028111156126d4576126d4613eb8565b0361277d5760045483516001600160a01b039091169062fdd58e9085908890811061270157612701614775565b60200260200101518860200151606001516040518363ffffffff1660e01b815260040161272f929190614733565b602060405180830381865afa15801561274c573d6000803e3d6000fd5b505050506040513d601f19601f82011682018060405250810190612770919061444b565b61277a9085614762565b93505b84600101945061262d565b831561281d576004805460208801516060015160405163bd85b03960e01b8152928301526002916001600160a01b039091169063bd85b03990602401602060405180830381865afa1580156127e1573d6000803e3d6000fd5b505050506040513d601f19601f82011682018060405250810190612805919061444b565b61280f91906148d2565b909311979650505050505050565b506001979650505050505050565b6004546001600160a01b03163314612856576040516366e928db60e11b815260040160405180910390fd5b600083815260066020526040808220815160a081019092528054829060ff16600481111561288657612886613eb8565b600481111561289757612897613eb8565b81526040805160e08101909152600183018054602090930192829060ff1660028111156128c6576128c6613eb8565b60028111156128d7576128d7613eb8565b815281546001600160a01b036101009091048116602080840191909152600184015482166040808501919091526002850154606085015260038501546080850152600485015460a0850152805161012081018252600586018054909416815260068601549281019290925260078501805460c0909501949293929184019161295e906145eb565b80601f016020809104026020016040519081016040528092919081815260200182805461298a906145eb565b80156129d75780601f106129ac576101008083540402835291602001916129d7565b820191906000526020600020905b8154815290600101906020018083116129ba57829003601f168201915b5050509183525050600382015460ff166020808301919091526004830154604080840191909152600584015460608401526006840154608084015260078401546001600160a01b0390811660a085015260089094015490931660c09092019190915291909252928452600f85018054825181860281018601909352808352948401949193909250830182828015612a9757602002820191906000526020600020905b81546001600160a01b03168152600190910190602001808311612a79575b5050505050815260200160108201805480602002602001604051908101604052809291908181526020016000905b82821015612b71578382906000526020600020018054612ae4906145eb565b80601f0160208091040260200160405190810160405280929190818152602001828054612b10906145eb565b8015612b5d5780601f10612b3257610100808354040283529160200191612b5d565b820191906000526020600020905b815481529060010190602001808311612b4057829003601f168201915b505050505081526020019060010190612ac5565b5050505081526020016011820154815250509050816001600160a01b031681604001518481518110612ba557612ba5614775565b60200260200101516001600160a01b031614612bd45760405163490be95360e11b815260040160405180910390fd5b80606001518381518110612bea57612bea614775565b60200260200101606081525080604001518381518110612c0c57612c0c614775565b6000602091820292909201810182905285825260069052604090208151815483929190829060ff19166001836004811115612c4957612c49613eb8565b02179055506020820151805160018084018054909291839160ff191690836002811115612c7857612c78613eb8565b021790555060208281015182546001600160a01b0391821661010002610100600160a81b03199091161783556040808501516001850180549184166001600160a01b0319928316179055606086015160028601556080860151600386015560a0860151600486015560c086015180516005870180549190951692169190911783559283015160068501558201516007840190612d149082614674565b50606082015160038201805460ff191660ff9092169190911790556080820151600482015560a0820151600582015560c0820151600682015560e08201516007820180546001600160a01b03199081166001600160a01b039384161790915561010090930151600890920180549093169116179055505060408201518051612da691600f8401916020909101906138ce565b5060608201518051612dc2916010840191602090910190613933565b506080820151816011015590505050505050565b612dde613985565b60008281526006602052604090819020815160a081019092528054829060ff166004811115612e0f57612e0f613eb8565b6004811115612e2057612e20613eb8565b81526040805160e08101909152600183018054602090930192829060ff166002811115612e4f57612e4f613eb8565b6002811115612e6057612e60613eb8565b815281546001600160a01b036101009091048116602080840191909152600184015482166040808501919091526002850154606085015260038501546080850152600485015460a0850152805161012081018252600586018054909416815260068601549281019290925260078501805460c09095019492939291840191612ee7906145eb565b80601f0160208091040260200160405190810160405280929190818152602001828054612f13906145eb565b8015612f605780601f10612f3557610100808354040283529160200191612f60565b820191906000526020600020905b815481529060010190602001808311612f4357829003601f168201915b5050509183525050600382015460ff166020808301919091526004830154604080840191909152600584015460608401526006840154608084015260078401546001600160a01b0390811660a085015260089094015490931660c09092019190915291909252928452600f8501805482518186028101860190935280835294840194919390925083018282801561302057602002820191906000526020600020905b81546001600160a01b03168152600190910190602001808311613002575b5050505050815260200160108201805480602002602001604051908101604052809291908181526020016000905b828210156130fa57838290600052602060002001805461306d906145eb565b80601f0160208091040260200160405190810160405280929190818152602001828054613099906145eb565b80156130e65780601f106130bb576101008083540402835291602001916130e6565b820191906000526020600020905b8154815290600101906020018083116130c957829003601f168201915b50505050508152602001906001019061304e565b505050508152602001601182015481525050905042816020015160800151116132d95760048082526000838152600660205260409020825181548493839160ff191690600190849081111561315157613151613eb8565b02179055506020820151805160018084018054909291839160ff19169083600281111561318057613180613eb8565b021790555060208281015182546001600160a01b0391821661010002610100600160a81b03199091161783556040808501516001850180549184166001600160a01b0319928316179055606086015160028601556080860151600386015560a0860151600486015560c08601518051600587018054919095169216919091178355928301516006850155820151600784019061321c9082614674565b50606082015160038201805460ff191660ff9092169190911790556080820151600482015560a0820151600582015560c0820151600682015560e08201516007820180546001600160a01b03199081166001600160a01b0393841617909155610100909301516008909201805490931691161790555050604082015180516132ae91600f8401916020909101906138ce565b50606082015180516132ca916010840191602090910190613933565b50608082015181601101559050505b6132e28261224c565b6132ff57604051631150cdbd60e11b815260040160405180910390fd5b6002815260008281526006602052604090208151815483929190829060ff1916600183600481111561333357613333613eb8565b02179055506020820151805160018084018054909291839160ff19169083600281111561336257613362613eb8565b021790555060208281015182546001600160a01b0391821661010002610100600160a81b03199091161783556040808501516001850180549184166001600160a01b0319928316179055606086015160028601556080860151600386015560a0860151600486015560c0860151805160058701805491909516921691909117835592830151600685015582015160078401906133fe9082614674565b50606082015160038201805460ff191660ff9092169190911790556080820151600482015560a0820151600582015560c0820151600682015560e08201516007820180546001600160a01b03199081166001600160a01b03938416179091556101009093015160089092018054909316911617905550506040820151805161349091600f8401916020909101906138ce565b50606082015180516134ac916010840191602090910190613933565b5060808201518160110155905050919050565b60006134ca8261364f565b9050600080356001600160e01b0319166311eb232d60e21b148061350057506000356001600160e01b0319166308b2028960e21b145b15613528576001600160a01b0382811660009081526008602052604090209085169055613544565b6001600160a01b03821660009081526008602052604090208390555b60048054604051631465471360e11b81526001600160a01b03858116938201939093526024810186905286831660448201529116906328ca8e2690606401600060405180830381600087803b15801561359c57600080fd5b505af11580156135b0573d6000803e3d6000fd5b505050505092915050565b7f19457468657265756d205369676e6564204d6573736167653a0a3332000000006000908152601c91909152603c902090565b60008060006135fd85856136e3565b9092509050600081600481111561361657613616613eb8565b1480156136345750856001600160a01b0316826001600160a01b0316145b806136455750613645868686613728565b9695505050505050565b6000805460015460408051848152602081019091526001600160a01b0392831692631688f0b9921690613682428761478b565b6040518463ffffffff1660e01b81526004016136a093929190614907565b6020604051808303816000875af11580156136bf573d6000803e3d6000fd5b505050506040513d601f19601f82011682018060405250810190610378919061493b565b60008082516041036137195760208301516040840151606085015160001a61370d87828585613814565b94509450505050613721565b506000905060025b9250929050565b6000806000856001600160a01b0316631626ba7e60e01b8686604051602401613752929190614958565b60408051601f198184030181529181526020820180516001600160e01b03166001600160e01b03199094169390931790925290516137909190614971565b600060405180830381855afa9150503d80600081146137cb576040519150601f19603f3d011682016040523d82523d6000602084013e6137d0565b606091505b50915091508180156137e457506020815110155b801561364557508051630b135d3f60e11b90613809908301602090810190840161444b565b149695505050505050565b6000806fa2a8918ca85bafe22016d0b997e4df60600160ff1b0383111561384157506000905060036138c5565b6040805160008082526020820180845289905260ff881692820192909252606081018690526080810185905260019060a0016020604051602081039080840390855afa158015613895573d6000803e3d6000fd5b5050604051601f1901519150506001600160a01b0381166138be576000600192509250506138c5565b9150600090505b94509492505050565b828054828255906000526020600020908101928215613923579160200282015b8281111561392357825182546001600160a01b0319166001600160a01b039091161782556020909201916001909101906138ee565b5061392f929150613a77565b5090565b828054828255906000526020600020908101928215613979579160200282015b8281111561397957825182906139699082614674565b5091602001919060010190613953565b5061392f929150613a8c565b6040805160a0810190915280600081526020016139a06139ba565b815260606020820181905260408201819052600091015290565b6040805160e08101909152806000815260200160006001600160a01b0316815260200160006001600160a01b03168152602001600081526020016000815260200160008019168152602001613a7260405180610120016040528060006001600160a01b031681526020016000815260200160608152602001600060ff16815260200160008152602001600081526020016000815260200160006001600160a01b0316815260200160006001600160a01b031681525090565b905290565b5b8082111561392f5760008155600101613a78565b8082111561392f576000613aa08282613aa9565b50600101613a8c565b508054613ab5906145eb565b6000825580601f10613ac5575050565b601f016020900490600052602060002090810190613ae39190613a77565b50565b600060208284031215613af857600080fd5b81356001600160e01b031981168114613b1057600080fd5b9392505050565b634e487b7160e01b600052604160045260246000fd5b60405161012081016001600160401b0381118282101715613b5057613b50613b17565b60405290565b604051601f8201601f191681016001600160401b0381118282101715613b7e57613b7e613b17565b604052919050565b60006001600160401b03821115613b9f57613b9f613b17565b50601f01601f191660200190565b600082601f830112613bbe57600080fd5b8135613bd1613bcc82613b86565b613b56565b818152846020838601011115613be657600080fd5b816020850160208301376000918101602001919091529392505050565b60008060408385031215613c1657600080fd5b8235915060208301356001600160401b03811115613c3357600080fd5b613c3f85828601613bad565b9150509250929050565b600060208284031215613c5b57600080fd5b5035919050565b60008060408385031215613c7557600080fd5b82356001600160401b0380821115613c8c57600080fd5b613c9886838701613bad565b93506020850135915080821115613cae57600080fd5b50613c3f85828601613bad565b6001600160a01b0381168114613ae357600080fd5b8035613cdb81613cbb565b919050565b600080600060608486031215613cf557600080fd5b8335613d0081613cbb565b9250602084013591506040840135613d1781613cbb565b809150509250925092565b60006001600160401b03821115613d3b57613d3b613b17565b5060051b60200190565b600082601f830112613d5657600080fd5b81356020613d66613bcc83613d22565b82815260059290921b84018101918181019086841115613d8557600080fd5b8286015b84811015613dc45780356001600160401b03811115613da85760008081fd5b613db68986838b0101613bad565b845250918301918301613d89565b509695505050505050565b600080600060608486031215613de457600080fd5b833592506020808501356001600160401b0380821115613e0357600080fd5b818701915087601f830112613e1757600080fd5b8135613e25613bcc82613d22565b81815260059190911b8301840190848101908a831115613e4457600080fd5b938501935b82851015613e6b578435613e5c81613cbb565b82529385019390850190613e49565b965050506040870135925080831115613e8357600080fd5b5050613e9186828701613d45565b9150509250925092565b600060208284031215613ead57600080fd5b8135613b1081613cbb565b634e487b7160e01b600052602160045260246000fd5b60005b83811015613ee9578181015183820152602001613ed1565b50506000910152565b60008151808452613f0a816020860160208601613ece565b601f01601f19169290920160200192915050565b6000815160038110613f3257613f32613eb8565b80845250602082015160018060a01b038082166020860152806040850151166040860152606084015160608601526080840151608086015260a084015160a086015260c0840151915060e060c08601528082511660e0860152506020810151610100818187015260408301519150610120808188015250613fb7610200870183613ef2565b91506060830151613fce61014088018260ff169052565b50608083015161016087015260a083015161018087015260c08301516101a087015260e08301516001600160a01b039081166101c08801529201519182166101e08601525b949350505050565b600081518084526020808501945080840160005b838110156140545781516001600160a01b03168752958201959082019060010161402f565b509495945050505050565b6000602080835283516005811061407857614078613eb8565b838201528381015160a0604085015261409460c0850182613f1e565b90506040850151601f19808684030160608701526140b2838361401b565b60608801518782038301608089015280518083529194508501925084840190600581901b8501860160005b8281101561410957848783030184526140f7828751613ef2565b958801959388019391506001016140dd565b5060808a015160a08a01528097505050505050505092915050565b803560ff81168114613cdb57600080fd5b600080600080600080600060e0888a03121561415057600080fd5b873561415b81613cbb565b9650602088013595506040880135945060608801359350608088013561418081613cbb565b925060a0880135915060c08801356001600160401b03808211156141a357600080fd5b90890190610120828c0312156141b857600080fd5b6141c0613b2d565b6141c983613cd0565b8152602083013560208201526040830135828111156141e757600080fd5b6141f38d828601613bad565b60408301525061420560608401614124565b60608201526080830135608082015260a083013560a082015260c083013560c082015261423460e08401613cd0565b60e08201526101009150614249828401613cd0565b8282015280935050505092959891949750929550565b60008083601f84011261427157600080fd5b5081356001600160401b0381111561428857600080fd5b6020830191508360208260051b850101111561372157600080fd5b60008083601f8401126142b557600080fd5b5081356001600160401b038111156142cc57600080fd5b60208301915083602082850101111561372157600080fd5b60008060008060008060008060a0898b03121561430057600080fd5b883561430b81613cbb565b9750602089013561431b81613cbb565b965060408901356001600160401b038082111561433757600080fd5b6143438c838d0161425f565b909850965060608b013591508082111561435c57600080fd5b6143688c838d0161425f565b909650945060808b013591508082111561438157600080fd5b5061438e8b828c016142a3565b999c989b5096995094979396929594505050565b6000806000606084860312156143b757600080fd5b83359250602084013591506040840135613d1781613cbb565b60008060008060008060a087890312156143e957600080fd5b86356143f481613cbb565b9550602087013561440481613cbb565b9450604087013593506060870135925060808701356001600160401b0381111561442d57600080fd5b61443989828a016142a3565b979a9699509497509295939492505050565b60006020828403121561445d57600080fd5b5051919050565b6001600160a01b038b81168252602082018b9052610140604083018190526000916144918483018d613ef2565b60ff9b909b1660608501526080840199909952505060a081019590955260c085019390935290841660e084015290921661010082015261012001529392505050565b6000602082840312156144e557600080fd5b81516001600160401b038111156144fb57600080fd5b8201601f8101841361450c57600080fd5b805161451a613bcc82613b86565b81815285602083850101111561452f57600080fd5b614540826020830160208601613ece565b95945050505050565b6001600160a01b038b81168252602082018b9052610140604083018190526000916145768483018d613ef2565b915060ff8b1660608501528960808501528860a08501528760c085015280871660e0850152808616610100850152508281036101208401526145b88185613ef2565b9d9c50505050505050505050505050565b6000602082840312156145db57600080fd5b81518015158114613b1057600080fd5b600181811c908216806145ff57607f821691505b60208210810361461f57634e487b7160e01b600052602260045260246000fd5b50919050565b601f82111561466f57600081815260208120601f850160051c8101602086101561464c5750805b601f850160051c820191505b8181101561466b57828155600101614658565b5050505b505050565b81516001600160401b0381111561468d5761468d613b17565b6146a18161469b84546145eb565b84614625565b602080601f8311600181146146d657600084156146be5750858301515b600019600386901b1c1916600185901b17855561466b565b600085815260208120601f198616915b82811015614705578886015182559484019460019091019084016146e6565b50858210156147235787850151600019600388901b60f8161c191681555b5050505050600190811b01905550565b6001600160a01b03929092168252602082015260400190565b634e487b7160e01b600052601160045260246000fd5b808201808211156103785761037861474c565b634e487b7160e01b600052603260045260246000fd5b818103818111156103785761037861474c565b60006101008083526147b28184018c61401b565b602084018b90526001600160a01b038a8116604086015284820360608601529091506147de828a613ef2565b978116608085015295861660a0840152505060c081019290925290911660e090910152949350505050565b80820281158282048414176103785761037861474c565b6000600182016148325761483261474c565b5060010190565b6000602080838503121561484c57600080fd5b82516001600160401b0381111561486257600080fd5b8301601f8101851361487357600080fd5b8051614881613bcc82613d22565b81815260059190911b820183019083810190878311156148a057600080fd5b928401925b828410156148c75783516148b881613cbb565b825292840192908401906148a5565b979650505050505050565b6000826148ef57634e487b7160e01b600052601260045260246000fd5b500490565b602081526000613b106020830184613f1e565b6001600160a01b038416815260606020820181905260009061492b90830185613ef2565b9050826040830152949350505050565b60006020828403121561494d57600080fd5b8151613b1081613cbb565b8281526040602082015260006140136040830184613ef2565b60008251614983818460208701613ece565b919091019291505056fea264697066735822122020b2e8c39c24f11aaeb0e408f6d2c81b04bd96e218933dc9f9c71fecb2b1cfc064736f6c63430008140033","linkReferences":{"src/info/GnosisSafeFactory.sol":{"SafeFactoryAddresses":[{"start":73,"length":20},{"start":223,"length":20}]}}},"methodIdentifiers":{"BagBok()":"6fa9bed1","FoundationAgent()":"6640f758","RootValueToken()":"ee65ef31","createEndpointForOwner(address,uint256,address)":"47ac8cb4","endpointOwner(address)":"60b27e11","exeAccountOwner(address)":"e7b40a8d","executeQueue(bytes32)":"1edd0d5b","getSigQueue(bytes32)":"95118154","isQueueValid(bytes32)":"e7dd3117","isValidSignature(bytes,bytes)":"20c13b0b","isValidSignature(bytes32,bytes)":"1626ba7e","onERC1155BatchReceived(address,address,uint256[],uint256[],bytes)":"bc197c81","onERC1155Received(address,address,uint256,uint256,bytes)":"f23a6e61","proposeMovement(address,uint256,uint256,uint256,address,bytes32,(address,uint256,bytes,uint8,uint256,uint256,uint256,address,address))":"ab024d70","removeLatentAction(bytes32)":"42285d5f","removeSignature(bytes32,uint256,address)":"eb3b3963","setBagBook(address)":"a0017a7d","setFoundationAgent(uint256)":"22c80a24","submitSignatures(bytes32,address[],bytes[])":"5831122a","supportsInterface(bytes4)":"01ffc9a7"},"storageLayout":{"storage":[{"astId":53151,"contract":"src/Execution.sol:Execution","label":"SafeFactory","offset":0,"slot":"0","type":"t_contract(ISafeFactory)60364"},{"astId":53153,"contract":"src/Execution.sol:Execution","label":"Singleton","offset":0,"slot":"1","type":"t_address"},{"astId":53236,"contract":"src/Execution.sol:Execution","label":"RootValueToken","offset":0,"slot":"2","type":"t_address"},{"astId":53238,"contract":"src/Execution.sol:Execution","label":"FoundationAgent","offset":0,"slot":"3","type":"t_address"},{"astId":53241,"contract":"src/Execution.sol:Execution","label":"BagBok","offset":0,"slot":"4","type":"t_contract(IFun)59833"},{"astId":53243,"contract":"src/Execution.sol:Execution","label":"currentTxHash","offset":0,"slot":"5","type":"t_bytes32"},{"astId":53325,"contract":"src/Execution.sol:Execution","label":"getSigQueueByHash","offset":0,"slot":"6","type":"t_mapping(t_bytes32,t_struct(SignatureQueue)59633_storage)"},{"astId":53331,"contract":"src/Execution.sol:Execution","label":"latentActions","offset":0,"slot":"7","type":"t_mapping(t_uint256,t_array(t_bytes32)dyn_storage)"},{"astId":53336,"contract":"src/Execution.sol:Execution","label":"engineOwner","offset":0,"slot":"8","type":"t_mapping(t_address,t_uint256)"},{"astId":53341,"contract":"src/Execution.sol:Execution","label":"hasEndpointOrInteraction","offset":0,"slot":"9","type":"t_mapping(t_uint256,t_bool)"}],"types":{"t_address":{"encoding":"inplace","label":"address","numberOfBytes":"20"},"t_array(t_address)dyn_storage":{"encoding":"dynamic_array","label":"address[]","numberOfBytes":"32","base":"t_address"},"t_array(t_bytes32)dyn_storage":{"encoding":"dynamic_array","label":"bytes32[]","numberOfBytes":"32","base":"t_bytes32"},"t_array(t_bytes_storage)dyn_storage":{"encoding":"dynamic_array","label":"bytes[]","numberOfBytes":"32","base":"t_bytes_storage"},"t_bool":{"encoding":"inplace","label":"bool","numberOfBytes":"1"},"t_bytes32":{"encoding":"inplace","label":"bytes32","numberOfBytes":"32"},"t_bytes_storage":{"encoding":"bytes","label":"bytes","numberOfBytes":"32"},"t_contract(IFun)59833":{"encoding":"inplace","label":"contract IFun","numberOfBytes":"20"},"t_contract(ISafeFactory)60364":{"encoding":"inplace","label":"contract ISafeFactory","numberOfBytes":"20"},"t_enum(MovementType)59576":{"encoding":"inplace","label":"enum MovementType","numberOfBytes":"1"},"t_enum(SQState)59572":{"encoding":"inplace","label":"enum SQState","numberOfBytes":"1"},"t_mapping(t_address,t_uint256)":{"encoding":"mapping","key":"t_address","label":"mapping(address => uint256)","numberOfBytes":"32","value":"t_uint256"},"t_mapping(t_bytes32,t_struct(SignatureQueue)59633_storage)":{"encoding":"mapping","key":"t_bytes32","label":"mapping(bytes32 => struct SignatureQueue)","numberOfBytes":"32","value":"t_struct(SignatureQueue)59633_storage"},"t_mapping(t_uint256,t_array(t_bytes32)dyn_storage)":{"encoding":"mapping","key":"t_uint256","label":"mapping(uint256 => bytes32[])","numberOfBytes":"32","value":"t_array(t_bytes32)dyn_storage"},"t_mapping(t_uint256,t_bool)":{"encoding":"mapping","key":"t_uint256","label":"mapping(uint256 => bool)","numberOfBytes":"32","value":"t_bool"},"t_struct(Movement)59617_storage":{"encoding":"inplace","label":"struct Movement","numberOfBytes":"448","members":[{"astId":59598,"contract":"src/Execution.sol:Execution","label":"category","offset":0,"slot":"0","type":"t_enum(MovementType)59576"},{"astId":59601,"contract":"src/Execution.sol:Execution","label":"initiatior","offset":1,"slot":"0","type":"t_address"},{"astId":59604,"contract":"src/Execution.sol:Execution","label":"exeAccount","offset":0,"slot":"1","type":"t_address"},{"astId":59607,"contract":"src/Execution.sol:Execution","label":"viaNode","offset":0,"slot":"2","type":"t_uint256"},{"astId":59610,"contract":"src/Execution.sol:Execution","label":"expiresAt","offset":0,"slot":"3","type":"t_uint256"},{"astId":59612,"contract":"src/Execution.sol:Execution","label":"descriptionHash","offset":0,"slot":"4","type":"t_bytes32"},{"astId":59616,"contract":"src/Execution.sol:Execution","label":"txData","offset":0,"slot":"5","type":"t_struct(SafeTx)59595_storage"}]},"t_struct(SafeTx)59595_storage":{"encoding":"inplace","label":"struct SafeTx","numberOfBytes":"288","members":[{"astId":59578,"contract":"src/Execution.sol:Execution","label":"to","offset":0,"slot":"0","type":"t_address"},{"astId":59580,"contract":"src/Execution.sol:Execution","label":"value","offset":0,"slot":"1","type":"t_uint256"},{"astId":59582,"contract":"src/Execution.sol:Execution","label":"data","offset":0,"slot":"2","type":"t_bytes_storage"},{"astId":59584,"contract":"src/Execution.sol:Execution","label":"operation","offset":0,"slot":"3","type":"t_uint8"},{"astId":59586,"contract":"src/Execution.sol:Execution","label":"safeTxGas","offset":0,"slot":"4","type":"t_uint256"},{"astId":59588,"contract":"src/Execution.sol:Execution","label":"baseGas","offset":0,"slot":"5","type":"t_uint256"},{"astId":59590,"contract":"src/Execution.sol:Execution","label":"gasPrice","offset":0,"slot":"6","type":"t_uint256"},{"astId":59592,"contract":"src/Execution.sol:Execution","label":"gasToken","offset":0,"slot":"7","type":"t_address"},{"astId":59594,"contract":"src/Execution.sol:Execution","label":"refundReceiver","offset":0,"slot":"8","type":"t_address"}]},"t_struct(SignatureQueue)59633_storage":{"encoding":"inplace","label":"struct SignatureQueue","numberOfBytes":"576","members":[{"astId":59621,"contract":"src/Execution.sol:Execution","label":"state","offset":0,"slot":"0","type":"t_enum(SQState)59572"},{"astId":59624,"contract":"src/Execution.sol:Execution","label":"Action","offset":0,"slot":"1","type":"t_struct(Movement)59617_storage"},{"astId":59627,"contract":"src/Execution.sol:Execution","label":"Signers","offset":0,"slot":"15","type":"t_array(t_address)dyn_storage"},{"astId":59630,"contract":"src/Execution.sol:Execution","label":"Sigs","offset":0,"slot":"16","type":"t_array(t_bytes_storage)dyn_storage"},{"astId":59632,"contract":"src/Execution.sol:Execution","label":"exeSig","offset":0,"slot":"17","type":"t_bytes32"}]},"t_uint256":{"encoding":"inplace","label":"uint256","numberOfBytes":"32"},"t_uint8":{"encoding":"inplace","label":"uint8","numberOfBytes":"1"}}},"id":53}