{"abi":[{"type":"constructor","inputs":[{"name":"Execution","type":"address","internalType":"address"},{"name":"Membrane","type":"address","internalType":"address"}],"stateMutability":"nonpayable"},{"type":"function","name":"Will","inputs":[],"outputs":[{"name":"","type":"address","internalType":"address"}],"stateMutability":"view"},{"type":"function","name":"allMembersOf","inputs":[{"name":"fid_","type":"uint256","internalType":"uint256"}],"outputs":[{"name":"","type":"address[]","internalType":"address[]"}],"stateMutability":"view"},{"type":"function","name":"asRootValuation","inputs":[{"name":"target_","type":"uint256","internalType":"uint256"},{"name":"amount","type":"uint256","internalType":"uint256"}],"outputs":[{"name":"","type":"uint256","internalType":"uint256"}],"stateMutability":"view"},{"type":"function","name":"balanceOf","inputs":[{"name":"owner","type":"address","internalType":"address"},{"name":"id","type":"uint256","internalType":"uint256"}],"outputs":[{"name":"result","type":"uint256","internalType":"uint256"}],"stateMutability":"view"},{"type":"function","name":"balanceOfBatch","inputs":[{"name":"owners","type":"address[]","internalType":"address[]"},{"name":"ids","type":"uint256[]","internalType":"uint256[]"}],"outputs":[{"name":"balances","type":"uint256[]","internalType":"uint256[]"}],"stateMutability":"view"},{"type":"function","name":"burn","inputs":[{"name":"fid_","type":"uint256","internalType":"uint256"},{"name":"amount_","type":"uint256","internalType":"uint256"}],"outputs":[{"name":"topVal","type":"uint256","internalType":"uint256"}],"stateMutability":"nonpayable"},{"type":"function","name":"burnPath","inputs":[{"name":"target_","type":"uint256","internalType":"uint256"},{"name":"amount","type":"uint256","internalType":"uint256"}],"outputs":[],"stateMutability":"nonpayable"},{"type":"function","name":"calculateUserTargetedPreferenceAmount","inputs":[{"name":"childId","type":"uint256","internalType":"uint256"},{"name":"parentId","type":"uint256","internalType":"uint256"},{"name":"signal","type":"uint256","internalType":"uint256"},{"name":"user","type":"address","internalType":"address"}],"outputs":[{"name":"","type":"uint256","internalType":"uint256"}],"stateMutability":"view"},{"type":"function","name":"control","inputs":[{"name":"","type":"uint256","internalType":"uint256"}],"outputs":[{"name":"","type":"address","internalType":"address"}],"stateMutability":"view"},{"type":"function","name":"createEndpointForOwner","inputs":[{"name":"nodeId_","type":"uint256","internalType":"uint256"},{"name":"owner","type":"address","internalType":"address"}],"outputs":[{"name":"endpointAddress","type":"address","internalType":"address"}],"stateMutability":"nonpayable"},{"type":"function","name":"executionAddress","inputs":[],"outputs":[{"name":"","type":"address","internalType":"address"}],"stateMutability":"view"},{"type":"function","name":"getAllNodesForRoot","inputs":[{"name":"rootAddress","type":"address","internalType":"address"},{"name":"userIfAny","type":"address","internalType":"address"}],"outputs":[{"name":"nodes","type":"tuple[]","internalType":"struct NodeState[]","components":[{"name":"basicInfo","type":"string[12]","internalType":"string[12]"},{"name":"membraneMeta","type":"string","internalType":"string"},{"name":"membersOfNode","type":"address[]","internalType":"address[]"},{"name":"childrenNodes","type":"string[]","internalType":"string[]"},{"name":"movementEndpoints","type":"address[]","internalType":"address[]"},{"name":"rootPath","type":"string[]","internalType":"string[]"},{"name":"signals","type":"uint256[]","internalType":"uint256[]"}]}],"stateMutability":"view"},{"type":"function","name":"getChangePrevalence","inputs":[{"name":"nodeId_","type":"uint256","internalType":"uint256"},{"name":"signal_","type":"uint256","internalType":"uint256"}],"outputs":[{"name":"","type":"uint256","internalType":"uint256"}],"stateMutability":"view"},{"type":"function","name":"getChildrenOf","inputs":[{"name":"fid_","type":"uint256","internalType":"uint256"}],"outputs":[{"name":"","type":"uint256[]","internalType":"uint256[]"}],"stateMutability":"view"},{"type":"function","name":"getFidPath","inputs":[{"name":"fid_","type":"uint256","internalType":"uint256"}],"outputs":[{"name":"fids","type":"uint256[]","internalType":"uint256[]"}],"stateMutability":"view"},{"type":"function","name":"getMembraneOf","inputs":[{"name":"fid_","type":"uint256","internalType":"uint256"}],"outputs":[{"name":"","type":"uint256","internalType":"uint256"}],"stateMutability":"view"},{"type":"function","name":"getNodeData","inputs":[{"name":"nodeId","type":"uint256","internalType":"uint256"},{"name":"user","type":"address","internalType":"address"}],"outputs":[{"name":"nodeData","type":"tuple","internalType":"struct NodeState","components":[{"name":"basicInfo","type":"string[12]","internalType":"string[12]"},{"name":"membraneMeta","type":"string","internalType":"string"},{"name":"membersOfNode","type":"address[]","internalType":"address[]"},{"name":"childrenNodes","type":"string[]","internalType":"string[]"},{"name":"movementEndpoints","type":"address[]","internalType":"address[]"},{"name":"rootPath","type":"string[]","internalType":"string[]"},{"name":"signals","type":"uint256[]","internalType":"uint256[]"}]}],"stateMutability":"view"},{"type":"function","name":"getNodes","inputs":[{"name":"nodeIds","type":"uint256[]","internalType":"uint256[]"}],"outputs":[{"name":"nodes","type":"tuple[]","internalType":"struct NodeState[]","components":[{"name":"basicInfo","type":"string[12]","internalType":"string[12]"},{"name":"membraneMeta","type":"string","internalType":"string"},{"name":"membersOfNode","type":"address[]","internalType":"address[]"},{"name":"childrenNodes","type":"string[]","internalType":"string[]"},{"name":"movementEndpoints","type":"address[]","internalType":"address[]"},{"name":"rootPath","type":"string[]","internalType":"string[]"},{"name":"signals","type":"uint256[]","internalType":"uint256[]"}]}],"stateMutability":"view"},{"type":"function","name":"getParentOf","inputs":[{"name":"fid_","type":"uint256","internalType":"uint256"}],"outputs":[{"name":"","type":"uint256","internalType":"uint256"}],"stateMutability":"view"},{"type":"function","name":"getUserNodeSignals","inputs":[{"name":"user_","type":"address","internalType":"address"},{"name":"node_","type":"uint256","internalType":"uint256"}],"outputs":[{"name":"","type":"uint256[]","internalType":"uint256[]"}],"stateMutability":"view"},{"type":"function","name":"inParentDenomination","inputs":[{"name":"amt_","type":"uint256","internalType":"uint256"},{"name":"id_","type":"uint256","internalType":"uint256"}],"outputs":[{"name":"inParentVal","type":"uint256","internalType":"uint256"}],"stateMutability":"view"},{"type":"function","name":"inflationOf","inputs":[{"name":"nodeId","type":"uint256","internalType":"uint256"}],"outputs":[{"name":"","type":"uint256","internalType":"uint256"}],"stateMutability":"view"},{"type":"function","name":"initSelfControl","inputs":[],"outputs":[{"name":"","type":"address","internalType":"address"}],"stateMutability":"nonpayable"},{"type":"function","name":"isApprovedForAll","inputs":[{"name":"owner","type":"address","internalType":"address"},{"name":"operator","type":"address","internalType":"address"}],"outputs":[{"name":"result","type":"bool","internalType":"bool"}],"stateMutability":"view"},{"type":"function","name":"isMember","inputs":[{"name":"whoabout_","type":"address","internalType":"address"},{"name":"whereabout_","type":"uint256","internalType":"uint256"}],"outputs":[{"name":"","type":"bool","internalType":"bool"}],"stateMutability":"view"},{"type":"function","name":"localizeEndpoint","inputs":[{"name":"endpoint_","type":"address","internalType":"address"},{"name":"endpointParent_","type":"uint256","internalType":"uint256"},{"name":"owner_","type":"address","internalType":"address"}],"outputs":[],"stateMutability":"nonpayable"},{"type":"function","name":"membershipEnforce","inputs":[{"name":"target","type":"address","internalType":"address"},{"name":"fid_","type":"uint256","internalType":"uint256"}],"outputs":[{"name":"s","type":"bool","internalType":"bool"}],"stateMutability":"nonpayable"},{"type":"function","name":"membershipID","inputs":[{"name":"fid_","type":"uint256","internalType":"uint256"}],"outputs":[{"name":"","type":"uint256","internalType":"uint256"}],"stateMutability":"pure"},{"type":"function","name":"mint","inputs":[{"name":"fid_","type":"uint256","internalType":"uint256"},{"name":"amount_","type":"uint256","internalType":"uint256"}],"outputs":[],"stateMutability":"nonpayable"},{"type":"function","name":"mintInflation","inputs":[{"name":"node","type":"uint256","internalType":"uint256"}],"outputs":[{"name":"amount","type":"uint256","internalType":"uint256"}],"stateMutability":"nonpayable"},{"type":"function","name":"mintMembership","inputs":[{"name":"fid_","type":"uint256","internalType":"uint256"}],"outputs":[],"stateMutability":"nonpayable"},{"type":"function","name":"mintPath","inputs":[{"name":"target_","type":"uint256","internalType":"uint256"},{"name":"amount_","type":"uint256","internalType":"uint256"}],"outputs":[],"stateMutability":"nonpayable"},{"type":"function","name":"name","inputs":[],"outputs":[{"name":"","type":"string","internalType":"string"}],"stateMutability":"view"},{"type":"function","name":"options","inputs":[{"name":"NodeXUserXValue","type":"bytes32","internalType":"bytes32"},{"name":"","type":"uint256","internalType":"uint256"}],"outputs":[{"name":"valueAtTime","type":"uint256","internalType":"uint256"}],"stateMutability":"view"},{"type":"function","name":"redistribute","inputs":[{"name":"nodeId_","type":"uint256","internalType":"uint256"}],"outputs":[{"name":"distributedAmt","type":"uint256","internalType":"uint256"}],"stateMutability":"nonpayable"},{"type":"function","name":"redistributePath","inputs":[{"name":"nodeId_","type":"uint256","internalType":"uint256"}],"outputs":[{"name":"distributedAmt","type":"uint256","internalType":"uint256"}],"stateMutability":"nonpayable"},{"type":"function","name":"resignal","inputs":[{"name":"targetNode_","type":"uint256","internalType":"uint256"},{"name":"originator","type":"address","internalType":"address"}],"outputs":[],"stateMutability":"nonpayable"},{"type":"function","name":"safeBatchTransferFrom","inputs":[{"name":"from","type":"address","internalType":"address"},{"name":"to","type":"address","internalType":"address"},{"name":"ids","type":"uint256[]","internalType":"uint256[]"},{"name":"amounts","type":"uint256[]","internalType":"uint256[]"},{"name":"data","type":"bytes","internalType":"bytes"}],"outputs":[],"stateMutability":"nonpayable"},{"type":"function","name":"safeTransferFrom","inputs":[{"name":"from","type":"address","internalType":"address"},{"name":"to","type":"address","internalType":"address"},{"name":"id","type":"uint256","internalType":"uint256"},{"name":"amount","type":"uint256","internalType":"uint256"},{"name":"data","type":"bytes","internalType":"bytes"}],"outputs":[],"stateMutability":"nonpayable"},{"type":"function","name":"sendSignal","inputs":[{"name":"targetNode_","type":"uint256","internalType":"uint256"},{"name":"signals","type":"uint256[]","internalType":"uint256[]"}],"outputs":[],"stateMutability":"nonpayable"},{"type":"function","name":"setApprovalForAll","inputs":[{"name":"operator","type":"address","internalType":"address"},{"name":"isApproved","type":"bool","internalType":"bool"}],"outputs":[],"stateMutability":"nonpayable"},{"type":"function","name":"setControl","inputs":[{"name":"newController","type":"address","internalType":"address"}],"outputs":[],"stateMutability":"nonpayable"},{"type":"function","name":"spawnNode","inputs":[{"name":"fid_","type":"uint256","internalType":"uint256"}],"outputs":[{"name":"newID","type":"uint256","internalType":"uint256"}],"stateMutability":"nonpayable"},{"type":"function","name":"spawnNodeWithMembrane","inputs":[{"name":"fid_","type":"uint256","internalType":"uint256"},{"name":"tokens_","type":"address[]","internalType":"address[]"},{"name":"balances_","type":"uint256[]","internalType":"uint256[]"},{"name":"meta_","type":"string","internalType":"string"},{"name":"inflationRate_","type":"uint256","internalType":"uint256"}],"outputs":[{"name":"newID","type":"uint256","internalType":"uint256"}],"stateMutability":"nonpayable"},{"type":"function","name":"spawnRootNode","inputs":[{"name":"fungible20_","type":"address","internalType":"address"}],"outputs":[{"name":"fID","type":"uint256","internalType":"uint256"}],"stateMutability":"nonpayable"},{"type":"function","name":"supportsInterface","inputs":[{"name":"interfaceId","type":"bytes4","internalType":"bytes4"}],"outputs":[{"name":"result","type":"bool","internalType":"bool"}],"stateMutability":"view"},{"type":"function","name":"symbol","inputs":[],"outputs":[{"name":"","type":"string","internalType":"string"}],"stateMutability":"view"},{"type":"function","name":"taxPolicyPreference","inputs":[{"name":"rootToken_","type":"address","internalType":"address"},{"name":"taxRate_","type":"uint256","internalType":"uint256"}],"outputs":[],"stateMutability":"nonpayable"},{"type":"function","name":"toAddress","inputs":[{"name":"x","type":"uint256","internalType":"uint256"}],"outputs":[{"name":"","type":"address","internalType":"address"}],"stateMutability":"pure"},{"type":"function","name":"toID","inputs":[{"name":"x","type":"address","internalType":"address"}],"outputs":[{"name":"","type":"uint256","internalType":"uint256"}],"stateMutability":"pure"},{"type":"function","name":"totalSupply","inputs":[{"name":"nodeId","type":"uint256","internalType":"uint256"}],"outputs":[{"name":"","type":"uint256","internalType":"uint256"}],"stateMutability":"view"},{"type":"function","name":"uri","inputs":[{"name":"id_","type":"uint256","internalType":"uint256"}],"outputs":[{"name":"","type":"string","internalType":"string"}],"stateMutability":"view"},{"type":"event","name":"ApprovalForAll","inputs":[{"name":"owner","type":"address","indexed":true,"internalType":"address"},{"name":"operator","type":"address","indexed":true,"internalType":"address"},{"name":"isApproved","type":"bool","indexed":false,"internalType":"bool"}],"anonymous":false},{"type":"event","name":"Burned","inputs":[{"name":"fromAddressOrNode","type":"address","indexed":true,"internalType":"address"},{"name":"nodeId","type":"uint256","indexed":true,"internalType":"uint256"},{"name":"amount","type":"uint256","indexed":false,"internalType":"uint256"}],"anonymous":false},{"type":"event","name":"ConfigSignal","inputs":[{"name":"nodeId","type":"uint256","indexed":true,"internalType":"uint256"},{"name":"expressedOption","type":"bytes32","indexed":false,"internalType":"bytes32"}],"anonymous":false},{"type":"event","name":"CreatedEndpoint","inputs":[{"name":"endpoint","type":"address","indexed":true,"internalType":"address"},{"name":"owner","type":"address","indexed":true,"internalType":"address"},{"name":"nodeId","type":"uint256","indexed":true,"internalType":"uint256"}],"anonymous":false},{"type":"event","name":"InflationRateChanged","inputs":[{"name":"nodeId","type":"uint256","indexed":true,"internalType":"uint256"},{"name":"oldInflationRate","type":"uint256","indexed":false,"internalType":"uint256"},{"name":"newInflationRate","type":"uint256","indexed":false,"internalType":"uint256"}],"anonymous":false},{"type":"event","name":"InflationSignal","inputs":[{"name":"nodeId","type":"uint256","indexed":true,"internalType":"uint256"},{"name":"origin","type":"address","indexed":true,"internalType":"address"},{"name":"inflationRate","type":"uint256","indexed":false,"internalType":"uint256"}],"anonymous":false},{"type":"event","name":"MemberRemoved","inputs":[{"name":"userAddress","type":"address","indexed":true,"internalType":"address"},{"name":"nodeId","type":"uint256","indexed":true,"internalType":"uint256"}],"anonymous":false},{"type":"event","name":"MembershipMinted","inputs":[{"name":"who","type":"address","indexed":true,"internalType":"address"},{"name":"nodeId","type":"uint256","indexed":true,"internalType":"uint256"}],"anonymous":false},{"type":"event","name":"MembraneChanged","inputs":[{"name":"nodeId","type":"uint256","indexed":true,"internalType":"uint256"},{"name":"previousMembrane","type":"uint256","indexed":false,"internalType":"uint256"},{"name":"newMembrane","type":"uint256","indexed":false,"internalType":"uint256"}],"anonymous":false},{"type":"event","name":"MembraneSignal","inputs":[{"name":"nodeId","type":"uint256","indexed":true,"internalType":"uint256"},{"name":"origin","type":"address","indexed":true,"internalType":"address"},{"name":"membraneId","type":"uint256","indexed":false,"internalType":"uint256"}],"anonymous":false},{"type":"event","name":"Minted","inputs":[{"name":"fromAddressOrNode","type":"address","indexed":true,"internalType":"address"},{"name":"nodeId","type":"uint256","indexed":true,"internalType":"uint256"},{"name":"amount","type":"uint256","indexed":false,"internalType":"uint256"}],"anonymous":false},{"type":"event","name":"NewNode","inputs":[{"name":"newId","type":"uint256","indexed":true,"internalType":"uint256"},{"name":"parentId","type":"uint256","indexed":true,"internalType":"uint256"},{"name":"creator","type":"address","indexed":true,"internalType":"address"}],"anonymous":false},{"type":"event","name":"NewRootNode","inputs":[{"name":"rootNodeId","type":"uint256","indexed":true,"internalType":"uint256"}],"anonymous":false},{"type":"event","name":"Resignaled","inputs":[{"name":"sender","type":"address","indexed":true,"internalType":"address"},{"name":"nodeId","type":"uint256","indexed":true,"internalType":"uint256"},{"name":"origin","type":"address","indexed":false,"internalType":"address"}],"anonymous":false},{"type":"event","name":"SelfControlAtAddress","inputs":[{"name":"AgencyLocus","type":"address","indexed":false,"internalType":"address"}],"anonymous":false},{"type":"event","name":"SharesGenerated","inputs":[{"name":"nodeId","type":"uint256","indexed":true,"internalType":"uint256"},{"name":"amount","type":"uint256","indexed":false,"internalType":"uint256"}],"anonymous":false},{"type":"event","name":"TransferBatch","inputs":[{"name":"operator","type":"address","indexed":true,"internalType":"address"},{"name":"from","type":"address","indexed":true,"internalType":"address"},{"name":"to","type":"address","indexed":true,"internalType":"address"},{"name":"ids","type":"uint256[]","indexed":false,"internalType":"uint256[]"},{"name":"amounts","type":"uint256[]","indexed":false,"internalType":"uint256[]"}],"anonymous":false},{"type":"event","name":"TransferSingle","inputs":[{"name":"operator","type":"address","indexed":true,"internalType":"address"},{"name":"from","type":"address","indexed":true,"internalType":"address"},{"name":"to","type":"address","indexed":true,"internalType":"address"},{"name":"id","type":"uint256","indexed":false,"internalType":"uint256"},{"name":"amount","type":"uint256","indexed":false,"internalType":"uint256"}],"anonymous":false},{"type":"event","name":"URI","inputs":[{"name":"value","type":"string","indexed":false,"internalType":"string"},{"name":"id","type":"uint256","indexed":true,"internalType":"uint256"}],"anonymous":false},{"type":"event","name":"UserNodeSignal","inputs":[{"name":"nodeId","type":"uint256","indexed":true,"internalType":"uint256"},{"name":"user","type":"address","indexed":true,"internalType":"address"},{"name":"signals","type":"uint256[]","indexed":false,"internalType":"uint256[]"}],"anonymous":false},{"type":"error","name":"AccountBalanceOverflow","inputs":[]},{"type":"error","name":"AlreadyMember","inputs":[]},{"type":"error","name":"ArrayLengthsMismatch","inputs":[]},{"type":"error","name":"BadLen","inputs":[]},{"type":"error","name":"BaseOrNonFungible","inputs":[]},{"type":"error","name":"BurnE20TransferFailed","inputs":[]},{"type":"error","name":"CannotSkip","inputs":[]},{"type":"error","name":"Disabled","inputs":[]},{"type":"error","name":"EOA","inputs":[]},{"type":"error","name":"Endpoint","inputs":[]},{"type":"error","name":"ExecutionOnly","inputs":[]},{"type":"error","name":"IncompleteSign","inputs":[]},{"type":"error","name":"InsufficientAmt","inputs":[]},{"type":"error","name":"InsufficientBalance","inputs":[]},{"type":"error","name":"MembershipOp","inputs":[]},{"type":"error","name":"MembraneNotFound","inputs":[]},{"type":"error","name":"MintE20TransferFailed","inputs":[]},{"type":"error","name":"No","inputs":[]},{"type":"error","name":"NoControl","inputs":[]},{"type":"error","name":"NoSoup","inputs":[]},{"type":"error","name":"NoTimeDelta","inputs":[]},{"type":"error","name":"NodeAlreadyExists","inputs":[]},{"type":"error","name":"NodeNotFound","inputs":[]},{"type":"error","name":"Noise","inputs":[]},{"type":"error","name":"NoiseNotVoice","inputs":[]},{"type":"error","name":"NotMember","inputs":[]},{"type":"error","name":"NotNodeMember","inputs":[]},{"type":"error","name":"NotOwnerNorApproved","inputs":[]},{"type":"error","name":"Overreach","inputs":[]},{"type":"error","name":"ResignalMismatch","inputs":[]},{"type":"error","name":"RootExists","inputs":[]},{"type":"error","name":"SignalOverflow","inputs":[]},{"type":"error","name":"TargetIsRoot","inputs":[]},{"type":"error","name":"TransferToNonERC1155ReceiverImplementer","inputs":[]},{"type":"error","name":"TransferToZeroAddress","inputs":[]},{"type":"error","name":"Unautorised","inputs":[]},{"type":"error","name":"Unqualified","inputs":[]},{"type":"error","name":"UnregisteredFungible","inputs":[]},{"type":"error","name":"UnsoundMembership","inputs":[]},{"type":"error","name":"UnsupportedTransfer","inputs":[]},{"type":"error","name":"isControled","inputs":[]}],"bytecode":{"object":"0x608060405234801561000f575f80fd5b50604051615cf1380380615cf183398101604081905261002e91610201565b5f8052600b60209081526103e87fdf7de25b7f1fd6d0b5205f0e18f1f35bd7b8d84cce336588d184533ce43a6f7655600180546001600160a01b0319166001600160a01b038516908117909155604080516390ef12cd60e01b81529051859385938593859391926390ef12cd926004808401938290030181865afa1580156100b8573d5f803e3d5ffd5b505050506040513d601f19601f820116820180604052508101906100dc9190610232565b600280546001600160a01b03199081166001600160a01b03938416179091556003805490911691831691909117905560408051808201909152600a8152692bb4b6362bb2973c3cbd60b11b602082015260109061013990826102ea565b5060408051808201909152600481526315d2531360e21b602082015260119061016290826102ea565b505060128054600160ff19909116811790915580546001600160a01b0319166001600160a01b038516908117909155604051633a8f06ab60e21b815230600482015290915063ea3c1aac906024015f604051808303815f87803b1580156101c7575f80fd5b505af11580156101d9573d5f803e3d5ffd5b50505050505050506103a9565b80516001600160a01b03811681146101fc575f80fd5b919050565b5f8060408385031215610212575f80fd5b61021b836101e6565b9150610229602084016101e6565b90509250929050565b5f60208284031215610242575f80fd5b61024b826101e6565b9392505050565b634e487b7160e01b5f52604160045260245ffd5b600181811c9082168061027a57607f821691505b60208210810361029857634e487b7160e01b5f52602260045260245ffd5b50919050565b601f8211156102e557805f5260205f20601f840160051c810160208510156102c35750805b601f840160051c820191505b818110156102e2575f81556001016102cf565b50505b505050565b81516001600160401b0381111561030357610303610252565b610317816103118454610266565b8461029e565b602080601f83116001811461034a575f84156103335750858301515b5f19600386901b1c1916600185901b1785556103a1565b5f85815260208120601f198616915b8281101561037857888601518255948401946001909101908401610359565b508582101561039557878501515f19600388901b60f8161c191681555b505060018460011b0185555b505050505050565b61593b806103b65f395ff3fe608060405234801561000f575f80fd5b50600436106102fe575f3560e01c8063765063e511610195578063a6bfbc20116100e4578063e985e9c51161009e578063f242432a11610079578063f242432a1461075c578063f6355a561461076f578063f77914c314610782578063f87cc6b314610795575f80fd5b8063e985e9c5146106fe578063eef2e75714610729578063f039a73314610749575f80fd5b8063a6bfbc2014610673578063af1b55b014610693578063b390c0ab146106a6578063bd85b039146106b9578063bfad25e5146106d8578063e0051aa9146106eb575f80fd5b806385752d031161014f578063a07622531161012a578063a07622531461061a578063a0ce552d1461062d578063a22cb46514610640578063a5541c8414610653575f80fd5b806385752d03146105ec57806395d89b41146105ff57806399f4568914610607575f80fd5b8063765063e51461057a57806378adc7901461058d578063791ddaf9146105a05780637d11e682146105b35780637e44bffe146105c65780637f33d800146105d9575f80fd5b80631f017841116102515780634e1273f41161020b5780635b4a26ed116101e65780635b4a26ed1461053957806362593f601461054c57806367c394fb1461055f57806368dc274714610572575f80fd5b80634e1273f414610500578063535e9891146105135780635ac8260c14610526575f80fd5b80631f017841146104765780631fae703b1461048957806320f944271461049c57806328ca8e26146104af5780632eb2c2d6146104c257806345bbbf84146104d5575f80fd5b80630ffd3910116102bc578063150d503d11610297578063150d503d1461041d5780631a61eda61461043d5780631b2ef1ca146104505780631e9b388d14610463575f80fd5b80630ffd3910146103d8578063114b6e49146103eb57806313e75206146103fe575f80fd5b8062fdd58e1461030257806301ffc9a71461034157806306fdde03146103815780630d78d0c1146103965780630e89341c146103ab5780630f336348146103be575b5f80fd5b61032e610310366004614b70565b679a31110384e0b0c96020526014919091525f908152604090205490565b6040519081526020015b60405180910390f35b61037161034f366004614b9a565b6301ffc9a760e09190911c90811463d9b67a26821417630e89341c9091141790565b6040519015158152602001610338565b6103896107a8565b6040516103389190614bef565b6103a96103a4366004614c01565b610834565b005b6103896103b9366004614c01565b6109aa565b61032e6103cc366004614c18565b6001600160a01b031690565b61032e6103e6366004614c33565b6109db565b61032e6103f9366004614dde565b610abb565b61032e61040c366004614c01565b5f9081526006602052604090205490565b61043061042b366004614b70565b610c17565b6040516103389190614f08565b61032e61044b366004614f1a565b610ca8565b6103a961045e366004614f1a565b610d05565b61032e610471366004614f1a565b610d75565b6103a9610484366004614b70565b610df0565b6103a9610497366004614f3a565b610e67565b61032e6104aa366004614f1a565b61111c565b6103a96104bd366004614f68565b61113e565b6103a96104d036600461502b565b611229565b6104e86104e3366004614f3a565b6114e2565b6040516001600160a01b039091168152602001610338565b61043061050e3660046150e1565b6115cd565b6002546104e8906001600160a01b031681565b6103a9610534366004614c18565b61163a565b6103a9610547366004615147565b6116c6565b61037161055a366004614b70565b611a83565b61032e61056d366004614c01565b611bc8565b6104e8611c96565b61032e610588366004614c01565b611e68565b6001546104e8906001600160a01b031681565b6103a96105ae366004614f1a565b611e7f565b6104e86105c1366004614c01565b611ed7565b61032e6105d4366004614c01565b611ef6565b61032e6105e7366004614f1a565b611f09565b6103716105fa366004614b70565b611f90565b610389611fad565b610430610615366004614c01565b611fba565b61032e610628366004614c01565b612019565b61032e61063b366004614c01565b612071565b6103a961064e366004615197565b6121ca565b6106666106613660046151c3565b6121e3565b6040516103389190615380565b610686610681366004614f3a565b612292565b60405161033891906153e2565b61032e6106a1366004614c18565b612364565b61032e6106b4366004614f1a565b612410565b61032e6106c7366004614c01565b5f9081526004602052604090205490565b61032e6106e6366004614c01565b612726565b6104e86106f9366004614c01565b612863565b61037161070c3660046153f4565b679a31110384e0b0c96020526014919091525f526034600c205490565b61073c610737366004614c01565b61287f565b6040516103389190615420565b6103a9610757366004614f1a565b6128e7565b6103a961076a366004615432565b6129d2565b61043061077d366004614c01565b612b9a565b61032e610790366004614c01565b612ca6565b6106666107a33660046153f4565b612cce565b601080546107b5906154a8565b80601f01602080910402602001604051908101604052809291908181526020018280546107e1906154a8565b801561082c5780601f106108035761010080835404028352916020019161082c565b820191905f5260205f20905b81548152906001019060200180831161080f57829003601f168201915b505050505081565b5f81815260066020526040812054900361086157604051634825e09360e01b815260040160405180910390fd5b5f8181526006602052604090205481900361088f5760405163bd23392760e01b815260040160405180910390fd5b5f818152600460205260409020546001016108bd57604051630cf32f7560e21b815260040160405180910390fd5b6108ce6108c8612dbd565b82611f90565b156108ec576040516340803a5f60e11b815260040160405180910390fd5b6003546001600160a01b03166389160e0e610905612dbd565b61090e84611ef6565b6040516001600160e01b031960e085901b1681526001600160a01b0390921660048301526024820152604401602060405180830381865afa158015610955573d5f803e3d5ffd5b505050506040513d601f19601f8201168201806040525081019061097991906154da565b6109965760405163b2cab42960e01b815260040160405180910390fd5b6109a76109a1612dbd565b82612dfc565b50565b60606109b582612e99565b6040516020016109c591906154f5565b6040516020818303038152906040529050919050565b5f848152600660205260408120548414610a0857604051635f12529560e01b815260040160405180910390fd5b5f610a41610a1586612863565b5f87815260066020526040902054679a31110384e0b0c96020526014919091525f908152604090205490565b679a31110384e0b0c9602090815260148590525f878152604080822054600790935290205491925090633b9aca008211610a80575f9350505050610ab3565b5f610a8d8461271061555c565b82610a98898661555c565b610aa2919061555c565b610aac9190615587565b9450505050505b949350505050565b60035460405163333cabc560e01b81525f9182916001600160a01b039091169063333cabc590610af39089908990899060040161559a565b6020604051808303815f875af1158015610b0f573d5f803e3d5ffd5b505050506040513d601f19601f82011682018060405250810190610b3391906155dc565b9050610b3e87612726565b5f8181526008602052604090208281554260019091015591508215610b7057610b6b83633b9aca0061555c565b610b77565b64e8d4a510005b5f8381526007602052604081200155604080515f81526020810183905283917fe48aa5e298e92f05c7b7489cb783dd272acece1ed2b7aae5007022513a997611910160405180910390a25f82815260076020526040812083917f0ad1727523f8a97d260a40299bd81a21bbcdb605a771d1390f8fa163b2632caf918101546040805192835260208301919091520160405180910390a25095945050505050565b6060600c5f8484604051602001610c2f9291906155f3565b6040516020818303038152906040528051906020012081526020019081526020015f20805480602002602001604051908101604052809291908181526020018280548015610c9a57602002820191905f5260205f20905b815481526020019060010190808311610c86575b505050505090505b92915050565b5f600a5f8484604051602001610cc8929190918252602082015260400190565b6040516020818303038152906040528051906020012081526020019081526020015f205f60038110610cfc57610cfc615534565b01549392505050565b5f828152600660205260408120549003610d3257604051635f12529560e01b815260040160405180910390fd5b610d71610d3d612dbd565b8383604051602001610d5d906766756e6769626c6560c01b815260080190565b604051602081830303815290604052612f28565b5050565b5f8181526004602052604081205415610de7575f82815260046020526040902054610dce610da284612863565b5f85815260066020526040902054679a31110384e0b0c96020526014919091525f908152604090205490565b610dd8908561555c565b610de29190615587565b610de9565b5f5b9392505050565b600d546001600160a01b0316610e04612dbd565b6001600160a01b031614610e2b576040516385ea10fd60e01b815260040160405180910390fd5b80600103610e4c5760405163023ad70560e31b815260040160405180910390fd5b6001600160a01b039091165f908152600b6020526040902055565b5f610e728284610c17565b90506002815111610e8257505050565b5f356001600160e01b03191663b390c0ab60e01b1480610eb3575063f039a73360e01b6001600160e01b03195f3516145b156110a1575f83815260056020908152604080832080548251818502810185019093528083529192909190830182828015610f0b57602002820191905f5260205f20905b815481526020019060010190808311610ef7575b50939450600293505050505b825181108015610f3157508151610f2f600283615610565b105b1561109e575f848684610f45600286615610565b81518110610f5557610f55615534565b6020026020010151604051602001610f8f9392919060609390931b6001600160601b03191683526014830191909152603482015260540190565b6040516020818303038152906040528051906020012090505f83600284610fb69190615610565b81518110610fc657610fc6615534565b602002602001015187604051602001610fe9929190918252602082015260400190565b60408051808303601f1901815291815281516020928301205f858152600a90935291206002015490915015611089575f818152600a60205260408082205484835291206002015410611048575f818152600a6020526040812055611077565b5f828152600a602052604080822060020154838352908220805491929091611071908490615610565b90915550505b5f828152600a60205260408120600201555b5050808061109690615623565b915050610f17565b50505b600f80546001600160a01b0319166001600160a01b0384161790556110c683826116c6565b600f80546001600160a01b03191690556040516001600160a01b0383168152839033907f081dd7a021608cb1e85f93c3e497da26967bb26442035ffc020ba466aed4049d906020015b60405180910390a3505050565b600a602052815f5260405f208160038110611135575f80fd5b01549150829050565b6001546001600160a01b0316331461116957604051630fc714ab60e01b815260040160405180910390fd5b6111738183611f90565b15611211576001600160a01b038181165f818152600960208181526040832080546001810182559084529083200180546001600160a01b031916948816949094179093559084906111c4919061563b565b815260208082019290925260409081015f90812080546001810182559082528382200180546001600160a01b0319166001600160a01b0388169081179091558152600490925290205f1990555b6112246001600160a01b03841683612f9c565b505050565b60125460ff16156112d4576112d488888888808060200260200160405190810160405280939291908181526020018383602002808284375f9201919091525050604080516020808c0282810182019093528b82529093508b92508a9182918501908490808284375f9201919091525050604080516020601f8b0181900481028201810190925289815292508991508890819084018382808284375f920191909152506130a492505050565b8285146112e857633b800a465f526004601cfd5b8760601b679a31110384e0b0c9178760601b679a31110384e0b0c917816020528160601c99508060601c9850886113265763ea553b345f526004601cfd5b89331461134757335f526034600c205461134757634b6e7f185f526004601cfd5b8660051b5b80156113b4576020810390508087013583602052818a01355f5260405f208054808311156113815763f4d678b85f526004601cfd5b8290039055602083905260405f208054808301818110156113a9576301336cea5f526004601cfd5b9091555061134c9050565b505050604051604081528560051b602001604082018160208a03823781604001602084015281602088038383013750888a337f4a39dc06d4c0dbc64b70af90fd698a233a518aa5d07e595d983b8c0526c8f7fb60408586010186a450506114185f90565b1561142d5761142d8888888888888888613363565b863b156114d857865f5260405163bc197c81815233602082015288604082015260a060608201528560051b60200160c082018160208a0382378160a001806080850152826020890384840137820160a084015260208401601f19860183800183013750808101830160c401905060208282601c85015f80515af16114b9573d156114b9573d5f833e3d82fd5b50805163bc197c8160e01b146114d657639c05499b5f526004601cfd5b505b5050505050505050565b5f6114ed8284611f90565b61150a576040516359c5ba6f60e11b815260040160405180910390fd5b6001546040516311eb232d60e21b8152336004820152602481018590526001600160a01b038481166044830152909116906347ac8cb4906064016020604051808303815f875af1158015611560573d5f803e3d5ffd5b505050506040513d601f19601f82011682018060405250810190611584919061564e565b905082826001600160a01b0316826001600160a01b03167fcc812fbe8760ac7f5d76dc25596b5575304a089699833975adb3e253e8c627bd60405160405180910390a492915050565b60608382146115e357633b800a465f526004601cfd5b6040519050818152602081018260051b8181016040525b801561163057602081039050808701358060601b679a31110384e0b0c91760205250808501355f5260405f2054818301526115fa565b5050949350505050565b600d5f01546001600160a01b03163314611667576040516330e1d31f60e21b815260040160405180910390fd5b600e546001600160a01b038281169116036116a45750600e8054600d80546001600160a01b03199081166001600160a01b03841617909155169055565b600e80546001600160a01b0319166001600160a01b0392909216919091179055565b5f6116d86116d2612dbd565b84611f90565b90505f6116e66103cc612dbd565b5f8581526006602052604090205490915084900361171757604051638c9b017f60e01b815260040160405180910390fd5b8161173557604051639db14b6d60e01b815260040160405180910390fd5b5f61175c611741612dbd565b679a31110384e0b0c96020526014525f868152604090205490565b5f8681526004602052604090205490915061177a9061271090615587565b81101561179a5760405163ccf7064560e01b815260040160405180910390fd5b6117a385611bc8565b505f858152600560209081526040808320805482518185028101850190935280835291929091908301828280156117f757602002820191905f5260205f20905b8154815260200190600101908083116117e3575b505050505090505f611807612dbd565b876040516020016118199291906155f3565b6040516020818303038152906040528051906020012090505f805b875181101561198c575f88828151811061185057611850615534565b602002602001015190505f8a8883604051602001611881939291909283526020830191909152604082015260600190565b6040516020818303038152906040528051906020012090506001831161196557815f036118af575050611984565b825f03611906576118be612dbd565b6001600160a01b03168b7f94fb6835215c8e232fdf6bf21658d380697cc552a12a1df09d8cc98fe0d9b88f846040516118f991815260200190565b60405180910390a3611952565b61190e612dbd565b6001600160a01b03168b7f838e39ec3c38514252e486b7ee525a1748e7fc6118536c7640dbbdd2de2fec9c8460405161194991815260200190565b60405180910390a35b6119608b83858a858a613368565b611981565b6119748b8984868e518b61345e565b61197e828561563b565b93505b50505b600101611834565b600388511015801561199d57508115155b80156119ab57508161271014155b156119c957604051630442bea560e31b815260040160405180910390fd5b6119d286612863565b6001600160a01b0316897f8a7531c5a0d68e6295c0d0683ce089e87c3556caf900a8e2d1c558d348bbd8728a604051611a0b9190614f08565b60405180910390a3600f546001600160a01b03166114d65787600c5f611a2f612dbd565b8c604051602001611a419291906155f3565b6040516020818303038152906040528051906020012081526020019081526020015f209080519060200190611a77929190614a3e565b50505050505050505050565b5f611a8e8383611f90565b611aab5760405163148fe22160e11b815260040160405180910390fd5b611ab3612dbd565b6001600160a01b0316836001600160a01b031603611ae757611adf83611ad884612ca6565b60016135d2565b506001610ca2565b6003546001600160a01b03166389160e0e84611b0285611ef6565b6040516001600160e01b031960e085901b1681526001600160a01b0390921660048301526024820152604401602060405180830381865afa158015611b49573d5f803e3d5ffd5b505050506040513d601f19601f82011682018060405250810190611b6d91906154da565b159050611b7982612ca6565b91508015611b8d57611b8d838360016135d2565b60405182906001600160a01b038516907f3ac963493df564de734d98633f1145d21512e282ba4c02d3c1011119bf7f2862905f90a392915050565b5f81815260066020526040812054829003611be457505f919050565b5f8281526007602052604090208054600290910154611c039042615610565b611c0d919061555c565b9050805f03611c1d57505f919050565b5f8281526007602052604090204290600201556040516834b7333630ba34b7b760b91b6020820152611c5790839081908490602901610d5d565b817f695f517929cb0a761ce9f28118b11060d9646bcf6668b6fc3dfb89aaddce26e482604051611c8991815260200190565b60405180910390a2919050565b600d545f906001600160a01b031615611cc25760405163bdc7d58160e01b815260040160405180910390fd5b60015460025460405163bfad25e560e01b81526001600160a01b03918216600482015291169063bd8f46f990309063bfad25e5906024016020604051808303815f875af1158015611d15573d5f803e3d5ffd5b505050506040513d601f19601f82011682018060405250810190611d3991906155dc565b6040518263ffffffff1660e01b8152600401611d5791815260200190565b6020604051808303815f875af1158015611d73573d5f803e3d5ffd5b505050506040513d601f19601f82011682018060405250810190611d97919061564e565b600d5f0180546001600160a01b0319166001600160a01b03928316179055600354604080516301abf02960e51b81529051919092169163357e0520916004808301925f92919082900301818387803b158015611df1575f80fd5b505af1158015611e03573d5f803e3d5ffd5b505050507ff890fc28c3f9900b0f626f2dbd8913e1cb84a7d771c3ca70f19ac3ed52cfde12600d5f60028110611e3b57611e3b615534565b01546040516001600160a01b03909116815260200160405180910390a150600d546001600160a01b031690565b5f818152600760205260408120815b015492915050565b5f611e8983612b9a565b90505f5b8151811015611ec157611eb9828281518110611eab57611eab615534565b602002602001015184610d05565b600101611e8d565b8015611ed157611ed18484610d05565b50505050565b600d8160028110611ee6575f80fd5b01546001600160a01b0316905081565b5f81815260086020526040812081611e77565b5f80611f1484612b9a565b90505f805b8251811015611f86578060018451611f319190615610565b611f3b9190615610565b9150828281518110611f4f57611f4f615534565b602002602001015195508560065f8881526020019081526020015f20540315611f8657611f7c8587610d75565b9450600101611f19565b5092949350505050565b5f6001611fa08461031085612ca6565b10610ca257506001610ca2565b601180546107b5906154a8565b5f8181526005602090815260409182902080548351818402810184019094528084526060939283018282801561200d57602002820191905f5260205f20905b815481526020019060010190808311611ff9575b50505050509050919050565b5f8061202483612b9a565b9050600191505b80518210156120625761205681838151811061204957612049615534565b6020026020010151612071565b5081600101915061202b565b61206b83611bc8565b50610de9835b5f8181526006602052604081205480820361209f57604051636d9430a960e11b815260040160405180910390fd5b5f818152600660205260409020548190036120bc57505f92915050565b6120c581611bc8565b50604080516020808201869052818301849052825180830384018152606090920190925280519101205f6121166120fb84612863565b679a31110384e0b0c96020526014525f848152604090205490565b5f838152600a60205260409020909150600101546121349042615610565b5f838152600a602052604090205461214c919061555c565b93508084111561215a578093505b5f828152600a6020526040902042906001015583156121c2576121c261217f84612863565b61218887612863565b85876040516020016121ae906d3932b234b9ba3934b13aba34b7b760911b8152600e0190565b60405160208183030381529060405261360b565b505050919050565b604051633ac4266d60e11b815260040160405180910390fd5b606081516001600160401b038111156121fe576121fe614c71565b60405190808252806020026020018201604052801561223757816020015b612224614a83565b81526020019060019003908161221c5790505b5090505f5b825181101561228c5761226783828151811061225a5761225a615534565b6020026020010151613619565b82828151811061227957612279615534565b602090810291909101015260010161223c565b50919050565b61229a614a83565b6122a383613619565b90506001600160a01b03821615610ca257679a31110384e0b0c960205260148290525f83815260409020546122dc90612e99565b612e99565b815161012001525f6122f7846001600160a01b03851661563b565b5f818152600960205260409020549091501561234e575f8181526009602052604081208054612346929061232d5761232d615534565b5f918252602090912001546001600160a01b0316613942565b825161014001525b6123588385610c17565b60c08301525092915050565b5f816001600160a01b03163b5f0361238f57604051637dc5186f60e01b815260040160405180910390fd5b506001600160a01b0381165f81815260066020526040902054156123c657604051633293a2cf60e01b815260040160405180910390fd5b6123d08182612f9c565b5f8081546123dd90615623565b9091555060405181907f4bc7a1fd073ebdf928da09f58ed29b779ed99b26bddee327e87d0be21af8594f905f90a2919050565b5f82815260066020526040812054810361243d5760405163bd23392760e01b815260040160405180910390fd5b5f8381526006602052604090205483146124605761245b8284610d75565b612462565b815b905061247661246f612dbd565b84846135d2565b5f83815260066020526040902054831461252f573063f242432a61249985612863565b6124a1612dbd565b60065f8881526020019081526020015f2054856040516020016124ce9063313ab93760e11b815260040190565b6040516020818303038152906040526040518663ffffffff1660e01b81526004016124fd959493929190615669565b5f604051808303815f87803b158015612514575f80fd5b505af1158015612526573d5f803e3d5ffd5b50505050610ca2565b5f600b5f61253c86612863565b6001600160a01b0316815260208101919091526040015f20541561258b57600b5f61256686612863565b6001600160a01b03166001600160a01b031681526020019081526020015f20546125b6565b5f8052600b6020527fdf7de25b7f1fd6d0b5205f0e18f1f35bd7b8d84cce336588d184533ce43a6f76545b90506125c28184615587565b90505f6125cf8285615610565b90508084116125f1576040516337b936ed60e11b815260040160405180910390fd5b6125fa85612863565b60025460405163a9059cbb60e01b81526001600160a01b0391821660048201526024810185905291169063a9059cbb906044016020604051808303815f875af1158015612649573d5f803e3d5ffd5b505050506040513d601f19601f8201168201806040525081019061266d91906154da565b8015612701575061267d85612863565b6001600160a01b031663a9059cbb612693612dbd565b6040516001600160e01b031960e084901b1681526001600160a01b039091166004820152602481018490526044016020604051808303815f875af11580156126dd573d5f803e3d5ffd5b505050506040513d601f19601f8201168201806040525081019061270191906154da565b61271e57604051632ebc317760e21b815260040160405180910390fd5b505092915050565b5f818152600660205260408120548103612748576127466106a183612863565b505b612759612753612dbd565b83611f90565b15801561277357505f828152600660205260409020548214155b156127915760405163148fe22160e11b815260040160405180910390fd5b5f828152600460205260409020546001016127bf57604051630cf32f7560e21b815260040160405180910390fd5b5f8081546127cc90615623565b909155506127de633b9aca00446156ad565b5f546127ea4285615610565b6127f49190615610565b6127fe9190615610565b905061281461280c82612863565b306001613958565b61281e8183612f9c565b333014612830576128306109a1612dbd565b6040513390839083907f907e845f974b1e16735c498eca2c72acd8c3d61c86675d4cab952054450ee358905f90a4919050565b5f6001600160a01b0382116128785781610ca2565b5f92915050565b5f8181526009602090815260409182902080548351818402810184019094528084526060939283018282801561200d57602002820191905f5260205f20905b81546001600160a01b031681526001909101906020018083116128be5750505050509050919050565b5f8281526006602052604081205490036129145760405163bd23392760e01b815260040160405180910390fd5b5f61291e83612b9a565b90505f805b82518110156129c057806001845161293b9190615610565b6129459190615610565b91508361296e612953612dbd565b679a31110384e0b0c96020526014525f878152604090205490565b101561298d57604051632f72e11160e21b815260040160405180910390fd5b6129978585612410565b93508282815181106129ab576129ab615534565b60200260200101519450806001019050612923565b506129cb8484612410565b5050505050565b60125460ff1615612a4f57612a4f86866129ff876040805180820190915260018152602081019190915290565b60408051808201909152600181526020810188905286868080601f0160208091040260200160405190810160405280939291908181526020018383808284375f920191909152506130a492505050565b8560601b679a31110384e0b0c9178560601b679a31110384e0b0c917816020528160601c97508060601c965086612a8d5763ea553b345f526004601cfd5b873314612aae57335f526034600c2054612aae57634b6e7f185f526004601cfd5b855f5260405f209150815480861115612ace5763f4d678b85f526004601cfd5b8581038355508060205260405f209150815485810181811015612af8576301336cea5f526004601cfd5b909255505060208390528486335f805160206158e683398151915260405fa4843b15612b925760405163f23a6e61815233602082015286604082015284606082015283608082015260a080820152816020016020840360c08301376020818360c401601c84015f8a5af1612b74573d15612b74573d5f823e3d81fd5b805163f23a6e6160e01b14612b9057639c05499b5f526004601cfd5b505b505050505050565b5f818152600660205260409020546060906001905b612bba84600161563b565b8110612bf4575f818152600660205260409020548114612bf457612bdd82615623565b5f9182526006602052604090912054909150612baf565b816001600160401b03811115612c0c57612c0c614c71565b604051908082528060200260200182016040528015612c35578160200160208202803683370190505b5092505f90505b81811015612c9f575f84815260066020526040902054836001612c5f8486615610565b612c699190615610565b81518110612c7957612c79615534565b6020908102919091018101919091525f9485526006905260409093205492600101612c3c565b5050919050565b5f6804e1003b28d9280000821115612cca57610ca2678ac7230489e80000836156ad565b5090565b6001600160a01b0382165f81815260096020526040902054606091906001600160401b03811115612d0157612d01614c71565b604051908082528060200260200182016040528015612d3a57816020015b612d27614a83565b815260200190600190039081612d1f5790505b5091505f5b5f8281526009602052604090205481101561271e575f8281526009602052604090208054612d9891612d929184908110612d7b57612d7b615534565b5f918252602090912001546001600160a01b031690565b85612292565b838281518110612daa57612daa615534565b6020908102919091010152600101612d3f565b600f545f906001600160a01b031615612de05750600f546001600160a01b031690565b6002546001600160a01b03163303612df757503090565b503390565b5f8181526009602090815260408220805460018101825590835291200180546001600160a01b0319166001600160a01b038416179055612e6082612e3f83612ca6565b6040516906d656d626572736869760b41b6020820152600190602a01610d5d565b60405181906001600160a01b038416907fbab4562ae868d1765ed8452e98bba908a974596c4babc3ada5e90e05e3f433fb905f90a35050565b60605f612ea5836139b0565b60010190505f816001600160401b03811115612ec357612ec3614c71565b6040519080825280601f01601f191660200182016040528015612eed576020820181803683370190505b5090508181016020015b5f19016f181899199a1a9b1b9c1cb0b131b232b360811b600a86061a8153600a8504945084612ef757509392505050565b612f3484848484613a87565b5f8381526004602052604081208054849290612f5190849061563b565b909155505060405182815283906001600160a01b038616907f25b428dfde728ccfaddad7e29e4ac23c24ed7fd1a6e3e3f91894a9a073f5dfff9060200160405180910390a350505050565b5f8281526006602052604090205415612fc85760405163731918fb60e11b815260040160405180910390fd5b5f828152600660205260409020819055818114610d71575f818152600560209081526040822080546001810182559083529082200183905560099061300c83612b9a565b5f8151811061301d5761301d615534565b602002602001015181526020019081526020015f2061303b83612863565b8154600180820184555f938452602080852090920180546001600160a01b0319166001600160a01b0394909416939093179092558483526004905260409091205401613085575050565b505f90815260076020526040902064e8d4a51000815542600290910155565b6304ed360560e51b5f356001600160e01b03191601156129cb575f5b8084511115612b92575f8482815181106130dc576130dc615534565b602002602001015190505f8483815181106130f9576130f9615534565b602002602001015190505f6001600160a01b0316886001600160a01b03161415801561312d57506001600160a01b03871615155b801561314457505f82815260066020526040902054155b156131625760405163ce2d28e160e01b815260040160405180910390fd5b678ac7230489e80000821015613221575f356001600160e01b031916630d78d0c160e01b1415806131a557505f356001600160e01b031916630312c9fb60e51b14155b806131c257505f356001600160e01b031916630af1b55b60e41b14155b806131df57505f356001600160e01b03191663114b6e4960e01b14155b806131fc57505f356001600160e01b03191663bfad25e560e01b14155b61321957604051630dbd110f60e21b815260040160405180910390fd5b5050506129cb565b5f356001600160e01b031916630d9778e560e11b148061325257505f356001600160e01b03191663791ddaf960e01b145b15613359575f8281526006602052604090205482900361330e5761327582612863565b6040516323b872dd60e01b81526001600160a01b0389811660048301523060248301526044820184905291909116906323b872dd906064016020604051808303815f875af11580156132c9573d5f803e3d5ffd5b505050506040513d601f19601f820116820180604052508101906132ed91906154da565b6133095760405162916a1960e51b815260040160405180910390fd5b613359565b6012805460ff1916905561334b613323612dbd565b61332c84612863565b5f8581526006602052604081205490859061076a9060019036816156c0565b6012805460ff191660011790555b50506001016130c0565b6114d8565b8415612b9257604080516020808201899052818301889052825180830384018152606090920183528151918101919091205f858152600a9092529190206001015442036133c85760405163d445b7c360e01b815260040160405180910390fd5b845f036133e3576133de8784838988878b613b6c565b6133f2565b6133f28784838988878b613d4e565b5f838152600a60209081526040808320426001918201556005835281842080549182018155845292829020909201889055905182815288917fb9fabdd20442c18b28ad124d92670b92dbc9b763d12cd509698e84d798e84cfb910160405180910390a250505050505050565b613469600283615610565b81511461348957604051631b9103a360e11b815260040160405180910390fd5b5f858783613498600288615610565b815181106134a8576134a8615534565b60200260200101516040516020016134e29392919060609390931b6001600160601b03191683526014830191909152603482015260540190565b60408051808303601f1901815291815281516020928301205f818152600a90935291205490915061271086118015613518575080155b15613524575050612b92565b6127108611156135475760405163bb82191f60e01b815260040160405180910390fd5b85811415806135605750600f546001600160a01b031615155b156114d857858114613584575f828152600a60205260409020868155426001909101555b6135a383613593600288615610565b8151811061204957612049615534565b506114d8836135b3600288615610565b815181106135c3576135c3615534565b60200260200101518984613ee3565b6135dd83838361404e565b6001600160a01b0383165f9081526004602052604090205460011161360157505050565b6112248284610e67565b6129cb5f86868686866140fb565b613621614a83565b61362a82612e99565b8151525f828152600760205260408120613646915b0154612e99565b81516020015261365b6122d7610da284612863565b8151604001526136706122d76120fb84612863565b8151606001526136896122d7836105e761174182612863565b8151608001526136a26122d7836105e7610a1582612863565b815160a001525f8281526008602052604081206136be9161363f565b815160c001525f828152600660209081526040808320548151808401879052808301829052825180820384018152606090910183528051908401208452600a90925290912054613711916122d791611f09565b815160e001525f82815260076020526040902061372f90600261363f565b815161010001525f8281526004602052604090205461374d90612e99565b815161016001526003545f8381526008602052604090819020549051631ba2a35b60e31b815260048101919091526001600160a01b039091169063dd151ad8906024015f60405180830381865afa1580156137aa573d5f803e3d5ffd5b505050506040513d5f823e601f3d908101601f191682016040526137d19190810190615790565b6040908101516020808401919091525f848152600982528290208054835181840281018401909452808452909183018282801561383557602002820191905f5260205f20905b81546001600160a01b03168152600190910190602001808311613817575b505050505060408201526001546009905f9061385b9085906001600160a01b031661563b565b81526020019081526020015f208054806020026020016040519081016040528092919081815260200182805480156138ba57602002820191905f5260205f20905b81546001600160a01b0316815260019091019060200180831161389c575b505050505060808201525f828152600560209081526040918290208054835181840281018401909452808452613922939283018282801561391857602002820191905f5260205f20905b815481526020019060010190808311613904575b5050505050614231565b606082015261393861393383612b9a565b614231565b60a0820152919050565b6060610ca26001600160a01b03831660146142dc565b8015159050679a31110384e0b0c960205282601452815f52806034600c2055805f525f1960601c8281168482167f17307eab39ab6107e8899845ad3d59bd9653f200f220920489ca2b5937696c3160205fa350505050565b5f8072184f03e93ff9f4daa797ed6e38ed64bf6a1f0160401b83106139ee5772184f03e93ff9f4daa797ed6e38ed64bf6a1f0160401b830492506040015b6d04ee2d6d415b85acef81000000008310613a1a576d04ee2d6d415b85acef8100000000830492506020015b662386f26fc100008310613a3857662386f26fc10000830492506010015b6305f5e1008310613a50576305f5e100830492506008015b6127108310613a6457612710830492506004015b60648310613a76576064830492506002015b600a8310610ca25760010192915050565b60125460ff1615613acf57613acf5f85613ab4866040805180820190915260018152602081019190915290565b604080518082019091526001815260208101879052856130a4565b8360601b80613ae55763ea553b345f526004601cfd5b679a31110384e0b0c960205284601452835f5260405f20805484810181811015613b16576301336cea5f526004601cfd5b808355505050826020528060601c5f335f805160206158e683398151915260405fa450613b58565b604080518082019091526001815260208101879052611ed1565b833b15611ed157611ed15f85858585614475565b6001600160a01b03841080613bf05750600354604051631ba2a35b60e31b8152600481018690526001600160a01b039091169063dd151ad8906024015f60405180830381865afa158015613bc2573d5f803e3d5ffd5b505050506040513d5f823e601f3d908101601f19168201604052613be99190810190615790565b6040015151155b15613c0e57604051639cd2c44760e01b815260040160405180910390fd5b613c1d8686868686868d6144ff565b5f87815260046020908152604080832054888452600a90925290912054613c4590600261555c565b1115612b90576003546040516350885bc560e01b8152600481018990525f916001600160a01b0316906350885bc5906024016040805180830381865afa158015613c91573d5f803e3d5ffd5b505050506040513d601f19601f82011682018060405250810190613cb591906158a4565b50905080613cd65760405163a74ab56560e01b815260040160405180910390fd5b5f88815260086020526040812089917fe48aa5e298e92f05c7b7489cb783dd272acece1ed2b7aae5007022513a99761191015460408051918252602082018990520160405180910390a2604080518082018252868152426020808301919091525f8b81526008909152919091206114d6916002614ac6565b613d5d8686868686868d6144ff565b5f87815260046020908152604080832054888452600a90925290912054613d8590600261555c565b1115612b90576003546040516350885bc560e01b8152600481018990525f916001600160a01b0316906350885bc5906024016040805180830381865afa158015613dd1573d5f803e3d5ffd5b505050506040513d601f19601f82011682018060405250810190613df591906158a4565b50905080613e165760405163a74ab56560e01b815260040160405180910390fd5b613e1f88611bc8565b505f8881526007602052604090205488907f0ad1727523f8a97d260a40299bd81a21bbcdb605a771d1390f8fa163b2632caf90613e6088633b9aca0061555c565b6040805192835260208301919091520160405180910390a25f88815260076020526040902054613e9f908990613e9a88633b9aca0061555c565b6146fa565b604051806060016040528086633b9aca00613eba919061555c565b81524260208083018290526040928301919091525f8b81526007909152206114d6916003614af3565b604080516020808201869052818301859052825180830384018152606090920183528151918101919091205f848152600a90925291812054613f2b90869086906103e6612dbd565b5f848152600a6020526040902090915060010154421015613f5f5760405163d445b7c360e01b815260040160405180910390fd5b5f828152600a60205260408082205485835291206002015410613f8f575f828152600a6020526040812055613fbe565b5f838152600a602052604080822060020154848352908220805491929091613fb8908490615610565b90915550505b5f828152600a602052604081208054839290613fdb90849061563b565b90915550505f84815260076020526040812001545f838152600a6020526040812001541115614023575f84815260076020526040812001545f838152600a6020526040812001555b5f918252600a6020526040808320426001918201819055948452922091820192909255600201555050565b5f828152600460205260408120805483929061406b908490615610565b90915550505f82815260066020526040902054821080156140935750678ac7230489e8000082115b156140b4576140a182611bc8565b506112246140ad612dbd565b838361495e565b6140bf83838361495e565b81836001600160a01b03167f23ff0e75edf108e3d0392d92e13e8c8a868ef19001bd49f9e94876dc46dff87f8360405161110f91815260200190565b60125460ff1615614128576141288585613ab4866040805180820190915260018152602081019190915290565b8460601b8460601b806141425763ea553b345f526004601cfd5b81679a31110384e0b0c9176020528760601b82811481151761417857885f526034600c205461417857634b6e7f185f526004601cfd5b50845f5260405f208054808611156141975763f4d678b85f526004601cfd5b8590039055679a31110384e0b0c9811760205260405f208054808601818110156141c8576301336cea5f526004601cfd5b808355505050836020528060601c8260601c335f805160206158e683398151915260405fa450506141f65f90565b1561421d5761421d8585613b3e866040805180820190915260018152602081019190915290565b833b15612b9257612b928585858585614475565b60605f82516001600160401b0381111561424d5761424d614c71565b60405190808252806020026020018201604052801561428057816020015b606081526020019060019003908161426b5790505b5090505f5b83518110156142d5576142b08482815181106142a3576142a3615534565b6020026020010151612e99565b8282815181106142c2576142c2615534565b6020908102919091010152600101614285565b5092915050565b60605f6142ea83600261555c565b6142f590600261563b565b6001600160401b0381111561430c5761430c614c71565b6040519080825280601f01601f191660200182016040528015614336576020820181803683370190505b509050600360fc1b815f8151811061435057614350615534565b60200101906001600160f81b03191690815f1a905350600f60fb1b8160018151811061437e5761437e615534565b60200101906001600160f81b03191690815f1a9053505f6143a084600261555c565b6143ab90600161563b565b90505b6001811115614422576f181899199a1a9b1b9c1cb0b131b232b360811b85600f16601081106143df576143df615534565b1a60f81b8282815181106143f5576143f5615534565b60200101906001600160f81b03191690815f1a90535060049490941c9361441b816158d0565b90506143ae565b508315610de95760405162461bcd60e51b815260206004820181905260248201527f537472696e67733a20686578206c656e67746820696e73756666696369656e74604482015260640160405180910390fd5b60405163f23a6e6181523360208201528560601b60601c604082015283606082015282608082015260a08082015281518060c083015280156144c1578060e08301826020860160045afa505b6020828260c401601c85015f8a5af16144e2573d156144e2573d5f833e3d82fd5b50805163f23a6e6160e01b14612b9257639c05499b5f526004601cfd5b5f878152600a602052604090206001015415614575575f878152600a602052604081206002015411801561454157505f878152600a6020526040812060010154115b15614575575f878152600a60205260408082206002015488835290822080549192909161456f908490615610565b90915550505b5f838152600c6020526040902054821015614699575f838152600c602052604081208054849081106145a9576145a9615534565b905f5260205f200154905085811461469757600a5f836145c7612dbd565b846040516020016145f89392919092835260609190911b6001600160601b0319166020830152603482015260540190565b6040516020818303038152906040528051906020012081526020019081526020015f2060026003811061462d5761462d615534565b0154600a5f848460405160200161464e929190918252602082015260400190565b6040516020818303038152906040528051906020012081526020019081526020015f205f6003811061468257614682615534565b015f8282546146919190615610565b90915550505b505b60408051606081018252868152426020808301919091528183018790525f8a8152600a909152919091206146ce916003614af3565b505f868152600a6020526040812080548692906146ec90849061563b565b909155505050505050505050565b5f8381526005602090815260408083208054825181850281018501909352808352919290919083018282801561474d57602002820191905f5260205f20905b815481526020019060010190808311614739575b5050505050905080515f036147625750505050565b5f805b8251811015614829575f83828151811061478157614781615534565b6020026020010151876040516020016147a4929190918252602082015260400190565b60408051808303601f1901815291815281516020928301205f818152600a9093529120549091506147d5818561563b565b9350633b9aca0081111561481f576147f885848151811061204957612049615534565b505f87614805888461555c565b61480f9190615587565b5f848152600a6020526040902055505b5050600101614765565b5060018111801561486057505f8581526007602052604090205461485190620186a090615587565b61485e620186a083615587565b105b156148e6575f61489e61487287612863565b5f88815260066020526040902054679a31110384e0b0c96020526014919091525f908152604090205490565b6148c56148aa88612863565b679a31110384e0b0c96020526014525f888152604090205490565b6148cf9190615610565b90506148e46148dd87612863565b87836135d2565b505b60408051606081018252848152426020808301829052828401919091525f88815260079091529190912061491b916003614af3565b50604080518581526020810185905286917f0ad1727523f8a97d260a40299bd81a21bbcdb605a771d1390f8fa163b2632caf910160405180910390a25050505050565b6112245f84848460125460ff16156149bb576149bb835f614992856040805180820190915260018152602081019190915290565b60408051808201909152600181526020810186905260405180602001604052805f8152506130a4565b8260601b80679a31110384e0b0c917602052808560601b148560601b15176149f757845f526034600c20546149f757634b6e7f185f526004601cfd5b825f5260405f20805480841115614a155763f4d678b85f526004601cfd5b83810382555050816020525f8160601c335f805160206158e683398151915260405fa450611ed1565b828054828255905f5260205f20908101928215614a77579160200282015b82811115614a77578251825591602001919060010190614a5c565b50612cca929150614b20565b6040518060e00160405280614a96614b34565b81526020016060815260200160608152602001606081526020016060815260200160608152602001606081525090565b8260028101928215614a775791602002820182811115614a77578251825591602001919060010190614a5c565b8260038101928215614a775791602002820182811115614a77578251825591602001919060010190614a5c565b5b80821115612cca575f8155600101614b21565b604051806101800160405280600c905b6060815260200190600190039081614b445790505090565b6001600160a01b03811681146109a7575f80fd5b5f8060408385031215614b81575f80fd5b8235614b8c81614b5c565b946020939093013593505050565b5f60208284031215614baa575f80fd5b81356001600160e01b031981168114610de9575f80fd5b5f81518084528060208401602086015e5f602082860101526020601f19601f83011685010191505092915050565b602081525f610de96020830184614bc1565b5f60208284031215614c11575f80fd5b5035919050565b5f60208284031215614c28575f80fd5b8135610de981614b5c565b5f805f8060808587031215614c46575f80fd5b8435935060208501359250604085013591506060850135614c6681614b5c565b939692955090935050565b634e487b7160e01b5f52604160045260245ffd5b604051608081016001600160401b0381118282101715614ca757614ca7614c71565b60405290565b604051601f8201601f191681016001600160401b0381118282101715614cd557614cd5614c71565b604052919050565b5f6001600160401b03821115614cf557614cf5614c71565b5060051b60200190565b5f82601f830112614d0e575f80fd5b81356020614d23614d1e83614cdd565b614cad565b8083825260208201915060208460051b870101935086841115614d44575f80fd5b602086015b84811015614d605780358352918301918301614d49565b509695505050505050565b5f6001600160401b03821115614d8357614d83614c71565b50601f01601f191660200190565b5f82601f830112614da0575f80fd5b8135614dae614d1e82614d6b565b818152846020838601011115614dc2575f80fd5b816020850160208301375f918101602001919091529392505050565b5f805f805f60a08688031215614df2575f80fd5b853594506020808701356001600160401b0380821115614e10575f80fd5b818901915089601f830112614e23575f80fd5b8135614e31614d1e82614cdd565b81815260059190911b8301840190848101908c831115614e4f575f80fd5b938501935b82851015614e76578435614e6781614b5c565b82529385019390850190614e54565b985050506040890135925080831115614e8d575f80fd5b614e998a848b01614cff565b95506060890135925080831115614eae575f80fd5b5050614ebc88828901614d91565b95989497509295608001359392505050565b5f815180845260208085019450602084015f5b83811015614efd57815187529582019590820190600101614ee1565b509495945050505050565b602081525f610de96020830184614ece565b5f8060408385031215614f2b575f80fd5b50508035926020909101359150565b5f8060408385031215614f4b575f80fd5b823591506020830135614f5d81614b5c565b809150509250929050565b5f805f60608486031215614f7a575f80fd5b8335614f8581614b5c565b9250602084013591506040840135614f9c81614b5c565b809150509250925092565b5f8083601f840112614fb7575f80fd5b5081356001600160401b03811115614fcd575f80fd5b6020830191508360208260051b8501011115614fe7575f80fd5b9250929050565b5f8083601f840112614ffe575f80fd5b5081356001600160401b03811115615014575f80fd5b602083019150836020828501011115614fe7575f80fd5b5f805f805f805f8060a0898b031215615042575f80fd5b883561504d81614b5c565b9750602089013561505d81614b5c565b965060408901356001600160401b0380821115615078575f80fd5b6150848c838d01614fa7565b909850965060608b013591508082111561509c575f80fd5b6150a88c838d01614fa7565b909650945060808b01359150808211156150c0575f80fd5b506150cd8b828c01614fee565b999c989b5096995094979396929594505050565b5f805f80604085870312156150f4575f80fd5b84356001600160401b038082111561510a575f80fd5b61511688838901614fa7565b9096509450602087013591508082111561512e575f80fd5b5061513b87828801614fa7565b95989497509550505050565b5f8060408385031215615158575f80fd5b8235915060208301356001600160401b03811115615174575f80fd5b61518085828601614cff565b9150509250929050565b80151581146109a7575f80fd5b5f80604083850312156151a8575f80fd5b82356151b381614b5c565b91506020830135614f5d8161518a565b5f602082840312156151d3575f80fd5b81356001600160401b038111156151e8575f80fd5b610ab384828501614cff565b5f826101808101835f5b600c81101561522d578383038752615217838351614bc1565b60209788019790935091909101906001016151fe565b509095945050505050565b5f815180845260208085019450602084015f5b83811015614efd5781516001600160a01b03168752958201959082019060010161524b565b5f8282518085526020808601955060208260051b840101602086015f5b848110156152bb57601f198684030189526152a9838351614bc1565b9884019892509083019060010161528d565b5090979650505050505050565b5f815160e084526152dc60e08501826151f4565b9050602083015184820360208601526152f58282614bc1565b9150506040830151848203604086015261530f8282615238565b915050606083015184820360608601526153298282615270565b915050608083015184820360808601526153438282615238565b91505060a083015184820360a086015261535d8282615270565b91505060c083015184820360c08601526153778282614ece565b95945050505050565b5f60208083016020845280855180835260408601915060408160051b8701019250602087015f5b828110156153d557603f198886030184526153c38583516152c8565b945092850192908501906001016153a7565b5092979650505050505050565b602081525f610de960208301846152c8565b5f8060408385031215615405575f80fd5b823561541081614b5c565b91506020830135614f5d81614b5c565b602081525f610de96020830184615238565b5f805f805f8060a08789031215615447575f80fd5b863561545281614b5c565b9550602087013561546281614b5c565b9450604087013593506060870135925060808701356001600160401b0381111561548a575f80fd5b61549689828a01614fee565b979a9699509497509295939492505050565b600181811c908216806154bc57607f821691505b60208210810361228c57634e487b7160e01b5f52602260045260245ffd5b5f602082840312156154ea575f80fd5b8151610de98161518a565b7f68747470733a2f2f77696c6c77652e78797a2f6d657461646174612f0000000081525f82518060208501601c85015e5f9201601c0191825250919050565b634e487b7160e01b5f52603260045260245ffd5b634e487b7160e01b5f52601160045260245ffd5b8082028115828204841417610ca257610ca2615548565b634e487b7160e01b5f52601260045260245ffd5b5f8261559557615595615573565b500490565b606081525f6155ac6060830186615238565b82810360208401526155be8186614ece565b905082810360408401526155d28185614bc1565b9695505050505050565b5f602082840312156155ec575f80fd5b5051919050565b60609290921b6001600160601b0319168252601482015260340190565b81810381811115610ca257610ca2615548565b5f6001820161563457615634615548565b5060010190565b80820180821115610ca257610ca2615548565b5f6020828403121561565e575f80fd5b8151610de981614b5c565b6001600160a01b03868116825285166020820152604081018490526060810183905260a0608082018190525f906156a290830184614bc1565b979650505050505050565b5f826156bb576156bb615573565b500690565b5f80858511156156ce575f80fd5b838611156156da575f80fd5b5050820193919092039150565b5f82601f8301126156f6575f80fd5b81516020615706614d1e83614cdd565b8083825260208201915060208460051b870101935086841115615727575f80fd5b602086015b84811015614d60578051835291830191830161572c565b5f82601f830112615752575f80fd5b8151615760614d1e82614d6b565b818152846020838601011115615774575f80fd5b8160208501602083015e5f918101602001919091529392505050565b5f60208083850312156157a1575f80fd5b82516001600160401b03808211156157b7575f80fd5b90840190608082870312156157ca575f80fd5b6157d2614c85565b8251828111156157e0575f80fd5b8301601f810188136157f0575f80fd5b80516157fe614d1e82614cdd565b81815260059190911b8201860190868101908a83111561581c575f80fd5b928701925b8284101561584357835161583481614b5c565b82529287019290870190615821565b84525050508284015182811115615858575f80fd5b615864888286016156e7565b8583015250604083015193508184111561587c575f80fd5b61588887858501615743565b6040820152606083015160608201528094505050505092915050565b5f80604083850312156158b5575f80fd5b82516158c08161518a565b6020939093015192949293505050565b5f816158de576158de615548565b505f19019056fec3d58168c5ae7397731d063d5bbf3d657854427343f4c083240f7aacaa2d0f62a2646970667358221220e14ec7b1ac288ef1dd9ec860f8f09ed82359a1e5e83577984bc408887c28fafd64736f6c63430008190033","linkReferences":{}},"methodIdentifiers":{"Will()":"535e9891","allMembersOf(uint256)":"eef2e757","asRootValuation(uint256,uint256)":"7f33d800","balanceOf(address,uint256)":"00fdd58e","balanceOfBatch(address[],uint256[])":"4e1273f4","burn(uint256,uint256)":"b390c0ab","burnPath(uint256,uint256)":"f039a733","calculateUserTargetedPreferenceAmount(uint256,uint256,uint256,address)":"0ffd3910","control(uint256)":"7d11e682","createEndpointForOwner(uint256,address)":"45bbbf84","executionAddress()":"78adc790","getAllNodesForRoot(address,address)":"f87cc6b3","getChangePrevalence(uint256,uint256)":"1a61eda6","getChildrenOf(uint256)":"99f45689","getFidPath(uint256)":"f6355a56","getMembraneOf(uint256)":"7e44bffe","getNodeData(uint256,address)":"a6bfbc20","getNodes(uint256[])":"a5541c84","getParentOf(uint256)":"13e75206","getUserNodeSignals(address,uint256)":"150d503d","inParentDenomination(uint256,uint256)":"1e9b388d","inflationOf(uint256)":"765063e5","initSelfControl()":"68dc2747","isApprovedForAll(address,address)":"e985e9c5","isMember(address,uint256)":"85752d03","localizeEndpoint(address,uint256,address)":"28ca8e26","membershipEnforce(address,uint256)":"62593f60","membershipID(uint256)":"f77914c3","mint(uint256,uint256)":"1b2ef1ca","mintInflation(uint256)":"67c394fb","mintMembership(uint256)":"0d78d0c1","mintPath(uint256,uint256)":"791ddaf9","name()":"06fdde03","options(bytes32,uint256)":"20f94427","redistribute(uint256)":"a0ce552d","redistributePath(uint256)":"a0762253","resignal(uint256,address)":"1fae703b","safeBatchTransferFrom(address,address,uint256[],uint256[],bytes)":"2eb2c2d6","safeTransferFrom(address,address,uint256,uint256,bytes)":"f242432a","sendSignal(uint256,uint256[])":"5b4a26ed","setApprovalForAll(address,bool)":"a22cb465","setControl(address)":"5ac8260c","spawnNode(uint256)":"bfad25e5","spawnNodeWithMembrane(uint256,address[],uint256[],string,uint256)":"114b6e49","spawnRootNode(address)":"af1b55b0","supportsInterface(bytes4)":"01ffc9a7","symbol()":"95d89b41","taxPolicyPreference(address,uint256)":"1f017841","toAddress(uint256)":"e0051aa9","toID(address)":"0f336348","totalSupply(uint256)":"bd85b039","uri(uint256)":"0e89341c"},"storageLayout":{"storage":[{"astId":53184,"contract":"src/WillWe.sol:WillWe","label":"entityCount","offset":0,"slot":"0","type":"t_uint256"},{"astId":53186,"contract":"src/WillWe.sol:WillWe","label":"executionAddress","offset":0,"slot":"1","type":"t_address"},{"astId":53188,"contract":"src/WillWe.sol:WillWe","label":"Will","offset":0,"slot":"2","type":"t_address"},{"astId":53191,"contract":"src/WillWe.sol:WillWe","label":"M","offset":0,"slot":"3","type":"t_contract(IMembrane)56903"},{"astId":53196,"contract":"src/WillWe.sol:WillWe","label":"totalSupplyOf","offset":0,"slot":"4","type":"t_mapping(t_uint256,t_uint256)"},{"astId":53202,"contract":"src/WillWe.sol:WillWe","label":"childrenOf","offset":0,"slot":"5","type":"t_mapping(t_uint256,t_array(t_uint256)dyn_storage)"},{"astId":53207,"contract":"src/WillWe.sol:WillWe","label":"parentOf","offset":0,"slot":"6","type":"t_mapping(t_uint256,t_uint256)"},{"astId":53214,"contract":"src/WillWe.sol:WillWe","label":"inflSec","offset":0,"slot":"7","type":"t_mapping(t_uint256,t_array(t_uint256)3_storage)"},{"astId":53221,"contract":"src/WillWe.sol:WillWe","label":"inUseMembraneId","offset":0,"slot":"8","type":"t_mapping(t_uint256,t_array(t_uint256)2_storage)"},{"astId":53227,"contract":"src/WillWe.sol:WillWe","label":"members","offset":0,"slot":"9","type":"t_mapping(t_uint256,t_array(t_address)dyn_storage)"},{"astId":53234,"contract":"src/WillWe.sol:WillWe","label":"options","offset":0,"slot":"10","type":"t_mapping(t_bytes32,t_array(t_uint256)3_storage)"},{"astId":53239,"contract":"src/WillWe.sol:WillWe","label":"taxRate","offset":0,"slot":"11","type":"t_mapping(t_address,t_uint256)"},{"astId":53245,"contract":"src/WillWe.sol:WillWe","label":"userNodeSignals","offset":0,"slot":"12","type":"t_mapping(t_bytes32,t_array(t_uint256)dyn_storage)"},{"astId":53249,"contract":"src/WillWe.sol:WillWe","label":"control","offset":0,"slot":"13","type":"t_array(t_address)2_storage"},{"astId":53251,"contract":"src/WillWe.sol:WillWe","label":"impersonatingAddress","offset":0,"slot":"15","type":"t_address"},{"astId":53253,"contract":"src/WillWe.sol:WillWe","label":"name","offset":0,"slot":"16","type":"t_string_storage"},{"astId":53255,"contract":"src/WillWe.sol:WillWe","label":"symbol","offset":0,"slot":"17","type":"t_string_storage"},{"astId":53257,"contract":"src/WillWe.sol:WillWe","label":"useBefore","offset":0,"slot":"18","type":"t_bool"}],"types":{"t_address":{"encoding":"inplace","label":"address","numberOfBytes":"20"},"t_array(t_address)2_storage":{"encoding":"inplace","label":"address[2]","numberOfBytes":"64","base":"t_address"},"t_array(t_address)dyn_storage":{"encoding":"dynamic_array","label":"address[]","numberOfBytes":"32","base":"t_address"},"t_array(t_uint256)2_storage":{"encoding":"inplace","label":"uint256[2]","numberOfBytes":"64","base":"t_uint256"},"t_array(t_uint256)3_storage":{"encoding":"inplace","label":"uint256[3]","numberOfBytes":"96","base":"t_uint256"},"t_array(t_uint256)dyn_storage":{"encoding":"dynamic_array","label":"uint256[]","numberOfBytes":"32","base":"t_uint256"},"t_bool":{"encoding":"inplace","label":"bool","numberOfBytes":"1"},"t_bytes32":{"encoding":"inplace","label":"bytes32","numberOfBytes":"32"},"t_contract(IMembrane)56903":{"encoding":"inplace","label":"contract IMembrane","numberOfBytes":"20"},"t_mapping(t_address,t_uint256)":{"encoding":"mapping","key":"t_address","label":"mapping(address => uint256)","numberOfBytes":"32","value":"t_uint256"},"t_mapping(t_bytes32,t_array(t_uint256)3_storage)":{"encoding":"mapping","key":"t_bytes32","label":"mapping(bytes32 => uint256[3])","numberOfBytes":"32","value":"t_array(t_uint256)3_storage"},"t_mapping(t_bytes32,t_array(t_uint256)dyn_storage)":{"encoding":"mapping","key":"t_bytes32","label":"mapping(bytes32 => uint256[])","numberOfBytes":"32","value":"t_array(t_uint256)dyn_storage"},"t_mapping(t_uint256,t_array(t_address)dyn_storage)":{"encoding":"mapping","key":"t_uint256","label":"mapping(uint256 => address[])","numberOfBytes":"32","value":"t_array(t_address)dyn_storage"},"t_mapping(t_uint256,t_array(t_uint256)2_storage)":{"encoding":"mapping","key":"t_uint256","label":"mapping(uint256 => uint256[2])","numberOfBytes":"32","value":"t_array(t_uint256)2_storage"},"t_mapping(t_uint256,t_array(t_uint256)3_storage)":{"encoding":"mapping","key":"t_uint256","label":"mapping(uint256 => uint256[3])","numberOfBytes":"32","value":"t_array(t_uint256)3_storage"},"t_mapping(t_uint256,t_array(t_uint256)dyn_storage)":{"encoding":"mapping","key":"t_uint256","label":"mapping(uint256 => uint256[])","numberOfBytes":"32","value":"t_array(t_uint256)dyn_storage"},"t_mapping(t_uint256,t_uint256)":{"encoding":"mapping","key":"t_uint256","label":"mapping(uint256 => uint256)","numberOfBytes":"32","value":"t_uint256"},"t_string_storage":{"encoding":"bytes","label":"string","numberOfBytes":"32"},"t_uint256":{"encoding":"inplace","label":"uint256","numberOfBytes":"32"}}},"id":64}