{"abi":[{"type":"constructor","inputs":[{"name":"Execution","type":"address","internalType":"address"},{"name":"Membrane","type":"address","internalType":"address"}],"stateMutability":"nonpayable"},{"type":"function","name":"Will","inputs":[],"outputs":[{"name":"","type":"address","internalType":"address"}],"stateMutability":"view"},{"type":"function","name":"allMembersOf","inputs":[{"name":"fid_","type":"uint256","internalType":"uint256"}],"outputs":[{"name":"membersOf","type":"address[]","internalType":"address[]"}],"stateMutability":"view"},{"type":"function","name":"asRootValuation","inputs":[{"name":"target_","type":"uint256","internalType":"uint256"},{"name":"amount","type":"uint256","internalType":"uint256"}],"outputs":[{"name":"","type":"uint256","internalType":"uint256"}],"stateMutability":"view"},{"type":"function","name":"balanceOf","inputs":[{"name":"owner","type":"address","internalType":"address"},{"name":"id","type":"uint256","internalType":"uint256"}],"outputs":[{"name":"result","type":"uint256","internalType":"uint256"}],"stateMutability":"view"},{"type":"function","name":"balanceOfBatch","inputs":[{"name":"owners","type":"address[]","internalType":"address[]"},{"name":"ids","type":"uint256[]","internalType":"uint256[]"}],"outputs":[{"name":"balances","type":"uint256[]","internalType":"uint256[]"}],"stateMutability":"view"},{"type":"function","name":"burn","inputs":[{"name":"fid_","type":"uint256","internalType":"uint256"},{"name":"amount_","type":"uint256","internalType":"uint256"}],"outputs":[{"name":"topVal","type":"uint256","internalType":"uint256"}],"stateMutability":"nonpayable"},{"type":"function","name":"burnPath","inputs":[{"name":"target_","type":"uint256","internalType":"uint256"},{"name":"amount","type":"uint256","internalType":"uint256"}],"outputs":[],"stateMutability":"nonpayable"},{"type":"function","name":"calculateUserTargetedPreferenceAmount","inputs":[{"name":"childId","type":"uint256","internalType":"uint256"},{"name":"parentId","type":"uint256","internalType":"uint256"},{"name":"signal","type":"uint256","internalType":"uint256"},{"name":"user","type":"address","internalType":"address"}],"outputs":[{"name":"","type":"uint256","internalType":"uint256"}],"stateMutability":"view"},{"type":"function","name":"control","inputs":[{"name":"","type":"uint256","internalType":"uint256"}],"outputs":[{"name":"","type":"address","internalType":"address"}],"stateMutability":"view"},{"type":"function","name":"createEndpointForOwner","inputs":[{"name":"nodeId_","type":"uint256","internalType":"uint256"},{"name":"owner","type":"address","internalType":"address"}],"outputs":[{"name":"endpointAddress","type":"address","internalType":"address"}],"stateMutability":"nonpayable"},{"type":"function","name":"executionAddress","inputs":[],"outputs":[{"name":"","type":"address","internalType":"address"}],"stateMutability":"view"},{"type":"function","name":"getAllNodesForRoot","inputs":[{"name":"rootAddress","type":"address","internalType":"address"},{"name":"userIfAny","type":"address","internalType":"address"}],"outputs":[{"name":"nodes","type":"tuple[]","internalType":"struct NodeState[]","components":[{"name":"basicInfo","type":"string[12]","internalType":"string[12]"},{"name":"membraneMeta","type":"string","internalType":"string"},{"name":"membersOfNode","type":"address[]","internalType":"address[]"},{"name":"childrenNodes","type":"string[]","internalType":"string[]"},{"name":"movementEndpoints","type":"address[]","internalType":"address[]"},{"name":"rootPath","type":"string[]","internalType":"string[]"},{"name":"nodeSignals","type":"tuple","internalType":"struct AllNodeSignals","components":[{"name":"signalers","type":"address[]","internalType":"address[]"},{"name":"inflationSignals","type":"uint256[2][]","internalType":"uint256[2][]"},{"name":"membraneSignals","type":"uint256[2][]","internalType":"uint256[2][]"},{"name":"redistributionSignals","type":"uint256[][]","internalType":"uint256[][]"}]}]}],"stateMutability":"view"},{"type":"function","name":"getAllSignalsOfNode","inputs":[{"name":"nodeId","type":"uint256","internalType":"uint256"}],"outputs":[{"name":"all","type":"tuple","internalType":"struct AllNodeSignals","components":[{"name":"signalers","type":"address[]","internalType":"address[]"},{"name":"inflationSignals","type":"uint256[2][]","internalType":"uint256[2][]"},{"name":"membraneSignals","type":"uint256[2][]","internalType":"uint256[2][]"},{"name":"redistributionSignals","type":"uint256[][]","internalType":"uint256[][]"}]}],"stateMutability":"view"},{"type":"function","name":"getChildrenOf","inputs":[{"name":"fid_","type":"uint256","internalType":"uint256"}],"outputs":[{"name":"","type":"uint256[]","internalType":"uint256[]"}],"stateMutability":"view"},{"type":"function","name":"getFidPath","inputs":[{"name":"fid_","type":"uint256","internalType":"uint256"}],"outputs":[{"name":"fids","type":"uint256[]","internalType":"uint256[]"}],"stateMutability":"view"},{"type":"function","name":"getMembraneOf","inputs":[{"name":"fid_","type":"uint256","internalType":"uint256"}],"outputs":[{"name":"","type":"uint256","internalType":"uint256"}],"stateMutability":"view"},{"type":"function","name":"getNodeData","inputs":[{"name":"nodeId","type":"uint256","internalType":"uint256"},{"name":"user","type":"address","internalType":"address"}],"outputs":[{"name":"nodeData","type":"tuple","internalType":"struct NodeState","components":[{"name":"basicInfo","type":"string[12]","internalType":"string[12]"},{"name":"membraneMeta","type":"string","internalType":"string"},{"name":"membersOfNode","type":"address[]","internalType":"address[]"},{"name":"childrenNodes","type":"string[]","internalType":"string[]"},{"name":"movementEndpoints","type":"address[]","internalType":"address[]"},{"name":"rootPath","type":"string[]","internalType":"string[]"},{"name":"nodeSignals","type":"tuple","internalType":"struct AllNodeSignals","components":[{"name":"signalers","type":"address[]","internalType":"address[]"},{"name":"inflationSignals","type":"uint256[2][]","internalType":"uint256[2][]"},{"name":"membraneSignals","type":"uint256[2][]","internalType":"uint256[2][]"},{"name":"redistributionSignals","type":"uint256[][]","internalType":"uint256[][]"}]}]}],"stateMutability":"view"},{"type":"function","name":"getParentOf","inputs":[{"name":"fid_","type":"uint256","internalType":"uint256"}],"outputs":[{"name":"","type":"uint256","internalType":"uint256"}],"stateMutability":"view"},{"type":"function","name":"getUserNodeSignals","inputs":[{"name":"user_","type":"address","internalType":"address"},{"name":"node_","type":"uint256","internalType":"uint256"}],"outputs":[{"name":"","type":"uint256[]","internalType":"uint256[]"}],"stateMutability":"view"},{"type":"function","name":"inParentDenomination","inputs":[{"name":"amt_","type":"uint256","internalType":"uint256"},{"name":"id_","type":"uint256","internalType":"uint256"}],"outputs":[{"name":"inParentVal","type":"uint256","internalType":"uint256"}],"stateMutability":"view"},{"type":"function","name":"inflationOf","inputs":[{"name":"nodeId","type":"uint256","internalType":"uint256"}],"outputs":[{"name":"","type":"uint256","internalType":"uint256"}],"stateMutability":"view"},{"type":"function","name":"initSelfControl","inputs":[],"outputs":[{"name":"","type":"address","internalType":"address"}],"stateMutability":"nonpayable"},{"type":"function","name":"isApprovedForAll","inputs":[{"name":"owner","type":"address","internalType":"address"},{"name":"operator","type":"address","internalType":"address"}],"outputs":[{"name":"result","type":"bool","internalType":"bool"}],"stateMutability":"view"},{"type":"function","name":"isMember","inputs":[{"name":"whoabout_","type":"address","internalType":"address"},{"name":"whereabout_","type":"uint256","internalType":"uint256"}],"outputs":[{"name":"","type":"bool","internalType":"bool"}],"stateMutability":"view"},{"type":"function","name":"localizeEndpoint","inputs":[{"name":"endpoint_","type":"address","internalType":"address"},{"name":"endpointParent_","type":"uint256","internalType":"uint256"},{"name":"owner_","type":"address","internalType":"address"}],"outputs":[],"stateMutability":"nonpayable"},{"type":"function","name":"membershipEnforce","inputs":[{"name":"target","type":"address","internalType":"address"},{"name":"fid_","type":"uint256","internalType":"uint256"}],"outputs":[{"name":"s","type":"bool","internalType":"bool"}],"stateMutability":"nonpayable"},{"type":"function","name":"membershipID","inputs":[{"name":"fid_","type":"uint256","internalType":"uint256"}],"outputs":[{"name":"","type":"uint256","internalType":"uint256"}],"stateMutability":"pure"},{"type":"function","name":"mint","inputs":[{"name":"fid_","type":"uint256","internalType":"uint256"},{"name":"amount_","type":"uint256","internalType":"uint256"}],"outputs":[],"stateMutability":"nonpayable"},{"type":"function","name":"mintInflation","inputs":[{"name":"node","type":"uint256","internalType":"uint256"}],"outputs":[{"name":"amount","type":"uint256","internalType":"uint256"}],"stateMutability":"nonpayable"},{"type":"function","name":"mintMembership","inputs":[{"name":"fid_","type":"uint256","internalType":"uint256"}],"outputs":[],"stateMutability":"nonpayable"},{"type":"function","name":"mintPath","inputs":[{"name":"target_","type":"uint256","internalType":"uint256"},{"name":"amount_","type":"uint256","internalType":"uint256"}],"outputs":[],"stateMutability":"nonpayable"},{"type":"function","name":"name","inputs":[],"outputs":[{"name":"","type":"string","internalType":"string"}],"stateMutability":"view"},{"type":"function","name":"options","inputs":[{"name":"NodeXUserXValue","type":"bytes32","internalType":"bytes32"},{"name":"","type":"uint256","internalType":"uint256"}],"outputs":[{"name":"valueAtTime","type":"uint256","internalType":"uint256"}],"stateMutability":"view"},{"type":"function","name":"redistribute","inputs":[{"name":"nodeId_","type":"uint256","internalType":"uint256"}],"outputs":[{"name":"distributedAmt","type":"uint256","internalType":"uint256"}],"stateMutability":"nonpayable"},{"type":"function","name":"redistributePath","inputs":[{"name":"nodeId_","type":"uint256","internalType":"uint256"}],"outputs":[{"name":"distributedAmt","type":"uint256","internalType":"uint256"}],"stateMutability":"nonpayable"},{"type":"function","name":"resignal","inputs":[{"name":"targetNode_","type":"uint256","internalType":"uint256"},{"name":"originator","type":"address","internalType":"address"}],"outputs":[],"stateMutability":"nonpayable"},{"type":"function","name":"safeBatchTransferFrom","inputs":[{"name":"from","type":"address","internalType":"address"},{"name":"to","type":"address","internalType":"address"},{"name":"ids","type":"uint256[]","internalType":"uint256[]"},{"name":"amounts","type":"uint256[]","internalType":"uint256[]"},{"name":"data","type":"bytes","internalType":"bytes"}],"outputs":[],"stateMutability":"nonpayable"},{"type":"function","name":"safeTransferFrom","inputs":[{"name":"from","type":"address","internalType":"address"},{"name":"to","type":"address","internalType":"address"},{"name":"id","type":"uint256","internalType":"uint256"},{"name":"amount","type":"uint256","internalType":"uint256"},{"name":"data","type":"bytes","internalType":"bytes"}],"outputs":[],"stateMutability":"nonpayable"},{"type":"function","name":"sendSignal","inputs":[{"name":"targetNode_","type":"uint256","internalType":"uint256"},{"name":"signals","type":"uint256[]","internalType":"uint256[]"}],"outputs":[],"stateMutability":"nonpayable"},{"type":"function","name":"setApprovalForAll","inputs":[{"name":"operator","type":"address","internalType":"address"},{"name":"isApproved","type":"bool","internalType":"bool"}],"outputs":[],"stateMutability":"nonpayable"},{"type":"function","name":"setControl","inputs":[{"name":"newController","type":"address","internalType":"address"}],"outputs":[],"stateMutability":"nonpayable"},{"type":"function","name":"spawnNode","inputs":[{"name":"fid_","type":"uint256","internalType":"uint256"}],"outputs":[{"name":"newID","type":"uint256","internalType":"uint256"}],"stateMutability":"nonpayable"},{"type":"function","name":"spawnNodeWithMembrane","inputs":[{"name":"fid_","type":"uint256","internalType":"uint256"},{"name":"tokens_","type":"address[]","internalType":"address[]"},{"name":"balances_","type":"uint256[]","internalType":"uint256[]"},{"name":"meta_","type":"string","internalType":"string"},{"name":"inflationRate_","type":"uint256","internalType":"uint256"}],"outputs":[{"name":"newID","type":"uint256","internalType":"uint256"}],"stateMutability":"nonpayable"},{"type":"function","name":"spawnRootNode","inputs":[{"name":"fungible20_","type":"address","internalType":"address"}],"outputs":[{"name":"fID","type":"uint256","internalType":"uint256"}],"stateMutability":"nonpayable"},{"type":"function","name":"supportsInterface","inputs":[{"name":"interfaceId","type":"bytes4","internalType":"bytes4"}],"outputs":[{"name":"result","type":"bool","internalType":"bool"}],"stateMutability":"view"},{"type":"function","name":"symbol","inputs":[],"outputs":[{"name":"","type":"string","internalType":"string"}],"stateMutability":"view"},{"type":"function","name":"taxPolicyPreference","inputs":[{"name":"rootToken_","type":"address","internalType":"address"},{"name":"taxRate_","type":"uint256","internalType":"uint256"}],"outputs":[],"stateMutability":"nonpayable"},{"type":"function","name":"toAddress","inputs":[{"name":"x","type":"uint256","internalType":"uint256"}],"outputs":[{"name":"","type":"address","internalType":"address"}],"stateMutability":"pure"},{"type":"function","name":"toID","inputs":[{"name":"x","type":"address","internalType":"address"}],"outputs":[{"name":"","type":"uint256","internalType":"uint256"}],"stateMutability":"pure"},{"type":"function","name":"totalSupply","inputs":[{"name":"nodeId","type":"uint256","internalType":"uint256"}],"outputs":[{"name":"","type":"uint256","internalType":"uint256"}],"stateMutability":"view"},{"type":"function","name":"uri","inputs":[{"name":"id_","type":"uint256","internalType":"uint256"}],"outputs":[{"name":"","type":"string","internalType":"string"}],"stateMutability":"view"},{"type":"event","name":"ApprovalForAll","inputs":[{"name":"owner","type":"address","indexed":true,"internalType":"address"},{"name":"operator","type":"address","indexed":true,"internalType":"address"},{"name":"isApproved","type":"bool","indexed":false,"internalType":"bool"}],"anonymous":false},{"type":"event","name":"Burned","inputs":[{"name":"fromAddressOrNode","type":"address","indexed":true,"internalType":"address"},{"name":"nodeId","type":"uint256","indexed":true,"internalType":"uint256"},{"name":"amount","type":"uint256","indexed":false,"internalType":"uint256"}],"anonymous":false},{"type":"event","name":"CreatedEndpoint","inputs":[{"name":"endpoint","type":"address","indexed":true,"internalType":"address"},{"name":"owner","type":"address","indexed":true,"internalType":"address"},{"name":"nodeId","type":"uint256","indexed":true,"internalType":"uint256"}],"anonymous":false},{"type":"event","name":"InflationRateChanged","inputs":[{"name":"nodeId","type":"uint256","indexed":true,"internalType":"uint256"},{"name":"oldInflationRate","type":"uint256","indexed":false,"internalType":"uint256"},{"name":"newInflationRate","type":"uint256","indexed":false,"internalType":"uint256"}],"anonymous":false},{"type":"event","name":"InflationSignal","inputs":[{"name":"nodeId","type":"uint256","indexed":true,"internalType":"uint256"},{"name":"origin","type":"address","indexed":true,"internalType":"address"},{"name":"inflationRate","type":"uint256","indexed":false,"internalType":"uint256"},{"name":"strength","type":"uint256","indexed":false,"internalType":"uint256"}],"anonymous":false},{"type":"event","name":"MemberRemoved","inputs":[{"name":"userAddress","type":"address","indexed":true,"internalType":"address"},{"name":"nodeId","type":"uint256","indexed":true,"internalType":"uint256"}],"anonymous":false},{"type":"event","name":"MembershipMinted","inputs":[{"name":"who","type":"address","indexed":true,"internalType":"address"},{"name":"nodeId","type":"uint256","indexed":true,"internalType":"uint256"}],"anonymous":false},{"type":"event","name":"MembraneChanged","inputs":[{"name":"nodeId","type":"uint256","indexed":true,"internalType":"uint256"},{"name":"previousMembrane","type":"uint256","indexed":false,"internalType":"uint256"},{"name":"newMembrane","type":"uint256","indexed":false,"internalType":"uint256"}],"anonymous":false},{"type":"event","name":"MembraneSignal","inputs":[{"name":"nodeId","type":"uint256","indexed":true,"internalType":"uint256"},{"name":"origin","type":"address","indexed":true,"internalType":"address"},{"name":"membraneId","type":"uint256","indexed":false,"internalType":"uint256"},{"name":"strength","type":"uint256","indexed":false,"internalType":"uint256"}],"anonymous":false},{"type":"event","name":"Minted","inputs":[{"name":"fromAddressOrNode","type":"address","indexed":true,"internalType":"address"},{"name":"nodeId","type":"uint256","indexed":true,"internalType":"uint256"},{"name":"amount","type":"uint256","indexed":false,"internalType":"uint256"}],"anonymous":false},{"type":"event","name":"NewNode","inputs":[{"name":"newId","type":"uint256","indexed":true,"internalType":"uint256"},{"name":"parentId","type":"uint256","indexed":true,"internalType":"uint256"},{"name":"creator","type":"address","indexed":true,"internalType":"address"}],"anonymous":false},{"type":"event","name":"NewRootNode","inputs":[{"name":"rootNodeId","type":"uint256","indexed":true,"internalType":"uint256"}],"anonymous":false},{"type":"event","name":"Resignaled","inputs":[{"name":"sender","type":"address","indexed":true,"internalType":"address"},{"name":"nodeId","type":"uint256","indexed":true,"internalType":"uint256"},{"name":"origin","type":"address","indexed":false,"internalType":"address"}],"anonymous":false},{"type":"event","name":"SelfControlAtAddress","inputs":[{"name":"AgencyLocus","type":"address","indexed":false,"internalType":"address"}],"anonymous":false},{"type":"event","name":"SharesGenerated","inputs":[{"name":"nodeId","type":"uint256","indexed":true,"internalType":"uint256"},{"name":"amount","type":"uint256","indexed":false,"internalType":"uint256"}],"anonymous":false},{"type":"event","name":"TransferBatch","inputs":[{"name":"operator","type":"address","indexed":true,"internalType":"address"},{"name":"from","type":"address","indexed":true,"internalType":"address"},{"name":"to","type":"address","indexed":true,"internalType":"address"},{"name":"ids","type":"uint256[]","indexed":false,"internalType":"uint256[]"},{"name":"amounts","type":"uint256[]","indexed":false,"internalType":"uint256[]"}],"anonymous":false},{"type":"event","name":"TransferSingle","inputs":[{"name":"operator","type":"address","indexed":true,"internalType":"address"},{"name":"from","type":"address","indexed":true,"internalType":"address"},{"name":"to","type":"address","indexed":true,"internalType":"address"},{"name":"id","type":"uint256","indexed":false,"internalType":"uint256"},{"name":"amount","type":"uint256","indexed":false,"internalType":"uint256"}],"anonymous":false},{"type":"event","name":"URI","inputs":[{"name":"value","type":"string","indexed":false,"internalType":"string"},{"name":"id","type":"uint256","indexed":true,"internalType":"uint256"}],"anonymous":false},{"type":"event","name":"UserNodeSignal","inputs":[{"name":"nodeId","type":"uint256","indexed":true,"internalType":"uint256"},{"name":"user","type":"address","indexed":true,"internalType":"address"},{"name":"signals","type":"uint256[]","indexed":false,"internalType":"uint256[]"},{"name":"strenght","type":"uint256","indexed":false,"internalType":"uint256"}],"anonymous":false},{"type":"error","name":"AccountBalanceOverflow","inputs":[]},{"type":"error","name":"AlreadyMember","inputs":[]},{"type":"error","name":"ArrayLengthsMismatch","inputs":[]},{"type":"error","name":"BadLen","inputs":[]},{"type":"error","name":"BaseOrNonFungible","inputs":[]},{"type":"error","name":"BurnE20TransferFailed","inputs":[]},{"type":"error","name":"CannotSkip","inputs":[]},{"type":"error","name":"Disabled","inputs":[]},{"type":"error","name":"EOA","inputs":[]},{"type":"error","name":"Endpoint","inputs":[]},{"type":"error","name":"ExecutionOnly","inputs":[]},{"type":"error","name":"IncompleteSign","inputs":[]},{"type":"error","name":"InsufficientAmt","inputs":[]},{"type":"error","name":"InsufficientBalance","inputs":[]},{"type":"error","name":"MembershipOp","inputs":[]},{"type":"error","name":"MembraneNotFound","inputs":[]},{"type":"error","name":"MintE20TransferFailed","inputs":[]},{"type":"error","name":"No","inputs":[]},{"type":"error","name":"NoControl","inputs":[]},{"type":"error","name":"NoSoup","inputs":[]},{"type":"error","name":"NoTimeDelta","inputs":[]},{"type":"error","name":"NodeAlreadyExists","inputs":[]},{"type":"error","name":"NodeNotFound","inputs":[]},{"type":"error","name":"Noise","inputs":[]},{"type":"error","name":"NoiseNotVoice","inputs":[]},{"type":"error","name":"NotMember","inputs":[]},{"type":"error","name":"NotNodeMember","inputs":[]},{"type":"error","name":"NotOwnerNorApproved","inputs":[]},{"type":"error","name":"Overreach","inputs":[]},{"type":"error","name":"ResignalMismatch","inputs":[]},{"type":"error","name":"RootExists","inputs":[]},{"type":"error","name":"SignalOverflow","inputs":[]},{"type":"error","name":"TargetIsRoot","inputs":[]},{"type":"error","name":"TransferToNonERC1155ReceiverImplementer","inputs":[]},{"type":"error","name":"TransferToZeroAddress","inputs":[]},{"type":"error","name":"Unautorised","inputs":[]},{"type":"error","name":"Unqualified","inputs":[]},{"type":"error","name":"UnregisteredFungible","inputs":[]},{"type":"error","name":"UnsoundMembership","inputs":[]},{"type":"error","name":"UnsupportedTransfer","inputs":[]},{"type":"error","name":"isControled","inputs":[]}],"bytecode":{"object":"0x608060405234801561000f575f80fd5b5060405161636538038061636583398101604081905261002e91610201565b5f8052600b60209081526103e87fdf7de25b7f1fd6d0b5205f0e18f1f35bd7b8d84cce336588d184533ce43a6f7655600180546001600160a01b0319166001600160a01b038516908117909155604080516390ef12cd60e01b81529051859385938593859391926390ef12cd926004808401938290030181865afa1580156100b8573d5f803e3d5ffd5b505050506040513d601f19601f820116820180604052508101906100dc9190610232565b600280546001600160a01b03199081166001600160a01b03938416179091556003805490911691831691909117905560408051808201909152600a8152692bb4b6362bb2973c3cbd60b11b602082015260109061013990826102ea565b5060408051808201909152600481526315d2531360e21b602082015260119061016290826102ea565b505060128054600160ff19909116811790915580546001600160a01b0319166001600160a01b038516908117909155604051633a8f06ab60e21b815230600482015290915063ea3c1aac906024015f604051808303815f87803b1580156101c7575f80fd5b505af11580156101d9573d5f803e3d5ffd5b50505050505050506103a9565b80516001600160a01b03811681146101fc575f80fd5b919050565b5f8060408385031215610212575f80fd5b61021b836101e6565b9150610229602084016101e6565b90509250929050565b5f60208284031215610242575f80fd5b61024b826101e6565b9392505050565b634e487b7160e01b5f52604160045260245ffd5b600181811c9082168061027a57607f821691505b60208210810361029857634e487b7160e01b5f52602260045260245ffd5b50919050565b601f8211156102e557805f5260205f20601f840160051c810160208510156102c35750805b601f840160051c820191505b818110156102e2575f81556001016102cf565b50505b505050565b81516001600160401b0381111561030357610303610252565b610317816103118454610266565b8461029e565b602080601f83116001811461034a575f84156103335750858301515b5f19600386901b1c1916600185901b1785556103a1565b5f85815260208120601f198616915b8281101561037857888601518255948401946001909101908401610359565b508582101561039557878501515f19600388901b60f8161c191681555b505060018460011b0185555b505050505050565b615faf806103b65f395ff3fe608060405234801561000f575f80fd5b50600436106102e4575f3560e01c806368dc274711610195578063a6bfbc20116100e4578063e985e9c51161009e578063f242432a11610079578063f242432a1461072f578063f6355a5614610742578063f77914c314610755578063f87cc6b314610768575f80fd5b8063e985e9c5146106d1578063eef2e757146106fc578063f039a7331461071c575f80fd5b8063a6bfbc2014610646578063af1b55b014610666578063b390c0ab14610679578063bd85b0391461068c578063bfad25e5146106ab578063e0051aa9146106be575f80fd5b80637f33d8001161014f57806399f456891161012a57806399f45689146105fa578063a07622531461060d578063a0ce552d14610620578063a22cb46514610633575f80fd5b80637f33d800146105cc57806385752d03146105df57806395d89b41146105f2575f80fd5b806368dc274714610565578063765063e51461056d57806378adc79014610580578063791ddaf9146105935780637d11e682146105a65780637e44bffe146105b9575f80fd5b80631f0178411161025157806345bbbf841161020b5780635ac8260c116101e65780635ac8260c146105195780635b4a26ed1461052c57806362593f601461053f57806367c394fb14610552575f80fd5b806345bbbf84146104c85780634e1273f4146104f3578063535e989114610506575f80fd5b80631f017841146104495780631fae703b1461045c57806320f944271461046f57806328ca8e26146104825780632eb2c2d61461049557806330f9b165146104a8575f80fd5b80630ffd3910116102a25780630ffd3910146103be578063114b6e49146103d157806313e75206146103e4578063150d503d146104035780631b2ef1ca146104235780631e9b388d14610436575f80fd5b8062fdd58e146102e857806301ffc9a71461032757806306fdde03146103675780630d78d0c11461037c5780630e89341c146103915780630f336348146103a4575b5f80fd5b6103146102f63660046150d5565b679a31110384e0b0c96020526014919091525f908152604090205490565b6040519081526020015b60405180910390f35b6103576103353660046150ff565b6301ffc9a760e09190911c90811463d9b67a26821417630e89341c9091141790565b604051901515815260200161031e565b61036f610788565b60405161031e9190615154565b61038f61038a366004615166565b610814565b005b61036f61039f366004615166565b61098a565b6103146103b236600461517d565b6001600160a01b031690565b6103146103cc366004615198565b6109bb565b6103146103df366004615343565b610a9b565b6103146103f2366004615166565b5f9081526006602052604090205490565b6104166104113660046150d5565b610bf7565b60405161031e919061546d565b61038f61043136600461547f565b610ca0565b61031461044436600461547f565b610d10565b61038f6104573660046150d5565b610d8b565b61038f61046a36600461549f565b610e02565b61031461047d36600461547f565b6110b7565b61038f6104903660046154cd565b6110d9565b61038f6104a3366004615590565b6111c4565b6104bb6104b6366004615166565b61147d565b60405161031e91906157a2565b6104db6104d636600461549f565b611938565b6040516001600160a01b03909116815260200161031e565b6104166105013660046157b4565b611a23565b6002546104db906001600160a01b031681565b61038f61052736600461517d565b611a90565b61038f61053a36600461581a565b611b1c565b61035761054d3660046150d5565b611fe8565b610314610560366004615166565b61212d565b6104db6121fb565b61031461057b366004615166565b6123cd565b6001546104db906001600160a01b031681565b61038f6105a136600461547f565b6123e4565b6104db6105b4366004615166565b61243c565b6103146105c7366004615166565b61245b565b6103146105da36600461547f565b61246e565b6103576105ed3660046150d5565b6124f5565b61036f612512565b610416610608366004615166565b61251f565b61031461061b366004615166565b61257e565b61031461062e366004615166565b6125d6565b61038f61064136600461586a565b61272f565b61065961065436600461549f565b612748565b60405161031e91906159ea565b61031461067436600461517d565b612819565b61031461068736600461547f565b6128c5565b61031461069a366004615166565b5f9081526004602052604090205490565b6103146106b9366004615166565b612bdb565b6104db6106cc366004615166565b612d18565b6103576106df3660046159fc565b679a31110384e0b0c96020526014919091525f526034600c205490565b61070f61070a366004615166565b612d34565b60405161031e9190615a28565b61038f61072a36600461547f565b612e9b565b61038f61073d366004615a3a565b612f86565b610416610750366004615166565b61314e565b610314610763366004615166565b613253565b61077b6107763660046159fc565b61327b565b60405161031e9190615ab0565b6010805461079590615b12565b80601f01602080910402602001604051908101604052809291908181526020018280546107c190615b12565b801561080c5780601f106107e35761010080835404028352916020019161080c565b820191905f5260205f20905b8154815290600101906020018083116107ef57829003601f168201915b505050505081565b5f81815260066020526040812054900361084157604051634825e09360e01b815260040160405180910390fd5b5f8181526006602052604090205481900361086f5760405163bd23392760e01b815260040160405180910390fd5b5f8181526004602052604090205460010161089d57604051630cf32f7560e21b815260040160405180910390fd5b6108ae6108a861336a565b826124f5565b156108cc576040516340803a5f60e11b815260040160405180910390fd5b6003546001600160a01b03166389160e0e6108e561336a565b6108ee8461245b565b6040516001600160e01b031960e085901b1681526001600160a01b0390921660048301526024820152604401602060405180830381865afa158015610935573d5f803e3d5ffd5b505050506040513d601f19601f820116820180604052508101906109599190615b4a565b6109765760405163b2cab42960e01b815260040160405180910390fd5b61098761098161336a565b826133a9565b50565b606061099582613446565b6040516020016109a59190615b65565b6040516020818303038152906040529050919050565b5f8481526006602052604081205484146109e857604051635f12529560e01b815260040160405180910390fd5b5f610a216109f586612d18565b5f87815260066020526040902054679a31110384e0b0c96020526014919091525f908152604090205490565b679a31110384e0b0c9602090815260148590525f878152604080822054600790935290205491925090633b9aca008211610a60575f9350505050610a93565b5f610a6d84612710615bcc565b82610a788986615bcc565b610a829190615bcc565b610a8c9190615bf7565b9450505050505b949350505050565b60035460405163333cabc560e01b81525f9182916001600160a01b039091169063333cabc590610ad390899089908990600401615c0a565b6020604051808303815f875af1158015610aef573d5f803e3d5ffd5b505050506040513d601f19601f82011682018060405250810190610b139190615c4c565b9050610b1e87612bdb565b5f8181526008602052604090208281554260019091015591508215610b5057610b4b83633b9aca00615bcc565b610b57565b64e8d4a510005b5f8381526007602052604081200155604080515f81526020810183905283917fe48aa5e298e92f05c7b7489cb783dd272acece1ed2b7aae5007022513a997611910160405180910390a25f82815260076020526040812083917f0ad1727523f8a97d260a40299bd81a21bbcdb605a771d1390f8fa163b2632caf918101546040805192835260208301919091520160405180910390a25095945050505050565b6060600c5f8484604051602001610c2792919060609290921b6001600160601b0319168252601482015260340190565b6040516020818303038152906040528051906020012081526020019081526020015f20805480602002602001604051908101604052809291908181526020018280548015610c9257602002820191905f5260205f20905b815481526020019060010190808311610c7e575b505050505090505b92915050565b5f828152600660205260408120549003610ccd57604051635f12529560e01b815260040160405180910390fd5b610d0c610cd861336a565b8383604051602001610cf8906766756e6769626c6560c01b815260080190565b6040516020818303038152906040526134d5565b5050565b5f8181526004602052604081205415610d82575f82815260046020526040902054610d69610d3d84612d18565b5f85815260066020526040902054679a31110384e0b0c96020526014919091525f908152604090205490565b610d739085615bcc565b610d7d9190615bf7565b610d84565b5f5b9392505050565b600d546001600160a01b0316610d9f61336a565b6001600160a01b031614610dc6576040516385ea10fd60e01b815260040160405180910390fd5b60018111610de75760405163023ad70560e31b815260040160405180910390fd5b6001600160a01b039091165f908152600b6020526040902055565b5f610e0d8284610bf7565b90506002815111610e1d57505050565b5f356001600160e01b03191663b390c0ab60e01b1480610e4e575063f039a73360e01b6001600160e01b03195f3516145b1561103c575f83815260056020908152604080832080548251818502810185019093528083529192909190830182828015610ea657602002820191905f5260205f20905b815481526020019060010190808311610e92575b50939450600293505050505b825181108015610ecc57508151610eca600283615c63565b105b15611039575f848684610ee0600286615c63565b81518110610ef057610ef0615ba4565b6020026020010151604051602001610f2a9392919060609390931b6001600160601b03191683526014830191909152603482015260540190565b6040516020818303038152906040528051906020012090505f83600284610f519190615c63565b81518110610f6157610f61615ba4565b602002602001015187604051602001610f84929190918252602082015260400190565b60408051808303601f1901815291815281516020928301205f858152600a90935291206002015490915015611024575f818152600a60205260408082205484835291206002015410610fe3575f818152600a6020526040812055611012565b5f828152600a60205260408082206002015483835290822080549192909161100c908490615c63565b90915550505b5f828152600a60205260408120600201555b5050808061103190615c76565b915050610eb2565b50505b600f80546001600160a01b0319166001600160a01b0384161790556110618382611b1c565b600f80546001600160a01b03191690556040516001600160a01b0383168152839033907f081dd7a021608cb1e85f93c3e497da26967bb26442035ffc020ba466aed4049d906020015b60405180910390a3505050565b600a602052815f5260405f2081600381106110d0575f80fd5b01549150829050565b6001546001600160a01b0316331461110457604051630fc714ab60e01b815260040160405180910390fd5b61110e81836124f5565b156111ac576001600160a01b038181165f818152600960208181526040832080546001810182559084529083200180546001600160a01b0319169488169490941790935590849061115f9190615c8e565b815260208082019290925260409081015f90812080546001810182559082528382200180546001600160a01b0319166001600160a01b0388169081179091558152600490925290205f1990555b6111bf6001600160a01b03841683613549565b505050565b60125460ff161561126f5761126f88888888808060200260200160405190810160405280939291908181526020018383602002808284375f9201919091525050604080516020808c0282810182019093528b82529093508b92508a9182918501908490808284375f9201919091525050604080516020601f8b0181900481028201810190925289815292508991508890819084018382808284375f9201919091525061365192505050565b82851461128357633b800a465f526004601cfd5b8760601b679a31110384e0b0c9178760601b679a31110384e0b0c917816020528160601c99508060601c9850886112c15763ea553b345f526004601cfd5b8933146112e257335f526034600c20546112e257634b6e7f185f526004601cfd5b8660051b5b801561134f576020810390508087013583602052818a01355f5260405f2080548083111561131c5763f4d678b85f526004601cfd5b8290039055602083905260405f20805480830181811015611344576301336cea5f526004601cfd5b909155506112e79050565b505050604051604081528560051b602001604082018160208a03823781604001602084015281602088038383013750888a337f4a39dc06d4c0dbc64b70af90fd698a233a518aa5d07e595d983b8c0526c8f7fb60408586010186a450506113b35f90565b156113c8576113c88888888888888888613910565b863b1561147357865f5260405163bc197c81815233602082015288604082015260a060608201528560051b60200160c082018160208a0382378160a001806080850152826020890384840137820160a084015260208401601f19860183800183013750808101830160c401905060208282601c85015f80515af1611454573d15611454573d5f833e3d82fd5b50805163bc197c8160e01b1461147157639c05499b5f526004601cfd5b505b5050505050505050565b6114a86040518060800160405280606081526020016060815260200160608152602001606081525090565b5f6114b283612d34565b905080516001600160401b038111156114cd576114cd6151d6565b6040519080825280602002602001820160405280156114f6578160200160208202803683370190505b50825280516001600160401b03811115611512576115126151d6565b60405190808252806020026020018201604052801561154b57816020015b611538614f5d565b8152602001906001900390816115305790505b50602083015280516001600160401b0381111561156a5761156a6151d6565b6040519080825280602002602001820160405280156115a357816020015b611590614f5d565b8152602001906001900390816115885790505b50604083015280516001600160401b038111156115c2576115c26151d6565b6040519080825280602002602001820160405280156115f557816020015b60608152602001906001900390816115e05790505b5060608301525f5b8151811015611931575f6001600160a01b031682828151811061162257611622615ba4565b60200260200101516001600160a01b03160315611929575f82828151811061164c5761164c615ba4565b602002602001015190505f6116618287610bf7565b905081855f0151848151811061167957611679615ba4565b6001600160a01b03909216602092830291909101909101528051156119265780511561184e576040518060400160405280826001815181106116bd576116bd615ba4565b60200260200101518152602001600a5f896116de876001600160a01b031690565b865f815181106116f0576116f0615ba4565b602002602001015160405160200161171b939291909283526020830191909152604082015260600190565b6040516020818303038152906040528051906020012081526020019081526020015f2060026003811061175057611750615ba4565b01548152508560400151848151811061176b5761176b615ba4565b60200260200101819052506040518060400160405280825f8151811061179357611793615ba4565b60200260200101518152602001600a5f896117b4876001600160a01b031690565b866001815181106117c7576117c7615ba4565b60200260200101516040516020016117f2939291909283526020830191909152604082015260600190565b6040516020818303038152906040528051906020012081526020019081526020015f2060026003811061182757611827615ba4565b01548152508560200151848151811061184257611842615ba4565b60200260200101819052505b600281511115611926575f600282516118679190615c63565b6001600160401b0381111561187e5761187e6151d6565b6040519080825280602002602001820160405280156118a7578160200160208202803683370190505b50905060025b8251811015611901578281815181106118c8576118c8615ba4565b6020026020010151826002836118de9190615c63565b815181106118ee576118ee615ba4565b60209081029190910101526001016118ad565b50808660600151858151811061191957611919615ba4565b6020026020010181905250505b50505b6001016115fd565b5050919050565b5f61194382846124f5565b611960576040516359c5ba6f60e11b815260040160405180910390fd5b6001546040516311eb232d60e21b8152336004820152602481018590526001600160a01b038481166044830152909116906347ac8cb4906064016020604051808303815f875af11580156119b6573d5f803e3d5ffd5b505050506040513d601f19601f820116820180604052508101906119da9190615ca1565b905082826001600160a01b0316826001600160a01b03167fcc812fbe8760ac7f5d76dc25596b5575304a089699833975adb3e253e8c627bd60405160405180910390a492915050565b6060838214611a3957633b800a465f526004601cfd5b6040519050818152602081018260051b8181016040525b8015611a8657602081039050808701358060601b679a31110384e0b0c91760205250808501355f5260405f205481830152611a50565b5050949350505050565b600d5f01546001600160a01b03163314611abd576040516330e1d31f60e21b815260040160405180910390fd5b600e546001600160a01b03828116911603611afa5750600e8054600d80546001600160a01b03199081166001600160a01b03841617909155169055565b600e80546001600160a01b0319166001600160a01b0392909216919091179055565b5f611b2e611b2861336a565b846124f5565b90505f611b3c6103b261336a565b5f85815260066020526040902054909150849003611b6d57604051638c9b017f60e01b815260040160405180910390fd5b81611b8b57604051639db14b6d60e01b815260040160405180910390fd5b5f611bb2611b9761336a565b679a31110384e0b0c96020526014525f868152604090205490565b5f86815260046020526040902054909150611bd09061271090615bf7565b811015611bf05760405163ccf7064560e01b815260040160405180910390fd5b611bf98561212d565b505f85815260056020908152604080832080548251818502810185019093528083529192909190830182828015611c4d57602002820191905f5260205f20905b815481526020019060010190808311611c39575b505050505090505f611c5d61336a565b87604051602001611c8792919060609290921b6001600160601b0319168252601482015260340190565b6040516020818303038152906040528051906020012090505f805b8751811015611e0c575f888281518110611cbe57611cbe615ba4565b602002602001015190505f8a8883604051602001611cef939291909283526020830191909152604082015260600190565b60405160208183030381529060405280519060200120905060018311611de557815f03611d1d575050611e04565b825f03611d7d57611d2c61336a565b6001600160a01b03168b7fb3e6e74723822f1505c88c48c07f18300671b4b94ad78cbbb8251f079b5f97bd848a604051611d70929190918252602082015260400190565b60405180910390a3611dd2565b611d8561336a565b6001600160a01b03168b7f943160e80d4390312ba6a6b9454170cca140ef12a38700ecba2c4493c5aeeacb848a604051611dc9929190918252602082015260400190565b60405180910390a35b611de08b83858a858a613915565b611e01565b611df48b8984868e518b6139d4565b611dfe8285615c8e565b93505b50505b600101611ca2565b6003885110158015611e1d57508115155b8015611e2b57508161271014155b15611e4957604051630442bea560e31b815260040160405180910390fd5b611e5286612d18565b6001600160a01b0316897ff20290976fc9d3610e92cfe332f5574e0b98bc2ce4ea65d33fcbdf8488fddcf28a88604051611e8d929190615cbc565b60405180910390a3600f546001600160a01b0316611471575f838152600c6020908152604080832080548251818502810185019093528083529192909190830182828015611ef857602002820191905f5260205f20905b815481526020019060010190808311611ee4575b505050505090506002815110611fbd57885f81518110611f1a57611f1a615ba4565b60200260200101515f03611f6157805f81518110611f3a57611f3a615ba4565b6020026020010151895f81518110611f5457611f54615ba4565b6020026020010181815250505b88600181518110611f7457611f74615ba4565b60200260200101515f03611fbd5780600181518110611f9557611f95615ba4565b602002602001015189600181518110611fb057611fb0615ba4565b6020026020010181815250505b5f848152600c602090815260409091208a51611fdb928c0190614f7b565b5050505050505050505050565b5f611ff383836124f5565b6120105760405163148fe22160e11b815260040160405180910390fd5b61201861336a565b6001600160a01b0316836001600160a01b03160361204c576120448361203d84613253565b6001613b48565b506001610c9a565b6003546001600160a01b03166389160e0e846120678561245b565b6040516001600160e01b031960e085901b1681526001600160a01b0390921660048301526024820152604401602060405180830381865afa1580156120ae573d5f803e3d5ffd5b505050506040513d601f19601f820116820180604052508101906120d29190615b4a565b1590506120de82613253565b915080156120f2576120f283836001613b48565b60405182906001600160a01b038516907f3ac963493df564de734d98633f1145d21512e282ba4c02d3c1011119bf7f2862905f90a392915050565b5f8181526006602052604081205482900361214957505f919050565b5f82815260076020526040902080546002909101546121689042615c63565b6121729190615bcc565b9050805f0361218257505f919050565b5f8281526007602052604090204290600201556040516834b7333630ba34b7b760b91b60208201526121bc90839081908490602901610cf8565b817f695f517929cb0a761ce9f28118b11060d9646bcf6668b6fc3dfb89aaddce26e4826040516121ee91815260200190565b60405180910390a2919050565b600d545f906001600160a01b0316156122275760405163bdc7d58160e01b815260040160405180910390fd5b60015460025460405163bfad25e560e01b81526001600160a01b03918216600482015291169063bd8f46f990309063bfad25e5906024016020604051808303815f875af115801561227a573d5f803e3d5ffd5b505050506040513d601f19601f8201168201806040525081019061229e9190615c4c565b6040518263ffffffff1660e01b81526004016122bc91815260200190565b6020604051808303815f875af11580156122d8573d5f803e3d5ffd5b505050506040513d601f19601f820116820180604052508101906122fc9190615ca1565b600d5f0180546001600160a01b0319166001600160a01b03928316179055600354604080516301abf02960e51b81529051919092169163357e0520916004808301925f92919082900301818387803b158015612356575f80fd5b505af1158015612368573d5f803e3d5ffd5b505050507ff890fc28c3f9900b0f626f2dbd8913e1cb84a7d771c3ca70f19ac3ed52cfde12600d5f600281106123a0576123a0615ba4565b01546040516001600160a01b03909116815260200160405180910390a150600d546001600160a01b031690565b5f818152600760205260408120815b015492915050565b5f6123ee8361314e565b90505f5b81518110156124265761241e82828151811061241057612410615ba4565b602002602001015184610ca0565b6001016123f2565b8015612436576124368484610ca0565b50505050565b600d816002811061244b575f80fd5b01546001600160a01b0316905081565b5f818152600860205260408120816123dc565b5f806124798461314e565b90505f805b82518110156124eb5780600184516124969190615c63565b6124a09190615c63565b91508282815181106124b4576124b4615ba4565b602002602001015195508560065f8881526020019081526020015f205403156124eb576124e18587610d10565b945060010161247e565b5092949350505050565b5f6001612505846102f685613253565b10610c9a57506001610c9a565b6011805461079590615b12565b5f8181526005602090815260409182902080548351818402810184019094528084526060939283018282801561257257602002820191905f5260205f20905b81548152602001906001019080831161255e575b50505050509050919050565b5f806125898361314e565b9050600191505b80518210156125c7576125bb8183815181106125ae576125ae615ba4565b60200260200101516125d6565b50816001019150612590565b6125d08361212d565b50610d84835b5f8181526006602052604081205480820361260457604051636d9430a960e11b815260040160405180910390fd5b5f8181526006602052604090205481900361262157505f92915050565b61262a8161212d565b50604080516020808201869052818301849052825180830384018152606090920190925280519101205f61267b61266084612d18565b679a31110384e0b0c96020526014525f848152604090205490565b5f838152600a60205260409020909150600101546126999042615c63565b5f838152600a60205260409020546126b19190615bcc565b9350808411156126bf578093505b5f828152600a602052604090204290600101558315612727576127276126e484612d18565b6126ed87612d18565b8587604051602001612713906d3932b234b9ba3934b13aba34b7b760911b8152600e0190565b604051602081830303815290604052613b81565b505050919050565b604051633ac4266d60e11b815260040160405180910390fd5b612750614fc0565b61275983613b8f565b90506001600160a01b03821615610c9a57679a31110384e0b0c960205260148290525f838152604090205461279290613446565b613446565b815161012001525f6127ad846001600160a01b038516615c8e565b5f8181526009602052604090205490915015612804575f81815260096020526040812080546127fc92906127e3576127e3615ba4565b5f918252602090912001546001600160a01b0316613e61565b825161014001525b61280d8461147d565b60c08301525092915050565b5f816001600160a01b03163b5f0361284457604051637dc5186f60e01b815260040160405180910390fd5b506001600160a01b0381165f818152600660205260409020541561287b57604051633293a2cf60e01b815260040160405180910390fd5b6128858182613549565b5f80815461289290615c76565b9091555060405181907f4bc7a1fd073ebdf928da09f58ed29b779ed99b26bddee327e87d0be21af8594f905f90a2919050565b5f8281526006602052604081205481036128f25760405163bd23392760e01b815260040160405180910390fd5b5f838152600660205260409020548314612915576129108284610d10565b612917565b815b905061292b61292461336a565b8484613b48565b5f8381526006602052604090205483146129e4573063f242432a61294e85612d18565b61295661336a565b60065f8881526020019081526020015f2054856040516020016129839063313ab93760e11b815260040190565b6040516020818303038152906040526040518663ffffffff1660e01b81526004016129b2959493929190615cdd565b5f604051808303815f87803b1580156129c9575f80fd5b505af11580156129db573d5f803e3d5ffd5b50505050610c9a565b5f600b5f6129f186612d18565b6001600160a01b0316815260208101919091526040015f205415612a4057600b5f612a1b86612d18565b6001600160a01b03166001600160a01b031681526020019081526020015f2054612a6b565b5f8052600b6020527fdf7de25b7f1fd6d0b5205f0e18f1f35bd7b8d84cce336588d184533ce43a6f76545b9050612a778184615bf7565b90505f612a848285615c63565b9050808411612aa6576040516337b936ed60e11b815260040160405180910390fd5b612aaf85612d18565b60025460405163a9059cbb60e01b81526001600160a01b0391821660048201526024810185905291169063a9059cbb906044016020604051808303815f875af1158015612afe573d5f803e3d5ffd5b505050506040513d601f19601f82011682018060405250810190612b229190615b4a565b8015612bb65750612b3285612d18565b6001600160a01b031663a9059cbb612b4861336a565b6040516001600160e01b031960e084901b1681526001600160a01b039091166004820152602481018490526044016020604051808303815f875af1158015612b92573d5f803e3d5ffd5b505050506040513d601f19601f82011682018060405250810190612bb69190615b4a565b612bd357604051632ebc317760e21b815260040160405180910390fd5b505092915050565b5f818152600660205260408120548103612bfd57612bfb61067483612d18565b505b612c0e612c0861336a565b836124f5565b158015612c2857505f828152600660205260409020548214155b15612c465760405163148fe22160e11b815260040160405180910390fd5b5f82815260046020526040902054600101612c7457604051630cf32f7560e21b815260040160405180910390fd5b5f808154612c8190615c76565b90915550612c93633b9aca0044615d21565b5f54612c9f4285615c63565b612ca99190615c63565b612cb39190615c63565b9050612cc9612cc182612d18565b306001613e77565b612cd38183613549565b333014612ce557612ce561098161336a565b6040513390839083907f907e845f974b1e16735c498eca2c72acd8c3d61c86675d4cab952054450ee358905f90a4919050565b5f6001600160a01b038211612d2d5781610c9a565b5f92915050565b5f818152600960209081526040808320805482518185028101850190935280835260609493830182828015612d9057602002820191905f5260205f20905b81546001600160a01b03168152600190910190602001808311612d72575b5050505050905080516001600160401b03811115612db057612db06151d6565b604051908082528060200260200182016040528015612dd9578160200160208202803683370190505b5091505f5b8151811015611931575f6001600160a01b0316828281518110612e0357612e03615ba4565b60200260200101516001600160a01b03160315612e93575f612e41838381518110612e3057612e30615ba4565b60200260200101516102f687613253565b10612e9357818181518110612e5857612e58615ba4565b6020026020010151838281518110612e7257612e72615ba4565b60200260200101906001600160a01b031690816001600160a01b0316815250505b600101612dde565b5f828152600660205260408120549003612ec85760405163bd23392760e01b815260040160405180910390fd5b5f612ed28361314e565b90505f805b8251811015612f74578060018451612eef9190615c63565b612ef99190615c63565b915083612f22612f0761336a565b679a31110384e0b0c96020526014525f878152604090205490565b1015612f4157604051632f72e11160e21b815260040160405180910390fd5b612f4b85856128c5565b9350828281518110612f5f57612f5f615ba4565b60200260200101519450806001019050612ed7565b50612f7f84846128c5565b5050505050565b60125460ff1615613003576130038686612fb3876040805180820190915260018152602081019190915290565b60408051808201909152600181526020810188905286868080601f0160208091040260200160405190810160405280939291908181526020018383808284375f9201919091525061365192505050565b8560601b679a31110384e0b0c9178560601b679a31110384e0b0c917816020528160601c97508060601c9650866130415763ea553b345f526004601cfd5b87331461306257335f526034600c205461306257634b6e7f185f526004601cfd5b855f5260405f2091508154808611156130825763f4d678b85f526004601cfd5b8581038355508060205260405f2091508154858101818110156130ac576301336cea5f526004601cfd5b909255505060208390528486335f80516020615f5a83398151915260405fa4843b156131465760405163f23a6e61815233602082015286604082015284606082015283608082015260a080820152816020016020840360c08301376020818360c401601c84015f8a5af1613128573d15613128573d5f823e3d81fd5b805163f23a6e6160e01b1461314457639c05499b5f526004601cfd5b505b505050505050565b5f818152600660205260409020546060906001905b61316e846001615c8e565b81106131a8575f8181526006602052604090205481146131a85761319182615c76565b5f9182526006602052604090912054909150613163565b816001600160401b038111156131c0576131c06151d6565b6040519080825280602002602001820160405280156131e9578160200160208202803683370190505b5092505f90505b81811015611931575f848152600660205260409020548360016132138486615c63565b61321d9190615c63565b8151811061322d5761322d615ba4565b6020908102919091018101919091525f94855260069052604090932054926001016131f0565b5f6804e1003b28d928000082111561327757610c9a678ac7230489e8000083615d21565b5090565b6001600160a01b0382165f81815260096020526040902054606091906001600160401b038111156132ae576132ae6151d6565b6040519080825280602002602001820160405280156132e757816020015b6132d4614fc0565b8152602001906001900390816132cc5790505b5091505f5b5f82815260096020526040902054811015612bd3575f82815260096020526040902080546133459161333f918490811061332857613328615ba4565b5f918252602090912001546001600160a01b031690565b85612748565b83828151811061335757613357615ba4565b60209081029190910101526001016132ec565b600f545f906001600160a01b03161561338d5750600f546001600160a01b031690565b6002546001600160a01b031633036133a457503090565b503390565b5f8181526009602090815260408220805460018101825590835291200180546001600160a01b0319166001600160a01b03841617905561340d826133ec83613253565b6040516906d656d626572736869760b41b6020820152600190602a01610cf8565b60405181906001600160a01b038416907fbab4562ae868d1765ed8452e98bba908a974596c4babc3ada5e90e05e3f433fb905f90a35050565b60605f61345283613ecf565b60010190505f816001600160401b03811115613470576134706151d6565b6040519080825280601f01601f19166020018201604052801561349a576020820181803683370190505b5090508181016020015b5f19016f181899199a1a9b1b9c1cb0b131b232b360811b600a86061a8153600a85049450846134a457509392505050565b6134e184848484613fa6565b5f83815260046020526040812080548492906134fe908490615c8e565b909155505060405182815283906001600160a01b038616907f25b428dfde728ccfaddad7e29e4ac23c24ed7fd1a6e3e3f91894a9a073f5dfff9060200160405180910390a350505050565b5f82815260066020526040902054156135755760405163731918fb60e11b815260040160405180910390fd5b5f828152600660205260409020819055818114610d0c575f81815260056020908152604082208054600181018255908352908220018390556009906135b98361314e565b5f815181106135ca576135ca615ba4565b602002602001015181526020019081526020015f206135e883612d18565b8154600180820184555f938452602080852090920180546001600160a01b0319166001600160a01b0394909416939093179092558483526004905260409091205401613632575050565b505f90815260076020526040902064e8d4a51000815542600290910155565b6304ed360560e51b5f356001600160e01b0319160115612f7f575f5b8084511115613146575f84828151811061368957613689615ba4565b602002602001015190505f8483815181106136a6576136a6615ba4565b602002602001015190505f6001600160a01b0316886001600160a01b0316141580156136da57506001600160a01b03871615155b80156136f157505f82815260066020526040902054155b1561370f5760405163ce2d28e160e01b815260040160405180910390fd5b678ac7230489e800008210156137ce575f356001600160e01b031916630d78d0c160e01b14158061375257505f356001600160e01b031916630312c9fb60e51b14155b8061376f57505f356001600160e01b031916630af1b55b60e41b14155b8061378c57505f356001600160e01b03191663114b6e4960e01b14155b806137a957505f356001600160e01b03191663bfad25e560e01b14155b6137c657604051630dbd110f60e21b815260040160405180910390fd5b505050612f7f565b5f356001600160e01b031916630d9778e560e11b14806137ff57505f356001600160e01b03191663791ddaf960e01b145b15613906575f828152600660205260409020548290036138bb5761382282612d18565b6040516323b872dd60e01b81526001600160a01b0389811660048301523060248301526044820184905291909116906323b872dd906064016020604051808303815f875af1158015613876573d5f803e3d5ffd5b505050506040513d601f19601f8201168201806040525081019061389a9190615b4a565b6138b65760405162916a1960e51b815260040160405180910390fd5b613906565b6012805460ff191690556138f86138d061336a565b6138d984612d18565b5f8581526006602052604081205490859061073d906001903681615d34565b6012805460ff191660011790555b505060010161366d565b611473565b841561314657604080516020808201899052818301889052825180830384018152606090920183528151918101919091205f858152600a9092529190206001015442036139755760405163d445b7c360e01b815260040160405180910390fd5b845f036139905761398b8784838988878b61408b565b61399f565b61399f8784838988878b61426d565b50505f908152600a60209081526040808320426001918201556005835290832080549182018155835291200192909255505050565b6139df600283615c63565b8151146139ff57604051631b9103a360e11b815260040160405180910390fd5b5f858783613a0e600288615c63565b81518110613a1e57613a1e615ba4565b6020026020010151604051602001613a589392919060609390931b6001600160601b03191683526014830191909152603482015260540190565b60408051808303601f1901815291815281516020928301205f818152600a90935291205490915061271086118015613a8e575080155b15613a9a575050613146565b612710861115613abd5760405163bb82191f60e01b815260040160405180910390fd5b8581141580613ad65750600f546001600160a01b031615155b1561147357858114613afa575f828152600a60205260409020868155426001909101555b613b1983613b09600288615c63565b815181106125ae576125ae615ba4565b5061147383613b29600288615c63565b81518110613b3957613b39615ba4565b60200260200101518984614402565b613b5383838361456d565b6001600160a01b0383165f90815260046020526040902054600111613b7757505050565b6111bf8284610e02565b612f7f5f868686868661461a565b613b97614fc0565b613ba082613446565b8151525f828152600760205260408120613bbc915b0154613446565b815160200152613bd161278d610d3d84612d18565b815160400152613be661278d61266084612d18565b815160600152613bff61278d836105da611b9782612d18565b815160800152613c1861278d836105da6109f582612d18565b815160a001525f828152600860205260408120613c3491613bb5565b815160c001525f828152600660209081526040808320548151808401879052808301829052825180820384018152606090910183528051908401208452600a90925290912054613c879161278d9161246e565b815160e001525f828152600760205260409020613ca5906002613bb5565b815161010001525f82815260046020526040902054613cc390613446565b815161016001526003545f8381526008602052604090819020549051631ba2a35b60e31b815260048101919091526001600160a01b039091169063dd151ad8906024015f60405180830381865afa158015613d20573d5f803e3d5ffd5b505050506040513d5f823e601f3d908101601f19168201604052613d479190810190615e04565b604001516020820152613d5982612d34565b60408201526001546009905f90613d7a9085906001600160a01b0316615c8e565b81526020019081526020015f20805480602002602001604051908101604052809291908181526020018280548015613dd957602002820191905f5260205f20905b81546001600160a01b03168152600190910190602001808311613dbb575b505050505060808201525f828152600560209081526040918290208054835181840281018401909452808452613e419392830182828015613e3757602002820191905f5260205f20905b815481526020019060010190808311613e23575b5050505050614750565b6060820152613e57613e528361314e565b614750565b60a0820152919050565b6060610c9a6001600160a01b03831660146147fb565b8015159050679a31110384e0b0c960205282601452815f52806034600c2055805f525f1960601c8281168482167f17307eab39ab6107e8899845ad3d59bd9653f200f220920489ca2b5937696c3160205fa350505050565b5f8072184f03e93ff9f4daa797ed6e38ed64bf6a1f0160401b8310613f0d5772184f03e93ff9f4daa797ed6e38ed64bf6a1f0160401b830492506040015b6d04ee2d6d415b85acef81000000008310613f39576d04ee2d6d415b85acef8100000000830492506020015b662386f26fc100008310613f5757662386f26fc10000830492506010015b6305f5e1008310613f6f576305f5e100830492506008015b6127108310613f8357612710830492506004015b60648310613f95576064830492506002015b600a8310610c9a5760010192915050565b60125460ff1615613fee57613fee5f85613fd3866040805180820190915260018152602081019190915290565b60408051808201909152600181526020810187905285613651565b8360601b806140045763ea553b345f526004601cfd5b679a31110384e0b0c960205284601452835f5260405f20805484810181811015614035576301336cea5f526004601cfd5b808355505050826020528060601c5f335f80516020615f5a83398151915260405fa450614077565b604080518082019091526001815260208101879052612436565b833b15612436576124365f85858585614994565b6001600160a01b0384108061410f5750600354604051631ba2a35b60e31b8152600481018690526001600160a01b039091169063dd151ad8906024015f60405180830381865afa1580156140e1573d5f803e3d5ffd5b505050506040513d5f823e601f3d908101601f191682016040526141089190810190615e04565b6040015151155b1561412d57604051639cd2c44760e01b815260040160405180910390fd5b61413c8686868686868d614a1e565b5f87815260046020908152604080832054888452600a90925290912054614164906002615bcc565b1115613144576003546040516350885bc560e01b8152600481018990525f916001600160a01b0316906350885bc5906024016040805180830381865afa1580156141b0573d5f803e3d5ffd5b505050506040513d601f19601f820116820180604052508101906141d49190615f18565b509050806141f55760405163a74ab56560e01b815260040160405180910390fd5b5f88815260086020526040812089917fe48aa5e298e92f05c7b7489cb783dd272acece1ed2b7aae5007022513a99761191015460408051918252602082018990520160405180910390a2604080518082018252868152426020808301919091525f8b815260089091529190912061147191600261502b565b61427c8686868686868d614a1e565b5f87815260046020908152604080832054888452600a909252909120546142a4906002615bcc565b1115613144576003546040516350885bc560e01b8152600481018990525f916001600160a01b0316906350885bc5906024016040805180830381865afa1580156142f0573d5f803e3d5ffd5b505050506040513d601f19601f820116820180604052508101906143149190615f18565b509050806143355760405163a74ab56560e01b815260040160405180910390fd5b61433e8861212d565b505f8881526007602052604090205488907f0ad1727523f8a97d260a40299bd81a21bbcdb605a771d1390f8fa163b2632caf9061437f88633b9aca00615bcc565b6040805192835260208301919091520160405180910390a25f888152600760205260409020546143be9089906143b988633b9aca00615bcc565b614c19565b604051806060016040528086633b9aca006143d99190615bcc565b81524260208083018290526040928301919091525f8b8152600790915220611471916003615058565b604080516020808201869052818301859052825180830384018152606090920183528151918101919091205f848152600a9092529181205461444a90869086906103cc61336a565b5f848152600a602052604090209091506001015442101561447e5760405163d445b7c360e01b815260040160405180910390fd5b5f828152600a602052604080822054858352912060020154106144ae575f828152600a60205260408120556144dd565b5f838152600a6020526040808220600201548483529082208054919290916144d7908490615c63565b90915550505b5f828152600a6020526040812080548392906144fa908490615c8e565b90915550505f84815260076020526040812001545f838152600a6020526040812001541115614542575f84815260076020526040812001545f838152600a6020526040812001555b5f918252600a6020526040808320426001918201819055948452922091820192909255600201555050565b5f828152600460205260408120805483929061458a908490615c63565b90915550505f82815260066020526040902054821080156145b25750678ac7230489e8000082115b156145d3576145c08261212d565b506111bf6145cc61336a565b8383614e7d565b6145de838383614e7d565b81836001600160a01b03167f23ff0e75edf108e3d0392d92e13e8c8a868ef19001bd49f9e94876dc46dff87f836040516110aa91815260200190565b60125460ff1615614647576146478585613fd3866040805180820190915260018152602081019190915290565b8460601b8460601b806146615763ea553b345f526004601cfd5b81679a31110384e0b0c9176020528760601b82811481151761469757885f526034600c205461469757634b6e7f185f526004601cfd5b50845f5260405f208054808611156146b65763f4d678b85f526004601cfd5b8590039055679a31110384e0b0c9811760205260405f208054808601818110156146e7576301336cea5f526004601cfd5b808355505050836020528060601c8260601c335f80516020615f5a83398151915260405fa450506147155f90565b1561473c5761473c858561405d866040805180820190915260018152602081019190915290565b833b15613146576131468585858585614994565b60605f82516001600160401b0381111561476c5761476c6151d6565b60405190808252806020026020018201604052801561479f57816020015b606081526020019060019003908161478a5790505b5090505f5b83518110156147f4576147cf8482815181106147c2576147c2615ba4565b6020026020010151613446565b8282815181106147e1576147e1615ba4565b60209081029190910101526001016147a4565b5092915050565b60605f614809836002615bcc565b614814906002615c8e565b6001600160401b0381111561482b5761482b6151d6565b6040519080825280601f01601f191660200182016040528015614855576020820181803683370190505b509050600360fc1b815f8151811061486f5761486f615ba4565b60200101906001600160f81b03191690815f1a905350600f60fb1b8160018151811061489d5761489d615ba4565b60200101906001600160f81b03191690815f1a9053505f6148bf846002615bcc565b6148ca906001615c8e565b90505b6001811115614941576f181899199a1a9b1b9c1cb0b131b232b360811b85600f16601081106148fe576148fe615ba4565b1a60f81b82828151811061491457614914615ba4565b60200101906001600160f81b03191690815f1a90535060049490941c9361493a81615f44565b90506148cd565b508315610d845760405162461bcd60e51b815260206004820181905260248201527f537472696e67733a20686578206c656e67746820696e73756666696369656e74604482015260640160405180910390fd5b60405163f23a6e6181523360208201528560601b60601c604082015283606082015282608082015260a08082015281518060c083015280156149e0578060e08301826020860160045afa505b6020828260c401601c85015f8a5af1614a01573d15614a01573d5f833e3d82fd5b50805163f23a6e6160e01b1461314657639c05499b5f526004601cfd5b5f878152600a602052604090206001015415614a94575f878152600a6020526040812060020154118015614a6057505f878152600a6020526040812060010154115b15614a94575f878152600a602052604080822060020154888352908220805491929091614a8e908490615c63565b90915550505b5f838152600c6020526040902054821015614bb8575f838152600c60205260408120805484908110614ac857614ac8615ba4565b905f5260205f2001549050858114614bb657600a5f83614ae661336a565b84604051602001614b179392919092835260609190911b6001600160601b0319166020830152603482015260540190565b6040516020818303038152906040528051906020012081526020019081526020015f20600260038110614b4c57614b4c615ba4565b0154600a5f8484604051602001614b6d929190918252602082015260400190565b6040516020818303038152906040528051906020012081526020019081526020015f205f60038110614ba157614ba1615ba4565b015f828254614bb09190615c63565b90915550505b505b60408051606081018252868152426020808301919091528183018790525f8a8152600a90915291909120614bed916003615058565b505f868152600a602052604081208054869290614c0b908490615c8e565b909155505050505050505050565b5f83815260056020908152604080832080548251818502810185019093528083529192909190830182828015614c6c57602002820191905f5260205f20905b815481526020019060010190808311614c58575b5050505050905080515f03614c815750505050565b5f805b8251811015614d48575f838281518110614ca057614ca0615ba4565b602002602001015187604051602001614cc3929190918252602082015260400190565b60408051808303601f1901815291815281516020928301205f818152600a909352912054909150614cf48185615c8e565b9350633b9aca00811115614d3e57614d178584815181106125ae576125ae615ba4565b505f87614d248884615bcc565b614d2e9190615bf7565b5f848152600a6020526040902055505b5050600101614c84565b50600181118015614d7f57505f85815260076020526040902054614d7090620186a090615bf7565b614d7d620186a083615bf7565b105b15614e05575f614dbd614d9187612d18565b5f88815260066020526040902054679a31110384e0b0c96020526014919091525f908152604090205490565b614de4614dc988612d18565b679a31110384e0b0c96020526014525f888152604090205490565b614dee9190615c63565b9050614e03614dfc87612d18565b8783613b48565b505b60408051606081018252848152426020808301829052828401919091525f888152600790915291909120614e3a916003615058565b50604080518581526020810185905286917f0ad1727523f8a97d260a40299bd81a21bbcdb605a771d1390f8fa163b2632caf910160405180910390a25050505050565b6111bf5f84848460125460ff1615614eda57614eda835f614eb1856040805180820190915260018152602081019190915290565b60408051808201909152600181526020810186905260405180602001604052805f815250613651565b8260601b80679a31110384e0b0c917602052808560601b148560601b1517614f1657845f526034600c2054614f1657634b6e7f185f526004601cfd5b825f5260405f20805480841115614f345763f4d678b85f526004601cfd5b83810382555050816020525f8160601c335f80516020615f5a83398151915260405fa450612436565b60405180604001604052806002906020820280368337509192915050565b828054828255905f5260205f20908101928215614fb4579160200282015b82811115614fb4578251825591602001919060010190614f99565b50613277929150615085565b6040518060e00160405280614fd3615099565b815260200160608152602001606081526020016060815260200160608152602001606081526020016150266040518060800160405280606081526020016060815260200160608152602001606081525090565b905290565b8260028101928215614fb45791602002820182811115614fb4578251825591602001919060010190614f99565b8260038101928215614fb45791602002820182811115614fb4578251825591602001919060010190614f99565b5b80821115613277575f8155600101615086565b604051806101800160405280600c905b60608152602001906001900390816150a95790505090565b6001600160a01b0381168114610987575f80fd5b5f80604083850312156150e6575f80fd5b82356150f1816150c1565b946020939093013593505050565b5f6020828403121561510f575f80fd5b81356001600160e01b031981168114610d84575f80fd5b5f81518084528060208401602086015e5f602082860101526020601f19601f83011685010191505092915050565b602081525f610d846020830184615126565b5f60208284031215615176575f80fd5b5035919050565b5f6020828403121561518d575f80fd5b8135610d84816150c1565b5f805f80608085870312156151ab575f80fd5b84359350602085013592506040850135915060608501356151cb816150c1565b939692955090935050565b634e487b7160e01b5f52604160045260245ffd5b604051608081016001600160401b038111828210171561520c5761520c6151d6565b60405290565b604051601f8201601f191681016001600160401b038111828210171561523a5761523a6151d6565b604052919050565b5f6001600160401b0382111561525a5761525a6151d6565b5060051b60200190565b5f82601f830112615273575f80fd5b8135602061528861528383615242565b615212565b8083825260208201915060208460051b8701019350868411156152a9575f80fd5b602086015b848110156152c557803583529183019183016152ae565b509695505050505050565b5f6001600160401b038211156152e8576152e86151d6565b50601f01601f191660200190565b5f82601f830112615305575f80fd5b8135615313615283826152d0565b818152846020838601011115615327575f80fd5b816020850160208301375f918101602001919091529392505050565b5f805f805f60a08688031215615357575f80fd5b853594506020808701356001600160401b0380821115615375575f80fd5b818901915089601f830112615388575f80fd5b813561539661528382615242565b81815260059190911b8301840190848101908c8311156153b4575f80fd5b938501935b828510156153db5784356153cc816150c1565b825293850193908501906153b9565b9850505060408901359250808311156153f2575f80fd5b6153fe8a848b01615264565b95506060890135925080831115615413575f80fd5b5050615421888289016152f6565b95989497509295608001359392505050565b5f815180845260208085019450602084015f5b8381101561546257815187529582019590820190600101615446565b509495945050505050565b602081525f610d846020830184615433565b5f8060408385031215615490575f80fd5b50508035926020909101359150565b5f80604083850312156154b0575f80fd5b8235915060208301356154c2816150c1565b809150509250929050565b5f805f606084860312156154df575f80fd5b83356154ea816150c1565b9250602084013591506040840135615501816150c1565b809150509250925092565b5f8083601f84011261551c575f80fd5b5081356001600160401b03811115615532575f80fd5b6020830191508360208260051b850101111561554c575f80fd5b9250929050565b5f8083601f840112615563575f80fd5b5081356001600160401b03811115615579575f80fd5b60208301915083602082850101111561554c575f80fd5b5f805f805f805f8060a0898b0312156155a7575f80fd5b88356155b2816150c1565b975060208901356155c2816150c1565b965060408901356001600160401b03808211156155dd575f80fd5b6155e98c838d0161550c565b909850965060608b0135915080821115615601575f80fd5b61560d8c838d0161550c565b909650945060808b0135915080821115615625575f80fd5b506156328b828c01615553565b999c989b5096995094979396929594505050565b5f815180845260208085019450602084015f5b838110156154625781516001600160a01b031687529582019590820190600101615659565b5f815180845260208085019450602084015f5b83811015615462578151875f5b60028110156156bb5782518252918501919085019060010161569e565b5050506040969096019590820190600101615691565b5f8151608084526156e56080850182615646565b9050602080840151858303828701526156fe838261567e565b92505060408401518583036040870152615718838261567e565b925050606084015185830360608701528281518085528385019150838160051b86010184840193505f5b8281101561579557868203601f190184528451805180845290870190878401905f5b8181101561578057835183529289019291890191600101615764565b50509587019594870194925050600101615742565b5098975050505050505050565b602081525f610d8460208301846156d1565b5f805f80604085870312156157c7575f80fd5b84356001600160401b03808211156157dd575f80fd5b6157e98883890161550c565b90965094506020870135915080821115615801575f80fd5b5061580e8782880161550c565b95989497509550505050565b5f806040838503121561582b575f80fd5b8235915060208301356001600160401b03811115615847575f80fd5b61585385828601615264565b9150509250929050565b8015158114610987575f80fd5b5f806040838503121561587b575f80fd5b8235615886816150c1565b915060208301356154c28161585d565b5f826101808101835f5b600c8110156158cf5783830387526158b9838351615126565b60209788019790935091909101906001016158a0565b509095945050505050565b5f8282518085526020808601955060208260051b840101602086015f5b8481101561592557601f19868403018952615913838351615126565b988401989250908301906001016158f7565b5090979650505050505050565b5f815160e0845261594660e0850182615896565b90506020830151848203602086015261595f8282615126565b915050604083015184820360408601526159798282615646565b9150506060830151848203606086015261599382826158da565b915050608083015184820360808601526159ad8282615646565b91505060a083015184820360a08601526159c782826158da565b91505060c083015184820360c08601526159e182826156d1565b95945050505050565b602081525f610d846020830184615932565b5f8060408385031215615a0d575f80fd5b8235615a18816150c1565b915060208301356154c2816150c1565b602081525f610d846020830184615646565b5f805f805f8060a08789031215615a4f575f80fd5b8635615a5a816150c1565b95506020870135615a6a816150c1565b9450604087013593506060870135925060808701356001600160401b03811115615a92575f80fd5b615a9e89828a01615553565b979a9699509497509295939492505050565b5f60208083016020845280855180835260408601915060408160051b8701019250602087015f5b82811015615b0557603f19888603018452615af3858351615932565b94509285019290850190600101615ad7565b5092979650505050505050565b600181811c90821680615b2657607f821691505b602082108103615b4457634e487b7160e01b5f52602260045260245ffd5b50919050565b5f60208284031215615b5a575f80fd5b8151610d848161585d565b7f68747470733a2f2f77696c6c77652e78797a2f6d657461646174612f0000000081525f82518060208501601c85015e5f9201601c0191825250919050565b634e487b7160e01b5f52603260045260245ffd5b634e487b7160e01b5f52601160045260245ffd5b8082028115828204841417610c9a57610c9a615bb8565b634e487b7160e01b5f52601260045260245ffd5b5f82615c0557615c05615be3565b500490565b606081525f615c1c6060830186615646565b8281036020840152615c2e8186615433565b90508281036040840152615c428185615126565b9695505050505050565b5f60208284031215615c5c575f80fd5b5051919050565b81810381811115610c9a57610c9a615bb8565b5f60018201615c8757615c87615bb8565b5060010190565b80820180821115610c9a57610c9a615bb8565b5f60208284031215615cb1575f80fd5b8151610d84816150c1565b604081525f615cce6040830185615433565b90508260208301529392505050565b6001600160a01b03868116825285166020820152604081018490526060810183905260a0608082018190525f90615d1690830184615126565b979650505050505050565b5f82615d2f57615d2f615be3565b500690565b5f8085851115615d42575f80fd5b83861115615d4e575f80fd5b5050820193919092039150565b5f82601f830112615d6a575f80fd5b81516020615d7a61528383615242565b8083825260208201915060208460051b870101935086841115615d9b575f80fd5b602086015b848110156152c55780518352918301918301615da0565b5f82601f830112615dc6575f80fd5b8151615dd4615283826152d0565b818152846020838601011115615de8575f80fd5b8160208501602083015e5f918101602001919091529392505050565b5f6020808385031215615e15575f80fd5b82516001600160401b0380821115615e2b575f80fd5b9084019060808287031215615e3e575f80fd5b615e466151ea565b825182811115615e54575f80fd5b8301601f81018813615e64575f80fd5b8051615e7261528382615242565b81815260059190911b8201860190868101908a831115615e90575f80fd5b928701925b82841015615eb7578351615ea8816150c1565b82529287019290870190615e95565b84525050508284015182811115615ecc575f80fd5b615ed888828601615d5b565b85830152506040830151935081841115615ef0575f80fd5b615efc87858501615db7565b6040820152606083015160608201528094505050505092915050565b5f8060408385031215615f29575f80fd5b8251615f348161585d565b6020939093015192949293505050565b5f81615f5257615f52615bb8565b505f19019056fec3d58168c5ae7397731d063d5bbf3d657854427343f4c083240f7aacaa2d0f62a2646970667358221220ae61a46bcdc78d69a36dd271ba34c1c195b3c120153dd6fa125013467c49d0d764736f6c63430008190033","linkReferences":{}},"methodIdentifiers":{"Will()":"535e9891","allMembersOf(uint256)":"eef2e757","asRootValuation(uint256,uint256)":"7f33d800","balanceOf(address,uint256)":"00fdd58e","balanceOfBatch(address[],uint256[])":"4e1273f4","burn(uint256,uint256)":"b390c0ab","burnPath(uint256,uint256)":"f039a733","calculateUserTargetedPreferenceAmount(uint256,uint256,uint256,address)":"0ffd3910","control(uint256)":"7d11e682","createEndpointForOwner(uint256,address)":"45bbbf84","executionAddress()":"78adc790","getAllNodesForRoot(address,address)":"f87cc6b3","getAllSignalsOfNode(uint256)":"30f9b165","getChildrenOf(uint256)":"99f45689","getFidPath(uint256)":"f6355a56","getMembraneOf(uint256)":"7e44bffe","getNodeData(uint256,address)":"a6bfbc20","getParentOf(uint256)":"13e75206","getUserNodeSignals(address,uint256)":"150d503d","inParentDenomination(uint256,uint256)":"1e9b388d","inflationOf(uint256)":"765063e5","initSelfControl()":"68dc2747","isApprovedForAll(address,address)":"e985e9c5","isMember(address,uint256)":"85752d03","localizeEndpoint(address,uint256,address)":"28ca8e26","membershipEnforce(address,uint256)":"62593f60","membershipID(uint256)":"f77914c3","mint(uint256,uint256)":"1b2ef1ca","mintInflation(uint256)":"67c394fb","mintMembership(uint256)":"0d78d0c1","mintPath(uint256,uint256)":"791ddaf9","name()":"06fdde03","options(bytes32,uint256)":"20f94427","redistribute(uint256)":"a0ce552d","redistributePath(uint256)":"a0762253","resignal(uint256,address)":"1fae703b","safeBatchTransferFrom(address,address,uint256[],uint256[],bytes)":"2eb2c2d6","safeTransferFrom(address,address,uint256,uint256,bytes)":"f242432a","sendSignal(uint256,uint256[])":"5b4a26ed","setApprovalForAll(address,bool)":"a22cb465","setControl(address)":"5ac8260c","spawnNode(uint256)":"bfad25e5","spawnNodeWithMembrane(uint256,address[],uint256[],string,uint256)":"114b6e49","spawnRootNode(address)":"af1b55b0","supportsInterface(bytes4)":"01ffc9a7","symbol()":"95d89b41","taxPolicyPreference(address,uint256)":"1f017841","toAddress(uint256)":"e0051aa9","toID(address)":"0f336348","totalSupply(uint256)":"bd85b039","uri(uint256)":"0e89341c"},"storageLayout":{"storage":[{"astId":55583,"contract":"src/WillWe.sol:WillWe","label":"entityCount","offset":0,"slot":"0","type":"t_uint256"},{"astId":55585,"contract":"src/WillWe.sol:WillWe","label":"executionAddress","offset":0,"slot":"1","type":"t_address"},{"astId":55587,"contract":"src/WillWe.sol:WillWe","label":"Will","offset":0,"slot":"2","type":"t_address"},{"astId":55590,"contract":"src/WillWe.sol:WillWe","label":"M","offset":0,"slot":"3","type":"t_contract(IMembrane)61150"},{"astId":55595,"contract":"src/WillWe.sol:WillWe","label":"totalSupplyOf","offset":0,"slot":"4","type":"t_mapping(t_uint256,t_uint256)"},{"astId":55601,"contract":"src/WillWe.sol:WillWe","label":"childrenOf","offset":0,"slot":"5","type":"t_mapping(t_uint256,t_array(t_uint256)dyn_storage)"},{"astId":55606,"contract":"src/WillWe.sol:WillWe","label":"parentOf","offset":0,"slot":"6","type":"t_mapping(t_uint256,t_uint256)"},{"astId":55613,"contract":"src/WillWe.sol:WillWe","label":"inflSec","offset":0,"slot":"7","type":"t_mapping(t_uint256,t_array(t_uint256)3_storage)"},{"astId":55620,"contract":"src/WillWe.sol:WillWe","label":"inUseMembraneId","offset":0,"slot":"8","type":"t_mapping(t_uint256,t_array(t_uint256)2_storage)"},{"astId":55626,"contract":"src/WillWe.sol:WillWe","label":"members","offset":0,"slot":"9","type":"t_mapping(t_uint256,t_array(t_address)dyn_storage)"},{"astId":55633,"contract":"src/WillWe.sol:WillWe","label":"options","offset":0,"slot":"10","type":"t_mapping(t_bytes32,t_array(t_uint256)3_storage)"},{"astId":55638,"contract":"src/WillWe.sol:WillWe","label":"taxRate","offset":0,"slot":"11","type":"t_mapping(t_address,t_uint256)"},{"astId":55644,"contract":"src/WillWe.sol:WillWe","label":"userNodeSignals","offset":0,"slot":"12","type":"t_mapping(t_bytes32,t_array(t_uint256)dyn_storage)"},{"astId":55648,"contract":"src/WillWe.sol:WillWe","label":"control","offset":0,"slot":"13","type":"t_array(t_address)2_storage"},{"astId":55650,"contract":"src/WillWe.sol:WillWe","label":"impersonatingAddress","offset":0,"slot":"15","type":"t_address"},{"astId":55652,"contract":"src/WillWe.sol:WillWe","label":"name","offset":0,"slot":"16","type":"t_string_storage"},{"astId":55654,"contract":"src/WillWe.sol:WillWe","label":"symbol","offset":0,"slot":"17","type":"t_string_storage"},{"astId":55656,"contract":"src/WillWe.sol:WillWe","label":"useBefore","offset":0,"slot":"18","type":"t_bool"}],"types":{"t_address":{"encoding":"inplace","label":"address","numberOfBytes":"20"},"t_array(t_address)2_storage":{"encoding":"inplace","label":"address[2]","numberOfBytes":"64","base":"t_address"},"t_array(t_address)dyn_storage":{"encoding":"dynamic_array","label":"address[]","numberOfBytes":"32","base":"t_address"},"t_array(t_uint256)2_storage":{"encoding":"inplace","label":"uint256[2]","numberOfBytes":"64","base":"t_uint256"},"t_array(t_uint256)3_storage":{"encoding":"inplace","label":"uint256[3]","numberOfBytes":"96","base":"t_uint256"},"t_array(t_uint256)dyn_storage":{"encoding":"dynamic_array","label":"uint256[]","numberOfBytes":"32","base":"t_uint256"},"t_bool":{"encoding":"inplace","label":"bool","numberOfBytes":"1"},"t_bytes32":{"encoding":"inplace","label":"bytes32","numberOfBytes":"32"},"t_contract(IMembrane)61150":{"encoding":"inplace","label":"contract IMembrane","numberOfBytes":"20"},"t_mapping(t_address,t_uint256)":{"encoding":"mapping","key":"t_address","label":"mapping(address => uint256)","numberOfBytes":"32","value":"t_uint256"},"t_mapping(t_bytes32,t_array(t_uint256)3_storage)":{"encoding":"mapping","key":"t_bytes32","label":"mapping(bytes32 => uint256[3])","numberOfBytes":"32","value":"t_array(t_uint256)3_storage"},"t_mapping(t_bytes32,t_array(t_uint256)dyn_storage)":{"encoding":"mapping","key":"t_bytes32","label":"mapping(bytes32 => uint256[])","numberOfBytes":"32","value":"t_array(t_uint256)dyn_storage"},"t_mapping(t_uint256,t_array(t_address)dyn_storage)":{"encoding":"mapping","key":"t_uint256","label":"mapping(uint256 => address[])","numberOfBytes":"32","value":"t_array(t_address)dyn_storage"},"t_mapping(t_uint256,t_array(t_uint256)2_storage)":{"encoding":"mapping","key":"t_uint256","label":"mapping(uint256 => uint256[2])","numberOfBytes":"32","value":"t_array(t_uint256)2_storage"},"t_mapping(t_uint256,t_array(t_uint256)3_storage)":{"encoding":"mapping","key":"t_uint256","label":"mapping(uint256 => uint256[3])","numberOfBytes":"32","value":"t_array(t_uint256)3_storage"},"t_mapping(t_uint256,t_array(t_uint256)dyn_storage)":{"encoding":"mapping","key":"t_uint256","label":"mapping(uint256 => uint256[])","numberOfBytes":"32","value":"t_array(t_uint256)dyn_storage"},"t_mapping(t_uint256,t_uint256)":{"encoding":"mapping","key":"t_uint256","label":"mapping(uint256 => uint256)","numberOfBytes":"32","value":"t_uint256"},"t_string_storage":{"encoding":"bytes","label":"string","numberOfBytes":"32"},"t_uint256":{"encoding":"inplace","label":"uint256","numberOfBytes":"32"}}},"id":76}