{
    "abi": [
        {
            "type": "constructor",
            "inputs": [
                {
                    "name": "Execution",
                    "type": "address",
                    "internalType": "address"
                },
                {
                    "name": "Membrane",
                    "type": "address",
                    "internalType": "address"
                }
            ],
            "stateMutability": "nonpayable"
        },
        {
            "type": "function",
            "name": "Will",
            "inputs": [],
            "outputs": [
                {
                    "name": "",
                    "type": "address",
                    "internalType": "address"
                }
            ],
            "stateMutability": "view"
        },
        {
            "type": "function",
            "name": "allMembersOf",
            "inputs": [
                {
                    "name": "fid_",
                    "type": "uint256",
                    "internalType": "uint256"
                }
            ],
            "outputs": [
                {
                    "name": "membersOf",
                    "type": "address[]",
                    "internalType": "address[]"
                }
            ],
            "stateMutability": "view"
        },
        {
            "type": "function",
            "name": "asRootValuation",
            "inputs": [
                {
                    "name": "target_",
                    "type": "uint256",
                    "internalType": "uint256"
                },
                {
                    "name": "amount",
                    "type": "uint256",
                    "internalType": "uint256"
                }
            ],
            "outputs": [
                {
                    "name": "",
                    "type": "uint256",
                    "internalType": "uint256"
                }
            ],
            "stateMutability": "view"
        },
        {
            "type": "function",
            "name": "balanceOf",
            "inputs": [
                {
                    "name": "owner",
                    "type": "address",
                    "internalType": "address"
                },
                {
                    "name": "id",
                    "type": "uint256",
                    "internalType": "uint256"
                }
            ],
            "outputs": [
                {
                    "name": "result",
                    "type": "uint256",
                    "internalType": "uint256"
                }
            ],
            "stateMutability": "view"
        },
        {
            "type": "function",
            "name": "balanceOfBatch",
            "inputs": [
                {
                    "name": "owners",
                    "type": "address[]",
                    "internalType": "address[]"
                },
                {
                    "name": "ids",
                    "type": "uint256[]",
                    "internalType": "uint256[]"
                }
            ],
            "outputs": [
                {
                    "name": "balances",
                    "type": "uint256[]",
                    "internalType": "uint256[]"
                }
            ],
            "stateMutability": "view"
        },
        {
            "type": "function",
            "name": "burn",
            "inputs": [
                {
                    "name": "fid_",
                    "type": "uint256",
                    "internalType": "uint256"
                },
                {
                    "name": "amount_",
                    "type": "uint256",
                    "internalType": "uint256"
                }
            ],
            "outputs": [
                {
                    "name": "topVal",
                    "type": "uint256",
                    "internalType": "uint256"
                }
            ],
            "stateMutability": "nonpayable"
        },
        {
            "type": "function",
            "name": "burnPath",
            "inputs": [
                {
                    "name": "target_",
                    "type": "uint256",
                    "internalType": "uint256"
                },
                {
                    "name": "amount",
                    "type": "uint256",
                    "internalType": "uint256"
                }
            ],
            "outputs": [],
            "stateMutability": "nonpayable"
        },
        {
            "type": "function",
            "name": "calculateUserTargetedPreferenceAmount",
            "inputs": [
                {
                    "name": "childId",
                    "type": "uint256",
                    "internalType": "uint256"
                },
                {
                    "name": "parentId",
                    "type": "uint256",
                    "internalType": "uint256"
                },
                {
                    "name": "signal",
                    "type": "uint256",
                    "internalType": "uint256"
                },
                {
                    "name": "user",
                    "type": "address",
                    "internalType": "address"
                }
            ],
            "outputs": [
                {
                    "name": "",
                    "type": "uint256",
                    "internalType": "uint256"
                }
            ],
            "stateMutability": "view"
        },
        {
            "type": "function",
            "name": "control",
            "inputs": [
                {
                    "name": "",
                    "type": "uint256",
                    "internalType": "uint256"
                }
            ],
            "outputs": [
                {
                    "name": "",
                    "type": "address",
                    "internalType": "address"
                }
            ],
            "stateMutability": "view"
        },
        {
            "type": "function",
            "name": "createEndpointForOwner",
            "inputs": [
                {
                    "name": "nodeId_",
                    "type": "uint256",
                    "internalType": "uint256"
                },
                {
                    "name": "owner",
                    "type": "address",
                    "internalType": "address"
                }
            ],
            "outputs": [
                {
                    "name": "endpointAddress",
                    "type": "address",
                    "internalType": "address"
                }
            ],
            "stateMutability": "nonpayable"
        },
        {
            "type": "function",
            "name": "executionAddress",
            "inputs": [],
            "outputs": [
                {
                    "name": "",
                    "type": "address",
                    "internalType": "address"
                }
            ],
            "stateMutability": "view"
        },
        {
            "type": "function",
            "name": "getAllNodesForRoot",
            "inputs": [
                {
                    "name": "rootAddress",
                    "type": "address",
                    "internalType": "address"
                },
                {
                    "name": "userIfAny",
                    "type": "address",
                    "internalType": "address"
                }
            ],
            "outputs": [
                {
                    "name": "nodes",
                    "type": "tuple[]",
                    "internalType": "struct NodeState[]",
                    "components": [
                        {
                            "name": "basicInfo",
                            "type": "string[12]",
                            "internalType": "string[12]"
                        },
                        {
                            "name": "membraneMeta",
                            "type": "string",
                            "internalType": "string"
                        },
                        {
                            "name": "membersOfNode",
                            "type": "address[]",
                            "internalType": "address[]"
                        },
                        {
                            "name": "childrenNodes",
                            "type": "string[]",
                            "internalType": "string[]"
                        },
                        {
                            "name": "movementEndpoints",
                            "type": "address[]",
                            "internalType": "address[]"
                        },
                        {
                            "name": "rootPath",
                            "type": "string[]",
                            "internalType": "string[]"
                        },
                        {
                            "name": "nodeSignals",
                            "type": "tuple",
                            "internalType": "struct AllNodeSignals",
                            "components": [
                                {
                                    "name": "signalers",
                                    "type": "address[]",
                                    "internalType": "address[]"
                                },
                                {
                                    "name": "inflationSignals",
                                    "type": "uint256[2][]",
                                    "internalType": "uint256[2][]"
                                },
                                {
                                    "name": "membraneSignals",
                                    "type": "uint256[2][]",
                                    "internalType": "uint256[2][]"
                                },
                                {
                                    "name": "redistributionSignals",
                                    "type": "uint256[][]",
                                    "internalType": "uint256[][]"
                                }
                            ]
                        }
                    ]
                }
            ],
            "stateMutability": "view"
        },
        {
            "type": "function",
            "name": "getAllSignalsOfNode",
            "inputs": [
                {
                    "name": "nodeId",
                    "type": "uint256",
                    "internalType": "uint256"
                }
            ],
            "outputs": [
                {
                    "name": "all",
                    "type": "tuple",
                    "internalType": "struct AllNodeSignals",
                    "components": [
                        {
                            "name": "signalers",
                            "type": "address[]",
                            "internalType": "address[]"
                        },
                        {
                            "name": "inflationSignals",
                            "type": "uint256[2][]",
                            "internalType": "uint256[2][]"
                        },
                        {
                            "name": "membraneSignals",
                            "type": "uint256[2][]",
                            "internalType": "uint256[2][]"
                        },
                        {
                            "name": "redistributionSignals",
                            "type": "uint256[][]",
                            "internalType": "uint256[][]"
                        }
                    ]
                }
            ],
            "stateMutability": "view"
        },
        {
            "type": "function",
            "name": "getChildrenOf",
            "inputs": [
                {
                    "name": "fid_",
                    "type": "uint256",
                    "internalType": "uint256"
                }
            ],
            "outputs": [
                {
                    "name": "",
                    "type": "uint256[]",
                    "internalType": "uint256[]"
                }
            ],
            "stateMutability": "view"
        },
        {
            "type": "function",
            "name": "getFidPath",
            "inputs": [
                {
                    "name": "fid_",
                    "type": "uint256",
                    "internalType": "uint256"
                }
            ],
            "outputs": [
                {
                    "name": "fids",
                    "type": "uint256[]",
                    "internalType": "uint256[]"
                }
            ],
            "stateMutability": "view"
        },
        {
            "type": "function",
            "name": "getMembraneOf",
            "inputs": [
                {
                    "name": "fid_",
                    "type": "uint256",
                    "internalType": "uint256"
                }
            ],
            "outputs": [
                {
                    "name": "",
                    "type": "uint256",
                    "internalType": "uint256"
                }
            ],
            "stateMutability": "view"
        },
        {
            "type": "function",
            "name": "getNodeData",
            "inputs": [
                {
                    "name": "nodeId",
                    "type": "uint256",
                    "internalType": "uint256"
                },
                {
                    "name": "user",
                    "type": "address",
                    "internalType": "address"
                }
            ],
            "outputs": [
                {
                    "name": "nodeData",
                    "type": "tuple",
                    "internalType": "struct NodeState",
                    "components": [
                        {
                            "name": "basicInfo",
                            "type": "string[12]",
                            "internalType": "string[12]"
                        },
                        {
                            "name": "membraneMeta",
                            "type": "string",
                            "internalType": "string"
                        },
                        {
                            "name": "membersOfNode",
                            "type": "address[]",
                            "internalType": "address[]"
                        },
                        {
                            "name": "childrenNodes",
                            "type": "string[]",
                            "internalType": "string[]"
                        },
                        {
                            "name": "movementEndpoints",
                            "type": "address[]",
                            "internalType": "address[]"
                        },
                        {
                            "name": "rootPath",
                            "type": "string[]",
                            "internalType": "string[]"
                        },
                        {
                            "name": "nodeSignals",
                            "type": "tuple",
                            "internalType": "struct AllNodeSignals",
                            "components": [
                                {
                                    "name": "signalers",
                                    "type": "address[]",
                                    "internalType": "address[]"
                                },
                                {
                                    "name": "inflationSignals",
                                    "type": "uint256[2][]",
                                    "internalType": "uint256[2][]"
                                },
                                {
                                    "name": "membraneSignals",
                                    "type": "uint256[2][]",
                                    "internalType": "uint256[2][]"
                                },
                                {
                                    "name": "redistributionSignals",
                                    "type": "uint256[][]",
                                    "internalType": "uint256[][]"
                                }
                            ]
                        }
                    ]
                }
            ],
            "stateMutability": "view"
        },
        {
            "type": "function",
            "name": "getParentOf",
            "inputs": [
                {
                    "name": "fid_",
                    "type": "uint256",
                    "internalType": "uint256"
                }
            ],
            "outputs": [
                {
                    "name": "",
                    "type": "uint256",
                    "internalType": "uint256"
                }
            ],
            "stateMutability": "view"
        },
        {
            "type": "function",
            "name": "getUserNodeSignals",
            "inputs": [
                {
                    "name": "user_",
                    "type": "address",
                    "internalType": "address"
                },
                {
                    "name": "node_",
                    "type": "uint256",
                    "internalType": "uint256"
                }
            ],
            "outputs": [
                {
                    "name": "",
                    "type": "uint256[]",
                    "internalType": "uint256[]"
                }
            ],
            "stateMutability": "view"
        },
        {
            "type": "function",
            "name": "inParentDenomination",
            "inputs": [
                {
                    "name": "amt_",
                    "type": "uint256",
                    "internalType": "uint256"
                },
                {
                    "name": "id_",
                    "type": "uint256",
                    "internalType": "uint256"
                }
            ],
            "outputs": [
                {
                    "name": "inParentVal",
                    "type": "uint256",
                    "internalType": "uint256"
                }
            ],
            "stateMutability": "view"
        },
        {
            "type": "function",
            "name": "inflationOf",
            "inputs": [
                {
                    "name": "nodeId",
                    "type": "uint256",
                    "internalType": "uint256"
                }
            ],
            "outputs": [
                {
                    "name": "",
                    "type": "uint256",
                    "internalType": "uint256"
                }
            ],
            "stateMutability": "view"
        },
        {
            "type": "function",
            "name": "initSelfControl",
            "inputs": [],
            "outputs": [
                {
                    "name": "",
                    "type": "address",
                    "internalType": "address"
                }
            ],
            "stateMutability": "nonpayable"
        },
        {
            "type": "function",
            "name": "isApprovedForAll",
            "inputs": [
                {
                    "name": "owner",
                    "type": "address",
                    "internalType": "address"
                },
                {
                    "name": "operator",
                    "type": "address",
                    "internalType": "address"
                }
            ],
            "outputs": [
                {
                    "name": "result",
                    "type": "bool",
                    "internalType": "bool"
                }
            ],
            "stateMutability": "view"
        },
        {
            "type": "function",
            "name": "isMember",
            "inputs": [
                {
                    "name": "whoabout_",
                    "type": "address",
                    "internalType": "address"
                },
                {
                    "name": "whereabout_",
                    "type": "uint256",
                    "internalType": "uint256"
                }
            ],
            "outputs": [
                {
                    "name": "",
                    "type": "bool",
                    "internalType": "bool"
                }
            ],
            "stateMutability": "view"
        },
        {
            "type": "function",
            "name": "localizeEndpoint",
            "inputs": [
                {
                    "name": "endpoint_",
                    "type": "address",
                    "internalType": "address"
                },
                {
                    "name": "endpointParent_",
                    "type": "uint256",
                    "internalType": "uint256"
                },
                {
                    "name": "owner_",
                    "type": "address",
                    "internalType": "address"
                }
            ],
            "outputs": [],
            "stateMutability": "nonpayable"
        },
        {
            "type": "function",
            "name": "membershipEnforce",
            "inputs": [
                {
                    "name": "target",
                    "type": "address",
                    "internalType": "address"
                },
                {
                    "name": "fid_",
                    "type": "uint256",
                    "internalType": "uint256"
                }
            ],
            "outputs": [
                {
                    "name": "s",
                    "type": "bool",
                    "internalType": "bool"
                }
            ],
            "stateMutability": "nonpayable"
        },
        {
            "type": "function",
            "name": "membershipID",
            "inputs": [
                {
                    "name": "fid_",
                    "type": "uint256",
                    "internalType": "uint256"
                }
            ],
            "outputs": [
                {
                    "name": "",
                    "type": "uint256",
                    "internalType": "uint256"
                }
            ],
            "stateMutability": "pure"
        },
        {
            "type": "function",
            "name": "mint",
            "inputs": [
                {
                    "name": "fid_",
                    "type": "uint256",
                    "internalType": "uint256"
                },
                {
                    "name": "amount_",
                    "type": "uint256",
                    "internalType": "uint256"
                }
            ],
            "outputs": [],
            "stateMutability": "nonpayable"
        },
        {
            "type": "function",
            "name": "mintInflation",
            "inputs": [
                {
                    "name": "node",
                    "type": "uint256",
                    "internalType": "uint256"
                }
            ],
            "outputs": [
                {
                    "name": "amount",
                    "type": "uint256",
                    "internalType": "uint256"
                }
            ],
            "stateMutability": "nonpayable"
        },
        {
            "type": "function",
            "name": "mintMembership",
            "inputs": [
                {
                    "name": "fid_",
                    "type": "uint256",
                    "internalType": "uint256"
                }
            ],
            "outputs": [],
            "stateMutability": "nonpayable"
        },
        {
            "type": "function",
            "name": "mintPath",
            "inputs": [
                {
                    "name": "target_",
                    "type": "uint256",
                    "internalType": "uint256"
                },
                {
                    "name": "amount_",
                    "type": "uint256",
                    "internalType": "uint256"
                }
            ],
            "outputs": [],
            "stateMutability": "nonpayable"
        },
        {
            "type": "function",
            "name": "name",
            "inputs": [],
            "outputs": [
                {
                    "name": "",
                    "type": "string",
                    "internalType": "string"
                }
            ],
            "stateMutability": "view"
        },
        {
            "type": "function",
            "name": "options",
            "inputs": [
                {
                    "name": "NodeXUserXValue",
                    "type": "bytes32",
                    "internalType": "bytes32"
                },
                {
                    "name": "",
                    "type": "uint256",
                    "internalType": "uint256"
                }
            ],
            "outputs": [
                {
                    "name": "valueAtTime",
                    "type": "uint256",
                    "internalType": "uint256"
                }
            ],
            "stateMutability": "view"
        },
        {
            "type": "function",
            "name": "redistribute",
            "inputs": [
                {
                    "name": "nodeId_",
                    "type": "uint256",
                    "internalType": "uint256"
                }
            ],
            "outputs": [
                {
                    "name": "distributedAmt",
                    "type": "uint256",
                    "internalType": "uint256"
                }
            ],
            "stateMutability": "nonpayable"
        },
        {
            "type": "function",
            "name": "redistributePath",
            "inputs": [
                {
                    "name": "nodeId_",
                    "type": "uint256",
                    "internalType": "uint256"
                }
            ],
            "outputs": [
                {
                    "name": "distributedAmt",
                    "type": "uint256",
                    "internalType": "uint256"
                }
            ],
            "stateMutability": "nonpayable"
        },
        {
            "type": "function",
            "name": "resignal",
            "inputs": [
                {
                    "name": "targetNode_",
                    "type": "uint256",
                    "internalType": "uint256"
                },
                {
                    "name": "originator",
                    "type": "address",
                    "internalType": "address"
                }
            ],
            "outputs": [],
            "stateMutability": "nonpayable"
        },
        {
            "type": "function",
            "name": "safeBatchTransferFrom",
            "inputs": [
                {
                    "name": "from",
                    "type": "address",
                    "internalType": "address"
                },
                {
                    "name": "to",
                    "type": "address",
                    "internalType": "address"
                },
                {
                    "name": "ids",
                    "type": "uint256[]",
                    "internalType": "uint256[]"
                },
                {
                    "name": "amounts",
                    "type": "uint256[]",
                    "internalType": "uint256[]"
                },
                {
                    "name": "data",
                    "type": "bytes",
                    "internalType": "bytes"
                }
            ],
            "outputs": [],
            "stateMutability": "nonpayable"
        },
        {
            "type": "function",
            "name": "safeTransferFrom",
            "inputs": [
                {
                    "name": "from",
                    "type": "address",
                    "internalType": "address"
                },
                {
                    "name": "to",
                    "type": "address",
                    "internalType": "address"
                },
                {
                    "name": "id",
                    "type": "uint256",
                    "internalType": "uint256"
                },
                {
                    "name": "amount",
                    "type": "uint256",
                    "internalType": "uint256"
                },
                {
                    "name": "data",
                    "type": "bytes",
                    "internalType": "bytes"
                }
            ],
            "outputs": [],
            "stateMutability": "nonpayable"
        },
        {
            "type": "function",
            "name": "sendSignal",
            "inputs": [
                {
                    "name": "targetNode_",
                    "type": "uint256",
                    "internalType": "uint256"
                },
                {
                    "name": "signals",
                    "type": "uint256[]",
                    "internalType": "uint256[]"
                }
            ],
            "outputs": [],
            "stateMutability": "nonpayable"
        },
        {
            "type": "function",
            "name": "setApprovalForAll",
            "inputs": [
                {
                    "name": "operator",
                    "type": "address",
                    "internalType": "address"
                },
                {
                    "name": "isApproved",
                    "type": "bool",
                    "internalType": "bool"
                }
            ],
            "outputs": [],
            "stateMutability": "nonpayable"
        },
        {
            "type": "function",
            "name": "setControl",
            "inputs": [
                {
                    "name": "newController",
                    "type": "address",
                    "internalType": "address"
                }
            ],
            "outputs": [],
            "stateMutability": "nonpayable"
        },
        {
            "type": "function",
            "name": "spawnNode",
            "inputs": [
                {
                    "name": "fid_",
                    "type": "uint256",
                    "internalType": "uint256"
                }
            ],
            "outputs": [
                {
                    "name": "newID",
                    "type": "uint256",
                    "internalType": "uint256"
                }
            ],
            "stateMutability": "nonpayable"
        },
        {
            "type": "function",
            "name": "spawnNodeWithMembrane",
            "inputs": [
                {
                    "name": "fid_",
                    "type": "uint256",
                    "internalType": "uint256"
                },
                {
                    "name": "tokens_",
                    "type": "address[]",
                    "internalType": "address[]"
                },
                {
                    "name": "balances_",
                    "type": "uint256[]",
                    "internalType": "uint256[]"
                },
                {
                    "name": "meta_",
                    "type": "string",
                    "internalType": "string"
                },
                {
                    "name": "inflationRate_",
                    "type": "uint256",
                    "internalType": "uint256"
                }
            ],
            "outputs": [
                {
                    "name": "newID",
                    "type": "uint256",
                    "internalType": "uint256"
                }
            ],
            "stateMutability": "nonpayable"
        },
        {
            "type": "function",
            "name": "spawnRootNode",
            "inputs": [
                {
                    "name": "fungible20_",
                    "type": "address",
                    "internalType": "address"
                }
            ],
            "outputs": [
                {
                    "name": "fID",
                    "type": "uint256",
                    "internalType": "uint256"
                }
            ],
            "stateMutability": "nonpayable"
        },
        {
            "type": "function",
            "name": "supportsInterface",
            "inputs": [
                {
                    "name": "interfaceId",
                    "type": "bytes4",
                    "internalType": "bytes4"
                }
            ],
            "outputs": [
                {
                    "name": "result",
                    "type": "bool",
                    "internalType": "bool"
                }
            ],
            "stateMutability": "view"
        },
        {
            "type": "function",
            "name": "symbol",
            "inputs": [],
            "outputs": [
                {
                    "name": "",
                    "type": "string",
                    "internalType": "string"
                }
            ],
            "stateMutability": "view"
        },
        {
            "type": "function",
            "name": "taxPolicyPreference",
            "inputs": [
                {
                    "name": "rootToken_",
                    "type": "address",
                    "internalType": "address"
                },
                {
                    "name": "taxRate_",
                    "type": "uint256",
                    "internalType": "uint256"
                }
            ],
            "outputs": [],
            "stateMutability": "nonpayable"
        },
        {
            "type": "function",
            "name": "toAddress",
            "inputs": [
                {
                    "name": "x",
                    "type": "uint256",
                    "internalType": "uint256"
                }
            ],
            "outputs": [
                {
                    "name": "",
                    "type": "address",
                    "internalType": "address"
                }
            ],
            "stateMutability": "pure"
        },
        {
            "type": "function",
            "name": "toID",
            "inputs": [
                {
                    "name": "x",
                    "type": "address",
                    "internalType": "address"
                }
            ],
            "outputs": [
                {
                    "name": "",
                    "type": "uint256",
                    "internalType": "uint256"
                }
            ],
            "stateMutability": "pure"
        },
        {
            "type": "function",
            "name": "totalSupply",
            "inputs": [
                {
                    "name": "nodeId",
                    "type": "uint256",
                    "internalType": "uint256"
                }
            ],
            "outputs": [
                {
                    "name": "",
                    "type": "uint256",
                    "internalType": "uint256"
                }
            ],
            "stateMutability": "view"
        },
        {
            "type": "function",
            "name": "uri",
            "inputs": [
                {
                    "name": "id_",
                    "type": "uint256",
                    "internalType": "uint256"
                }
            ],
            "outputs": [
                {
                    "name": "",
                    "type": "string",
                    "internalType": "string"
                }
            ],
            "stateMutability": "view"
        },
        {
            "type": "event",
            "name": "ApprovalForAll",
            "inputs": [
                {
                    "name": "owner",
                    "type": "address",
                    "indexed": true,
                    "internalType": "address"
                },
                {
                    "name": "operator",
                    "type": "address",
                    "indexed": true,
                    "internalType": "address"
                },
                {
                    "name": "isApproved",
                    "type": "bool",
                    "indexed": false,
                    "internalType": "bool"
                }
            ],
            "anonymous": false
        },
        {
            "type": "event",
            "name": "Burned",
            "inputs": [
                {
                    "name": "fromAddressOrNode",
                    "type": "address",
                    "indexed": true,
                    "internalType": "address"
                },
                {
                    "name": "nodeId",
                    "type": "uint256",
                    "indexed": true,
                    "internalType": "uint256"
                },
                {
                    "name": "amount",
                    "type": "uint256",
                    "indexed": false,
                    "internalType": "uint256"
                }
            ],
            "anonymous": false
        },
        {
            "type": "event",
            "name": "CreatedEndpoint",
            "inputs": [
                {
                    "name": "endpoint",
                    "type": "address",
                    "indexed": true,
                    "internalType": "address"
                },
                {
                    "name": "owner",
                    "type": "address",
                    "indexed": true,
                    "internalType": "address"
                },
                {
                    "name": "nodeId",
                    "type": "uint256",
                    "indexed": true,
                    "internalType": "uint256"
                }
            ],
            "anonymous": false
        },
        {
            "type": "event",
            "name": "InflationRateChanged",
            "inputs": [
                {
                    "name": "nodeId",
                    "type": "uint256",
                    "indexed": true,
                    "internalType": "uint256"
                },
                {
                    "name": "oldInflationRate",
                    "type": "uint256",
                    "indexed": false,
                    "internalType": "uint256"
                },
                {
                    "name": "newInflationRate",
                    "type": "uint256",
                    "indexed": false,
                    "internalType": "uint256"
                }
            ],
            "anonymous": false
        },
        {
            "type": "event",
            "name": "InflationSignal",
            "inputs": [
                {
                    "name": "nodeId",
                    "type": "uint256",
                    "indexed": true,
                    "internalType": "uint256"
                },
                {
                    "name": "origin",
                    "type": "address",
                    "indexed": true,
                    "internalType": "address"
                },
                {
                    "name": "inflationRate",
                    "type": "uint256",
                    "indexed": false,
                    "internalType": "uint256"
                },
                {
                    "name": "strength",
                    "type": "uint256",
                    "indexed": false,
                    "internalType": "uint256"
                }
            ],
            "anonymous": false
        },
        {
            "type": "event",
            "name": "MemberRemoved",
            "inputs": [
                {
                    "name": "userAddress",
                    "type": "address",
                    "indexed": true,
                    "internalType": "address"
                },
                {
                    "name": "nodeId",
                    "type": "uint256",
                    "indexed": true,
                    "internalType": "uint256"
                }
            ],
            "anonymous": false
        },
        {
            "type": "event",
            "name": "MembershipMinted",
            "inputs": [
                {
                    "name": "who",
                    "type": "address",
                    "indexed": true,
                    "internalType": "address"
                },
                {
                    "name": "nodeId",
                    "type": "uint256",
                    "indexed": true,
                    "internalType": "uint256"
                }
            ],
            "anonymous": false
        },
        {
            "type": "event",
            "name": "MembraneChanged",
            "inputs": [
                {
                    "name": "nodeId",
                    "type": "uint256",
                    "indexed": true,
                    "internalType": "uint256"
                },
                {
                    "name": "previousMembrane",
                    "type": "uint256",
                    "indexed": false,
                    "internalType": "uint256"
                },
                {
                    "name": "newMembrane",
                    "type": "uint256",
                    "indexed": false,
                    "internalType": "uint256"
                }
            ],
            "anonymous": false
        },
        {
            "type": "event",
            "name": "MembraneSignal",
            "inputs": [
                {
                    "name": "nodeId",
                    "type": "uint256",
                    "indexed": true,
                    "internalType": "uint256"
                },
                {
                    "name": "origin",
                    "type": "address",
                    "indexed": true,
                    "internalType": "address"
                },
                {
                    "name": "membraneId",
                    "type": "uint256",
                    "indexed": false,
                    "internalType": "uint256"
                },
                {
                    "name": "strength",
                    "type": "uint256",
                    "indexed": false,
                    "internalType": "uint256"
                }
            ],
            "anonymous": false
        },
        {
            "type": "event",
            "name": "Minted",
            "inputs": [
                {
                    "name": "fromAddressOrNode",
                    "type": "address",
                    "indexed": true,
                    "internalType": "address"
                },
                {
                    "name": "nodeId",
                    "type": "uint256",
                    "indexed": true,
                    "internalType": "uint256"
                },
                {
                    "name": "amount",
                    "type": "uint256",
                    "indexed": false,
                    "internalType": "uint256"
                }
            ],
            "anonymous": false
        },
        {
            "type": "event",
            "name": "NewNode",
            "inputs": [
                {
                    "name": "newId",
                    "type": "uint256",
                    "indexed": true,
                    "internalType": "uint256"
                },
                {
                    "name": "parentId",
                    "type": "uint256",
                    "indexed": true,
                    "internalType": "uint256"
                },
                {
                    "name": "creator",
                    "type": "address",
                    "indexed": true,
                    "internalType": "address"
                }
            ],
            "anonymous": false
        },
        {
            "type": "event",
            "name": "NewRootNode",
            "inputs": [
                {
                    "name": "rootNodeId",
                    "type": "uint256",
                    "indexed": true,
                    "internalType": "uint256"
                }
            ],
            "anonymous": false
        },
        {
            "type": "event",
            "name": "Resignaled",
            "inputs": [
                {
                    "name": "sender",
                    "type": "address",
                    "indexed": true,
                    "internalType": "address"
                },
                {
                    "name": "nodeId",
                    "type": "uint256",
                    "indexed": true,
                    "internalType": "uint256"
                },
                {
                    "name": "origin",
                    "type": "address",
                    "indexed": false,
                    "internalType": "address"
                }
            ],
            "anonymous": false
        },
        {
            "type": "event",
            "name": "SelfControlAtAddress",
            "inputs": [
                {
                    "name": "AgencyLocus",
                    "type": "address",
                    "indexed": false,
                    "internalType": "address"
                }
            ],
            "anonymous": false
        },
        {
            "type": "event",
            "name": "SharesGenerated",
            "inputs": [
                {
                    "name": "nodeId",
                    "type": "uint256",
                    "indexed": true,
                    "internalType": "uint256"
                },
                {
                    "name": "amount",
                    "type": "uint256",
                    "indexed": false,
                    "internalType": "uint256"
                }
            ],
            "anonymous": false
        },
        {
            "type": "event",
            "name": "TransferBatch",
            "inputs": [
                {
                    "name": "operator",
                    "type": "address",
                    "indexed": true,
                    "internalType": "address"
                },
                {
                    "name": "from",
                    "type": "address",
                    "indexed": true,
                    "internalType": "address"
                },
                {
                    "name": "to",
                    "type": "address",
                    "indexed": true,
                    "internalType": "address"
                },
                {
                    "name": "ids",
                    "type": "uint256[]",
                    "indexed": false,
                    "internalType": "uint256[]"
                },
                {
                    "name": "amounts",
                    "type": "uint256[]",
                    "indexed": false,
                    "internalType": "uint256[]"
                }
            ],
            "anonymous": false
        },
        {
            "type": "event",
            "name": "TransferSingle",
            "inputs": [
                {
                    "name": "operator",
                    "type": "address",
                    "indexed": true,
                    "internalType": "address"
                },
                {
                    "name": "from",
                    "type": "address",
                    "indexed": true,
                    "internalType": "address"
                },
                {
                    "name": "to",
                    "type": "address",
                    "indexed": true,
                    "internalType": "address"
                },
                {
                    "name": "id",
                    "type": "uint256",
                    "indexed": false,
                    "internalType": "uint256"
                },
                {
                    "name": "amount",
                    "type": "uint256",
                    "indexed": false,
                    "internalType": "uint256"
                }
            ],
            "anonymous": false
        },
        {
            "type": "event",
            "name": "URI",
            "inputs": [
                {
                    "name": "value",
                    "type": "string",
                    "indexed": false,
                    "internalType": "string"
                },
                {
                    "name": "id",
                    "type": "uint256",
                    "indexed": true,
                    "internalType": "uint256"
                }
            ],
            "anonymous": false
        },
        {
            "type": "event",
            "name": "UserNodeSignal",
            "inputs": [
                {
                    "name": "nodeId",
                    "type": "uint256",
                    "indexed": true,
                    "internalType": "uint256"
                },
                {
                    "name": "user",
                    "type": "address",
                    "indexed": true,
                    "internalType": "address"
                },
                {
                    "name": "signals",
                    "type": "uint256[]",
                    "indexed": false,
                    "internalType": "uint256[]"
                },
                {
                    "name": "strenght",
                    "type": "uint256",
                    "indexed": false,
                    "internalType": "uint256"
                }
            ],
            "anonymous": false
        },
        {
            "type": "error",
            "name": "AccountBalanceOverflow",
            "inputs": []
        },
        {
            "type": "error",
            "name": "AlreadyMember",
            "inputs": []
        },
        {
            "type": "error",
            "name": "ArrayLengthsMismatch",
            "inputs": []
        },
        {
            "type": "error",
            "name": "BadLen",
            "inputs": []
        },
        {
            "type": "error",
            "name": "BaseOrNonFungible",
            "inputs": []
        },
        {
            "type": "error",
            "name": "BurnE20TransferFailed",
            "inputs": []
        },
        {
            "type": "error",
            "name": "CannotSkip",
            "inputs": []
        },
        {
            "type": "error",
            "name": "Disabled",
            "inputs": []
        },
        {
            "type": "error",
            "name": "EOA",
            "inputs": []
        },
        {
            "type": "error",
            "name": "Endpoint",
            "inputs": []
        },
        {
            "type": "error",
            "name": "ExecutionOnly",
            "inputs": []
        },
        {
            "type": "error",
            "name": "IncompleteSign",
            "inputs": []
        },
        {
            "type": "error",
            "name": "InsufficientAmt",
            "inputs": []
        },
        {
            "type": "error",
            "name": "InsufficientBalance",
            "inputs": []
        },
        {
            "type": "error",
            "name": "MembershipOp",
            "inputs": []
        },
        {
            "type": "error",
            "name": "MembraneNotFound",
            "inputs": []
        },
        {
            "type": "error",
            "name": "MintE20TransferFailed",
            "inputs": []
        },
        {
            "type": "error",
            "name": "No",
            "inputs": []
        },
        {
            "type": "error",
            "name": "NoControl",
            "inputs": []
        },
        {
            "type": "error",
            "name": "NoSoup",
            "inputs": []
        },
        {
            "type": "error",
            "name": "NoTimeDelta",
            "inputs": []
        },
        {
            "type": "error",
            "name": "NodeAlreadyExists",
            "inputs": []
        },
        {
            "type": "error",
            "name": "NodeNotFound",
            "inputs": []
        },
        {
            "type": "error",
            "name": "Noise",
            "inputs": []
        },
        {
            "type": "error",
            "name": "NoiseNotVoice",
            "inputs": []
        },
        {
            "type": "error",
            "name": "NotMember",
            "inputs": []
        },
        {
            "type": "error",
            "name": "NotNodeMember",
            "inputs": []
        },
        {
            "type": "error",
            "name": "NotOwnerNorApproved",
            "inputs": []
        },
        {
            "type": "error",
            "name": "Overreach",
            "inputs": []
        },
        {
            "type": "error",
            "name": "ResignalMismatch",
            "inputs": []
        },
        {
            "type": "error",
            "name": "RootExists",
            "inputs": []
        },
        {
            "type": "error",
            "name": "SignalOverflow",
            "inputs": []
        },
        {
            "type": "error",
            "name": "TargetIsRoot",
            "inputs": []
        },
        {
            "type": "error",
            "name": "TransferToNonERC1155ReceiverImplementer",
            "inputs": []
        },
        {
            "type": "error",
            "name": "TransferToZeroAddress",
            "inputs": []
        },
        {
            "type": "error",
            "name": "Unautorised",
            "inputs": []
        },
        {
            "type": "error",
            "name": "Unqualified",
            "inputs": []
        },
        {
            "type": "error",
            "name": "UnregisteredFungible",
            "inputs": []
        },
        {
            "type": "error",
            "name": "UnsoundMembership",
            "inputs": []
        },
        {
            "type": "error",
            "name": "UnsupportedTransfer",
            "inputs": []
        },
        {
            "type": "error",
            "name": "isControled",
            "inputs": []
        }
    ],
    "bytecode": {
        "object": "0x608060405234801561000f575f80fd5b5060405161639938038061639983398101604081905261002e91610206565b5f8052600b60209081526103e87fdf7de25b7f1fd6d0b5205f0e18f1f35bd7b8d84cce336588d184533ce43a6f7655600180546001600160a01b0319166001600160a01b038516908117909155604080516390ef12cd60e01b81529051859385938593859391926390ef12cd926004808401938290030181865afa1580156100b8573d5f803e3d5ffd5b505050506040513d601f19601f820116820180604052508101906100dc9190610237565b600280546001600160a01b03199081166001600160a01b03938416179091556003805490911691831691909117905560408051808201909152600a8152692bb4b6362bb2973c3cbd60b11b602082015260109061013990826102ef565b5060408051808201909152600981526857656565656565656560b81b602082015260119061016790826102ef565b505060128054600160ff19909116811790915580546001600160a01b0319166001600160a01b038516908117909155604051633a8f06ab60e21b815230600482015290915063ea3c1aac906024015f604051808303815f87803b1580156101cc575f80fd5b505af11580156101de573d5f803e3d5ffd5b50505050505050506103ae565b80516001600160a01b0381168114610201575f80fd5b919050565b5f8060408385031215610217575f80fd5b610220836101eb565b915061022e602084016101eb565b90509250929050565b5f60208284031215610247575f80fd5b610250826101eb565b9392505050565b634e487b7160e01b5f52604160045260245ffd5b600181811c9082168061027f57607f821691505b60208210810361029d57634e487b7160e01b5f52602260045260245ffd5b50919050565b601f8211156102ea57805f5260205f20601f840160051c810160208510156102c85750805b601f840160051c820191505b818110156102e7575f81556001016102d4565b50505b505050565b81516001600160401b0381111561030857610308610257565b61031c81610316845461026b565b846102a3565b602080601f83116001811461034f575f84156103385750858301515b5f19600386901b1c1916600185901b1785556103a6565b5f85815260208120601f198616915b8281101561037d5788860151825594840194600190910190840161035e565b508582101561039a57878501515f19600388901b60f8161c191681555b505060018460011b0185555b505050505050565b615fde806103bb5f395ff3fe608060405234801561000f575f80fd5b50600436106102b7575f3560e01c806368dc274711610177578063a6bfbc20116100d5578063e985e9c51161008f578063e985e9c5146106a4578063eef2e757146106cf578063f039a733146106ef578063f242432a14610702578063f6355a5614610715578063f77914c314610728578063f87cc6b31461073b575f80fd5b8063a6bfbc2014610619578063af1b55b014610639578063b390c0ab1461064c578063bd85b0391461065f578063bfad25e51461067e578063e0051aa914610691575f80fd5b80637f33d800116101315780637f33d8001461059f57806385752d03146105b257806395d89b41146105c557806399f45689146105cd578063a0762253146105e0578063a0ce552d146105f3578063a22cb46514610606575f80fd5b806368dc274714610538578063765063e51461054057806378adc79014610553578063791ddaf9146105665780637d11e682146105795780637e44bffe1461058c575f80fd5b80631f0178411161022457806345bbbf84116101de57806345bbbf841461049b5780634e1273f4146104c6578063535e9891146104d95780635ac8260c146104ec5780635b4a26ed146104ff57806362593f601461051257806367c394fb14610525575f80fd5b80631f0178411461041c5780631fae703b1461042f57806320f944271461044257806328ca8e26146104555780632eb2c2d61461046857806330f9b1651461047b575f80fd5b80630ffd3910116102755780630ffd391014610391578063114b6e49146103a457806313e75206146103b7578063150d503d146103d65780631b2ef1ca146103f65780631e9b388d14610409575f80fd5b8062fdd58e146102bb57806301ffc9a7146102fa57806306fdde031461033a5780630d78d0c11461034f5780630e89341c146103645780630f33634814610377575b5f80fd5b6102e76102c93660046150c6565b679a31110384e0b0c96020526014919091525f908152604090205490565b6040519081526020015b60405180910390f35b61032a6103083660046150f0565b6301ffc9a760e09190911c90811463d9b67a26821417630e89341c9091141790565b60405190151581526020016102f1565b61034261075b565b6040516102f19190615145565b61036261035d366004615157565b6107e7565b005b610342610372366004615157565b61094e565b6102e761038536600461516e565b6001600160a01b031690565b6102e761039f366004615189565b61097f565b6102e76103b2366004615334565b610a5f565b6102e76103c5366004615157565b5f9081526006602052604090205490565b6103e96103e43660046150c6565b610bbb565b6040516102f1919061545e565b610362610404366004615470565b610c64565b6102e7610417366004615470565b610cd4565b61036261042a3660046150c6565b610d4f565b61036261043d366004615490565b610dc6565b6102e7610450366004615470565b61105b565b6103626104633660046154be565b61107d565b610362610476366004615581565b61114f565b61048e610489366004615157565b611408565b6040516102f19190615793565b6104ae6104a9366004615490565b6118c3565b6040516001600160a01b0390911681526020016102f1565b6103e96104d43660046157a5565b6119ae565b6002546104ae906001600160a01b031681565b6103626104fa36600461516e565b611a1b565b61036261050d36600461580b565b611aa7565b61032a6105203660046150c6565b611f74565b6102e7610533366004615157565b6120aa565b6104ae612178565b6102e761054e366004615157565b61234a565b6001546104ae906001600160a01b031681565b610362610574366004615470565b612361565b6104ae610587366004615157565b6123b9565b6102e761059a366004615157565b6123d8565b6102e76105ad366004615470565b6123eb565b61032a6105c03660046150c6565b612472565b61034261248f565b6103e96105db366004615157565b61249c565b6102e76105ee366004615157565b6124fb565b6102e7610601366004615157565b612553565b61036261061436600461585b565b612744565b61062c610627366004615490565b61275d565b6040516102f191906159db565b6102e761064736600461516e565b61282e565b6102e761065a366004615470565b6128da565b6102e761066d366004615157565b5f9081526004602052604090205490565b6102e761068c366004615157565b612be0565b6104ae61069f366004615157565b612d1d565b61032a6106b23660046159ed565b679a31110384e0b0c96020526014919091525f526034600c205490565b6106e26106dd366004615157565b612d39565b6040516102f19190615a19565b6103626106fd366004615470565b612ea0565b610362610710366004615a2b565b612f8b565b6103e9610723366004615157565b613153565b6102e7610736366004615157565b613258565b61074e6107493660046159ed565b613280565b6040516102f19190615aa1565b6010805461076890615b03565b80601f016020809104026020016040519081016040528092919081815260200182805461079490615b03565b80156107df5780601f106107b6576101008083540402835291602001916107df565b820191905f5260205f20905b8154815290600101906020018083116107c257829003601f168201915b505050505081565b5f81815260066020526040812054900361081457604051634825e09360e01b815260040160405180910390fd5b5f818152600660205260409020548190036108425760405163bd23392760e01b815260040160405180910390fd5b5f8181526004602052604090205460010161087057604051630cf32f7560e21b815260040160405180910390fd5b61088161087b61336f565b82612472565b1561089f576040516340803a5f60e11b815260040160405180910390fd5b6003546001600160a01b03166389160e0e6108b861336f565b6108c1846123d8565b6040518363ffffffff1660e01b81526004016108de929190615b3b565b602060405180830381865afa1580156108f9573d5f803e3d5ffd5b505050506040513d601f19601f8201168201806040525081019061091d9190615b54565b61093a5760405163b2cab42960e01b815260040160405180910390fd5b61094b61094561336f565b826133ae565b50565b60606109598261344b565b6040516020016109699190615b6f565b6040516020818303038152906040529050919050565b5f8481526006602052604081205484146109ac57604051635f12529560e01b815260040160405180910390fd5b5f6109e56109b986612d1d565b5f87815260066020526040902054679a31110384e0b0c96020526014919091525f908152604090205490565b679a31110384e0b0c9602090815260148590525f878152604080822054600790935290205491925090633b9aca008211610a24575f9350505050610a57565b5f610a3184612710615bd6565b82610a3c8986615bd6565b610a469190615bd6565b610a509190615c01565b9450505050505b949350505050565b60035460405163333cabc560e01b81525f9182916001600160a01b039091169063333cabc590610a9790899089908990600401615c14565b6020604051808303815f875af1158015610ab3573d5f803e3d5ffd5b505050506040513d601f19601f82011682018060405250810190610ad79190615c56565b9050610ae287612be0565b5f8181526008602052604090208281554260019091015591508215610b1457610b0f83633b9aca00615bd6565b610b1b565b64e8d4a510005b5f8381526007602052604081200155604080515f81526020810183905283917fe48aa5e298e92f05c7b7489cb783dd272acece1ed2b7aae5007022513a997611910160405180910390a25f82815260076020526040812083917f0ad1727523f8a97d260a40299bd81a21bbcdb605a771d1390f8fa163b2632caf918101546040805192835260208301919091520160405180910390a25095945050505050565b6060600c5f8484604051602001610beb92919060609290921b6001600160601b0319168252601482015260340190565b6040516020818303038152906040528051906020012081526020019081526020015f20805480602002602001604051908101604052809291908181526020018280548015610c5657602002820191905f5260205f20905b815481526020019060010190808311610c42575b505050505090505b92915050565b5f828152600660205260408120549003610c9157604051635f12529560e01b815260040160405180910390fd5b610cd0610c9c61336f565b8383604051602001610cbc906766756e6769626c6560c01b815260080190565b6040516020818303038152906040526134da565b5050565b5f8181526004602052604081205415610d46575f82815260046020526040902054610d2d610d0184612d1d565b5f85815260066020526040902054679a31110384e0b0c96020526014919091525f908152604090205490565b610d379085615bd6565b610d419190615c01565b610d48565b5f5b9392505050565b600d546001600160a01b0316610d6361336f565b6001600160a01b031614610d8a576040516385ea10fd60e01b815260040160405180910390fd5b60018111610dab5760405163023ad70560e31b815260040160405180910390fd5b6001600160a01b039091165f908152600b6020526040902055565b5f610dd18284610bbb565b90506002815111610de157505050565b5f356001600160e01b03191663b390c0ab60e01b1480610e12575063f039a73360e01b6001600160e01b03195f3516145b15610fe0575f83815260056020908152604080832080548251818502810185019093528083529192909190830182828015610e6a57602002820191905f5260205f20905b815481526020019060010190808311610e56575b50939450600293505050505b825181108015610e9057508151610e8e600283615c6d565b105b15610fdd575f848684610ea4600286615c6d565b81518110610eb457610eb4615bae565b6020026020010151604051602001610ece93929190615c80565b6040516020818303038152906040528051906020012090505f83600284610ef59190615c6d565b81518110610f0557610f05615bae565b602002602001015187604051602001610f28929190918252602082015260400190565b60408051808303601f1901815291815281516020928301205f858152600a90935291206002015490915015610fc8575f818152600a60205260408082205484835291206002015410610f87575f818152600a6020526040812055610fb6565b5f828152600a602052604080822060020154838352908220805491929091610fb0908490615c6d565b90915550505b5f828152600a60205260408120600201555b50508080610fd590615ca5565b915050610e76565b50505b600f80546001600160a01b0319166001600160a01b0384161790556110058382611aa7565b600f80546001600160a01b03191690556040516001600160a01b0383168152839033907f081dd7a021608cb1e85f93c3e497da26967bb26442035ffc020ba466aed4049d906020015b60405180910390a3505050565b600a602052815f5260405f208160038110611074575f80fd5b01549150829050565b6001546001600160a01b031633146110a857604051630fc714ab60e01b815260040160405180910390fd5b6001600160a01b038181165f818152600960208181526040832080546001810182559084529083200180546001600160a01b031916948816949094179093559084906110f49190615cbd565b815260208082019290925260409081015f90812080546001810182559082528382200180546001600160a01b0319166001600160a01b0388169081179091558082526004909352205f19905561114a908361354e565b505050565b60125460ff16156111fa576111fa88888888808060200260200160405190810160405280939291908181526020018383602002808284375f9201919091525050604080516020808c0282810182019093528b82529093508b92508a9182918501908490808284375f9201919091525050604080516020601f8b0181900481028201810190925289815292508991508890819084018382808284375f9201919091525061365692505050565b82851461120e57633b800a465f526004601cfd5b8760601b679a31110384e0b0c9178760601b679a31110384e0b0c917816020528160601c99508060601c98508861124c5763ea553b345f526004601cfd5b89331461126d57335f526034600c205461126d57634b6e7f185f526004601cfd5b8660051b5b80156112da576020810390508087013583602052818a01355f5260405f208054808311156112a75763f4d678b85f526004601cfd5b8290039055602083905260405f208054808301818110156112cf576301336cea5f526004601cfd5b909155506112729050565b505050604051604081528560051b602001604082018160208a03823781604001602084015281602088038383013750888a337f4a39dc06d4c0dbc64b70af90fd698a233a518aa5d07e595d983b8c0526c8f7fb60408586010186a4505061133e5f90565b15611353576113538888888888888888613915565b863b156113fe57865f5260405163bc197c81815233602082015288604082015260a060608201528560051b60200160c082018160208a0382378160a001806080850152826020890384840137820160a084015260208401601f19860183800183013750808101830160c401905060208282601c85015f80515af16113df573d156113df573d5f833e3d82fd5b50805163bc197c8160e01b146113fc57639c05499b5f526004601cfd5b505b5050505050505050565b6114336040518060800160405280606081526020016060815260200160608152602001606081525090565b5f61143d83612d39565b905080516001600160401b03811115611458576114586151c7565b604051908082528060200260200182016040528015611481578160200160208202803683370190505b50825280516001600160401b0381111561149d5761149d6151c7565b6040519080825280602002602001820160405280156114d657816020015b6114c3614f4e565b8152602001906001900390816114bb5790505b50602083015280516001600160401b038111156114f5576114f56151c7565b60405190808252806020026020018201604052801561152e57816020015b61151b614f4e565b8152602001906001900390816115135790505b50604083015280516001600160401b0381111561154d5761154d6151c7565b60405190808252806020026020018201604052801561158057816020015b606081526020019060019003908161156b5790505b5060608301525f5b81518110156118bc575f6001600160a01b03168282815181106115ad576115ad615bae565b60200260200101516001600160a01b031603156118b4575f8282815181106115d7576115d7615bae565b602002602001015190505f6115ec8287610bbb565b905081855f0151848151811061160457611604615bae565b6001600160a01b03909216602092830291909101909101528051156118b1578051156117d9576040518060400160405280825f8151811061164757611647615bae565b60200260200101518152602001600a5f89611668876001600160a01b031690565b865f8151811061167a5761167a615bae565b60200260200101516040516020016116a5939291909283526020830191909152604082015260600190565b6040516020818303038152906040528051906020012081526020019081526020015f206002600381106116da576116da615bae565b0154815250856040015184815181106116f5576116f5615bae565b602002602001018190525060405180604001604052808260018151811061171e5761171e615bae565b60200260200101518152602001600a5f8961173f876001600160a01b031690565b8660018151811061175257611752615bae565b602002602001015160405160200161177d939291909283526020830191909152604082015260600190565b6040516020818303038152906040528051906020012081526020019081526020015f206002600381106117b2576117b2615bae565b0154815250856020015184815181106117cd576117cd615bae565b60200260200101819052505b6002815111156118b1575f600282516117f29190615c6d565b6001600160401b03811115611809576118096151c7565b604051908082528060200260200182016040528015611832578160200160208202803683370190505b50905060025b825181101561188c5782818151811061185357611853615bae565b6020026020010151826002836118699190615c6d565b8151811061187957611879615bae565b6020908102919091010152600101611838565b5080866060015185815181106118a4576118a4615bae565b6020026020010181905250505b50505b600101611588565b5050919050565b5f6118ce8284612472565b6118eb576040516359c5ba6f60e11b815260040160405180910390fd5b6001546040516311eb232d60e21b8152336004820152602481018590526001600160a01b038481166044830152909116906347ac8cb4906064016020604051808303815f875af1158015611941573d5f803e3d5ffd5b505050506040513d601f19601f820116820180604052508101906119659190615cd0565b905082826001600160a01b0316826001600160a01b03167fcc812fbe8760ac7f5d76dc25596b5575304a089699833975adb3e253e8c627bd60405160405180910390a492915050565b60608382146119c457633b800a465f526004601cfd5b6040519050818152602081018260051b8181016040525b8015611a1157602081039050808701358060601b679a31110384e0b0c91760205250808501355f5260405f2054818301526119db565b5050949350505050565b600d5f01546001600160a01b03163314611a48576040516330e1d31f60e21b815260040160405180910390fd5b600e546001600160a01b03828116911603611a855750600e8054600d80546001600160a01b03199081166001600160a01b03841617909155169055565b600e80546001600160a01b0319166001600160a01b0392909216919091179055565b5f611ab9611ab361336f565b84612472565b90505f611ac761038561336f565b5f85815260066020526040902054909150849003611af857604051638c9b017f60e01b815260040160405180910390fd5b81611b1657604051639db14b6d60e01b815260040160405180910390fd5b5f611b3d611b2261336f565b679a31110384e0b0c96020526014525f868152604090205490565b5f86815260046020526040902054909150611b5c90620f424090615c01565b811015611b7c5760405163ccf7064560e01b815260040160405180910390fd5b611b85856120aa565b505f85815260056020908152604080832080548251818502810185019093528083529192909190830182828015611bd957602002820191905f5260205f20905b815481526020019060010190808311611bc5575b505050505090505f611be961336f565b87604051602001611c1392919060609290921b6001600160601b0319168252601482015260340190565b6040516020818303038152906040528051906020012090505f805b8751811015611d98575f888281518110611c4a57611c4a615bae565b602002602001015190505f8a8883604051602001611c7b939291909283526020830191909152604082015260600190565b60405160208183030381529060405280519060200120905060018311611d7157815f03611ca9575050611d90565b825f03611d0957611cb861336f565b6001600160a01b03168b7fb3e6e74723822f1505c88c48c07f18300671b4b94ad78cbbb8251f079b5f97bd848a604051611cfc929190918252602082015260400190565b60405180910390a3611d5e565b611d1161336f565b6001600160a01b03168b7f943160e80d4390312ba6a6b9454170cca140ef12a38700ecba2c4493c5aeeacb848a604051611d55929190918252602082015260400190565b60405180910390a35b611d6c8b83858a858a61391a565b611d8d565b611d808b8984868e518b6139d9565b611d8a8285615cbd565b93505b50505b600101611c2e565b6003885110158015611da957508115155b8015611db757508161271014155b15611dd557604051630442bea560e31b815260040160405180910390fd5b611dde86612d1d565b6001600160a01b0316897ff20290976fc9d3610e92cfe332f5574e0b98bc2ce4ea65d33fcbdf8488fddcf28a88604051611e19929190615ceb565b60405180910390a3600f546001600160a01b03166113fc575f838152600c6020908152604080832080548251818502810185019093528083529192909190830182828015611e8457602002820191905f5260205f20905b815481526020019060010190808311611e70575b505050505090506002815110611f4957885f81518110611ea657611ea6615bae565b60200260200101515f03611eed57805f81518110611ec657611ec6615bae565b6020026020010151895f81518110611ee057611ee0615bae565b6020026020010181815250505b88600181518110611f0057611f00615bae565b60200260200101515f03611f495780600181518110611f2157611f21615bae565b602002602001015189600181518110611f3c57611f3c615bae565b6020026020010181815250505b5f848152600c602090815260409091208a51611f67928c0190614f6c565b5050505050505050505050565b5f611f7f8383612472565b611f9c5760405163148fe22160e11b815260040160405180910390fd5b611fa461336f565b6001600160a01b0316836001600160a01b031603611fd857611fd083611fc984613258565b6001613b2d565b506001610c5e565b6003546001600160a01b03166389160e0e84611ff3856123d8565b6040518363ffffffff1660e01b8152600401612010929190615b3b565b602060405180830381865afa15801561202b573d5f803e3d5ffd5b505050506040513d601f19601f8201168201806040525081019061204f9190615b54565b15905061205b82613258565b9150801561206f5761206f83836001613b2d565b60405182906001600160a01b038516907f3ac963493df564de734d98633f1145d21512e282ba4c02d3c1011119bf7f2862905f90a392915050565b5f818152600660205260408120548290036120c657505f919050565b5f82815260076020526040902080546002909101546120e59042615c6d565b6120ef9190615bd6565b9050805f036120ff57505f919050565b5f8281526007602052604090204290600201556040516834b7333630ba34b7b760b91b602082015261213990839081908490602901610cbc565b817f695f517929cb0a761ce9f28118b11060d9646bcf6668b6fc3dfb89aaddce26e48260405161216b91815260200190565b60405180910390a2919050565b600d545f906001600160a01b0316156121a45760405163bdc7d58160e01b815260040160405180910390fd5b60015460025460405163bfad25e560e01b81526001600160a01b03918216600482015291169063bd8f46f990309063bfad25e5906024016020604051808303815f875af11580156121f7573d5f803e3d5ffd5b505050506040513d601f19601f8201168201806040525081019061221b9190615c56565b6040518263ffffffff1660e01b815260040161223991815260200190565b6020604051808303815f875af1158015612255573d5f803e3d5ffd5b505050506040513d601f19601f820116820180604052508101906122799190615cd0565b600d5f0180546001600160a01b0319166001600160a01b03928316179055600354604080516301abf02960e51b81529051919092169163357e0520916004808301925f92919082900301818387803b1580156122d3575f80fd5b505af11580156122e5573d5f803e3d5ffd5b505050507ff890fc28c3f9900b0f626f2dbd8913e1cb84a7d771c3ca70f19ac3ed52cfde12600d5f6002811061231d5761231d615bae565b01546040516001600160a01b03909116815260200160405180910390a150600d546001600160a01b031690565b5f818152600760205260408120815b015492915050565b5f61236b83613153565b90505f5b81518110156123a35761239b82828151811061238d5761238d615bae565b602002602001015184610c64565b60010161236f565b80156123b3576123b38484610c64565b50505050565b600d81600281106123c8575f80fd5b01546001600160a01b0316905081565b5f81815260086020526040812081612359565b5f806123f684613153565b90505f805b82518110156124685780600184516124139190615c6d565b61241d9190615c6d565b915082828151811061243157612431615bae565b602002602001015195508560065f8881526020019081526020015f205403156124685761245e8587610cd4565b94506001016123fb565b5092949350505050565b5f6001612482846102c985613258565b10610c5e57506001610c5e565b6011805461076890615b03565b5f818152600560209081526040918290208054835181840281018401909452808452606093928301828280156124ef57602002820191905f5260205f20905b8154815260200190600101908083116124db575b50505050509050919050565b5f8061250683613153565b9050600191505b80518210156125445761253881838151811061252b5761252b615bae565b6020026020010151612553565b5081600101915061250d565b61254d836120aa565b50610d48835b5f8181526006602052604081205480820361258157604051636d9430a960e11b815260040160405180910390fd5b5f8181526006602052604090205481900361259e57505f92915050565b6125a7816120aa565b50604080516020808201869052818301849052825180830384018152606090920190925280519101205f6125f86125dd84612d1d565b679a31110384e0b0c96020526014525f848152604090205490565b5f838152600a60205260409020909150600101546126169042615c6d565b5f838152600a602052604090205461262e9190615bd6565b93508084111561263c578093505b5f828152600a60205260409020429060010155620186a0841061273c576126a861266584612d1d565b61266e87612d1d565b8587604051602001612694906d3932b234b9ba3934b13aba34b7b760911b8152600e0190565b604051602081830303815290604052613b84565b6126b46125dd86612d1d565b5f86815260046020526040902054101561273c5761273c6126d486612d1d565b5f87815260046020526040902054879061270b6126f083612d1d565b679a31110384e0b0c96020526014525f888152604090205490565b6127159190615c6d565b604051721c99591a5cdd1c9a589d5d1a5bdb97db5a5b9d606a1b6020820152603301610cbc565b505050919050565b604051633ac4266d60e11b815260040160405180910390fd5b612765614fb1565b61276e83613b92565b90506001600160a01b03821615610c5e57679a31110384e0b0c960205260148290525f83815260409020546127a79061344b565b61344b565b815161012001525f6127c2846001600160a01b038516615cbd565b5f8181526009602052604090205490915015612819575f818152600960205260408120805461281192906127f8576127f8615bae565b5f918252602090912001546001600160a01b0316613e9b565b825161014001525b61282284611408565b60c08301525092915050565b5f816001600160a01b03163b5f0361285957604051637dc5186f60e01b815260040160405180910390fd5b506001600160a01b0381165f818152600660205260409020541561289057604051633293a2cf60e01b815260040160405180910390fd5b61289a818261354e565b5f8081546128a790615ca5565b9091555060405181907f4bc7a1fd073ebdf928da09f58ed29b779ed99b26bddee327e87d0be21af8594f905f90a2919050565b5f8281526006602052604081205481036129075760405163bd23392760e01b815260040160405180910390fd5b5f83815260066020526040902054831461292a576129258284610cd4565b61292c565b815b905061294061293961336f565b8484613b2d565b5f8381526006602052604090205483146129f9573063f242432a61296385612d1d565b61296b61336f565b60065f8881526020019081526020015f2054856040516020016129989063313ab93760e11b815260040190565b6040516020818303038152906040526040518663ffffffff1660e01b81526004016129c7959493929190615d0c565b5f604051808303815f87803b1580156129de575f80fd5b505af11580156129f0573d5f803e3d5ffd5b50505050610c5e565b5f600b5f612a0686612d1d565b6001600160a01b0316815260208101919091526040015f205415612a5557600b5f612a3086612d1d565b6001600160a01b03166001600160a01b031681526020019081526020015f2054612a80565b5f8052600b6020527fdf7de25b7f1fd6d0b5205f0e18f1f35bd7b8d84cce336588d184533ce43a6f76545b9050612a8c8184615c01565b90505f612a998285615c6d565b9050808411612abb576040516337b936ed60e11b815260040160405180910390fd5b612ac485612d1d565b60025460405163a9059cbb60e01b81526001600160a01b039283169263a9059cbb92612af7929116908690600401615b3b565b6020604051808303815f875af1158015612b13573d5f803e3d5ffd5b505050506040513d601f19601f82011682018060405250810190612b379190615b54565b8015612bbb5750612b4785612d1d565b6001600160a01b031663a9059cbb612b5d61336f565b836040518363ffffffff1660e01b8152600401612b7b929190615b3b565b6020604051808303815f875af1158015612b97573d5f803e3d5ffd5b505050506040513d601f19601f82011682018060405250810190612bbb9190615b54565b612bd857604051632ebc317760e21b815260040160405180910390fd5b505092915050565b5f818152600660205260408120548103612c0257612c0061064783612d1d565b505b612c13612c0d61336f565b83612472565b158015612c2d57505f828152600660205260409020548214155b15612c4b5760405163148fe22160e11b815260040160405180910390fd5b5f82815260046020526040902054600101612c7957604051630cf32f7560e21b815260040160405180910390fd5b5f808154612c8690615ca5565b90915550612c98633b9aca0044615d50565b5f54612ca44285615c6d565b612cae9190615c6d565b612cb89190615c6d565b9050612cce612cc682612d1d565b306001613eb1565b612cd8818361354e565b333014612cea57612cea61094561336f565b6040513390839083907f907e845f974b1e16735c498eca2c72acd8c3d61c86675d4cab952054450ee358905f90a4919050565b5f6001600160a01b038211612d325781610c5e565b5f92915050565b5f818152600960209081526040808320805482518185028101850190935280835260609493830182828015612d9557602002820191905f5260205f20905b81546001600160a01b03168152600190910190602001808311612d77575b5050505050905080516001600160401b03811115612db557612db56151c7565b604051908082528060200260200182016040528015612dde578160200160208202803683370190505b5091505f5b81518110156118bc575f6001600160a01b0316828281518110612e0857612e08615bae565b60200260200101516001600160a01b03160315612e98575f612e46838381518110612e3557612e35615bae565b60200260200101516102c987613258565b10612e9857818181518110612e5d57612e5d615bae565b6020026020010151838281518110612e7757612e77615bae565b60200260200101906001600160a01b031690816001600160a01b0316815250505b600101612de3565b5f828152600660205260408120549003612ecd5760405163bd23392760e01b815260040160405180910390fd5b5f612ed783613153565b90505f805b8251811015612f79578060018451612ef49190615c6d565b612efe9190615c6d565b915083612f27612f0c61336f565b679a31110384e0b0c96020526014525f878152604090205490565b1015612f4657604051632f72e11160e21b815260040160405180910390fd5b612f5085856128da565b9350828281518110612f6457612f64615bae565b60200260200101519450806001019050612edc565b50612f8484846128da565b5050505050565b60125460ff1615613008576130088686612fb8876040805180820190915260018152602081019190915290565b60408051808201909152600181526020810188905286868080601f0160208091040260200160405190810160405280939291908181526020018383808284375f9201919091525061365692505050565b8560601b679a31110384e0b0c9178560601b679a31110384e0b0c917816020528160601c97508060601c9650866130465763ea553b345f526004601cfd5b87331461306757335f526034600c205461306757634b6e7f185f526004601cfd5b855f5260405f2091508154808611156130875763f4d678b85f526004601cfd5b8581038355508060205260405f2091508154858101818110156130b1576301336cea5f526004601cfd5b909255505060208390528486335f80516020615f8983398151915260405fa4843b1561314b5760405163f23a6e61815233602082015286604082015284606082015283608082015260a080820152816020016020840360c08301376020818360c401601c84015f8a5af161312d573d1561312d573d5f823e3d81fd5b805163f23a6e6160e01b1461314957639c05499b5f526004601cfd5b505b505050505050565b5f818152600660205260409020546060906001905b613173846001615cbd565b81106131ad575f8181526006602052604090205481146131ad5761319682615ca5565b5f9182526006602052604090912054909150613168565b816001600160401b038111156131c5576131c56151c7565b6040519080825280602002602001820160405280156131ee578160200160208202803683370190505b5092505f90505b818110156118bc575f848152600660205260409020548360016132188486615c6d565b6132229190615c6d565b8151811061323257613232615bae565b6020908102919091018101919091525f94855260069052604090932054926001016131f5565b5f6804e1003b28d928000082111561327c57610c5e678ac7230489e8000083615d50565b5090565b6001600160a01b0382165f81815260096020526040902054606091906001600160401b038111156132b3576132b36151c7565b6040519080825280602002602001820160405280156132ec57816020015b6132d9614fb1565b8152602001906001900390816132d15790505b5091505f5b5f82815260096020526040902054811015612bd8575f828152600960205260409020805461334a91613344918490811061332d5761332d615bae565b5f918252602090912001546001600160a01b031690565b8561275d565b83828151811061335c5761335c615bae565b60209081029190910101526001016132f1565b600f545f906001600160a01b0316156133925750600f546001600160a01b031690565b6002546001600160a01b031633036133a957503090565b503390565b5f8181526009602090815260408220805460018101825590835291200180546001600160a01b0319166001600160a01b038416179055613412826133f183613258565b6040516906d656d626572736869760b41b6020820152600190602a01610cbc565b60405181906001600160a01b038416907fbab4562ae868d1765ed8452e98bba908a974596c4babc3ada5e90e05e3f433fb905f90a35050565b60605f61345783613f09565b60010190505f816001600160401b03811115613475576134756151c7565b6040519080825280601f01601f19166020018201604052801561349f576020820181803683370190505b5090508181016020015b5f19016f181899199a1a9b1b9c1cb0b131b232b360811b600a86061a8153600a85049450846134a957509392505050565b6134e684848484613fe0565b5f8381526004602052604081208054849290613503908490615cbd565b909155505060405182815283906001600160a01b038616907f25b428dfde728ccfaddad7e29e4ac23c24ed7fd1a6e3e3f91894a9a073f5dfff9060200160405180910390a350505050565b5f828152600660205260409020541561357a5760405163731918fb60e11b815260040160405180910390fd5b5f828152600660205260409020819055818114610cd0575f81815260056020908152604082208054600181018255908352908220018390556009906135be83613153565b5f815181106135cf576135cf615bae565b602002602001015181526020019081526020015f206135ed83612d1d565b8154600180820184555f938452602080852090920180546001600160a01b0319166001600160a01b0394909416939093179092558483526004905260409091205401613637575050565b505f90815260076020526040902064e8d4a51000815542600290910155565b6304ed360560e51b5f356001600160e01b0319160115612f84575f5b808451111561314b575f84828151811061368e5761368e615bae565b602002602001015190505f8483815181106136ab576136ab615bae565b602002602001015190505f6001600160a01b0316886001600160a01b0316141580156136df57506001600160a01b03871615155b80156136f657505f82815260066020526040902054155b156137145760405163ce2d28e160e01b815260040160405180910390fd5b678ac7230489e800008210156137d3575f356001600160e01b031916630d78d0c160e01b14158061375757505f356001600160e01b031916630312c9fb60e51b14155b8061377457505f356001600160e01b031916630af1b55b60e41b14155b8061379157505f356001600160e01b03191663114b6e4960e01b14155b806137ae57505f356001600160e01b03191663bfad25e560e01b14155b6137cb57604051630dbd110f60e21b815260040160405180910390fd5b505050612f84565b5f356001600160e01b031916630d9778e560e11b148061380457505f356001600160e01b03191663791ddaf960e01b145b1561390b575f828152600660205260409020548290036138c05761382782612d1d565b6040516323b872dd60e01b81526001600160a01b0389811660048301523060248301526044820184905291909116906323b872dd906064016020604051808303815f875af115801561387b573d5f803e3d5ffd5b505050506040513d601f19601f8201168201806040525081019061389f9190615b54565b6138bb5760405162916a1960e51b815260040160405180910390fd5b61390b565b6012805460ff191690556138fd6138d561336f565b6138de84612d1d565b5f85815260066020526040812054908590610710906001903681615d63565b6012805460ff191660011790555b5050600101613672565b6113fe565b841561314b57604080516020808201899052818301889052825180830384018152606090920183528151918101919091205f858152600a90925291902060010154420361397a5760405163d445b7c360e01b815260040160405180910390fd5b845f03613995576139908784838988878b6140c5565b6139a4565b6139a48784838988878b6142a7565b50505f908152600a60209081526040808320426001918201556005835290832080549182018155835291200192909255505050565b6139e4600283615c6d565b815114613a0457604051631b9103a360e11b815260040160405180910390fd5b5f858783613a13600288615c6d565b81518110613a2357613a23615bae565b6020026020010151604051602001613a3d93929190615c80565b60408051808303601f1901815291815281516020928301205f818152600a90935291205490915061271086118015613a73575080155b15613a7f57505061314b565b612710861115613aa25760405163bb82191f60e01b815260040160405180910390fd5b8581141580613abb5750600f546001600160a01b031615155b156113fe57858114613adf575f828152600a60205260409020868155426001909101555b613afe83613aee600288615c6d565b8151811061252b5761252b615bae565b506113fe83613b0e600288615c6d565b81518110613b1e57613b1e615bae565b6020026020010151898461443c565b613b388383836145a7565b6001600160a01b0383165f908152600460205260409020546001111580613b7057505f356001600160e01b031916635b4a26ed60e01b145b15613b7a57505050565b61114a8284610dc6565b612f845f8686868686614654565b613b9a614fb1565b613ba38261344b565b8151525f828152600760205260408120613bbf915b015461344b565b815160200152613bd46127a2610d0184612d1d565b815160400152613be96127a26125dd84612d1d565b815160600152613c026127a2836105ad611b2282612d1d565b815160800152613c1b6127a2836105ad6109b982612d1d565b815160a001525f828152600860205260408120613c3791613bb8565b815160c001525f828152600660209081526040808320548151808401879052808301829052825180820384018152606090910183528051908401208452600a90925290912054613c8a916127a2916123eb565b815160e001525f828152600760205260409020613ca8906002613bb8565b815161010001526040805180820182526001808252600360fc1b6020808401829052855161012001939093528351808501855291825281830152835161014001525f84815260049091522054613cfd9061344b565b815161016001526003545f8381526008602052604090819020549051631ba2a35b60e31b815260048101919091526001600160a01b039091169063dd151ad8906024015f60405180830381865afa158015613d5a573d5f803e3d5ffd5b505050506040513d5f823e601f3d908101601f19168201604052613d819190810190615e33565b604001516020820152613d9382612d39565b60408201526001546009905f90613db49085906001600160a01b0316615cbd565b81526020019081526020015f20805480602002602001604051908101604052809291908181526020018280548015613e1357602002820191905f5260205f20905b81546001600160a01b03168152600190910190602001808311613df5575b505050505060808201525f828152600560209081526040918290208054835181840281018401909452808452613e7b9392830182828015613e7157602002820191905f5260205f20905b815481526020019060010190808311613e5d575b505050505061478a565b6060820152613e91613e8c83613153565b61478a565b60a0820152919050565b6060610c5e6001600160a01b0383166014614835565b8015159050679a31110384e0b0c960205282601452815f52806034600c2055805f525f1960601c8281168482167f17307eab39ab6107e8899845ad3d59bd9653f200f220920489ca2b5937696c3160205fa350505050565b5f8072184f03e93ff9f4daa797ed6e38ed64bf6a1f0160401b8310613f475772184f03e93ff9f4daa797ed6e38ed64bf6a1f0160401b830492506040015b6d04ee2d6d415b85acef81000000008310613f73576d04ee2d6d415b85acef8100000000830492506020015b662386f26fc100008310613f9157662386f26fc10000830492506010015b6305f5e1008310613fa9576305f5e100830492506008015b6127108310613fbd57612710830492506004015b60648310613fcf576064830492506002015b600a8310610c5e5760010192915050565b60125460ff1615614028576140285f8561400d866040805180820190915260018152602081019190915290565b60408051808201909152600181526020810187905285613656565b8360601b8061403e5763ea553b345f526004601cfd5b679a31110384e0b0c960205284601452835f5260405f2080548481018181101561406f576301336cea5f526004601cfd5b808355505050826020528060601c5f335f80516020615f8983398151915260405fa4506140b1565b6040805180820190915260018152602081018790526123b3565b833b156123b3576123b35f858585856149ce565b6001600160a01b038410806141495750600354604051631ba2a35b60e31b8152600481018690526001600160a01b039091169063dd151ad8906024015f60405180830381865afa15801561411b573d5f803e3d5ffd5b505050506040513d5f823e601f3d908101601f191682016040526141429190810190615e33565b6040015151155b1561416757604051639cd2c44760e01b815260040160405180910390fd5b6141768686868686868d614a58565b5f87815260046020908152604080832054888452600a9092529091205461419e906002615bd6565b1115613149576003546040516350885bc560e01b8152600481018990525f916001600160a01b0316906350885bc5906024016040805180830381865afa1580156141ea573d5f803e3d5ffd5b505050506040513d601f19601f8201168201806040525081019061420e9190615f47565b5090508061422f5760405163a74ab56560e01b815260040160405180910390fd5b5f88815260086020526040812089917fe48aa5e298e92f05c7b7489cb783dd272acece1ed2b7aae5007022513a99761191015460408051918252602082018990520160405180910390a2604080518082018252868152426020808301919091525f8b81526008909152919091206113fc91600261501c565b6142b68686868686868d614a58565b5f87815260046020908152604080832054888452600a909252909120546142de906002615bd6565b1115613149576003546040516350885bc560e01b8152600481018990525f916001600160a01b0316906350885bc5906024016040805180830381865afa15801561432a573d5f803e3d5ffd5b505050506040513d601f19601f8201168201806040525081019061434e9190615f47565b5090508061436f5760405163a74ab56560e01b815260040160405180910390fd5b614378886120aa565b505f8881526007602052604090205488907f0ad1727523f8a97d260a40299bd81a21bbcdb605a771d1390f8fa163b2632caf906143b988633b9aca00615bd6565b6040805192835260208301919091520160405180910390a25f888152600760205260409020546143f89089906143f388633b9aca00615bd6565b614c53565b604051806060016040528086633b9aca006144139190615bd6565b81524260208083018290526040928301919091525f8b81526007909152206113fc916003615049565b604080516020808201869052818301859052825180830384018152606090920183528151918101919091205f848152600a90925291812054614484908690869061039f61336f565b5f848152600a60205260409020909150600101544210156144b85760405163d445b7c360e01b815260040160405180910390fd5b5f828152600a602052604080822054858352912060020154106144e8575f828152600a6020526040812055614517565b5f838152600a602052604080822060020154848352908220805491929091614511908490615c6d565b90915550505b5f828152600a602052604081208054839290614534908490615cbd565b90915550505f84815260076020526040812001545f838152600a602052604081200154111561457c575f84815260076020526040812001545f838152600a6020526040812001555b5f918252600a6020526040808320426001918201819055948452922091820192909255600201555050565b5f82815260046020526040812080548392906145c4908490615c6d565b90915550505f82815260066020526040902054821080156145ec5750678ac7230489e8000082115b1561460d576145fa826120aa565b5061114a61460661336f565b8383614e6e565b614618838383614e6e565b81836001600160a01b03167f23ff0e75edf108e3d0392d92e13e8c8a868ef19001bd49f9e94876dc46dff87f8360405161104e91815260200190565b60125460ff161561468157614681858561400d866040805180820190915260018152602081019190915290565b8460601b8460601b8061469b5763ea553b345f526004601cfd5b81679a31110384e0b0c9176020528760601b8281148115176146d157885f526034600c20546146d157634b6e7f185f526004601cfd5b50845f5260405f208054808611156146f05763f4d678b85f526004601cfd5b8590039055679a31110384e0b0c9811760205260405f20805480860181811015614721576301336cea5f526004601cfd5b808355505050836020528060601c8260601c335f80516020615f8983398151915260405fa4505061474f5f90565b15614776576147768585614097866040805180820190915260018152602081019190915290565b833b1561314b5761314b85858585856149ce565b60605f82516001600160401b038111156147a6576147a66151c7565b6040519080825280602002602001820160405280156147d957816020015b60608152602001906001900390816147c45790505b5090505f5b835181101561482e576148098482815181106147fc576147fc615bae565b602002602001015161344b565b82828151811061481b5761481b615bae565b60209081029190910101526001016147de565b5092915050565b60605f614843836002615bd6565b61484e906002615cbd565b6001600160401b03811115614865576148656151c7565b6040519080825280601f01601f19166020018201604052801561488f576020820181803683370190505b509050600360fc1b815f815181106148a9576148a9615bae565b60200101906001600160f81b03191690815f1a905350600f60fb1b816001815181106148d7576148d7615bae565b60200101906001600160f81b03191690815f1a9053505f6148f9846002615bd6565b614904906001615cbd565b90505b600181111561497b576f181899199a1a9b1b9c1cb0b131b232b360811b85600f166010811061493857614938615bae565b1a60f81b82828151811061494e5761494e615bae565b60200101906001600160f81b03191690815f1a90535060049490941c9361497481615f73565b9050614907565b508315610d485760405162461bcd60e51b815260206004820181905260248201527f537472696e67733a20686578206c656e67746820696e73756666696369656e74604482015260640160405180910390fd5b60405163f23a6e6181523360208201528560601b60601c604082015283606082015282608082015260a08082015281518060c08301528015614a1a578060e08301826020860160045afa505b6020828260c401601c85015f8a5af1614a3b573d15614a3b573d5f833e3d82fd5b50805163f23a6e6160e01b1461314b57639c05499b5f526004601cfd5b5f878152600a602052604090206001015415614ace575f878152600a6020526040812060020154118015614a9a57505f878152600a6020526040812060010154115b15614ace575f878152600a602052604080822060020154888352908220805491929091614ac8908490615c6d565b90915550505b5f838152600c6020526040902054821015614bf2575f838152600c60205260408120805484908110614b0257614b02615bae565b905f5260205f2001549050858114614bf057600a5f83614b2061336f565b84604051602001614b519392919092835260609190911b6001600160601b0319166020830152603482015260540190565b6040516020818303038152906040528051906020012081526020019081526020015f20600260038110614b8657614b86615bae565b0154600a5f8484604051602001614ba7929190918252602082015260400190565b6040516020818303038152906040528051906020012081526020019081526020015f205f60038110614bdb57614bdb615bae565b015f828254614bea9190615c6d565b90915550505b505b60408051606081018252868152426020808301919091528183018790525f8a8152600a90915291909120614c27916003615049565b505f868152600a602052604081208054869290614c45908490615cbd565b909155505050505050505050565b5f83815260056020908152604080832080548251818502810185019093528083529192909190830182828015614ca657602002820191905f5260205f20905b815481526020019060010190808311614c92575b5050505050905080515f03614cbb5750505050565b5f805b8251811015614d82575f838281518110614cda57614cda615bae565b602002602001015187604051602001614cfd929190918252602082015260400190565b60408051808303601f1901815291815281516020928301205f818152600a909352912054909150614d2e8185615cbd565b9350633b9aca00811115614d7857614d5185848151811061252b5761252b615bae565b505f87614d5e8884615bd6565b614d689190615c01565b5f848152600a6020526040902055505b5050600101614cbe565b5063773594008110158015614dbf57505f85815260076020526040902054614daf90633b9aca0090615c01565b614dbd633b9aca0083615c01565b105b15614e2c575f614dfd614dd187612d1d565b5f88815260066020526040902054679a31110384e0b0c96020526014919091525f908152604090205490565b5f87815260046020526040902054614e159190615c6d565b9050614e2a614e2387612d1d565b8783613b2d565b505b604080518581526020810185905286917f0ad1727523f8a97d260a40299bd81a21bbcdb605a771d1390f8fa163b2632caf910160405180910390a25050505050565b61114a5f84848460125460ff1615614ecb57614ecb835f614ea2856040805180820190915260018152602081019190915290565b60408051808201909152600181526020810186905260405180602001604052805f815250613656565b8260601b80679a31110384e0b0c917602052808560601b148560601b1517614f0757845f526034600c2054614f0757634b6e7f185f526004601cfd5b825f5260405f20805480841115614f255763f4d678b85f526004601cfd5b83810382555050816020525f8160601c335f80516020615f8983398151915260405fa4506123b3565b60405180604001604052806002906020820280368337509192915050565b828054828255905f5260205f20908101928215614fa5579160200282015b82811115614fa5578251825591602001919060010190614f8a565b5061327c929150615076565b6040518060e00160405280614fc461508a565b815260200160608152602001606081526020016060815260200160608152602001606081526020016150176040518060800160405280606081526020016060815260200160608152602001606081525090565b905290565b8260028101928215614fa55791602002820182811115614fa5578251825591602001919060010190614f8a565b8260038101928215614fa55791602002820182811115614fa5578251825591602001919060010190614f8a565b5b8082111561327c575f8155600101615077565b604051806101800160405280600c905b606081526020019060019003908161509a5790505090565b6001600160a01b038116811461094b575f80fd5b5f80604083850312156150d7575f80fd5b82356150e2816150b2565b946020939093013593505050565b5f60208284031215615100575f80fd5b81356001600160e01b031981168114610d48575f80fd5b5f81518084528060208401602086015e5f602082860101526020601f19601f83011685010191505092915050565b602081525f610d486020830184615117565b5f60208284031215615167575f80fd5b5035919050565b5f6020828403121561517e575f80fd5b8135610d48816150b2565b5f805f806080858703121561519c575f80fd5b84359350602085013592506040850135915060608501356151bc816150b2565b939692955090935050565b634e487b7160e01b5f52604160045260245ffd5b604051608081016001600160401b03811182821017156151fd576151fd6151c7565b60405290565b604051601f8201601f191681016001600160401b038111828210171561522b5761522b6151c7565b604052919050565b5f6001600160401b0382111561524b5761524b6151c7565b5060051b60200190565b5f82601f830112615264575f80fd5b8135602061527961527483615233565b615203565b8083825260208201915060208460051b87010193508684111561529a575f80fd5b602086015b848110156152b6578035835291830191830161529f565b509695505050505050565b5f6001600160401b038211156152d9576152d96151c7565b50601f01601f191660200190565b5f82601f8301126152f6575f80fd5b8135615304615274826152c1565b818152846020838601011115615318575f80fd5b816020850160208301375f918101602001919091529392505050565b5f805f805f60a08688031215615348575f80fd5b853594506020808701356001600160401b0380821115615366575f80fd5b818901915089601f830112615379575f80fd5b813561538761527482615233565b81815260059190911b8301840190848101908c8311156153a5575f80fd5b938501935b828510156153cc5784356153bd816150b2565b825293850193908501906153aa565b9850505060408901359250808311156153e3575f80fd5b6153ef8a848b01615255565b95506060890135925080831115615404575f80fd5b5050615412888289016152e7565b95989497509295608001359392505050565b5f815180845260208085019450602084015f5b8381101561545357815187529582019590820190600101615437565b509495945050505050565b602081525f610d486020830184615424565b5f8060408385031215615481575f80fd5b50508035926020909101359150565b5f80604083850312156154a1575f80fd5b8235915060208301356154b3816150b2565b809150509250929050565b5f805f606084860312156154d0575f80fd5b83356154db816150b2565b92506020840135915060408401356154f2816150b2565b809150509250925092565b5f8083601f84011261550d575f80fd5b5081356001600160401b03811115615523575f80fd5b6020830191508360208260051b850101111561553d575f80fd5b9250929050565b5f8083601f840112615554575f80fd5b5081356001600160401b0381111561556a575f80fd5b60208301915083602082850101111561553d575f80fd5b5f805f805f805f8060a0898b031215615598575f80fd5b88356155a3816150b2565b975060208901356155b3816150b2565b965060408901356001600160401b03808211156155ce575f80fd5b6155da8c838d016154fd565b909850965060608b01359150808211156155f2575f80fd5b6155fe8c838d016154fd565b909650945060808b0135915080821115615616575f80fd5b506156238b828c01615544565b999c989b5096995094979396929594505050565b5f815180845260208085019450602084015f5b838110156154535781516001600160a01b03168752958201959082019060010161564a565b5f815180845260208085019450602084015f5b83811015615453578151875f5b60028110156156ac5782518252918501919085019060010161568f565b5050506040969096019590820190600101615682565b5f8151608084526156d66080850182615637565b9050602080840151858303828701526156ef838261566f565b92505060408401518583036040870152615709838261566f565b925050606084015185830360608701528281518085528385019150838160051b86010184840193505f5b8281101561578657868203601f190184528451805180845290870190878401905f5b8181101561577157835183529289019291890191600101615755565b50509587019594870194925050600101615733565b5098975050505050505050565b602081525f610d4860208301846156c2565b5f805f80604085870312156157b8575f80fd5b84356001600160401b03808211156157ce575f80fd5b6157da888389016154fd565b909650945060208701359150808211156157f2575f80fd5b506157ff878288016154fd565b95989497509550505050565b5f806040838503121561581c575f80fd5b8235915060208301356001600160401b03811115615838575f80fd5b61584485828601615255565b9150509250929050565b801515811461094b575f80fd5b5f806040838503121561586c575f80fd5b8235615877816150b2565b915060208301356154b38161584e565b5f826101808101835f5b600c8110156158c05783830387526158aa838351615117565b6020978801979093509190910190600101615891565b509095945050505050565b5f8282518085526020808601955060208260051b840101602086015f5b8481101561591657601f19868403018952615904838351615117565b988401989250908301906001016158e8565b5090979650505050505050565b5f815160e0845261593760e0850182615887565b9050602083015184820360208601526159508282615117565b9150506040830151848203604086015261596a8282615637565b9150506060830151848203606086015261598482826158cb565b9150506080830151848203608086015261599e8282615637565b91505060a083015184820360a08601526159b882826158cb565b91505060c083015184820360c08601526159d282826156c2565b95945050505050565b602081525f610d486020830184615923565b5f80604083850312156159fe575f80fd5b8235615a09816150b2565b915060208301356154b3816150b2565b602081525f610d486020830184615637565b5f805f805f8060a08789031215615a40575f80fd5b8635615a4b816150b2565b95506020870135615a5b816150b2565b9450604087013593506060870135925060808701356001600160401b03811115615a83575f80fd5b615a8f89828a01615544565b979a9699509497509295939492505050565b5f60208083016020845280855180835260408601915060408160051b8701019250602087015f5b82811015615af657603f19888603018452615ae4858351615923565b94509285019290850190600101615ac8565b5092979650505050505050565b600181811c90821680615b1757607f821691505b602082108103615b3557634e487b7160e01b5f52602260045260245ffd5b50919050565b6001600160a01b03929092168252602082015260400190565b5f60208284031215615b64575f80fd5b8151610d488161584e565b7f68747470733a2f2f77696c6c77652e78797a2f6d657461646174612f0000000081525f82518060208501601c85015e5f9201601c0191825250919050565b634e487b7160e01b5f52603260045260245ffd5b634e487b7160e01b5f52601160045260245ffd5b8082028115828204841417610c5e57610c5e615bc2565b634e487b7160e01b5f52601260045260245ffd5b5f82615c0f57615c0f615bed565b500490565b606081525f615c266060830186615637565b8281036020840152615c388186615424565b90508281036040840152615c4c8185615117565b9695505050505050565b5f60208284031215615c66575f80fd5b5051919050565b81810381811115610c5e57610c5e615bc2565b60609390931b6001600160601b03191683526014830191909152603482015260540190565b5f60018201615cb657615cb6615bc2565b5060010190565b80820180821115610c5e57610c5e615bc2565b5f60208284031215615ce0575f80fd5b8151610d48816150b2565b604081525f615cfd6040830185615424565b90508260208301529392505050565b6001600160a01b03868116825285166020820152604081018490526060810183905260a0608082018190525f90615d4590830184615117565b979650505050505050565b5f82615d5e57615d5e615bed565b500690565b5f8085851115615d71575f80fd5b83861115615d7d575f80fd5b5050820193919092039150565b5f82601f830112615d99575f80fd5b81516020615da961527483615233565b8083825260208201915060208460051b870101935086841115615dca575f80fd5b602086015b848110156152b65780518352918301918301615dcf565b5f82601f830112615df5575f80fd5b8151615e03615274826152c1565b818152846020838601011115615e17575f80fd5b8160208501602083015e5f918101602001919091529392505050565b5f6020808385031215615e44575f80fd5b82516001600160401b0380821115615e5a575f80fd5b9084019060808287031215615e6d575f80fd5b615e756151db565b825182811115615e83575f80fd5b8301601f81018813615e93575f80fd5b8051615ea161527482615233565b81815260059190911b8201860190868101908a831115615ebf575f80fd5b928701925b82841015615ee6578351615ed7816150b2565b82529287019290870190615ec4565b84525050508284015182811115615efb575f80fd5b615f0788828601615d8a565b85830152506040830151935081841115615f1f575f80fd5b615f2b87858501615de6565b6040820152606083015160608201528094505050505092915050565b5f8060408385031215615f58575f80fd5b8251615f638161584e565b6020939093015192949293505050565b5f81615f8157615f81615bc2565b505f19019056fec3d58168c5ae7397731d063d5bbf3d657854427343f4c083240f7aacaa2d0f62a26469706673582212204fa324a586c11d7bf0d0b4638e7ad25441fd5c34e52b117a5a1e9af7ef2ab27e64736f6c63430008190033",
        "linkReferences": {}
    },
    "methodIdentifiers": {
        "Will()": "535e9891",
        "allMembersOf(uint256)": "eef2e757",
        "asRootValuation(uint256,uint256)": "7f33d800",
        "balanceOf(address,uint256)": "00fdd58e",
        "balanceOfBatch(address[],uint256[])": "4e1273f4",
        "burn(uint256,uint256)": "b390c0ab",
        "burnPath(uint256,uint256)": "f039a733",
        "calculateUserTargetedPreferenceAmount(uint256,uint256,uint256,address)": "0ffd3910",
        "control(uint256)": "7d11e682",
        "createEndpointForOwner(uint256,address)": "45bbbf84",
        "executionAddress()": "78adc790",
        "getAllNodesForRoot(address,address)": "f87cc6b3",
        "getAllSignalsOfNode(uint256)": "30f9b165",
        "getChildrenOf(uint256)": "99f45689",
        "getFidPath(uint256)": "f6355a56",
        "getMembraneOf(uint256)": "7e44bffe",
        "getNodeData(uint256,address)": "a6bfbc20",
        "getParentOf(uint256)": "13e75206",
        "getUserNodeSignals(address,uint256)": "150d503d",
        "inParentDenomination(uint256,uint256)": "1e9b388d",
        "inflationOf(uint256)": "765063e5",
        "initSelfControl()": "68dc2747",
        "isApprovedForAll(address,address)": "e985e9c5",
        "isMember(address,uint256)": "85752d03",
        "localizeEndpoint(address,uint256,address)": "28ca8e26",
        "membershipEnforce(address,uint256)": "62593f60",
        "membershipID(uint256)": "f77914c3",
        "mint(uint256,uint256)": "1b2ef1ca",
        "mintInflation(uint256)": "67c394fb",
        "mintMembership(uint256)": "0d78d0c1",
        "mintPath(uint256,uint256)": "791ddaf9",
        "name()": "06fdde03",
        "options(bytes32,uint256)": "20f94427",
        "redistribute(uint256)": "a0ce552d",
        "redistributePath(uint256)": "a0762253",
        "resignal(uint256,address)": "1fae703b",
        "safeBatchTransferFrom(address,address,uint256[],uint256[],bytes)": "2eb2c2d6",
        "safeTransferFrom(address,address,uint256,uint256,bytes)": "f242432a",
        "sendSignal(uint256,uint256[])": "5b4a26ed",
        "setApprovalForAll(address,bool)": "a22cb465",
        "setControl(address)": "5ac8260c",
        "spawnNode(uint256)": "bfad25e5",
        "spawnNodeWithMembrane(uint256,address[],uint256[],string,uint256)": "114b6e49",
        "spawnRootNode(address)": "af1b55b0",
        "supportsInterface(bytes4)": "01ffc9a7",
        "symbol()": "95d89b41",
        "taxPolicyPreference(address,uint256)": "1f017841",
        "toAddress(uint256)": "e0051aa9",
        "toID(address)": "0f336348",
        "totalSupply(uint256)": "bd85b039",
        "uri(uint256)": "0e89341c"
    },
    "storageLayout": {
        "storage": [
            {
                "astId": 53222,
                "contract": "src/WillWe.sol:WillWe",
                "label": "entityCount",
                "offset": 0,
                "slot": "0",
                "type": "t_uint256"
            },
            {
                "astId": 53224,
                "contract": "src/WillWe.sol:WillWe",
                "label": "executionAddress",
                "offset": 0,
                "slot": "1",
                "type": "t_address"
            },
            {
                "astId": 53226,
                "contract": "src/WillWe.sol:WillWe",
                "label": "Will",
                "offset": 0,
                "slot": "2",
                "type": "t_address"
            },
            {
                "astId": 53229,
                "contract": "src/WillWe.sol:WillWe",
                "label": "M",
                "offset": 0,
                "slot": "3",
                "type": "t_contract(IMembrane)57193"
            },
            {
                "astId": 53234,
                "contract": "src/WillWe.sol:WillWe",
                "label": "totalSupplyOf",
                "offset": 0,
                "slot": "4",
                "type": "t_mapping(t_uint256,t_uint256)"
            },
            {
                "astId": 53240,
                "contract": "src/WillWe.sol:WillWe",
                "label": "childrenOf",
                "offset": 0,
                "slot": "5",
                "type": "t_mapping(t_uint256,t_array(t_uint256)dyn_storage)"
            },
            {
                "astId": 53245,
                "contract": "src/WillWe.sol:WillWe",
                "label": "parentOf",
                "offset": 0,
                "slot": "6",
                "type": "t_mapping(t_uint256,t_uint256)"
            },
            {
                "astId": 53252,
                "contract": "src/WillWe.sol:WillWe",
                "label": "inflSec",
                "offset": 0,
                "slot": "7",
                "type": "t_mapping(t_uint256,t_array(t_uint256)3_storage)"
            },
            {
                "astId": 53259,
                "contract": "src/WillWe.sol:WillWe",
                "label": "inUseMembraneId",
                "offset": 0,
                "slot": "8",
                "type": "t_mapping(t_uint256,t_array(t_uint256)2_storage)"
            },
            {
                "astId": 53265,
                "contract": "src/WillWe.sol:WillWe",
                "label": "members",
                "offset": 0,
                "slot": "9",
                "type": "t_mapping(t_uint256,t_array(t_address)dyn_storage)"
            },
            {
                "astId": 53272,
                "contract": "src/WillWe.sol:WillWe",
                "label": "options",
                "offset": 0,
                "slot": "10",
                "type": "t_mapping(t_bytes32,t_array(t_uint256)3_storage)"
            },
            {
                "astId": 53277,
                "contract": "src/WillWe.sol:WillWe",
                "label": "taxRate",
                "offset": 0,
                "slot": "11",
                "type": "t_mapping(t_address,t_uint256)"
            },
            {
                "astId": 53283,
                "contract": "src/WillWe.sol:WillWe",
                "label": "userNodeSignals",
                "offset": 0,
                "slot": "12",
                "type": "t_mapping(t_bytes32,t_array(t_uint256)dyn_storage)"
            },
            {
                "astId": 53287,
                "contract": "src/WillWe.sol:WillWe",
                "label": "control",
                "offset": 0,
                "slot": "13",
                "type": "t_array(t_address)2_storage"
            },
            {
                "astId": 53289,
                "contract": "src/WillWe.sol:WillWe",
                "label": "impersonatingAddress",
                "offset": 0,
                "slot": "15",
                "type": "t_address"
            },
            {
                "astId": 53291,
                "contract": "src/WillWe.sol:WillWe",
                "label": "name",
                "offset": 0,
                "slot": "16",
                "type": "t_string_storage"
            },
            {
                "astId": 53293,
                "contract": "src/WillWe.sol:WillWe",
                "label": "symbol",
                "offset": 0,
                "slot": "17",
                "type": "t_string_storage"
            },
            {
                "astId": 53295,
                "contract": "src/WillWe.sol:WillWe",
                "label": "useBefore",
                "offset": 0,
                "slot": "18",
                "type": "t_bool"
            }
        ],
        "types": {
            "t_address": {
                "encoding": "inplace",
                "label": "address",
                "numberOfBytes": "20"
            },
            "t_array(t_address)2_storage": {
                "encoding": "inplace",
                "label": "address[2]",
                "numberOfBytes": "64",
                "base": "t_address"
            },
            "t_array(t_address)dyn_storage": {
                "encoding": "dynamic_array",
                "label": "address[]",
                "numberOfBytes": "32",
                "base": "t_address"
            },
            "t_array(t_uint256)2_storage": {
                "encoding": "inplace",
                "label": "uint256[2]",
                "numberOfBytes": "64",
                "base": "t_uint256"
            },
            "t_array(t_uint256)3_storage": {
                "encoding": "inplace",
                "label": "uint256[3]",
                "numberOfBytes": "96",
                "base": "t_uint256"
            },
            "t_array(t_uint256)dyn_storage": {
                "encoding": "dynamic_array",
                "label": "uint256[]",
                "numberOfBytes": "32",
                "base": "t_uint256"
            },
            "t_bool": {
                "encoding": "inplace",
                "label": "bool",
                "numberOfBytes": "1"
            },
            "t_bytes32": {
                "encoding": "inplace",
                "label": "bytes32",
                "numberOfBytes": "32"
            },
            "t_contract(IMembrane)57193": {
                "encoding": "inplace",
                "label": "contract IMembrane",
                "numberOfBytes": "20"
            },
            "t_mapping(t_address,t_uint256)": {
                "encoding": "mapping",
                "key": "t_address",
                "label": "mapping(address => uint256)",
                "numberOfBytes": "32",
                "value": "t_uint256"
            },
            "t_mapping(t_bytes32,t_array(t_uint256)3_storage)": {
                "encoding": "mapping",
                "key": "t_bytes32",
                "label": "mapping(bytes32 => uint256[3])",
                "numberOfBytes": "32",
                "value": "t_array(t_uint256)3_storage"
            },
            "t_mapping(t_bytes32,t_array(t_uint256)dyn_storage)": {
                "encoding": "mapping",
                "key": "t_bytes32",
                "label": "mapping(bytes32 => uint256[])",
                "numberOfBytes": "32",
                "value": "t_array(t_uint256)dyn_storage"
            },
            "t_mapping(t_uint256,t_array(t_address)dyn_storage)": {
                "encoding": "mapping",
                "key": "t_uint256",
                "label": "mapping(uint256 => address[])",
                "numberOfBytes": "32",
                "value": "t_array(t_address)dyn_storage"
            },
            "t_mapping(t_uint256,t_array(t_uint256)2_storage)": {
                "encoding": "mapping",
                "key": "t_uint256",
                "label": "mapping(uint256 => uint256[2])",
                "numberOfBytes": "32",
                "value": "t_array(t_uint256)2_storage"
            },
            "t_mapping(t_uint256,t_array(t_uint256)3_storage)": {
                "encoding": "mapping",
                "key": "t_uint256",
                "label": "mapping(uint256 => uint256[3])",
                "numberOfBytes": "32",
                "value": "t_array(t_uint256)3_storage"
            },
            "t_mapping(t_uint256,t_array(t_uint256)dyn_storage)": {
                "encoding": "mapping",
                "key": "t_uint256",
                "label": "mapping(uint256 => uint256[])",
                "numberOfBytes": "32",
                "value": "t_array(t_uint256)dyn_storage"
            },
            "t_mapping(t_uint256,t_uint256)": {
                "encoding": "mapping",
                "key": "t_uint256",
                "label": "mapping(uint256 => uint256)",
                "numberOfBytes": "32",
                "value": "t_uint256"
            },
            "t_string_storage": {
                "encoding": "bytes",
                "label": "string",
                "numberOfBytes": "32"
            },
            "t_uint256": {
                "encoding": "inplace",
                "label": "uint256",
                "numberOfBytes": "32"
            }
        }
    },
    "id": 64
}