{"abi":[{"type":"constructor","inputs":[{"name":"Execution","type":"address","internalType":"address"},{"name":"Membrane","type":"address","internalType":"address"}],"stateMutability":"nonpayable"},{"type":"function","name":"Will","inputs":[],"outputs":[{"name":"","type":"address","internalType":"address"}],"stateMutability":"view"},{"type":"function","name":"allMembersOf","inputs":[{"name":"fid_","type":"uint256","internalType":"uint256"}],"outputs":[{"name":"membersOf","type":"address[]","internalType":"address[]"}],"stateMutability":"view"},{"type":"function","name":"asRootValuation","inputs":[{"name":"target_","type":"uint256","internalType":"uint256"},{"name":"amount","type":"uint256","internalType":"uint256"}],"outputs":[{"name":"","type":"uint256","internalType":"uint256"}],"stateMutability":"view"},{"type":"function","name":"balanceOf","inputs":[{"name":"owner","type":"address","internalType":"address"},{"name":"id","type":"uint256","internalType":"uint256"}],"outputs":[{"name":"result","type":"uint256","internalType":"uint256"}],"stateMutability":"view"},{"type":"function","name":"balanceOfBatch","inputs":[{"name":"owners","type":"address[]","internalType":"address[]"},{"name":"ids","type":"uint256[]","internalType":"uint256[]"}],"outputs":[{"name":"balances","type":"uint256[]","internalType":"uint256[]"}],"stateMutability":"view"},{"type":"function","name":"burn","inputs":[{"name":"fid_","type":"uint256","internalType":"uint256"},{"name":"amount_","type":"uint256","internalType":"uint256"}],"outputs":[{"name":"topVal","type":"uint256","internalType":"uint256"}],"stateMutability":"nonpayable"},{"type":"function","name":"burnPath","inputs":[{"name":"target_","type":"uint256","internalType":"uint256"},{"name":"amount","type":"uint256","internalType":"uint256"}],"outputs":[],"stateMutability":"nonpayable"},{"type":"function","name":"calculateUserTargetedPreferenceAmount","inputs":[{"name":"childId","type":"uint256","internalType":"uint256"},{"name":"parentId","type":"uint256","internalType":"uint256"},{"name":"signal","type":"uint256","internalType":"uint256"},{"name":"user","type":"address","internalType":"address"}],"outputs":[{"name":"","type":"uint256","internalType":"uint256"}],"stateMutability":"view"},{"type":"function","name":"control","inputs":[{"name":"","type":"uint256","internalType":"uint256"}],"outputs":[{"name":"","type":"address","internalType":"address"}],"stateMutability":"view"},{"type":"function","name":"createEndpointForOwner","inputs":[{"name":"nodeId_","type":"uint256","internalType":"uint256"},{"name":"owner","type":"address","internalType":"address"}],"outputs":[{"name":"endpointAddress","type":"address","internalType":"address"}],"stateMutability":"nonpayable"},{"type":"function","name":"executionAddress","inputs":[],"outputs":[{"name":"","type":"address","internalType":"address"}],"stateMutability":"view"},{"type":"function","name":"getAllNodesForRoot","inputs":[{"name":"rootAddress","type":"address","internalType":"address"},{"name":"userIfAny","type":"address","internalType":"address"}],"outputs":[{"name":"nodes","type":"tuple[]","internalType":"struct NodeState[]","components":[{"name":"basicInfo","type":"string[12]","internalType":"string[12]"},{"name":"membraneMeta","type":"string","internalType":"string"},{"name":"membersOfNode","type":"address[]","internalType":"address[]"},{"name":"childrenNodes","type":"string[]","internalType":"string[]"},{"name":"movementEndpoints","type":"address[]","internalType":"address[]"},{"name":"rootPath","type":"string[]","internalType":"string[]"},{"name":"nodeSignals","type":"tuple","internalType":"struct AllNodeSignals","components":[{"name":"signalers","type":"address[]","internalType":"address[]"},{"name":"inflationSignals","type":"uint256[2][]","internalType":"uint256[2][]"},{"name":"membraneSignals","type":"uint256[2][]","internalType":"uint256[2][]"},{"name":"redistributionSignals","type":"uint256[][]","internalType":"uint256[][]"}]}]}],"stateMutability":"view"},{"type":"function","name":"getAllSignalsOfNode","inputs":[{"name":"nodeId","type":"uint256","internalType":"uint256"}],"outputs":[{"name":"all","type":"tuple","internalType":"struct AllNodeSignals","components":[{"name":"signalers","type":"address[]","internalType":"address[]"},{"name":"inflationSignals","type":"uint256[2][]","internalType":"uint256[2][]"},{"name":"membraneSignals","type":"uint256[2][]","internalType":"uint256[2][]"},{"name":"redistributionSignals","type":"uint256[][]","internalType":"uint256[][]"}]}],"stateMutability":"view"},{"type":"function","name":"getChangePrevalence","inputs":[{"name":"nodeId_","type":"uint256","internalType":"uint256"},{"name":"signal_","type":"uint256","internalType":"uint256"}],"outputs":[{"name":"","type":"uint256","internalType":"uint256"}],"stateMutability":"view"},{"type":"function","name":"getChildrenOf","inputs":[{"name":"fid_","type":"uint256","internalType":"uint256"}],"outputs":[{"name":"","type":"uint256[]","internalType":"uint256[]"}],"stateMutability":"view"},{"type":"function","name":"getFidPath","inputs":[{"name":"fid_","type":"uint256","internalType":"uint256"}],"outputs":[{"name":"fids","type":"uint256[]","internalType":"uint256[]"}],"stateMutability":"view"},{"type":"function","name":"getMembraneOf","inputs":[{"name":"fid_","type":"uint256","internalType":"uint256"}],"outputs":[{"name":"","type":"uint256","internalType":"uint256"}],"stateMutability":"view"},{"type":"function","name":"getNodeData","inputs":[{"name":"nodeId","type":"uint256","internalType":"uint256"},{"name":"user","type":"address","internalType":"address"}],"outputs":[{"name":"nodeData","type":"tuple","internalType":"struct NodeState","components":[{"name":"basicInfo","type":"string[12]","internalType":"string[12]"},{"name":"membraneMeta","type":"string","internalType":"string"},{"name":"membersOfNode","type":"address[]","internalType":"address[]"},{"name":"childrenNodes","type":"string[]","internalType":"string[]"},{"name":"movementEndpoints","type":"address[]","internalType":"address[]"},{"name":"rootPath","type":"string[]","internalType":"string[]"},{"name":"nodeSignals","type":"tuple","internalType":"struct AllNodeSignals","components":[{"name":"signalers","type":"address[]","internalType":"address[]"},{"name":"inflationSignals","type":"uint256[2][]","internalType":"uint256[2][]"},{"name":"membraneSignals","type":"uint256[2][]","internalType":"uint256[2][]"},{"name":"redistributionSignals","type":"uint256[][]","internalType":"uint256[][]"}]}]}],"stateMutability":"view"},{"type":"function","name":"getNodes","inputs":[{"name":"nodeIds","type":"uint256[]","internalType":"uint256[]"}],"outputs":[{"name":"nodes","type":"tuple[]","internalType":"struct NodeState[]","components":[{"name":"basicInfo","type":"string[12]","internalType":"string[12]"},{"name":"membraneMeta","type":"string","internalType":"string"},{"name":"membersOfNode","type":"address[]","internalType":"address[]"},{"name":"childrenNodes","type":"string[]","internalType":"string[]"},{"name":"movementEndpoints","type":"address[]","internalType":"address[]"},{"name":"rootPath","type":"string[]","internalType":"string[]"},{"name":"nodeSignals","type":"tuple","internalType":"struct AllNodeSignals","components":[{"name":"signalers","type":"address[]","internalType":"address[]"},{"name":"inflationSignals","type":"uint256[2][]","internalType":"uint256[2][]"},{"name":"membraneSignals","type":"uint256[2][]","internalType":"uint256[2][]"},{"name":"redistributionSignals","type":"uint256[][]","internalType":"uint256[][]"}]}]}],"stateMutability":"view"},{"type":"function","name":"getParentOf","inputs":[{"name":"fid_","type":"uint256","internalType":"uint256"}],"outputs":[{"name":"","type":"uint256","internalType":"uint256"}],"stateMutability":"view"},{"type":"function","name":"getUserNodeSignals","inputs":[{"name":"user_","type":"address","internalType":"address"},{"name":"node_","type":"uint256","internalType":"uint256"}],"outputs":[{"name":"","type":"uint256[]","internalType":"uint256[]"}],"stateMutability":"view"},{"type":"function","name":"inParentDenomination","inputs":[{"name":"amt_","type":"uint256","internalType":"uint256"},{"name":"id_","type":"uint256","internalType":"uint256"}],"outputs":[{"name":"inParentVal","type":"uint256","internalType":"uint256"}],"stateMutability":"view"},{"type":"function","name":"inflationOf","inputs":[{"name":"nodeId","type":"uint256","internalType":"uint256"}],"outputs":[{"name":"","type":"uint256","internalType":"uint256"}],"stateMutability":"view"},{"type":"function","name":"initSelfControl","inputs":[],"outputs":[{"name":"","type":"address","internalType":"address"}],"stateMutability":"nonpayable"},{"type":"function","name":"isApprovedForAll","inputs":[{"name":"owner","type":"address","internalType":"address"},{"name":"operator","type":"address","internalType":"address"}],"outputs":[{"name":"result","type":"bool","internalType":"bool"}],"stateMutability":"view"},{"type":"function","name":"isMember","inputs":[{"name":"whoabout_","type":"address","internalType":"address"},{"name":"whereabout_","type":"uint256","internalType":"uint256"}],"outputs":[{"name":"","type":"bool","internalType":"bool"}],"stateMutability":"view"},{"type":"function","name":"localizeEndpoint","inputs":[{"name":"endpoint_","type":"address","internalType":"address"},{"name":"endpointParent_","type":"uint256","internalType":"uint256"},{"name":"owner_","type":"address","internalType":"address"}],"outputs":[],"stateMutability":"nonpayable"},{"type":"function","name":"membershipEnforce","inputs":[{"name":"target","type":"address","internalType":"address"},{"name":"fid_","type":"uint256","internalType":"uint256"}],"outputs":[{"name":"s","type":"bool","internalType":"bool"}],"stateMutability":"nonpayable"},{"type":"function","name":"membershipID","inputs":[{"name":"fid_","type":"uint256","internalType":"uint256"}],"outputs":[{"name":"","type":"uint256","internalType":"uint256"}],"stateMutability":"pure"},{"type":"function","name":"mint","inputs":[{"name":"fid_","type":"uint256","internalType":"uint256"},{"name":"amount_","type":"uint256","internalType":"uint256"}],"outputs":[],"stateMutability":"nonpayable"},{"type":"function","name":"mintInflation","inputs":[{"name":"node","type":"uint256","internalType":"uint256"}],"outputs":[{"name":"amount","type":"uint256","internalType":"uint256"}],"stateMutability":"nonpayable"},{"type":"function","name":"mintMembership","inputs":[{"name":"fid_","type":"uint256","internalType":"uint256"}],"outputs":[],"stateMutability":"nonpayable"},{"type":"function","name":"mintPath","inputs":[{"name":"target_","type":"uint256","internalType":"uint256"},{"name":"amount_","type":"uint256","internalType":"uint256"}],"outputs":[],"stateMutability":"nonpayable"},{"type":"function","name":"name","inputs":[],"outputs":[{"name":"","type":"string","internalType":"string"}],"stateMutability":"view"},{"type":"function","name":"options","inputs":[{"name":"NodeXUserXValue","type":"bytes32","internalType":"bytes32"},{"name":"","type":"uint256","internalType":"uint256"}],"outputs":[{"name":"valueAtTime","type":"uint256","internalType":"uint256"}],"stateMutability":"view"},{"type":"function","name":"redistribute","inputs":[{"name":"nodeId_","type":"uint256","internalType":"uint256"}],"outputs":[{"name":"distributedAmt","type":"uint256","internalType":"uint256"}],"stateMutability":"nonpayable"},{"type":"function","name":"redistributePath","inputs":[{"name":"nodeId_","type":"uint256","internalType":"uint256"}],"outputs":[{"name":"distributedAmt","type":"uint256","internalType":"uint256"}],"stateMutability":"nonpayable"},{"type":"function","name":"resignal","inputs":[{"name":"targetNode_","type":"uint256","internalType":"uint256"},{"name":"originator","type":"address","internalType":"address"}],"outputs":[],"stateMutability":"nonpayable"},{"type":"function","name":"safeBatchTransferFrom","inputs":[{"name":"from","type":"address","internalType":"address"},{"name":"to","type":"address","internalType":"address"},{"name":"ids","type":"uint256[]","internalType":"uint256[]"},{"name":"amounts","type":"uint256[]","internalType":"uint256[]"},{"name":"data","type":"bytes","internalType":"bytes"}],"outputs":[],"stateMutability":"nonpayable"},{"type":"function","name":"safeTransferFrom","inputs":[{"name":"from","type":"address","internalType":"address"},{"name":"to","type":"address","internalType":"address"},{"name":"id","type":"uint256","internalType":"uint256"},{"name":"amount","type":"uint256","internalType":"uint256"},{"name":"data","type":"bytes","internalType":"bytes"}],"outputs":[],"stateMutability":"nonpayable"},{"type":"function","name":"sendSignal","inputs":[{"name":"targetNode_","type":"uint256","internalType":"uint256"},{"name":"signals","type":"uint256[]","internalType":"uint256[]"}],"outputs":[],"stateMutability":"nonpayable"},{"type":"function","name":"setApprovalForAll","inputs":[{"name":"operator","type":"address","internalType":"address"},{"name":"isApproved","type":"bool","internalType":"bool"}],"outputs":[],"stateMutability":"nonpayable"},{"type":"function","name":"setControl","inputs":[{"name":"newController","type":"address","internalType":"address"}],"outputs":[],"stateMutability":"nonpayable"},{"type":"function","name":"spawnNode","inputs":[{"name":"fid_","type":"uint256","internalType":"uint256"}],"outputs":[{"name":"newID","type":"uint256","internalType":"uint256"}],"stateMutability":"nonpayable"},{"type":"function","name":"spawnNodeWithMembrane","inputs":[{"name":"fid_","type":"uint256","internalType":"uint256"},{"name":"tokens_","type":"address[]","internalType":"address[]"},{"name":"balances_","type":"uint256[]","internalType":"uint256[]"},{"name":"meta_","type":"string","internalType":"string"},{"name":"inflationRate_","type":"uint256","internalType":"uint256"}],"outputs":[{"name":"newID","type":"uint256","internalType":"uint256"}],"stateMutability":"nonpayable"},{"type":"function","name":"spawnRootNode","inputs":[{"name":"fungible20_","type":"address","internalType":"address"}],"outputs":[{"name":"fID","type":"uint256","internalType":"uint256"}],"stateMutability":"nonpayable"},{"type":"function","name":"supportsInterface","inputs":[{"name":"interfaceId","type":"bytes4","internalType":"bytes4"}],"outputs":[{"name":"result","type":"bool","internalType":"bool"}],"stateMutability":"view"},{"type":"function","name":"symbol","inputs":[],"outputs":[{"name":"","type":"string","internalType":"string"}],"stateMutability":"view"},{"type":"function","name":"taxPolicyPreference","inputs":[{"name":"rootToken_","type":"address","internalType":"address"},{"name":"taxRate_","type":"uint256","internalType":"uint256"}],"outputs":[],"stateMutability":"nonpayable"},{"type":"function","name":"toAddress","inputs":[{"name":"x","type":"uint256","internalType":"uint256"}],"outputs":[{"name":"","type":"address","internalType":"address"}],"stateMutability":"pure"},{"type":"function","name":"toID","inputs":[{"name":"x","type":"address","internalType":"address"}],"outputs":[{"name":"","type":"uint256","internalType":"uint256"}],"stateMutability":"pure"},{"type":"function","name":"totalSupply","inputs":[{"name":"nodeId","type":"uint256","internalType":"uint256"}],"outputs":[{"name":"","type":"uint256","internalType":"uint256"}],"stateMutability":"view"},{"type":"function","name":"uri","inputs":[{"name":"id_","type":"uint256","internalType":"uint256"}],"outputs":[{"name":"","type":"string","internalType":"string"}],"stateMutability":"view"},{"type":"event","name":"ApprovalForAll","inputs":[{"name":"owner","type":"address","indexed":true,"internalType":"address"},{"name":"operator","type":"address","indexed":true,"internalType":"address"},{"name":"isApproved","type":"bool","indexed":false,"internalType":"bool"}],"anonymous":false},{"type":"event","name":"Burned","inputs":[{"name":"fromAddressOrNode","type":"address","indexed":true,"internalType":"address"},{"name":"nodeId","type":"uint256","indexed":true,"internalType":"uint256"},{"name":"amount","type":"uint256","indexed":false,"internalType":"uint256"}],"anonymous":false},{"type":"event","name":"CreatedEndpoint","inputs":[{"name":"endpoint","type":"address","indexed":true,"internalType":"address"},{"name":"owner","type":"address","indexed":true,"internalType":"address"},{"name":"nodeId","type":"uint256","indexed":true,"internalType":"uint256"}],"anonymous":false},{"type":"event","name":"InflationRateChanged","inputs":[{"name":"nodeId","type":"uint256","indexed":true,"internalType":"uint256"},{"name":"oldInflationRate","type":"uint256","indexed":false,"internalType":"uint256"},{"name":"newInflationRate","type":"uint256","indexed":false,"internalType":"uint256"}],"anonymous":false},{"type":"event","name":"InflationSignal","inputs":[{"name":"nodeId","type":"uint256","indexed":true,"internalType":"uint256"},{"name":"origin","type":"address","indexed":true,"internalType":"address"},{"name":"inflationRate","type":"uint256","indexed":false,"internalType":"uint256"},{"name":"strength","type":"uint256","indexed":false,"internalType":"uint256"}],"anonymous":false},{"type":"event","name":"MemberRemoved","inputs":[{"name":"userAddress","type":"address","indexed":true,"internalType":"address"},{"name":"nodeId","type":"uint256","indexed":true,"internalType":"uint256"}],"anonymous":false},{"type":"event","name":"MembershipMinted","inputs":[{"name":"who","type":"address","indexed":true,"internalType":"address"},{"name":"nodeId","type":"uint256","indexed":true,"internalType":"uint256"}],"anonymous":false},{"type":"event","name":"MembraneChanged","inputs":[{"name":"nodeId","type":"uint256","indexed":true,"internalType":"uint256"},{"name":"previousMembrane","type":"uint256","indexed":false,"internalType":"uint256"},{"name":"newMembrane","type":"uint256","indexed":false,"internalType":"uint256"}],"anonymous":false},{"type":"event","name":"MembraneSignal","inputs":[{"name":"nodeId","type":"uint256","indexed":true,"internalType":"uint256"},{"name":"origin","type":"address","indexed":true,"internalType":"address"},{"name":"membraneId","type":"uint256","indexed":false,"internalType":"uint256"},{"name":"strength","type":"uint256","indexed":false,"internalType":"uint256"}],"anonymous":false},{"type":"event","name":"Minted","inputs":[{"name":"fromAddressOrNode","type":"address","indexed":true,"internalType":"address"},{"name":"nodeId","type":"uint256","indexed":true,"internalType":"uint256"},{"name":"amount","type":"uint256","indexed":false,"internalType":"uint256"}],"anonymous":false},{"type":"event","name":"NewNode","inputs":[{"name":"newId","type":"uint256","indexed":true,"internalType":"uint256"},{"name":"parentId","type":"uint256","indexed":true,"internalType":"uint256"},{"name":"creator","type":"address","indexed":true,"internalType":"address"}],"anonymous":false},{"type":"event","name":"NewRootNode","inputs":[{"name":"rootNodeId","type":"uint256","indexed":true,"internalType":"uint256"}],"anonymous":false},{"type":"event","name":"Resignaled","inputs":[{"name":"sender","type":"address","indexed":true,"internalType":"address"},{"name":"nodeId","type":"uint256","indexed":true,"internalType":"uint256"},{"name":"origin","type":"address","indexed":false,"internalType":"address"}],"anonymous":false},{"type":"event","name":"SelfControlAtAddress","inputs":[{"name":"AgencyLocus","type":"address","indexed":false,"internalType":"address"}],"anonymous":false},{"type":"event","name":"SharesGenerated","inputs":[{"name":"nodeId","type":"uint256","indexed":true,"internalType":"uint256"},{"name":"amount","type":"uint256","indexed":false,"internalType":"uint256"}],"anonymous":false},{"type":"event","name":"TransferBatch","inputs":[{"name":"operator","type":"address","indexed":true,"internalType":"address"},{"name":"from","type":"address","indexed":true,"internalType":"address"},{"name":"to","type":"address","indexed":true,"internalType":"address"},{"name":"ids","type":"uint256[]","indexed":false,"internalType":"uint256[]"},{"name":"amounts","type":"uint256[]","indexed":false,"internalType":"uint256[]"}],"anonymous":false},{"type":"event","name":"TransferSingle","inputs":[{"name":"operator","type":"address","indexed":true,"internalType":"address"},{"name":"from","type":"address","indexed":true,"internalType":"address"},{"name":"to","type":"address","indexed":true,"internalType":"address"},{"name":"id","type":"uint256","indexed":false,"internalType":"uint256"},{"name":"amount","type":"uint256","indexed":false,"internalType":"uint256"}],"anonymous":false},{"type":"event","name":"URI","inputs":[{"name":"value","type":"string","indexed":false,"internalType":"string"},{"name":"id","type":"uint256","indexed":true,"internalType":"uint256"}],"anonymous":false},{"type":"event","name":"UserNodeSignal","inputs":[{"name":"nodeId","type":"uint256","indexed":true,"internalType":"uint256"},{"name":"user","type":"address","indexed":true,"internalType":"address"},{"name":"signals","type":"uint256[]","indexed":false,"internalType":"uint256[]"},{"name":"strenght","type":"uint256","indexed":false,"internalType":"uint256"}],"anonymous":false},{"type":"error","name":"AccountBalanceOverflow","inputs":[]},{"type":"error","name":"AlreadyMember","inputs":[]},{"type":"error","name":"ArrayLengthsMismatch","inputs":[]},{"type":"error","name":"BadLen","inputs":[]},{"type":"error","name":"BaseOrNonFungible","inputs":[]},{"type":"error","name":"BurnE20TransferFailed","inputs":[]},{"type":"error","name":"CannotSkip","inputs":[]},{"type":"error","name":"Disabled","inputs":[]},{"type":"error","name":"EOA","inputs":[]},{"type":"error","name":"Endpoint","inputs":[]},{"type":"error","name":"ExecutionOnly","inputs":[]},{"type":"error","name":"IncompleteSign","inputs":[]},{"type":"error","name":"InsufficientAmt","inputs":[]},{"type":"error","name":"InsufficientBalance","inputs":[]},{"type":"error","name":"MembershipOp","inputs":[]},{"type":"error","name":"MembraneNotFound","inputs":[]},{"type":"error","name":"MintE20TransferFailed","inputs":[]},{"type":"error","name":"No","inputs":[]},{"type":"error","name":"NoControl","inputs":[]},{"type":"error","name":"NoSoup","inputs":[]},{"type":"error","name":"NoTimeDelta","inputs":[]},{"type":"error","name":"NodeAlreadyExists","inputs":[]},{"type":"error","name":"NodeNotFound","inputs":[]},{"type":"error","name":"Noise","inputs":[]},{"type":"error","name":"NoiseNotVoice","inputs":[]},{"type":"error","name":"NotMember","inputs":[]},{"type":"error","name":"NotNodeMember","inputs":[]},{"type":"error","name":"NotOwnerNorApproved","inputs":[]},{"type":"error","name":"Overreach","inputs":[]},{"type":"error","name":"ResignalMismatch","inputs":[]},{"type":"error","name":"RootExists","inputs":[]},{"type":"error","name":"SignalOverflow","inputs":[]},{"type":"error","name":"TargetIsRoot","inputs":[]},{"type":"error","name":"TransferToNonERC1155ReceiverImplementer","inputs":[]},{"type":"error","name":"TransferToZeroAddress","inputs":[]},{"type":"error","name":"Unautorised","inputs":[]},{"type":"error","name":"Unqualified","inputs":[]},{"type":"error","name":"UnregisteredFungible","inputs":[]},{"type":"error","name":"UnsoundMembership","inputs":[]},{"type":"error","name":"UnsupportedTransfer","inputs":[]},{"type":"error","name":"isControled","inputs":[]}],"bytecode":{"object":"0x608060405234801561000f575f80fd5b506040516163b03803806163b083398101604081905261002e91610201565b5f8052600b60209081526103e87fdf7de25b7f1fd6d0b5205f0e18f1f35bd7b8d84cce336588d184533ce43a6f7655600180546001600160a01b0319166001600160a01b038516908117909155604080516390ef12cd60e01b81529051859385938593859391926390ef12cd926004808401938290030181865afa1580156100b8573d5f803e3d5ffd5b505050506040513d601f19601f820116820180604052508101906100dc9190610232565b600280546001600160a01b03199081166001600160a01b03938416179091556003805490911691831691909117905560408051808201909152600a8152692bb4b6362bb2973c3cbd60b11b602082015260109061013990826102ea565b5060408051808201909152600481526315d2531360e21b602082015260119061016290826102ea565b505060128054600160ff19909116811790915580546001600160a01b0319166001600160a01b038516908117909155604051633a8f06ab60e21b815230600482015290915063ea3c1aac906024015f604051808303815f87803b1580156101c7575f80fd5b505af11580156101d9573d5f803e3d5ffd5b50505050505050506103a9565b80516001600160a01b03811681146101fc575f80fd5b919050565b5f8060408385031215610212575f80fd5b61021b836101e6565b9150610229602084016101e6565b90509250929050565b5f60208284031215610242575f80fd5b61024b826101e6565b9392505050565b634e487b7160e01b5f52604160045260245ffd5b600181811c9082168061027a57607f821691505b60208210810361029857634e487b7160e01b5f52602260045260245ffd5b50919050565b601f8211156102e557805f5260205f20601f840160051c810160208510156102c35750805b601f840160051c820191505b818110156102e2575f81556001016102cf565b50505b505050565b81516001600160401b0381111561030357610303610252565b610317816103118454610266565b8461029e565b602080601f83116001811461034a575f84156103335750858301515b5f19600386901b1c1916600185901b1785556103a1565b5f85815260208120601f198616915b8281101561037857888601518255948401946001909101908401610359565b508582101561039557878501515f19600388901b60f8161c191681555b505060018460011b0185555b505050505050565b615ffa806103b65f395ff3fe608060405234801561000f575f80fd5b5060043610610318575f3560e01c806368dc2747116101af578063a5541c84116100fe578063e985e9c51161009e578063f242432a11610079578063f242432a14610796578063f6355a56146107a9578063f77914c3146107bc578063f87cc6b3146107cf575f80fd5b8063e985e9c514610738578063eef2e75714610763578063f039a73314610783575f80fd5b8063b390c0ab116100d9578063b390c0ab146106e0578063bd85b039146106f3578063bfad25e514610712578063e0051aa914610725575f80fd5b8063a5541c841461068d578063a6bfbc20146106ad578063af1b55b0146106cd575f80fd5b80637f33d8001161016957806399f456891161014457806399f4568914610641578063a076225314610654578063a0ce552d14610667578063a22cb4651461067a575f80fd5b80637f33d8001461061357806385752d031461062657806395d89b4114610639575f80fd5b806368dc2747146105ac578063765063e5146105b457806378adc790146105c7578063791ddaf9146105da5780637d11e682146105ed5780637e44bffe14610600575f80fd5b80631f0178411161026b57806345bbbf84116102255780635ac8260c116102005780635ac8260c146105605780635b4a26ed1461057357806362593f601461058657806367c394fb14610599575f80fd5b806345bbbf841461050f5780634e1273f41461053a578063535e98911461054d575f80fd5b80631f017841146104905780631fae703b146104a357806320f94427146104b657806328ca8e26146104c95780632eb2c2d6146104dc57806330f9b165146104ef575f80fd5b80630ffd3910116102d6578063150d503d116102b1578063150d503d146104375780631a61eda6146104575780631b2ef1ca1461046a5780631e9b388d1461047d575f80fd5b80630ffd3910146103f2578063114b6e491461040557806313e7520614610418575f80fd5b8062fdd58e1461031c57806301ffc9a71461035b57806306fdde031461039b5780630d78d0c1146103b05780630e89341c146103c55780630f336348146103d8575b5f80fd5b61034861032a3660046150b3565b679a31110384e0b0c96020526014919091525f908152604090205490565b6040519081526020015b60405180910390f35b61038b6103693660046150dd565b6301ffc9a760e09190911c90811463d9b67a26821417630e89341c9091141790565b6040519015158152602001610352565b6103a36107e2565b6040516103529190615132565b6103c36103be366004615144565b61086e565b005b6103a36103d3366004615144565b6109e4565b6103486103e636600461515b565b6001600160a01b031690565b610348610400366004615176565b610a15565b610348610413366004615321565b610af5565b610348610426366004615144565b5f9081526006602052604090205490565b61044a6104453660046150b3565b610c51565b604051610352919061544b565b61034861046536600461545d565b610ce2565b6103c361047836600461545d565b610d3f565b61034861048b36600461545d565b610daf565b6103c361049e3660046150b3565b610e2a565b6103c36104b136600461547d565b610ea1565b6103486104c436600461545d565b611136565b6103c36104d73660046154ab565b611158565b6103c36104ea36600461556e565b611243565b6105026104fd366004615144565b6114fc565b6040516103529190615780565b61052261051d36600461547d565b611982565b6040516001600160a01b039091168152602001610352565b61044a610548366004615792565b611a6d565b600254610522906001600160a01b031681565b6103c361056e36600461515b565b611ada565b6103c36105813660046157f8565b611b66565b61038b6105943660046150b3565b611f37565b6103486105a7366004615144565b61207c565b61052261214a565b6103486105c2366004615144565b61231c565b600154610522906001600160a01b031681565b6103c36105e836600461545d565b612333565b6105226105fb366004615144565b61238b565b61034861060e366004615144565b6123aa565b61034861062136600461545d565b6123bd565b61038b6106343660046150b3565b612444565b6103a3612461565b61044a61064f366004615144565b61246e565b610348610662366004615144565b6124cd565b610348610675366004615144565b612525565b6103c3610688366004615848565b61267e565b6106a061069b366004615874565b612697565b60405161035291906159f9565b6106c06106bb36600461547d565b612746565b6040516103529190615a5b565b6103486106db36600461515b565b612817565b6103486106ee36600461545d565b6128c3565b610348610701366004615144565b5f9081526004602052604090205490565b610348610720366004615144565b612bd9565b610522610733366004615144565b612d16565b61038b610746366004615a6d565b679a31110384e0b0c96020526014919091525f526034600c205490565b610776610771366004615144565b612d32565b6040516103529190615a99565b6103c361079136600461545d565b612e99565b6103c36107a4366004615aab565b612f84565b61044a6107b7366004615144565b61314c565b6103486107ca366004615144565b613251565b6106a06107dd366004615a6d565b613279565b601080546107ef90615b21565b80601f016020809104026020016040519081016040528092919081815260200182805461081b90615b21565b80156108665780601f1061083d57610100808354040283529160200191610866565b820191905f5260205f20905b81548152906001019060200180831161084957829003601f168201915b505050505081565b5f81815260066020526040812054900361089b57604051634825e09360e01b815260040160405180910390fd5b5f818152600660205260409020548190036108c95760405163bd23392760e01b815260040160405180910390fd5b5f818152600460205260409020546001016108f757604051630cf32f7560e21b815260040160405180910390fd5b610908610902613368565b82612444565b15610926576040516340803a5f60e11b815260040160405180910390fd5b6003546001600160a01b03166389160e0e61093f613368565b610948846123aa565b6040516001600160e01b031960e085901b1681526001600160a01b0390921660048301526024820152604401602060405180830381865afa15801561098f573d5f803e3d5ffd5b505050506040513d601f19601f820116820180604052508101906109b39190615b53565b6109d05760405163b2cab42960e01b815260040160405180910390fd5b6109e16109db613368565b826133a7565b50565b60606109ef82613444565b6040516020016109ff9190615b6e565b6040516020818303038152906040529050919050565b5f848152600660205260408120548414610a4257604051635f12529560e01b815260040160405180910390fd5b5f610a7b610a4f86612d16565b5f87815260066020526040902054679a31110384e0b0c96020526014919091525f908152604090205490565b679a31110384e0b0c9602090815260148590525f878152604080822054600790935290205491925090633b9aca008211610aba575f9350505050610aed565b5f610ac784612710615bd5565b82610ad28986615bd5565b610adc9190615bd5565b610ae69190615c00565b9450505050505b949350505050565b60035460405163333cabc560e01b81525f9182916001600160a01b039091169063333cabc590610b2d90899089908990600401615c13565b6020604051808303815f875af1158015610b49573d5f803e3d5ffd5b505050506040513d601f19601f82011682018060405250810190610b6d9190615c55565b9050610b7887612bd9565b5f8181526008602052604090208281554260019091015591508215610baa57610ba583633b9aca00615bd5565b610bb1565b64e8d4a510005b5f8381526007602052604081200155604080515f81526020810183905283917fe48aa5e298e92f05c7b7489cb783dd272acece1ed2b7aae5007022513a997611910160405180910390a25f82815260076020526040812083917f0ad1727523f8a97d260a40299bd81a21bbcdb605a771d1390f8fa163b2632caf918101546040805192835260208301919091520160405180910390a25095945050505050565b6060600c5f8484604051602001610c69929190615c6c565b6040516020818303038152906040528051906020012081526020019081526020015f20805480602002602001604051908101604052809291908181526020018280548015610cd457602002820191905f5260205f20905b815481526020019060010190808311610cc0575b505050505090505b92915050565b5f600a5f8484604051602001610d02929190918252602082015260400190565b6040516020818303038152906040528051906020012081526020019081526020015f205f60038110610d3657610d36615bad565b01549392505050565b5f828152600660205260408120549003610d6c57604051635f12529560e01b815260040160405180910390fd5b610dab610d77613368565b8383604051602001610d97906766756e6769626c6560c01b815260080190565b6040516020818303038152906040526134d3565b5050565b5f8181526004602052604081205415610e21575f82815260046020526040902054610e08610ddc84612d16565b5f85815260066020526040902054679a31110384e0b0c96020526014919091525f908152604090205490565b610e129085615bd5565b610e1c9190615c00565b610e23565b5f5b9392505050565b600d546001600160a01b0316610e3e613368565b6001600160a01b031614610e65576040516385ea10fd60e01b815260040160405180910390fd5b60018111610e865760405163023ad70560e31b815260040160405180910390fd5b6001600160a01b039091165f908152600b6020526040902055565b5f610eac8284610c51565b90506002815111610ebc57505050565b5f356001600160e01b03191663b390c0ab60e01b1480610eed575063f039a73360e01b6001600160e01b03195f3516145b156110bb575f83815260056020908152604080832080548251818502810185019093528083529192909190830182828015610f4557602002820191905f5260205f20905b815481526020019060010190808311610f31575b50939450600293505050505b825181108015610f6b57508151610f69600283615c89565b105b156110b8575f848684610f7f600286615c89565b81518110610f8f57610f8f615bad565b6020026020010151604051602001610fa993929190615c9c565b6040516020818303038152906040528051906020012090505f83600284610fd09190615c89565b81518110610fe057610fe0615bad565b602002602001015187604051602001611003929190918252602082015260400190565b60408051808303601f1901815291815281516020928301205f858152600a909352912060020154909150156110a3575f818152600a60205260408082205484835291206002015410611062575f818152600a6020526040812055611091565b5f828152600a60205260408082206002015483835290822080549192909161108b908490615c89565b90915550505b5f828152600a60205260408120600201555b505080806110b090615cc1565b915050610f51565b50505b600f80546001600160a01b0319166001600160a01b0384161790556110e08382611b66565b600f80546001600160a01b03191690556040516001600160a01b0383168152839033907f081dd7a021608cb1e85f93c3e497da26967bb26442035ffc020ba466aed4049d906020015b60405180910390a3505050565b600a602052815f5260405f20816003811061114f575f80fd5b01549150829050565b6001546001600160a01b0316331461118357604051630fc714ab60e01b815260040160405180910390fd5b61118d8183612444565b1561122b576001600160a01b038181165f818152600960208181526040832080546001810182559084529083200180546001600160a01b031916948816949094179093559084906111de9190615cd9565b815260208082019290925260409081015f90812080546001810182559082528382200180546001600160a01b0319166001600160a01b0388169081179091558152600490925290205f1990555b61123e6001600160a01b03841683613547565b505050565b60125460ff16156112ee576112ee88888888808060200260200160405190810160405280939291908181526020018383602002808284375f9201919091525050604080516020808c0282810182019093528b82529093508b92508a9182918501908490808284375f9201919091525050604080516020601f8b0181900481028201810190925289815292508991508890819084018382808284375f9201919091525061364f92505050565b82851461130257633b800a465f526004601cfd5b8760601b679a31110384e0b0c9178760601b679a31110384e0b0c917816020528160601c99508060601c9850886113405763ea553b345f526004601cfd5b89331461136157335f526034600c205461136157634b6e7f185f526004601cfd5b8660051b5b80156113ce576020810390508087013583602052818a01355f5260405f2080548083111561139b5763f4d678b85f526004601cfd5b8290039055602083905260405f208054808301818110156113c3576301336cea5f526004601cfd5b909155506113669050565b505050604051604081528560051b602001604082018160208a03823781604001602084015281602088038383013750888a337f4a39dc06d4c0dbc64b70af90fd698a233a518aa5d07e595d983b8c0526c8f7fb60408586010186a450506114325f90565b1561144757611447888888888888888861390e565b863b156114f257865f5260405163bc197c81815233602082015288604082015260a060608201528560051b60200160c082018160208a0382378160a001806080850152826020890384840137820160a084015260208401601f19860183800183013750808101830160c401905060208282601c85015f80515af16114d3573d156114d3573d5f833e3d82fd5b50805163bc197c8160e01b146114f057639c05499b5f526004601cfd5b505b5050505050505050565b6115276040518060800160405280606081526020016060815260200160608152602001606081525090565b5f61153183612d32565b905080516001600160401b0381111561154c5761154c6151b4565b604051908082528060200260200182016040528015611575578160200160208202803683370190505b50825280516001600160401b03811115611591576115916151b4565b6040519080825280602002602001820160405280156115ca57816020015b6115b7614f3b565b8152602001906001900390816115af5790505b50602083015280516001600160401b038111156115e9576115e96151b4565b60405190808252806020026020018201604052801561162257816020015b61160f614f3b565b8152602001906001900390816116075790505b50604083015280516001600160401b03811115611641576116416151b4565b60405190808252806020026020018201604052801561167457816020015b606081526020019060019003908161165f5790505b5060608301525f5b815181101561197b575f6001600160a01b03168282815181106116a1576116a1615bad565b60200260200101516001600160a01b03160315611973575f8282815181106116cb576116cb615bad565b602002602001015190505f6116e08287610c51565b905081855f015184815181106116f8576116f8615bad565b6001600160a01b0390921660209283029190910190910152805115611970578051156117d5576040518060400160405280825f8151811061173b5761173b615bad565b60200260200101518152602001600a5f858a865f8151811061175f5761175f615bad565b602002602001015160405160200161177993929190615c9c565b6040516020818303038152906040528051906020012081526020019081526020015f206002600381106117ae576117ae615bad565b0154815250856020015184815181106117c9576117c9615bad565b60200260200101819052505b600181511115611898576040518060400160405280826001815181106117fd576117fd615bad565b60200260200101518152602001600a5f858a8660018151811061182257611822615bad565b602002602001015160405160200161183c93929190615c9c565b6040516020818303038152906040528051906020012081526020019081526020015f2060026003811061187157611871615bad565b01548152508560400151848151811061188c5761188c615bad565b60200260200101819052505b600281511115611970575f600282516118b19190615c89565b6001600160401b038111156118c8576118c86151b4565b6040519080825280602002602001820160405280156118f1578160200160208202803683370190505b50905060025b825181101561194b5782818151811061191257611912615bad565b6020026020010151826002836119289190615c89565b8151811061193857611938615bad565b60209081029190910101526001016118f7565b50808660600151858151811061196357611963615bad565b6020026020010181905250505b50505b60010161167c565b5050919050565b5f61198d8284612444565b6119aa576040516359c5ba6f60e11b815260040160405180910390fd5b6001546040516311eb232d60e21b8152336004820152602481018590526001600160a01b038481166044830152909116906347ac8cb4906064016020604051808303815f875af1158015611a00573d5f803e3d5ffd5b505050506040513d601f19601f82011682018060405250810190611a249190615cec565b905082826001600160a01b0316826001600160a01b03167fcc812fbe8760ac7f5d76dc25596b5575304a089699833975adb3e253e8c627bd60405160405180910390a492915050565b6060838214611a8357633b800a465f526004601cfd5b6040519050818152602081018260051b8181016040525b8015611ad057602081039050808701358060601b679a31110384e0b0c91760205250808501355f5260405f205481830152611a9a565b5050949350505050565b600d5f01546001600160a01b03163314611b07576040516330e1d31f60e21b815260040160405180910390fd5b600e546001600160a01b03828116911603611b445750600e8054600d80546001600160a01b03199081166001600160a01b03841617909155169055565b600e80546001600160a01b0319166001600160a01b0392909216919091179055565b5f611b78611b72613368565b84612444565b90505f611b866103e6613368565b5f85815260066020526040902054909150849003611bb757604051638c9b017f60e01b815260040160405180910390fd5b81611bd557604051639db14b6d60e01b815260040160405180910390fd5b5f611bfc611be1613368565b679a31110384e0b0c96020526014525f868152604090205490565b5f86815260046020526040902054909150611c1a9061271090615c00565b811015611c3a5760405163ccf7064560e01b815260040160405180910390fd5b611c438561207c565b505f85815260056020908152604080832080548251818502810185019093528083529192909190830182828015611c9757602002820191905f5260205f20905b815481526020019060010190808311611c83575b505050505090505f611ca7613368565b87604051602001611cb9929190615c6c565b6040516020818303038152906040528051906020012090505f805b8751811015611e3e575f888281518110611cf057611cf0615bad565b602002602001015190505f8a8883604051602001611d21939291909283526020830191909152604082015260600190565b60405160208183030381529060405280519060200120905060018311611e1757815f03611d4f575050611e36565b825f03611daf57611d5e613368565b6001600160a01b03168b7f943160e80d4390312ba6a6b9454170cca140ef12a38700ecba2c4493c5aeeacb848a604051611da2929190918252602082015260400190565b60405180910390a3611e04565b611db7613368565b6001600160a01b03168b7fb3e6e74723822f1505c88c48c07f18300671b4b94ad78cbbb8251f079b5f97bd848a604051611dfb929190918252602082015260400190565b60405180910390a35b611e128b83858a858a613913565b611e33565b611e268b8984868e518b6139d2565b611e308285615cd9565b93505b50505b600101611cd4565b6003885110158015611e4f57508115155b8015611e5d57508161271014155b15611e7b57604051630442bea560e31b815260040160405180910390fd5b611e8486612d16565b6001600160a01b0316897ff20290976fc9d3610e92cfe332f5574e0b98bc2ce4ea65d33fcbdf8488fddcf28a88604051611ebf929190615d07565b60405180910390a3600f546001600160a01b03166114f05787600c5f611ee3613368565b8c604051602001611ef5929190615c6c565b6040516020818303038152906040528051906020012081526020019081526020015f209080519060200190611f2b929190614f59565b50505050505050505050565b5f611f428383612444565b611f5f5760405163148fe22160e11b815260040160405180910390fd5b611f67613368565b6001600160a01b0316836001600160a01b031603611f9b57611f9383611f8c84613251565b6001613b26565b506001610cdc565b6003546001600160a01b03166389160e0e84611fb6856123aa565b6040516001600160e01b031960e085901b1681526001600160a01b0390921660048301526024820152604401602060405180830381865afa158015611ffd573d5f803e3d5ffd5b505050506040513d601f19601f820116820180604052508101906120219190615b53565b15905061202d82613251565b915080156120415761204183836001613b26565b60405182906001600160a01b038516907f3ac963493df564de734d98633f1145d21512e282ba4c02d3c1011119bf7f2862905f90a392915050565b5f8181526006602052604081205482900361209857505f919050565b5f82815260076020526040902080546002909101546120b79042615c89565b6120c19190615bd5565b9050805f036120d157505f919050565b5f8281526007602052604090204290600201556040516834b7333630ba34b7b760b91b602082015261210b90839081908490602901610d97565b817f695f517929cb0a761ce9f28118b11060d9646bcf6668b6fc3dfb89aaddce26e48260405161213d91815260200190565b60405180910390a2919050565b600d545f906001600160a01b0316156121765760405163bdc7d58160e01b815260040160405180910390fd5b60015460025460405163bfad25e560e01b81526001600160a01b03918216600482015291169063bd8f46f990309063bfad25e5906024016020604051808303815f875af11580156121c9573d5f803e3d5ffd5b505050506040513d601f19601f820116820180604052508101906121ed9190615c55565b6040518263ffffffff1660e01b815260040161220b91815260200190565b6020604051808303815f875af1158015612227573d5f803e3d5ffd5b505050506040513d601f19601f8201168201806040525081019061224b9190615cec565b600d5f0180546001600160a01b0319166001600160a01b03928316179055600354604080516301abf02960e51b81529051919092169163357e0520916004808301925f92919082900301818387803b1580156122a5575f80fd5b505af11580156122b7573d5f803e3d5ffd5b505050507ff890fc28c3f9900b0f626f2dbd8913e1cb84a7d771c3ca70f19ac3ed52cfde12600d5f600281106122ef576122ef615bad565b01546040516001600160a01b03909116815260200160405180910390a150600d546001600160a01b031690565b5f818152600760205260408120815b015492915050565b5f61233d8361314c565b90505f5b81518110156123755761236d82828151811061235f5761235f615bad565b602002602001015184610d3f565b600101612341565b8015612385576123858484610d3f565b50505050565b600d816002811061239a575f80fd5b01546001600160a01b0316905081565b5f8181526008602052604081208161232b565b5f806123c88461314c565b90505f805b825181101561243a5780600184516123e59190615c89565b6123ef9190615c89565b915082828151811061240357612403615bad565b602002602001015195508560065f8881526020019081526020015f2054031561243a576124308587610daf565b94506001016123cd565b5092949350505050565b5f60016124548461032a85613251565b10610cdc57506001610cdc565b601180546107ef90615b21565b5f818152600560209081526040918290208054835181840281018401909452808452606093928301828280156124c157602002820191905f5260205f20905b8154815260200190600101908083116124ad575b50505050509050919050565b5f806124d88361314c565b9050600191505b80518210156125165761250a8183815181106124fd576124fd615bad565b6020026020010151612525565b508160010191506124df565b61251f8361207c565b50610e23835b5f8181526006602052604081205480820361255357604051636d9430a960e11b815260040160405180910390fd5b5f8181526006602052604090205481900361257057505f92915050565b6125798161207c565b50604080516020808201869052818301849052825180830384018152606090920190925280519101205f6125ca6125af84612d16565b679a31110384e0b0c96020526014525f848152604090205490565b5f838152600a60205260409020909150600101546125e89042615c89565b5f838152600a60205260409020546126009190615bd5565b93508084111561260e578093505b5f828152600a6020526040902042906001015583156126765761267661263384612d16565b61263c87612d16565b8587604051602001612662906d3932b234b9ba3934b13aba34b7b760911b8152600e0190565b604051602081830303815290604052613b5f565b505050919050565b604051633ac4266d60e11b815260040160405180910390fd5b606081516001600160401b038111156126b2576126b26151b4565b6040519080825280602002602001820160405280156126eb57816020015b6126d8614f9e565b8152602001906001900390816126d05790505b5090505f5b82518110156127405761271b83828151811061270e5761270e615bad565b6020026020010151613b6d565b82828151811061272d5761272d615bad565b60209081029190910101526001016126f0565b50919050565b61274e614f9e565b61275783613b6d565b90506001600160a01b03821615610cdc57679a31110384e0b0c960205260148290525f838152604090205461279090613444565b613444565b815161012001525f6127ab846001600160a01b038516615cd9565b5f8181526009602052604090205490915015612802575f81815260096020526040812080546127fa92906127e1576127e1615bad565b5f918252602090912001546001600160a01b0316613e3f565b825161014001525b61280b846114fc565b60c08301525092915050565b5f816001600160a01b03163b5f0361284257604051637dc5186f60e01b815260040160405180910390fd5b506001600160a01b0381165f818152600660205260409020541561287957604051633293a2cf60e01b815260040160405180910390fd5b6128838182613547565b5f80815461289090615cc1565b9091555060405181907f4bc7a1fd073ebdf928da09f58ed29b779ed99b26bddee327e87d0be21af8594f905f90a2919050565b5f8281526006602052604081205481036128f05760405163bd23392760e01b815260040160405180910390fd5b5f8381526006602052604090205483146129135761290e8284610daf565b612915565b815b9050612929612922613368565b8484613b26565b5f8381526006602052604090205483146129e2573063f242432a61294c85612d16565b612954613368565b60065f8881526020019081526020015f2054856040516020016129819063313ab93760e11b815260040190565b6040516020818303038152906040526040518663ffffffff1660e01b81526004016129b0959493929190615d28565b5f604051808303815f87803b1580156129c7575f80fd5b505af11580156129d9573d5f803e3d5ffd5b50505050610cdc565b5f600b5f6129ef86612d16565b6001600160a01b0316815260208101919091526040015f205415612a3e57600b5f612a1986612d16565b6001600160a01b03166001600160a01b031681526020019081526020015f2054612a69565b5f8052600b6020527fdf7de25b7f1fd6d0b5205f0e18f1f35bd7b8d84cce336588d184533ce43a6f76545b9050612a758184615c00565b90505f612a828285615c89565b9050808411612aa4576040516337b936ed60e11b815260040160405180910390fd5b612aad85612d16565b60025460405163a9059cbb60e01b81526001600160a01b0391821660048201526024810185905291169063a9059cbb906044016020604051808303815f875af1158015612afc573d5f803e3d5ffd5b505050506040513d601f19601f82011682018060405250810190612b209190615b53565b8015612bb45750612b3085612d16565b6001600160a01b031663a9059cbb612b46613368565b6040516001600160e01b031960e084901b1681526001600160a01b039091166004820152602481018490526044016020604051808303815f875af1158015612b90573d5f803e3d5ffd5b505050506040513d601f19601f82011682018060405250810190612bb49190615b53565b612bd157604051632ebc317760e21b815260040160405180910390fd5b505092915050565b5f818152600660205260408120548103612bfb57612bf96106db83612d16565b505b612c0c612c06613368565b83612444565b158015612c2657505f828152600660205260409020548214155b15612c445760405163148fe22160e11b815260040160405180910390fd5b5f82815260046020526040902054600101612c7257604051630cf32f7560e21b815260040160405180910390fd5b5f808154612c7f90615cc1565b90915550612c91633b9aca0044615d6c565b5f54612c9d4285615c89565b612ca79190615c89565b612cb19190615c89565b9050612cc7612cbf82612d16565b306001613e55565b612cd18183613547565b333014612ce357612ce36109db613368565b6040513390839083907f907e845f974b1e16735c498eca2c72acd8c3d61c86675d4cab952054450ee358905f90a4919050565b5f6001600160a01b038211612d2b5781610cdc565b5f92915050565b5f818152600960209081526040808320805482518185028101850190935280835260609493830182828015612d8e57602002820191905f5260205f20905b81546001600160a01b03168152600190910190602001808311612d70575b5050505050905080516001600160401b03811115612dae57612dae6151b4565b604051908082528060200260200182016040528015612dd7578160200160208202803683370190505b5091505f5b815181101561197b575f6001600160a01b0316828281518110612e0157612e01615bad565b60200260200101516001600160a01b03160315612e91575f612e3f838381518110612e2e57612e2e615bad565b602002602001015161032a87613251565b10612e9157818181518110612e5657612e56615bad565b6020026020010151838281518110612e7057612e70615bad565b60200260200101906001600160a01b031690816001600160a01b0316815250505b600101612ddc565b5f828152600660205260408120549003612ec65760405163bd23392760e01b815260040160405180910390fd5b5f612ed08361314c565b90505f805b8251811015612f72578060018451612eed9190615c89565b612ef79190615c89565b915083612f20612f05613368565b679a31110384e0b0c96020526014525f878152604090205490565b1015612f3f57604051632f72e11160e21b815260040160405180910390fd5b612f4985856128c3565b9350828281518110612f5d57612f5d615bad565b60200260200101519450806001019050612ed5565b50612f7d84846128c3565b5050505050565b60125460ff1615613001576130018686612fb1876040805180820190915260018152602081019190915290565b60408051808201909152600181526020810188905286868080601f0160208091040260200160405190810160405280939291908181526020018383808284375f9201919091525061364f92505050565b8560601b679a31110384e0b0c9178560601b679a31110384e0b0c917816020528160601c97508060601c96508661303f5763ea553b345f526004601cfd5b87331461306057335f526034600c205461306057634b6e7f185f526004601cfd5b855f5260405f2091508154808611156130805763f4d678b85f526004601cfd5b8581038355508060205260405f2091508154858101818110156130aa576301336cea5f526004601cfd5b909255505060208390528486335f80516020615fa583398151915260405fa4843b156131445760405163f23a6e61815233602082015286604082015284606082015283608082015260a080820152816020016020840360c08301376020818360c401601c84015f8a5af1613126573d15613126573d5f823e3d81fd5b805163f23a6e6160e01b1461314257639c05499b5f526004601cfd5b505b505050505050565b5f818152600660205260409020546060906001905b61316c846001615cd9565b81106131a6575f8181526006602052604090205481146131a65761318f82615cc1565b5f9182526006602052604090912054909150613161565b816001600160401b038111156131be576131be6151b4565b6040519080825280602002602001820160405280156131e7578160200160208202803683370190505b5092505f90505b8181101561197b575f848152600660205260409020548360016132118486615c89565b61321b9190615c89565b8151811061322b5761322b615bad565b6020908102919091018101919091525f94855260069052604090932054926001016131ee565b5f6804e1003b28d928000082111561327557610cdc678ac7230489e8000083615d6c565b5090565b6001600160a01b0382165f81815260096020526040902054606091906001600160401b038111156132ac576132ac6151b4565b6040519080825280602002602001820160405280156132e557816020015b6132d2614f9e565b8152602001906001900390816132ca5790505b5091505f5b5f82815260096020526040902054811015612bd1575f82815260096020526040902080546133439161333d918490811061332657613326615bad565b5f918252602090912001546001600160a01b031690565b85612746565b83828151811061335557613355615bad565b60209081029190910101526001016132ea565b600f545f906001600160a01b03161561338b5750600f546001600160a01b031690565b6002546001600160a01b031633036133a257503090565b503390565b5f8181526009602090815260408220805460018101825590835291200180546001600160a01b0319166001600160a01b03841617905561340b826133ea83613251565b6040516906d656d626572736869760b41b6020820152600190602a01610d97565b60405181906001600160a01b038416907fbab4562ae868d1765ed8452e98bba908a974596c4babc3ada5e90e05e3f433fb905f90a35050565b60605f61345083613ead565b60010190505f816001600160401b0381111561346e5761346e6151b4565b6040519080825280601f01601f191660200182016040528015613498576020820181803683370190505b5090508181016020015b5f19016f181899199a1a9b1b9c1cb0b131b232b360811b600a86061a8153600a85049450846134a257509392505050565b6134df84848484613f84565b5f83815260046020526040812080548492906134fc908490615cd9565b909155505060405182815283906001600160a01b038616907f25b428dfde728ccfaddad7e29e4ac23c24ed7fd1a6e3e3f91894a9a073f5dfff9060200160405180910390a350505050565b5f82815260066020526040902054156135735760405163731918fb60e11b815260040160405180910390fd5b5f828152600660205260409020819055818114610dab575f81815260056020908152604082208054600181018255908352908220018390556009906135b78361314c565b5f815181106135c8576135c8615bad565b602002602001015181526020019081526020015f206135e683612d16565b8154600180820184555f938452602080852090920180546001600160a01b0319166001600160a01b0394909416939093179092558483526004905260409091205401613630575050565b505f90815260076020526040902064e8d4a51000815542600290910155565b6304ed360560e51b5f356001600160e01b0319160115612f7d575f5b8084511115613144575f84828151811061368757613687615bad565b602002602001015190505f8483815181106136a4576136a4615bad565b602002602001015190505f6001600160a01b0316886001600160a01b0316141580156136d857506001600160a01b03871615155b80156136ef57505f82815260066020526040902054155b1561370d5760405163ce2d28e160e01b815260040160405180910390fd5b678ac7230489e800008210156137cc575f356001600160e01b031916630d78d0c160e01b14158061375057505f356001600160e01b031916630312c9fb60e51b14155b8061376d57505f356001600160e01b031916630af1b55b60e41b14155b8061378a57505f356001600160e01b03191663114b6e4960e01b14155b806137a757505f356001600160e01b03191663bfad25e560e01b14155b6137c457604051630dbd110f60e21b815260040160405180910390fd5b505050612f7d565b5f356001600160e01b031916630d9778e560e11b14806137fd57505f356001600160e01b03191663791ddaf960e01b145b15613904575f828152600660205260409020548290036138b95761382082612d16565b6040516323b872dd60e01b81526001600160a01b0389811660048301523060248301526044820184905291909116906323b872dd906064016020604051808303815f875af1158015613874573d5f803e3d5ffd5b505050506040513d601f19601f820116820180604052508101906138989190615b53565b6138b45760405162916a1960e51b815260040160405180910390fd5b613904565b6012805460ff191690556138f66138ce613368565b6138d784612d16565b5f858152600660205260408120549085906107a4906001903681615d7f565b6012805460ff191660011790555b505060010161366b565b6114f2565b841561314457604080516020808201899052818301889052825180830384018152606090920183528151918101919091205f858152600a9092529190206001015442036139735760405163d445b7c360e01b815260040160405180910390fd5b845f0361398e576139898784838988878b614069565b61399d565b61399d8784838988878b61424b565b50505f908152600a60209081526040808320426001918201556005835290832080549182018155835291200192909255505050565b6139dd600283615c89565b8151146139fd57604051631b9103a360e11b815260040160405180910390fd5b5f858783613a0c600288615c89565b81518110613a1c57613a1c615bad565b6020026020010151604051602001613a3693929190615c9c565b60408051808303601f1901815291815281516020928301205f818152600a90935291205490915061271086118015613a6c575080155b15613a78575050613144565b612710861115613a9b5760405163bb82191f60e01b815260040160405180910390fd5b8581141580613ab45750600f546001600160a01b031615155b156114f257858114613ad8575f828152600a60205260409020868155426001909101555b613af783613ae7600288615c89565b815181106124fd576124fd615bad565b506114f283613b07600288615c89565b81518110613b1757613b17615bad565b602002602001015189846143e0565b613b3183838361454b565b6001600160a01b0383165f90815260046020526040902054600111613b5557505050565b61123e8284610ea1565b612f7d5f86868686866145f8565b613b75614f9e565b613b7e82613444565b8151525f828152600760205260408120613b9a915b0154613444565b815160200152613baf61278b610ddc84612d16565b815160400152613bc461278b6125af84612d16565b815160600152613bdd61278b83610621611be182612d16565b815160800152613bf661278b83610621610a4f82612d16565b815160a001525f828152600860205260408120613c1291613b93565b815160c001525f828152600660209081526040808320548151808401879052808301829052825180820384018152606090910183528051908401208452600a90925290912054613c659161278b916123bd565b815160e001525f828152600760205260409020613c83906002613b93565b815161010001525f82815260046020526040902054613ca190613444565b815161016001526003545f8381526008602052604090819020549051631ba2a35b60e31b815260048101919091526001600160a01b039091169063dd151ad8906024015f60405180830381865afa158015613cfe573d5f803e3d5ffd5b505050506040513d5f823e601f3d908101601f19168201604052613d259190810190615e4f565b604001516020820152613d3782612d32565b60408201526001546009905f90613d589085906001600160a01b0316615cd9565b81526020019081526020015f20805480602002602001604051908101604052809291908181526020018280548015613db757602002820191905f5260205f20905b81546001600160a01b03168152600190910190602001808311613d99575b505050505060808201525f828152600560209081526040918290208054835181840281018401909452808452613e1f9392830182828015613e1557602002820191905f5260205f20905b815481526020019060010190808311613e01575b505050505061472e565b6060820152613e35613e308361314c565b61472e565b60a0820152919050565b6060610cdc6001600160a01b03831660146147d9565b8015159050679a31110384e0b0c960205282601452815f52806034600c2055805f525f1960601c8281168482167f17307eab39ab6107e8899845ad3d59bd9653f200f220920489ca2b5937696c3160205fa350505050565b5f8072184f03e93ff9f4daa797ed6e38ed64bf6a1f0160401b8310613eeb5772184f03e93ff9f4daa797ed6e38ed64bf6a1f0160401b830492506040015b6d04ee2d6d415b85acef81000000008310613f17576d04ee2d6d415b85acef8100000000830492506020015b662386f26fc100008310613f3557662386f26fc10000830492506010015b6305f5e1008310613f4d576305f5e100830492506008015b6127108310613f6157612710830492506004015b60648310613f73576064830492506002015b600a8310610cdc5760010192915050565b60125460ff1615613fcc57613fcc5f85613fb1866040805180820190915260018152602081019190915290565b6040805180820190915260018152602081018790528561364f565b8360601b80613fe25763ea553b345f526004601cfd5b679a31110384e0b0c960205284601452835f5260405f20805484810181811015614013576301336cea5f526004601cfd5b808355505050826020528060601c5f335f80516020615fa583398151915260405fa450614055565b604080518082019091526001815260208101879052612385565b833b15612385576123855f85858585614972565b6001600160a01b038410806140ed5750600354604051631ba2a35b60e31b8152600481018690526001600160a01b039091169063dd151ad8906024015f60405180830381865afa1580156140bf573d5f803e3d5ffd5b505050506040513d5f823e601f3d908101601f191682016040526140e69190810190615e4f565b6040015151155b1561410b57604051639cd2c44760e01b815260040160405180910390fd5b61411a8686868686868d6149fc565b5f87815260046020908152604080832054888452600a90925290912054614142906002615bd5565b1115613142576003546040516350885bc560e01b8152600481018990525f916001600160a01b0316906350885bc5906024016040805180830381865afa15801561418e573d5f803e3d5ffd5b505050506040513d601f19601f820116820180604052508101906141b29190615f63565b509050806141d35760405163a74ab56560e01b815260040160405180910390fd5b5f88815260086020526040812089917fe48aa5e298e92f05c7b7489cb783dd272acece1ed2b7aae5007022513a99761191015460408051918252602082018990520160405180910390a2604080518082018252868152426020808301919091525f8b81526008909152919091206114f0916002615009565b61425a8686868686868d6149fc565b5f87815260046020908152604080832054888452600a90925290912054614282906002615bd5565b1115613142576003546040516350885bc560e01b8152600481018990525f916001600160a01b0316906350885bc5906024016040805180830381865afa1580156142ce573d5f803e3d5ffd5b505050506040513d601f19601f820116820180604052508101906142f29190615f63565b509050806143135760405163a74ab56560e01b815260040160405180910390fd5b61431c8861207c565b505f8881526007602052604090205488907f0ad1727523f8a97d260a40299bd81a21bbcdb605a771d1390f8fa163b2632caf9061435d88633b9aca00615bd5565b6040805192835260208301919091520160405180910390a25f8881526007602052604090205461439c90899061439788633b9aca00615bd5565b614bf7565b604051806060016040528086633b9aca006143b79190615bd5565b81524260208083018290526040928301919091525f8b81526007909152206114f0916003615036565b604080516020808201869052818301859052825180830384018152606090920183528151918101919091205f848152600a909252918120546144289086908690610400613368565b5f848152600a602052604090209091506001015442101561445c5760405163d445b7c360e01b815260040160405180910390fd5b5f828152600a6020526040808220548583529120600201541061448c575f828152600a60205260408120556144bb565b5f838152600a6020526040808220600201548483529082208054919290916144b5908490615c89565b90915550505b5f828152600a6020526040812080548392906144d8908490615cd9565b90915550505f84815260076020526040812001545f838152600a6020526040812001541115614520575f84815260076020526040812001545f838152600a6020526040812001555b5f918252600a6020526040808320426001918201819055948452922091820192909255600201555050565b5f8281526004602052604081208054839290614568908490615c89565b90915550505f82815260066020526040902054821080156145905750678ac7230489e8000082115b156145b15761459e8261207c565b5061123e6145aa613368565b8383614e5b565b6145bc838383614e5b565b81836001600160a01b03167f23ff0e75edf108e3d0392d92e13e8c8a868ef19001bd49f9e94876dc46dff87f8360405161112991815260200190565b60125460ff1615614625576146258585613fb1866040805180820190915260018152602081019190915290565b8460601b8460601b8061463f5763ea553b345f526004601cfd5b81679a31110384e0b0c9176020528760601b82811481151761467557885f526034600c205461467557634b6e7f185f526004601cfd5b50845f5260405f208054808611156146945763f4d678b85f526004601cfd5b8590039055679a31110384e0b0c9811760205260405f208054808601818110156146c5576301336cea5f526004601cfd5b808355505050836020528060601c8260601c335f80516020615fa583398151915260405fa450506146f35f90565b1561471a5761471a858561403b866040805180820190915260018152602081019190915290565b833b15613144576131448585858585614972565b60605f82516001600160401b0381111561474a5761474a6151b4565b60405190808252806020026020018201604052801561477d57816020015b60608152602001906001900390816147685790505b5090505f5b83518110156147d2576147ad8482815181106147a0576147a0615bad565b6020026020010151613444565b8282815181106147bf576147bf615bad565b6020908102919091010152600101614782565b5092915050565b60605f6147e7836002615bd5565b6147f2906002615cd9565b6001600160401b03811115614809576148096151b4565b6040519080825280601f01601f191660200182016040528015614833576020820181803683370190505b509050600360fc1b815f8151811061484d5761484d615bad565b60200101906001600160f81b03191690815f1a905350600f60fb1b8160018151811061487b5761487b615bad565b60200101906001600160f81b03191690815f1a9053505f61489d846002615bd5565b6148a8906001615cd9565b90505b600181111561491f576f181899199a1a9b1b9c1cb0b131b232b360811b85600f16601081106148dc576148dc615bad565b1a60f81b8282815181106148f2576148f2615bad565b60200101906001600160f81b03191690815f1a90535060049490941c9361491881615f8f565b90506148ab565b508315610e235760405162461bcd60e51b815260206004820181905260248201527f537472696e67733a20686578206c656e67746820696e73756666696369656e74604482015260640160405180910390fd5b60405163f23a6e6181523360208201528560601b60601c604082015283606082015282608082015260a08082015281518060c083015280156149be578060e08301826020860160045afa505b6020828260c401601c85015f8a5af16149df573d156149df573d5f833e3d82fd5b50805163f23a6e6160e01b1461314457639c05499b5f526004601cfd5b5f878152600a602052604090206001015415614a72575f878152600a6020526040812060020154118015614a3e57505f878152600a6020526040812060010154115b15614a72575f878152600a602052604080822060020154888352908220805491929091614a6c908490615c89565b90915550505b5f838152600c6020526040902054821015614b96575f838152600c60205260408120805484908110614aa657614aa6615bad565b905f5260205f2001549050858114614b9457600a5f83614ac4613368565b84604051602001614af59392919092835260609190911b6001600160601b0319166020830152603482015260540190565b6040516020818303038152906040528051906020012081526020019081526020015f20600260038110614b2a57614b2a615bad565b0154600a5f8484604051602001614b4b929190918252602082015260400190565b6040516020818303038152906040528051906020012081526020019081526020015f205f60038110614b7f57614b7f615bad565b015f828254614b8e9190615c89565b90915550505b505b60408051606081018252868152426020808301919091528183018790525f8a8152600a90915291909120614bcb916003615036565b505f868152600a602052604081208054869290614be9908490615cd9565b909155505050505050505050565b5f83815260056020908152604080832080548251818502810185019093528083529192909190830182828015614c4a57602002820191905f5260205f20905b815481526020019060010190808311614c36575b5050505050905080515f03614c5f5750505050565b5f805b8251811015614d26575f838281518110614c7e57614c7e615bad565b602002602001015187604051602001614ca1929190918252602082015260400190565b60408051808303601f1901815291815281516020928301205f818152600a909352912054909150614cd28185615cd9565b9350633b9aca00811115614d1c57614cf58584815181106124fd576124fd615bad565b505f87614d028884615bd5565b614d0c9190615c00565b5f848152600a6020526040902055505b5050600101614c62565b50600181118015614d5d57505f85815260076020526040902054614d4e90620186a090615c00565b614d5b620186a083615c00565b105b15614de3575f614d9b614d6f87612d16565b5f88815260066020526040902054679a31110384e0b0c96020526014919091525f908152604090205490565b614dc2614da788612d16565b679a31110384e0b0c96020526014525f888152604090205490565b614dcc9190615c89565b9050614de1614dda87612d16565b8783613b26565b505b60408051606081018252848152426020808301829052828401919091525f888152600790915291909120614e18916003615036565b50604080518581526020810185905286917f0ad1727523f8a97d260a40299bd81a21bbcdb605a771d1390f8fa163b2632caf910160405180910390a25050505050565b61123e5f84848460125460ff1615614eb857614eb8835f614e8f856040805180820190915260018152602081019190915290565b60408051808201909152600181526020810186905260405180602001604052805f81525061364f565b8260601b80679a31110384e0b0c917602052808560601b148560601b1517614ef457845f526034600c2054614ef457634b6e7f185f526004601cfd5b825f5260405f20805480841115614f125763f4d678b85f526004601cfd5b83810382555050816020525f8160601c335f80516020615fa583398151915260405fa450612385565b60405180604001604052806002906020820280368337509192915050565b828054828255905f5260205f20908101928215614f92579160200282015b82811115614f92578251825591602001919060010190614f77565b50613275929150615063565b6040518060e00160405280614fb1615077565b815260200160608152602001606081526020016060815260200160608152602001606081526020016150046040518060800160405280606081526020016060815260200160608152602001606081525090565b905290565b8260028101928215614f925791602002820182811115614f92578251825591602001919060010190614f77565b8260038101928215614f925791602002820182811115614f92578251825591602001919060010190614f77565b5b80821115613275575f8155600101615064565b604051806101800160405280600c905b60608152602001906001900390816150875790505090565b6001600160a01b03811681146109e1575f80fd5b5f80604083850312156150c4575f80fd5b82356150cf8161509f565b946020939093013593505050565b5f602082840312156150ed575f80fd5b81356001600160e01b031981168114610e23575f80fd5b5f81518084528060208401602086015e5f602082860101526020601f19601f83011685010191505092915050565b602081525f610e236020830184615104565b5f60208284031215615154575f80fd5b5035919050565b5f6020828403121561516b575f80fd5b8135610e238161509f565b5f805f8060808587031215615189575f80fd5b84359350602085013592506040850135915060608501356151a98161509f565b939692955090935050565b634e487b7160e01b5f52604160045260245ffd5b604051608081016001600160401b03811182821017156151ea576151ea6151b4565b60405290565b604051601f8201601f191681016001600160401b0381118282101715615218576152186151b4565b604052919050565b5f6001600160401b03821115615238576152386151b4565b5060051b60200190565b5f82601f830112615251575f80fd5b8135602061526661526183615220565b6151f0565b8083825260208201915060208460051b870101935086841115615287575f80fd5b602086015b848110156152a3578035835291830191830161528c565b509695505050505050565b5f6001600160401b038211156152c6576152c66151b4565b50601f01601f191660200190565b5f82601f8301126152e3575f80fd5b81356152f1615261826152ae565b818152846020838601011115615305575f80fd5b816020850160208301375f918101602001919091529392505050565b5f805f805f60a08688031215615335575f80fd5b853594506020808701356001600160401b0380821115615353575f80fd5b818901915089601f830112615366575f80fd5b813561537461526182615220565b81815260059190911b8301840190848101908c831115615392575f80fd5b938501935b828510156153b95784356153aa8161509f565b82529385019390850190615397565b9850505060408901359250808311156153d0575f80fd5b6153dc8a848b01615242565b955060608901359250808311156153f1575f80fd5b50506153ff888289016152d4565b95989497509295608001359392505050565b5f815180845260208085019450602084015f5b8381101561544057815187529582019590820190600101615424565b509495945050505050565b602081525f610e236020830184615411565b5f806040838503121561546e575f80fd5b50508035926020909101359150565b5f806040838503121561548e575f80fd5b8235915060208301356154a08161509f565b809150509250929050565b5f805f606084860312156154bd575f80fd5b83356154c88161509f565b92506020840135915060408401356154df8161509f565b809150509250925092565b5f8083601f8401126154fa575f80fd5b5081356001600160401b03811115615510575f80fd5b6020830191508360208260051b850101111561552a575f80fd5b9250929050565b5f8083601f840112615541575f80fd5b5081356001600160401b03811115615557575f80fd5b60208301915083602082850101111561552a575f80fd5b5f805f805f805f8060a0898b031215615585575f80fd5b88356155908161509f565b975060208901356155a08161509f565b965060408901356001600160401b03808211156155bb575f80fd5b6155c78c838d016154ea565b909850965060608b01359150808211156155df575f80fd5b6155eb8c838d016154ea565b909650945060808b0135915080821115615603575f80fd5b506156108b828c01615531565b999c989b5096995094979396929594505050565b5f815180845260208085019450602084015f5b838110156154405781516001600160a01b031687529582019590820190600101615637565b5f815180845260208085019450602084015f5b83811015615440578151875f5b60028110156156995782518252918501919085019060010161567c565b505050604096909601959082019060010161566f565b5f8151608084526156c36080850182615624565b9050602080840151858303828701526156dc838261565c565b925050604084015185830360408701526156f6838261565c565b925050606084015185830360608701528281518085528385019150838160051b86010184840193505f5b8281101561577357868203601f190184528451805180845290870190878401905f5b8181101561575e57835183529289019291890191600101615742565b50509587019594870194925050600101615720565b5098975050505050505050565b602081525f610e2360208301846156af565b5f805f80604085870312156157a5575f80fd5b84356001600160401b03808211156157bb575f80fd5b6157c7888389016154ea565b909650945060208701359150808211156157df575f80fd5b506157ec878288016154ea565b95989497509550505050565b5f8060408385031215615809575f80fd5b8235915060208301356001600160401b03811115615825575f80fd5b61583185828601615242565b9150509250929050565b80151581146109e1575f80fd5b5f8060408385031215615859575f80fd5b82356158648161509f565b915060208301356154a08161583b565b5f60208284031215615884575f80fd5b81356001600160401b03811115615899575f80fd5b610aed84828501615242565b5f826101808101835f5b600c8110156158de5783830387526158c8838351615104565b60209788019790935091909101906001016158af565b509095945050505050565b5f8282518085526020808601955060208260051b840101602086015f5b8481101561593457601f19868403018952615922838351615104565b98840198925090830190600101615906565b5090979650505050505050565b5f815160e0845261595560e08501826158a5565b90506020830151848203602086015261596e8282615104565b915050604083015184820360408601526159888282615624565b915050606083015184820360608601526159a282826158e9565b915050608083015184820360808601526159bc8282615624565b91505060a083015184820360a08601526159d682826158e9565b91505060c083015184820360c08601526159f082826156af565b95945050505050565b5f60208083016020845280855180835260408601915060408160051b8701019250602087015f5b82811015615a4e57603f19888603018452615a3c858351615941565b94509285019290850190600101615a20565b5092979650505050505050565b602081525f610e236020830184615941565b5f8060408385031215615a7e575f80fd5b8235615a898161509f565b915060208301356154a08161509f565b602081525f610e236020830184615624565b5f805f805f8060a08789031215615ac0575f80fd5b8635615acb8161509f565b95506020870135615adb8161509f565b9450604087013593506060870135925060808701356001600160401b03811115615b03575f80fd5b615b0f89828a01615531565b979a9699509497509295939492505050565b600181811c90821680615b3557607f821691505b60208210810361274057634e487b7160e01b5f52602260045260245ffd5b5f60208284031215615b63575f80fd5b8151610e238161583b565b7f68747470733a2f2f77696c6c77652e78797a2f6d657461646174612f0000000081525f82518060208501601c85015e5f9201601c0191825250919050565b634e487b7160e01b5f52603260045260245ffd5b634e487b7160e01b5f52601160045260245ffd5b8082028115828204841417610cdc57610cdc615bc1565b634e487b7160e01b5f52601260045260245ffd5b5f82615c0e57615c0e615bec565b500490565b606081525f615c256060830186615624565b8281036020840152615c378186615411565b90508281036040840152615c4b8185615104565b9695505050505050565b5f60208284031215615c65575f80fd5b5051919050565b60609290921b6001600160601b0319168252601482015260340190565b81810381811115610cdc57610cdc615bc1565b60609390931b6001600160601b03191683526014830191909152603482015260540190565b5f60018201615cd257615cd2615bc1565b5060010190565b80820180821115610cdc57610cdc615bc1565b5f60208284031215615cfc575f80fd5b8151610e238161509f565b604081525f615d196040830185615411565b90508260208301529392505050565b6001600160a01b03868116825285166020820152604081018490526060810183905260a0608082018190525f90615d6190830184615104565b979650505050505050565b5f82615d7a57615d7a615bec565b500690565b5f8085851115615d8d575f80fd5b83861115615d99575f80fd5b5050820193919092039150565b5f82601f830112615db5575f80fd5b81516020615dc561526183615220565b8083825260208201915060208460051b870101935086841115615de6575f80fd5b602086015b848110156152a35780518352918301918301615deb565b5f82601f830112615e11575f80fd5b8151615e1f615261826152ae565b818152846020838601011115615e33575f80fd5b8160208501602083015e5f918101602001919091529392505050565b5f6020808385031215615e60575f80fd5b82516001600160401b0380821115615e76575f80fd5b9084019060808287031215615e89575f80fd5b615e916151c8565b825182811115615e9f575f80fd5b8301601f81018813615eaf575f80fd5b8051615ebd61526182615220565b81815260059190911b8201860190868101908a831115615edb575f80fd5b928701925b82841015615f02578351615ef38161509f565b82529287019290870190615ee0565b84525050508284015182811115615f17575f80fd5b615f2388828601615da6565b85830152506040830151935081841115615f3b575f80fd5b615f4787858501615e02565b6040820152606083015160608201528094505050505092915050565b5f8060408385031215615f74575f80fd5b8251615f7f8161583b565b6020939093015192949293505050565b5f81615f9d57615f9d615bc1565b505f19019056fec3d58168c5ae7397731d063d5bbf3d657854427343f4c083240f7aacaa2d0f62a2646970667358221220d12524c8fad97f37bbd0961ecc59d251d3154361db72a302b12c0c1695e62e4864736f6c63430008190033","linkReferences":{}},"methodIdentifiers":{"Will()":"535e9891","allMembersOf(uint256)":"eef2e757","asRootValuation(uint256,uint256)":"7f33d800","balanceOf(address,uint256)":"00fdd58e","balanceOfBatch(address[],uint256[])":"4e1273f4","burn(uint256,uint256)":"b390c0ab","burnPath(uint256,uint256)":"f039a733","calculateUserTargetedPreferenceAmount(uint256,uint256,uint256,address)":"0ffd3910","control(uint256)":"7d11e682","createEndpointForOwner(uint256,address)":"45bbbf84","executionAddress()":"78adc790","getAllNodesForRoot(address,address)":"f87cc6b3","getAllSignalsOfNode(uint256)":"30f9b165","getChangePrevalence(uint256,uint256)":"1a61eda6","getChildrenOf(uint256)":"99f45689","getFidPath(uint256)":"f6355a56","getMembraneOf(uint256)":"7e44bffe","getNodeData(uint256,address)":"a6bfbc20","getNodes(uint256[])":"a5541c84","getParentOf(uint256)":"13e75206","getUserNodeSignals(address,uint256)":"150d503d","inParentDenomination(uint256,uint256)":"1e9b388d","inflationOf(uint256)":"765063e5","initSelfControl()":"68dc2747","isApprovedForAll(address,address)":"e985e9c5","isMember(address,uint256)":"85752d03","localizeEndpoint(address,uint256,address)":"28ca8e26","membershipEnforce(address,uint256)":"62593f60","membershipID(uint256)":"f77914c3","mint(uint256,uint256)":"1b2ef1ca","mintInflation(uint256)":"67c394fb","mintMembership(uint256)":"0d78d0c1","mintPath(uint256,uint256)":"791ddaf9","name()":"06fdde03","options(bytes32,uint256)":"20f94427","redistribute(uint256)":"a0ce552d","redistributePath(uint256)":"a0762253","resignal(uint256,address)":"1fae703b","safeBatchTransferFrom(address,address,uint256[],uint256[],bytes)":"2eb2c2d6","safeTransferFrom(address,address,uint256,uint256,bytes)":"f242432a","sendSignal(uint256,uint256[])":"5b4a26ed","setApprovalForAll(address,bool)":"a22cb465","setControl(address)":"5ac8260c","spawnNode(uint256)":"bfad25e5","spawnNodeWithMembrane(uint256,address[],uint256[],string,uint256)":"114b6e49","spawnRootNode(address)":"af1b55b0","supportsInterface(bytes4)":"01ffc9a7","symbol()":"95d89b41","taxPolicyPreference(address,uint256)":"1f017841","toAddress(uint256)":"e0051aa9","toID(address)":"0f336348","totalSupply(uint256)":"bd85b039","uri(uint256)":"0e89341c"},"storageLayout":{"storage":[{"astId":55569,"contract":"src/WillWe.sol:WillWe","label":"entityCount","offset":0,"slot":"0","type":"t_uint256"},{"astId":55571,"contract":"src/WillWe.sol:WillWe","label":"executionAddress","offset":0,"slot":"1","type":"t_address"},{"astId":55573,"contract":"src/WillWe.sol:WillWe","label":"Will","offset":0,"slot":"2","type":"t_address"},{"astId":55576,"contract":"src/WillWe.sol:WillWe","label":"M","offset":0,"slot":"3","type":"t_contract(IMembrane)61182"},{"astId":55581,"contract":"src/WillWe.sol:WillWe","label":"totalSupplyOf","offset":0,"slot":"4","type":"t_mapping(t_uint256,t_uint256)"},{"astId":55587,"contract":"src/WillWe.sol:WillWe","label":"childrenOf","offset":0,"slot":"5","type":"t_mapping(t_uint256,t_array(t_uint256)dyn_storage)"},{"astId":55592,"contract":"src/WillWe.sol:WillWe","label":"parentOf","offset":0,"slot":"6","type":"t_mapping(t_uint256,t_uint256)"},{"astId":55599,"contract":"src/WillWe.sol:WillWe","label":"inflSec","offset":0,"slot":"7","type":"t_mapping(t_uint256,t_array(t_uint256)3_storage)"},{"astId":55606,"contract":"src/WillWe.sol:WillWe","label":"inUseMembraneId","offset":0,"slot":"8","type":"t_mapping(t_uint256,t_array(t_uint256)2_storage)"},{"astId":55612,"contract":"src/WillWe.sol:WillWe","label":"members","offset":0,"slot":"9","type":"t_mapping(t_uint256,t_array(t_address)dyn_storage)"},{"astId":55619,"contract":"src/WillWe.sol:WillWe","label":"options","offset":0,"slot":"10","type":"t_mapping(t_bytes32,t_array(t_uint256)3_storage)"},{"astId":55624,"contract":"src/WillWe.sol:WillWe","label":"taxRate","offset":0,"slot":"11","type":"t_mapping(t_address,t_uint256)"},{"astId":55630,"contract":"src/WillWe.sol:WillWe","label":"userNodeSignals","offset":0,"slot":"12","type":"t_mapping(t_bytes32,t_array(t_uint256)dyn_storage)"},{"astId":55634,"contract":"src/WillWe.sol:WillWe","label":"control","offset":0,"slot":"13","type":"t_array(t_address)2_storage"},{"astId":55636,"contract":"src/WillWe.sol:WillWe","label":"impersonatingAddress","offset":0,"slot":"15","type":"t_address"},{"astId":55638,"contract":"src/WillWe.sol:WillWe","label":"name","offset":0,"slot":"16","type":"t_string_storage"},{"astId":55640,"contract":"src/WillWe.sol:WillWe","label":"symbol","offset":0,"slot":"17","type":"t_string_storage"},{"astId":55642,"contract":"src/WillWe.sol:WillWe","label":"useBefore","offset":0,"slot":"18","type":"t_bool"}],"types":{"t_address":{"encoding":"inplace","label":"address","numberOfBytes":"20"},"t_array(t_address)2_storage":{"encoding":"inplace","label":"address[2]","numberOfBytes":"64","base":"t_address"},"t_array(t_address)dyn_storage":{"encoding":"dynamic_array","label":"address[]","numberOfBytes":"32","base":"t_address"},"t_array(t_uint256)2_storage":{"encoding":"inplace","label":"uint256[2]","numberOfBytes":"64","base":"t_uint256"},"t_array(t_uint256)3_storage":{"encoding":"inplace","label":"uint256[3]","numberOfBytes":"96","base":"t_uint256"},"t_array(t_uint256)dyn_storage":{"encoding":"dynamic_array","label":"uint256[]","numberOfBytes":"32","base":"t_uint256"},"t_bool":{"encoding":"inplace","label":"bool","numberOfBytes":"1"},"t_bytes32":{"encoding":"inplace","label":"bytes32","numberOfBytes":"32"},"t_contract(IMembrane)61182":{"encoding":"inplace","label":"contract IMembrane","numberOfBytes":"20"},"t_mapping(t_address,t_uint256)":{"encoding":"mapping","key":"t_address","label":"mapping(address => uint256)","numberOfBytes":"32","value":"t_uint256"},"t_mapping(t_bytes32,t_array(t_uint256)3_storage)":{"encoding":"mapping","key":"t_bytes32","label":"mapping(bytes32 => uint256[3])","numberOfBytes":"32","value":"t_array(t_uint256)3_storage"},"t_mapping(t_bytes32,t_array(t_uint256)dyn_storage)":{"encoding":"mapping","key":"t_bytes32","label":"mapping(bytes32 => uint256[])","numberOfBytes":"32","value":"t_array(t_uint256)dyn_storage"},"t_mapping(t_uint256,t_array(t_address)dyn_storage)":{"encoding":"mapping","key":"t_uint256","label":"mapping(uint256 => address[])","numberOfBytes":"32","value":"t_array(t_address)dyn_storage"},"t_mapping(t_uint256,t_array(t_uint256)2_storage)":{"encoding":"mapping","key":"t_uint256","label":"mapping(uint256 => uint256[2])","numberOfBytes":"32","value":"t_array(t_uint256)2_storage"},"t_mapping(t_uint256,t_array(t_uint256)3_storage)":{"encoding":"mapping","key":"t_uint256","label":"mapping(uint256 => uint256[3])","numberOfBytes":"32","value":"t_array(t_uint256)3_storage"},"t_mapping(t_uint256,t_array(t_uint256)dyn_storage)":{"encoding":"mapping","key":"t_uint256","label":"mapping(uint256 => uint256[])","numberOfBytes":"32","value":"t_array(t_uint256)dyn_storage"},"t_mapping(t_uint256,t_uint256)":{"encoding":"mapping","key":"t_uint256","label":"mapping(uint256 => uint256)","numberOfBytes":"32","value":"t_uint256"},"t_string_storage":{"encoding":"bytes","label":"string","numberOfBytes":"32"},"t_uint256":{"encoding":"inplace","label":"uint256","numberOfBytes":"32"}}},"id":76}