{
    "abi": [
        {
            "type": "constructor",
            "inputs": [
                {
                    "name": "Execution",
                    "type": "address",
                    "internalType": "address"
                },
                {
                    "name": "Membrane",
                    "type": "address",
                    "internalType": "address"
                }
            ],
            "stateMutability": "nonpayable"
        },
        {
            "type": "function",
            "name": "Will",
            "inputs": [],
            "outputs": [
                {
                    "name": "",
                    "type": "address",
                    "internalType": "address"
                }
            ],
            "stateMutability": "view"
        },
        {
            "type": "function",
            "name": "allMembersOf",
            "inputs": [
                {
                    "name": "fid_",
                    "type": "uint256",
                    "internalType": "uint256"
                }
            ],
            "outputs": [
                {
                    "name": "",
                    "type": "address[]",
                    "internalType": "address[]"
                }
            ],
            "stateMutability": "view"
        },
        {
            "type": "function",
            "name": "asRootValuation",
            "inputs": [
                {
                    "name": "target_",
                    "type": "uint256",
                    "internalType": "uint256"
                },
                {
                    "name": "amount",
                    "type": "uint256",
                    "internalType": "uint256"
                }
            ],
            "outputs": [
                {
                    "name": "",
                    "type": "uint256",
                    "internalType": "uint256"
                }
            ],
            "stateMutability": "view"
        },
        {
            "type": "function",
            "name": "balanceOf",
            "inputs": [
                {
                    "name": "owner",
                    "type": "address",
                    "internalType": "address"
                },
                {
                    "name": "id",
                    "type": "uint256",
                    "internalType": "uint256"
                }
            ],
            "outputs": [
                {
                    "name": "result",
                    "type": "uint256",
                    "internalType": "uint256"
                }
            ],
            "stateMutability": "view"
        },
        {
            "type": "function",
            "name": "balanceOfBatch",
            "inputs": [
                {
                    "name": "owners",
                    "type": "address[]",
                    "internalType": "address[]"
                },
                {
                    "name": "ids",
                    "type": "uint256[]",
                    "internalType": "uint256[]"
                }
            ],
            "outputs": [
                {
                    "name": "balances",
                    "type": "uint256[]",
                    "internalType": "uint256[]"
                }
            ],
            "stateMutability": "view"
        },
        {
            "type": "function",
            "name": "burn",
            "inputs": [
                {
                    "name": "fid_",
                    "type": "uint256",
                    "internalType": "uint256"
                },
                {
                    "name": "amount_",
                    "type": "uint256",
                    "internalType": "uint256"
                }
            ],
            "outputs": [
                {
                    "name": "topVal",
                    "type": "uint256",
                    "internalType": "uint256"
                }
            ],
            "stateMutability": "nonpayable"
        },
        {
            "type": "function",
            "name": "burnPath",
            "inputs": [
                {
                    "name": "target_",
                    "type": "uint256",
                    "internalType": "uint256"
                },
                {
                    "name": "amount",
                    "type": "uint256",
                    "internalType": "uint256"
                }
            ],
            "outputs": [],
            "stateMutability": "nonpayable"
        },
        {
            "type": "function",
            "name": "calculateUserTargetedPreferenceAmount",
            "inputs": [
                {
                    "name": "childId",
                    "type": "uint256",
                    "internalType": "uint256"
                },
                {
                    "name": "parentId",
                    "type": "uint256",
                    "internalType": "uint256"
                },
                {
                    "name": "signal",
                    "type": "uint256",
                    "internalType": "uint256"
                },
                {
                    "name": "user",
                    "type": "address",
                    "internalType": "address"
                }
            ],
            "outputs": [
                {
                    "name": "",
                    "type": "uint256",
                    "internalType": "uint256"
                }
            ],
            "stateMutability": "view"
        },
        {
            "type": "function",
            "name": "control",
            "inputs": [
                {
                    "name": "",
                    "type": "uint256",
                    "internalType": "uint256"
                }
            ],
            "outputs": [
                {
                    "name": "",
                    "type": "address",
                    "internalType": "address"
                }
            ],
            "stateMutability": "view"
        },
        {
            "type": "function",
            "name": "createEndpointForOwner",
            "inputs": [
                {
                    "name": "nodeId_",
                    "type": "uint256",
                    "internalType": "uint256"
                },
                {
                    "name": "owner",
                    "type": "address",
                    "internalType": "address"
                }
            ],
            "outputs": [
                {
                    "name": "endpointAddress",
                    "type": "address",
                    "internalType": "address"
                }
            ],
            "stateMutability": "nonpayable"
        },
        {
            "type": "function",
            "name": "executionAddress",
            "inputs": [],
            "outputs": [
                {
                    "name": "",
                    "type": "address",
                    "internalType": "address"
                }
            ],
            "stateMutability": "view"
        },
        {
            "type": "function",
            "name": "getAllNodesForRoot",
            "inputs": [
                {
                    "name": "rootAddress",
                    "type": "address",
                    "internalType": "address"
                },
                {
                    "name": "userIfAny",
                    "type": "address",
                    "internalType": "address"
                }
            ],
            "outputs": [
                {
                    "name": "nodes",
                    "type": "tuple[]",
                    "internalType": "struct NodeState[]",
                    "components": [
                        {
                            "name": "basicInfo",
                            "type": "string[12]",
                            "internalType": "string[12]"
                        },
                        {
                            "name": "membraneMeta",
                            "type": "string",
                            "internalType": "string"
                        },
                        {
                            "name": "membersOfNode",
                            "type": "address[]",
                            "internalType": "address[]"
                        },
                        {
                            "name": "childrenNodes",
                            "type": "string[]",
                            "internalType": "string[]"
                        },
                        {
                            "name": "movementEndpoints",
                            "type": "address[]",
                            "internalType": "address[]"
                        },
                        {
                            "name": "rootPath",
                            "type": "string[]",
                            "internalType": "string[]"
                        },
                        {
                            "name": "signals",
                            "type": "tuple[]",
                            "internalType": "struct UserSignal[]",
                            "components": [
                                {
                                    "name": "MembraneInflation",
                                    "type": "string[2][]",
                                    "internalType": "string[2][]"
                                },
                                {
                                    "name": "lastRedistSignal",
                                    "type": "string[]",
                                    "internalType": "string[]"
                                }
                            ]
                        }
                    ]
                }
            ],
            "stateMutability": "view"
        },
        {
            "type": "function",
            "name": "getChangePrevalence",
            "inputs": [
                {
                    "name": "nodeId_",
                    "type": "uint256",
                    "internalType": "uint256"
                },
                {
                    "name": "signal_",
                    "type": "uint256",
                    "internalType": "uint256"
                }
            ],
            "outputs": [
                {
                    "name": "",
                    "type": "uint256",
                    "internalType": "uint256"
                }
            ],
            "stateMutability": "view"
        },
        {
            "type": "function",
            "name": "getChildrenOf",
            "inputs": [
                {
                    "name": "fid_",
                    "type": "uint256",
                    "internalType": "uint256"
                }
            ],
            "outputs": [
                {
                    "name": "",
                    "type": "uint256[]",
                    "internalType": "uint256[]"
                }
            ],
            "stateMutability": "view"
        },
        {
            "type": "function",
            "name": "getFidPath",
            "inputs": [
                {
                    "name": "fid_",
                    "type": "uint256",
                    "internalType": "uint256"
                }
            ],
            "outputs": [
                {
                    "name": "fids",
                    "type": "uint256[]",
                    "internalType": "uint256[]"
                }
            ],
            "stateMutability": "view"
        },
        {
            "type": "function",
            "name": "getMembraneOf",
            "inputs": [
                {
                    "name": "fid_",
                    "type": "uint256",
                    "internalType": "uint256"
                }
            ],
            "outputs": [
                {
                    "name": "",
                    "type": "uint256",
                    "internalType": "uint256"
                }
            ],
            "stateMutability": "view"
        },
        {
            "type": "function",
            "name": "getNodeData",
            "inputs": [
                {
                    "name": "nodeId",
                    "type": "uint256",
                    "internalType": "uint256"
                },
                {
                    "name": "user",
                    "type": "address",
                    "internalType": "address"
                }
            ],
            "outputs": [
                {
                    "name": "nodeData",
                    "type": "tuple",
                    "internalType": "struct NodeState",
                    "components": [
                        {
                            "name": "basicInfo",
                            "type": "string[12]",
                            "internalType": "string[12]"
                        },
                        {
                            "name": "membraneMeta",
                            "type": "string",
                            "internalType": "string"
                        },
                        {
                            "name": "membersOfNode",
                            "type": "address[]",
                            "internalType": "address[]"
                        },
                        {
                            "name": "childrenNodes",
                            "type": "string[]",
                            "internalType": "string[]"
                        },
                        {
                            "name": "movementEndpoints",
                            "type": "address[]",
                            "internalType": "address[]"
                        },
                        {
                            "name": "rootPath",
                            "type": "string[]",
                            "internalType": "string[]"
                        },
                        {
                            "name": "signals",
                            "type": "tuple[]",
                            "internalType": "struct UserSignal[]",
                            "components": [
                                {
                                    "name": "MembraneInflation",
                                    "type": "string[2][]",
                                    "internalType": "string[2][]"
                                },
                                {
                                    "name": "lastRedistSignal",
                                    "type": "string[]",
                                    "internalType": "string[]"
                                }
                            ]
                        }
                    ]
                }
            ],
            "stateMutability": "view"
        },
        {
            "type": "function",
            "name": "getNodes",
            "inputs": [
                {
                    "name": "nodeIds",
                    "type": "uint256[]",
                    "internalType": "uint256[]"
                }
            ],
            "outputs": [
                {
                    "name": "nodes",
                    "type": "tuple[]",
                    "internalType": "struct NodeState[]",
                    "components": [
                        {
                            "name": "basicInfo",
                            "type": "string[12]",
                            "internalType": "string[12]"
                        },
                        {
                            "name": "membraneMeta",
                            "type": "string",
                            "internalType": "string"
                        },
                        {
                            "name": "membersOfNode",
                            "type": "address[]",
                            "internalType": "address[]"
                        },
                        {
                            "name": "childrenNodes",
                            "type": "string[]",
                            "internalType": "string[]"
                        },
                        {
                            "name": "movementEndpoints",
                            "type": "address[]",
                            "internalType": "address[]"
                        },
                        {
                            "name": "rootPath",
                            "type": "string[]",
                            "internalType": "string[]"
                        },
                        {
                            "name": "signals",
                            "type": "tuple[]",
                            "internalType": "struct UserSignal[]",
                            "components": [
                                {
                                    "name": "MembraneInflation",
                                    "type": "string[2][]",
                                    "internalType": "string[2][]"
                                },
                                {
                                    "name": "lastRedistSignal",
                                    "type": "string[]",
                                    "internalType": "string[]"
                                }
                            ]
                        }
                    ]
                }
            ],
            "stateMutability": "view"
        },
        {
            "type": "function",
            "name": "getParentOf",
            "inputs": [
                {
                    "name": "fid_",
                    "type": "uint256",
                    "internalType": "uint256"
                }
            ],
            "outputs": [
                {
                    "name": "",
                    "type": "uint256",
                    "internalType": "uint256"
                }
            ],
            "stateMutability": "view"
        },
        {
            "type": "function",
            "name": "getUserNodeSignals",
            "inputs": [
                {
                    "name": "signalOrigin",
                    "type": "address",
                    "internalType": "address"
                },
                {
                    "name": "parentNodeId",
                    "type": "uint256",
                    "internalType": "uint256"
                }
            ],
            "outputs": [
                {
                    "name": "UserNodeSignals",
                    "type": "uint256[2][]",
                    "internalType": "uint256[2][]"
                }
            ],
            "stateMutability": "view"
        },
        {
            "type": "function",
            "name": "inParentDenomination",
            "inputs": [
                {
                    "name": "amt_",
                    "type": "uint256",
                    "internalType": "uint256"
                },
                {
                    "name": "id_",
                    "type": "uint256",
                    "internalType": "uint256"
                }
            ],
            "outputs": [
                {
                    "name": "inParentVal",
                    "type": "uint256",
                    "internalType": "uint256"
                }
            ],
            "stateMutability": "view"
        },
        {
            "type": "function",
            "name": "inflationOf",
            "inputs": [
                {
                    "name": "nodeId",
                    "type": "uint256",
                    "internalType": "uint256"
                }
            ],
            "outputs": [
                {
                    "name": "",
                    "type": "uint256",
                    "internalType": "uint256"
                }
            ],
            "stateMutability": "view"
        },
        {
            "type": "function",
            "name": "initSelfControl",
            "inputs": [],
            "outputs": [
                {
                    "name": "",
                    "type": "address",
                    "internalType": "address"
                }
            ],
            "stateMutability": "nonpayable"
        },
        {
            "type": "function",
            "name": "isApprovedForAll",
            "inputs": [
                {
                    "name": "owner",
                    "type": "address",
                    "internalType": "address"
                },
                {
                    "name": "operator",
                    "type": "address",
                    "internalType": "address"
                }
            ],
            "outputs": [
                {
                    "name": "result",
                    "type": "bool",
                    "internalType": "bool"
                }
            ],
            "stateMutability": "view"
        },
        {
            "type": "function",
            "name": "isMember",
            "inputs": [
                {
                    "name": "whoabout_",
                    "type": "address",
                    "internalType": "address"
                },
                {
                    "name": "whereabout_",
                    "type": "uint256",
                    "internalType": "uint256"
                }
            ],
            "outputs": [
                {
                    "name": "",
                    "type": "bool",
                    "internalType": "bool"
                }
            ],
            "stateMutability": "view"
        },
        {
            "type": "function",
            "name": "localizeEndpoint",
            "inputs": [
                {
                    "name": "endpoint_",
                    "type": "address",
                    "internalType": "address"
                },
                {
                    "name": "endpointParent_",
                    "type": "uint256",
                    "internalType": "uint256"
                },
                {
                    "name": "owner_",
                    "type": "address",
                    "internalType": "address"
                }
            ],
            "outputs": [],
            "stateMutability": "nonpayable"
        },
        {
            "type": "function",
            "name": "membershipEnforce",
            "inputs": [
                {
                    "name": "target",
                    "type": "address",
                    "internalType": "address"
                },
                {
                    "name": "fid_",
                    "type": "uint256",
                    "internalType": "uint256"
                }
            ],
            "outputs": [
                {
                    "name": "s",
                    "type": "bool",
                    "internalType": "bool"
                }
            ],
            "stateMutability": "nonpayable"
        },
        {
            "type": "function",
            "name": "membershipID",
            "inputs": [
                {
                    "name": "fid_",
                    "type": "uint256",
                    "internalType": "uint256"
                }
            ],
            "outputs": [
                {
                    "name": "",
                    "type": "uint256",
                    "internalType": "uint256"
                }
            ],
            "stateMutability": "pure"
        },
        {
            "type": "function",
            "name": "mint",
            "inputs": [
                {
                    "name": "fid_",
                    "type": "uint256",
                    "internalType": "uint256"
                },
                {
                    "name": "amount_",
                    "type": "uint256",
                    "internalType": "uint256"
                }
            ],
            "outputs": [],
            "stateMutability": "nonpayable"
        },
        {
            "type": "function",
            "name": "mintInflation",
            "inputs": [
                {
                    "name": "node",
                    "type": "uint256",
                    "internalType": "uint256"
                }
            ],
            "outputs": [
                {
                    "name": "amount",
                    "type": "uint256",
                    "internalType": "uint256"
                }
            ],
            "stateMutability": "nonpayable"
        },
        {
            "type": "function",
            "name": "mintMembership",
            "inputs": [
                {
                    "name": "fid_",
                    "type": "uint256",
                    "internalType": "uint256"
                }
            ],
            "outputs": [],
            "stateMutability": "nonpayable"
        },
        {
            "type": "function",
            "name": "mintPath",
            "inputs": [
                {
                    "name": "target_",
                    "type": "uint256",
                    "internalType": "uint256"
                },
                {
                    "name": "amount_",
                    "type": "uint256",
                    "internalType": "uint256"
                }
            ],
            "outputs": [],
            "stateMutability": "nonpayable"
        },
        {
            "type": "function",
            "name": "name",
            "inputs": [],
            "outputs": [
                {
                    "name": "",
                    "type": "string",
                    "internalType": "string"
                }
            ],
            "stateMutability": "view"
        },
        {
            "type": "function",
            "name": "options",
            "inputs": [
                {
                    "name": "NodeXUserXValue",
                    "type": "bytes32",
                    "internalType": "bytes32"
                },
                {
                    "name": "",
                    "type": "uint256",
                    "internalType": "uint256"
                }
            ],
            "outputs": [
                {
                    "name": "valueAtTime",
                    "type": "uint256",
                    "internalType": "uint256"
                }
            ],
            "stateMutability": "view"
        },
        {
            "type": "function",
            "name": "redistribute",
            "inputs": [
                {
                    "name": "nodeId_",
                    "type": "uint256",
                    "internalType": "uint256"
                }
            ],
            "outputs": [
                {
                    "name": "distributedAmt",
                    "type": "uint256",
                    "internalType": "uint256"
                }
            ],
            "stateMutability": "nonpayable"
        },
        {
            "type": "function",
            "name": "redistributePath",
            "inputs": [
                {
                    "name": "nodeId_",
                    "type": "uint256",
                    "internalType": "uint256"
                }
            ],
            "outputs": [
                {
                    "name": "distributedAmt",
                    "type": "uint256",
                    "internalType": "uint256"
                }
            ],
            "stateMutability": "nonpayable"
        },
        {
            "type": "function",
            "name": "resignal",
            "inputs": [
                {
                    "name": "targetNode_",
                    "type": "uint256",
                    "internalType": "uint256"
                },
                {
                    "name": "signals",
                    "type": "uint256[]",
                    "internalType": "uint256[]"
                },
                {
                    "name": "originator",
                    "type": "address",
                    "internalType": "address"
                }
            ],
            "outputs": [],
            "stateMutability": "nonpayable"
        },
        {
            "type": "function",
            "name": "safeBatchTransferFrom",
            "inputs": [
                {
                    "name": "from",
                    "type": "address",
                    "internalType": "address"
                },
                {
                    "name": "to",
                    "type": "address",
                    "internalType": "address"
                },
                {
                    "name": "ids",
                    "type": "uint256[]",
                    "internalType": "uint256[]"
                },
                {
                    "name": "amounts",
                    "type": "uint256[]",
                    "internalType": "uint256[]"
                },
                {
                    "name": "data",
                    "type": "bytes",
                    "internalType": "bytes"
                }
            ],
            "outputs": [],
            "stateMutability": "nonpayable"
        },
        {
            "type": "function",
            "name": "safeTransferFrom",
            "inputs": [
                {
                    "name": "from",
                    "type": "address",
                    "internalType": "address"
                },
                {
                    "name": "to",
                    "type": "address",
                    "internalType": "address"
                },
                {
                    "name": "id",
                    "type": "uint256",
                    "internalType": "uint256"
                },
                {
                    "name": "amount",
                    "type": "uint256",
                    "internalType": "uint256"
                },
                {
                    "name": "data",
                    "type": "bytes",
                    "internalType": "bytes"
                }
            ],
            "outputs": [],
            "stateMutability": "nonpayable"
        },
        {
            "type": "function",
            "name": "sendSignal",
            "inputs": [
                {
                    "name": "targetNode_",
                    "type": "uint256",
                    "internalType": "uint256"
                },
                {
                    "name": "signals",
                    "type": "uint256[]",
                    "internalType": "uint256[]"
                }
            ],
            "outputs": [],
            "stateMutability": "nonpayable"
        },
        {
            "type": "function",
            "name": "setApprovalForAll",
            "inputs": [
                {
                    "name": "operator",
                    "type": "address",
                    "internalType": "address"
                },
                {
                    "name": "isApproved",
                    "type": "bool",
                    "internalType": "bool"
                }
            ],
            "outputs": [],
            "stateMutability": "nonpayable"
        },
        {
            "type": "function",
            "name": "setControl",
            "inputs": [
                {
                    "name": "newController",
                    "type": "address",
                    "internalType": "address"
                }
            ],
            "outputs": [],
            "stateMutability": "nonpayable"
        },
        {
            "type": "function",
            "name": "spawnNode",
            "inputs": [
                {
                    "name": "fid_",
                    "type": "uint256",
                    "internalType": "uint256"
                }
            ],
            "outputs": [
                {
                    "name": "newID",
                    "type": "uint256",
                    "internalType": "uint256"
                }
            ],
            "stateMutability": "nonpayable"
        },
        {
            "type": "function",
            "name": "spawnNodeWithMembrane",
            "inputs": [
                {
                    "name": "fid_",
                    "type": "uint256",
                    "internalType": "uint256"
                },
                {
                    "name": "tokens_",
                    "type": "address[]",
                    "internalType": "address[]"
                },
                {
                    "name": "balances_",
                    "type": "uint256[]",
                    "internalType": "uint256[]"
                },
                {
                    "name": "meta_",
                    "type": "string",
                    "internalType": "string"
                },
                {
                    "name": "inflationRate_",
                    "type": "uint256",
                    "internalType": "uint256"
                }
            ],
            "outputs": [
                {
                    "name": "newID",
                    "type": "uint256",
                    "internalType": "uint256"
                }
            ],
            "stateMutability": "nonpayable"
        },
        {
            "type": "function",
            "name": "spawnRootNode",
            "inputs": [
                {
                    "name": "fungible20_",
                    "type": "address",
                    "internalType": "address"
                }
            ],
            "outputs": [
                {
                    "name": "fID",
                    "type": "uint256",
                    "internalType": "uint256"
                }
            ],
            "stateMutability": "nonpayable"
        },
        {
            "type": "function",
            "name": "supportsInterface",
            "inputs": [
                {
                    "name": "interfaceId",
                    "type": "bytes4",
                    "internalType": "bytes4"
                }
            ],
            "outputs": [
                {
                    "name": "result",
                    "type": "bool",
                    "internalType": "bool"
                }
            ],
            "stateMutability": "view"
        },
        {
            "type": "function",
            "name": "symbol",
            "inputs": [],
            "outputs": [
                {
                    "name": "",
                    "type": "string",
                    "internalType": "string"
                }
            ],
            "stateMutability": "view"
        },
        {
            "type": "function",
            "name": "taxPolicyPreference",
            "inputs": [
                {
                    "name": "rootToken_",
                    "type": "address",
                    "internalType": "address"
                },
                {
                    "name": "taxRate_",
                    "type": "uint256",
                    "internalType": "uint256"
                }
            ],
            "outputs": [],
            "stateMutability": "nonpayable"
        },
        {
            "type": "function",
            "name": "toAddress",
            "inputs": [
                {
                    "name": "x",
                    "type": "uint256",
                    "internalType": "uint256"
                }
            ],
            "outputs": [
                {
                    "name": "",
                    "type": "address",
                    "internalType": "address"
                }
            ],
            "stateMutability": "pure"
        },
        {
            "type": "function",
            "name": "toID",
            "inputs": [
                {
                    "name": "x",
                    "type": "address",
                    "internalType": "address"
                }
            ],
            "outputs": [
                {
                    "name": "",
                    "type": "uint256",
                    "internalType": "uint256"
                }
            ],
            "stateMutability": "pure"
        },
        {
            "type": "function",
            "name": "totalSupply",
            "inputs": [
                {
                    "name": "nodeId",
                    "type": "uint256",
                    "internalType": "uint256"
                }
            ],
            "outputs": [
                {
                    "name": "",
                    "type": "uint256",
                    "internalType": "uint256"
                }
            ],
            "stateMutability": "view"
        },
        {
            "type": "function",
            "name": "uri",
            "inputs": [
                {
                    "name": "id_",
                    "type": "uint256",
                    "internalType": "uint256"
                }
            ],
            "outputs": [
                {
                    "name": "",
                    "type": "string",
                    "internalType": "string"
                }
            ],
            "stateMutability": "view"
        },
        {
            "type": "event",
            "name": "ApprovalForAll",
            "inputs": [
                {
                    "name": "owner",
                    "type": "address",
                    "indexed": true,
                    "internalType": "address"
                },
                {
                    "name": "operator",
                    "type": "address",
                    "indexed": true,
                    "internalType": "address"
                },
                {
                    "name": "isApproved",
                    "type": "bool",
                    "indexed": false,
                    "internalType": "bool"
                }
            ],
            "anonymous": false
        },
        {
            "type": "event",
            "name": "Burned",
            "inputs": [
                {
                    "name": "fromAddressOrNode",
                    "type": "address",
                    "indexed": true,
                    "internalType": "address"
                },
                {
                    "name": "nodeId",
                    "type": "uint256",
                    "indexed": true,
                    "internalType": "uint256"
                },
                {
                    "name": "amount",
                    "type": "uint256",
                    "indexed": false,
                    "internalType": "uint256"
                }
            ],
            "anonymous": false
        },
        {
            "type": "event",
            "name": "ConfigSignal",
            "inputs": [
                {
                    "name": "nodeId",
                    "type": "uint256",
                    "indexed": true,
                    "internalType": "uint256"
                },
                {
                    "name": "expressedOption",
                    "type": "bytes32",
                    "indexed": false,
                    "internalType": "bytes32"
                }
            ],
            "anonymous": false
        },
        {
            "type": "event",
            "name": "CreatedEndpoint",
            "inputs": [
                {
                    "name": "endpoint",
                    "type": "address",
                    "indexed": true,
                    "internalType": "address"
                },
                {
                    "name": "owner",
                    "type": "address",
                    "indexed": true,
                    "internalType": "address"
                },
                {
                    "name": "nodeId",
                    "type": "uint256",
                    "indexed": true,
                    "internalType": "uint256"
                }
            ],
            "anonymous": false
        },
        {
            "type": "event",
            "name": "InflationRateChanged",
            "inputs": [
                {
                    "name": "nodeId",
                    "type": "uint256",
                    "indexed": true,
                    "internalType": "uint256"
                },
                {
                    "name": "oldInflationRate",
                    "type": "uint256",
                    "indexed": false,
                    "internalType": "uint256"
                },
                {
                    "name": "newInflationRate",
                    "type": "uint256",
                    "indexed": false,
                    "internalType": "uint256"
                }
            ],
            "anonymous": false
        },
        {
            "type": "event",
            "name": "InflationSignal",
            "inputs": [
                {
                    "name": "nodeId",
                    "type": "uint256",
                    "indexed": true,
                    "internalType": "uint256"
                },
                {
                    "name": "origin",
                    "type": "address",
                    "indexed": true,
                    "internalType": "address"
                },
                {
                    "name": "inflationRate",
                    "type": "uint256",
                    "indexed": false,
                    "internalType": "uint256"
                }
            ],
            "anonymous": false
        },
        {
            "type": "event",
            "name": "MemberRemoved",
            "inputs": [
                {
                    "name": "userAddress",
                    "type": "address",
                    "indexed": true,
                    "internalType": "address"
                },
                {
                    "name": "nodeId",
                    "type": "uint256",
                    "indexed": true,
                    "internalType": "uint256"
                }
            ],
            "anonymous": false
        },
        {
            "type": "event",
            "name": "MembershipMinted",
            "inputs": [
                {
                    "name": "who",
                    "type": "address",
                    "indexed": true,
                    "internalType": "address"
                },
                {
                    "name": "nodeId",
                    "type": "uint256",
                    "indexed": true,
                    "internalType": "uint256"
                }
            ],
            "anonymous": false
        },
        {
            "type": "event",
            "name": "MembraneChanged",
            "inputs": [
                {
                    "name": "nodeId",
                    "type": "uint256",
                    "indexed": true,
                    "internalType": "uint256"
                },
                {
                    "name": "previousMembrane",
                    "type": "uint256",
                    "indexed": false,
                    "internalType": "uint256"
                },
                {
                    "name": "newMembrane",
                    "type": "uint256",
                    "indexed": false,
                    "internalType": "uint256"
                }
            ],
            "anonymous": false
        },
        {
            "type": "event",
            "name": "MembraneSignal",
            "inputs": [
                {
                    "name": "nodeId",
                    "type": "uint256",
                    "indexed": true,
                    "internalType": "uint256"
                },
                {
                    "name": "origin",
                    "type": "address",
                    "indexed": true,
                    "internalType": "address"
                },
                {
                    "name": "membraneId",
                    "type": "uint256",
                    "indexed": false,
                    "internalType": "uint256"
                }
            ],
            "anonymous": false
        },
        {
            "type": "event",
            "name": "Minted",
            "inputs": [
                {
                    "name": "fromAddressOrNode",
                    "type": "address",
                    "indexed": true,
                    "internalType": "address"
                },
                {
                    "name": "nodeId",
                    "type": "uint256",
                    "indexed": true,
                    "internalType": "uint256"
                },
                {
                    "name": "amount",
                    "type": "uint256",
                    "indexed": false,
                    "internalType": "uint256"
                }
            ],
            "anonymous": false
        },
        {
            "type": "event",
            "name": "NewNode",
            "inputs": [
                {
                    "name": "newId",
                    "type": "uint256",
                    "indexed": true,
                    "internalType": "uint256"
                },
                {
                    "name": "parentId",
                    "type": "uint256",
                    "indexed": true,
                    "internalType": "uint256"
                },
                {
                    "name": "creator",
                    "type": "address",
                    "indexed": true,
                    "internalType": "address"
                }
            ],
            "anonymous": false
        },
        {
            "type": "event",
            "name": "NewRootNode",
            "inputs": [
                {
                    "name": "rootNodeId",
                    "type": "uint256",
                    "indexed": true,
                    "internalType": "uint256"
                }
            ],
            "anonymous": false
        },
        {
            "type": "event",
            "name": "Resignaled",
            "inputs": [
                {
                    "name": "sender",
                    "type": "address",
                    "indexed": true,
                    "internalType": "address"
                },
                {
                    "name": "nodeId",
                    "type": "uint256",
                    "indexed": true,
                    "internalType": "uint256"
                },
                {
                    "name": "origin",
                    "type": "address",
                    "indexed": false,
                    "internalType": "address"
                }
            ],
            "anonymous": false
        },
        {
            "type": "event",
            "name": "SelfControlAtAddress",
            "inputs": [
                {
                    "name": "AgencyLocus",
                    "type": "address",
                    "indexed": false,
                    "internalType": "address"
                }
            ],
            "anonymous": false
        },
        {
            "type": "event",
            "name": "SharesGenerated",
            "inputs": [
                {
                    "name": "nodeId",
                    "type": "uint256",
                    "indexed": true,
                    "internalType": "uint256"
                },
                {
                    "name": "amount",
                    "type": "uint256",
                    "indexed": false,
                    "internalType": "uint256"
                }
            ],
            "anonymous": false
        },
        {
            "type": "event",
            "name": "TransferBatch",
            "inputs": [
                {
                    "name": "operator",
                    "type": "address",
                    "indexed": true,
                    "internalType": "address"
                },
                {
                    "name": "from",
                    "type": "address",
                    "indexed": true,
                    "internalType": "address"
                },
                {
                    "name": "to",
                    "type": "address",
                    "indexed": true,
                    "internalType": "address"
                },
                {
                    "name": "ids",
                    "type": "uint256[]",
                    "indexed": false,
                    "internalType": "uint256[]"
                },
                {
                    "name": "amounts",
                    "type": "uint256[]",
                    "indexed": false,
                    "internalType": "uint256[]"
                }
            ],
            "anonymous": false
        },
        {
            "type": "event",
            "name": "TransferSingle",
            "inputs": [
                {
                    "name": "operator",
                    "type": "address",
                    "indexed": true,
                    "internalType": "address"
                },
                {
                    "name": "from",
                    "type": "address",
                    "indexed": true,
                    "internalType": "address"
                },
                {
                    "name": "to",
                    "type": "address",
                    "indexed": true,
                    "internalType": "address"
                },
                {
                    "name": "id",
                    "type": "uint256",
                    "indexed": false,
                    "internalType": "uint256"
                },
                {
                    "name": "amount",
                    "type": "uint256",
                    "indexed": false,
                    "internalType": "uint256"
                }
            ],
            "anonymous": false
        },
        {
            "type": "event",
            "name": "URI",
            "inputs": [
                {
                    "name": "value",
                    "type": "string",
                    "indexed": false,
                    "internalType": "string"
                },
                {
                    "name": "id",
                    "type": "uint256",
                    "indexed": true,
                    "internalType": "uint256"
                }
            ],
            "anonymous": false
        },
        {
            "type": "event",
            "name": "UserNodeSignal",
            "inputs": [
                {
                    "name": "nodeId",
                    "type": "uint256",
                    "indexed": true,
                    "internalType": "uint256"
                },
                {
                    "name": "user",
                    "type": "address",
                    "indexed": true,
                    "internalType": "address"
                },
                {
                    "name": "signals",
                    "type": "uint256[]",
                    "indexed": false,
                    "internalType": "uint256[]"
                }
            ],
            "anonymous": false
        },
        {
            "type": "error",
            "name": "AccountBalanceOverflow",
            "inputs": []
        },
        {
            "type": "error",
            "name": "AlreadyMember",
            "inputs": []
        },
        {
            "type": "error",
            "name": "ArrayLengthsMismatch",
            "inputs": []
        },
        {
            "type": "error",
            "name": "BadLen",
            "inputs": []
        },
        {
            "type": "error",
            "name": "BaseOrNonFungible",
            "inputs": []
        },
        {
            "type": "error",
            "name": "BurnE20TransferFailed",
            "inputs": []
        },
        {
            "type": "error",
            "name": "CannotSkip",
            "inputs": []
        },
        {
            "type": "error",
            "name": "Disabled",
            "inputs": []
        },
        {
            "type": "error",
            "name": "EOA",
            "inputs": []
        },
        {
            "type": "error",
            "name": "Endpoint",
            "inputs": []
        },
        {
            "type": "error",
            "name": "ExecutionOnly",
            "inputs": []
        },
        {
            "type": "error",
            "name": "IncompleteSign",
            "inputs": []
        },
        {
            "type": "error",
            "name": "InsufficientAmt",
            "inputs": []
        },
        {
            "type": "error",
            "name": "InsufficientBalance",
            "inputs": []
        },
        {
            "type": "error",
            "name": "MembershipOp",
            "inputs": []
        },
        {
            "type": "error",
            "name": "MembraneNotFound",
            "inputs": []
        },
        {
            "type": "error",
            "name": "MintE20TransferFailed",
            "inputs": []
        },
        {
            "type": "error",
            "name": "No",
            "inputs": []
        },
        {
            "type": "error",
            "name": "NoControl",
            "inputs": []
        },
        {
            "type": "error",
            "name": "NoSoup",
            "inputs": []
        },
        {
            "type": "error",
            "name": "NoTimeDelta",
            "inputs": []
        },
        {
            "type": "error",
            "name": "NodeAlreadyExists",
            "inputs": []
        },
        {
            "type": "error",
            "name": "NodeNotFound",
            "inputs": []
        },
        {
            "type": "error",
            "name": "Noise",
            "inputs": []
        },
        {
            "type": "error",
            "name": "NoiseNotVoice",
            "inputs": []
        },
        {
            "type": "error",
            "name": "NotMember",
            "inputs": []
        },
        {
            "type": "error",
            "name": "NotNodeMember",
            "inputs": []
        },
        {
            "type": "error",
            "name": "NotOwnerNorApproved",
            "inputs": []
        },
        {
            "type": "error",
            "name": "Overreach",
            "inputs": []
        },
        {
            "type": "error",
            "name": "ResignalMismatch",
            "inputs": []
        },
        {
            "type": "error",
            "name": "RootExists",
            "inputs": []
        },
        {
            "type": "error",
            "name": "SignalOverflow",
            "inputs": []
        },
        {
            "type": "error",
            "name": "TargetIsRoot",
            "inputs": []
        },
        {
            "type": "error",
            "name": "TransferToNonERC1155ReceiverImplementer",
            "inputs": []
        },
        {
            "type": "error",
            "name": "TransferToZeroAddress",
            "inputs": []
        },
        {
            "type": "error",
            "name": "Unautorised",
            "inputs": []
        },
        {
            "type": "error",
            "name": "Unqualified",
            "inputs": []
        },
        {
            "type": "error",
            "name": "UnregisteredFungible",
            "inputs": []
        },
        {
            "type": "error",
            "name": "UnsoundMembership",
            "inputs": []
        },
        {
            "type": "error",
            "name": "UnsupportedTransfer",
            "inputs": []
        },
        {
            "type": "error",
            "name": "isControled",
            "inputs": []
        }
    ],
    "bytecode": {
        "object": "0x608060405234801561000f575f80fd5b50604051615eea380380615eea83398101604081905261002e91610201565b5f8052600b60209081526103e87fdf7de25b7f1fd6d0b5205f0e18f1f35bd7b8d84cce336588d184533ce43a6f7655600180546001600160a01b0319166001600160a01b038516908117909155604080516390ef12cd60e01b81529051859385938593859391926390ef12cd926004808401938290030181865afa1580156100b8573d5f803e3d5ffd5b505050506040513d601f19601f820116820180604052508101906100dc9190610232565b600280546001600160a01b03199081166001600160a01b03938416179091556003805490911691831691909117905560408051808201909152600a8152692bb4b6362bb2973c3cbd60b11b6020820152600f9061013990826102ea565b5060408051808201909152600481526315d2531360e21b602082015260109061016290826102ea565b505060118054600160ff19909116811790915580546001600160a01b0319166001600160a01b038516908117909155604051633a8f06ab60e21b815230600482015290915063ea3c1aac906024015f604051808303815f87803b1580156101c7575f80fd5b505af11580156101d9573d5f803e3d5ffd5b50505050505050506103a9565b80516001600160a01b03811681146101fc575f80fd5b919050565b5f8060408385031215610212575f80fd5b61021b836101e6565b9150610229602084016101e6565b90509250929050565b5f60208284031215610242575f80fd5b61024b826101e6565b9392505050565b634e487b7160e01b5f52604160045260245ffd5b600181811c9082168061027a57607f821691505b60208210810361029857634e487b7160e01b5f52602260045260245ffd5b50919050565b601f8211156102e557805f5260205f20601f840160051c810160208510156102c35750805b601f840160051c820191505b818110156102e2575f81556001016102cf565b50505b505050565b81516001600160401b0381111561030357610303610252565b610317816103118454610266565b8461029e565b602080601f83116001811461034a575f84156103335750858301515b5f19600386901b1c1916600185901b1785556103a1565b5f85815260208120601f198616915b8281101561037857888601518255948401946001909101908401610359565b508582101561039557878501515f19600388901b60f8161c191681555b505060018460011b0185555b505050505050565b615b34806103b65f395ff3fe608060405234801561000f575f80fd5b50600436106102fe575f3560e01c806378adc79011610195578063af1b55b0116100e4578063e985e9c51161009e578063f242432a11610079578063f242432a14610769578063f6355a561461077c578063f77914c31461078f578063f87cc6b3146107a2575f80fd5b8063e985e9c51461070b578063eef2e75714610736578063f039a73314610756575f80fd5b8063af1b55b01461068d578063b29eb75c146106a0578063b390c0ab146106b3578063bd85b039146106c6578063bfad25e5146106e5578063e0051aa9146106f8575f80fd5b806395d89b411161014f578063a0ce552d1161012a578063a0ce552d14610627578063a22cb4651461063a578063a5541c841461064d578063a6bfbc201461066d575f80fd5b806395d89b41146105f957806399f4568914610601578063a076225314610614575f80fd5b806378adc79014610587578063791ddaf91461059a5780637d11e682146105ad5780637e44bffe146105c05780637f33d800146105d357806385752d03146105e6575f80fd5b80631f01784111610251578063535e98911161020b57806362593f60116101e657806362593f601461054657806367c394fb1461055957806368dc27471461056c578063765063e514610574575f80fd5b8063535e98911461050d5780635ac8260c146105205780635b4a26ed14610533575f80fd5b80631f0178411461047657806320f944271461048957806328ca8e261461049c5780632eb2c2d6146104af57806345bbbf84146104c25780634e1273f4146104ed575f80fd5b80630ffd3910116102bc578063150d503d11610297578063150d503d1461041d5780631a61eda61461043d5780631b2ef1ca146104505780631e9b388d14610463575f80fd5b80630ffd3910146103d8578063114b6e49146103eb57806313e75206146103fe575f80fd5b8062fdd58e1461030257806301ffc9a71461034157806306fdde03146103815780630d78d0c1146103965780630e89341c146103ab5780630f336348146103be575b5f80fd5b61032e610310366004614bbb565b679a31110384e0b0c96020526014919091525f908152604090205490565b6040519081526020015b60405180910390f35b61037161034f366004614be5565b6301ffc9a760e09190911c90811463d9b67a26821417630e89341c9091141790565b6040519015158152602001610338565b6103896107b5565b6040516103389190614c3a565b6103a96103a4366004614c4c565b610841565b005b6103896103b9366004614c4c565b61084d565b61032e6103cc366004614c63565b6001600160a01b031690565b61032e6103e6366004614c7e565b61087e565b61032e6103f9366004614e29565b61095e565b61032e61040c366004614c4c565b5f9081526006602052604090205490565b61043061042b366004614bbb565b610aba565b6040516103389190614f19565b61032e61044b366004614f7f565b610c57565b6103a961045e366004614f7f565b610ca1565b61032e610471366004614f7f565b610caf565b6103a9610484366004614bbb565b610d2a565b61032e610497366004614f7f565b610da1565b6103a96104aa366004614f9f565b610dc3565b6103a96104bd366004615062565b610eae565b6104d56104d0366004615118565b611167565b6040516001600160a01b039091168152602001610338565b6105006104fb366004615146565b611252565b60405161033891906151e6565b6002546104d5906001600160a01b031681565b6103a961052e366004614c63565b6112bf565b6103a96105413660046151f8565b61134b565b610371610554366004614bbb565b61174e565b61032e610567366004614c4c565b611899565b6104d56118a3565b61032e610582366004614c4c565b611a75565b6001546104d5906001600160a01b031681565b6103a96105a8366004614f7f565b611a8c565b6104d56105bb366004614c4c565b611ae4565b61032e6105ce366004614c4c565b611b03565b61032e6105e1366004614f7f565b611b16565b6103716105f4366004614bbb565b611b9d565b610389611bba565b61050061060f366004614c4c565b611bc7565b61032e610622366004614c4c565b611c26565b61032e610635366004614c4c565b611c7e565b6103a9610648366004615248565b611dd7565b61066061065b366004615274565b611df0565b6040516103389190615521565b61068061067b366004615118565b611e9f565b6040516103389190615583565b61032e61069b366004614c63565b6121d9565b6103a96106ae366004615595565b612285565b61032e6106c1366004614f7f565b612300565b61032e6106d4366004614c4c565b5f9081526004602052604090205490565b61032e6106f3366004614c4c565b61230b565b6104d5610706366004614c4c565b612315565b6103716107193660046155e0565b679a31110384e0b0c96020526014919091525f526034600c205490565b610749610744366004614c4c565b612331565b604051610338919061560c565b6103a9610764366004614f7f565b612399565b6103a961077736600461561e565b612484565b61050061078a366004614c4c565b61264c565b61032e61079d366004614c4c565b612758565b6106606107b03660046155e0565b612780565b600f80546107c290615694565b80601f01602080910402602001604051908101604052809291908181526020018280546107ee90615694565b80156108395780601f1061081057610100808354040283529160200191610839565b820191905f5260205f20905b81548152906001019060200180831161081c57829003601f168201915b505050505081565b61084a8161286f565b50565b6060610858826129e2565b60405160200161086891906156c6565b6040516020818303038152906040529050919050565b5f8481526006602052604081205484146108ab57604051635f12529560e01b815260040160405180910390fd5b5f6108e46108b886612315565b5f87815260066020526040902054679a31110384e0b0c96020526014919091525f908152604090205490565b679a31110384e0b0c9602090815260148590525f878152604080822054600790935290205491925090633b9aca008211610923575f9350505050610956565b5f6109308461271061572d565b8261093b898661572d565b610945919061572d565b61094f9190615758565b9450505050505b949350505050565b60035460405163333cabc560e01b81525f9182916001600160a01b039091169063333cabc5906109969089908990899060040161576b565b6020604051808303815f875af11580156109b2573d5f803e3d5ffd5b505050506040513d601f19601f820116820180604052508101906109d691906157ad565b90506109e18761230b565b5f8181526008602052604090208281554260019091015591508215610a1357610a0e83633b9aca0061572d565b610a1a565b64e8d4a510005b5f8381526007602052604081200155604080515f81526020810183905283917fe48aa5e298e92f05c7b7489cb783dd272acece1ed2b7aae5007022513a997611910160405180910390a25f82815260076020526040812083917f0ad1727523f8a97d260a40299bd81a21bbcdb605a771d1390f8fa163b2632caf918101546040805192835260208301919091520160405180910390a25095945050505050565b5f818152600560209081526040808320805482518185028101850190935280835260609493830182828015610b0c57602002820191905f5260205f20905b815481526020019060010190808311610af8575b5050505050905080516001600160401b03811115610b2c57610b2c614cbc565b604051908082528060200260200182016040528015610b6557816020015b610b52614a89565b815260200190600190039081610b4a5790505b5091505f5b8151811015610c4e575f8585848481518110610b8857610b88615705565b6020026020010151604051602001610ba2939291906157c4565b60408051601f1981840301815291815281516020928301205f818152600a9093529082209092500154848381518110610bdd57610bdd615705565b60200260200101515f60028110610bf657610bf6615705565b602090810291909101919091525f828152600a9091526040902060010154848381518110610c2657610c26615705565b6020026020010151600160028110610c4057610c40615705565b602002015250600101610b6a565b50505b92915050565b5f808383604051602001610c75929190918252602082015260400190565b60408051808303601f1901815291815281516020928301205f908152600a909252902054949350505050565b610cab8282612a71565b5050565b5f8181526004602052604081205415610d21575f82815260046020526040902054610d08610cdc84612315565b5f85815260066020526040902054679a31110384e0b0c96020526014919091525f908152604090205490565b610d12908561572d565b610d1c9190615758565b610d23565b5f5b9392505050565b600c546001600160a01b0316610d3e612add565b6001600160a01b031614610d65576040516385ea10fd60e01b815260040160405180910390fd5b80600103610d865760405163023ad70560e31b815260040160405180910390fd5b6001600160a01b039091165f908152600b6020526040902055565b600a602052815f5260405f208160038110610dba575f80fd5b01549150829050565b6001546001600160a01b03163314610dee57604051630fc714ab60e01b815260040160405180910390fd5b610df88183611b9d565b15610e96576001600160a01b038181165f818152600960208181526040832080546001810182559084529083200180546001600160a01b03191694881694909417909355908490610e4991906157ee565b815260208082019290925260409081015f90812080546001810182559082528382200180546001600160a01b0319166001600160a01b0388169081179091558152600490925290205f1990555b610ea96001600160a01b03841683612b23565b505050565b60115460ff1615610f5957610f5988888888808060200260200160405190810160405280939291908181526020018383602002808284375f9201919091525050604080516020808c0282810182019093528b82529093508b92508a9182918501908490808284375f9201919091525050604080516020601f8b0181900481028201810190925289815292508991508890819084018382808284375f92019190915250612c2b92505050565b828514610f6d57633b800a465f526004601cfd5b8760601b679a31110384e0b0c9178760601b679a31110384e0b0c917816020528160601c99508060601c985088610fab5763ea553b345f526004601cfd5b893314610fcc57335f526034600c2054610fcc57634b6e7f185f526004601cfd5b8660051b5b8015611039576020810390508087013583602052818a01355f5260405f208054808311156110065763f4d678b85f526004601cfd5b8290039055602083905260405f2080548083018181101561102e576301336cea5f526004601cfd5b90915550610fd19050565b505050604051604081528560051b602001604082018160208a03823781604001602084015281602088038383013750888a337f4a39dc06d4c0dbc64b70af90fd698a233a518aa5d07e595d983b8c0526c8f7fb60408586010186a4505061109d5f90565b156110b2576110b28888888888888888612eea565b863b1561115d57865f5260405163bc197c81815233602082015288604082015260a060608201528560051b60200160c082018160208a0382378160a001806080850152826020890384840137820160a084015260208401601f19860183800183013750808101830160c401905060208282601c85015f80515af161113e573d1561113e573d5f833e3d82fd5b50805163bc197c8160e01b1461115b57639c05499b5f526004601cfd5b505b5050505050505050565b5f6111728284611b9d565b61118f576040516359c5ba6f60e11b815260040160405180910390fd5b6001546040516311eb232d60e21b8152336004820152602481018590526001600160a01b038481166044830152909116906347ac8cb4906064016020604051808303815f875af11580156111e5573d5f803e3d5ffd5b505050506040513d601f19601f820116820180604052508101906112099190615801565b905082826001600160a01b0316826001600160a01b03167fcc812fbe8760ac7f5d76dc25596b5575304a089699833975adb3e253e8c627bd60405160405180910390a492915050565b606083821461126857633b800a465f526004601cfd5b6040519050818152602081018260051b8181016040525b80156112b557602081039050808701358060601b679a31110384e0b0c91760205250808501355f5260405f20548183015261127f565b5050949350505050565b600c5f01546001600160a01b031633146112ec576040516330e1d31f60e21b815260040160405180910390fd5b600d546001600160a01b038281169116036113295750600d8054600c80546001600160a01b03199081166001600160a01b03841617909155169055565b600d80546001600160a01b0319166001600160a01b0392909216919091179055565b5f8281526006602052604090205482900361137957604051638c9b017f60e01b815260040160405180910390fd5b5f61138b611385612add565b84611b9d565b600e549091506001600160a01b03161580156113a5575080155b156113c357604051639db14b6d60e01b815260040160405180910390fd5b5f6113ea6113cf612add565b679a31110384e0b0c96020526014525f858152604090205490565b5f858152600460205260409020549091506114089061271090615758565b61142e611413612add565b679a31110384e0b0c96020526014525f868152604090205490565b101561144d5760405163ccf7064560e01b815260040160405180910390fd5b61145684611899565b505f6114636103cc612add565b5f868152600560209081526040808320805482518185028101850190935280835294955092939092918301828280156114b957602002820191905f5260205f20905b8154815260200190600101908083116114a5575b5050600e549394505f938493506001600160a01b031691506114dd9050575f6114e0565b60025b60ff1690505b86518110156116bd575f87828151811061150257611502615705565b602002602001015190505f898683604051602001611533939291909283526020830191909152604082015260600190565b60408051601f198184030181529190528051602090910120600e549091506001600160a01b0316158015906115655750875b801561157e57505f818152600a60205260409020548214155b1561159c5760405163475b00dd60e01b815260040160405180910390fd5b871580156115a957505f82115b156115c75760405163475b00dd60e01b815260040160405180910390fd5b6001831161169657815f036115dd5750506116b5565b825f03611630576115ec612add565b6001600160a01b03168a7f94fb6835215c8e232fdf6bf21658d380697cc552a12a1df09d8cc98fe0d9b88f8460405161162791815260200190565b60405180910390a35b8260010361168457611640612add565b6001600160a01b03168a7f838e39ec3c38514252e486b7ee525a1748e7fc6118536c7640dbbdd2de2fec9c8460405161167b91815260200190565b60405180910390a35b6116918a83858a85612eef565b6116b2565b6116a58a8784868d518a612fe0565b6116af82856157ee565b93505b50505b6001016114e6565b60038751101580156116ce57508115155b80156116dc57508161271014155b156116fa57604051630442bea560e31b815260040160405180910390fd5b61170384612315565b6001600160a01b0316887f8a7531c5a0d68e6295c0d0683ce089e87c3556caf900a8e2d1c558d348bbd8728960405161173c91906151e6565b60405180910390a35050505050505050565b5f61175c8361031084612758565b60011461177c5760405163148fe22160e11b815260040160405180910390fd5b611784612add565b6001600160a01b0316836001600160a01b0316036117b8576117b0836117a984612758565b6001613134565b506001610c51565b6003546001600160a01b03166389160e0e846117d385611b03565b6040516001600160e01b031960e085901b1681526001600160a01b0390921660048301526024820152604401602060405180830381865afa15801561181a573d5f803e3d5ffd5b505050506040513d601f19601f8201168201806040525081019061183e919061581c565b15905061184a82612758565b9150801561185e5761185e83836001613134565b60405182906001600160a01b038516907f3ac963493df564de734d98633f1145d21512e282ba4c02d3c1011119bf7f2862905f90a392915050565b5f610c51826131e1565b600c545f906001600160a01b0316156118cf5760405163bdc7d58160e01b815260040160405180910390fd5b60015460025460405163bfad25e560e01b81526001600160a01b03918216600482015291169063bd8f46f990309063bfad25e5906024016020604051808303815f875af1158015611922573d5f803e3d5ffd5b505050506040513d601f19601f8201168201806040525081019061194691906157ad565b6040518263ffffffff1660e01b815260040161196491815260200190565b6020604051808303815f875af1158015611980573d5f803e3d5ffd5b505050506040513d601f19601f820116820180604052508101906119a49190615801565b600c5f0180546001600160a01b0319166001600160a01b03928316179055600354604080516301abf02960e51b81529051919092169163357e0520916004808301925f92919082900301818387803b1580156119fe575f80fd5b505af1158015611a10573d5f803e3d5ffd5b505050507ff890fc28c3f9900b0f626f2dbd8913e1cb84a7d771c3ca70f19ac3ed52cfde12600c5f60028110611a4857611a48615705565b01546040516001600160a01b03909116815260200160405180910390a150600c546001600160a01b031690565b5f818152600760205260408120815b015492915050565b5f611a968361264c565b90505f5b8151811015611ace57611ac6828281518110611ab857611ab8615705565b602002602001015184610ca1565b600101611a9a565b8015611ade57611ade8484610ca1565b50505050565b600c8160028110611af3575f80fd5b01546001600160a01b0316905081565b5f81815260086020526040812081611a84565b5f80611b218461264c565b90505f805b8251811015611b93578060018451611b3e9190615837565b611b489190615837565b9150828281518110611b5c57611b5c615705565b602002602001015195508560065f8881526020019081526020015f20540315611b9357611b898587610caf565b9450600101611b26565b5092949350505050565b5f6001611bad8461031085612758565b10610c5157506001610c51565b601080546107c290615694565b5f81815260056020908152604091829020805483518184028101840190945280845260609392830182828015611c1a57602002820191905f5260205f20905b815481526020019060010190808311611c06575b50505050509050919050565b5f80611c318361264c565b9050600191505b8051821015611c6f57611c63818381518110611c5657611c56615705565b6020026020010151611c7e565b50816001019150611c38565b611c7883611899565b50610d23835b5f81815260066020526040812054808203611cac57604051636d9430a960e11b815260040160405180910390fd5b5f81815260066020526040902054819003611cc957505f92915050565b611cd281611899565b50604080516020808201869052818301849052825180830384018152606090920190925280519101205f611d23611d0884612315565b679a31110384e0b0c96020526014525f848152604090205490565b5f838152600a6020526040902090915060010154611d419042615837565b5f838152600a6020526040902054611d59919061572d565b935080841115611d67578093505b5f828152600a602052604090204290600101558315611dcf57611dcf611d8c84612315565b611d9587612315565b8587604051602001611dbb906d3932b234b9ba3934b13aba34b7b760911b8152600e0190565b6040516020818303038152906040526132af565b505050919050565b604051633ac4266d60e11b815260040160405180910390fd5b606081516001600160401b03811115611e0b57611e0b614cbc565b604051908082528060200260200182016040528015611e4457816020015b611e31614aa7565b815260200190600190039081611e295790505b5090505f5b8251811015611e9957611e74838281518110611e6757611e67615705565b60200260200101516132bd565b828281518110611e8657611e86615705565b6020908102919091010152600101611e49565b50919050565b611ea7614aa7565b611eb0836132bd565b90506001600160a01b03821615610c5157679a31110384e0b0c960205260148290525f8381526040902054611ee9906129e2565b6129e2565b815161012001525f611f04846001600160a01b0385166157ee565b5f8181526009602052604090205490915015611f5b575f8181526009602052604081208054611f539290611f3a57611f3a615705565b5f918252602090912001546001600160a01b03166135e3565b825161014001525b60408051600180825281830190925290816020015b6040805180820190915260608082526020820152815260200190600190039081611f7057505060c08301525f848152600560205260409020546001600160401b03811115611fc057611fc0614cbc565b604051908082528060200260200182016040528015611ff957816020015b611fe6614aea565b815260200190600190039081611fde5790505b508260c001515f8151811061201057612010615705565b602090810291909101810151919091525f858152600590915260409020546001600160401b0381111561204557612045614cbc565b60405190808252806020026020018201604052801561207857816020015b60608152602001906001900390816120635790505b508260c001515f8151811061208f5761208f615705565b6020026020010151602001819052505f5b5f85815260056020526040902054811015610c4e575f8581526007602052604081206120ce915b01546129e2565b8360c001515f815181106120e4576120e4615705565b60200260200101515f0151828151811061210057612100615705565b602002602001015160016002811061211a5761211a615705565b60200201819052505f848660055f8981526020019081526020015f20848154811061214757612147615705565b905f5260205f200154604051602001612162939291906157c4565b60408051601f1981840301815291815281516020928301205f818152600a909352908220909250612192916120c7565b8460c001515f815181106121a8576121a8615705565b60200260200101516020015183815181106121c5576121c5615705565b6020908102919091010152506001016120a0565b5f816001600160a01b03163b5f0361220457604051637dc5186f60e01b815260040160405180910390fd5b506001600160a01b0381165f818152600660205260409020541561223b57604051633293a2cf60e01b815260040160405180910390fd5b6122458182612b23565b5f8081546122529061584a565b9091555060405181907f4bc7a1fd073ebdf928da09f58ed29b779ed99b26bddee327e87d0be21af8594f905f90a2919050565b600e80546001600160a01b0319166001600160a01b0383161790556122aa838361134b565b600e80546001600160a01b03191690556040516001600160a01b0382168152839033907f081dd7a021608cb1e85f93c3e497da26967bb26442035ffc020ba466aed4049d906020015b60405180910390a3505050565b5f610d2383836135f9565b5f610c518261390b565b5f6001600160a01b03821161232a5781610c51565b5f92915050565b5f81815260096020908152604091829020805483518184028101840190945280845260609392830182828015611c1a57602002820191905f5260205f20905b81546001600160a01b031681526001909101906020018083116123705750505050509050919050565b5f8281526006602052604081205490036123c65760405163bd23392760e01b815260040160405180910390fd5b5f6123d08361264c565b90505f805b82518110156124725780600184516123ed9190615837565b6123f79190615837565b915083612420612405612add565b679a31110384e0b0c96020526014525f878152604090205490565b101561243f57604051632f72e11160e21b815260040160405180910390fd5b6124498585612300565b935082828151811061245d5761245d615705565b602002602001015194508060010190506123d5565b5061247d8484612300565b5050505050565b60115460ff16156125015761250186866124b1876040805180820190915260018152602081019190915290565b60408051808201909152600181526020810188905286868080601f0160208091040260200160405190810160405280939291908181526020018383808284375f92019190915250612c2b92505050565b8560601b679a31110384e0b0c9178560601b679a31110384e0b0c917816020528160601c97508060601c96508661253f5763ea553b345f526004601cfd5b87331461256057335f526034600c205461256057634b6e7f185f526004601cfd5b855f5260405f2091508154808611156125805763f4d678b85f526004601cfd5b8581038355508060205260405f2091508154858101818110156125aa576301336cea5f526004601cfd5b909255505060208390528486335f80516020615adf83398151915260405fa4843b156126445760405163f23a6e61815233602082015286604082015284606082015283608082015260a080820152816020016020840360c08301376020818360c401601c84015f8a5af1612626573d15612626573d5f823e3d81fd5b805163f23a6e6160e01b1461264257639c05499b5f526004601cfd5b505b505050505050565b5f818152600660205260409020546060906001905b61266c8460016157ee565b81106126a6575f8181526006602052604090205481146126a65761268f8261584a565b5f9182526006602052604090912054909150612661565b816001600160401b038111156126be576126be614cbc565b6040519080825280602002602001820160405280156126e7578160200160208202803683370190505b5092505f90505b81811015612751575f848152600660205260409020548360016127118486615837565b61271b9190615837565b8151811061272b5761272b615705565b6020908102919091018101919091525f94855260069052604090932054926001016126ee565b5050919050565b5f6804e1003b28d928000082111561277c57610c51678ac7230489e8000083615862565b5090565b6001600160a01b0382165f81815260096020526040902054606091906001600160401b038111156127b3576127b3614cbc565b6040519080825280602002602001820160405280156127ec57816020015b6127d9614aa7565b8152602001906001900390816127d15790505b5091505f5b5f82815260096020526040902054811015610c4e575f828152600960205260409020805461284a91612844918490811061282d5761282d615705565b5f918252602090912001546001600160a01b031690565b85611e9f565b83828151811061285c5761285c615705565b60209081029190910101526001016127f1565b5f81815260066020526040812054900361289c57604051634825e09360e01b815260040160405180910390fd5b5f818152600660205260409020548190036128ca5760405163bd23392760e01b815260040160405180910390fd5b5f818152600460205260409020546001016128f857604051630cf32f7560e21b815260040160405180910390fd5b612909612903612add565b82611b9d565b15612927576040516340803a5f60e11b815260040160405180910390fd5b6003546001600160a01b03166389160e0e612940612add565b61294984611b03565b6040516001600160e01b031960e085901b1681526001600160a01b0390921660048301526024820152604401602060405180830381865afa158015612990573d5f803e3d5ffd5b505050506040513d601f19601f820116820180604052508101906129b4919061581c565b6129d15760405163b2cab42960e01b815260040160405180910390fd5b61084a6129dc612add565b82613a48565b60605f6129ee83613b05565b60010190505f816001600160401b03811115612a0c57612a0c614cbc565b6040519080825280601f01601f191660200182016040528015612a36576020820181803683370190505b5090508181016020015b5f19016f181899199a1a9b1b9c1cb0b131b232b360811b600a86061a8153600a8504945084612a4057509392505050565b5f828152600660205260408120549003612a9e57604051635f12529560e01b815260040160405180910390fd5b610cab612aa9612add565b8383604051602001612ac9906766756e6769626c6560c01b815260080190565b604051602081830303815290604052613bdc565b5f80356001600160e01b031916632ca7add760e21b148015612b095750600e546001600160a01b031615155b15612b1e5750600e546001600160a01b031690565b503390565b5f8281526006602052604090205415612b4f5760405163731918fb60e11b815260040160405180910390fd5b5f828152600660205260409020819055818114610cab575f8181526005602090815260408220805460018101825590835290822001839055600990612b938361264c565b5f81518110612ba457612ba4615705565b602002602001015181526020019081526020015f20612bc283612315565b8154600180820184555f938452602080852090920180546001600160a01b0319166001600160a01b0394909416939093179092558483526004905260409091205401612c0c575050565b505f90815260076020526040902064e8d4a51000815542600290910155565b6304ed360560e51b5f356001600160e01b031916011561247d575f5b8084511115612644575f848281518110612c6357612c63615705565b602002602001015190505f848381518110612c8057612c80615705565b602002602001015190505f6001600160a01b0316886001600160a01b031614158015612cb457506001600160a01b03871615155b8015612ccb57505f82815260066020526040902054155b15612ce95760405163ce2d28e160e01b815260040160405180910390fd5b678ac7230489e80000821015612da8575f356001600160e01b031916630d78d0c160e01b141580612d2c57505f356001600160e01b031916630312c9fb60e51b14155b80612d4957505f356001600160e01b031916630af1b55b60e41b14155b80612d6657505f356001600160e01b03191663114b6e4960e01b14155b80612d8357505f356001600160e01b03191663bfad25e560e01b14155b612da057604051630dbd110f60e21b815260040160405180910390fd5b50505061247d565b5f356001600160e01b031916630d9778e560e11b1480612dd957505f356001600160e01b03191663791ddaf960e01b145b15612ee0575f82815260066020526040902054829003612e9557612dfc82612315565b6040516323b872dd60e01b81526001600160a01b0389811660048301523060248301526044820184905291909116906323b872dd906064016020604051808303815f875af1158015612e50573d5f803e3d5ffd5b505050506040513d601f19601f82011682018060405250810190612e74919061581c565b612e905760405162916a1960e51b815260040160405180910390fd5b612ee0565b6011805460ff19169055612ed2612eaa612add565b612eb384612315565b5f85815260066020526040812054908590610777906001903681615875565b6011805460ff191660011790555b5050600101612c47565b61115d565b831561247d57604080516020808201889052818301879052825180830384018152606090920183528151918101919091205f848152600a909252919020600101544203612f4f5760405163d445b7c360e01b815260040160405180910390fd5b835f03612f6857612f638683838887613c50565b612f75565b612f758683838887613e3a565b5f828152600a60209081526040808320426001918201556005835281842080549182018155845292829020909201879055905182815287917fb9fabdd20442c18b28ad124d92670b92dbc9b763d12cd509698e84d798e84cfb910160405180910390a2505050505050565b612feb600283615837565b81511461300b57604051631b9103a360e11b815260040160405180910390fd5b5f85878361301a600288615837565b8151811061302a5761302a615705565b6020026020010151604051602001613044939291906157c4565b60408051808303601f1901815291815281516020928301205f818152600a9093529120549091506127108611801561307a575080155b15613086575050612644565b6127108611156130a95760405163bb82191f60e01b815260040160405180910390fd5b85811461115d5760408051606081018252878152426020808301919091525f828401819052858152600a909152919091206130e5916003614b11565b50613105836130f5600288615837565b81518110611c5657611c56615705565b5061115d83613115600288615837565b8151811061312557613125615705565b60200260200101518984613fcd565b5f8281526004602052604081208054839290613151908490615837565b90915550505f82815260066020526040902054821080156131795750678ac7230489e8000082115b1561319a5761318782611899565b50610ea9613193612add565b838361411e565b6131a583838361411e565b81836001600160a01b03167f23ff0e75edf108e3d0392d92e13e8c8a868ef19001bd49f9e94876dc46dff87f836040516122f391815260200190565b5f818152600660205260408120548290036131fd57505f919050565b5f828152600760205260409020805460029091015461321c9042615837565b613226919061572d565b9050805f0361323657505f919050565b5f8281526007602052604090204290600201556040516834b7333630ba34b7b760b91b602082015261327090839081908490602901612ac9565b817f695f517929cb0a761ce9f28118b11060d9646bcf6668b6fc3dfb89aaddce26e4826040516132a291815260200190565b60405180910390a2919050565b61247d5f868686868661412a565b6132c5614aa7565b6132ce826129e2565b8151525f8281526007602052604081206132e7916120c7565b8151602001526132fc611ee4610cdc84612315565b815160400152613311611ee4611d0884612315565b81516060015261332a611ee4836105e161141382612315565b815160800152613343611ee4836105e16108b882612315565b815160a001525f82815260086020526040812061335f916120c7565b815160c001525f828152600660209081526040808320548151808401879052808301829052825180820384018152606090910183528051908401208452600a909252909120546133b291611ee491611b16565b815160e001525f8281526007602052604090206133d09060026120c7565b815161010001525f828152600460205260409020546133ee906129e2565b815161016001526003545f8381526008602052604090819020549051631ba2a35b60e31b815260048101919091526001600160a01b039091169063dd151ad8906024015f60405180830381865afa15801561344b573d5f803e3d5ffd5b505050506040513d5f823e601f3d908101601f191682016040526134729190810190615945565b6040908101516020808401919091525f84815260098252829020805483518184028101840190945280845290918301828280156134d657602002820191905f5260205f20905b81546001600160a01b031681526001909101906020018083116134b8575b505050505060408201526001546009905f906134fc9085906001600160a01b03166157ee565b81526020019081526020015f2080548060200260200160405190810160405280929190818152602001828054801561355b57602002820191905f5260205f20905b81546001600160a01b0316815260019091019060200180831161353d575b505050505060808201525f8281526005602090815260409182902080548351818402810184019094528084526135c393928301828280156135b957602002820191905f5260205f20905b8154815260200190600101908083116135a5575b5050505050614295565b60608201526135d96135d48361264c565b614295565b60a0820152919050565b6060610c516001600160a01b0383166014614340565b5f8281526006602052604081205481036136265760405163bd23392760e01b815260040160405180910390fd5b5f838152600660205260409020548314613649576136448284610caf565b61364b565b815b5f848152600660205260409020549091508314613707573063f242432a61367185612315565b613679612add565b60065f8881526020019081526020015f2054856040516020016136a69063313ab93760e11b815260040190565b6040516020818303038152906040526040518663ffffffff1660e01b81526004016136d5959493929190615a59565b5f604051808303815f87803b1580156136ec575f80fd5b505af11580156136fe573d5f803e3d5ffd5b505050506138f9565b5f600b5f61371486612315565b6001600160a01b0316815260208101919091526040015f20541561376357600b5f61373e86612315565b6001600160a01b03166001600160a01b031681526020019081526020015f205461378e565b5f8052600b6020527fdf7de25b7f1fd6d0b5205f0e18f1f35bd7b8d84cce336588d184533ce43a6f76545b905061379a8184615758565b90505f6137a78285615837565b90508084116137c9576040516337b936ed60e11b815260040160405180910390fd5b6137d285612315565b60025460405163a9059cbb60e01b81526001600160a01b0391821660048201526024810185905291169063a9059cbb906044016020604051808303815f875af1158015613821573d5f803e3d5ffd5b505050506040513d601f19601f82011682018060405250810190613845919061581c565b80156138d9575061385585612315565b6001600160a01b031663a9059cbb61386b612add565b6040516001600160e01b031960e084901b1681526001600160a01b039091166004820152602481018490526044016020604051808303815f875af11580156138b5573d5f803e3d5ffd5b505050506040513d601f19601f820116820180604052508101906138d9919061581c565b6138f657604051632ebc317760e21b815260040160405180910390fd5b50505b610c51613904612add565b8484613134565b5f81815260066020526040812054810361392d5761392b61069b83612315565b505b61393e613938612add565b83611b9d565b15801561395857505f828152600660205260409020548214155b156139765760405163148fe22160e11b815260040160405180910390fd5b5f828152600460205260409020546001016139a457604051630cf32f7560e21b815260040160405180910390fd5b5f8081546139b19061584a565b909155506139c3633b9aca0044615862565b5f546139cf4285615837565b6139d99190615837565b6139e39190615837565b90506139f96139f182612315565b3060016144d9565b613a038183612b23565b333014613a1557613a156129dc612add565b6040513390839083907f907e845f974b1e16735c498eca2c72acd8c3d61c86675d4cab952054450ee358905f90a4919050565b5f8181526009602090815260408220805460018101825590835291200180546001600160a01b0319166001600160a01b038416179055613acc82613a8b83612758565b6040516bffffffffffffffffffffffff19606087901b1660208201526906d656d626572736869760b41b6034820152603e8101859052600190605e01612ac9565b60405181906001600160a01b038416907fbab4562ae868d1765ed8452e98bba908a974596c4babc3ada5e90e05e3f433fb905f90a35050565b5f8072184f03e93ff9f4daa797ed6e38ed64bf6a1f0160401b8310613b435772184f03e93ff9f4daa797ed6e38ed64bf6a1f0160401b830492506040015b6d04ee2d6d415b85acef81000000008310613b6f576d04ee2d6d415b85acef8100000000830492506020015b662386f26fc100008310613b8d57662386f26fc10000830492506010015b6305f5e1008310613ba5576305f5e100830492506008015b6127108310613bb957612710830492506004015b60648310613bcb576064830492506002015b600a8310610c515760010192915050565b613be884848484614531565b5f8381526004602052604081208054849290613c059084906157ee565b909155505060405182815283906001600160a01b038616907f25b428dfde728ccfaddad7e29e4ac23c24ed7fd1a6e3e3f91894a9a073f5dfff9060200160405180910390a350505050565b6001600160a01b03821080613cd45750600354604051631ba2a35b60e31b8152600481018490526001600160a01b039091169063dd151ad8906024015f60405180830381865afa158015613ca6573d5f803e3d5ffd5b505050506040513d5f823e601f3d908101601f19168201604052613ccd9190810190615945565b6040015151155b15613cf257604051639cd2c44760e01b815260040160405180910390fd5b613cff85858585856145dc565b5f85815260046020908152604080832054868452600a90925290912054613d2790600261572d565b111561247d576003546040516350885bc560e01b8152600481018790525f916001600160a01b0316906350885bc5906024016040805180830381865afa158015613d73573d5f803e3d5ffd5b505050506040513d601f19601f82011682018060405250810190613d979190615a9d565b50905080613db85760405163a74ab56560e01b815260040160405180910390fd5b613dc186611899565b505f86815260086020526040812087917fe48aa5e298e92f05c7b7489cb783dd272acece1ed2b7aae5007022513a99761191015460408051918252602082018790520160405180910390a2604080518082018252848152426020808301919091525f898152600890915291909120612642916002614b4b565b613e4785858585856145dc565b5f85815260046020908152604080832054868452600a90925290912054613e6f90600261572d565b111561247d576003546040516350885bc560e01b8152600481018790525f916001600160a01b0316906350885bc5906024016040805180830381865afa158015613ebb573d5f803e3d5ffd5b505050506040513d601f19601f82011682018060405250810190613edf9190615a9d565b50905080613f005760405163a74ab56560e01b815260040160405180910390fd5b613f0986611899565b505f8681526007602052604090205486907f0ad1727523f8a97d260a40299bd81a21bbcdb605a771d1390f8fa163b2632caf90613f4a86633b9aca0061572d565b6040805192835260208301919091520160405180910390a25f86815260076020526040902054613f89908790613f8486633b9aca0061572d565b6146c2565b604051806060016040528084633b9aca00613fa4919061572d565b81524260208083018290526040928301919091525f898152600790915220612642916003614b11565b604080516020808201869052818301859052825180830384018152606090920183528151918101919091205f848152600a9092529181205461401590869086906103e6612add565b5f848152600a60205260409020909150600101544210156140495760405163d445b7c360e01b815260040160405180910390fd5b5f838152600a60205260409020600201541561408e575f838152600a602052604080822060020154848352908220805491929091614088908490615837565b90915550505b5f828152600a6020526040812080548392906140ab9084906157ee565b90915550505f84815260076020526040812001545f838152600a60205260408120015411156140f3575f84815260076020526040812001545f838152600a6020526040812001555b5f918252600a6020526040808320426001918201819055948452922091820192909255600201555050565b610ea95f848484614926565b60115460ff1615614172576141728585614157866040805180820190915260018152602081019190915290565b60408051808201909152600181526020810187905285612c2b565b8460601b8460601b8061418c5763ea553b345f526004601cfd5b81679a31110384e0b0c9176020528760601b8281148115176141c257885f526034600c20546141c257634b6e7f185f526004601cfd5b50845f5260405f208054808611156141e15763f4d678b85f526004601cfd5b8590039055679a31110384e0b0c9811760205260405f20805480860181811015614212576301336cea5f526004601cfd5b808355505050836020528060601c8260601c335f80516020615adf83398151915260405fa450506142405f90565b15614281576142818585614267866040805180820190915260018152602081019190915290565b604080518082019091526001815260208101879052611ade565b833b156126445761264485858585856149ff565b60605f82516001600160401b038111156142b1576142b1614cbc565b6040519080825280602002602001820160405280156142e457816020015b60608152602001906001900390816142cf5790505b5090505f5b83518110156143395761431484828151811061430757614307615705565b60200260200101516129e2565b82828151811061432657614326615705565b60209081029190910101526001016142e9565b5092915050565b60605f61434e83600261572d565b6143599060026157ee565b6001600160401b0381111561437057614370614cbc565b6040519080825280601f01601f19166020018201604052801561439a576020820181803683370190505b509050600360fc1b815f815181106143b4576143b4615705565b60200101906001600160f81b03191690815f1a905350600f60fb1b816001815181106143e2576143e2615705565b60200101906001600160f81b03191690815f1a9053505f61440484600261572d565b61440f9060016157ee565b90505b6001811115614486576f181899199a1a9b1b9c1cb0b131b232b360811b85600f166010811061444357614443615705565b1a60f81b82828151811061445957614459615705565b60200101906001600160f81b03191690815f1a90535060049490941c9361447f81615ac9565b9050614412565b508315610d235760405162461bcd60e51b815260206004820181905260248201527f537472696e67733a20686578206c656e67746820696e73756666696369656e74604482015260640160405180910390fd5b8015159050679a31110384e0b0c960205282601452815f52806034600c2055805f525f1960601c8281168482167f17307eab39ab6107e8899845ad3d59bd9653f200f220920489ca2b5937696c3160205fa350505050565b60115460ff161561455e5761455e5f85614157866040805180820190915260018152602081019190915290565b8360601b806145745763ea553b345f526004601cfd5b679a31110384e0b0c960205284601452835f5260405f208054848101818110156145a5576301336cea5f526004601cfd5b808355505050826020528060601c5f335f80516020615adf83398151915260405fa450833b15611ade57611ade5f858585856149ff565b5f848152600a602052604081206001015411801561461957505f848152600a60205260409020600101545f86815260086020526040902060010154105b15614663575f848152600a602052604090206002015415614663575f848152600a60205260408082206002015485835290822080549192909161465d908490615837565b90915550505b60408051606081018252838152426020808301919091528183018490525f878152600a90915291909120614698916003614b11565b505f838152600a6020526040812080548392906146b69084906157ee565b90915550505050505050565b5f8381526005602090815260408083208054825181850281018501909352808352919290919083018282801561471557602002820191905f5260205f20905b815481526020019060010190808311614701575b5050505050905080515f0361472a5750505050565b5f805b82518110156147f1575f83828151811061474957614749615705565b60200260200101518760405160200161476c929190918252602082015260400190565b60408051808303601f1901815291815281516020928301205f818152600a90935291205490915061479d81856157ee565b9350633b9aca008111156147e7576147c0858481518110611c5657611c56615705565b505f876147cd888461572d565b6147d79190615758565b5f848152600a6020526040902055505b505060010161472d565b5060018111801561482857505f8581526007602052604090205461481990620186a090615758565b614826620186a083615758565b105b156148ae575f61486661483a87612315565b5f88815260066020526040902054679a31110384e0b0c96020526014919091525f908152604090205490565b61488d61487288612315565b679a31110384e0b0c96020526014525f888152604090205490565b6148979190615837565b90506148ac6148a587612315565b8783613134565b505b60408051606081018252848152426020808301829052828401919091525f8881526007909152919091206148e3916003614b11565b50604080518581526020810185905286917f0ad1727523f8a97d260a40299bd81a21bbcdb605a771d1390f8fa163b2632caf910160405180910390a25050505050565b60115460ff161561497c5761497c835f614953856040805180820190915260018152602081019190915290565b60408051808201909152600181526020810186905260405180602001604052805f815250612c2b565b8260601b80679a31110384e0b0c917602052808560601b148560601b15176149b857845f526034600c20546149b857634b6e7f185f526004601cfd5b825f5260405f208054808411156149d65763f4d678b85f526004601cfd5b83810382555050816020525f8160601c335f80516020615adf83398151915260405fa450611ade565b60405163f23a6e6181523360208201528560601b60601c604082015283606082015282608082015260a08082015281518060c08301528015614a4b578060e08301826020860160045afa505b6020828260c401601c85015f8a5af1614a6c573d15614a6c573d5f833e3d82fd5b50805163f23a6e6160e01b1461264457639c05499b5f526004601cfd5b60405180604001604052806002906020820280368337509192915050565b6040518060e00160405280614aba614b78565b81526020016060815260200160608152602001606081526020016060815260200160608152602001606081525090565b60405180604001604052806002905b6060815260200190600190039081614af95790505090565b8260038101928215614b3f579160200282015b82811115614b3f578251825591602001919060010190614b24565b5061277c929150614b93565b8260028101928215614b3f5791602002820182811115614b3f578251825591602001919060010190614b24565b60408051610180810190915260608152600b60208201614af9565b5b8082111561277c575f8155600101614b94565b6001600160a01b038116811461084a575f80fd5b5f8060408385031215614bcc575f80fd5b8235614bd781614ba7565b946020939093013593505050565b5f60208284031215614bf5575f80fd5b81356001600160e01b031981168114610d23575f80fd5b5f81518084528060208401602086015e5f602082860101526020601f19601f83011685010191505092915050565b602081525f610d236020830184614c0c565b5f60208284031215614c5c575f80fd5b5035919050565b5f60208284031215614c73575f80fd5b8135610d2381614ba7565b5f805f8060808587031215614c91575f80fd5b8435935060208501359250604085013591506060850135614cb181614ba7565b939692955090935050565b634e487b7160e01b5f52604160045260245ffd5b604051608081016001600160401b0381118282101715614cf257614cf2614cbc565b60405290565b604051601f8201601f191681016001600160401b0381118282101715614d2057614d20614cbc565b604052919050565b5f6001600160401b03821115614d4057614d40614cbc565b5060051b60200190565b5f82601f830112614d59575f80fd5b81356020614d6e614d6983614d28565b614cf8565b8083825260208201915060208460051b870101935086841115614d8f575f80fd5b602086015b84811015614dab5780358352918301918301614d94565b509695505050505050565b5f6001600160401b03821115614dce57614dce614cbc565b50601f01601f191660200190565b5f82601f830112614deb575f80fd5b8135614df9614d6982614db6565b818152846020838601011115614e0d575f80fd5b816020850160208301375f918101602001919091529392505050565b5f805f805f60a08688031215614e3d575f80fd5b853594506020808701356001600160401b0380821115614e5b575f80fd5b818901915089601f830112614e6e575f80fd5b8135614e7c614d6982614d28565b81815260059190911b8301840190848101908c831115614e9a575f80fd5b938501935b82851015614ec1578435614eb281614ba7565b82529385019390850190614e9f565b985050506040890135925080831115614ed8575f80fd5b614ee48a848b01614d4a565b95506060890135925080831115614ef9575f80fd5b5050614f0788828901614ddc565b95989497509295608001359392505050565b602080825282518282018190525f919060409081850190868401855b82811015614f72578151845f5b6002811015614f5f57825182529188019190880190600101614f42565b5050509284019290850190600101614f35565b5091979650505050505050565b5f8060408385031215614f90575f80fd5b50508035926020909101359150565b5f805f60608486031215614fb1575f80fd5b8335614fbc81614ba7565b9250602084013591506040840135614fd381614ba7565b809150509250925092565b5f8083601f840112614fee575f80fd5b5081356001600160401b03811115615004575f80fd5b6020830191508360208260051b850101111561501e575f80fd5b9250929050565b5f8083601f840112615035575f80fd5b5081356001600160401b0381111561504b575f80fd5b60208301915083602082850101111561501e575f80fd5b5f805f805f805f8060a0898b031215615079575f80fd5b883561508481614ba7565b9750602089013561509481614ba7565b965060408901356001600160401b03808211156150af575f80fd5b6150bb8c838d01614fde565b909850965060608b01359150808211156150d3575f80fd5b6150df8c838d01614fde565b909650945060808b01359150808211156150f7575f80fd5b506151048b828c01615025565b999c989b5096995094979396929594505050565b5f8060408385031215615129575f80fd5b82359150602083013561513b81614ba7565b809150509250929050565b5f805f8060408587031215615159575f80fd5b84356001600160401b038082111561516f575f80fd5b61517b88838901614fde565b90965094506020870135915080821115615193575f80fd5b506151a087828801614fde565b95989497509550505050565b5f815180845260208085019450602084015f5b838110156151db578151875295820195908201906001016151bf565b509495945050505050565b602081525f610d2360208301846151ac565b5f8060408385031215615209575f80fd5b8235915060208301356001600160401b03811115615225575f80fd5b61523185828601614d4a565b9150509250929050565b801515811461084a575f80fd5b5f8060408385031215615259575f80fd5b823561526481614ba7565b9150602083013561513b8161523b565b5f60208284031215615284575f80fd5b81356001600160401b03811115615299575f80fd5b61095684828501614d4a565b5f826101808101835f5b600c8110156152de5783830387526152c8838351614c0c565b60209788019790935091909101906001016152af565b509095945050505050565b5f815180845260208085019450602084015f5b838110156151db5781516001600160a01b0316875295820195908201906001016152fc565b5f8282518085526020808601955060208260051b840101602086015f5b8481101561536c57601f1986840301895261535a838351614c0c565b9884019892509083019060010161533e565b5090979650505050505050565b5f828251808552602080860195506005818360051b8501018287015f5b8581101561545b57601f19878403018a5281518051604080865281518187018190529091606082891b8801810192918a0191908801905f5b8181101561542c57898503605f190183528351858781015f5b6002811015615417578882038352615400828551614c0c565b91508f840193508f830192506001810190506153e7565b5096505050928b0192918b01916001016153ce565b505050509187015185830386890152916154468184615321565b9c88019c955050509185019150600101615396565b509098975050505050505050565b5f815160e0845261547d60e08501826152a5565b9050602083015184820360208601526154968282614c0c565b915050604083015184820360408601526154b082826152e9565b915050606083015184820360608601526154ca8282615321565b915050608083015184820360808601526154e482826152e9565b91505060a083015184820360a08601526154fe8282615321565b91505060c083015184820360c08601526155188282615379565b95945050505050565b5f60208083016020845280855180835260408601915060408160051b8701019250602087015f5b8281101561557657603f19888603018452615564858351615469565b94509285019290850190600101615548565b5092979650505050505050565b602081525f610d236020830184615469565b5f805f606084860312156155a7575f80fd5b8335925060208401356001600160401b038111156155c3575f80fd5b6155cf86828701614d4a565b9250506040840135614fd381614ba7565b5f80604083850312156155f1575f80fd5b82356155fc81614ba7565b9150602083013561513b81614ba7565b602081525f610d2360208301846152e9565b5f805f805f8060a08789031215615633575f80fd5b863561563e81614ba7565b9550602087013561564e81614ba7565b9450604087013593506060870135925060808701356001600160401b03811115615676575f80fd5b61568289828a01615025565b979a9699509497509295939492505050565b600181811c908216806156a857607f821691505b602082108103611e9957634e487b7160e01b5f52602260045260245ffd5b7f68747470733a2f2f77696c6c77652e78797a2f6d657461646174612f0000000081525f82518060208501601c85015e5f9201601c0191825250919050565b634e487b7160e01b5f52603260045260245ffd5b634e487b7160e01b5f52601160045260245ffd5b8082028115828204841417610c5157610c51615719565b634e487b7160e01b5f52601260045260245ffd5b5f8261576657615766615744565b500490565b606081525f61577d60608301866152e9565b828103602084015261578f81866151ac565b905082810360408401526157a38185614c0c565b9695505050505050565b5f602082840312156157bd575f80fd5b5051919050565b60609390931b6bffffffffffffffffffffffff191683526014830191909152603482015260540190565b80820180821115610c5157610c51615719565b5f60208284031215615811575f80fd5b8151610d2381614ba7565b5f6020828403121561582c575f80fd5b8151610d238161523b565b81810381811115610c5157610c51615719565b5f6001820161585b5761585b615719565b5060010190565b5f8261587057615870615744565b500690565b5f8085851115615883575f80fd5b8386111561588f575f80fd5b5050820193919092039150565b5f82601f8301126158ab575f80fd5b815160206158bb614d6983614d28565b8083825260208201915060208460051b8701019350868411156158dc575f80fd5b602086015b84811015614dab57805183529183019183016158e1565b5f82601f830112615907575f80fd5b8151615915614d6982614db6565b818152846020838601011115615929575f80fd5b8160208501602083015e5f918101602001919091529392505050565b5f6020808385031215615956575f80fd5b82516001600160401b038082111561596c575f80fd5b908401906080828703121561597f575f80fd5b615987614cd0565b825182811115615995575f80fd5b8301601f810188136159a5575f80fd5b80516159b3614d6982614d28565b81815260059190911b8201860190868101908a8311156159d1575f80fd5b928701925b828410156159f85783516159e981614ba7565b825292870192908701906159d6565b84525050508284015182811115615a0d575f80fd5b615a198882860161589c565b85830152506040830151935081841115615a31575f80fd5b615a3d878585016158f8565b6040820152606083015160608201528094505050505092915050565b6001600160a01b03868116825285166020820152604081018490526060810183905260a0608082018190525f90615a9290830184614c0c565b979650505050505050565b5f8060408385031215615aae575f80fd5b8251615ab98161523b565b6020939093015192949293505050565b5f81615ad757615ad7615719565b505f19019056fec3d58168c5ae7397731d063d5bbf3d657854427343f4c083240f7aacaa2d0f62a26469706673582212201a6f3c5006af7deedfe7035c791bea68c86b787c37ce2cd65d068db5fbcea03964736f6c63430008190033",
        "linkReferences": {}
    },
    "methodIdentifiers": {
        "Will()": "535e9891",
        "allMembersOf(uint256)": "eef2e757",
        "asRootValuation(uint256,uint256)": "7f33d800",
        "balanceOf(address,uint256)": "00fdd58e",
        "balanceOfBatch(address[],uint256[])": "4e1273f4",
        "burn(uint256,uint256)": "b390c0ab",
        "burnPath(uint256,uint256)": "f039a733",
        "calculateUserTargetedPreferenceAmount(uint256,uint256,uint256,address)": "0ffd3910",
        "control(uint256)": "7d11e682",
        "createEndpointForOwner(uint256,address)": "45bbbf84",
        "executionAddress()": "78adc790",
        "getAllNodesForRoot(address,address)": "f87cc6b3",
        "getChangePrevalence(uint256,uint256)": "1a61eda6",
        "getChildrenOf(uint256)": "99f45689",
        "getFidPath(uint256)": "f6355a56",
        "getMembraneOf(uint256)": "7e44bffe",
        "getNodeData(uint256,address)": "a6bfbc20",
        "getNodes(uint256[])": "a5541c84",
        "getParentOf(uint256)": "13e75206",
        "getUserNodeSignals(address,uint256)": "150d503d",
        "inParentDenomination(uint256,uint256)": "1e9b388d",
        "inflationOf(uint256)": "765063e5",
        "initSelfControl()": "68dc2747",
        "isApprovedForAll(address,address)": "e985e9c5",
        "isMember(address,uint256)": "85752d03",
        "localizeEndpoint(address,uint256,address)": "28ca8e26",
        "membershipEnforce(address,uint256)": "62593f60",
        "membershipID(uint256)": "f77914c3",
        "mint(uint256,uint256)": "1b2ef1ca",
        "mintInflation(uint256)": "67c394fb",
        "mintMembership(uint256)": "0d78d0c1",
        "mintPath(uint256,uint256)": "791ddaf9",
        "name()": "06fdde03",
        "options(bytes32,uint256)": "20f94427",
        "redistribute(uint256)": "a0ce552d",
        "redistributePath(uint256)": "a0762253",
        "resignal(uint256,uint256[],address)": "b29eb75c",
        "safeBatchTransferFrom(address,address,uint256[],uint256[],bytes)": "2eb2c2d6",
        "safeTransferFrom(address,address,uint256,uint256,bytes)": "f242432a",
        "sendSignal(uint256,uint256[])": "5b4a26ed",
        "setApprovalForAll(address,bool)": "a22cb465",
        "setControl(address)": "5ac8260c",
        "spawnNode(uint256)": "bfad25e5",
        "spawnNodeWithMembrane(uint256,address[],uint256[],string,uint256)": "114b6e49",
        "spawnRootNode(address)": "af1b55b0",
        "supportsInterface(bytes4)": "01ffc9a7",
        "symbol()": "95d89b41",
        "taxPolicyPreference(address,uint256)": "1f017841",
        "toAddress(uint256)": "e0051aa9",
        "toID(address)": "0f336348",
        "totalSupply(uint256)": "bd85b039",
        "uri(uint256)": "0e89341c"
    },
    "storageLayout": {
        "storage": [
            {
                "astId": 48218,
                "contract": "src/WillWe.sol:WillWe",
                "label": "entityCount",
                "offset": 0,
                "slot": "0",
                "type": "t_uint256"
            },
            {
                "astId": 48220,
                "contract": "src/WillWe.sol:WillWe",
                "label": "executionAddress",
                "offset": 0,
                "slot": "1",
                "type": "t_address"
            },
            {
                "astId": 48222,
                "contract": "src/WillWe.sol:WillWe",
                "label": "Will",
                "offset": 0,
                "slot": "2",
                "type": "t_address"
            },
            {
                "astId": 48225,
                "contract": "src/WillWe.sol:WillWe",
                "label": "M",
                "offset": 0,
                "slot": "3",
                "type": "t_contract(IMembrane)53773"
            },
            {
                "astId": 48230,
                "contract": "src/WillWe.sol:WillWe",
                "label": "totalSupplyOf",
                "offset": 0,
                "slot": "4",
                "type": "t_mapping(t_uint256,t_uint256)"
            },
            {
                "astId": 48236,
                "contract": "src/WillWe.sol:WillWe",
                "label": "childrenOf",
                "offset": 0,
                "slot": "5",
                "type": "t_mapping(t_uint256,t_array(t_uint256)dyn_storage)"
            },
            {
                "astId": 48241,
                "contract": "src/WillWe.sol:WillWe",
                "label": "parentOf",
                "offset": 0,
                "slot": "6",
                "type": "t_mapping(t_uint256,t_uint256)"
            },
            {
                "astId": 48248,
                "contract": "src/WillWe.sol:WillWe",
                "label": "inflSec",
                "offset": 0,
                "slot": "7",
                "type": "t_mapping(t_uint256,t_array(t_uint256)3_storage)"
            },
            {
                "astId": 48255,
                "contract": "src/WillWe.sol:WillWe",
                "label": "inUseMembraneId",
                "offset": 0,
                "slot": "8",
                "type": "t_mapping(t_uint256,t_array(t_uint256)2_storage)"
            },
            {
                "astId": 48261,
                "contract": "src/WillWe.sol:WillWe",
                "label": "members",
                "offset": 0,
                "slot": "9",
                "type": "t_mapping(t_uint256,t_array(t_address)dyn_storage)"
            },
            {
                "astId": 48268,
                "contract": "src/WillWe.sol:WillWe",
                "label": "options",
                "offset": 0,
                "slot": "10",
                "type": "t_mapping(t_bytes32,t_array(t_uint256)3_storage)"
            },
            {
                "astId": 48273,
                "contract": "src/WillWe.sol:WillWe",
                "label": "taxRate",
                "offset": 0,
                "slot": "11",
                "type": "t_mapping(t_address,t_uint256)"
            },
            {
                "astId": 48277,
                "contract": "src/WillWe.sol:WillWe",
                "label": "control",
                "offset": 0,
                "slot": "12",
                "type": "t_array(t_address)2_storage"
            },
            {
                "astId": 48279,
                "contract": "src/WillWe.sol:WillWe",
                "label": "impersonatingAddress",
                "offset": 0,
                "slot": "14",
                "type": "t_address"
            },
            {
                "astId": 48281,
                "contract": "src/WillWe.sol:WillWe",
                "label": "name",
                "offset": 0,
                "slot": "15",
                "type": "t_string_storage"
            },
            {
                "astId": 48283,
                "contract": "src/WillWe.sol:WillWe",
                "label": "symbol",
                "offset": 0,
                "slot": "16",
                "type": "t_string_storage"
            },
            {
                "astId": 48285,
                "contract": "src/WillWe.sol:WillWe",
                "label": "useBefore",
                "offset": 0,
                "slot": "17",
                "type": "t_bool"
            }
        ],
        "types": {
            "t_address": {
                "encoding": "inplace",
                "label": "address",
                "numberOfBytes": "20"
            },
            "t_array(t_address)2_storage": {
                "encoding": "inplace",
                "label": "address[2]",
                "numberOfBytes": "64",
                "base": "t_address"
            },
            "t_array(t_address)dyn_storage": {
                "encoding": "dynamic_array",
                "label": "address[]",
                "numberOfBytes": "32",
                "base": "t_address"
            },
            "t_array(t_uint256)2_storage": {
                "encoding": "inplace",
                "label": "uint256[2]",
                "numberOfBytes": "64",
                "base": "t_uint256"
            },
            "t_array(t_uint256)3_storage": {
                "encoding": "inplace",
                "label": "uint256[3]",
                "numberOfBytes": "96",
                "base": "t_uint256"
            },
            "t_array(t_uint256)dyn_storage": {
                "encoding": "dynamic_array",
                "label": "uint256[]",
                "numberOfBytes": "32",
                "base": "t_uint256"
            },
            "t_bool": {
                "encoding": "inplace",
                "label": "bool",
                "numberOfBytes": "1"
            },
            "t_bytes32": {
                "encoding": "inplace",
                "label": "bytes32",
                "numberOfBytes": "32"
            },
            "t_contract(IMembrane)53773": {
                "encoding": "inplace",
                "label": "contract IMembrane",
                "numberOfBytes": "20"
            },
            "t_mapping(t_address,t_uint256)": {
                "encoding": "mapping",
                "key": "t_address",
                "label": "mapping(address => uint256)",
                "numberOfBytes": "32",
                "value": "t_uint256"
            },
            "t_mapping(t_bytes32,t_array(t_uint256)3_storage)": {
                "encoding": "mapping",
                "key": "t_bytes32",
                "label": "mapping(bytes32 => uint256[3])",
                "numberOfBytes": "32",
                "value": "t_array(t_uint256)3_storage"
            },
            "t_mapping(t_uint256,t_array(t_address)dyn_storage)": {
                "encoding": "mapping",
                "key": "t_uint256",
                "label": "mapping(uint256 => address[])",
                "numberOfBytes": "32",
                "value": "t_array(t_address)dyn_storage"
            },
            "t_mapping(t_uint256,t_array(t_uint256)2_storage)": {
                "encoding": "mapping",
                "key": "t_uint256",
                "label": "mapping(uint256 => uint256[2])",
                "numberOfBytes": "32",
                "value": "t_array(t_uint256)2_storage"
            },
            "t_mapping(t_uint256,t_array(t_uint256)3_storage)": {
                "encoding": "mapping",
                "key": "t_uint256",
                "label": "mapping(uint256 => uint256[3])",
                "numberOfBytes": "32",
                "value": "t_array(t_uint256)3_storage"
            },
            "t_mapping(t_uint256,t_array(t_uint256)dyn_storage)": {
                "encoding": "mapping",
                "key": "t_uint256",
                "label": "mapping(uint256 => uint256[])",
                "numberOfBytes": "32",
                "value": "t_array(t_uint256)dyn_storage"
            },
            "t_mapping(t_uint256,t_uint256)": {
                "encoding": "mapping",
                "key": "t_uint256",
                "label": "mapping(uint256 => uint256)",
                "numberOfBytes": "32",
                "value": "t_uint256"
            },
            "t_string_storage": {
                "encoding": "bytes",
                "label": "string",
                "numberOfBytes": "32"
            },
            "t_uint256": {
                "encoding": "inplace",
                "label": "uint256",
                "numberOfBytes": "32"
            }
        }
    },
    "id": 57
}