{
    "abi": [
        {
            "type": "constructor",
            "inputs": [
                {
                    "name": "Execution",
                    "type": "address",
                    "internalType": "address"
                },
                {
                    "name": "Membrane",
                    "type": "address",
                    "internalType": "address"
                }
            ],
            "stateMutability": "nonpayable"
        },
        {
            "type": "function",
            "name": "Will",
            "inputs": [],
            "outputs": [
                {
                    "name": "",
                    "type": "address",
                    "internalType": "address"
                }
            ],
            "stateMutability": "view"
        },
        {
            "type": "function",
            "name": "allMembersOf",
            "inputs": [
                {
                    "name": "fid_",
                    "type": "uint256",
                    "internalType": "uint256"
                }
            ],
            "outputs": [
                {
                    "name": "",
                    "type": "address[]",
                    "internalType": "address[]"
                }
            ],
            "stateMutability": "view"
        },
        {
            "type": "function",
            "name": "asRootValuation",
            "inputs": [
                {
                    "name": "target_",
                    "type": "uint256",
                    "internalType": "uint256"
                },
                {
                    "name": "amount",
                    "type": "uint256",
                    "internalType": "uint256"
                }
            ],
            "outputs": [
                {
                    "name": "",
                    "type": "uint256",
                    "internalType": "uint256"
                }
            ],
            "stateMutability": "view"
        },
        {
            "type": "function",
            "name": "balanceOf",
            "inputs": [
                {
                    "name": "owner",
                    "type": "address",
                    "internalType": "address"
                },
                {
                    "name": "id",
                    "type": "uint256",
                    "internalType": "uint256"
                }
            ],
            "outputs": [
                {
                    "name": "result",
                    "type": "uint256",
                    "internalType": "uint256"
                }
            ],
            "stateMutability": "view"
        },
        {
            "type": "function",
            "name": "balanceOfBatch",
            "inputs": [
                {
                    "name": "owners",
                    "type": "address[]",
                    "internalType": "address[]"
                },
                {
                    "name": "ids",
                    "type": "uint256[]",
                    "internalType": "uint256[]"
                }
            ],
            "outputs": [
                {
                    "name": "balances",
                    "type": "uint256[]",
                    "internalType": "uint256[]"
                }
            ],
            "stateMutability": "view"
        },
        {
            "type": "function",
            "name": "burn",
            "inputs": [
                {
                    "name": "fid_",
                    "type": "uint256",
                    "internalType": "uint256"
                },
                {
                    "name": "amount_",
                    "type": "uint256",
                    "internalType": "uint256"
                }
            ],
            "outputs": [
                {
                    "name": "topVal",
                    "type": "uint256",
                    "internalType": "uint256"
                }
            ],
            "stateMutability": "nonpayable"
        },
        {
            "type": "function",
            "name": "burnPath",
            "inputs": [
                {
                    "name": "target_",
                    "type": "uint256",
                    "internalType": "uint256"
                },
                {
                    "name": "amount",
                    "type": "uint256",
                    "internalType": "uint256"
                }
            ],
            "outputs": [],
            "stateMutability": "nonpayable"
        },
        {
            "type": "function",
            "name": "calculateUserTargetedPreferenceAmount",
            "inputs": [
                {
                    "name": "childId",
                    "type": "uint256",
                    "internalType": "uint256"
                },
                {
                    "name": "parentId",
                    "type": "uint256",
                    "internalType": "uint256"
                },
                {
                    "name": "signal",
                    "type": "uint256",
                    "internalType": "uint256"
                },
                {
                    "name": "user",
                    "type": "address",
                    "internalType": "address"
                }
            ],
            "outputs": [
                {
                    "name": "",
                    "type": "uint256",
                    "internalType": "uint256"
                }
            ],
            "stateMutability": "view"
        },
        {
            "type": "function",
            "name": "control",
            "inputs": [
                {
                    "name": "",
                    "type": "uint256",
                    "internalType": "uint256"
                }
            ],
            "outputs": [
                {
                    "name": "",
                    "type": "address",
                    "internalType": "address"
                }
            ],
            "stateMutability": "view"
        },
        {
            "type": "function",
            "name": "createEndpointForOwner",
            "inputs": [
                {
                    "name": "nodeId_",
                    "type": "uint256",
                    "internalType": "uint256"
                },
                {
                    "name": "owner",
                    "type": "address",
                    "internalType": "address"
                }
            ],
            "outputs": [
                {
                    "name": "endpointAddress",
                    "type": "address",
                    "internalType": "address"
                }
            ],
            "stateMutability": "nonpayable"
        },
        {
            "type": "function",
            "name": "executionAddress",
            "inputs": [],
            "outputs": [
                {
                    "name": "",
                    "type": "address",
                    "internalType": "address"
                }
            ],
            "stateMutability": "view"
        },
        {
            "type": "function",
            "name": "getAllNodesForRoot",
            "inputs": [
                {
                    "name": "rootAddress",
                    "type": "address",
                    "internalType": "address"
                },
                {
                    "name": "userIfAny",
                    "type": "address",
                    "internalType": "address"
                }
            ],
            "outputs": [
                {
                    "name": "nodes",
                    "type": "tuple[]",
                    "internalType": "struct NodeState[]",
                    "components": [
                        {
                            "name": "basicInfo",
                            "type": "string[12]",
                            "internalType": "string[12]"
                        },
                        {
                            "name": "membraneMeta",
                            "type": "string",
                            "internalType": "string"
                        },
                        {
                            "name": "membersOfNode",
                            "type": "address[]",
                            "internalType": "address[]"
                        },
                        {
                            "name": "childrenNodes",
                            "type": "string[]",
                            "internalType": "string[]"
                        },
                        {
                            "name": "movementEndpoints",
                            "type": "address[]",
                            "internalType": "address[]"
                        },
                        {
                            "name": "rootPath",
                            "type": "string[]",
                            "internalType": "string[]"
                        },
                        {
                            "name": "signals",
                            "type": "tuple[]",
                            "internalType": "struct UserSignal[]",
                            "components": [
                                {
                                    "name": "MembraneInflation",
                                    "type": "string[2][]",
                                    "internalType": "string[2][]"
                                },
                                {
                                    "name": "lastRedistSignal",
                                    "type": "string[]",
                                    "internalType": "string[]"
                                }
                            ]
                        }
                    ]
                }
            ],
            "stateMutability": "view"
        },
        {
            "type": "function",
            "name": "getChangePrevalence",
            "inputs": [
                {
                    "name": "nodeId_",
                    "type": "uint256",
                    "internalType": "uint256"
                },
                {
                    "name": "signal_",
                    "type": "uint256",
                    "internalType": "uint256"
                }
            ],
            "outputs": [
                {
                    "name": "",
                    "type": "uint256",
                    "internalType": "uint256"
                }
            ],
            "stateMutability": "view"
        },
        {
            "type": "function",
            "name": "getChildrenOf",
            "inputs": [
                {
                    "name": "fid_",
                    "type": "uint256",
                    "internalType": "uint256"
                }
            ],
            "outputs": [
                {
                    "name": "",
                    "type": "uint256[]",
                    "internalType": "uint256[]"
                }
            ],
            "stateMutability": "view"
        },
        {
            "type": "function",
            "name": "getFidPath",
            "inputs": [
                {
                    "name": "fid_",
                    "type": "uint256",
                    "internalType": "uint256"
                }
            ],
            "outputs": [
                {
                    "name": "fids",
                    "type": "uint256[]",
                    "internalType": "uint256[]"
                }
            ],
            "stateMutability": "view"
        },
        {
            "type": "function",
            "name": "getMembraneOf",
            "inputs": [
                {
                    "name": "fid_",
                    "type": "uint256",
                    "internalType": "uint256"
                }
            ],
            "outputs": [
                {
                    "name": "",
                    "type": "uint256",
                    "internalType": "uint256"
                }
            ],
            "stateMutability": "view"
        },
        {
            "type": "function",
            "name": "getNodeData",
            "inputs": [
                {
                    "name": "nodeId",
                    "type": "uint256",
                    "internalType": "uint256"
                },
                {
                    "name": "user",
                    "type": "address",
                    "internalType": "address"
                }
            ],
            "outputs": [
                {
                    "name": "nodeData",
                    "type": "tuple",
                    "internalType": "struct NodeState",
                    "components": [
                        {
                            "name": "basicInfo",
                            "type": "string[12]",
                            "internalType": "string[12]"
                        },
                        {
                            "name": "membraneMeta",
                            "type": "string",
                            "internalType": "string"
                        },
                        {
                            "name": "membersOfNode",
                            "type": "address[]",
                            "internalType": "address[]"
                        },
                        {
                            "name": "childrenNodes",
                            "type": "string[]",
                            "internalType": "string[]"
                        },
                        {
                            "name": "movementEndpoints",
                            "type": "address[]",
                            "internalType": "address[]"
                        },
                        {
                            "name": "rootPath",
                            "type": "string[]",
                            "internalType": "string[]"
                        },
                        {
                            "name": "signals",
                            "type": "tuple[]",
                            "internalType": "struct UserSignal[]",
                            "components": [
                                {
                                    "name": "MembraneInflation",
                                    "type": "string[2][]",
                                    "internalType": "string[2][]"
                                },
                                {
                                    "name": "lastRedistSignal",
                                    "type": "string[]",
                                    "internalType": "string[]"
                                }
                            ]
                        }
                    ]
                }
            ],
            "stateMutability": "view"
        },
        {
            "type": "function",
            "name": "getNodes",
            "inputs": [
                {
                    "name": "nodeIds",
                    "type": "uint256[]",
                    "internalType": "uint256[]"
                }
            ],
            "outputs": [
                {
                    "name": "nodes",
                    "type": "tuple[]",
                    "internalType": "struct NodeState[]",
                    "components": [
                        {
                            "name": "basicInfo",
                            "type": "string[12]",
                            "internalType": "string[12]"
                        },
                        {
                            "name": "membraneMeta",
                            "type": "string",
                            "internalType": "string"
                        },
                        {
                            "name": "membersOfNode",
                            "type": "address[]",
                            "internalType": "address[]"
                        },
                        {
                            "name": "childrenNodes",
                            "type": "string[]",
                            "internalType": "string[]"
                        },
                        {
                            "name": "movementEndpoints",
                            "type": "address[]",
                            "internalType": "address[]"
                        },
                        {
                            "name": "rootPath",
                            "type": "string[]",
                            "internalType": "string[]"
                        },
                        {
                            "name": "signals",
                            "type": "tuple[]",
                            "internalType": "struct UserSignal[]",
                            "components": [
                                {
                                    "name": "MembraneInflation",
                                    "type": "string[2][]",
                                    "internalType": "string[2][]"
                                },
                                {
                                    "name": "lastRedistSignal",
                                    "type": "string[]",
                                    "internalType": "string[]"
                                }
                            ]
                        }
                    ]
                }
            ],
            "stateMutability": "view"
        },
        {
            "type": "function",
            "name": "getParentOf",
            "inputs": [
                {
                    "name": "fid_",
                    "type": "uint256",
                    "internalType": "uint256"
                }
            ],
            "outputs": [
                {
                    "name": "",
                    "type": "uint256",
                    "internalType": "uint256"
                }
            ],
            "stateMutability": "view"
        },
        {
            "type": "function",
            "name": "getUserNodeSignals",
            "inputs": [
                {
                    "name": "signalOrigin",
                    "type": "address",
                    "internalType": "address"
                },
                {
                    "name": "parentNodeId",
                    "type": "uint256",
                    "internalType": "uint256"
                }
            ],
            "outputs": [
                {
                    "name": "UserNodeSignals",
                    "type": "uint256[2][]",
                    "internalType": "uint256[2][]"
                }
            ],
            "stateMutability": "view"
        },
        {
            "type": "function",
            "name": "inParentDenomination",
            "inputs": [
                {
                    "name": "amt_",
                    "type": "uint256",
                    "internalType": "uint256"
                },
                {
                    "name": "id_",
                    "type": "uint256",
                    "internalType": "uint256"
                }
            ],
            "outputs": [
                {
                    "name": "inParentVal",
                    "type": "uint256",
                    "internalType": "uint256"
                }
            ],
            "stateMutability": "view"
        },
        {
            "type": "function",
            "name": "inflationOf",
            "inputs": [
                {
                    "name": "nodeId",
                    "type": "uint256",
                    "internalType": "uint256"
                }
            ],
            "outputs": [
                {
                    "name": "",
                    "type": "uint256",
                    "internalType": "uint256"
                }
            ],
            "stateMutability": "view"
        },
        {
            "type": "function",
            "name": "initSelfControl",
            "inputs": [],
            "outputs": [
                {
                    "name": "",
                    "type": "address",
                    "internalType": "address"
                }
            ],
            "stateMutability": "nonpayable"
        },
        {
            "type": "function",
            "name": "isApprovedForAll",
            "inputs": [
                {
                    "name": "owner",
                    "type": "address",
                    "internalType": "address"
                },
                {
                    "name": "operator",
                    "type": "address",
                    "internalType": "address"
                }
            ],
            "outputs": [
                {
                    "name": "result",
                    "type": "bool",
                    "internalType": "bool"
                }
            ],
            "stateMutability": "view"
        },
        {
            "type": "function",
            "name": "isMember",
            "inputs": [
                {
                    "name": "whoabout_",
                    "type": "address",
                    "internalType": "address"
                },
                {
                    "name": "whereabout_",
                    "type": "uint256",
                    "internalType": "uint256"
                }
            ],
            "outputs": [
                {
                    "name": "",
                    "type": "bool",
                    "internalType": "bool"
                }
            ],
            "stateMutability": "view"
        },
        {
            "type": "function",
            "name": "localizeEndpoint",
            "inputs": [
                {
                    "name": "endpoint_",
                    "type": "address",
                    "internalType": "address"
                },
                {
                    "name": "endpointParent_",
                    "type": "uint256",
                    "internalType": "uint256"
                },
                {
                    "name": "owner_",
                    "type": "address",
                    "internalType": "address"
                }
            ],
            "outputs": [],
            "stateMutability": "nonpayable"
        },
        {
            "type": "function",
            "name": "membershipEnforce",
            "inputs": [
                {
                    "name": "target",
                    "type": "address",
                    "internalType": "address"
                },
                {
                    "name": "fid_",
                    "type": "uint256",
                    "internalType": "uint256"
                }
            ],
            "outputs": [
                {
                    "name": "s",
                    "type": "bool",
                    "internalType": "bool"
                }
            ],
            "stateMutability": "nonpayable"
        },
        {
            "type": "function",
            "name": "membershipID",
            "inputs": [
                {
                    "name": "fid_",
                    "type": "uint256",
                    "internalType": "uint256"
                }
            ],
            "outputs": [
                {
                    "name": "",
                    "type": "uint256",
                    "internalType": "uint256"
                }
            ],
            "stateMutability": "pure"
        },
        {
            "type": "function",
            "name": "mint",
            "inputs": [
                {
                    "name": "fid_",
                    "type": "uint256",
                    "internalType": "uint256"
                },
                {
                    "name": "amount_",
                    "type": "uint256",
                    "internalType": "uint256"
                }
            ],
            "outputs": [],
            "stateMutability": "nonpayable"
        },
        {
            "type": "function",
            "name": "mintInflation",
            "inputs": [
                {
                    "name": "node",
                    "type": "uint256",
                    "internalType": "uint256"
                }
            ],
            "outputs": [
                {
                    "name": "amount",
                    "type": "uint256",
                    "internalType": "uint256"
                }
            ],
            "stateMutability": "nonpayable"
        },
        {
            "type": "function",
            "name": "mintMembership",
            "inputs": [
                {
                    "name": "fid_",
                    "type": "uint256",
                    "internalType": "uint256"
                }
            ],
            "outputs": [],
            "stateMutability": "nonpayable"
        },
        {
            "type": "function",
            "name": "mintPath",
            "inputs": [
                {
                    "name": "target_",
                    "type": "uint256",
                    "internalType": "uint256"
                },
                {
                    "name": "amount_",
                    "type": "uint256",
                    "internalType": "uint256"
                }
            ],
            "outputs": [],
            "stateMutability": "nonpayable"
        },
        {
            "type": "function",
            "name": "name",
            "inputs": [],
            "outputs": [
                {
                    "name": "",
                    "type": "string",
                    "internalType": "string"
                }
            ],
            "stateMutability": "view"
        },
        {
            "type": "function",
            "name": "options",
            "inputs": [
                {
                    "name": "NodeXUserXValue",
                    "type": "bytes32",
                    "internalType": "bytes32"
                },
                {
                    "name": "",
                    "type": "uint256",
                    "internalType": "uint256"
                }
            ],
            "outputs": [
                {
                    "name": "valueAtTime",
                    "type": "uint256",
                    "internalType": "uint256"
                }
            ],
            "stateMutability": "view"
        },
        {
            "type": "function",
            "name": "redistribute",
            "inputs": [
                {
                    "name": "nodeId_",
                    "type": "uint256",
                    "internalType": "uint256"
                }
            ],
            "outputs": [
                {
                    "name": "distributedAmt",
                    "type": "uint256",
                    "internalType": "uint256"
                }
            ],
            "stateMutability": "nonpayable"
        },
        {
            "type": "function",
            "name": "redistributePath",
            "inputs": [
                {
                    "name": "nodeId_",
                    "type": "uint256",
                    "internalType": "uint256"
                }
            ],
            "outputs": [
                {
                    "name": "distributedAmt",
                    "type": "uint256",
                    "internalType": "uint256"
                }
            ],
            "stateMutability": "nonpayable"
        },
        {
            "type": "function",
            "name": "resignal",
            "inputs": [
                {
                    "name": "targetNode_",
                    "type": "uint256",
                    "internalType": "uint256"
                },
                {
                    "name": "signals",
                    "type": "uint256[]",
                    "internalType": "uint256[]"
                },
                {
                    "name": "originator",
                    "type": "address",
                    "internalType": "address"
                }
            ],
            "outputs": [],
            "stateMutability": "nonpayable"
        },
        {
            "type": "function",
            "name": "safeBatchTransferFrom",
            "inputs": [
                {
                    "name": "from",
                    "type": "address",
                    "internalType": "address"
                },
                {
                    "name": "to",
                    "type": "address",
                    "internalType": "address"
                },
                {
                    "name": "ids",
                    "type": "uint256[]",
                    "internalType": "uint256[]"
                },
                {
                    "name": "amounts",
                    "type": "uint256[]",
                    "internalType": "uint256[]"
                },
                {
                    "name": "data",
                    "type": "bytes",
                    "internalType": "bytes"
                }
            ],
            "outputs": [],
            "stateMutability": "nonpayable"
        },
        {
            "type": "function",
            "name": "safeTransferFrom",
            "inputs": [
                {
                    "name": "from",
                    "type": "address",
                    "internalType": "address"
                },
                {
                    "name": "to",
                    "type": "address",
                    "internalType": "address"
                },
                {
                    "name": "id",
                    "type": "uint256",
                    "internalType": "uint256"
                },
                {
                    "name": "amount",
                    "type": "uint256",
                    "internalType": "uint256"
                },
                {
                    "name": "data",
                    "type": "bytes",
                    "internalType": "bytes"
                }
            ],
            "outputs": [],
            "stateMutability": "nonpayable"
        },
        {
            "type": "function",
            "name": "sendSignal",
            "inputs": [
                {
                    "name": "targetNode_",
                    "type": "uint256",
                    "internalType": "uint256"
                },
                {
                    "name": "signals",
                    "type": "uint256[]",
                    "internalType": "uint256[]"
                }
            ],
            "outputs": [],
            "stateMutability": "nonpayable"
        },
        {
            "type": "function",
            "name": "setApprovalForAll",
            "inputs": [
                {
                    "name": "operator",
                    "type": "address",
                    "internalType": "address"
                },
                {
                    "name": "isApproved",
                    "type": "bool",
                    "internalType": "bool"
                }
            ],
            "outputs": [],
            "stateMutability": "nonpayable"
        },
        {
            "type": "function",
            "name": "setControl",
            "inputs": [
                {
                    "name": "newController",
                    "type": "address",
                    "internalType": "address"
                }
            ],
            "outputs": [],
            "stateMutability": "nonpayable"
        },
        {
            "type": "function",
            "name": "spawnNode",
            "inputs": [
                {
                    "name": "fid_",
                    "type": "uint256",
                    "internalType": "uint256"
                }
            ],
            "outputs": [
                {
                    "name": "newID",
                    "type": "uint256",
                    "internalType": "uint256"
                }
            ],
            "stateMutability": "nonpayable"
        },
        {
            "type": "function",
            "name": "spawnNodeWithMembrane",
            "inputs": [
                {
                    "name": "fid_",
                    "type": "uint256",
                    "internalType": "uint256"
                },
                {
                    "name": "tokens_",
                    "type": "address[]",
                    "internalType": "address[]"
                },
                {
                    "name": "balances_",
                    "type": "uint256[]",
                    "internalType": "uint256[]"
                },
                {
                    "name": "meta_",
                    "type": "string",
                    "internalType": "string"
                },
                {
                    "name": "inflationRate_",
                    "type": "uint256",
                    "internalType": "uint256"
                }
            ],
            "outputs": [
                {
                    "name": "newID",
                    "type": "uint256",
                    "internalType": "uint256"
                }
            ],
            "stateMutability": "nonpayable"
        },
        {
            "type": "function",
            "name": "spawnRootNode",
            "inputs": [
                {
                    "name": "fungible20_",
                    "type": "address",
                    "internalType": "address"
                }
            ],
            "outputs": [
                {
                    "name": "fID",
                    "type": "uint256",
                    "internalType": "uint256"
                }
            ],
            "stateMutability": "nonpayable"
        },
        {
            "type": "function",
            "name": "supportsInterface",
            "inputs": [
                {
                    "name": "interfaceId",
                    "type": "bytes4",
                    "internalType": "bytes4"
                }
            ],
            "outputs": [
                {
                    "name": "result",
                    "type": "bool",
                    "internalType": "bool"
                }
            ],
            "stateMutability": "view"
        },
        {
            "type": "function",
            "name": "symbol",
            "inputs": [],
            "outputs": [
                {
                    "name": "",
                    "type": "string",
                    "internalType": "string"
                }
            ],
            "stateMutability": "view"
        },
        {
            "type": "function",
            "name": "taxPolicyPreference",
            "inputs": [
                {
                    "name": "rootToken_",
                    "type": "address",
                    "internalType": "address"
                },
                {
                    "name": "taxRate_",
                    "type": "uint256",
                    "internalType": "uint256"
                }
            ],
            "outputs": [],
            "stateMutability": "nonpayable"
        },
        {
            "type": "function",
            "name": "toAddress",
            "inputs": [
                {
                    "name": "x",
                    "type": "uint256",
                    "internalType": "uint256"
                }
            ],
            "outputs": [
                {
                    "name": "",
                    "type": "address",
                    "internalType": "address"
                }
            ],
            "stateMutability": "pure"
        },
        {
            "type": "function",
            "name": "toID",
            "inputs": [
                {
                    "name": "x",
                    "type": "address",
                    "internalType": "address"
                }
            ],
            "outputs": [
                {
                    "name": "",
                    "type": "uint256",
                    "internalType": "uint256"
                }
            ],
            "stateMutability": "pure"
        },
        {
            "type": "function",
            "name": "totalSupply",
            "inputs": [
                {
                    "name": "nodeId",
                    "type": "uint256",
                    "internalType": "uint256"
                }
            ],
            "outputs": [
                {
                    "name": "",
                    "type": "uint256",
                    "internalType": "uint256"
                }
            ],
            "stateMutability": "view"
        },
        {
            "type": "function",
            "name": "uri",
            "inputs": [
                {
                    "name": "id_",
                    "type": "uint256",
                    "internalType": "uint256"
                }
            ],
            "outputs": [
                {
                    "name": "",
                    "type": "string",
                    "internalType": "string"
                }
            ],
            "stateMutability": "view"
        },
        {
            "type": "event",
            "name": "ApprovalForAll",
            "inputs": [
                {
                    "name": "owner",
                    "type": "address",
                    "indexed": true,
                    "internalType": "address"
                },
                {
                    "name": "operator",
                    "type": "address",
                    "indexed": true,
                    "internalType": "address"
                },
                {
                    "name": "isApproved",
                    "type": "bool",
                    "indexed": false,
                    "internalType": "bool"
                }
            ],
            "anonymous": false
        },
        {
            "type": "event",
            "name": "Burned",
            "inputs": [
                {
                    "name": "fromAddressOrNode",
                    "type": "address",
                    "indexed": true,
                    "internalType": "address"
                },
                {
                    "name": "nodeId",
                    "type": "uint256",
                    "indexed": true,
                    "internalType": "uint256"
                },
                {
                    "name": "amount",
                    "type": "uint256",
                    "indexed": false,
                    "internalType": "uint256"
                }
            ],
            "anonymous": false
        },
        {
            "type": "event",
            "name": "ConfigSignal",
            "inputs": [
                {
                    "name": "nodeId",
                    "type": "uint256",
                    "indexed": true,
                    "internalType": "uint256"
                },
                {
                    "name": "expressedOption",
                    "type": "bytes32",
                    "indexed": false,
                    "internalType": "bytes32"
                }
            ],
            "anonymous": false
        },
        {
            "type": "event",
            "name": "CreatedEndpoint",
            "inputs": [
                {
                    "name": "endpoint",
                    "type": "address",
                    "indexed": true,
                    "internalType": "address"
                },
                {
                    "name": "owner",
                    "type": "address",
                    "indexed": true,
                    "internalType": "address"
                },
                {
                    "name": "nodeId",
                    "type": "uint256",
                    "indexed": true,
                    "internalType": "uint256"
                }
            ],
            "anonymous": false
        },
        {
            "type": "event",
            "name": "InflationMinted",
            "inputs": [
                {
                    "name": "NodeId",
                    "type": "uint256",
                    "indexed": true,
                    "internalType": "uint256"
                },
                {
                    "name": "amount",
                    "type": "uint256",
                    "indexed": false,
                    "internalType": "uint256"
                }
            ],
            "anonymous": false
        },
        {
            "type": "event",
            "name": "InflationRateChanged",
            "inputs": [
                {
                    "name": "nodeId",
                    "type": "uint256",
                    "indexed": true,
                    "internalType": "uint256"
                },
                {
                    "name": "oldInflationRate",
                    "type": "uint256",
                    "indexed": false,
                    "internalType": "uint256"
                },
                {
                    "name": "newInflationRate",
                    "type": "uint256",
                    "indexed": false,
                    "internalType": "uint256"
                }
            ],
            "anonymous": false
        },
        {
            "type": "event",
            "name": "InflationSignal",
            "inputs": [
                {
                    "name": "nodeId",
                    "type": "uint256",
                    "indexed": true,
                    "internalType": "uint256"
                },
                {
                    "name": "origin",
                    "type": "address",
                    "indexed": true,
                    "internalType": "address"
                },
                {
                    "name": "inflationRate",
                    "type": "uint256",
                    "indexed": false,
                    "internalType": "uint256"
                }
            ],
            "anonymous": false
        },
        {
            "type": "event",
            "name": "MemberRemoved",
            "inputs": [
                {
                    "name": "userAddress",
                    "type": "address",
                    "indexed": true,
                    "internalType": "address"
                },
                {
                    "name": "nodeId",
                    "type": "uint256",
                    "indexed": true,
                    "internalType": "uint256"
                }
            ],
            "anonymous": false
        },
        {
            "type": "event",
            "name": "MembershipMinted",
            "inputs": [
                {
                    "name": "NodeId",
                    "type": "uint256",
                    "indexed": true,
                    "internalType": "uint256"
                },
                {
                    "name": "member",
                    "type": "address",
                    "indexed": true,
                    "internalType": "address"
                }
            ],
            "anonymous": false
        },
        {
            "type": "event",
            "name": "MembraneChanged",
            "inputs": [
                {
                    "name": "nodeId",
                    "type": "uint256",
                    "indexed": true,
                    "internalType": "uint256"
                },
                {
                    "name": "previousMembrane",
                    "type": "uint256",
                    "indexed": false,
                    "internalType": "uint256"
                },
                {
                    "name": "newMembrane",
                    "type": "uint256",
                    "indexed": false,
                    "internalType": "uint256"
                }
            ],
            "anonymous": false
        },
        {
            "type": "event",
            "name": "MembraneSignal",
            "inputs": [
                {
                    "name": "nodeId",
                    "type": "uint256",
                    "indexed": true,
                    "internalType": "uint256"
                },
                {
                    "name": "origin",
                    "type": "address",
                    "indexed": true,
                    "internalType": "address"
                },
                {
                    "name": "membraneId",
                    "type": "uint256",
                    "indexed": false,
                    "internalType": "uint256"
                }
            ],
            "anonymous": false
        },
        {
            "type": "event",
            "name": "Minted",
            "inputs": [
                {
                    "name": "fromAddressOrNode",
                    "type": "address",
                    "indexed": true,
                    "internalType": "address"
                },
                {
                    "name": "nodeId",
                    "type": "uint256",
                    "indexed": true,
                    "internalType": "uint256"
                },
                {
                    "name": "amount",
                    "type": "uint256",
                    "indexed": false,
                    "internalType": "uint256"
                }
            ],
            "anonymous": false
        },
        {
            "type": "event",
            "name": "NewNode",
            "inputs": [
                {
                    "name": "newId",
                    "type": "uint256",
                    "indexed": true,
                    "internalType": "uint256"
                },
                {
                    "name": "parentId",
                    "type": "uint256",
                    "indexed": true,
                    "internalType": "uint256"
                },
                {
                    "name": "creator",
                    "type": "address",
                    "indexed": true,
                    "internalType": "address"
                }
            ],
            "anonymous": false
        },
        {
            "type": "event",
            "name": "NewRootNode",
            "inputs": [
                {
                    "name": "rootNodeId",
                    "type": "uint256",
                    "indexed": true,
                    "internalType": "uint256"
                }
            ],
            "anonymous": false
        },
        {
            "type": "event",
            "name": "Resignaled",
            "inputs": [
                {
                    "name": "sender",
                    "type": "address",
                    "indexed": true,
                    "internalType": "address"
                },
                {
                    "name": "nodeId",
                    "type": "uint256",
                    "indexed": true,
                    "internalType": "uint256"
                },
                {
                    "name": "origin",
                    "type": "address",
                    "indexed": false,
                    "internalType": "address"
                }
            ],
            "anonymous": false
        },
        {
            "type": "event",
            "name": "SelfControlAtAddress",
            "inputs": [
                {
                    "name": "AgencyLocus",
                    "type": "address",
                    "indexed": false,
                    "internalType": "address"
                }
            ],
            "anonymous": false
        },
        {
            "type": "event",
            "name": "SharesGenerated",
            "inputs": [
                {
                    "name": "nodeId",
                    "type": "uint256",
                    "indexed": true,
                    "internalType": "uint256"
                },
                {
                    "name": "amount",
                    "type": "uint256",
                    "indexed": false,
                    "internalType": "uint256"
                }
            ],
            "anonymous": false
        },
        {
            "type": "event",
            "name": "TransferBatch",
            "inputs": [
                {
                    "name": "operator",
                    "type": "address",
                    "indexed": true,
                    "internalType": "address"
                },
                {
                    "name": "from",
                    "type": "address",
                    "indexed": true,
                    "internalType": "address"
                },
                {
                    "name": "to",
                    "type": "address",
                    "indexed": true,
                    "internalType": "address"
                },
                {
                    "name": "ids",
                    "type": "uint256[]",
                    "indexed": false,
                    "internalType": "uint256[]"
                },
                {
                    "name": "amounts",
                    "type": "uint256[]",
                    "indexed": false,
                    "internalType": "uint256[]"
                }
            ],
            "anonymous": false
        },
        {
            "type": "event",
            "name": "TransferSingle",
            "inputs": [
                {
                    "name": "operator",
                    "type": "address",
                    "indexed": true,
                    "internalType": "address"
                },
                {
                    "name": "from",
                    "type": "address",
                    "indexed": true,
                    "internalType": "address"
                },
                {
                    "name": "to",
                    "type": "address",
                    "indexed": true,
                    "internalType": "address"
                },
                {
                    "name": "id",
                    "type": "uint256",
                    "indexed": false,
                    "internalType": "uint256"
                },
                {
                    "name": "amount",
                    "type": "uint256",
                    "indexed": false,
                    "internalType": "uint256"
                }
            ],
            "anonymous": false
        },
        {
            "type": "event",
            "name": "URI",
            "inputs": [
                {
                    "name": "value",
                    "type": "string",
                    "indexed": false,
                    "internalType": "string"
                },
                {
                    "name": "id",
                    "type": "uint256",
                    "indexed": true,
                    "internalType": "uint256"
                }
            ],
            "anonymous": false
        },
        {
            "type": "event",
            "name": "UserNodeSignal",
            "inputs": [
                {
                    "name": "nodeId",
                    "type": "uint256",
                    "indexed": true,
                    "internalType": "uint256"
                },
                {
                    "name": "user",
                    "type": "address",
                    "indexed": true,
                    "internalType": "address"
                },
                {
                    "name": "signals",
                    "type": "uint256[]",
                    "indexed": false,
                    "internalType": "uint256[]"
                }
            ],
            "anonymous": false
        },
        {
            "type": "error",
            "name": "AccountBalanceOverflow",
            "inputs": []
        },
        {
            "type": "error",
            "name": "AlreadyMember",
            "inputs": []
        },
        {
            "type": "error",
            "name": "ArrayLengthsMismatch",
            "inputs": []
        },
        {
            "type": "error",
            "name": "BadLen",
            "inputs": []
        },
        {
            "type": "error",
            "name": "BaseOrNonFungible",
            "inputs": []
        },
        {
            "type": "error",
            "name": "BurnE20TransferFailed",
            "inputs": []
        },
        {
            "type": "error",
            "name": "CannotSkip",
            "inputs": []
        },
        {
            "type": "error",
            "name": "Disabled",
            "inputs": []
        },
        {
            "type": "error",
            "name": "EOA",
            "inputs": []
        },
        {
            "type": "error",
            "name": "Endpoint",
            "inputs": []
        },
        {
            "type": "error",
            "name": "ExecutionOnly",
            "inputs": []
        },
        {
            "type": "error",
            "name": "IncompleteSign",
            "inputs": []
        },
        {
            "type": "error",
            "name": "InsufficientAmt",
            "inputs": []
        },
        {
            "type": "error",
            "name": "InsufficientBalance",
            "inputs": []
        },
        {
            "type": "error",
            "name": "MembershipOp",
            "inputs": []
        },
        {
            "type": "error",
            "name": "MembraneNotFound",
            "inputs": []
        },
        {
            "type": "error",
            "name": "MintE20TransferFailed",
            "inputs": []
        },
        {
            "type": "error",
            "name": "No",
            "inputs": []
        },
        {
            "type": "error",
            "name": "NoControl",
            "inputs": []
        },
        {
            "type": "error",
            "name": "NoSoup",
            "inputs": []
        },
        {
            "type": "error",
            "name": "NoTimeDelta",
            "inputs": []
        },
        {
            "type": "error",
            "name": "NodeAlreadyExists",
            "inputs": []
        },
        {
            "type": "error",
            "name": "NodeNotFound",
            "inputs": []
        },
        {
            "type": "error",
            "name": "Noise",
            "inputs": []
        },
        {
            "type": "error",
            "name": "NoiseNotVoice",
            "inputs": []
        },
        {
            "type": "error",
            "name": "NotMember",
            "inputs": []
        },
        {
            "type": "error",
            "name": "NotNodeMember",
            "inputs": []
        },
        {
            "type": "error",
            "name": "NotOwnerNorApproved",
            "inputs": []
        },
        {
            "type": "error",
            "name": "Overreach",
            "inputs": []
        },
        {
            "type": "error",
            "name": "ResignalMismatch",
            "inputs": []
        },
        {
            "type": "error",
            "name": "RootExists",
            "inputs": []
        },
        {
            "type": "error",
            "name": "SignalOverflow",
            "inputs": []
        },
        {
            "type": "error",
            "name": "TargetIsRoot",
            "inputs": []
        },
        {
            "type": "error",
            "name": "TransferToNonERC1155ReceiverImplementer",
            "inputs": []
        },
        {
            "type": "error",
            "name": "TransferToZeroAddress",
            "inputs": []
        },
        {
            "type": "error",
            "name": "Unautorised",
            "inputs": []
        },
        {
            "type": "error",
            "name": "Unqualified",
            "inputs": []
        },
        {
            "type": "error",
            "name": "UnregisteredFungible",
            "inputs": []
        },
        {
            "type": "error",
            "name": "UnsoundMembership",
            "inputs": []
        },
        {
            "type": "error",
            "name": "UnsupportedTransfer",
            "inputs": []
        },
        {
            "type": "error",
            "name": "isControled",
            "inputs": []
        }
    ],
    "bytecode": {
        "object": "0x608060405234801561000f575f80fd5b50604051615f0e380380615f0e83398101604081905261002e91610201565b5f8052600b60209081526103e87fdf7de25b7f1fd6d0b5205f0e18f1f35bd7b8d84cce336588d184533ce43a6f7655600180546001600160a01b0319166001600160a01b038516908117909155604080516390ef12cd60e01b81529051859385938593859391926390ef12cd926004808401938290030181865afa1580156100b8573d5f803e3d5ffd5b505050506040513d601f19601f820116820180604052508101906100dc9190610232565b600280546001600160a01b03199081166001600160a01b03938416179091556003805490911691831691909117905560408051808201909152600a8152692bb4b6362bb2973c3cbd60b11b6020820152600f9061013990826102ea565b5060408051808201909152600481526315d2531360e21b602082015260109061016290826102ea565b505060118054600160ff19909116811790915580546001600160a01b0319166001600160a01b038516908117909155604051633a8f06ab60e21b815230600482015290915063ea3c1aac906024015f604051808303815f87803b1580156101c7575f80fd5b505af11580156101d9573d5f803e3d5ffd5b50505050505050506103a9565b80516001600160a01b03811681146101fc575f80fd5b919050565b5f8060408385031215610212575f80fd5b61021b836101e6565b9150610229602084016101e6565b90509250929050565b5f60208284031215610242575f80fd5b61024b826101e6565b9392505050565b634e487b7160e01b5f52604160045260245ffd5b600181811c9082168061027a57607f821691505b60208210810361029857634e487b7160e01b5f52602260045260245ffd5b50919050565b601f8211156102e557805f5260205f20601f840160051c810160208510156102c35750805b601f840160051c820191505b818110156102e2575f81556001016102cf565b50505b505050565b81516001600160401b0381111561030357610303610252565b610317816103118454610266565b8461029e565b602080601f83116001811461034a575f84156103335750858301515b5f19600386901b1c1916600185901b1785556103a1565b5f85815260208120601f198616915b8281101561037857888601518255948401946001909101908401610359565b508582101561039557878501515f19600388901b60f8161c191681555b505060018460011b0185555b505050505050565b615b58806103b65f395ff3fe608060405234801561000f575f80fd5b50600436106102fe575f3560e01c806378adc79011610195578063af1b55b0116100e4578063e985e9c51161009e578063f242432a11610079578063f242432a14610769578063f6355a561461077c578063f77914c31461078f578063f87cc6b3146107a2575f80fd5b8063e985e9c51461070b578063eef2e75714610736578063f039a73314610756575f80fd5b8063af1b55b01461068d578063b29eb75c146106a0578063b390c0ab146106b3578063bd85b039146106c6578063bfad25e5146106e5578063e0051aa9146106f8575f80fd5b806395d89b411161014f578063a0ce552d1161012a578063a0ce552d14610627578063a22cb4651461063a578063a5541c841461064d578063a6bfbc201461066d575f80fd5b806395d89b41146105f957806399f4568914610601578063a076225314610614575f80fd5b806378adc79014610587578063791ddaf91461059a5780637d11e682146105ad5780637e44bffe146105c05780637f33d800146105d357806385752d03146105e6575f80fd5b80631f01784111610251578063535e98911161020b57806362593f60116101e657806362593f601461054657806367c394fb1461055957806368dc27471461056c578063765063e514610574575f80fd5b8063535e98911461050d5780635ac8260c146105205780635b4a26ed14610533575f80fd5b80631f0178411461047657806320f944271461048957806328ca8e261461049c5780632eb2c2d6146104af57806345bbbf84146104c25780634e1273f4146104ed575f80fd5b80630ffd3910116102bc578063150d503d11610297578063150d503d1461041d5780631a61eda61461043d5780631b2ef1ca146104505780631e9b388d14610463575f80fd5b80630ffd3910146103d8578063114b6e49146103eb57806313e75206146103fe575f80fd5b8062fdd58e1461030257806301ffc9a71461034157806306fdde03146103815780630d78d0c1146103965780630e89341c146103ab5780630f336348146103be575b5f80fd5b61032e610310366004614bdf565b679a31110384e0b0c96020526014919091525f908152604090205490565b6040519081526020015b60405180910390f35b61037161034f366004614c09565b6301ffc9a760e09190911c90811463d9b67a26821417630e89341c9091141790565b6040519015158152602001610338565b6103896107b5565b6040516103389190614c5e565b6103a96103a4366004614c70565b610841565b005b6103896103b9366004614c70565b610879565b61032e6103cc366004614c87565b6001600160a01b031690565b61032e6103e6366004614ca2565b6108aa565b61032e6103f9366004614e4d565b61098a565b61032e61040c366004614c70565b5f9081526006602052604090205490565b61043061042b366004614bdf565b610ae6565b6040516103389190614f3d565b61032e61044b366004614fa3565b610c83565b6103a961045e366004614fa3565b610ccd565b61032e610471366004614fa3565b610cdb565b6103a9610484366004614bdf565b610d56565b61032e610497366004614fa3565b610dcd565b6103a96104aa366004614fc3565b610def565b6103a96104bd366004615086565b610eda565b6104d56104d036600461513c565b611193565b6040516001600160a01b039091168152602001610338565b6105006104fb36600461516a565b61127e565b604051610338919061520a565b6002546104d5906001600160a01b031681565b6103a961052e366004614c87565b6112eb565b6103a961054136600461521c565b611374565b610371610554366004614bdf565b611777565b61032e610567366004614c70565b6118c2565b6104d561190d565b61032e610582366004614c70565b611adf565b6001546104d5906001600160a01b031681565b6103a96105a8366004614fa3565b611af6565b6104d56105bb366004614c70565b611b4e565b61032e6105ce366004614c70565b611b6d565b61032e6105e1366004614fa3565b611b80565b6103716105f4366004614bdf565b611c07565b610389611c24565b61050061060f366004614c70565b611c31565b61032e610622366004614c70565b611c90565b61032e610635366004614c70565b611ce8565b6103a961064836600461526c565b611e41565b61066061065b366004615298565b611e5a565b6040516103389190615545565b61068061067b36600461513c565b611f09565b60405161033891906155a7565b61032e61069b366004614c87565b612243565b6103a96106ae3660046155b9565b6122ef565b61032e6106c1366004614fa3565b61236a565b61032e6106d4366004614c70565b5f9081526004602052604090205490565b61032e6106f3366004614c70565b612375565b6104d5610706366004614c70565b61237f565b610371610719366004615604565b679a31110384e0b0c96020526014919091525f526034600c205490565b610749610744366004614c70565b61239b565b6040516103389190615630565b6103a9610764366004614fa3565b612403565b6103a9610777366004615642565b6124ee565b61050061078a366004614c70565b6126b6565b61032e61079d366004614c70565b6127c2565b6106606107b0366004615604565b6127ea565b600f80546107c2906156b8565b80601f01602080910402602001604051908101604052809291908181526020018280546107ee906156b8565b80156108395780601f1061081057610100808354040283529160200191610839565b820191905f5260205f20905b81548152906001019060200180831161081c57829003601f168201915b505050505081565b61084a816128d9565b604051339082907f6e620b3e7061133719ea50a8bf6357236acfaa795fbc1bb1c9e19ea6fe88a18d905f90a350565b606061088482612a4c565b60405160200161089491906156ea565b6040516020818303038152906040529050919050565b5f8481526006602052604081205484146108d757604051635f12529560e01b815260040160405180910390fd5b5f6109106108e48661237f565b5f87815260066020526040902054679a31110384e0b0c96020526014919091525f908152604090205490565b679a31110384e0b0c9602090815260148590525f878152604080822054600790935290205491925090633b9aca00821161094f575f9350505050610982565b5f61095c84612710615751565b826109678986615751565b6109719190615751565b61097b919061577c565b9450505050505b949350505050565b60035460405163333cabc560e01b81525f9182916001600160a01b039091169063333cabc5906109c29089908990899060040161578f565b6020604051808303815f875af11580156109de573d5f803e3d5ffd5b505050506040513d601f19601f82011682018060405250810190610a0291906157d1565b9050610a0d87612375565b5f8181526008602052604090208281554260019091015591508215610a3f57610a3a83633b9aca00615751565b610a46565b64e8d4a510005b5f8381526007602052604081200155604080515f81526020810183905283917fe48aa5e298e92f05c7b7489cb783dd272acece1ed2b7aae5007022513a997611910160405180910390a25f82815260076020526040812083917f0ad1727523f8a97d260a40299bd81a21bbcdb605a771d1390f8fa163b2632caf918101546040805192835260208301919091520160405180910390a25095945050505050565b5f818152600560209081526040808320805482518185028101850190935280835260609493830182828015610b3857602002820191905f5260205f20905b815481526020019060010190808311610b24575b5050505050905080516001600160401b03811115610b5857610b58614ce0565b604051908082528060200260200182016040528015610b9157816020015b610b7e614aad565b815260200190600190039081610b765790505b5091505f5b8151811015610c7a575f8585848481518110610bb457610bb4615729565b6020026020010151604051602001610bce939291906157e8565b60408051601f1981840301815291815281516020928301205f818152600a9093529082209092500154848381518110610c0957610c09615729565b60200260200101515f60028110610c2257610c22615729565b602090810291909101919091525f828152600a9091526040902060010154848381518110610c5257610c52615729565b6020026020010151600160028110610c6c57610c6c615729565b602002015250600101610b96565b50505b92915050565b5f808383604051602001610ca1929190918252602082015260400190565b60408051808303601f1901815291815281516020928301205f908152600a909252902054949350505050565b610cd78282612adb565b5050565b5f8181526004602052604081205415610d4d575f82815260046020526040902054610d34610d088461237f565b5f85815260066020526040902054679a31110384e0b0c96020526014919091525f908152604090205490565b610d3e9085615751565b610d48919061577c565b610d4f565b5f5b9392505050565b600c546001600160a01b0316610d6a612b47565b6001600160a01b031614610d91576040516385ea10fd60e01b815260040160405180910390fd5b80600103610db25760405163023ad70560e31b815260040160405180910390fd5b6001600160a01b039091165f908152600b6020526040902055565b600a602052815f5260405f208160038110610de6575f80fd5b01549150829050565b6001546001600160a01b03163314610e1a57604051630fc714ab60e01b815260040160405180910390fd5b610e248183611c07565b15610ec2576001600160a01b038181165f818152600960208181526040832080546001810182559084529083200180546001600160a01b03191694881694909417909355908490610e759190615812565b815260208082019290925260409081015f90812080546001810182559082528382200180546001600160a01b0319166001600160a01b0388169081179091558152600490925290205f1990555b610ed56001600160a01b03841683612b8d565b505050565b60115460ff1615610f8557610f8588888888808060200260200160405190810160405280939291908181526020018383602002808284375f9201919091525050604080516020808c0282810182019093528b82529093508b92508a9182918501908490808284375f9201919091525050604080516020601f8b0181900481028201810190925289815292508991508890819084018382808284375f92019190915250612c9592505050565b828514610f9957633b800a465f526004601cfd5b8760601b679a31110384e0b0c9178760601b679a31110384e0b0c917816020528160601c99508060601c985088610fd75763ea553b345f526004601cfd5b893314610ff857335f526034600c2054610ff857634b6e7f185f526004601cfd5b8660051b5b8015611065576020810390508087013583602052818a01355f5260405f208054808311156110325763f4d678b85f526004601cfd5b8290039055602083905260405f2080548083018181101561105a576301336cea5f526004601cfd5b90915550610ffd9050565b505050604051604081528560051b602001604082018160208a03823781604001602084015281602088038383013750888a337f4a39dc06d4c0dbc64b70af90fd698a233a518aa5d07e595d983b8c0526c8f7fb60408586010186a450506110c95f90565b156110de576110de8888888888888888612f54565b863b1561118957865f5260405163bc197c81815233602082015288604082015260a060608201528560051b60200160c082018160208a0382378160a001806080850152826020890384840137820160a084015260208401601f19860183800183013750808101830160c401905060208282601c85015f80515af161116a573d1561116a573d5f833e3d82fd5b50805163bc197c8160e01b1461118757639c05499b5f526004601cfd5b505b5050505050505050565b5f61119e8284611c07565b6111bb576040516359c5ba6f60e11b815260040160405180910390fd5b6001546040516311eb232d60e21b8152336004820152602481018590526001600160a01b038481166044830152909116906347ac8cb4906064016020604051808303815f875af1158015611211573d5f803e3d5ffd5b505050506040513d601f19601f820116820180604052508101906112359190615825565b905082826001600160a01b0316826001600160a01b03167fcc812fbe8760ac7f5d76dc25596b5575304a089699833975adb3e253e8c627bd60405160405180910390a492915050565b606083821461129457633b800a465f526004601cfd5b6040519050818152602081018260051b8181016040525b80156112e157602081039050808701358060601b679a31110384e0b0c91760205250808501355f5260405f2054818301526112ab565b5050949350505050565b600c5f01546001600160a01b03163314611318576040516330e1d31f60e21b815260040160405180910390fd5b600d546001600160a01b038281169116036113555750600d8054600c80546001600160a01b03199081166001600160a01b03841617909155169055565b600d80546001600160a01b0319166001600160a01b0383161790555b50565b5f828152600660205260409020548290036113a257604051638c9b017f60e01b815260040160405180910390fd5b5f6113b46113ae612b47565b84611c07565b600e549091506001600160a01b03161580156113ce575080155b156113ec57604051639db14b6d60e01b815260040160405180910390fd5b5f6114136113f8612b47565b679a31110384e0b0c96020526014525f858152604090205490565b5f85815260046020526040902054909150611431906127109061577c565b61145761143c612b47565b679a31110384e0b0c96020526014525f868152604090205490565b10156114765760405163ccf7064560e01b815260040160405180910390fd5b61147f846118c2565b505f61148c6103cc612b47565b5f868152600560209081526040808320805482518185028101850190935280835294955092939092918301828280156114e257602002820191905f5260205f20905b8154815260200190600101908083116114ce575b5050600e549394505f938493506001600160a01b031691506115069050575f611509565b60025b60ff1690505b86518110156116e6575f87828151811061152b5761152b615729565b602002602001015190505f89868360405160200161155c939291909283526020830191909152604082015260600190565b60408051601f198184030181529190528051602090910120600e549091506001600160a01b03161580159061158e5750875b80156115a757505f818152600a60205260409020548214155b156115c55760405163475b00dd60e01b815260040160405180910390fd5b871580156115d257505f82115b156115f05760405163475b00dd60e01b815260040160405180910390fd5b600183116116bf57815f036116065750506116de565b825f0361165957611615612b47565b6001600160a01b03168a7f94fb6835215c8e232fdf6bf21658d380697cc552a12a1df09d8cc98fe0d9b88f8460405161165091815260200190565b60405180910390a35b826001036116ad57611669612b47565b6001600160a01b03168a7f838e39ec3c38514252e486b7ee525a1748e7fc6118536c7640dbbdd2de2fec9c846040516116a491815260200190565b60405180910390a35b6116ba8a83858a85612f59565b6116db565b6116ce8a8784868d518a61304a565b6116d88285615812565b93505b50505b60010161150f565b60038751101580156116f757508115155b801561170557508161271014155b1561172357604051630442bea560e31b815260040160405180910390fd5b61172c8461237f565b6001600160a01b0316887f8a7531c5a0d68e6295c0d0683ce089e87c3556caf900a8e2d1c558d348bbd87289604051611765919061520a565b60405180910390a35050505050505050565b5f61178583610310846127c2565b6001146117a55760405163148fe22160e11b815260040160405180910390fd5b6117ad612b47565b6001600160a01b0316836001600160a01b0316036117e1576117d9836117d2846127c2565b600161319e565b506001610c7d565b6003546001600160a01b03166389160e0e846117fc85611b6d565b6040516001600160e01b031960e085901b1681526001600160a01b0390921660048301526024820152604401602060405180830381865afa158015611843573d5f803e3d5ffd5b505050506040513d601f19601f820116820180604052508101906118679190615840565b159050611873826127c2565b91508015611887576118878383600161319e565b60405182906001600160a01b038516907f3ac963493df564de734d98633f1145d21512e282ba4c02d3c1011119bf7f2862905f90a392915050565b5f6118cc8261324b565b9050817f0d82c0920038b8dc7f633e18585f37092ba957b84876fcf833d6841f69eaa3278260405161190091815260200190565b60405180910390a2919050565b600c545f906001600160a01b0316156119395760405163bdc7d58160e01b815260040160405180910390fd5b60015460025460405163bfad25e560e01b81526001600160a01b03918216600482015291169063bd8f46f990309063bfad25e5906024016020604051808303815f875af115801561198c573d5f803e3d5ffd5b505050506040513d601f19601f820116820180604052508101906119b091906157d1565b6040518263ffffffff1660e01b81526004016119ce91815260200190565b6020604051808303815f875af11580156119ea573d5f803e3d5ffd5b505050506040513d601f19601f82011682018060405250810190611a0e9190615825565b600c5f0180546001600160a01b0319166001600160a01b03928316179055600354604080516301abf02960e51b81529051919092169163357e0520916004808301925f92919082900301818387803b158015611a68575f80fd5b505af1158015611a7a573d5f803e3d5ffd5b505050507ff890fc28c3f9900b0f626f2dbd8913e1cb84a7d771c3ca70f19ac3ed52cfde12600c5f60028110611ab257611ab2615729565b01546040516001600160a01b03909116815260200160405180910390a150600c546001600160a01b031690565b5f818152600760205260408120815b015492915050565b5f611b00836126b6565b90505f5b8151811015611b3857611b30828281518110611b2257611b22615729565b602002602001015184610ccd565b600101611b04565b8015611b4857611b488484610ccd565b50505050565b600c8160028110611b5d575f80fd5b01546001600160a01b0316905081565b5f81815260086020526040812081611aee565b5f80611b8b846126b6565b90505f805b8251811015611bfd578060018451611ba8919061585b565b611bb2919061585b565b9150828281518110611bc657611bc6615729565b602002602001015195508560065f8881526020019081526020015f20540315611bfd57611bf38587610cdb565b9450600101611b90565b5092949350505050565b5f6001611c1784610310856127c2565b10610c7d57506001610c7d565b601080546107c2906156b8565b5f81815260056020908152604091829020805483518184028101840190945280845260609392830182828015611c8457602002820191905f5260205f20905b815481526020019060010190808311611c70575b50505050509050919050565b5f80611c9b836126b6565b9050600191505b8051821015611cd957611ccd818381518110611cc057611cc0615729565b6020026020010151611ce8565b50816001019150611ca2565b611ce2836118c2565b50610d4f835b5f81815260066020526040812054808203611d1657604051636d9430a960e11b815260040160405180910390fd5b5f81815260066020526040902054819003611d3357505f92915050565b611d3c816118c2565b50604080516020808201869052818301849052825180830384018152606090920190925280519101205f611d8d611d728461237f565b679a31110384e0b0c96020526014525f848152604090205490565b5f838152600a6020526040902090915060010154611dab904261585b565b5f838152600a6020526040902054611dc39190615751565b935080841115611dd1578093505b5f828152600a602052604090204290600101558315611e3957611e39611df68461237f565b611dff8761237f565b8587604051602001611e25906d3932b234b9ba3934b13aba34b7b760911b8152600e0190565b60405160208183030381529060405261330c565b505050919050565b604051633ac4266d60e11b815260040160405180910390fd5b606081516001600160401b03811115611e7557611e75614ce0565b604051908082528060200260200182016040528015611eae57816020015b611e9b614acb565b815260200190600190039081611e935790505b5090505f5b8251811015611f0357611ede838281518110611ed157611ed1615729565b602002602001015161331a565b828281518110611ef057611ef0615729565b6020908102919091010152600101611eb3565b50919050565b611f11614acb565b611f1a8361331a565b90506001600160a01b03821615610c7d57679a31110384e0b0c960205260148290525f8381526040902054611f5390612a4c565b612a4c565b815161012001525f611f6e846001600160a01b038516615812565b5f8181526009602052604090205490915015611fc5575f8181526009602052604081208054611fbd9290611fa457611fa4615729565b5f918252602090912001546001600160a01b0316613640565b825161014001525b60408051600180825281830190925290816020015b6040805180820190915260608082526020820152815260200190600190039081611fda57505060c08301525f848152600560205260409020546001600160401b0381111561202a5761202a614ce0565b60405190808252806020026020018201604052801561206357816020015b612050614b0e565b8152602001906001900390816120485790505b508260c001515f8151811061207a5761207a615729565b602090810291909101810151919091525f858152600590915260409020546001600160401b038111156120af576120af614ce0565b6040519080825280602002602001820160405280156120e257816020015b60608152602001906001900390816120cd5790505b508260c001515f815181106120f9576120f9615729565b6020026020010151602001819052505f5b5f85815260056020526040902054811015610c7a575f858152600760205260408120612138915b0154612a4c565b8360c001515f8151811061214e5761214e615729565b60200260200101515f0151828151811061216a5761216a615729565b602002602001015160016002811061218457612184615729565b60200201819052505f848660055f8981526020019081526020015f2084815481106121b1576121b1615729565b905f5260205f2001546040516020016121cc939291906157e8565b60408051601f1981840301815291815281516020928301205f818152600a9093529082209092506121fc91612131565b8460c001515f8151811061221257612212615729565b602002602001015160200151838151811061222f5761222f615729565b60209081029190910101525060010161210a565b5f816001600160a01b03163b5f0361226e57604051637dc5186f60e01b815260040160405180910390fd5b506001600160a01b0381165f81815260066020526040902054156122a557604051633293a2cf60e01b815260040160405180910390fd5b6122af8182612b8d565b5f8081546122bc9061586e565b9091555060405181907f4bc7a1fd073ebdf928da09f58ed29b779ed99b26bddee327e87d0be21af8594f905f90a2919050565b600e80546001600160a01b0319166001600160a01b0383161790556123148383611374565b600e80546001600160a01b03191690556040516001600160a01b0382168152839033907f081dd7a021608cb1e85f93c3e497da26967bb26442035ffc020ba466aed4049d906020015b60405180910390a3505050565b5f610d4f8383613656565b5f610c7d82613968565b5f6001600160a01b0382116123945781610c7d565b5f92915050565b5f81815260096020908152604091829020805483518184028101840190945280845260609392830182828015611c8457602002820191905f5260205f20905b81546001600160a01b031681526001909101906020018083116123da5750505050509050919050565b5f8281526006602052604081205490036124305760405163bd23392760e01b815260040160405180910390fd5b5f61243a836126b6565b90505f805b82518110156124dc578060018451612457919061585b565b612461919061585b565b91508361248a61246f612b47565b679a31110384e0b0c96020526014525f878152604090205490565b10156124a957604051632f72e11160e21b815260040160405180910390fd5b6124b3858561236a565b93508282815181106124c7576124c7615729565b6020026020010151945080600101905061243f565b506124e7848461236a565b5050505050565b60115460ff161561256b5761256b868661251b876040805180820190915260018152602081019190915290565b60408051808201909152600181526020810188905286868080601f0160208091040260200160405190810160405280939291908181526020018383808284375f92019190915250612c9592505050565b8560601b679a31110384e0b0c9178560601b679a31110384e0b0c917816020528160601c97508060601c9650866125a95763ea553b345f526004601cfd5b8733146125ca57335f526034600c20546125ca57634b6e7f185f526004601cfd5b855f5260405f2091508154808611156125ea5763f4d678b85f526004601cfd5b8581038355508060205260405f209150815485810181811015612614576301336cea5f526004601cfd5b909255505060208390528486335f80516020615b0383398151915260405fa4843b156126ae5760405163f23a6e61815233602082015286604082015284606082015283608082015260a080820152816020016020840360c08301376020818360c401601c84015f8a5af1612690573d15612690573d5f823e3d81fd5b805163f23a6e6160e01b146126ac57639c05499b5f526004601cfd5b505b505050505050565b5f818152600660205260409020546060906001905b6126d6846001615812565b8110612710575f818152600660205260409020548114612710576126f98261586e565b5f91825260066020526040909120549091506126cb565b816001600160401b0381111561272857612728614ce0565b604051908082528060200260200182016040528015612751578160200160208202803683370190505b5092505f90505b818110156127bb575f8481526006602052604090205483600161277b848661585b565b612785919061585b565b8151811061279557612795615729565b6020908102919091018101919091525f9485526006905260409093205492600101612758565b5050919050565b5f6804e1003b28d92800008211156127e657610c7d678ac7230489e8000083615886565b5090565b6001600160a01b0382165f81815260096020526040902054606091906001600160401b0381111561281d5761281d614ce0565b60405190808252806020026020018201604052801561285657816020015b612843614acb565b81526020019060019003908161283b5790505b5091505f5b5f82815260096020526040902054811015610c7a575f82815260096020526040902080546128b4916128ae918490811061289757612897615729565b5f918252602090912001546001600160a01b031690565b85611f09565b8382815181106128c6576128c6615729565b602090810291909101015260010161285b565b5f81815260066020526040812054900361290657604051634825e09360e01b815260040160405180910390fd5b5f818152600660205260409020548190036129345760405163bd23392760e01b815260040160405180910390fd5b5f8181526004602052604090205460010161296257604051630cf32f7560e21b815260040160405180910390fd5b61297361296d612b47565b82611c07565b15612991576040516340803a5f60e11b815260040160405180910390fd5b6003546001600160a01b03166389160e0e6129aa612b47565b6129b384611b6d565b6040516001600160e01b031960e085901b1681526001600160a01b0390921660048301526024820152604401602060405180830381865afa1580156129fa573d5f803e3d5ffd5b505050506040513d601f19601f82011682018060405250810190612a1e9190615840565b612a3b5760405163b2cab42960e01b815260040160405180910390fd5b611371612a46612b47565b82613aa5565b60605f612a5883613b29565b60010190505f816001600160401b03811115612a7657612a76614ce0565b6040519080825280601f01601f191660200182016040528015612aa0576020820181803683370190505b5090508181016020015b5f19016f181899199a1a9b1b9c1cb0b131b232b360811b600a86061a8153600a8504945084612aaa57509392505050565b5f828152600660205260408120549003612b0857604051635f12529560e01b815260040160405180910390fd5b610cd7612b13612b47565b8383604051602001612b33906766756e6769626c6560c01b815260080190565b604051602081830303815290604052613c00565b5f80356001600160e01b031916632ca7add760e21b148015612b735750600e546001600160a01b031615155b15612b885750600e546001600160a01b031690565b503390565b5f8281526006602052604090205415612bb95760405163731918fb60e11b815260040160405180910390fd5b5f828152600660205260409020819055818114610cd7575f8181526005602090815260408220805460018101825590835290822001839055600990612bfd836126b6565b5f81518110612c0e57612c0e615729565b602002602001015181526020019081526020015f20612c2c8361237f565b8154600180820184555f938452602080852090920180546001600160a01b0319166001600160a01b0394909416939093179092558483526004905260409091205401612c76575050565b505f90815260076020526040902064e8d4a51000815542600290910155565b6304ed360560e51b5f356001600160e01b03191601156124e7575f5b80845111156126ae575f848281518110612ccd57612ccd615729565b602002602001015190505f848381518110612cea57612cea615729565b602002602001015190505f6001600160a01b0316886001600160a01b031614158015612d1e57506001600160a01b03871615155b8015612d3557505f82815260066020526040902054155b15612d535760405163ce2d28e160e01b815260040160405180910390fd5b678ac7230489e80000821015612e12575f356001600160e01b031916630d78d0c160e01b141580612d9657505f356001600160e01b031916630312c9fb60e51b14155b80612db357505f356001600160e01b031916630af1b55b60e41b14155b80612dd057505f356001600160e01b03191663114b6e4960e01b14155b80612ded57505f356001600160e01b03191663bfad25e560e01b14155b612e0a57604051630dbd110f60e21b815260040160405180910390fd5b5050506124e7565b5f356001600160e01b031916630d9778e560e11b1480612e4357505f356001600160e01b03191663791ddaf960e01b145b15612f4a575f82815260066020526040902054829003612eff57612e668261237f565b6040516323b872dd60e01b81526001600160a01b0389811660048301523060248301526044820184905291909116906323b872dd906064016020604051808303815f875af1158015612eba573d5f803e3d5ffd5b505050506040513d601f19601f82011682018060405250810190612ede9190615840565b612efa5760405162916a1960e51b815260040160405180910390fd5b612f4a565b6011805460ff19169055612f3c612f14612b47565b612f1d8461237f565b5f85815260066020526040812054908590610777906001903681615899565b6011805460ff191660011790555b5050600101612cb1565b611189565b83156124e757604080516020808201889052818301879052825180830384018152606090920183528151918101919091205f848152600a909252919020600101544203612fb95760405163d445b7c360e01b815260040160405180910390fd5b835f03612fd257612fcd8683838887613c74565b612fdf565b612fdf8683838887613e5e565b5f828152600a60209081526040808320426001918201556005835281842080549182018155845292829020909201879055905182815287917fb9fabdd20442c18b28ad124d92670b92dbc9b763d12cd509698e84d798e84cfb910160405180910390a2505050505050565b61305560028361585b565b81511461307557604051631b9103a360e11b815260040160405180910390fd5b5f85878361308460028861585b565b8151811061309457613094615729565b60200260200101516040516020016130ae939291906157e8565b60408051808303601f1901815291815281516020928301205f818152600a909352912054909150612710861180156130e4575080155b156130f05750506126ae565b6127108611156131135760405163bb82191f60e01b815260040160405180910390fd5b8581146111895760408051606081018252878152426020808301919091525f828401819052858152600a9091529190912061314f916003614b35565b5061316f8361315f60028861585b565b81518110611cc057611cc0615729565b506111898361317f60028861585b565b8151811061318f5761318f615729565b60200260200101518984613ff1565b5f82815260046020526040812080548392906131bb90849061585b565b90915550505f82815260066020526040902054821080156131e35750678ac7230489e8000082115b15613204576131f1826118c2565b50610ed56131fd612b47565b8383614142565b61320f838383614142565b81836001600160a01b03167f23ff0e75edf108e3d0392d92e13e8c8a868ef19001bd49f9e94876dc46dff87f8360405161235d91815260200190565b5f8181526006602052604081205482900361326757505f919050565b5f8281526007602052604090208054600290910154613286904261585b565b6132909190615751565b9050805f036132a057505f919050565b5f8281526007602052604090204290600201556040516834b7333630ba34b7b760b91b60208201526132da90839081908490602901612b33565b817f695f517929cb0a761ce9f28118b11060d9646bcf6668b6fc3dfb89aaddce26e48260405161190091815260200190565b6124e75f868686868661414e565b613322614acb565b61332b82612a4c565b8151525f82815260076020526040812061334491612131565b815160200152613359611f4e610d088461237f565b81516040015261336e611f4e611d728461237f565b815160600152613387611f4e836105e161143c8261237f565b8151608001526133a0611f4e836105e16108e48261237f565b815160a001525f8281526008602052604081206133bc91612131565b815160c001525f828152600660209081526040808320548151808401879052808301829052825180820384018152606090910183528051908401208452600a9092529091205461340f91611f4e91611b80565b815160e001525f82815260076020526040902061342d906002612131565b815161010001525f8281526004602052604090205461344b90612a4c565b815161016001526003545f8381526008602052604090819020549051631ba2a35b60e31b815260048101919091526001600160a01b039091169063dd151ad8906024015f60405180830381865afa1580156134a8573d5f803e3d5ffd5b505050506040513d5f823e601f3d908101601f191682016040526134cf9190810190615969565b6040908101516020808401919091525f848152600982528290208054835181840281018401909452808452909183018282801561353357602002820191905f5260205f20905b81546001600160a01b03168152600190910190602001808311613515575b505050505060408201526001546009905f906135599085906001600160a01b0316615812565b81526020019081526020015f208054806020026020016040519081016040528092919081815260200182805480156135b857602002820191905f5260205f20905b81546001600160a01b0316815260019091019060200180831161359a575b505050505060808201525f828152600560209081526040918290208054835181840281018401909452808452613620939283018282801561361657602002820191905f5260205f20905b815481526020019060010190808311613602575b50505050506142b9565b6060820152613636613631836126b6565b6142b9565b60a0820152919050565b6060610c7d6001600160a01b0383166014614364565b5f8281526006602052604081205481036136835760405163bd23392760e01b815260040160405180910390fd5b5f8381526006602052604090205483146136a6576136a18284610cdb565b6136a8565b815b5f848152600660205260409020549091508314613764573063f242432a6136ce8561237f565b6136d6612b47565b60065f8881526020019081526020015f2054856040516020016137039063313ab93760e11b815260040190565b6040516020818303038152906040526040518663ffffffff1660e01b8152600401613732959493929190615a7d565b5f604051808303815f87803b158015613749575f80fd5b505af115801561375b573d5f803e3d5ffd5b50505050613956565b5f600b5f6137718661237f565b6001600160a01b0316815260208101919091526040015f2054156137c057600b5f61379b8661237f565b6001600160a01b03166001600160a01b031681526020019081526020015f20546137eb565b5f8052600b6020527fdf7de25b7f1fd6d0b5205f0e18f1f35bd7b8d84cce336588d184533ce43a6f76545b90506137f7818461577c565b90505f613804828561585b565b9050808411613826576040516337b936ed60e11b815260040160405180910390fd5b61382f8561237f565b60025460405163a9059cbb60e01b81526001600160a01b0391821660048201526024810185905291169063a9059cbb906044016020604051808303815f875af115801561387e573d5f803e3d5ffd5b505050506040513d601f19601f820116820180604052508101906138a29190615840565b801561393657506138b28561237f565b6001600160a01b031663a9059cbb6138c8612b47565b6040516001600160e01b031960e084901b1681526001600160a01b039091166004820152602481018490526044016020604051808303815f875af1158015613912573d5f803e3d5ffd5b505050506040513d601f19601f820116820180604052508101906139369190615840565b61395357604051632ebc317760e21b815260040160405180910390fd5b50505b610c7d613961612b47565b848461319e565b5f81815260066020526040812054810361398a5761398861069b8361237f565b505b61399b613995612b47565b83611c07565b1580156139b557505f828152600660205260409020548214155b156139d35760405163148fe22160e11b815260040160405180910390fd5b5f82815260046020526040902054600101613a0157604051630cf32f7560e21b815260040160405180910390fd5b5f808154613a0e9061586e565b90915550613a20633b9aca0044615886565b5f54613a2c428561585b565b613a36919061585b565b613a40919061585b565b9050613a56613a4e8261237f565b3060016144fd565b613a608183612b8d565b333014613a7257613a72612a46612b47565b6040513390839083907f907e845f974b1e16735c498eca2c72acd8c3d61c86675d4cab952054450ee358905f90a4919050565b5f8181526009602090815260408220805460018101825590835291200180546001600160a01b0319166001600160a01b038416179055610cd782613ae8836127c2565b6040516bffffffffffffffffffffffff19606087901b1660208201526906d656d626572736869760b41b6034820152603e8101859052600190605e01612b33565b5f8072184f03e93ff9f4daa797ed6e38ed64bf6a1f0160401b8310613b675772184f03e93ff9f4daa797ed6e38ed64bf6a1f0160401b830492506040015b6d04ee2d6d415b85acef81000000008310613b93576d04ee2d6d415b85acef8100000000830492506020015b662386f26fc100008310613bb157662386f26fc10000830492506010015b6305f5e1008310613bc9576305f5e100830492506008015b6127108310613bdd57612710830492506004015b60648310613bef576064830492506002015b600a8310610c7d5760010192915050565b613c0c84848484614555565b5f8381526004602052604081208054849290613c29908490615812565b909155505060405182815283906001600160a01b038616907f25b428dfde728ccfaddad7e29e4ac23c24ed7fd1a6e3e3f91894a9a073f5dfff9060200160405180910390a350505050565b6001600160a01b03821080613cf85750600354604051631ba2a35b60e31b8152600481018490526001600160a01b039091169063dd151ad8906024015f60405180830381865afa158015613cca573d5f803e3d5ffd5b505050506040513d5f823e601f3d908101601f19168201604052613cf19190810190615969565b6040015151155b15613d1657604051639cd2c44760e01b815260040160405180910390fd5b613d238585858585614600565b5f85815260046020908152604080832054868452600a90925290912054613d4b906002615751565b11156124e7576003546040516350885bc560e01b8152600481018790525f916001600160a01b0316906350885bc5906024016040805180830381865afa158015613d97573d5f803e3d5ffd5b505050506040513d601f19601f82011682018060405250810190613dbb9190615ac1565b50905080613ddc5760405163a74ab56560e01b815260040160405180910390fd5b613de5866118c2565b505f86815260086020526040812087917fe48aa5e298e92f05c7b7489cb783dd272acece1ed2b7aae5007022513a99761191015460408051918252602082018790520160405180910390a2604080518082018252848152426020808301919091525f8981526008909152919091206126ac916002614b6f565b613e6b8585858585614600565b5f85815260046020908152604080832054868452600a90925290912054613e93906002615751565b11156124e7576003546040516350885bc560e01b8152600481018790525f916001600160a01b0316906350885bc5906024016040805180830381865afa158015613edf573d5f803e3d5ffd5b505050506040513d601f19601f82011682018060405250810190613f039190615ac1565b50905080613f245760405163a74ab56560e01b815260040160405180910390fd5b613f2d866118c2565b505f8681526007602052604090205486907f0ad1727523f8a97d260a40299bd81a21bbcdb605a771d1390f8fa163b2632caf90613f6e86633b9aca00615751565b6040805192835260208301919091520160405180910390a25f86815260076020526040902054613fad908790613fa886633b9aca00615751565b6146e6565b604051806060016040528084633b9aca00613fc89190615751565b81524260208083018290526040928301919091525f8981526007909152206126ac916003614b35565b604080516020808201869052818301859052825180830384018152606090920183528151918101919091205f848152600a9092529181205461403990869086906103e6612b47565b5f848152600a602052604090209091506001015442101561406d5760405163d445b7c360e01b815260040160405180910390fd5b5f838152600a6020526040902060020154156140b2575f838152600a6020526040808220600201548483529082208054919290916140ac90849061585b565b90915550505b5f828152600a6020526040812080548392906140cf908490615812565b90915550505f84815260076020526040812001545f838152600a6020526040812001541115614117575f84815260076020526040812001545f838152600a6020526040812001555b5f918252600a6020526040808320426001918201819055948452922091820192909255600201555050565b610ed55f84848461494a565b60115460ff161561419657614196858561417b866040805180820190915260018152602081019190915290565b60408051808201909152600181526020810187905285612c95565b8460601b8460601b806141b05763ea553b345f526004601cfd5b81679a31110384e0b0c9176020528760601b8281148115176141e657885f526034600c20546141e657634b6e7f185f526004601cfd5b50845f5260405f208054808611156142055763f4d678b85f526004601cfd5b8590039055679a31110384e0b0c9811760205260405f20805480860181811015614236576301336cea5f526004601cfd5b808355505050836020528060601c8260601c335f80516020615b0383398151915260405fa450506142645f90565b156142a5576142a5858561428b866040805180820190915260018152602081019190915290565b604080518082019091526001815260208101879052611b48565b833b156126ae576126ae8585858585614a23565b60605f82516001600160401b038111156142d5576142d5614ce0565b60405190808252806020026020018201604052801561430857816020015b60608152602001906001900390816142f35790505b5090505f5b835181101561435d5761433884828151811061432b5761432b615729565b6020026020010151612a4c565b82828151811061434a5761434a615729565b602090810291909101015260010161430d565b5092915050565b60605f614372836002615751565b61437d906002615812565b6001600160401b0381111561439457614394614ce0565b6040519080825280601f01601f1916602001820160405280156143be576020820181803683370190505b509050600360fc1b815f815181106143d8576143d8615729565b60200101906001600160f81b03191690815f1a905350600f60fb1b8160018151811061440657614406615729565b60200101906001600160f81b03191690815f1a9053505f614428846002615751565b614433906001615812565b90505b60018111156144aa576f181899199a1a9b1b9c1cb0b131b232b360811b85600f166010811061446757614467615729565b1a60f81b82828151811061447d5761447d615729565b60200101906001600160f81b03191690815f1a90535060049490941c936144a381615aed565b9050614436565b508315610d4f5760405162461bcd60e51b815260206004820181905260248201527f537472696e67733a20686578206c656e67746820696e73756666696369656e74604482015260640160405180910390fd5b8015159050679a31110384e0b0c960205282601452815f52806034600c2055805f525f1960601c8281168482167f17307eab39ab6107e8899845ad3d59bd9653f200f220920489ca2b5937696c3160205fa350505050565b60115460ff1615614582576145825f8561417b866040805180820190915260018152602081019190915290565b8360601b806145985763ea553b345f526004601cfd5b679a31110384e0b0c960205284601452835f5260405f208054848101818110156145c9576301336cea5f526004601cfd5b808355505050826020528060601c5f335f80516020615b0383398151915260405fa450833b15611b4857611b485f85858585614a23565b5f848152600a602052604081206001015411801561463d57505f848152600a60205260409020600101545f86815260086020526040902060010154105b15614687575f848152600a602052604090206002015415614687575f848152600a60205260408082206002015485835290822080549192909161468190849061585b565b90915550505b60408051606081018252838152426020808301919091528183018490525f878152600a909152919091206146bc916003614b35565b505f838152600a6020526040812080548392906146da908490615812565b90915550505050505050565b5f8381526005602090815260408083208054825181850281018501909352808352919290919083018282801561473957602002820191905f5260205f20905b815481526020019060010190808311614725575b5050505050905080515f0361474e5750505050565b5f805b8251811015614815575f83828151811061476d5761476d615729565b602002602001015187604051602001614790929190918252602082015260400190565b60408051808303601f1901815291815281516020928301205f818152600a9093529120549091506147c18185615812565b9350633b9aca0081111561480b576147e4858481518110611cc057611cc0615729565b505f876147f18884615751565b6147fb919061577c565b5f848152600a6020526040902055505b5050600101614751565b5060018111801561484c57505f8581526007602052604090205461483d90620186a09061577c565b61484a620186a08361577c565b105b156148d2575f61488a61485e8761237f565b5f88815260066020526040902054679a31110384e0b0c96020526014919091525f908152604090205490565b6148b16148968861237f565b679a31110384e0b0c96020526014525f888152604090205490565b6148bb919061585b565b90506148d06148c98761237f565b878361319e565b505b60408051606081018252848152426020808301829052828401919091525f888152600790915291909120614907916003614b35565b50604080518581526020810185905286917f0ad1727523f8a97d260a40299bd81a21bbcdb605a771d1390f8fa163b2632caf910160405180910390a25050505050565b60115460ff16156149a0576149a0835f614977856040805180820190915260018152602081019190915290565b60408051808201909152600181526020810186905260405180602001604052805f815250612c95565b8260601b80679a31110384e0b0c917602052808560601b148560601b15176149dc57845f526034600c20546149dc57634b6e7f185f526004601cfd5b825f5260405f208054808411156149fa5763f4d678b85f526004601cfd5b83810382555050816020525f8160601c335f80516020615b0383398151915260405fa450611b48565b60405163f23a6e6181523360208201528560601b60601c604082015283606082015282608082015260a08082015281518060c08301528015614a6f578060e08301826020860160045afa505b6020828260c401601c85015f8a5af1614a90573d15614a90573d5f833e3d82fd5b50805163f23a6e6160e01b146126ae57639c05499b5f526004601cfd5b60405180604001604052806002906020820280368337509192915050565b6040518060e00160405280614ade614b9c565b81526020016060815260200160608152602001606081526020016060815260200160608152602001606081525090565b60405180604001604052806002905b6060815260200190600190039081614b1d5790505090565b8260038101928215614b63579160200282015b82811115614b63578251825591602001919060010190614b48565b506127e6929150614bb7565b8260028101928215614b635791602002820182811115614b63578251825591602001919060010190614b48565b60408051610180810190915260608152600b60208201614b1d565b5b808211156127e6575f8155600101614bb8565b6001600160a01b0381168114611371575f80fd5b5f8060408385031215614bf0575f80fd5b8235614bfb81614bcb565b946020939093013593505050565b5f60208284031215614c19575f80fd5b81356001600160e01b031981168114610d4f575f80fd5b5f81518084528060208401602086015e5f602082860101526020601f19601f83011685010191505092915050565b602081525f610d4f6020830184614c30565b5f60208284031215614c80575f80fd5b5035919050565b5f60208284031215614c97575f80fd5b8135610d4f81614bcb565b5f805f8060808587031215614cb5575f80fd5b8435935060208501359250604085013591506060850135614cd581614bcb565b939692955090935050565b634e487b7160e01b5f52604160045260245ffd5b604051608081016001600160401b0381118282101715614d1657614d16614ce0565b60405290565b604051601f8201601f191681016001600160401b0381118282101715614d4457614d44614ce0565b604052919050565b5f6001600160401b03821115614d6457614d64614ce0565b5060051b60200190565b5f82601f830112614d7d575f80fd5b81356020614d92614d8d83614d4c565b614d1c565b8083825260208201915060208460051b870101935086841115614db3575f80fd5b602086015b84811015614dcf5780358352918301918301614db8565b509695505050505050565b5f6001600160401b03821115614df257614df2614ce0565b50601f01601f191660200190565b5f82601f830112614e0f575f80fd5b8135614e1d614d8d82614dda565b818152846020838601011115614e31575f80fd5b816020850160208301375f918101602001919091529392505050565b5f805f805f60a08688031215614e61575f80fd5b853594506020808701356001600160401b0380821115614e7f575f80fd5b818901915089601f830112614e92575f80fd5b8135614ea0614d8d82614d4c565b81815260059190911b8301840190848101908c831115614ebe575f80fd5b938501935b82851015614ee5578435614ed681614bcb565b82529385019390850190614ec3565b985050506040890135925080831115614efc575f80fd5b614f088a848b01614d6e565b95506060890135925080831115614f1d575f80fd5b5050614f2b88828901614e00565b95989497509295608001359392505050565b602080825282518282018190525f919060409081850190868401855b82811015614f96578151845f5b6002811015614f8357825182529188019190880190600101614f66565b5050509284019290850190600101614f59565b5091979650505050505050565b5f8060408385031215614fb4575f80fd5b50508035926020909101359150565b5f805f60608486031215614fd5575f80fd5b8335614fe081614bcb565b9250602084013591506040840135614ff781614bcb565b809150509250925092565b5f8083601f840112615012575f80fd5b5081356001600160401b03811115615028575f80fd5b6020830191508360208260051b8501011115615042575f80fd5b9250929050565b5f8083601f840112615059575f80fd5b5081356001600160401b0381111561506f575f80fd5b602083019150836020828501011115615042575f80fd5b5f805f805f805f8060a0898b03121561509d575f80fd5b88356150a881614bcb565b975060208901356150b881614bcb565b965060408901356001600160401b03808211156150d3575f80fd5b6150df8c838d01615002565b909850965060608b01359150808211156150f7575f80fd5b6151038c838d01615002565b909650945060808b013591508082111561511b575f80fd5b506151288b828c01615049565b999c989b5096995094979396929594505050565b5f806040838503121561514d575f80fd5b82359150602083013561515f81614bcb565b809150509250929050565b5f805f806040858703121561517d575f80fd5b84356001600160401b0380821115615193575f80fd5b61519f88838901615002565b909650945060208701359150808211156151b7575f80fd5b506151c487828801615002565b95989497509550505050565b5f815180845260208085019450602084015f5b838110156151ff578151875295820195908201906001016151e3565b509495945050505050565b602081525f610d4f60208301846151d0565b5f806040838503121561522d575f80fd5b8235915060208301356001600160401b03811115615249575f80fd5b61525585828601614d6e565b9150509250929050565b8015158114611371575f80fd5b5f806040838503121561527d575f80fd5b823561528881614bcb565b9150602083013561515f8161525f565b5f602082840312156152a8575f80fd5b81356001600160401b038111156152bd575f80fd5b61098284828501614d6e565b5f826101808101835f5b600c8110156153025783830387526152ec838351614c30565b60209788019790935091909101906001016152d3565b509095945050505050565b5f815180845260208085019450602084015f5b838110156151ff5781516001600160a01b031687529582019590820190600101615320565b5f8282518085526020808601955060208260051b840101602086015f5b8481101561539057601f1986840301895261537e838351614c30565b98840198925090830190600101615362565b5090979650505050505050565b5f828251808552602080860195506005818360051b8501018287015f5b8581101561547f57601f19878403018a5281518051604080865281518187018190529091606082891b8801810192918a0191908801905f5b8181101561545057898503605f190183528351858781015f5b600281101561543b578882038352615424828551614c30565b91508f840193508f8301925060018101905061540b565b5096505050928b0192918b01916001016153f2565b5050505091870151858303868901529161546a8184615345565b9c88019c9550505091850191506001016153ba565b509098975050505050505050565b5f815160e084526154a160e08501826152c9565b9050602083015184820360208601526154ba8282614c30565b915050604083015184820360408601526154d4828261530d565b915050606083015184820360608601526154ee8282615345565b91505060808301518482036080860152615508828261530d565b91505060a083015184820360a08601526155228282615345565b91505060c083015184820360c086015261553c828261539d565b95945050505050565b5f60208083016020845280855180835260408601915060408160051b8701019250602087015f5b8281101561559a57603f1988860301845261558885835161548d565b9450928501929085019060010161556c565b5092979650505050505050565b602081525f610d4f602083018461548d565b5f805f606084860312156155cb575f80fd5b8335925060208401356001600160401b038111156155e7575f80fd5b6155f386828701614d6e565b9250506040840135614ff781614bcb565b5f8060408385031215615615575f80fd5b823561562081614bcb565b9150602083013561515f81614bcb565b602081525f610d4f602083018461530d565b5f805f805f8060a08789031215615657575f80fd5b863561566281614bcb565b9550602087013561567281614bcb565b9450604087013593506060870135925060808701356001600160401b0381111561569a575f80fd5b6156a689828a01615049565b979a9699509497509295939492505050565b600181811c908216806156cc57607f821691505b602082108103611f0357634e487b7160e01b5f52602260045260245ffd5b7f68747470733a2f2f77696c6c77652e78797a2f6d657461646174612f0000000081525f82518060208501601c85015e5f9201601c0191825250919050565b634e487b7160e01b5f52603260045260245ffd5b634e487b7160e01b5f52601160045260245ffd5b8082028115828204841417610c7d57610c7d61573d565b634e487b7160e01b5f52601260045260245ffd5b5f8261578a5761578a615768565b500490565b606081525f6157a1606083018661530d565b82810360208401526157b381866151d0565b905082810360408401526157c78185614c30565b9695505050505050565b5f602082840312156157e1575f80fd5b5051919050565b60609390931b6bffffffffffffffffffffffff191683526014830191909152603482015260540190565b80820180821115610c7d57610c7d61573d565b5f60208284031215615835575f80fd5b8151610d4f81614bcb565b5f60208284031215615850575f80fd5b8151610d4f8161525f565b81810381811115610c7d57610c7d61573d565b5f6001820161587f5761587f61573d565b5060010190565b5f8261589457615894615768565b500690565b5f80858511156158a7575f80fd5b838611156158b3575f80fd5b5050820193919092039150565b5f82601f8301126158cf575f80fd5b815160206158df614d8d83614d4c565b8083825260208201915060208460051b870101935086841115615900575f80fd5b602086015b84811015614dcf5780518352918301918301615905565b5f82601f83011261592b575f80fd5b8151615939614d8d82614dda565b81815284602083860101111561594d575f80fd5b8160208501602083015e5f918101602001919091529392505050565b5f602080838503121561597a575f80fd5b82516001600160401b0380821115615990575f80fd5b90840190608082870312156159a3575f80fd5b6159ab614cf4565b8251828111156159b9575f80fd5b8301601f810188136159c9575f80fd5b80516159d7614d8d82614d4c565b81815260059190911b8201860190868101908a8311156159f5575f80fd5b928701925b82841015615a1c578351615a0d81614bcb565b825292870192908701906159fa565b84525050508284015182811115615a31575f80fd5b615a3d888286016158c0565b85830152506040830151935081841115615a55575f80fd5b615a618785850161591c565b6040820152606083015160608201528094505050505092915050565b6001600160a01b03868116825285166020820152604081018490526060810183905260a0608082018190525f90615ab690830184614c30565b979650505050505050565b5f8060408385031215615ad2575f80fd5b8251615add8161525f565b6020939093015192949293505050565b5f81615afb57615afb61573d565b505f19019056fec3d58168c5ae7397731d063d5bbf3d657854427343f4c083240f7aacaa2d0f62a2646970667358221220a21a5224d85dafbdd5123f0d33738f82ed6f38daa05ca8b4f40c9998116b03a564736f6c63430008190033",
        "linkReferences": {}
    },
    "methodIdentifiers": {
        "Will()": "535e9891",
        "allMembersOf(uint256)": "eef2e757",
        "asRootValuation(uint256,uint256)": "7f33d800",
        "balanceOf(address,uint256)": "00fdd58e",
        "balanceOfBatch(address[],uint256[])": "4e1273f4",
        "burn(uint256,uint256)": "b390c0ab",
        "burnPath(uint256,uint256)": "f039a733",
        "calculateUserTargetedPreferenceAmount(uint256,uint256,uint256,address)": "0ffd3910",
        "control(uint256)": "7d11e682",
        "createEndpointForOwner(uint256,address)": "45bbbf84",
        "executionAddress()": "78adc790",
        "getAllNodesForRoot(address,address)": "f87cc6b3",
        "getChangePrevalence(uint256,uint256)": "1a61eda6",
        "getChildrenOf(uint256)": "99f45689",
        "getFidPath(uint256)": "f6355a56",
        "getMembraneOf(uint256)": "7e44bffe",
        "getNodeData(uint256,address)": "a6bfbc20",
        "getNodes(uint256[])": "a5541c84",
        "getParentOf(uint256)": "13e75206",
        "getUserNodeSignals(address,uint256)": "150d503d",
        "inParentDenomination(uint256,uint256)": "1e9b388d",
        "inflationOf(uint256)": "765063e5",
        "initSelfControl()": "68dc2747",
        "isApprovedForAll(address,address)": "e985e9c5",
        "isMember(address,uint256)": "85752d03",
        "localizeEndpoint(address,uint256,address)": "28ca8e26",
        "membershipEnforce(address,uint256)": "62593f60",
        "membershipID(uint256)": "f77914c3",
        "mint(uint256,uint256)": "1b2ef1ca",
        "mintInflation(uint256)": "67c394fb",
        "mintMembership(uint256)": "0d78d0c1",
        "mintPath(uint256,uint256)": "791ddaf9",
        "name()": "06fdde03",
        "options(bytes32,uint256)": "20f94427",
        "redistribute(uint256)": "a0ce552d",
        "redistributePath(uint256)": "a0762253",
        "resignal(uint256,uint256[],address)": "b29eb75c",
        "safeBatchTransferFrom(address,address,uint256[],uint256[],bytes)": "2eb2c2d6",
        "safeTransferFrom(address,address,uint256,uint256,bytes)": "f242432a",
        "sendSignal(uint256,uint256[])": "5b4a26ed",
        "setApprovalForAll(address,bool)": "a22cb465",
        "setControl(address)": "5ac8260c",
        "spawnNode(uint256)": "bfad25e5",
        "spawnNodeWithMembrane(uint256,address[],uint256[],string,uint256)": "114b6e49",
        "spawnRootNode(address)": "af1b55b0",
        "supportsInterface(bytes4)": "01ffc9a7",
        "symbol()": "95d89b41",
        "taxPolicyPreference(address,uint256)": "1f017841",
        "toAddress(uint256)": "e0051aa9",
        "toID(address)": "0f336348",
        "totalSupply(uint256)": "bd85b039",
        "uri(uint256)": "0e89341c"
    },
    "storageLayout": {
        "storage": [
            {
                "astId": 52974,
                "contract": "src/WillWe.sol:WillWe",
                "label": "entityCount",
                "offset": 0,
                "slot": "0",
                "type": "t_uint256"
            },
            {
                "astId": 52976,
                "contract": "src/WillWe.sol:WillWe",
                "label": "executionAddress",
                "offset": 0,
                "slot": "1",
                "type": "t_address"
            },
            {
                "astId": 52978,
                "contract": "src/WillWe.sol:WillWe",
                "label": "Will",
                "offset": 0,
                "slot": "2",
                "type": "t_address"
            },
            {
                "astId": 52981,
                "contract": "src/WillWe.sol:WillWe",
                "label": "M",
                "offset": 0,
                "slot": "3",
                "type": "t_contract(IMembrane)56954"
            },
            {
                "astId": 52986,
                "contract": "src/WillWe.sol:WillWe",
                "label": "totalSupplyOf",
                "offset": 0,
                "slot": "4",
                "type": "t_mapping(t_uint256,t_uint256)"
            },
            {
                "astId": 52992,
                "contract": "src/WillWe.sol:WillWe",
                "label": "childrenOf",
                "offset": 0,
                "slot": "5",
                "type": "t_mapping(t_uint256,t_array(t_uint256)dyn_storage)"
            },
            {
                "astId": 52997,
                "contract": "src/WillWe.sol:WillWe",
                "label": "parentOf",
                "offset": 0,
                "slot": "6",
                "type": "t_mapping(t_uint256,t_uint256)"
            },
            {
                "astId": 53004,
                "contract": "src/WillWe.sol:WillWe",
                "label": "inflSec",
                "offset": 0,
                "slot": "7",
                "type": "t_mapping(t_uint256,t_array(t_uint256)3_storage)"
            },
            {
                "astId": 53011,
                "contract": "src/WillWe.sol:WillWe",
                "label": "inUseMembraneId",
                "offset": 0,
                "slot": "8",
                "type": "t_mapping(t_uint256,t_array(t_uint256)2_storage)"
            },
            {
                "astId": 53017,
                "contract": "src/WillWe.sol:WillWe",
                "label": "members",
                "offset": 0,
                "slot": "9",
                "type": "t_mapping(t_uint256,t_array(t_address)dyn_storage)"
            },
            {
                "astId": 53024,
                "contract": "src/WillWe.sol:WillWe",
                "label": "options",
                "offset": 0,
                "slot": "10",
                "type": "t_mapping(t_bytes32,t_array(t_uint256)3_storage)"
            },
            {
                "astId": 53029,
                "contract": "src/WillWe.sol:WillWe",
                "label": "taxRate",
                "offset": 0,
                "slot": "11",
                "type": "t_mapping(t_address,t_uint256)"
            },
            {
                "astId": 53033,
                "contract": "src/WillWe.sol:WillWe",
                "label": "control",
                "offset": 0,
                "slot": "12",
                "type": "t_array(t_address)2_storage"
            },
            {
                "astId": 53035,
                "contract": "src/WillWe.sol:WillWe",
                "label": "impersonatingAddress",
                "offset": 0,
                "slot": "14",
                "type": "t_address"
            },
            {
                "astId": 53037,
                "contract": "src/WillWe.sol:WillWe",
                "label": "name",
                "offset": 0,
                "slot": "15",
                "type": "t_string_storage"
            },
            {
                "astId": 53039,
                "contract": "src/WillWe.sol:WillWe",
                "label": "symbol",
                "offset": 0,
                "slot": "16",
                "type": "t_string_storage"
            },
            {
                "astId": 53041,
                "contract": "src/WillWe.sol:WillWe",
                "label": "useBefore",
                "offset": 0,
                "slot": "17",
                "type": "t_bool"
            }
        ],
        "types": {
            "t_address": {
                "encoding": "inplace",
                "label": "address",
                "numberOfBytes": "20"
            },
            "t_array(t_address)2_storage": {
                "encoding": "inplace",
                "label": "address[2]",
                "numberOfBytes": "64",
                "base": "t_address"
            },
            "t_array(t_address)dyn_storage": {
                "encoding": "dynamic_array",
                "label": "address[]",
                "numberOfBytes": "32",
                "base": "t_address"
            },
            "t_array(t_uint256)2_storage": {
                "encoding": "inplace",
                "label": "uint256[2]",
                "numberOfBytes": "64",
                "base": "t_uint256"
            },
            "t_array(t_uint256)3_storage": {
                "encoding": "inplace",
                "label": "uint256[3]",
                "numberOfBytes": "96",
                "base": "t_uint256"
            },
            "t_array(t_uint256)dyn_storage": {
                "encoding": "dynamic_array",
                "label": "uint256[]",
                "numberOfBytes": "32",
                "base": "t_uint256"
            },
            "t_bool": {
                "encoding": "inplace",
                "label": "bool",
                "numberOfBytes": "1"
            },
            "t_bytes32": {
                "encoding": "inplace",
                "label": "bytes32",
                "numberOfBytes": "32"
            },
            "t_contract(IMembrane)56954": {
                "encoding": "inplace",
                "label": "contract IMembrane",
                "numberOfBytes": "20"
            },
            "t_mapping(t_address,t_uint256)": {
                "encoding": "mapping",
                "key": "t_address",
                "label": "mapping(address => uint256)",
                "numberOfBytes": "32",
                "value": "t_uint256"
            },
            "t_mapping(t_bytes32,t_array(t_uint256)3_storage)": {
                "encoding": "mapping",
                "key": "t_bytes32",
                "label": "mapping(bytes32 => uint256[3])",
                "numberOfBytes": "32",
                "value": "t_array(t_uint256)3_storage"
            },
            "t_mapping(t_uint256,t_array(t_address)dyn_storage)": {
                "encoding": "mapping",
                "key": "t_uint256",
                "label": "mapping(uint256 => address[])",
                "numberOfBytes": "32",
                "value": "t_array(t_address)dyn_storage"
            },
            "t_mapping(t_uint256,t_array(t_uint256)2_storage)": {
                "encoding": "mapping",
                "key": "t_uint256",
                "label": "mapping(uint256 => uint256[2])",
                "numberOfBytes": "32",
                "value": "t_array(t_uint256)2_storage"
            },
            "t_mapping(t_uint256,t_array(t_uint256)3_storage)": {
                "encoding": "mapping",
                "key": "t_uint256",
                "label": "mapping(uint256 => uint256[3])",
                "numberOfBytes": "32",
                "value": "t_array(t_uint256)3_storage"
            },
            "t_mapping(t_uint256,t_array(t_uint256)dyn_storage)": {
                "encoding": "mapping",
                "key": "t_uint256",
                "label": "mapping(uint256 => uint256[])",
                "numberOfBytes": "32",
                "value": "t_array(t_uint256)dyn_storage"
            },
            "t_mapping(t_uint256,t_uint256)": {
                "encoding": "mapping",
                "key": "t_uint256",
                "label": "mapping(uint256 => uint256)",
                "numberOfBytes": "32",
                "value": "t_uint256"
            },
            "t_string_storage": {
                "encoding": "bytes",
                "label": "string",
                "numberOfBytes": "32"
            },
            "t_uint256": {
                "encoding": "inplace",
                "label": "uint256",
                "numberOfBytes": "32"
            }
        }
    },
    "id": 64
}