{"abi":[{"type":"function","name":"createMembrane","inputs":[{"name":"tokens_","type":"address[]","internalType":"address[]"},{"name":"balances_","type":"uint256[]","internalType":"uint256[]"},{"name":"meta_","type":"string","internalType":"string"}],"outputs":[{"name":"id","type":"uint256","internalType":"uint256"}],"stateMutability":"nonpayable"},{"type":"function","name":"gCheck","inputs":[{"name":"who_","type":"address","internalType":"address"},{"name":"membraneID_","type":"uint256","internalType":"uint256"}],"outputs":[{"name":"s","type":"bool","internalType":"bool"}],"stateMutability":"view"},{"type":"function","name":"getMembraneById","inputs":[{"name":"id_","type":"uint256","internalType":"uint256"}],"outputs":[{"name":"","type":"tuple","internalType":"struct Membrane","components":[{"name":"tokens","type":"address[]","internalType":"address[]"},{"name":"balances","type":"uint256[]","internalType":"uint256[]"},{"name":"meta","type":"string","internalType":"string"},{"name":"createdAt","type":"uint256","internalType":"uint256"}]}],"stateMutability":"view"},{"type":"function","name":"integrityCheck","inputs":[{"name":"nodeId","type":"uint256","internalType":"uint256"}],"outputs":[{"name":"s","type":"bool","internalType":"bool"},{"name":"i","type":"uint256","internalType":"uint256"}],"stateMutability":"view"},{"type":"function","name":"setInitWillWe","inputs":[],"outputs":[],"stateMutability":"nonpayable"},{"type":"function","name":"willWe","inputs":[],"outputs":[{"name":"","type":"address","internalType":"contract IFun"}],"stateMutability":"view"},{"type":"event","name":"MembraneCreated","inputs":[{"name":"creator","type":"address","indexed":false,"internalType":"address"},{"name":"membraneId","type":"uint256","indexed":false,"internalType":"uint256"},{"name":"CID","type":"string","indexed":false,"internalType":"string"}],"anonymous":false},{"type":"event","name":"WillWeSet","inputs":[{"name":"willWeAddress","type":"address","indexed":false,"internalType":"address"}],"anonymous":false},{"type":"error","name":"Membrane__EmptyFieldOnMembraneCreation","inputs":[]},{"type":"error","name":"Membrane__UnauthorizedWillWeSet","inputs":[]},{"type":"error","name":"membraneNotFound","inputs":[]}],"bytecode":{"object":"0x6080604052348015600e575f80fd5b5061131d8061001c5f395ff3fe608060405234801561000f575f80fd5b5060043610610060575f3560e01c8063333cabc514610064578063357e05201461008a57806350885bc51461009457806389160e0e146100be578063a17f3e33146100e1578063dd151ad81461010c575b5f80fd5b610077610072366004610e65565b61012c565b6040519081526020015b60405180910390f35b61009261027a565b005b6100a76100a2366004610f43565b6102ee565b604080519215158352602083019190915201610081565b6100d16100cc366004610f5a565b61058d565b6040519015158152602001610081565b6001546100f4906001600160a01b031681565b6040516001600160a01b039091168152602001610081565b61011f61011a366004610f43565b610701565b6040516100819190610fec565b5f825184511461014f57604051631ea02bc360e31b815260040160405180910390fd5b81515f0361017057604051631ea02bc360e31b815260040160405180910390fd5b61019a60405180608001604052806060815260200160608152602001606081526020015f81525090565b84815260208082018590526040808301859052426060840152516101c091839101610fec565b60408051601f1981840301815291815281516020928301205f8181528084529190912083518051929550849391926101fb9284920190610c5e565b5060208281015180516102149260018501920190610cc1565b50604082015160028201906102299082611112565b50606082015181600301559050507fd96d2e189d8be6703b1c656c080a48a6d3f5f9622e7fe952110232ebbb0a4dda33838560405161026a939291906111d2565b60405180910390a1509392505050565b6001546001600160a01b0316156102a457604051637913e76b60e01b815260040160405180910390fd5b600180546001600160a01b031916339081179091556040519081527f68e0e5615e0f0beac903df596e5f37d76055e23925dde4e747a159ed0170424f9060200160405180910390a1565b60015460405163eef2e75760e01b8152600481018390525f91829182916001600160a01b03169063eef2e757906024015f60405180830381865afa158015610338573d5f803e3d5ffd5b505050506040513d5f823e601f3d908101601f1916820160405261035f9190810190611201565b600154604051633f225fff60e11b8152600481018790529192505f91829182916001600160a01b0390911690637e44bffe90602401602060405180830381865afa1580156103af573d5f803e3d5ffd5b505050506040513d601f19601f820116820180604052508101906103d39190611296565b81526020019081526020015f206040518060800160405290815f820180548060200260200160405190810160405280929190818152602001828054801561044157602002820191905f5260205f20905b81546001600160a01b03168152600190910190602001808311610423575b505050505081526020016001820180548060200260200160405190810160405280929190818152602001828054801561049757602002820191905f5260205f20905b815481526020019060010190808311610483575b505050505081526020016002820180546104b09061108e565b80601f01602080910402602001604051908101604052809291908181526020018280546104dc9061108e565b80156105275780601f106104fe57610100808354040283529160200191610527565b820191905f5260205f20905b81548152906001019060200180831161050a57829003601f168201915b5050505050815260200160038201548152505090505b8151831015610582576105698183858151811061055c5761055c6112ad565b6020026020010151610890565b610577575f93505050915091565b60019092019161053d565b600193505050915091565b5f818152602081815260408083208151815460a094810282018501909352608081018381528594919384928491908401828280156105f257602002820191905f5260205f20905b81546001600160a01b031681526001909101906020018083116105d4575b505050505081526020016001820180548060200260200160405190810160405280929190818152602001828054801561064857602002820191905f5260205f20905b815481526020019060010190808311610634575b505050505081526020016002820180546106619061108e565b80601f016020809104026020016040519081016040528092919081815260200182805461068d9061108e565b80156106d85780601f106106af576101008083540402835291602001916106d8565b820191905f5260205f20905b8154815290600101906020018083116106bb57829003601f168201915b5050505050815260200160038201548152505090506106f78185610890565b9150505b92915050565b61072b60405180608001604052806060815260200160608152602001606081526020015f81525090565b5f82815260208181526040918290208251815460a09381028201840190945260808101848152909391928492849184018282801561079057602002820191905f5260205f20905b81546001600160a01b03168152600190910190602001808311610772575b50505050508152602001600182018054806020026020016040519081016040528092919081815260200182805480156107e657602002820191905f5260205f20905b8154815260200190600101908083116107d2575b505050505081526020016002820180546107ff9061108e565b80601f016020809104026020016040519081016040528092919081815260200182805461082b9061108e565b80156108765780601f1061084d57610100808354040283529160200191610876565b820191905f5260205f20905b81548152906001019060200180831161085957829003601f168201915b505050505081526020016003820154815250509050919050565b60015f5b835151811015610c5757600154845180516001600160a01b0390921691839081106108c1576108c16112ad565b60200260200101516001600160a01b03160361098c578180156109855750600154602085015180516001600160a01b03909216916385752d039186918590811061090d5761090d6112ad565b60200260200101516040518363ffffffff1660e01b81526004016109469291906001600160a01b03929092168252602082015260400190565b602060405180830381865afa158015610961573d5f803e3d5ffd5b505050506040513d601f19601f8201168201806040525081019061098591906112c1565b9150610c4f565b826001600160a01b0316845f015182815181106109ab576109ab6112ad565b60200260200101516001600160a01b031603610a0157826001600160a01b0316846020015182815181106109e1576109e16112ad565b6020026020010151036109f85760019150506106fb565b5f9150506106fb565b5f845f01518281518110610a1757610a176112ad565b60209081029190910101516001546040516309f3a90360e11b81526001600160a01b039283166004820181905293505f92909116906313e7520690602401602060405180830381865afa158015610a70573d5f803e3d5ffd5b505050506040513d601f19601f82011682018060405250810190610a949190611296565b905060028110158015610aa75750808214155b15610b5357600154604051627eeac760e11b81526001600160a01b038781166004830152602482018590525f92169062fdd58e90604401602060405180830381865afa158015610af9573d5f803e3d5ffd5b505050506040513d601f19601f82011682018060405250810190610b1d9190611296565b9050848015610b49575086602001518481518110610b3d57610b3d6112ad565b60200260200101518110155b9450505050610c4f565b8551805184908110610b6757610b676112ad565b60200260200101516001600160a01b03163b5f03610b86575050610c4f565b8551805184908110610b9a57610b9a6112ad565b60209081029190910101516040516370a0823160e01b81526001600160a01b038781166004830152909116906370a0823190602401602060405180830381865afa925050508015610c08575060408051601f3d908101601f19168201909252610c0591810190611296565b60015b610c13575050610c4f565b848015610c3d575086602001518481518110610c3157610c316112ad565b60200260200101518110155b94505083610c4c575050610c57565b50505b600101610894565b5092915050565b828054828255905f5260205f20908101928215610cb1579160200282015b82811115610cb157825182546001600160a01b0319166001600160a01b03909116178255602090920191600190910190610c7c565b50610cbd929150610cfa565b5090565b828054828255905f5260205f20908101928215610cb1579160200282015b82811115610cb1578251825591602001919060010190610cdf565b5b80821115610cbd575f8155600101610cfb565b634e487b7160e01b5f52604160045260245ffd5b604051601f8201601f1916810167ffffffffffffffff81118282101715610d4b57610d4b610d0e565b604052919050565b5f67ffffffffffffffff821115610d6c57610d6c610d0e565b5060051b60200190565b6001600160a01b0381168114610d8a575f80fd5b50565b5f82601f830112610d9c575f80fd5b81356020610db1610dac83610d53565b610d22565b8083825260208201915060208460051b870101935086841115610dd2575f80fd5b602086015b84811015610dee5780358352918301918301610dd7565b509695505050505050565b5f82601f830112610e08575f80fd5b813567ffffffffffffffff811115610e2257610e22610d0e565b610e35601f8201601f1916602001610d22565b818152846020838601011115610e49575f80fd5b816020850160208301375f918101602001919091529392505050565b5f805f60608486031215610e77575f80fd5b833567ffffffffffffffff80821115610e8e575f80fd5b818601915086601f830112610ea1575f80fd5b81356020610eb1610dac83610d53565b82815260059290921b8401810191818101908a841115610ecf575f80fd5b948201945b83861015610ef6578535610ee781610d76565b82529482019490820190610ed4565b97505087013592505080821115610f0b575f80fd5b610f1787838801610d8d565b93506040860135915080821115610f2c575f80fd5b50610f3986828701610df9565b9150509250925092565b5f60208284031215610f53575f80fd5b5035919050565b5f8060408385031215610f6b575f80fd5b8235610f7681610d76565b946020939093013593505050565b5f815180845260208085019450602084015f5b83811015610fb357815187529582019590820190600101610f97565b509495945050505050565b5f81518084528060208401602086015e5f602082860101526020601f19601f83011685010191505092915050565b60208082528251608083830152805160a084018190525f9291820190839060c08601905b808310156110395783516001600160a01b03168252928401926001929092019190840190611010565b50838701519350601f199250828682030160408701526110598185610f84565b935050506040850151818584030160608601526110768382610fbe565b92505050606084015160808401528091505092915050565b600181811c908216806110a257607f821691505b6020821081036110c057634e487b7160e01b5f52602260045260245ffd5b50919050565b601f82111561110d57805f5260205f20601f840160051c810160208510156110eb5750805b601f840160051c820191505b8181101561110a575f81556001016110f7565b50505b505050565b815167ffffffffffffffff81111561112c5761112c610d0e565b6111408161113a845461108e565b846110c6565b602080601f831160018114611173575f841561115c5750858301515b5f19600386901b1c1916600185901b1785556111ca565b5f85815260208120601f198616915b828110156111a157888601518255948401946001909101908401611182565b50858210156111be57878501515f19600388901b60f8161c191681555b505060018460011b0185555b505050505050565b60018060a01b0384168152826020820152606060408201525f6111f86060830184610fbe565b95945050505050565b5f6020808385031215611212575f80fd5b825167ffffffffffffffff811115611228575f80fd5b8301601f81018513611238575f80fd5b8051611246610dac82610d53565b81815260059190911b82018301908381019087831115611264575f80fd5b928401925b8284101561128b57835161127c81610d76565b82529284019290840190611269565b979650505050505050565b5f602082840312156112a6575f80fd5b5051919050565b634e487b7160e01b5f52603260045260245ffd5b5f602082840312156112d1575f80fd5b815180151581146112e0575f80fd5b939250505056fea2646970667358221220317de03f525f5b06ff09cc9eed8e4563e851187a4989deec4f948941a16f04c064736f6c63430008190033","linkReferences":{}},"methodIdentifiers":{"createMembrane(address[],uint256[],string)":"333cabc5","gCheck(address,uint256)":"89160e0e","getMembraneById(uint256)":"dd151ad8","integrityCheck(uint256)":"50885bc5","setInitWillWe()":"357e0520","willWe()":"a17f3e33"},"storageLayout":{"storage":[{"astId":54865,"contract":"src/Membranes.sol:Membranes","label":"membraneById","offset":0,"slot":"0","type":"t_mapping(t_uint256,t_struct(Membrane)56175_storage)"},{"astId":54868,"contract":"src/Membranes.sol:Membranes","label":"willWe","offset":0,"slot":"1","type":"t_contract(IFun)56162"}],"types":{"t_address":{"encoding":"inplace","label":"address","numberOfBytes":"20"},"t_array(t_address)dyn_storage":{"encoding":"dynamic_array","label":"address[]","numberOfBytes":"32","base":"t_address"},"t_array(t_uint256)dyn_storage":{"encoding":"dynamic_array","label":"uint256[]","numberOfBytes":"32","base":"t_uint256"},"t_contract(IFun)56162":{"encoding":"inplace","label":"contract IFun","numberOfBytes":"20"},"t_mapping(t_uint256,t_struct(Membrane)56175_storage)":{"encoding":"mapping","key":"t_uint256","label":"mapping(uint256 => struct Membrane)","numberOfBytes":"32","value":"t_struct(Membrane)56175_storage"},"t_string_storage":{"encoding":"bytes","label":"string","numberOfBytes":"32"},"t_struct(Membrane)56175_storage":{"encoding":"inplace","label":"struct Membrane","numberOfBytes":"128","members":[{"astId":56167,"contract":"src/Membranes.sol:Membranes","label":"tokens","offset":0,"slot":"0","type":"t_array(t_address)dyn_storage"},{"astId":56170,"contract":"src/Membranes.sol:Membranes","label":"balances","offset":0,"slot":"1","type":"t_array(t_uint256)dyn_storage"},{"astId":56172,"contract":"src/Membranes.sol:Membranes","label":"meta","offset":0,"slot":"2","type":"t_string_storage"},{"astId":56174,"contract":"src/Membranes.sol:Membranes","label":"createdAt","offset":0,"slot":"3","type":"t_uint256"}]},"t_uint256":{"encoding":"inplace","label":"uint256","numberOfBytes":"32"}}},"id":60}