{
    "abi": [
        {
            "type": "function",
            "name": "createMembrane",
            "inputs": [
                {
                    "name": "tokens_",
                    "type": "address[]",
                    "internalType": "address[]"
                },
                {
                    "name": "balances_",
                    "type": "uint256[]",
                    "internalType": "uint256[]"
                },
                {
                    "name": "meta_",
                    "type": "string",
                    "internalType": "string"
                }
            ],
            "outputs": [
                {
                    "name": "id",
                    "type": "uint256",
                    "internalType": "uint256"
                }
            ],
            "stateMutability": "nonpayable"
        },
        {
            "type": "function",
            "name": "gCheck",
            "inputs": [
                {
                    "name": "who_",
                    "type": "address",
                    "internalType": "address"
                },
                {
                    "name": "membraneID_",
                    "type": "uint256",
                    "internalType": "uint256"
                }
            ],
            "outputs": [
                {
                    "name": "s",
                    "type": "bool",
                    "internalType": "bool"
                }
            ],
            "stateMutability": "view"
        },
        {
            "type": "function",
            "name": "getMembraneById",
            "inputs": [
                {
                    "name": "id_",
                    "type": "uint256",
                    "internalType": "uint256"
                }
            ],
            "outputs": [
                {
                    "name": "",
                    "type": "tuple",
                    "internalType": "struct Membrane",
                    "components": [
                        {
                            "name": "tokens",
                            "type": "address[]",
                            "internalType": "address[]"
                        },
                        {
                            "name": "balances",
                            "type": "uint256[]",
                            "internalType": "uint256[]"
                        },
                        {
                            "name": "meta",
                            "type": "string",
                            "internalType": "string"
                        },
                        {
                            "name": "createdAt",
                            "type": "uint256",
                            "internalType": "uint256"
                        }
                    ]
                }
            ],
            "stateMutability": "view"
        },
        {
            "type": "function",
            "name": "integrityCheck",
            "inputs": [
                {
                    "name": "nodeId",
                    "type": "uint256",
                    "internalType": "uint256"
                }
            ],
            "outputs": [
                {
                    "name": "s",
                    "type": "bool",
                    "internalType": "bool"
                },
                {
                    "name": "i",
                    "type": "uint256",
                    "internalType": "uint256"
                }
            ],
            "stateMutability": "view"
        },
        {
            "type": "function",
            "name": "setInitWillWe",
            "inputs": [],
            "outputs": [],
            "stateMutability": "nonpayable"
        },
        {
            "type": "function",
            "name": "willWe",
            "inputs": [],
            "outputs": [
                {
                    "name": "",
                    "type": "address",
                    "internalType": "contract IFun"
                }
            ],
            "stateMutability": "view"
        },
        {
            "type": "event",
            "name": "MembraneCreated",
            "inputs": [
                {
                    "name": "creator",
                    "type": "address",
                    "indexed": false,
                    "internalType": "address"
                },
                {
                    "name": "membraneId",
                    "type": "uint256",
                    "indexed": false,
                    "internalType": "uint256"
                },
                {
                    "name": "CID",
                    "type": "string",
                    "indexed": false,
                    "internalType": "string"
                }
            ],
            "anonymous": false
        },
        {
            "type": "event",
            "name": "WillWeSet",
            "inputs": [
                {
                    "name": "willWeAddress",
                    "type": "address",
                    "indexed": false,
                    "internalType": "address"
                }
            ],
            "anonymous": false
        },
        {
            "type": "error",
            "name": "Membrane__EmptyFieldOnMembraneCreation",
            "inputs": []
        },
        {
            "type": "error",
            "name": "Membrane__UnauthorizedWillWeSet",
            "inputs": []
        },
        {
            "type": "error",
            "name": "membraneNotFound",
            "inputs": []
        }
    ],
    "bytecode": {
        "object": "0x6080604052348015600e575f80fd5b506111b78061001c5f395ff3fe608060405234801561000f575f80fd5b5060043610610060575f3560e01c8063333cabc514610064578063357e05201461008a57806350885bc51461009457806389160e0e146100be578063a17f3e33146100e1578063dd151ad81461010c575b5f80fd5b610077610072366004610cff565b61012c565b6040519081526020015b60405180910390f35b61009261027a565b005b6100a76100a2366004610ddd565b6102ee565b604080519215158352602083019190915201610081565b6100d16100cc366004610df4565b61058d565b6040519015158152602001610081565b6001546100f4906001600160a01b031681565b6040516001600160a01b039091168152602001610081565b61011f61011a366004610ddd565b610701565b6040516100819190610e86565b5f825184511461014f57604051631ea02bc360e31b815260040160405180910390fd5b81515f0361017057604051631ea02bc360e31b815260040160405180910390fd5b61019a60405180608001604052806060815260200160608152602001606081526020015f81525090565b84815260208082018590526040808301859052426060840152516101c091839101610e86565b60408051601f1981840301815291815281516020928301205f8181528084529190912083518051929550849391926101fb9284920190610af8565b5060208281015180516102149260018501920190610b5b565b50604082015160028201906102299082610fac565b50606082015181600301559050507fd96d2e189d8be6703b1c656c080a48a6d3f5f9622e7fe952110232ebbb0a4dda33838560405161026a9392919061106c565b60405180910390a1509392505050565b6001546001600160a01b0316156102a457604051637913e76b60e01b815260040160405180910390fd5b600180546001600160a01b031916339081179091556040519081527f68e0e5615e0f0beac903df596e5f37d76055e23925dde4e747a159ed0170424f9060200160405180910390a1565b60015460405163eef2e75760e01b8152600481018390525f91829182916001600160a01b03169063eef2e757906024015f60405180830381865afa158015610338573d5f803e3d5ffd5b505050506040513d5f823e601f3d908101601f1916820160405261035f919081019061109b565b600154604051633f225fff60e11b8152600481018790529192505f91829182916001600160a01b0390911690637e44bffe90602401602060405180830381865afa1580156103af573d5f803e3d5ffd5b505050506040513d601f19601f820116820180604052508101906103d39190611130565b81526020019081526020015f206040518060800160405290815f820180548060200260200160405190810160405280929190818152602001828054801561044157602002820191905f5260205f20905b81546001600160a01b03168152600190910190602001808311610423575b505050505081526020016001820180548060200260200160405190810160405280929190818152602001828054801561049757602002820191905f5260205f20905b815481526020019060010190808311610483575b505050505081526020016002820180546104b090610f28565b80601f01602080910402602001604051908101604052809291908181526020018280546104dc90610f28565b80156105275780601f106104fe57610100808354040283529160200191610527565b820191905f5260205f20905b81548152906001019060200180831161050a57829003601f168201915b5050505050815260200160038201548152505090505b8151831015610582576105698183858151811061055c5761055c611147565b6020026020010151610890565b610577575f93505050915091565b60019092019161053d565b600193505050915091565b5f818152602081815260408083208151815460a094810282018501909352608081018381528594919384928491908401828280156105f257602002820191905f5260205f20905b81546001600160a01b031681526001909101906020018083116105d4575b505050505081526020016001820180548060200260200160405190810160405280929190818152602001828054801561064857602002820191905f5260205f20905b815481526020019060010190808311610634575b5050505050815260200160028201805461066190610f28565b80601f016020809104026020016040519081016040528092919081815260200182805461068d90610f28565b80156106d85780601f106106af576101008083540402835291602001916106d8565b820191905f5260205f20905b8154815290600101906020018083116106bb57829003601f168201915b5050505050815260200160038201548152505090506106f78185610890565b9150505b92915050565b61072b60405180608001604052806060815260200160608152602001606081526020015f81525090565b5f82815260208181526040918290208251815460a09381028201840190945260808101848152909391928492849184018282801561079057602002820191905f5260205f20905b81546001600160a01b03168152600190910190602001808311610772575b50505050508152602001600182018054806020026020016040519081016040528092919081815260200182805480156107e657602002820191905f5260205f20905b8154815260200190600101908083116107d2575b505050505081526020016002820180546107ff90610f28565b80601f016020809104026020016040519081016040528092919081815260200182805461082b90610f28565b80156108765780601f1061084d57610100808354040283529160200191610876565b820191905f5260205f20905b81548152906001019060200180831161085957829003601f168201915b505050505081526020016003820154815250509050919050565b60015f5b835151811015610af157600154845180516001600160a01b0390921691839081106108c1576108c1611147565b60200260200101516001600160a01b03160361098c578180156109855750600154602085015180516001600160a01b03909216916385752d039186918590811061090d5761090d611147565b60200260200101516040518363ffffffff1660e01b81526004016109469291906001600160a01b03929092168252602082015260400190565b602060405180830381865afa158015610961573d5f803e3d5ffd5b505050506040513d601f19601f82011682018060405250810190610985919061115b565b9150610ae9565b826001600160a01b0316845f015182815181106109ab576109ab611147565b60200260200101516001600160a01b031603610a0157826001600160a01b0316846020015182815181106109e1576109e1611147565b6020026020010151036109f85760019150506106fb565b5f9150506106fb565b8351805182908110610a1557610a15611147565b60200260200101516001600160a01b03163b5f0315610ae9578351805182908110610a4257610a42611147565b60209081029190910101516040516370a0823160e01b81526001600160a01b038581166004830152909116906370a0823190602401602060405180830381865afa925050508015610ab0575060408051601f3d908101601f19168201909252610aad91810190611130565b60015b15610ae957828015610adf575084602001518281518110610ad357610ad3611147565b60200260200101518110155b9250508115610af1575b600101610894565b5092915050565b828054828255905f5260205f20908101928215610b4b579160200282015b82811115610b4b57825182546001600160a01b0319166001600160a01b03909116178255602090920191600190910190610b16565b50610b57929150610b94565b5090565b828054828255905f5260205f20908101928215610b4b579160200282015b82811115610b4b578251825591602001919060010190610b79565b5b80821115610b57575f8155600101610b95565b634e487b7160e01b5f52604160045260245ffd5b604051601f8201601f1916810167ffffffffffffffff81118282101715610be557610be5610ba8565b604052919050565b5f67ffffffffffffffff821115610c0657610c06610ba8565b5060051b60200190565b6001600160a01b0381168114610c24575f80fd5b50565b5f82601f830112610c36575f80fd5b81356020610c4b610c4683610bed565b610bbc565b8083825260208201915060208460051b870101935086841115610c6c575f80fd5b602086015b84811015610c885780358352918301918301610c71565b509695505050505050565b5f82601f830112610ca2575f80fd5b813567ffffffffffffffff811115610cbc57610cbc610ba8565b610ccf601f8201601f1916602001610bbc565b818152846020838601011115610ce3575f80fd5b816020850160208301375f918101602001919091529392505050565b5f805f60608486031215610d11575f80fd5b833567ffffffffffffffff80821115610d28575f80fd5b818601915086601f830112610d3b575f80fd5b81356020610d4b610c4683610bed565b82815260059290921b8401810191818101908a841115610d69575f80fd5b948201945b83861015610d90578535610d8181610c10565b82529482019490820190610d6e565b97505087013592505080821115610da5575f80fd5b610db187838801610c27565b93506040860135915080821115610dc6575f80fd5b50610dd386828701610c93565b9150509250925092565b5f60208284031215610ded575f80fd5b5035919050565b5f8060408385031215610e05575f80fd5b8235610e1081610c10565b946020939093013593505050565b5f815180845260208085019450602084015f5b83811015610e4d57815187529582019590820190600101610e31565b509495945050505050565b5f81518084528060208401602086015e5f602082860101526020601f19601f83011685010191505092915050565b60208082528251608083830152805160a084018190525f9291820190839060c08601905b80831015610ed35783516001600160a01b03168252928401926001929092019190840190610eaa565b50838701519350601f19925082868203016040870152610ef38185610e1e565b93505050604085015181858403016060860152610f108382610e58565b92505050606084015160808401528091505092915050565b600181811c90821680610f3c57607f821691505b602082108103610f5a57634e487b7160e01b5f52602260045260245ffd5b50919050565b601f821115610fa757805f5260205f20601f840160051c81016020851015610f855750805b601f840160051c820191505b81811015610fa4575f8155600101610f91565b50505b505050565b815167ffffffffffffffff811115610fc657610fc6610ba8565b610fda81610fd48454610f28565b84610f60565b602080601f83116001811461100d575f8415610ff65750858301515b5f19600386901b1c1916600185901b178555611064565b5f85815260208120601f198616915b8281101561103b5788860151825594840194600190910190840161101c565b508582101561105857878501515f19600388901b60f8161c191681555b505060018460011b0185555b505050505050565b60018060a01b0384168152826020820152606060408201525f6110926060830184610e58565b95945050505050565b5f60208083850312156110ac575f80fd5b825167ffffffffffffffff8111156110c2575f80fd5b8301601f810185136110d2575f80fd5b80516110e0610c4682610bed565b81815260059190911b820183019083810190878311156110fe575f80fd5b928401925b8284101561112557835161111681610c10565b82529284019290840190611103565b979650505050505050565b5f60208284031215611140575f80fd5b5051919050565b634e487b7160e01b5f52603260045260245ffd5b5f6020828403121561116b575f80fd5b8151801515811461117a575f80fd5b939250505056fea2646970667358221220b8afe03b3ed3cf791de2bf71bdc54b6a07a8f442976dd3b290229588f38756b564736f6c63430008190033",
        "linkReferences": {}
    },
    "methodIdentifiers": {
        "createMembrane(address[],uint256[],string)": "333cabc5",
        "gCheck(address,uint256)": "89160e0e",
        "getMembraneById(uint256)": "dd151ad8",
        "integrityCheck(uint256)": "50885bc5",
        "setInitWillWe()": "357e0520",
        "willWe()": "a17f3e33"
    },
    "storageLayout": {
        "storage": [
            {
                "astId": 50787,
                "contract": "src/Membranes.sol:Membranes",
                "label": "membraneById",
                "offset": 0,
                "slot": "0",
                "type": "t_mapping(t_uint256,t_struct(Membrane)53727_storage)"
            },
            {
                "astId": 50790,
                "contract": "src/Membranes.sol:Membranes",
                "label": "willWe",
                "offset": 0,
                "slot": "1",
                "type": "t_contract(IFun)53714"
            }
        ],
        "types": {
            "t_address": {
                "encoding": "inplace",
                "label": "address",
                "numberOfBytes": "20"
            },
            "t_array(t_address)dyn_storage": {
                "encoding": "dynamic_array",
                "label": "address[]",
                "numberOfBytes": "32",
                "base": "t_address"
            },
            "t_array(t_uint256)dyn_storage": {
                "encoding": "dynamic_array",
                "label": "uint256[]",
                "numberOfBytes": "32",
                "base": "t_uint256"
            },
            "t_contract(IFun)53714": {
                "encoding": "inplace",
                "label": "contract IFun",
                "numberOfBytes": "20"
            },
            "t_mapping(t_uint256,t_struct(Membrane)53727_storage)": {
                "encoding": "mapping",
                "key": "t_uint256",
                "label": "mapping(uint256 => struct Membrane)",
                "numberOfBytes": "32",
                "value": "t_struct(Membrane)53727_storage"
            },
            "t_string_storage": {
                "encoding": "bytes",
                "label": "string",
                "numberOfBytes": "32"
            },
            "t_struct(Membrane)53727_storage": {
                "encoding": "inplace",
                "label": "struct Membrane",
                "numberOfBytes": "128",
                "members": [
                    {
                        "astId": 53719,
                        "contract": "src/Membranes.sol:Membranes",
                        "label": "tokens",
                        "offset": 0,
                        "slot": "0",
                        "type": "t_array(t_address)dyn_storage"
                    },
                    {
                        "astId": 53722,
                        "contract": "src/Membranes.sol:Membranes",
                        "label": "balances",
                        "offset": 0,
                        "slot": "1",
                        "type": "t_array(t_uint256)dyn_storage"
                    },
                    {
                        "astId": 53724,
                        "contract": "src/Membranes.sol:Membranes",
                        "label": "meta",
                        "offset": 0,
                        "slot": "2",
                        "type": "t_string_storage"
                    },
                    {
                        "astId": 53726,
                        "contract": "src/Membranes.sol:Membranes",
                        "label": "createdAt",
                        "offset": 0,
                        "slot": "3",
                        "type": "t_uint256"
                    }
                ]
            },
            "t_uint256": {
                "encoding": "inplace",
                "label": "uint256",
                "numberOfBytes": "32"
            }
        }
    },
    "id": 56
}