{"abi":[{"type":"constructor","inputs":[{"name":"WillToken_","type":"address","internalType":"address"}],"stateMutability":"nonpayable"},{"type":"fallback","stateMutability":"payable"},{"type":"receive","stateMutability":"payable"},{"type":"function","name":"DOMAIN_SEPARATOR","inputs":[],"outputs":[{"name":"","type":"bytes32","internalType":"bytes32"}],"stateMutability":"view"},{"type":"function","name":"EIP712_DOMAIN_TYPEHASH","inputs":[],"outputs":[{"name":"","type":"bytes32","internalType":"bytes32"}],"stateMutability":"view"},{"type":"function","name":"MOVEMENT_TYPEHASH","inputs":[],"outputs":[{"name":"","type":"bytes32","internalType":"bytes32"}],"stateMutability":"view"},{"type":"function","name":"WillToken","inputs":[],"outputs":[{"name":"","type":"address","internalType":"address"}],"stateMutability":"view"},{"type":"function","name":"WillWe","inputs":[],"outputs":[{"name":"","type":"address","internalType":"contract IFun"}],"stateMutability":"view"},{"type":"function","name":"createEndpointForOwner","inputs":[{"name":"origin","type":"address","internalType":"address"},{"name":"nodeId","type":"uint256","internalType":"uint256"},{"name":"owner","type":"address","internalType":"address"}],"outputs":[{"name":"endpoint","type":"address","internalType":"address"}],"stateMutability":"nonpayable"},{"type":"function","name":"createInitWillWeEndpoint","inputs":[{"name":"nodeId_","type":"uint256","internalType":"uint256"}],"outputs":[{"name":"endpoint","type":"address","internalType":"address"}],"stateMutability":"nonpayable"},{"type":"function","name":"endpointOwner","inputs":[{"name":"endpointAddress","type":"address","internalType":"address"}],"outputs":[{"name":"","type":"uint256","internalType":"uint256"}],"stateMutability":"view"},{"type":"function","name":"executeQueue","inputs":[{"name":"queueHash","type":"bytes32","internalType":"bytes32"}],"outputs":[{"name":"success","type":"bool","internalType":"bool"}],"stateMutability":"nonpayable"},{"type":"function","name":"getDigestToSign","inputs":[{"name":"movement","type":"tuple","internalType":"struct Movement","components":[{"name":"category","type":"uint8","internalType":"enum MovementType"},{"name":"initiatior","type":"address","internalType":"address"},{"name":"exeAccount","type":"address","internalType":"address"},{"name":"viaNode","type":"uint256","internalType":"uint256"},{"name":"expiresAt","type":"uint256","internalType":"uint256"},{"name":"description","type":"string","internalType":"string"},{"name":"executedPayload","type":"bytes","internalType":"bytes"}]}],"outputs":[{"name":"","type":"bytes32","internalType":"bytes32"}],"stateMutability":"view"},{"type":"function","name":"getEIP712MessageHash","inputs":[{"name":"movementHash","type":"bytes32","internalType":"bytes32"}],"outputs":[{"name":"","type":"bytes32","internalType":"bytes32"}],"stateMutability":"view"},{"type":"function","name":"getLatentMovements","inputs":[{"name":"nodeId","type":"uint256","internalType":"uint256"}],"outputs":[{"name":"latentMovements","type":"tuple[]","internalType":"struct LatentMovement[]","components":[{"name":"movement","type":"tuple","internalType":"struct Movement","components":[{"name":"category","type":"uint8","internalType":"enum MovementType"},{"name":"initiatior","type":"address","internalType":"address"},{"name":"exeAccount","type":"address","internalType":"address"},{"name":"viaNode","type":"uint256","internalType":"uint256"},{"name":"expiresAt","type":"uint256","internalType":"uint256"},{"name":"description","type":"string","internalType":"string"},{"name":"executedPayload","type":"bytes","internalType":"bytes"}]},{"name":"signatureQueue","type":"tuple","internalType":"struct SignatureQueue","components":[{"name":"state","type":"uint8","internalType":"enum SQState"},{"name":"Action","type":"tuple","internalType":"struct Movement","components":[{"name":"category","type":"uint8","internalType":"enum MovementType"},{"name":"initiatior","type":"address","internalType":"address"},{"name":"exeAccount","type":"address","internalType":"address"},{"name":"viaNode","type":"uint256","internalType":"uint256"},{"name":"expiresAt","type":"uint256","internalType":"uint256"},{"name":"description","type":"string","internalType":"string"},{"name":"executedPayload","type":"bytes","internalType":"bytes"}]},{"name":"Signers","type":"address[]","internalType":"address[]"},{"name":"Sigs","type":"bytes[]","internalType":"bytes[]"}]},{"name":"movementHash","type":"bytes32","internalType":"bytes32"}]}],"stateMutability":"view"},{"type":"function","name":"getSigQueue","inputs":[{"name":"hash_","type":"bytes32","internalType":"bytes32"}],"outputs":[{"name":"","type":"tuple","internalType":"struct SignatureQueue","components":[{"name":"state","type":"uint8","internalType":"enum SQState"},{"name":"Action","type":"tuple","internalType":"struct Movement","components":[{"name":"category","type":"uint8","internalType":"enum MovementType"},{"name":"initiatior","type":"address","internalType":"address"},{"name":"exeAccount","type":"address","internalType":"address"},{"name":"viaNode","type":"uint256","internalType":"uint256"},{"name":"expiresAt","type":"uint256","internalType":"uint256"},{"name":"description","type":"string","internalType":"string"},{"name":"executedPayload","type":"bytes","internalType":"bytes"}]},{"name":"Signers","type":"address[]","internalType":"address[]"},{"name":"Sigs","type":"bytes[]","internalType":"bytes[]"}]}],"stateMutability":"view"},{"type":"function","name":"hashMovement","inputs":[{"name":"movement","type":"tuple","internalType":"struct Movement","components":[{"name":"category","type":"uint8","internalType":"enum MovementType"},{"name":"initiatior","type":"address","internalType":"address"},{"name":"exeAccount","type":"address","internalType":"address"},{"name":"viaNode","type":"uint256","internalType":"uint256"},{"name":"expiresAt","type":"uint256","internalType":"uint256"},{"name":"description","type":"string","internalType":"string"},{"name":"executedPayload","type":"bytes","internalType":"bytes"}]}],"outputs":[{"name":"","type":"bytes32","internalType":"bytes32"}],"stateMutability":"pure"},{"type":"function","name":"isQueueValid","inputs":[{"name":"sigHash","type":"bytes32","internalType":"bytes32"}],"outputs":[{"name":"","type":"bool","internalType":"bool"}],"stateMutability":"view"},{"type":"function","name":"isValidSignature","inputs":[{"name":"_hash","type":"bytes32","internalType":"bytes32"},{"name":"_signature","type":"bytes","internalType":"bytes"}],"outputs":[{"name":"","type":"bytes4","internalType":"bytes4"}],"stateMutability":"view"},{"type":"function","name":"lastSalt","inputs":[],"outputs":[{"name":"","type":"bytes32","internalType":"bytes32"}],"stateMutability":"view"},{"type":"function","name":"nextSalt","inputs":[],"outputs":[{"name":"","type":"bytes32","internalType":"bytes32"}],"stateMutability":"view"},{"type":"function","name":"removeLatentAction","inputs":[{"name":"actionHash","type":"bytes32","internalType":"bytes32"},{"name":"index","type":"uint256","internalType":"uint256"}],"outputs":[],"stateMutability":"nonpayable"},{"type":"function","name":"removeSignature","inputs":[{"name":"queueHash","type":"bytes32","internalType":"bytes32"},{"name":"index","type":"uint256","internalType":"uint256"},{"name":"signer","type":"address","internalType":"address"}],"outputs":[],"stateMutability":"nonpayable"},{"type":"function","name":"setWillWe","inputs":[{"name":"implementation","type":"address","internalType":"address"}],"outputs":[],"stateMutability":"nonpayable"},{"type":"function","name":"startMovement","inputs":[{"name":"typeOfMovement","type":"uint8","internalType":"uint8"},{"name":"nodeId","type":"uint256","internalType":"uint256"},{"name":"expiresInDays","type":"uint256","internalType":"uint256"},{"name":"executingAccount","type":"address","internalType":"address"},{"name":"description","type":"string","internalType":"string"},{"name":"data","type":"bytes","internalType":"bytes"}],"outputs":[{"name":"movementHash","type":"bytes32","internalType":"bytes32"}],"stateMutability":"nonpayable"},{"type":"function","name":"submitSignatures","inputs":[{"name":"queueHash","type":"bytes32","internalType":"bytes32"},{"name":"signers","type":"address[]","internalType":"address[]"},{"name":"signatures","type":"bytes[]","internalType":"bytes[]"}],"outputs":[],"stateMutability":"nonpayable"},{"type":"event","name":"LatentActionRemoved","inputs":[{"name":"nodeId","type":"uint256","indexed":true,"internalType":"uint256"},{"name":"actionHash","type":"bytes32","indexed":true,"internalType":"bytes32"},{"name":"index","type":"uint256","indexed":false,"internalType":"uint256"}],"anonymous":false},{"type":"event","name":"NewMovementCreated","inputs":[{"name":"nodeId","type":"uint256","indexed":true,"internalType":"uint256"},{"name":"initiator","type":"address","indexed":false,"internalType":"address"},{"name":"movementHash","type":"bytes32","indexed":false,"internalType":"bytes32"},{"name":"description","type":"string","indexed":false,"internalType":"string"}],"anonymous":false},{"type":"event","name":"NewSignaturesSubmitted","inputs":[{"name":"queueHash","type":"bytes32","indexed":true,"internalType":"bytes32"}],"anonymous":false},{"type":"event","name":"QueueExecuted","inputs":[{"name":"nodeId","type":"uint256","indexed":true,"internalType":"uint256"},{"name":"queueHash","type":"bytes32","indexed":true,"internalType":"bytes32"}],"anonymous":false},{"type":"event","name":"SignatureRemoved","inputs":[{"name":"nodeId","type":"uint256","indexed":true,"internalType":"uint256"},{"name":"queueHash","type":"bytes32","indexed":true,"internalType":"bytes32"},{"name":"signer","type":"address","indexed":false,"internalType":"address"}],"anonymous":false},{"type":"event","name":"WillWeSet","inputs":[{"name":"implementation","type":"address","indexed":false,"internalType":"address"}],"anonymous":false},{"type":"error","name":"EXE_A0sig","inputs":[]},{"type":"error","name":"EXE_ActionIndexMismatch","inputs":[]},{"type":"error","name":"EXE_AlreadyHasEndpoint","inputs":[]},{"type":"error","name":"EXE_AlreadyInit","inputs":[]},{"type":"error","name":"EXE_AlreadyInitialized","inputs":[]},{"type":"error","name":"EXE_AlreadySigned","inputs":[]},{"type":"error","name":"EXE_BadOwnerOrAuthType","inputs":[]},{"type":"error","name":"EXE_EmptyUnallowed","inputs":[]},{"type":"error","name":"EXE_ExpiredMovement","inputs":[]},{"type":"error","name":"EXE_ExpiredQueue","inputs":[]},{"type":"error","name":"EXE_InProgress","inputs":[]},{"type":"error","name":"EXE_InvalidQueue","inputs":[]},{"type":"error","name":"EXE_LenErr","inputs":[]},{"type":"error","name":"EXE_NoDescription","inputs":[]},{"type":"error","name":"EXE_NoMembersForNode","inputs":[]},{"type":"error","name":"EXE_NoMovementType","inputs":[]},{"type":"error","name":"EXE_NoSignatures","inputs":[]},{"type":"error","name":"EXE_NoType","inputs":[]},{"type":"error","name":"EXE_NotExeAccOwner","inputs":[]},{"type":"error","name":"EXE_NotNodeMember","inputs":[]},{"type":"error","name":"EXE_OnlyMore","inputs":[]},{"type":"error","name":"EXE_OnlySigner","inputs":[]},{"type":"error","name":"EXE_OnlyWillWe","inputs":[]},{"type":"error","name":"EXE_SQInvalid","inputs":[]},{"type":"error","name":"EXE_UnavailableState","inputs":[]},{"type":"error","name":"EXE_UninitQueue","inputs":[]},{"type":"error","name":"EXE_ZeroLen","inputs":[]},{"type":"error","name":"EXE_exeQFail","inputs":[]}],"bytecode":{"object":"0x60a060405234801561000f575f80fd5b506040516150b53803806150b583398101604081905261002e91610125565b5f80546001600160a01b0319166001600160a01b038316179055604080518082018252600a8152692bb4b6362bb2973c3cbd60b11b6020918201528151808301835260018152603160f81b9082015281517f8b73c3c69bb8fe3d512ecc4cf759cc79239f7b179b0ffacaa9a75d522b39400f918101919091527f09b2c51be6b3d7d1c46f1fee0622d148859b0cec67740b30d5fb38f4c04a2508918101919091527fc89efdaa54c0f20c7adf612882df0950f5a951637e0307cdcb4c672f298b8bc660608201524660808201523060a082015260c00160408051601f19818403018152919052805160209091012060805250610152565b5f60208284031215610135575f80fd5b81516001600160a01b038116811461014b575f80fd5b9392505050565b608051614f446101715f395f818161024e01526124690152614f445ff3fe608060405260043610610143575f3560e01c806390ef12cd116100b5578063c7977be71161006e578063c7977be71461041b578063d2ccb7e21461044e578063daa10cf31461046d578063e7dd31171461048c578063ea3c1aac146104ab578063eb3b3963146104ca5761014a565b806390ef12cd1461033457806392fce5cb146103525780639511815414610385578063aff8d6bf146103b1578063bd8f46f9146103d0578063c0ecadbc146103ef5761014a565b806347ac8cb41161010757806347ac8cb4146102705780635831122a1461028f57806360b27e11146102ae5780636a87271f146102e2578063817960b21461030157806387d53348146103205761014a565b80631626ba7e146101775780631edd0d5b146101b457806322ed94a0146101e357806330996b971461021a5780633644e5151461023d5761014a565b3661014a57005b5f3560e01c63bc197c81811463f23a6e6182141763150b7a028214171561017557806020526020603cf35b005b348015610182575f80fd5b50610196610191366004613c84565b6104e9565b6040516001600160e01b031990911681526020015b60405180910390f35b3480156101bf575f80fd5b506101d36101ce366004613cc7565b61052a565b60405190151581526020016101ab565b3480156101ee575f80fd5b50600154610202906001600160a01b031681565b6040516001600160a01b0390911681526020016101ab565b348015610225575f80fd5b5061022f60025481565b6040519081526020016101ab565b348015610248575f80fd5b5061022f7f000000000000000000000000000000000000000000000000000000000000000081565b34801561027b575f80fd5b5061020261028a366004613d02565b61077a565b34801561029a575f80fd5b506101756102a9366004613ded565b6108a1565b3480156102b9575f80fd5b5061022f6102c8366004613eb2565b6001600160a01b03165f9081526005602052604090205490565b3480156102ed575f80fd5b5061022f6102fc366004613edb565b6110e7565b34801561030c575f80fd5b5061022f61031b366004613fba565b611104565b34801561032b575f80fd5b5061022f611603565b34801561033f575f80fd5b505f54610202906001600160a01b031681565b34801561035d575f80fd5b5061022f7fbd6e1b29678add1b1edfe1acae6dd222f092169f385c12d9eb331d7814bd25e681565b348015610390575f80fd5b506103a461039f366004613cc7565b611646565b6040516101ab9190614217565b3480156103bc575f80fd5b506101756103cb366004614229565b61196a565b3480156103db575f80fd5b506102026103ea366004613cc7565b611f3d565b3480156103fa575f80fd5b5061040e610409366004613cc7565b611f75565b6040516101ab9190614249565b348015610426575f80fd5b5061022f7f8b73c3c69bb8fe3d512ecc4cf759cc79239f7b179b0ffacaa9a75d522b39400f81565b348015610459575f80fd5b5061022f610468366004613edb565b6123d3565b348015610478575f80fd5b5061022f610487366004613cc7565b612459565b348015610497575f80fd5b506101d36104a6366004613cc7565b61249e565b3480156104b6575f80fd5b506101756104c5366004613eb2565b612b38565b3480156104d5575f80fd5b506101756104e43660046142da565b612bd0565b5f60025f8481526003602052604090205460ff16600481111561050e5761050e61404e565b036105215750630b135d3f60e11b610524565b505f5b92915050565b5f806105358361311d565b905060028151600481111561054c5761054c61404e565b1461056a57604051637498009360e01b815260040160405180910390fd5b428160200151608001511161059257604051634f8cfdd560e01b815260040160405180910390fd5b60208181015160038084525f868152925260409091208251815484929190829060ff191660018360048111156105ca576105ca61404e565b02179055506020820151805160018084018054909291839160ff1916908360028111156105f9576105f961404e565b021790555060208201518154610100600160a81b0319166101006001600160a01b039283160217825560408301516001830180546001600160a01b03191691909216179055606082015160028201556080820151600382015560a082015160048201906106669082614389565b5060c0820151600582019061067b9082614389565b505050604082015180516106999160078401916020909101906139de565b50606082015180516106b5916008840191602090910190613a41565b509050508160200151604001516001600160a01b03168160c001516040516106dd9190614448565b5f604051808303815f865af19150503d805f8114610716576040519150601f19603f3d011682016040523d82523d5f602084013e61071b565b606091505b5050809350508261073f57604051637dfd733360e11b815260040160405180910390fd5b6020820151606001516040518591907f6c4de46d19e4638328e46b03c9b3923038616459da4704969a4f050b4ea0aea5905f90a35050919050565b6001545f906001600160a01b031633146107a75760405163337bb0b760e11b815260040160405180910390fd5b60065f6107bd6001600160a01b03851686614472565b815260208101919091526040015f205460ff16156107ee576040516331a1aeff60e11b815260040160405180910390fd5b600160065f6108066001600160a01b03861687614472565b815260208101919091526040015f20805460ff191691151591909117905561082f8260036136bb565b600154604051631465471360e11b81526001600160a01b0380841660048301526024820187905285811660448301529293509116906328ca8e26906064015f604051808303815f87803b158015610884575f80fd5b505af1158015610896573d5f803e3d5ffd5b505050509392505050565b5f838152600360205260408082208151608081019092528054829060ff1660048111156108d0576108d061404e565b60048111156108e1576108e161404e565b81526040805160e08101909152600183018054602090930192829060ff1660028111156109105761091061404e565b60028111156109215761092161404e565b815281546001600160a01b03610100909104811660208301526001830154166040820152600282015460608201526003820154608082015260048201805460a09092019161096e90614305565b80601f016020809104026020016040519081016040528092919081815260200182805461099a90614305565b80156109e55780601f106109bc576101008083540402835291602001916109e5565b820191905f5260205f20905b8154815290600101906020018083116109c857829003601f168201915b505050505081526020016005820180546109fe90614305565b80601f0160208091040260200160405190810160405280929190818152602001828054610a2a90614305565b8015610a755780601f10610a4c57610100808354040283529160200191610a75565b820191905f5260205f20905b815481529060010190602001808311610a5857829003601f168201915b505050505081525050815260200160078201805480602002602001604051908101604052809291908181526020018280548015610ad957602002820191905f5260205f20905b81546001600160a01b03168152600190910190602001808311610abb575b5050505050815260200160088201805480602002602001604051908101604052809291908181526020015f905b82821015610bae578382905f5260205f20018054610b2390614305565b80601f0160208091040260200160405190810160405280929190818152602001828054610b4f90614305565b8015610b9a5780601f10610b7157610100808354040283529160200191610b9a565b820191905f5260205f20905b815481529060010190602001808311610b7d57829003601f168201915b505050505081526020019060010190610b06565b5050505081525050905080606001515182511015610bdf5760405163607f2c6960e11b815260040160405180910390fd5b81518351610bed9190614485565b5f03610c0c576040516342d43f8960e11b815260040160405180910390fd5b8151835114610c2e576040516309459a5360e41b815260040160405180910390fd5b5f610c3885612459565b90505f805b8551811015610e1d575f6001600160a01b0316868281518110610c6257610c6261449c565b60200260200101516001600160a01b03160315610e155760065f878381518110610c8e57610c8e61449c565b60200260200101516001600160a01b0316895f1c610cac91906144b0565b815260208101919091526040015f205460ff16610e155760015486516001600160a01b03909116906385752d0390889084908110610cec57610cec61449c565b60200260200101518660200151606001516040518363ffffffff1660e01b8152600401610d2e9291906001600160a01b03929092168252602082015260400190565b602060405180830381865afa158015610d49573d5f803e3d5ffd5b505050506040513d601f19601f82011682018060405250810190610d6d91906144c3565b15610e1557610daf868281518110610d8757610d8761449c565b602002602001015184878481518110610da257610da261449c565b6020026020010151613716565b15610e1557600160065f888481518110610dcb57610dcb61449c565b60200260200101516001600160a01b03168a5f1c610de991906144b0565b815260208101919091526040015f20805460ff191691151591909117905581610e11816144e2565b9250505b600101610c3d565b5080156110b5575f81846040015151610e369190614472565b90505f816001600160401b03811115610e5157610e51613bad565b604051908082528060200260200182016040528015610e7a578160200160208202803683370190505b5090505f826001600160401b03811115610e9657610e96613bad565b604051908082528060200260200182016040528015610ec957816020015b6060815260200190600190039081610eb45790505b5090505f5b866040015151811015610f6e5786604001518181518110610ef157610ef161449c565b6020026020010151838281518110610f0b57610f0b61449c565b60200260200101906001600160a01b031690816001600160a01b03168152505086606001518181518110610f4157610f4161449c565b6020026020010151828281518110610f5b57610f5b61449c565b6020908102919091010152600101610ece565b506040860151515f5b89518110156110655760065f8b8381518110610f9557610f9561449c565b60200260200101516001600160a01b03168d5f1c610fb391906144b0565b815260208101919091526040015f205460ff161561105d57898181518110610fdd57610fdd61449c565b6020026020010151848381518110610ff757610ff761449c565b60200260200101906001600160a01b031690816001600160a01b0316815250508881815181106110295761102961449c565b60200260200101518383815181106110435761104361449c565b60200260200101819052508180611059906144e2565b9250505b600101610f77565b505f8a8152600360209081526040909120845161108a926007909201918601906139de565b505f8a815260036020908152604090912083516110af92600890920191850190613a41565b50505050505b60405186907f8387ab4c637f3db41524b211dabc557a37c55b59a6f9ae117dfdc610f590fcd0905f90a2505050505050565b5f806110f2836123d3565b90506110fd81612459565b9392505050565b5f60028760ff161180611118575060ff8716155b156111365760405163e11f54d360e01b815260040160405180910390fd5b6001546040516385752d0360e01b8152336004820152602481018890526001600160a01b03909116906385752d0390604401602060405180830381865afa158015611183573d5f803e3d5ffd5b505050506040513d601f19601f820116820180604052508101906111a791906144c3565b6111c457604051631e59904560e11b815260040160405180910390fd5b846111d28760ff8a16614485565b6111dc9190614485565b5f036111fb57604051630f11143560e01b815260040160405180910390fd5b60088351101561121e57604051631c9858ed60e31b815260040160405180910390fd5b6001600160a01b038416611257576112368688613774565b6001600160a01b0381165f9081526005602052604090208790559350611391565b6001600160a01b0384165f90815260056020526040902054861461128e5760405163cb685d3760e01b815260040160405180910390fd5b306001600160a01b0316846001600160a01b0316638da5cb5b6040518163ffffffff1660e01b8152600401602060405180830381865afa1580156112d4573d5f803e3d5ffd5b505050506040513d601f19601f820116820180604052508101906112f891906144fa565b6001600160a01b031614158061137357508660ff16846001600160a01b03166334e0bebe6040518163ffffffff1660e01b8152600401602060405180830381865afa158015611349573d5f803e3d5ffd5b505050506040513d601f19601f8201168201806040525081019061136d9190614515565b60ff1614155b156113915760405163778f7a9560e11b815260040160405180910390fd5b611399613a91565b3360208201526060810187905260a0810184905260c081018390526001600160a01b0385166040820152426113d18762015180614485565b6113db9190614472565b6080820152600160ff8916146113f25760026113f5565b60015b819060028111156114085761140861404e565b9081600281111561141b5761141b61404e565b905250611427816123d3565b5f888152600460209081526040822080546001810182559083529120018190559150611451613adc565b6001815260208082018390525f8481526003909152604081205460ff16600481111561147f5761147f61404e565b1461149d576040516308bc05bb60e41b815260040160405180910390fd5b5f8381526003602052604090208151815483929190829060ff191660018360048111156114cc576114cc61404e565b02179055506020820151805160018084018054909291839160ff1916908360028111156114fb576114fb61404e565b021790555060208201518154610100600160a81b0319166101006001600160a01b039283160217825560408301516001830180546001600160a01b03191691909216179055606082015160028201556080820151600382015560a082015160048201906115689082614389565b5060c0820151600582019061157d9082614389565b5050506040820151805161159b9160078401916020909101906139de565b50606082015180516115b7916008840191602090910190613a41565b50905050877f48a837c0e7e903c318a42cc30f2bb4aed354b20717f63a7f6ed16676a97ddf573385886040516115ef93929190614530565b60405180910390a250509695505050505050565b60025460408051446020820152429181019190915246606082015260808101919091525f9060a00160405160208183030381529060405280519060200120905090565b61164e613adc565b5f82815260036020526040908190208151608081019092528054829060ff16600481111561167e5761167e61404e565b600481111561168f5761168f61404e565b81526040805160e08101909152600183018054602090930192829060ff1660028111156116be576116be61404e565b60028111156116cf576116cf61404e565b815281546001600160a01b03610100909104811660208301526001830154166040820152600282015460608201526003820154608082015260048201805460a09092019161171c90614305565b80601f016020809104026020016040519081016040528092919081815260200182805461174890614305565b80156117935780601f1061176a57610100808354040283529160200191611793565b820191905f5260205f20905b81548152906001019060200180831161177657829003601f168201915b505050505081526020016005820180546117ac90614305565b80601f01602080910402602001604051908101604052809291908181526020018280546117d890614305565b80156118235780601f106117fa57610100808354040283529160200191611823565b820191905f5260205f20905b81548152906001019060200180831161180657829003601f168201915b50505050508152505081526020016007820180548060200260200160405190810160405280929190818152602001828054801561188757602002820191905f5260205f20905b81546001600160a01b03168152600190910190602001808311611869575b5050505050815260200160088201805480602002602001604051908101604052809291908181526020015f905b8282101561195c578382905f5260205f200180546118d190614305565b80601f01602080910402602001604051908101604052809291908181526020018280546118fd90614305565b80156119485780601f1061191f57610100808354040283529160200191611948565b820191905f5260205f20905b81548152906001019060200180831161192b57829003601f168201915b5050505050815260200190600101906118b4565b505050915250909392505050565b5f828152600360205260408082208151608081019092528054829060ff1660048111156119995761199961404e565b60048111156119aa576119aa61404e565b81526040805160e08101909152600183018054602090930192829060ff1660028111156119d9576119d961404e565b60028111156119ea576119ea61404e565b815281546001600160a01b03610100909104811660208301526001830154166040820152600282015460608201526003820154608082015260048201805460a090920191611a3790614305565b80601f0160208091040260200160405190810160405280929190818152602001828054611a6390614305565b8015611aae5780601f10611a8557610100808354040283529160200191611aae565b820191905f5260205f20905b815481529060010190602001808311611a9157829003601f168201915b50505050508152602001600582018054611ac790614305565b80601f0160208091040260200160405190810160405280929190818152602001828054611af390614305565b8015611b3e5780601f10611b1557610100808354040283529160200191611b3e565b820191905f5260205f20905b815481529060010190602001808311611b2157829003601f168201915b505050505081525050815260200160078201805480602002602001604051908101604052809291908181526020018280548015611ba257602002820191905f5260205f20905b81546001600160a01b03168152600190910190602001808311611b84575b5050505050815260200160088201805480602002602001604051908101604052809291908181526020015f905b82821015611c77578382905f5260205f20018054611bec90614305565b80601f0160208091040260200160405190810160405280929190818152602001828054611c1890614305565b8015611c635780601f10611c3a57610100808354040283529160200191611c63565b820191905f5260205f20905b815481529060010190602001808311611c4657829003601f168201915b505050505081526020019060010190611bcf565b50505050815250509050428160200151608001511115611c9657600481525b600181516004811115611cab57611cab61404e565b1480611cc95750600281516004811115611cc757611cc761404e565b145b15611ce757604051633779253960e11b815260040160405180910390fd5b8260045f83602001516060015181526020019081526020015f208381548110611d1257611d1261449c565b905f5260205f20015414611d39576040516384dedd9f60e01b815260040160405180910390fd5b60045f82602001516060015181526020019081526020015f208281548110611d6357611d6361449c565b905f5260205f20015f90558160045f83602001516060015181526020019081526020015f205f81548110611d9957611d9961449c565b905f5260205f2001545f1c1115611dde57602080820151606001515f9081526004909152604081208054849290611dd257611dd261449c565b5f918252602090912001555b5f8381526003602052604090208151815483929190829060ff19166001836004811115611e0d57611e0d61404e565b02179055506020820151805160018084018054909291839160ff191690836002811115611e3c57611e3c61404e565b021790555060208201518154610100600160a81b0319166101006001600160a01b039283160217825560408301516001830180546001600160a01b03191691909216179055606082015160028201556080820151600382015560a08201516004820190611ea99082614389565b5060c08201516005820190611ebe9082614389565b50505060408201518051611edc9160078401916020909101906139de565b5060608201518051611ef8916008840191602090910190613a41565b5050506020808201516060015160405184815285927f19d228802ce661480d557248c8f4215fdb3ed19e0b49df06ae0672ca23948c08910160405180910390a3505050565b6001545f906001600160a01b03163314611f6a5760405163337bb0b760e11b815260040160405180910390fd5b610524826002613774565b5f818152600460209081526040808320805482518185028101850190935280835260609493830182828015611fc757602002820191905f5260205f20905b815481526020019060010190808311611fb3575b5050505050905080516001600160401b03811115611fe757611fe7613bad565b60405190808252806020026020018201604052801561202057816020015b61200d613b0a565b8152602001906001900390816120055790505b5091505f5b81518110156123cc575f60035f8484815181106120445761204461449c565b602002602001015181526020019081526020015f206040518060800160405290815f82015f9054906101000a900460ff1660048111156120865761208661404e565b60048111156120975761209761404e565b81526040805160e08101909152600183018054602090930192829060ff1660028111156120c6576120c661404e565b60028111156120d7576120d761404e565b815281546001600160a01b03610100909104811660208301526001830154166040820152600282015460608201526003820154608082015260048201805460a09092019161212490614305565b80601f016020809104026020016040519081016040528092919081815260200182805461215090614305565b801561219b5780601f106121725761010080835404028352916020019161219b565b820191905f5260205f20905b81548152906001019060200180831161217e57829003601f168201915b505050505081526020016005820180546121b490614305565b80601f01602080910402602001604051908101604052809291908181526020018280546121e090614305565b801561222b5780601f106122025761010080835404028352916020019161222b565b820191905f5260205f20905b81548152906001019060200180831161220e57829003601f168201915b50505050508152505081526020016007820180548060200260200160405190810160405280929190818152602001828054801561228f57602002820191905f5260205f20905b81546001600160a01b03168152600190910190602001808311612271575b5050505050815260200160088201805480602002602001604051908101604052809291908181526020015f905b82821015612364578382905f5260205f200180546122d990614305565b80601f016020809104026020016040519081016040528092919081815260200182805461230590614305565b80156123505780601f1061232757610100808354040283529160200191612350565b820191905f5260205f20905b81548152906001019060200180831161233357829003601f168201915b5050505050815260200190600101906122bc565b5050505081525050905060405180606001604052808260200151815260200182815260200184848151811061239b5761239b61449c565b60200260200101518152508483815181106123b8576123b861449c565b602090810291909101015250600101612025565b5050919050565b5f7fbd6e1b29678add1b1edfe1acae6dd222f092169f385c12d9eb331d7814bd25e6825f015183602001518460400151856060015186608001518760a00151805190602001208860c001518051906020012060405160200161243c989796959493929190614556565b604051602081830303815290604052805190602001209050919050565b60405161190160f01b60208201527f00000000000000000000000000000000000000000000000000000000000000006022820152604281018290525f9060620161243c565b5f81815260036020526040808220815160808101909252805483929190829060ff1660048111156124d1576124d161404e565b60048111156124e2576124e261404e565b81526040805160e08101909152600183018054602090930192829060ff1660028111156125115761251161404e565b60028111156125225761252261404e565b815281546001600160a01b03610100909104811660208301526001830154166040820152600282015460608201526003820154608082015260048201805460a09092019161256f90614305565b80601f016020809104026020016040519081016040528092919081815260200182805461259b90614305565b80156125e65780601f106125bd576101008083540402835291602001916125e6565b820191905f5260205f20905b8154815290600101906020018083116125c957829003601f168201915b505050505081526020016005820180546125ff90614305565b80601f016020809104026020016040519081016040528092919081815260200182805461262b90614305565b80156126765780601f1061264d57610100808354040283529160200191612676565b820191905f5260205f20905b81548152906001019060200180831161265957829003601f168201915b5050505050815250508152602001600782018054806020026020016040519081016040528092919081815260200182805480156126da57602002820191905f5260205f20905b81546001600160a01b031681526001909101906020018083116126bc575b5050505050815260200160088201805480602002602001604051908101604052809291908181526020015f905b828210156127af578382905f5260205f2001805461272490614305565b80601f016020809104026020016040519081016040528092919081815260200182805461275090614305565b801561279b5780601f106127725761010080835404028352916020019161279b565b820191905f5260205f20905b81548152906001019060200180831161277e57829003601f168201915b505050505081526020019060010190612707565b5050509152509091505f905060208201515160028111156127d2576127d261404e565b036127df57505f92915050565b6002815160048111156127f4576127f461404e565b036128025750600192915050565b6001815160048111156128175761281761404e565b1461282457505f92915050565b8060400151515f0361283857505f92915050565b8060600151518160400151511461285157505f92915050565b604081015160608201515f9182918261286988612459565b90505b81518510156129d8575f6001600160a01b03168386815181106128915761289161449c565b60200260200101516001600160a01b031603156129cd576128d88386815181106128bd576128bd61449c565b602002602001015182848881518110610da257610da261449c565b6128e957505f979650505050505050565b600260208701515160028111156129025761290261404e565b1461291757612912846001614472565b6129ca565b60015483516001600160a01b039091169062fdd58e9085908890811061293f5761293f61449c565b60200260200101518860200151606001516040518363ffffffff1660e01b81526004016129819291906001600160a01b03929092168252602082015260400190565b602060405180830381865afa15801561299c573d5f803e3d5ffd5b505050506040513d601f19601f820116820180604052508101906129c091906145a8565b6129ca9085614472565b93505b84600101945061286c565b8315612b2b57600260208701515160028111156129f7576129f761404e565b03612a8a5760015460208701516060015160405163bd85b03960e01b815260048101919091526002916001600160a01b03169063bd85b03990602401602060405180830381865afa158015612a4e573d5f803e3d5ffd5b505050506040513d601f19601f82011682018060405250810190612a7291906145a8565b612a7c91906145bf565b909311979650505050505050565b60016020870151516002811115612aa357612aa361404e565b03612b2b5760015460208701516060015160405163eef2e75760e01b815260048101919091526002916001600160a01b03169063eef2e757906024015f60405180830381865afa158015612af9573d5f803e3d5ffd5b505050506040513d5f823e601f3d908101601f19168201604052612b2091908101906145de565b51612a7c91906145bf565b505f979650505050505050565b6001546001600160a01b0316612b6457600180546001600160a01b0319166001600160a01b0383161790555b5f546001600160a01b03163303612b9157600180546001600160a01b0319166001600160a01b0383161790555b6040516001600160a01b03821681527f68e0e5615e0f0beac903df596e5f37d76055e23925dde4e747a159ed0170424f9060200160405180910390a150565b5f838152600360205260408082208151608081019092528054829060ff166004811115612bff57612bff61404e565b6004811115612c1057612c1061404e565b81526040805160e08101909152600183018054602090930192829060ff166002811115612c3f57612c3f61404e565b6002811115612c5057612c5061404e565b815281546001600160a01b03610100909104811660208301526001830154166040820152600282015460608201526003820154608082015260048201805460a090920191612c9d90614305565b80601f0160208091040260200160405190810160405280929190818152602001828054612cc990614305565b8015612d145780601f10612ceb57610100808354040283529160200191612d14565b820191905f5260205f20905b815481529060010190602001808311612cf757829003601f168201915b50505050508152602001600582018054612d2d90614305565b80601f0160208091040260200160405190810160405280929190818152602001828054612d5990614305565b8015612da45780601f10612d7b57610100808354040283529160200191612da4565b820191905f5260205f20905b815481529060010190602001808311612d8757829003601f168201915b505050505081525050815260200160078201805480602002602001604051908101604052809291908181526020018280548015612e0857602002820191905f5260205f20905b81546001600160a01b03168152600190910190602001808311612dea575b5050505050815260200160088201805480602002602001604051908101604052809291908181526020015f905b82821015612edd578382905f5260205f20018054612e5290614305565b80601f0160208091040260200160405190810160405280929190818152602001828054612e7e90614305565b8015612ec95780601f10612ea057610100808354040283529160200191612ec9565b820191905f5260205f20905b815481529060010190602001808311612eac57829003601f168201915b505050505081526020019060010190612e35565b50505050815250509050816001600160a01b031681604001518481518110612f0757612f0761449c565b60200260200101516001600160a01b031614612f365760405163a23b0eb360e01b815260040160405180910390fd5b80606001518381518110612f4c57612f4c61449c565b60200260200101606081525080604001518381518110612f6e57612f6e61449c565b5f602091820292909201810182905285825260039052604090208151815483929190829060ff19166001836004811115612faa57612faa61404e565b02179055506020820151805160018084018054909291839160ff191690836002811115612fd957612fd961404e565b021790555060208201518154610100600160a81b0319166101006001600160a01b039283160217825560408301516001830180546001600160a01b03191691909216179055606082015160028201556080820151600382015560a082015160048201906130469082614389565b5060c0820151600582019061305b9082614389565b505050604082015180516130799160078401916020909101906139de565b5060608201518051613095916008840191602090910190613a41565b505f915060069050816130b16001600160a01b038616886144b0565b815260208082019290925260409081015f20805460ff191693151593909317909255828101516060015191516001600160a01b03851681528692917f72e8bb41de86f6a048361bf7dda6aee93fedcc6e8ac99520b47e6f289eb449d8910160405180910390a350505050565b613125613adc565b5f82815260036020526040908190208151608081019092528054829060ff1660048111156131555761315561404e565b60048111156131665761316661404e565b81526040805160e08101909152600183018054602090930192829060ff1660028111156131955761319561404e565b60028111156131a6576131a661404e565b815281546001600160a01b03610100909104811660208301526001830154166040820152600282015460608201526003820154608082015260048201805460a0909201916131f390614305565b80601f016020809104026020016040519081016040528092919081815260200182805461321f90614305565b801561326a5780601f106132415761010080835404028352916020019161326a565b820191905f5260205f20905b81548152906001019060200180831161324d57829003601f168201915b5050505050815260200160058201805461328390614305565b80601f01602080910402602001604051908101604052809291908181526020018280546132af90614305565b80156132fa5780601f106132d1576101008083540402835291602001916132fa565b820191905f5260205f20905b8154815290600101906020018083116132dd57829003601f168201915b50505050508152505081526020016007820180548060200260200160405190810160405280929190818152602001828054801561335e57602002820191905f5260205f20905b81546001600160a01b03168152600190910190602001808311613340575b5050505050815260200160088201805480602002602001604051908101604052809291908181526020015f905b82821015613433578382905f5260205f200180546133a890614305565b80601f01602080910402602001604051908101604052809291908181526020018280546133d490614305565b801561341f5780601f106133f65761010080835404028352916020019161341f565b820191905f5260205f20905b81548152906001019060200180831161340257829003601f168201915b50505050508152602001906001019061338b565b50505050815250509050428160200151608001511161356e5760048082525f838152600360205260409020825181548493839160ff191690600190849081111561347f5761347f61404e565b02179055506020820151805160018084018054909291839160ff1916908360028111156134ae576134ae61404e565b021790555060208201518154610100600160a81b0319166101006001600160a01b039283160217825560408301516001830180546001600160a01b03191691909216179055606082015160028201556080820151600382015560a0820151600482019061351b9082614389565b5060c082015160058201906135309082614389565b5050506040820151805161354e9160078401916020909101906139de565b506060820151805161356a916008840191602090910190613a41565b5050505b6135778261249e565b61359457604051631ce7101b60e31b815260040160405180910390fd5b600281525f8281526003602052604090208151815483929190829060ff191660018360048111156135c7576135c761404e565b02179055506020820151805160018084018054909291839160ff1916908360028111156135f6576135f661404e565b021790555060208201518154610100600160a81b0319166101006001600160a01b039283160217825560408301516001830180546001600160a01b03191691909216179055606082015160028201556080820151600382015560a082015160048201906136639082614389565b5060c082015160058201906136789082614389565b505050604082015180516136969160078401916020909101906139de565b50606082015180516136b2916008840191602090910190613a41565b50905050919050565b5f6136c4611603565b6002819055604051849084906136d990613b36565b6001600160a01b03909216825260ff1660208201526040018190604051809103905ff590508015801561370e573d5f803e3d5ffd5b509392505050565b5f805f6137238585613802565b90925090505f81600481111561373b5761373b61404e565b1480156137595750856001600160a01b0316826001600160a01b0316145b8061376a575061376a868686613844565b9695505050505050565b5f61377f30836136bb565b6001600160a01b038181165f81815260056020526040908190208790556001549051631465471360e11b81526004810192909252602482018790523060448301529293509116906328ca8e26906064015f604051808303815f87803b1580156137e6575f80fd5b505af11580156137f8573d5f803e3d5ffd5b5050505092915050565b5f808251604103613836576020830151604084015160608501515f1a61382a8782858561392b565b9450945050505061383d565b505f905060025b9250929050565b5f805f856001600160a01b0316631626ba7e60e01b868660405160240161386c929190614667565b60408051601f198184030181529181526020820180516001600160e01b03166001600160e01b03199094169390931790925290516138aa9190614448565b5f60405180830381855afa9150503d805f81146138e2576040519150601f19603f3d011682016040523d82523d5f602084013e6138e7565b606091505b50915091508180156138fb57506020815110155b801561376a57508051630b135d3f60e11b9061392090830160209081019084016145a8565b149695505050505050565b5f806fa2a8918ca85bafe22016d0b997e4df60600160ff1b0383111561395657505f905060036139d5565b604080515f8082526020820180845289905260ff881692820192909252606081018690526080810185905260019060a0016020604051602081039080840390855afa1580156139a7573d5f803e3d5ffd5b5050604051601f1901519150506001600160a01b0381166139cf575f600192509250506139d5565b91505f90505b94509492505050565b828054828255905f5260205f20908101928215613a31579160200282015b82811115613a3157825182546001600160a01b0319166001600160a01b039091161782556020909201916001909101906139fc565b50613a3d929150613b43565b5090565b828054828255905f5260205f20908101928215613a85579160200282015b82811115613a855782518290613a759082614389565b5091602001919060010190613a5f565b50613a3d929150613b57565b6040805160e08101909152805f81526020015f6001600160a01b031681526020015f6001600160a01b031681526020015f81526020015f815260200160608152602001606081525090565b6040805160808101909152805f8152602001613af6613a91565b815260200160608152602001606081525090565b6040518060600160405280613b1d613a91565b8152602001613b2a613adc565b81525f60209091015290565b6108878061468883390190565b5b80821115613a3d575f8155600101613b44565b80821115613a3d575f613b6a8282613b73565b50600101613b57565b508054613b7f90614305565b5f825580601f10613b8e575050565b601f0160209004905f5260205f2090810190613baa9190613b43565b50565b634e487b7160e01b5f52604160045260245ffd5b60405160e081016001600160401b0381118282101715613be357613be3613bad565b60405290565b604051601f8201601f191681016001600160401b0381118282101715613c1157613c11613bad565b604052919050565b5f82601f830112613c28575f80fd5b81356001600160401b03811115613c4157613c41613bad565b613c54601f8201601f1916602001613be9565b818152846020838601011115613c68575f80fd5b816020850160208301375f918101602001919091529392505050565b5f8060408385031215613c95575f80fd5b8235915060208301356001600160401b03811115613cb1575f80fd5b613cbd85828601613c19565b9150509250929050565b5f60208284031215613cd7575f80fd5b5035919050565b6001600160a01b0381168114613baa575f80fd5b8035613cfd81613cde565b919050565b5f805f60608486031215613d14575f80fd5b8335613d1f81613cde565b9250602084013591506040840135613d3681613cde565b809150509250925092565b5f6001600160401b03821115613d5957613d59613bad565b5060051b60200190565b5f82601f830112613d72575f80fd5b81356020613d87613d8283613d41565b613be9565b82815260059290921b84018101918181019086841115613da5575f80fd5b8286015b84811015613de25780356001600160401b03811115613dc6575f80fd5b613dd48986838b0101613c19565b845250918301918301613da9565b509695505050505050565b5f805f60608486031215613dff575f80fd5b833592506020808501356001600160401b0380821115613e1d575f80fd5b818701915087601f830112613e30575f80fd5b8135613e3e613d8282613d41565b81815260059190911b8301840190848101908a831115613e5c575f80fd5b938501935b82851015613e83578435613e7481613cde565b82529385019390850190613e61565b965050506040870135925080831115613e9a575f80fd5b5050613ea886828701613d63565b9150509250925092565b5f60208284031215613ec2575f80fd5b81356110fd81613cde565b803560038110613cfd575f80fd5b5f60208284031215613eeb575f80fd5b81356001600160401b0380821115613f01575f80fd5b9083019060e08286031215613f14575f80fd5b613f1c613bc1565b613f2583613ecd565b8152613f3360208401613cf2565b6020820152613f4460408401613cf2565b6040820152606083013560608201526080830135608082015260a083013582811115613f6e575f80fd5b613f7a87828601613c19565b60a08301525060c083013582811115613f91575f80fd5b613f9d87828601613c19565b60c08301525095945050505050565b60ff81168114613baa575f80fd5b5f805f805f8060c08789031215613fcf575f80fd5b8635613fda81613fac565b955060208701359450604087013593506060870135613ff881613cde565b925060808701356001600160401b0380821115614013575f80fd5b61401f8a838b01613c19565b935060a0890135915080821115614034575f80fd5b5061404189828a01613c19565b9150509295509295509295565b634e487b7160e01b5f52602160045260245ffd5b600381106140725761407261404e565b9052565b5f81518084528060208401602086015e5f602082860101526020601f19601f83011685010191505092915050565b6140af828251614062565b5f602082015160018060a01b0380821660208601528060408501511660408601525050606082015160608401526080820151608084015260a082015160e060a08501526140ff60e0850182614076565b905060c083015184820360c08601526141188282614076565b95945050505050565b5f8282518085526020808601955060208260051b840101602086015f5b8481101561416c57601f1986840301895261415a838351614076565b9884019892509083019060010161413e565b5090979650505050505050565b5f81516005811061418c5761418c61404e565b808452506020808301516080828601526141a960808601826140a4565b60408581015187830391880191909152805180835290840192505f918401905b808310156141f25783516001600160a01b031682529284019260019290920191908401906141c9565b5060608601519350868103606088015261420c8185614121565b979650505050505050565b602081525f6110fd6020830184614179565b5f806040838503121561423a575f80fd5b50508035926020909101359150565b5f60208083018184528085518083526040925060408601915060408160051b8701018488015f5b838110156142cc57603f19898403018552815160608151818652614296828701826140a4565b915050888201518582038a8701526142ae8282614179565b92890151958901959095525094870194925090860190600101614270565b509098975050505050505050565b5f805f606084860312156142ec575f80fd5b83359250602084013591506040840135613d3681613cde565b600181811c9082168061431957607f821691505b60208210810361433757634e487b7160e01b5f52602260045260245ffd5b50919050565b601f82111561438457805f5260205f20601f840160051c810160208510156143625750805b601f840160051c820191505b81811015614381575f815560010161436e565b50505b505050565b81516001600160401b038111156143a2576143a2613bad565b6143b6816143b08454614305565b8461433d565b602080601f8311600181146143e9575f84156143d25750858301515b5f19600386901b1c1916600185901b178555614440565b5f85815260208120601f198616915b82811015614417578886015182559484019460019091019084016143f8565b508582101561443457878501515f19600388901b60f8161c191681555b505060018460011b0185555b505050505050565b5f82518060208501845e5f920191825250919050565b634e487b7160e01b5f52601160045260245ffd5b808201808211156105245761052461445e565b80820281158282048414176105245761052461445e565b634e487b7160e01b5f52603260045260245ffd5b818103818111156105245761052461445e565b5f602082840312156144d3575f80fd5b815180151581146110fd575f80fd5b5f600182016144f3576144f361445e565b5060010190565b5f6020828403121561450a575f80fd5b81516110fd81613cde565b5f60208284031215614525575f80fd5b81516110fd81613fac565b60018060a01b0384168152826020820152606060408201525f6141186060830184614076565b888152610100810161456b602083018a614062565b6001600160a01b039788166040830152959096166060870152608086019390935260a085019190915260c084015260e09092019190915292915050565b5f602082840312156145b8575f80fd5b5051919050565b5f826145d957634e487b7160e01b5f52601260045260245ffd5b500490565b5f60208083850312156145ef575f80fd5b82516001600160401b03811115614604575f80fd5b8301601f81018513614614575f80fd5b8051614622613d8282613d41565b81815260059190911b82018301908381019087831115614640575f80fd5b928401925b8284101561420c57835161465881613cde565b82529284019290840190614645565b828152604060208201525f61467f6040830184614076565b94935050505056fe60a0604052348015600e575f80fd5b50604051610887380380610887833981016040819052602b916055565b5f80546001600160a01b0319166001600160a01b03939093169290921790915560ff16608052609a565b5f80604083850312156065575f80fd5b82516001600160a01b0381168114607a575f80fd5b602084015190925060ff81168114608f575f80fd5b809150509250929050565b6080516107d56100b25f395f61019601526107d55ff3fe60806040526004361061007e575f3560e01c80635c60da1b1161004d5780635c60da1b146101ca5780638da5cb5b14610201578063cb2f1df31461021f578063d784d4261461023e57610085565b806313af4035146100fd5780631626ba7e1461011c5780632adcd7af1461015957806334e0bebe1461018557610085565b3661008557005b5f3560e01c63bc197c81811463f23a6e6182141763150b7a02821417156100b057806020526020603cf35b506001546001600160a01b03166100da57604051631174132960e21b815260040160405180910390fd5b600154365f80375f80365f845af43d5f803e8080156100f7573d5ff35b3d5ffd5b005b348015610108575f80fd5b506100fb61011736600461054b565b61025d565b348015610127575f80fd5b5061013b610136366004610571565b6102a8565b6040516001600160e01b031990911681526020015b60405180910390f35b348015610164575f80fd5b506101786101733660046105e6565b6102cf565b6040516101509190610658565b348015610190575f80fd5b506101b87f000000000000000000000000000000000000000000000000000000000000000081565b60405160ff9091168152602001610150565b3480156101d5575f80fd5b506001546101e9906001600160a01b031681565b6040516001600160a01b039091168152602001610150565b34801561020c575f80fd5b505f546101e9906001600160a01b031681565b34801561022a575f80fd5b506100fb6102393660046106e9565b6104a4565b348015610249575f80fd5b506100fb61025836600461054b565b6104ed565b5f546001600160a01b03163314610287576040516330cd747160e01b815260040160405180910390fd5b5f80546001600160a01b0319166001600160a01b0392909216919091179055565b5f8381526002602052604081205460ff16156102c85750630b135d3f60e11b5b9392505050565b5f546060906001600160a01b031633148015906102ec5750333014155b1561030a576040516330cd747160e01b815260040160405180910390fd5b8167ffffffffffffffff81111561032357610323610700565b60405190808252806020026020018201604052801561036857816020015b604080518082019091525f8152606060208201528152602001906001900390816103415790505b5090505f5b8281101561049c575f8085858481811061038957610389610714565b905060200281019061039b9190610728565b6103a990602081019061054b565b6001600160a01b03168686858181106103c4576103c4610714565b90506020028101906103d69190610728565b6103e4906020810190610746565b6040516103f2929190610790565b5f604051808303815f865af19150503d805f811461042b576040519150601f19603f3d011682016040523d82523d5f602084013e610430565b606091505b5091509150868015610440575081155b1561045e5760405163177a8f7f60e11b815260040160405180910390fd5b604051806040016040528083151581526020018281525084848151811061048757610487610714565b6020908102919091010152505060010161036d565b509392505050565b5f546001600160a01b031633146104ce576040516330cd747160e01b815260040160405180910390fd5b5f908152600260205260409020805460ff19811660ff90911615179055565b5f546001600160a01b03163314610517576040516330cd747160e01b815260040160405180910390fd5b6001546001600160a01b0382811691161461054857600180546001600160a01b0319166001600160a01b0383161790555b50565b5f6020828403121561055b575f80fd5b81356001600160a01b03811681146102c8575f80fd5b5f805f60408486031215610583575f80fd5b83359250602084013567ffffffffffffffff808211156105a1575f80fd5b818601915086601f8301126105b4575f80fd5b8135818111156105c2575f80fd5b8760208285010111156105d3575f80fd5b6020830194508093505050509250925092565b5f805f604084860312156105f8575f80fd5b83358015158114610607575f80fd5b9250602084013567ffffffffffffffff80821115610623575f80fd5b818601915086601f830112610636575f80fd5b813581811115610644575f80fd5b8760208260051b85010111156105d3575f80fd5b5f60208083018184528085518083526040925060408601915060408160051b8701018488015f5b838110156106db57888303603f1901855281518051151584528701518784018790528051878501819052606081838b018288015e5f86830182015296890196601f909101601f191690940190930192509086019060010161067f565b509098975050505050505050565b5f602082840312156106f9575f80fd5b5035919050565b634e487b7160e01b5f52604160045260245ffd5b634e487b7160e01b5f52603260045260245ffd5b5f8235605e1983360301811261073c575f80fd5b9190910192915050565b5f808335601e1984360301811261075b575f80fd5b83018035915067ffffffffffffffff821115610775575f80fd5b602001915036819003821315610789575f80fd5b9250929050565b818382375f910190815291905056fea26469706673582212205d7bc329ce87736d1e52b0d73254cb0f8d42c2fc6622c28fc6ccffbb0dbc18d964736f6c63430008190033a264697066735822122002da3e85f064d3fe035cc1f5c2981bb7c5a43cb017725bbadcc5f41a390337f464736f6c63430008190033","linkReferences":{}},"methodIdentifiers":{"DOMAIN_SEPARATOR()":"3644e515","EIP712_DOMAIN_TYPEHASH()":"c7977be7","MOVEMENT_TYPEHASH()":"92fce5cb","WillToken()":"90ef12cd","WillWe()":"22ed94a0","createEndpointForOwner(address,uint256,address)":"47ac8cb4","createInitWillWeEndpoint(uint256)":"bd8f46f9","endpointOwner(address)":"60b27e11","executeQueue(bytes32)":"1edd0d5b","getDigestToSign((uint8,address,address,uint256,uint256,string,bytes))":"6a87271f","getEIP712MessageHash(bytes32)":"daa10cf3","getLatentMovements(uint256)":"c0ecadbc","getSigQueue(bytes32)":"95118154","hashMovement((uint8,address,address,uint256,uint256,string,bytes))":"d2ccb7e2","isQueueValid(bytes32)":"e7dd3117","isValidSignature(bytes32,bytes)":"1626ba7e","lastSalt()":"30996b97","nextSalt()":"87d53348","removeLatentAction(bytes32,uint256)":"aff8d6bf","removeSignature(bytes32,uint256,address)":"eb3b3963","setWillWe(address)":"ea3c1aac","startMovement(uint8,uint256,uint256,address,string,bytes)":"817960b2","submitSignatures(bytes32,address[],bytes[])":"5831122a"},"storageLayout":{"storage":[{"astId":51527,"contract":"src/Execution.sol:Execution","label":"WillToken","offset":0,"slot":"0","type":"t_address"},{"astId":51530,"contract":"src/Execution.sol:Execution","label":"WillWe","offset":0,"slot":"1","type":"t_contract(IFun)60188"},{"astId":51532,"contract":"src/Execution.sol:Execution","label":"lastSalt","offset":0,"slot":"2","type":"t_bytes32"},{"astId":51653,"contract":"src/Execution.sol:Execution","label":"getSigQueueByHash","offset":0,"slot":"3","type":"t_mapping(t_bytes32,t_struct(SignatureQueue)59653_storage)"},{"astId":51659,"contract":"src/Execution.sol:Execution","label":"latentActions","offset":0,"slot":"4","type":"t_mapping(t_uint256,t_array(t_bytes32)dyn_storage)"},{"astId":51664,"contract":"src/Execution.sol:Execution","label":"engineOwner","offset":0,"slot":"5","type":"t_mapping(t_address,t_uint256)"},{"astId":51669,"contract":"src/Execution.sol:Execution","label":"hasEndpointOrInteraction","offset":0,"slot":"6","type":"t_mapping(t_uint256,t_bool)"}],"types":{"t_address":{"encoding":"inplace","label":"address","numberOfBytes":"20"},"t_array(t_address)dyn_storage":{"encoding":"dynamic_array","label":"address[]","numberOfBytes":"32","base":"t_address"},"t_array(t_bytes32)dyn_storage":{"encoding":"dynamic_array","label":"bytes32[]","numberOfBytes":"32","base":"t_bytes32"},"t_array(t_bytes_storage)dyn_storage":{"encoding":"dynamic_array","label":"bytes[]","numberOfBytes":"32","base":"t_bytes_storage"},"t_bool":{"encoding":"inplace","label":"bool","numberOfBytes":"1"},"t_bytes32":{"encoding":"inplace","label":"bytes32","numberOfBytes":"32"},"t_bytes_storage":{"encoding":"bytes","label":"bytes","numberOfBytes":"32"},"t_contract(IFun)60188":{"encoding":"inplace","label":"contract IFun","numberOfBytes":"20"},"t_enum(MovementType)59624":{"encoding":"inplace","label":"enum MovementType","numberOfBytes":"1"},"t_enum(SQState)59620":{"encoding":"inplace","label":"enum SQState","numberOfBytes":"1"},"t_mapping(t_address,t_uint256)":{"encoding":"mapping","key":"t_address","label":"mapping(address => uint256)","numberOfBytes":"32","value":"t_uint256"},"t_mapping(t_bytes32,t_struct(SignatureQueue)59653_storage)":{"encoding":"mapping","key":"t_bytes32","label":"mapping(bytes32 => struct SignatureQueue)","numberOfBytes":"32","value":"t_struct(SignatureQueue)59653_storage"},"t_mapping(t_uint256,t_array(t_bytes32)dyn_storage)":{"encoding":"mapping","key":"t_uint256","label":"mapping(uint256 => bytes32[])","numberOfBytes":"32","value":"t_array(t_bytes32)dyn_storage"},"t_mapping(t_uint256,t_bool)":{"encoding":"mapping","key":"t_uint256","label":"mapping(uint256 => bool)","numberOfBytes":"32","value":"t_bool"},"t_string_storage":{"encoding":"bytes","label":"string","numberOfBytes":"32"},"t_struct(Movement)59640_storage":{"encoding":"inplace","label":"struct Movement","numberOfBytes":"192","members":[{"astId":59627,"contract":"src/Execution.sol:Execution","label":"category","offset":0,"slot":"0","type":"t_enum(MovementType)59624"},{"astId":59629,"contract":"src/Execution.sol:Execution","label":"initiatior","offset":1,"slot":"0","type":"t_address"},{"astId":59631,"contract":"src/Execution.sol:Execution","label":"exeAccount","offset":0,"slot":"1","type":"t_address"},{"astId":59633,"contract":"src/Execution.sol:Execution","label":"viaNode","offset":0,"slot":"2","type":"t_uint256"},{"astId":59635,"contract":"src/Execution.sol:Execution","label":"expiresAt","offset":0,"slot":"3","type":"t_uint256"},{"astId":59637,"contract":"src/Execution.sol:Execution","label":"description","offset":0,"slot":"4","type":"t_string_storage"},{"astId":59639,"contract":"src/Execution.sol:Execution","label":"executedPayload","offset":0,"slot":"5","type":"t_bytes_storage"}]},"t_struct(SignatureQueue)59653_storage":{"encoding":"inplace","label":"struct SignatureQueue","numberOfBytes":"288","members":[{"astId":59643,"contract":"src/Execution.sol:Execution","label":"state","offset":0,"slot":"0","type":"t_enum(SQState)59620"},{"astId":59646,"contract":"src/Execution.sol:Execution","label":"Action","offset":0,"slot":"1","type":"t_struct(Movement)59640_storage"},{"astId":59649,"contract":"src/Execution.sol:Execution","label":"Signers","offset":0,"slot":"7","type":"t_array(t_address)dyn_storage"},{"astId":59652,"contract":"src/Execution.sol:Execution","label":"Sigs","offset":0,"slot":"8","type":"t_array(t_bytes_storage)dyn_storage"}]},"t_uint256":{"encoding":"inplace","label":"uint256","numberOfBytes":"32"}}},"id":68}